{
	"abc.sol": {
		"CrowdFunding": {
			"abi": [
				{
					"inputs": [
						{
							"internalType": "uint256",
							"name": "_deadline",
							"type": "uint256"
						},
						{
							"internalType": "uint256",
							"name": "_target",
							"type": "uint256"
						}
					],
					"stateMutability": "nonpayable",
					"type": "constructor"
				},
				{
					"inputs": [],
					"name": "checkBalance",
					"outputs": [
						{
							"internalType": "uint256",
							"name": "",
							"type": "uint256"
						}
					],
					"stateMutability": "view",
					"type": "function"
				},
				{
					"inputs": [],
					"name": "contribute",
					"outputs": [],
					"stateMutability": "payable",
					"type": "function"
				},
				{
					"inputs": [
						{
							"internalType": "address",
							"name": "",
							"type": "address"
						}
					],
					"name": "contributors",
					"outputs": [
						{
							"internalType": "uint256",
							"name": "",
							"type": "uint256"
						}
					],
					"stateMutability": "view",
					"type": "function"
				},
				{
					"inputs": [
						{
							"internalType": "string",
							"name": "_fundingName",
							"type": "string"
						},
						{
							"internalType": "uint256",
							"name": "_value",
							"type": "uint256"
						},
						{
							"internalType": "address payable",
							"name": "_recipient",
							"type": "address"
						}
					],
					"name": "createCrowdFunding",
					"outputs": [],
					"stateMutability": "nonpayable",
					"type": "function"
				},
				{
					"inputs": [],
					"name": "deadline",
					"outputs": [
						{
							"internalType": "uint256",
							"name": "",
							"type": "uint256"
						}
					],
					"stateMutability": "view",
					"type": "function"
				},
				{
					"inputs": [
						{
							"internalType": "uint256",
							"name": "",
							"type": "uint256"
						}
					],
					"name": "makeCrowdFunding",
					"outputs": [
						{
							"internalType": "string",
							"name": "fundingName",
							"type": "string"
						},
						{
							"internalType": "address payable",
							"name": "recipient",
							"type": "address"
						},
						{
							"internalType": "uint256",
							"name": "value",
							"type": "uint256"
						},
						{
							"internalType": "bool",
							"name": "completed",
							"type": "bool"
						},
						{
							"internalType": "uint256",
							"name": "numberOfVoters",
							"type": "uint256"
						}
					],
					"stateMutability": "view",
					"type": "function"
				},
				{
					"inputs": [
						{
							"internalType": "uint256",
							"name": "_numRequest",
							"type": "uint256"
						}
					],
					"name": "makePayment",
					"outputs": [],
					"stateMutability": "nonpayable",
					"type": "function"
				},
				{
					"inputs": [],
					"name": "manager",
					"outputs": [
						{
							"internalType": "address",
							"name": "",
							"type": "address"
						}
					],
					"stateMutability": "view",
					"type": "function"
				},
				{
					"inputs": [],
					"name": "minimumContribution",
					"outputs": [
						{
							"internalType": "uint256",
							"name": "",
							"type": "uint256"
						}
					],
					"stateMutability": "view",
					"type": "function"
				},
				{
					"inputs": [],
					"name": "numberOfContributors",
					"outputs": [
						{
							"internalType": "uint256",
							"name": "",
							"type": "uint256"
						}
					],
					"stateMutability": "view",
					"type": "function"
				},
				{
					"inputs": [],
					"name": "numberOfMakeCrowdFunding",
					"outputs": [
						{
							"internalType": "uint256",
							"name": "",
							"type": "uint256"
						}
					],
					"stateMutability": "view",
					"type": "function"
				},
				{
					"inputs": [],
					"name": "raisedAmount",
					"outputs": [
						{
							"internalType": "uint256",
							"name": "",
							"type": "uint256"
						}
					],
					"stateMutability": "view",
					"type": "function"
				},
				{
					"inputs": [],
					"name": "refund",
					"outputs": [],
					"stateMutability": "nonpayable",
					"type": "function"
				},
				{
					"inputs": [],
					"name": "target",
					"outputs": [
						{
							"internalType": "uint256",
							"name": "",
							"type": "uint256"
						}
					],
					"stateMutability": "view",
					"type": "function"
				},
				{
					"inputs": [],
					"name": "voteCrowdFunding",
					"outputs": [],
					"stateMutability": "nonpayable",
					"type": "function"
				}
			],
			"devdoc": {
				"kind": "dev",
				"methods": {},
				"version": 1
			},
			"evm": {
				"assembly": "    /* \"abc.sol\":60:4923  contract CrowdFunding {... */\n  mstore(0x40, 0x80)\n    /* \"abc.sol\":884:1294  constructor(uint _deadline, uint _target) {... */\n  callvalue\n  dup1\n  iszero\n  tag_1\n  jumpi\n  0x00\n  dup1\n  revert\ntag_1:\n  pop\n  mload(0x40)\n  sub(codesize, bytecodeSize)\n  dup1\n  bytecodeSize\n  dup4\n  codecopy\n  dup2\n  dup2\n  add\n  0x40\n  mstore\n  dup2\n  add\n  swap1\n  tag_2\n  swap2\n  swap1\n  tag_3\n  jump\t// in\ntag_2:\n    /* \"abc.sol\":951:958  manager */\n  0x02\n  0x00\n  swap1\n  sload\n  swap1\n  0x0100\n  exp\n  swap1\n  pop\n  pop\n    /* \"abc.sol\":980:989  _deadline */\n  dup2\n    /* \"abc.sol\":969:977  deadline */\n  0x03\n    /* \"abc.sol\":969:989  deadline = _deadline */\n  dup2\n  swap1\n  sstore\n  pop\n    /* \"abc.sol\":1049:1056  _target */\n  dup1\n    /* \"abc.sol\":1040:1046  target */\n  0x04\n    /* \"abc.sol\":1040:1056  target = _target */\n  dup2\n  swap1\n  sstore\n  pop\n    /* \"abc.sol\":1127:1134  1 ether */\n  0x0de0b6b3a7640000\n    /* \"abc.sol\":1105:1124  minimumContribution */\n  0x05\n    /* \"abc.sol\":1105:1134  minimumContribution = 1 ether */\n  dup2\n  swap1\n  sstore\n  pop\n    /* \"abc.sol\":1228:1229  0 */\n  0x00\n    /* \"abc.sol\":1201:1225  numberOfMakeCrowdFunding */\n  0x08\n    /* \"abc.sol\":1201:1229  numberOfMakeCrowdFunding = 0 */\n  dup2\n  swap1\n  sstore\n  pop\n    /* \"abc.sol\":884:1294  constructor(uint _deadline, uint _target) {... */\n  pop\n  pop\n    /* \"abc.sol\":60:4923  contract CrowdFunding {... */\n  jump(tag_6)\n    /* \"#utility.yul\":88:205   */\ntag_8:\n    /* \"#utility.yul\":197:198   */\n  0x00\n    /* \"#utility.yul\":194:195   */\n  dup1\n    /* \"#utility.yul\":187:199   */\n  revert\n    /* \"#utility.yul\":334:411   */\ntag_10:\n    /* \"#utility.yul\":371:378   */\n  0x00\n    /* \"#utility.yul\":400:405   */\n  dup2\n    /* \"#utility.yul\":389:405   */\n  swap1\n  pop\n    /* \"#utility.yul\":334:411   */\n  swap2\n  swap1\n  pop\n  jump\t// out\n    /* \"#utility.yul\":417:539   */\ntag_11:\n    /* \"#utility.yul\":490:514   */\n  tag_19\n    /* \"#utility.yul\":508:513   */\n  dup2\n    /* \"#utility.yul\":490:514   */\n  tag_10\n  jump\t// in\ntag_19:\n    /* \"#utility.yul\":483:488   */\n  dup2\n    /* \"#utility.yul\":480:515   */\n  eq\n    /* \"#utility.yul\":470:533   */\n  tag_20\n  jumpi\n    /* \"#utility.yul\":529:530   */\n  0x00\n    /* \"#utility.yul\":526:527   */\n  dup1\n    /* \"#utility.yul\":519:531   */\n  revert\n    /* \"#utility.yul\":470:533   */\ntag_20:\n    /* \"#utility.yul\":417:539   */\n  pop\n  jump\t// out\n    /* \"#utility.yul\":545:688   */\ntag_12:\n    /* \"#utility.yul\":602:607   */\n  0x00\n    /* \"#utility.yul\":633:639   */\n  dup2\n    /* \"#utility.yul\":627:640   */\n  mload\n    /* \"#utility.yul\":618:640   */\n  swap1\n  pop\n    /* \"#utility.yul\":649:682   */\n  tag_22\n    /* \"#utility.yul\":676:681   */\n  dup2\n    /* \"#utility.yul\":649:682   */\n  tag_11\n  jump\t// in\ntag_22:\n    /* \"#utility.yul\":545:688   */\n  swap3\n  swap2\n  pop\n  pop\n  jump\t// out\n    /* \"#utility.yul\":694:1201   */\ntag_3:\n    /* \"#utility.yul\":773:779   */\n  0x00\n    /* \"#utility.yul\":781:787   */\n  dup1\n    /* \"#utility.yul\":830:832   */\n  0x40\n    /* \"#utility.yul\":818:827   */\n  dup4\n    /* \"#utility.yul\":809:816   */\n  dup6\n    /* \"#utility.yul\":805:828   */\n  sub\n    /* \"#utility.yul\":801:833   */\n  slt\n    /* \"#utility.yul\":798:917   */\n  iszero\n  tag_24\n  jumpi\n    /* \"#utility.yul\":836:915   */\n  tag_25\n  tag_8\n  jump\t// in\ntag_25:\n    /* \"#utility.yul\":798:917   */\ntag_24:\n    /* \"#utility.yul\":956:957   */\n  0x00\n    /* \"#utility.yul\":981:1045   */\n  tag_26\n    /* \"#utility.yul\":1037:1044   */\n  dup6\n    /* \"#utility.yul\":1028:1034   */\n  dup3\n    /* \"#utility.yul\":1017:1026   */\n  dup7\n    /* \"#utility.yul\":1013:1035   */\n  add\n    /* \"#utility.yul\":981:1045   */\n  tag_12\n  jump\t// in\ntag_26:\n    /* \"#utility.yul\":971:1045   */\n  swap3\n  pop\n    /* \"#utility.yul\":927:1055   */\n  pop\n    /* \"#utility.yul\":1094:1096   */\n  0x20\n    /* \"#utility.yul\":1120:1184   */\n  tag_27\n    /* \"#utility.yul\":1176:1183   */\n  dup6\n    /* \"#utility.yul\":1167:1173   */\n  dup3\n    /* \"#utility.yul\":1156:1165   */\n  dup7\n    /* \"#utility.yul\":1152:1174   */\n  add\n    /* \"#utility.yul\":1120:1184   */\n  tag_12\n  jump\t// in\ntag_27:\n    /* \"#utility.yul\":1110:1184   */\n  swap2\n  pop\n    /* \"#utility.yul\":1065:1194   */\n  pop\n    /* \"#utility.yul\":694:1201   */\n  swap3\n  pop\n  swap3\n  swap1\n  pop\n  jump\t// out\n    /* \"abc.sol\":60:4923  contract CrowdFunding {... */\ntag_6:\n  dataSize(sub_0)\n  dup1\n  dataOffset(sub_0)\n  0x00\n  codecopy\n  0x00\n  return\nstop\n\nsub_0: assembly {\n        /* \"abc.sol\":60:4923  contract CrowdFunding {... */\n      mstore(0x40, 0x80)\n      jumpi(tag_1, lt(calldatasize, 0x04))\n      shr(0xe0, calldataload(0x00))\n      dup1\n      0x8aa52eb5\n      gt\n      tag_17\n      jumpi\n      dup1\n      0xc71daccb\n      gt\n      tag_18\n      jumpi\n      dup1\n      0xc71daccb\n      eq\n      tag_13\n      jumpi\n      dup1\n      0xd4b83992\n      eq\n      tag_14\n      jumpi\n      dup1\n      0xd7bb99ba\n      eq\n      tag_15\n      jumpi\n      dup1\n      0xeaac9e5d\n      eq\n      tag_16\n      jumpi\n      jump(tag_1)\n    tag_18:\n      dup1\n      0x8aa52eb5\n      eq\n      tag_9\n      jumpi\n      dup1\n      0x937e09b1\n      eq\n      tag_10\n      jumpi\n      dup1\n      0xc34f712a\n      eq\n      tag_11\n      jumpi\n      dup1\n      0xc59ee1dc\n      eq\n      tag_12\n      jumpi\n      jump(tag_1)\n    tag_17:\n      dup1\n      0x481c6a75\n      gt\n      tag_19\n      jumpi\n      dup1\n      0x481c6a75\n      eq\n      tag_5\n      jumpi\n      dup1\n      0x5114cb52\n      eq\n      tag_6\n      jumpi\n      dup1\n      0x590e1ae3\n      eq\n      tag_7\n      jumpi\n      dup1\n      0x6a8961d8\n      eq\n      tag_8\n      jumpi\n      jump(tag_1)\n    tag_19:\n      dup1\n      0x1f6d4942\n      eq\n      tag_2\n      jumpi\n      dup1\n      0x29dcb0cf\n      eq\n      tag_3\n      jumpi\n      dup1\n      0x4377cf65\n      eq\n      tag_4\n      jumpi\n    tag_1:\n      0x00\n      dup1\n      revert\n        /* \"abc.sol\":535:579  mapping(address => uint) public contributors */\n    tag_2:\n      callvalue\n      dup1\n      iszero\n      tag_20\n      jumpi\n      0x00\n      dup1\n      revert\n    tag_20:\n      pop\n      tag_21\n      0x04\n      dup1\n      calldatasize\n      sub\n      dup2\n      add\n      swap1\n      tag_22\n      swap2\n      swap1\n      tag_23\n      jump\t// in\n    tag_22:\n      tag_24\n      jump\t// in\n    tag_21:\n      mload(0x40)\n      tag_25\n      swap2\n      swap1\n      tag_26\n      jump\t// in\n    tag_25:\n      mload(0x40)\n      dup1\n      swap2\n      sub\n      swap1\n      return\n        /* \"abc.sol\":679:699  uint public deadline */\n    tag_3:\n      callvalue\n      dup1\n      iszero\n      tag_27\n      jumpi\n      0x00\n      dup1\n      revert\n    tag_27:\n      pop\n      tag_28\n      tag_29\n      jump\t// in\n    tag_28:\n      mload(0x40)\n      tag_30\n      swap2\n      swap1\n      tag_26\n      jump\t// in\n    tag_30:\n      mload(0x40)\n      dup1\n      swap2\n      sub\n      swap1\n      return\n        /* \"abc.sol\":800:832  uint public numberOfContributors */\n    tag_4:\n      callvalue\n      dup1\n      iszero\n      tag_31\n      jumpi\n      0x00\n      dup1\n      revert\n    tag_31:\n      pop\n      tag_32\n      tag_33\n      jump\t// in\n    tag_32:\n      mload(0x40)\n      tag_34\n      swap2\n      swap1\n      tag_26\n      jump\t// in\n    tag_34:\n      mload(0x40)\n      dup1\n      swap2\n      sub\n      swap1\n      return\n        /* \"abc.sol\":650:672  address public manager */\n    tag_5:\n      callvalue\n      dup1\n      iszero\n      tag_35\n      jumpi\n      0x00\n      dup1\n      revert\n    tag_35:\n      pop\n      tag_36\n      tag_37\n      jump\t// in\n    tag_36:\n      mload(0x40)\n      tag_38\n      swap2\n      swap1\n      tag_39\n      jump\t// in\n    tag_38:\n      mload(0x40)\n      dup1\n      swap2\n      sub\n      swap1\n      return\n        /* \"abc.sol\":4063:4920  function makePayment(uint _numRequest) public {... */\n    tag_6:\n      callvalue\n      dup1\n      iszero\n      tag_40\n      jumpi\n      0x00\n      dup1\n      revert\n    tag_40:\n      pop\n      tag_41\n      0x04\n      dup1\n      calldatasize\n      sub\n      dup2\n      add\n      swap1\n      tag_42\n      swap2\n      swap1\n      tag_43\n      jump\t// in\n    tag_42:\n      tag_44\n      jump\t// in\n    tag_41:\n      stop\n        /* \"abc.sol\":2869:3425  function refund() public {... */\n    tag_7:\n      callvalue\n      dup1\n      iszero\n      tag_45\n      jumpi\n      0x00\n      dup1\n      revert\n    tag_45:\n      pop\n      tag_46\n      tag_47\n      jump\t// in\n    tag_46:\n      stop\n        /* \"abc.sol\":3433:4055  function voteCrowdFunding() public {... */\n    tag_8:\n      callvalue\n      dup1\n      iszero\n      tag_48\n      jumpi\n      0x00\n      dup1\n      revert\n    tag_48:\n      pop\n      tag_49\n      tag_50\n      jump\t// in\n    tag_49:\n      stop\n        /* \"abc.sol\":839:875  uint public numberOfMakeCrowdFunding */\n    tag_9:\n      callvalue\n      dup1\n      iszero\n      tag_51\n      jumpi\n      0x00\n      dup1\n      revert\n    tag_51:\n      pop\n      tag_52\n      tag_53\n      jump\t// in\n    tag_52:\n      mload(0x40)\n      tag_54\n      swap2\n      swap1\n      tag_26\n      jump\t// in\n    tag_54:\n      mload(0x40)\n      dup1\n      swap2\n      sub\n      swap1\n      return\n        /* \"abc.sol\":731:762  uint public minimumContribution */\n    tag_10:\n      callvalue\n      dup1\n      iszero\n      tag_55\n      jumpi\n      0x00\n      dup1\n      revert\n    tag_55:\n      pop\n      tag_56\n      tag_57\n      jump\t// in\n    tag_56:\n      mload(0x40)\n      tag_58\n      swap2\n      swap1\n      tag_26\n      jump\t// in\n    tag_58:\n      mload(0x40)\n      dup1\n      swap2\n      sub\n      swap1\n      return\n        /* \"abc.sol\":1394:2173  function createCrowdFunding (string memory _fundingName, uint _value , address payable _recipient) public onlyManager {... */\n    tag_11:\n      callvalue\n      dup1\n      iszero\n      tag_59\n      jumpi\n      0x00\n      dup1\n      revert\n    tag_59:\n      pop\n      tag_60\n      0x04\n      dup1\n      calldatasize\n      sub\n      dup2\n      add\n      swap1\n      tag_61\n      swap2\n      swap1\n      tag_62\n      jump\t// in\n    tag_61:\n      tag_63\n      jump\t// in\n    tag_60:\n      stop\n        /* \"abc.sol\":769:793  uint public raisedAmount */\n    tag_12:\n      callvalue\n      dup1\n      iszero\n      tag_64\n      jumpi\n      0x00\n      dup1\n      revert\n    tag_64:\n      pop\n      tag_65\n      tag_66\n      jump\t// in\n    tag_65:\n      mload(0x40)\n      tag_67\n      swap2\n      swap1\n      tag_26\n      jump\t// in\n    tag_67:\n      mload(0x40)\n      dup1\n      swap2\n      sub\n      swap1\n      return\n        /* \"abc.sol\":2764:2861  function checkBalance() public view returns(uint) {... */\n    tag_13:\n      callvalue\n      dup1\n      iszero\n      tag_68\n      jumpi\n      0x00\n      dup1\n      revert\n    tag_68:\n      pop\n      tag_69\n      tag_70\n      jump\t// in\n    tag_69:\n      mload(0x40)\n      tag_71\n      swap2\n      swap1\n      tag_26\n      jump\t// in\n    tag_71:\n      mload(0x40)\n      dup1\n      swap2\n      sub\n      swap1\n      return\n        /* \"abc.sol\":706:724  uint public target */\n    tag_14:\n      callvalue\n      dup1\n      iszero\n      tag_72\n      jumpi\n      0x00\n      dup1\n      revert\n    tag_72:\n      pop\n      tag_73\n      tag_74\n      jump\t// in\n    tag_73:\n      mload(0x40)\n      tag_75\n      swap2\n      swap1\n      tag_26\n      jump\t// in\n    tag_75:\n      mload(0x40)\n      dup1\n      swap2\n      sub\n      swap1\n      return\n        /* \"abc.sol\":2181:2756  function contribute() public payable {... */\n    tag_15:\n      tag_76\n      tag_77\n      jump\t// in\n    tag_76:\n      stop\n        /* \"abc.sol\":586:643  mapping(uint => MakeCrowdFunding) public makeCrowdFunding */\n    tag_16:\n      callvalue\n      dup1\n      iszero\n      tag_78\n      jumpi\n      0x00\n      dup1\n      revert\n    tag_78:\n      pop\n      tag_79\n      0x04\n      dup1\n      calldatasize\n      sub\n      dup2\n      add\n      swap1\n      tag_80\n      swap2\n      swap1\n      tag_43\n      jump\t// in\n    tag_80:\n      tag_81\n      jump\t// in\n    tag_79:\n      mload(0x40)\n      tag_82\n      swap6\n      swap5\n      swap4\n      swap3\n      swap2\n      swap1\n      tag_83\n      jump\t// in\n    tag_82:\n      mload(0x40)\n      dup1\n      swap2\n      sub\n      swap1\n      return\n        /* \"abc.sol\":535:579  mapping(address => uint) public contributors */\n    tag_24:\n      mstore(0x20, 0x00)\n      dup1\n      0x00\n      mstore\n      keccak256(0x00, 0x40)\n      0x00\n      swap2\n      pop\n      swap1\n      pop\n      sload\n      dup2\n      jump\t// out\n        /* \"abc.sol\":679:699  uint public deadline */\n    tag_29:\n      sload(0x03)\n      dup2\n      jump\t// out\n        /* \"abc.sol\":800:832  uint public numberOfContributors */\n    tag_33:\n      sload(0x07)\n      dup2\n      jump\t// out\n        /* \"abc.sol\":650:672  address public manager */\n    tag_37:\n      0x02\n      0x00\n      swap1\n      sload\n      swap1\n      0x0100\n      exp\n      swap1\n      div\n      0xffffffffffffffffffffffffffffffffffffffff\n      and\n      dup2\n      jump\t// out\n        /* \"abc.sol\":4063:4920  function makePayment(uint _numRequest) public {... */\n    tag_44:\n        /* \"abc.sol\":4144:4150  target */\n      sload(0x04)\n        /* \"abc.sol\":4128:4140  raisedAmount */\n      sload(0x06)\n        /* \"abc.sol\":4128:4150  raisedAmount >= target */\n      lt\n      iszero\n        /* \"abc.sol\":4120:4187  require(raisedAmount >= target, 'Target amount is not reached yet') */\n      tag_85\n      jumpi\n      mload(0x40)\n      0x08c379a000000000000000000000000000000000000000000000000000000000\n      dup2\n      mstore\n      0x04\n      add\n      tag_86\n      swap1\n      tag_87\n      jump\t// in\n    tag_86:\n      mload(0x40)\n      dup1\n      swap2\n      sub\n      swap1\n      revert\n    tag_85:\n        /* \"abc.sol\":4275:4311  MakeCrowdFunding storage thisRequest */\n      0x00\n        /* \"abc.sol\":4314:4330  makeCrowdFunding */\n      0x01\n        /* \"abc.sol\":4314:4343  makeCrowdFunding[_numRequest] */\n      0x00\n        /* \"abc.sol\":4331:4342  _numRequest */\n      dup4\n        /* \"abc.sol\":4314:4343  makeCrowdFunding[_numRequest] */\n      dup2\n      mstore\n      0x20\n      add\n      swap1\n      dup2\n      mstore\n      0x20\n      add\n      0x00\n      keccak256\n        /* \"abc.sol\":4275:4343  MakeCrowdFunding storage thisRequest = makeCrowdFunding[_numRequest] */\n      swap1\n      pop\n        /* \"abc.sol\":4476:4481  false */\n      0x00\n        /* \"abc.sol\":4451:4481  thisRequest.completed == false */\n      iszero\n      iszero\n        /* \"abc.sol\":4451:4462  thisRequest */\n      dup2\n        /* \"abc.sol\":4451:4472  thisRequest.completed */\n      0x03\n      add\n      0x00\n      swap1\n      sload\n      swap1\n      0x0100\n      exp\n      swap1\n      div\n      0xff\n      and\n        /* \"abc.sol\":4451:4481  thisRequest.completed == false */\n      iszero\n      iszero\n      eq\n        /* \"abc.sol\":4443:4525  require(thisRequest.completed == false, 'This funding has already been completed') */\n      tag_88\n      jumpi\n      mload(0x40)\n      0x08c379a000000000000000000000000000000000000000000000000000000000\n      dup2\n      mstore\n      0x04\n      add\n      tag_89\n      swap1\n      tag_90\n      jump\t// in\n    tag_89:\n      mload(0x40)\n      dup1\n      swap2\n      sub\n      swap1\n      revert\n    tag_88:\n        /* \"abc.sol\":4638:4639  2 */\n      0x02\n        /* \"abc.sol\":4615:4635  numberOfContributors */\n      sload(0x07)\n        /* \"abc.sol\":4615:4639  numberOfContributors / 2 */\n      tag_91\n      swap2\n      swap1\n      tag_92\n      jump\t// in\n    tag_91:\n        /* \"abc.sol\":4585:4596  thisRequest */\n      dup2\n        /* \"abc.sol\":4585:4611  thisRequest.numberOfVoters */\n      0x05\n      add\n      sload\n        /* \"abc.sol\":4585:4639  thisRequest.numberOfVoters >= numberOfContributors / 2 */\n      lt\n      iszero\n        /* \"abc.sol\":4577:4678  require(thisRequest.numberOfVoters >= numberOfContributors / 2, 'Not enough votes to make a payment') */\n      tag_93\n      jumpi\n      mload(0x40)\n      0x08c379a000000000000000000000000000000000000000000000000000000000\n      dup2\n      mstore\n      0x04\n      add\n      tag_94\n      swap1\n      tag_95\n      jump\t// in\n    tag_94:\n      mload(0x40)\n      dup1\n      swap2\n      sub\n      swap1\n      revert\n    tag_93:\n        /* \"abc.sol\":4751:4762  thisRequest */\n      dup1\n        /* \"abc.sol\":4751:4772  thisRequest.recipient */\n      0x01\n      add\n      0x00\n      swap1\n      sload\n      swap1\n      0x0100\n      exp\n      swap1\n      div\n      0xffffffffffffffffffffffffffffffffffffffff\n      and\n        /* \"abc.sol\":4751:4781  thisRequest.recipient.transfer */\n      0xffffffffffffffffffffffffffffffffffffffff\n      and\n        /* \"abc.sol\":4751:4800  thisRequest.recipient.transfer(thisRequest.value) */\n      0x08fc\n        /* \"abc.sol\":4782:4793  thisRequest */\n      dup3\n        /* \"abc.sol\":4782:4799  thisRequest.value */\n      0x02\n      add\n      sload\n        /* \"abc.sol\":4751:4800  thisRequest.recipient.transfer(thisRequest.value) */\n      swap1\n      dup2\n      iszero\n      mul\n      swap1\n      mload(0x40)\n      0x00\n      mload(0x40)\n      dup1\n      dup4\n      sub\n      dup2\n      dup6\n      dup9\n      dup9\n      call\n      swap4\n      pop\n      pop\n      pop\n      pop\n      iszero\n      dup1\n      iszero\n      tag_97\n      jumpi\n      returndatasize\n      0x00\n      dup1\n      returndatacopy\n      revert(0x00, returndatasize)\n    tag_97:\n      pop\n        /* \"abc.sol\":4870:4874  true */\n      0x01\n        /* \"abc.sol\":4846:4857  thisRequest */\n      dup2\n        /* \"abc.sol\":4846:4867  thisRequest.completed */\n      0x03\n      add\n      0x00\n        /* \"abc.sol\":4846:4874  thisRequest.completed = true */\n      0x0100\n      exp\n      dup2\n      sload\n      dup2\n      0xff\n      mul\n      not\n      and\n      swap1\n      dup4\n      iszero\n      iszero\n      mul\n      or\n      swap1\n      sstore\n      pop\n        /* \"abc.sol\":4109:4920  {... */\n      pop\n        /* \"abc.sol\":4063:4920  function makePayment(uint _numRequest) public {... */\n      pop\n      jump\t// out\n        /* \"abc.sol\":2869:3425  function refund() public {... */\n    tag_47:\n        /* \"abc.sol\":2940:2941  0 */\n      0x00\n        /* \"abc.sol\":2913:2925  contributors */\n      dup1\n        /* \"abc.sol\":2913:2937  contributors[msg.sender] */\n      0x00\n        /* \"abc.sol\":2926:2936  msg.sender */\n      caller\n        /* \"abc.sol\":2913:2937  contributors[msg.sender] */\n      0xffffffffffffffffffffffffffffffffffffffff\n      and\n      0xffffffffffffffffffffffffffffffffffffffff\n      and\n      dup2\n      mstore\n      0x20\n      add\n      swap1\n      dup2\n      mstore\n      0x20\n      add\n      0x00\n      keccak256\n      sload\n        /* \"abc.sol\":2913:2941  contributors[msg.sender] > 0 */\n      gt\n        /* \"abc.sol\":2905:2972  require(contributors[msg.sender] > 0, 'You are not a contributors') */\n      tag_99\n      jumpi\n      mload(0x40)\n      0x08c379a000000000000000000000000000000000000000000000000000000000\n      dup2\n      mstore\n      0x04\n      add\n      tag_100\n      swap1\n      tag_101\n      jump\t// in\n    tag_100:\n      mload(0x40)\n      dup1\n      swap2\n      sub\n      swap1\n      revert\n    tag_99:\n        /* \"abc.sol\":3055:3063  deadline */\n      sload(0x03)\n        /* \"abc.sol\":3037:3052  block.timestamp */\n      timestamp\n        /* \"abc.sol\":3037:3063  block.timestamp > deadline */\n      gt\n        /* \"abc.sol\":3037:3088  block.timestamp > deadline && raisedAmount < target */\n      dup1\n      iszero\n      tag_102\n      jumpi\n      pop\n        /* \"abc.sol\":3082:3088  target */\n      sload(0x04)\n        /* \"abc.sol\":3067:3079  raisedAmount */\n      sload(0x06)\n        /* \"abc.sol\":3067:3088  raisedAmount < target */\n      lt\n        /* \"abc.sol\":3037:3088  block.timestamp > deadline && raisedAmount < target */\n    tag_102:\n        /* \"abc.sol\":3029:3155  require(block.timestamp > deadline && raisedAmount < target, 'Deadline has been reached and target amount is not reached yet') */\n      tag_103\n      jumpi\n      mload(0x40)\n      0x08c379a000000000000000000000000000000000000000000000000000000000\n      dup2\n      mstore\n      0x04\n      add\n      tag_104\n      swap1\n      tag_105\n      jump\t// in\n    tag_104:\n      mload(0x40)\n      dup1\n      swap2\n      sub\n      swap1\n      revert\n    tag_103:\n        /* \"abc.sol\":3242:3252  msg.sender */\n      caller\n        /* \"abc.sol\":3234:3262  payable(msg.sender).transfer */\n      0xffffffffffffffffffffffffffffffffffffffff\n      and\n        /* \"abc.sol\":3234:3288  payable(msg.sender).transfer(contributors[msg.sender]) */\n      0x08fc\n        /* \"abc.sol\":3263:3275  contributors */\n      0x00\n        /* \"abc.sol\":3263:3287  contributors[msg.sender] */\n      dup1\n        /* \"abc.sol\":3276:3286  msg.sender */\n      caller\n        /* \"abc.sol\":3263:3287  contributors[msg.sender] */\n      0xffffffffffffffffffffffffffffffffffffffff\n      and\n      0xffffffffffffffffffffffffffffffffffffffff\n      and\n      dup2\n      mstore\n      0x20\n      add\n      swap1\n      dup2\n      mstore\n      0x20\n      add\n      0x00\n      keccak256\n      sload\n        /* \"abc.sol\":3234:3288  payable(msg.sender).transfer(contributors[msg.sender]) */\n      swap1\n      dup2\n      iszero\n      mul\n      swap1\n      mload(0x40)\n      0x00\n      mload(0x40)\n      dup1\n      dup4\n      sub\n      dup2\n      dup6\n      dup9\n      dup9\n      call\n      swap4\n      pop\n      pop\n      pop\n      pop\n      iszero\n      dup1\n      iszero\n      tag_107\n      jumpi\n      returndatasize\n      0x00\n      dup1\n      returndatacopy\n      revert(0x00, returndatasize)\n    tag_107:\n      pop\n        /* \"abc.sol\":3374:3375  0 */\n      0x00\n        /* \"abc.sol\":3347:3359  contributors */\n      dup1\n        /* \"abc.sol\":3347:3371  contributors[msg.sender] */\n      0x00\n        /* \"abc.sol\":3360:3370  msg.sender */\n      caller\n        /* \"abc.sol\":3347:3371  contributors[msg.sender] */\n      0xffffffffffffffffffffffffffffffffffffffff\n      and\n      0xffffffffffffffffffffffffffffffffffffffff\n      and\n      dup2\n      mstore\n      0x20\n      add\n      swap1\n      dup2\n      mstore\n      0x20\n      add\n      0x00\n      keccak256\n        /* \"abc.sol\":3347:3375  contributors[msg.sender] = 0 */\n      dup2\n      swap1\n      sstore\n      pop\n        /* \"abc.sol\":2869:3425  function refund() public {... */\n      jump\t// out\n        /* \"abc.sol\":3433:4055  function voteCrowdFunding() public {... */\n    tag_50:\n        /* \"abc.sol\":3514:3515  0 */\n      0x00\n        /* \"abc.sol\":3487:3499  contributors */\n      dup1\n        /* \"abc.sol\":3487:3511  contributors[msg.sender] */\n      0x00\n        /* \"abc.sol\":3500:3510  msg.sender */\n      caller\n        /* \"abc.sol\":3487:3511  contributors[msg.sender] */\n      0xffffffffffffffffffffffffffffffffffffffff\n      and\n      0xffffffffffffffffffffffffffffffffffffffff\n      and\n      dup2\n      mstore\n      0x20\n      add\n      swap1\n      dup2\n      mstore\n      0x20\n      add\n      0x00\n      keccak256\n      sload\n        /* \"abc.sol\":3487:3515  contributors[msg.sender] > 0 */\n      gt\n        /* \"abc.sol\":3479:3546  require(contributors[msg.sender] > 0, 'You are not a contributors') */\n      tag_109\n      jumpi\n      mload(0x40)\n      0x08c379a000000000000000000000000000000000000000000000000000000000\n      dup2\n      mstore\n      0x04\n      add\n      tag_110\n      swap1\n      tag_101\n      jump\t// in\n    tag_110:\n      mload(0x40)\n      dup1\n      swap2\n      sub\n      swap1\n      revert\n    tag_109:\n        /* \"abc.sol\":3603:3639  MakeCrowdFunding storage thisRequest */\n      0x00\n        /* \"abc.sol\":3642:3658  makeCrowdFunding */\n      0x01\n        /* \"abc.sol\":3642:3684  makeCrowdFunding[numberOfMakeCrowdFunding] */\n      0x00\n        /* \"abc.sol\":3659:3683  numberOfMakeCrowdFunding */\n      sload(0x08)\n        /* \"abc.sol\":3642:3684  makeCrowdFunding[numberOfMakeCrowdFunding] */\n      dup2\n      mstore\n      0x20\n      add\n      swap1\n      dup2\n      mstore\n      0x20\n      add\n      0x00\n      keccak256\n        /* \"abc.sol\":3603:3684  MakeCrowdFunding storage thisRequest = makeCrowdFunding[numberOfMakeCrowdFunding] */\n      swap1\n      pop\n        /* \"abc.sol\":3780:3785  false */\n      0x00\n        /* \"abc.sol\":3746:3785  thisRequest.voters[msg.sender] == false */\n      iszero\n      iszero\n        /* \"abc.sol\":3746:3757  thisRequest */\n      dup2\n        /* \"abc.sol\":3746:3764  thisRequest.voters */\n      0x04\n      add\n        /* \"abc.sol\":3746:3776  thisRequest.voters[msg.sender] */\n      0x00\n        /* \"abc.sol\":3765:3775  msg.sender */\n      caller\n        /* \"abc.sol\":3746:3776  thisRequest.voters[msg.sender] */\n      0xffffffffffffffffffffffffffffffffffffffff\n      and\n      0xffffffffffffffffffffffffffffffffffffffff\n      and\n      dup2\n      mstore\n      0x20\n      add\n      swap1\n      dup2\n      mstore\n      0x20\n      add\n      0x00\n      keccak256\n      0x00\n      swap1\n      sload\n      swap1\n      0x0100\n      exp\n      swap1\n      div\n      0xff\n      and\n        /* \"abc.sol\":3746:3785  thisRequest.voters[msg.sender] == false */\n      iszero\n      iszero\n      eq\n        /* \"abc.sol\":3738:3812  require(thisRequest.voters[msg.sender] == false, 'You have already voted') */\n      tag_111\n      jumpi\n      mload(0x40)\n      0x08c379a000000000000000000000000000000000000000000000000000000000\n      dup2\n      mstore\n      0x04\n      add\n      tag_112\n      swap1\n      tag_113\n      jump\t// in\n    tag_112:\n      mload(0x40)\n      dup1\n      swap2\n      sub\n      swap1\n      revert\n    tag_111:\n        /* \"abc.sol\":3901:3905  true */\n      0x01\n        /* \"abc.sol\":3868:3879  thisRequest */\n      dup2\n        /* \"abc.sol\":3868:3886  thisRequest.voters */\n      0x04\n      add\n        /* \"abc.sol\":3868:3898  thisRequest.voters[msg.sender] */\n      0x00\n        /* \"abc.sol\":3887:3897  msg.sender */\n      caller\n        /* \"abc.sol\":3868:3898  thisRequest.voters[msg.sender] */\n      0xffffffffffffffffffffffffffffffffffffffff\n      and\n      0xffffffffffffffffffffffffffffffffffffffff\n      and\n      dup2\n      mstore\n      0x20\n      add\n      swap1\n      dup2\n      mstore\n      0x20\n      add\n      0x00\n      keccak256\n      0x00\n        /* \"abc.sol\":3868:3905  thisRequest.voters[msg.sender] = true */\n      0x0100\n      exp\n      dup2\n      sload\n      dup2\n      0xff\n      mul\n      not\n      and\n      swap1\n      dup4\n      iszero\n      iszero\n      mul\n      or\n      swap1\n      sstore\n      pop\n        /* \"abc.sol\":3982:3993  thisRequest */\n      dup1\n        /* \"abc.sol\":3982:4008  thisRequest.numberOfVoters */\n      0x05\n      add\n      0x00\n        /* \"abc.sol\":3982:4010  thisRequest.numberOfVoters++ */\n      dup2\n      sload\n      dup1\n      swap3\n      swap2\n      swap1\n      tag_114\n      swap1\n      tag_115\n      jump\t// in\n    tag_114:\n      swap2\n      swap1\n      pop\n      sstore\n      pop\n        /* \"abc.sol\":3468:4055  {... */\n      pop\n        /* \"abc.sol\":3433:4055  function voteCrowdFunding() public {... */\n      jump\t// out\n        /* \"abc.sol\":839:875  uint public numberOfMakeCrowdFunding */\n    tag_53:\n      sload(0x08)\n      dup2\n      jump\t// out\n        /* \"abc.sol\":731:762  uint public minimumContribution */\n    tag_57:\n      sload(0x05)\n      dup2\n      jump\t// out\n        /* \"abc.sol\":1394:2173  function createCrowdFunding (string memory _fundingName, uint _value , address payable _recipient) public onlyManager {... */\n    tag_63:\n        /* \"abc.sol\":1358:1365  manager */\n      0x02\n      0x00\n      swap1\n      sload\n      swap1\n      0x0100\n      exp\n      swap1\n      div\n      0xffffffffffffffffffffffffffffffffffffffff\n      and\n        /* \"abc.sol\":1344:1365  msg.sender == manager */\n      0xffffffffffffffffffffffffffffffffffffffff\n      and\n        /* \"abc.sol\":1344:1354  msg.sender */\n      caller\n        /* \"abc.sol\":1344:1365  msg.sender == manager */\n      0xffffffffffffffffffffffffffffffffffffffff\n      and\n      eq\n        /* \"abc.sol\":1336:1366  require(msg.sender == manager) */\n      tag_117\n      jumpi\n      0x00\n      dup1\n      revert\n    tag_117:\n        /* \"abc.sol\":1523:1563  MakeCrowdFunding storage newCrowdFunding */\n      0x00\n        /* \"abc.sol\":1566:1582  makeCrowdFunding */\n      0x01\n        /* \"abc.sol\":1566:1608  makeCrowdFunding[numberOfMakeCrowdFunding] */\n      0x00\n        /* \"abc.sol\":1583:1607  numberOfMakeCrowdFunding */\n      sload(0x08)\n        /* \"abc.sol\":1566:1608  makeCrowdFunding[numberOfMakeCrowdFunding] */\n      dup2\n      mstore\n      0x20\n      add\n      swap1\n      dup2\n      mstore\n      0x20\n      add\n      0x00\n      keccak256\n        /* \"abc.sol\":1523:1608  MakeCrowdFunding storage newCrowdFunding = makeCrowdFunding[numberOfMakeCrowdFunding] */\n      swap1\n      pop\n        /* \"abc.sol\":1728:1740  _fundingName */\n      dup4\n        /* \"abc.sol\":1698:1713  newCrowdFunding */\n      dup2\n        /* \"abc.sol\":1698:1725  newCrowdFunding.fundingName */\n      0x00\n      add\n        /* \"abc.sol\":1698:1740  newCrowdFunding.fundingName = _fundingName */\n      swap1\n      dup2\n      tag_119\n      swap2\n      swap1\n      tag_120\n      jump\t// in\n    tag_119:\n      pop\n        /* \"abc.sol\":1817:1823  _value */\n      dup3\n        /* \"abc.sol\":1793:1808  newCrowdFunding */\n      dup2\n        /* \"abc.sol\":1793:1814  newCrowdFunding.value */\n      0x02\n      add\n        /* \"abc.sol\":1793:1823  newCrowdFunding.value = _value */\n      dup2\n      swap1\n      sstore\n      pop\n        /* \"abc.sol\":1898:1908  _recipient */\n      dup2\n        /* \"abc.sol\":1870:1885  newCrowdFunding */\n      dup2\n        /* \"abc.sol\":1870:1895  newCrowdFunding.recipient */\n      0x01\n      add\n      0x00\n        /* \"abc.sol\":1870:1908  newCrowdFunding.recipient = _recipient */\n      0x0100\n      exp\n      dup2\n      sload\n      dup2\n      0xffffffffffffffffffffffffffffffffffffffff\n      mul\n      not\n      and\n      swap1\n      dup4\n      0xffffffffffffffffffffffffffffffffffffffff\n      and\n      mul\n      or\n      swap1\n      sstore\n      pop\n        /* \"abc.sol\":1959:1979  numberOfContributors */\n      0x07\n      0x00\n        /* \"abc.sol\":1959:1981  numberOfContributors++ */\n      dup2\n      sload\n      dup1\n      swap3\n      swap2\n      swap1\n      tag_121\n      swap1\n      tag_115\n      jump\t// in\n    tag_121:\n      swap2\n      swap1\n      pop\n      sstore\n      pop\n        /* \"abc.sol\":2101:2102  0 */\n      0x00\n        /* \"abc.sol\":2074:2098  numberOfMakeCrowdFunding */\n      0x08\n        /* \"abc.sol\":2074:2102  numberOfMakeCrowdFunding = 0 */\n      dup2\n      swap1\n      sstore\n      pop\n        /* \"abc.sol\":1512:2173  {... */\n      pop\n        /* \"abc.sol\":1394:2173  function createCrowdFunding (string memory _fundingName, uint _value , address payable _recipient) public onlyManager {... */\n      pop\n      pop\n      pop\n      jump\t// out\n        /* \"abc.sol\":769:793  uint public raisedAmount */\n    tag_66:\n      sload(0x06)\n      dup2\n      jump\t// out\n        /* \"abc.sol\":2764:2861  function checkBalance() public view returns(uint) {... */\n    tag_70:\n        /* \"abc.sol\":2808:2812  uint */\n      0x00\n        /* \"abc.sol\":2832:2853  address(this).balance */\n      selfbalance\n        /* \"abc.sol\":2825:2853  return address(this).balance */\n      swap1\n      pop\n        /* \"abc.sol\":2764:2861  function checkBalance() public view returns(uint) {... */\n      swap1\n      jump\t// out\n        /* \"abc.sol\":706:724  uint public target */\n    tag_74:\n      sload(0x04)\n      dup2\n      jump\t// out\n        /* \"abc.sol\":2181:2756  function contribute() public payable {... */\n    tag_77:\n        /* \"abc.sol\":2250:2269  minimumContribution */\n      sload(0x05)\n        /* \"abc.sol\":2237:2246  msg.value */\n      callvalue\n        /* \"abc.sol\":2237:2269  msg.value >= minimumContribution */\n      lt\n      iszero\n        /* \"abc.sol\":2229:2315  require(msg.value >= minimumContribution, \"You have not met the minimum contribution\") */\n      tag_124\n      jumpi\n      mload(0x40)\n      0x08c379a000000000000000000000000000000000000000000000000000000000\n      dup2\n      mstore\n      0x04\n      add\n      tag_125\n      swap1\n      tag_126\n      jump\t// in\n    tag_125:\n      mload(0x40)\n      dup1\n      swap2\n      sub\n      swap1\n      revert\n    tag_124:\n        /* \"abc.sol\":2353:2361  deadline */\n      sload(0x03)\n        /* \"abc.sol\":2334:2349  block.timestamp */\n      timestamp\n        /* \"abc.sol\":2334:2361  block.timestamp >= deadline */\n      lt\n      iszero\n        /* \"abc.sol\":2326:2391  require(block.timestamp >= deadline, 'Deadline has been reached') */\n      tag_127\n      jumpi\n      mload(0x40)\n      0x08c379a000000000000000000000000000000000000000000000000000000000\n      dup2\n      mstore\n      0x04\n      add\n      tag_128\n      swap1\n      tag_129\n      jump\t// in\n    tag_128:\n      mload(0x40)\n      dup1\n      swap2\n      sub\n      swap1\n      revert\n    tag_127:\n        /* \"abc.sol\":2435:2436  0 */\n      0x00\n        /* \"abc.sol\":2407:2419  contributors */\n      dup1\n        /* \"abc.sol\":2407:2431  contributors[msg.sender] */\n      0x00\n        /* \"abc.sol\":2420:2430  msg.sender */\n      caller\n        /* \"abc.sol\":2407:2431  contributors[msg.sender] */\n      0xffffffffffffffffffffffffffffffffffffffff\n      and\n      0xffffffffffffffffffffffffffffffffffffffff\n      and\n      dup2\n      mstore\n      0x20\n      add\n      swap1\n      dup2\n      mstore\n      0x20\n      add\n      0x00\n      keccak256\n      sload\n        /* \"abc.sol\":2407:2436  contributors[msg.sender] == 0 */\n      sub\n        /* \"abc.sol\":2404:2487  if(contributors[msg.sender] == 0) {... */\n      tag_130\n      jumpi\n        /* \"abc.sol\":2453:2473  numberOfContributors */\n      0x07\n      0x00\n        /* \"abc.sol\":2453:2475  numberOfContributors++ */\n      dup2\n      sload\n      dup1\n      swap3\n      swap2\n      swap1\n      tag_131\n      swap1\n      tag_115\n      jump\t// in\n    tag_131:\n      swap2\n      swap1\n      pop\n      sstore\n      pop\n        /* \"abc.sol\":2404:2487  if(contributors[msg.sender] == 0) {... */\n    tag_130:\n        /* \"abc.sol\":2527:2536  msg.value */\n      callvalue\n        /* \"abc.sol\":2499:2511  contributors */\n      0x00\n        /* \"abc.sol\":2499:2523  contributors[msg.sender] */\n      dup1\n        /* \"abc.sol\":2512:2522  msg.sender */\n      caller\n        /* \"abc.sol\":2499:2523  contributors[msg.sender] */\n      0xffffffffffffffffffffffffffffffffffffffff\n      and\n      0xffffffffffffffffffffffffffffffffffffffff\n      and\n      dup2\n      mstore\n      0x20\n      add\n      swap1\n      dup2\n      mstore\n      0x20\n      add\n      0x00\n      keccak256\n      0x00\n        /* \"abc.sol\":2499:2536  contributors[msg.sender] += msg.value */\n      dup3\n      dup3\n      sload\n      tag_132\n      swap2\n      swap1\n      tag_133\n      jump\t// in\n    tag_132:\n      swap3\n      pop\n      pop\n      dup2\n      swap1\n      sstore\n      pop\n        /* \"abc.sol\":2615:2624  msg.value */\n      callvalue\n        /* \"abc.sol\":2599:2611  raisedAmount */\n      0x06\n      0x00\n        /* \"abc.sol\":2599:2624  raisedAmount += msg.value */\n      dup3\n      dup3\n      sload\n      tag_134\n      swap2\n      swap1\n      tag_133\n      jump\t// in\n    tag_134:\n      swap3\n      pop\n      pop\n      dup2\n      swap1\n      sstore\n      pop\n        /* \"abc.sol\":2181:2756  function contribute() public payable {... */\n      jump\t// out\n        /* \"abc.sol\":586:643  mapping(uint => MakeCrowdFunding) public makeCrowdFunding */\n    tag_81:\n      mstore(0x20, 0x01)\n      dup1\n      0x00\n      mstore\n      keccak256(0x00, 0x40)\n      0x00\n      swap2\n      pop\n      swap1\n      pop\n      dup1\n      0x00\n      add\n      dup1\n      sload\n      tag_135\n      swap1\n      tag_136\n      jump\t// in\n    tag_135:\n      dup1\n      0x1f\n      add\n      0x20\n      dup1\n      swap2\n      div\n      mul\n      0x20\n      add\n      mload(0x40)\n      swap1\n      dup2\n      add\n      0x40\n      mstore\n      dup1\n      swap3\n      swap2\n      swap1\n      dup2\n      dup2\n      mstore\n      0x20\n      add\n      dup3\n      dup1\n      sload\n      tag_137\n      swap1\n      tag_136\n      jump\t// in\n    tag_137:\n      dup1\n      iszero\n      tag_138\n      jumpi\n      dup1\n      0x1f\n      lt\n      tag_139\n      jumpi\n      0x0100\n      dup1\n      dup4\n      sload\n      div\n      mul\n      dup4\n      mstore\n      swap2\n      0x20\n      add\n      swap2\n      jump(tag_138)\n    tag_139:\n      dup3\n      add\n      swap2\n      swap1\n      0x00\n      mstore\n      keccak256(0x00, 0x20)\n      swap1\n    tag_140:\n      dup2\n      sload\n      dup2\n      mstore\n      swap1\n      0x01\n      add\n      swap1\n      0x20\n      add\n      dup1\n      dup4\n      gt\n      tag_140\n      jumpi\n      dup3\n      swap1\n      sub\n      0x1f\n      and\n      dup3\n      add\n      swap2\n    tag_138:\n      pop\n      pop\n      pop\n      pop\n      pop\n      swap1\n      dup1\n      0x01\n      add\n      0x00\n      swap1\n      sload\n      swap1\n      0x0100\n      exp\n      swap1\n      div\n      0xffffffffffffffffffffffffffffffffffffffff\n      and\n      swap1\n      dup1\n      0x02\n      add\n      sload\n      swap1\n      dup1\n      0x03\n      add\n      0x00\n      swap1\n      sload\n      swap1\n      0x0100\n      exp\n      swap1\n      div\n      0xff\n      and\n      swap1\n      dup1\n      0x05\n      add\n      sload\n      swap1\n      pop\n      dup6\n      jump\t// out\n        /* \"#utility.yul\":7:82   */\n    tag_141:\n        /* \"#utility.yul\":40:46   */\n      0x00\n        /* \"#utility.yul\":73:75   */\n      0x40\n        /* \"#utility.yul\":67:76   */\n      mload\n        /* \"#utility.yul\":57:76   */\n      swap1\n      pop\n        /* \"#utility.yul\":7:82   */\n      swap1\n      jump\t// out\n        /* \"#utility.yul\":88:205   */\n    tag_142:\n        /* \"#utility.yul\":197:198   */\n      0x00\n        /* \"#utility.yul\":194:195   */\n      dup1\n        /* \"#utility.yul\":187:199   */\n      revert\n        /* \"#utility.yul\":211:328   */\n    tag_143:\n        /* \"#utility.yul\":320:321   */\n      0x00\n        /* \"#utility.yul\":317:318   */\n      dup1\n        /* \"#utility.yul\":310:322   */\n      revert\n        /* \"#utility.yul\":334:460   */\n    tag_144:\n        /* \"#utility.yul\":371:378   */\n      0x00\n        /* \"#utility.yul\":411:453   */\n      0xffffffffffffffffffffffffffffffffffffffff\n        /* \"#utility.yul\":404:409   */\n      dup3\n        /* \"#utility.yul\":400:454   */\n      and\n        /* \"#utility.yul\":389:454   */\n      swap1\n      pop\n        /* \"#utility.yul\":334:460   */\n      swap2\n      swap1\n      pop\n      jump\t// out\n        /* \"#utility.yul\":466:562   */\n    tag_145:\n        /* \"#utility.yul\":503:510   */\n      0x00\n        /* \"#utility.yul\":532:556   */\n      tag_213\n        /* \"#utility.yul\":550:555   */\n      dup3\n        /* \"#utility.yul\":532:556   */\n      tag_144\n      jump\t// in\n    tag_213:\n        /* \"#utility.yul\":521:556   */\n      swap1\n      pop\n        /* \"#utility.yul\":466:562   */\n      swap2\n      swap1\n      pop\n      jump\t// out\n        /* \"#utility.yul\":568:690   */\n    tag_146:\n        /* \"#utility.yul\":641:665   */\n      tag_215\n        /* \"#utility.yul\":659:664   */\n      dup2\n        /* \"#utility.yul\":641:665   */\n      tag_145\n      jump\t// in\n    tag_215:\n        /* \"#utility.yul\":634:639   */\n      dup2\n        /* \"#utility.yul\":631:666   */\n      eq\n        /* \"#utility.yul\":621:684   */\n      tag_216\n      jumpi\n        /* \"#utility.yul\":680:681   */\n      0x00\n        /* \"#utility.yul\":677:678   */\n      dup1\n        /* \"#utility.yul\":670:682   */\n      revert\n        /* \"#utility.yul\":621:684   */\n    tag_216:\n        /* \"#utility.yul\":568:690   */\n      pop\n      jump\t// out\n        /* \"#utility.yul\":696:835   */\n    tag_147:\n        /* \"#utility.yul\":742:747   */\n      0x00\n        /* \"#utility.yul\":780:786   */\n      dup2\n        /* \"#utility.yul\":767:787   */\n      calldataload\n        /* \"#utility.yul\":758:787   */\n      swap1\n      pop\n        /* \"#utility.yul\":796:829   */\n      tag_218\n        /* \"#utility.yul\":823:828   */\n      dup2\n        /* \"#utility.yul\":796:829   */\n      tag_146\n      jump\t// in\n    tag_218:\n        /* \"#utility.yul\":696:835   */\n      swap3\n      swap2\n      pop\n      pop\n      jump\t// out\n        /* \"#utility.yul\":841:1170   */\n    tag_23:\n        /* \"#utility.yul\":900:906   */\n      0x00\n        /* \"#utility.yul\":949:951   */\n      0x20\n        /* \"#utility.yul\":937:946   */\n      dup3\n        /* \"#utility.yul\":928:935   */\n      dup5\n        /* \"#utility.yul\":924:947   */\n      sub\n        /* \"#utility.yul\":920:952   */\n      slt\n        /* \"#utility.yul\":917:1036   */\n      iszero\n      tag_220\n      jumpi\n        /* \"#utility.yul\":955:1034   */\n      tag_221\n      tag_142\n      jump\t// in\n    tag_221:\n        /* \"#utility.yul\":917:1036   */\n    tag_220:\n        /* \"#utility.yul\":1075:1076   */\n      0x00\n        /* \"#utility.yul\":1100:1153   */\n      tag_222\n        /* \"#utility.yul\":1145:1152   */\n      dup5\n        /* \"#utility.yul\":1136:1142   */\n      dup3\n        /* \"#utility.yul\":1125:1134   */\n      dup6\n        /* \"#utility.yul\":1121:1143   */\n      add\n        /* \"#utility.yul\":1100:1153   */\n      tag_147\n      jump\t// in\n    tag_222:\n        /* \"#utility.yul\":1090:1153   */\n      swap2\n      pop\n        /* \"#utility.yul\":1046:1163   */\n      pop\n        /* \"#utility.yul\":841:1170   */\n      swap3\n      swap2\n      pop\n      pop\n      jump\t// out\n        /* \"#utility.yul\":1176:1253   */\n    tag_148:\n        /* \"#utility.yul\":1213:1220   */\n      0x00\n        /* \"#utility.yul\":1242:1247   */\n      dup2\n        /* \"#utility.yul\":1231:1247   */\n      swap1\n      pop\n        /* \"#utility.yul\":1176:1253   */\n      swap2\n      swap1\n      pop\n      jump\t// out\n        /* \"#utility.yul\":1259:1377   */\n    tag_149:\n        /* \"#utility.yul\":1346:1370   */\n      tag_225\n        /* \"#utility.yul\":1364:1369   */\n      dup2\n        /* \"#utility.yul\":1346:1370   */\n      tag_148\n      jump\t// in\n    tag_225:\n        /* \"#utility.yul\":1341:1344   */\n      dup3\n        /* \"#utility.yul\":1334:1371   */\n      mstore\n        /* \"#utility.yul\":1259:1377   */\n      pop\n      pop\n      jump\t// out\n        /* \"#utility.yul\":1383:1605   */\n    tag_26:\n        /* \"#utility.yul\":1476:1480   */\n      0x00\n        /* \"#utility.yul\":1514:1516   */\n      0x20\n        /* \"#utility.yul\":1503:1512   */\n      dup3\n        /* \"#utility.yul\":1499:1517   */\n      add\n        /* \"#utility.yul\":1491:1517   */\n      swap1\n      pop\n        /* \"#utility.yul\":1527:1598   */\n      tag_227\n        /* \"#utility.yul\":1595:1596   */\n      0x00\n        /* \"#utility.yul\":1584:1593   */\n      dup4\n        /* \"#utility.yul\":1580:1597   */\n      add\n        /* \"#utility.yul\":1571:1577   */\n      dup5\n        /* \"#utility.yul\":1527:1598   */\n      tag_149\n      jump\t// in\n    tag_227:\n        /* \"#utility.yul\":1383:1605   */\n      swap3\n      swap2\n      pop\n      pop\n      jump\t// out\n        /* \"#utility.yul\":1611:1729   */\n    tag_150:\n        /* \"#utility.yul\":1698:1722   */\n      tag_229\n        /* \"#utility.yul\":1716:1721   */\n      dup2\n        /* \"#utility.yul\":1698:1722   */\n      tag_145\n      jump\t// in\n    tag_229:\n        /* \"#utility.yul\":1693:1696   */\n      dup3\n        /* \"#utility.yul\":1686:1723   */\n      mstore\n        /* \"#utility.yul\":1611:1729   */\n      pop\n      pop\n      jump\t// out\n        /* \"#utility.yul\":1735:1957   */\n    tag_39:\n        /* \"#utility.yul\":1828:1832   */\n      0x00\n        /* \"#utility.yul\":1866:1868   */\n      0x20\n        /* \"#utility.yul\":1855:1864   */\n      dup3\n        /* \"#utility.yul\":1851:1869   */\n      add\n        /* \"#utility.yul\":1843:1869   */\n      swap1\n      pop\n        /* \"#utility.yul\":1879:1950   */\n      tag_231\n        /* \"#utility.yul\":1947:1948   */\n      0x00\n        /* \"#utility.yul\":1936:1945   */\n      dup4\n        /* \"#utility.yul\":1932:1949   */\n      add\n        /* \"#utility.yul\":1923:1929   */\n      dup5\n        /* \"#utility.yul\":1879:1950   */\n      tag_150\n      jump\t// in\n    tag_231:\n        /* \"#utility.yul\":1735:1957   */\n      swap3\n      swap2\n      pop\n      pop\n      jump\t// out\n        /* \"#utility.yul\":1963:2085   */\n    tag_151:\n        /* \"#utility.yul\":2036:2060   */\n      tag_233\n        /* \"#utility.yul\":2054:2059   */\n      dup2\n        /* \"#utility.yul\":2036:2060   */\n      tag_148\n      jump\t// in\n    tag_233:\n        /* \"#utility.yul\":2029:2034   */\n      dup2\n        /* \"#utility.yul\":2026:2061   */\n      eq\n        /* \"#utility.yul\":2016:2079   */\n      tag_234\n      jumpi\n        /* \"#utility.yul\":2075:2076   */\n      0x00\n        /* \"#utility.yul\":2072:2073   */\n      dup1\n        /* \"#utility.yul\":2065:2077   */\n      revert\n        /* \"#utility.yul\":2016:2079   */\n    tag_234:\n        /* \"#utility.yul\":1963:2085   */\n      pop\n      jump\t// out\n        /* \"#utility.yul\":2091:2230   */\n    tag_152:\n        /* \"#utility.yul\":2137:2142   */\n      0x00\n        /* \"#utility.yul\":2175:2181   */\n      dup2\n        /* \"#utility.yul\":2162:2182   */\n      calldataload\n        /* \"#utility.yul\":2153:2182   */\n      swap1\n      pop\n        /* \"#utility.yul\":2191:2224   */\n      tag_236\n        /* \"#utility.yul\":2218:2223   */\n      dup2\n        /* \"#utility.yul\":2191:2224   */\n      tag_151\n      jump\t// in\n    tag_236:\n        /* \"#utility.yul\":2091:2230   */\n      swap3\n      swap2\n      pop\n      pop\n      jump\t// out\n        /* \"#utility.yul\":2236:2565   */\n    tag_43:\n        /* \"#utility.yul\":2295:2301   */\n      0x00\n        /* \"#utility.yul\":2344:2346   */\n      0x20\n        /* \"#utility.yul\":2332:2341   */\n      dup3\n        /* \"#utility.yul\":2323:2330   */\n      dup5\n        /* \"#utility.yul\":2319:2342   */\n      sub\n        /* \"#utility.yul\":2315:2347   */\n      slt\n        /* \"#utility.yul\":2312:2431   */\n      iszero\n      tag_238\n      jumpi\n        /* \"#utility.yul\":2350:2429   */\n      tag_239\n      tag_142\n      jump\t// in\n    tag_239:\n        /* \"#utility.yul\":2312:2431   */\n    tag_238:\n        /* \"#utility.yul\":2470:2471   */\n      0x00\n        /* \"#utility.yul\":2495:2548   */\n      tag_240\n        /* \"#utility.yul\":2540:2547   */\n      dup5\n        /* \"#utility.yul\":2531:2537   */\n      dup3\n        /* \"#utility.yul\":2520:2529   */\n      dup6\n        /* \"#utility.yul\":2516:2538   */\n      add\n        /* \"#utility.yul\":2495:2548   */\n      tag_152\n      jump\t// in\n    tag_240:\n        /* \"#utility.yul\":2485:2548   */\n      swap2\n      pop\n        /* \"#utility.yul\":2441:2558   */\n      pop\n        /* \"#utility.yul\":2236:2565   */\n      swap3\n      swap2\n      pop\n      pop\n      jump\t// out\n        /* \"#utility.yul\":2571:2688   */\n    tag_153:\n        /* \"#utility.yul\":2680:2681   */\n      0x00\n        /* \"#utility.yul\":2677:2678   */\n      dup1\n        /* \"#utility.yul\":2670:2682   */\n      revert\n        /* \"#utility.yul\":2694:2811   */\n    tag_154:\n        /* \"#utility.yul\":2803:2804   */\n      0x00\n        /* \"#utility.yul\":2800:2801   */\n      dup1\n        /* \"#utility.yul\":2793:2805   */\n      revert\n        /* \"#utility.yul\":2817:2919   */\n    tag_155:\n        /* \"#utility.yul\":2858:2864   */\n      0x00\n        /* \"#utility.yul\":2909:2911   */\n      0x1f\n        /* \"#utility.yul\":2905:2912   */\n      not\n        /* \"#utility.yul\":2900:2902   */\n      0x1f\n        /* \"#utility.yul\":2893:2898   */\n      dup4\n        /* \"#utility.yul\":2889:2903   */\n      add\n        /* \"#utility.yul\":2885:2913   */\n      and\n        /* \"#utility.yul\":2875:2913   */\n      swap1\n      pop\n        /* \"#utility.yul\":2817:2919   */\n      swap2\n      swap1\n      pop\n      jump\t// out\n        /* \"#utility.yul\":2925:3105   */\n    tag_156:\n        /* \"#utility.yul\":2973:3050   */\n      0x4e487b7100000000000000000000000000000000000000000000000000000000\n        /* \"#utility.yul\":2970:2971   */\n      0x00\n        /* \"#utility.yul\":2963:3051   */\n      mstore\n        /* \"#utility.yul\":3070:3074   */\n      0x41\n        /* \"#utility.yul\":3067:3068   */\n      0x04\n        /* \"#utility.yul\":3060:3075   */\n      mstore\n        /* \"#utility.yul\":3094:3098   */\n      0x24\n        /* \"#utility.yul\":3091:3092   */\n      0x00\n        /* \"#utility.yul\":3084:3099   */\n      revert\n        /* \"#utility.yul\":3111:3392   */\n    tag_157:\n        /* \"#utility.yul\":3194:3221   */\n      tag_246\n        /* \"#utility.yul\":3216:3220   */\n      dup3\n        /* \"#utility.yul\":3194:3221   */\n      tag_155\n      jump\t// in\n    tag_246:\n        /* \"#utility.yul\":3186:3192   */\n      dup2\n        /* \"#utility.yul\":3182:3222   */\n      add\n        /* \"#utility.yul\":3324:3330   */\n      dup2\n        /* \"#utility.yul\":3312:3322   */\n      dup2\n        /* \"#utility.yul\":3309:3331   */\n      lt\n        /* \"#utility.yul\":3288:3306   */\n      0xffffffffffffffff\n        /* \"#utility.yul\":3276:3286   */\n      dup3\n        /* \"#utility.yul\":3273:3307   */\n      gt\n        /* \"#utility.yul\":3270:3332   */\n      or\n        /* \"#utility.yul\":3267:3355   */\n      iszero\n      tag_247\n      jumpi\n        /* \"#utility.yul\":3335:3353   */\n      tag_248\n      tag_156\n      jump\t// in\n    tag_248:\n        /* \"#utility.yul\":3267:3355   */\n    tag_247:\n        /* \"#utility.yul\":3375:3385   */\n      dup1\n        /* \"#utility.yul\":3371:3373   */\n      0x40\n        /* \"#utility.yul\":3364:3386   */\n      mstore\n        /* \"#utility.yul\":3154:3392   */\n      pop\n        /* \"#utility.yul\":3111:3392   */\n      pop\n      pop\n      jump\t// out\n        /* \"#utility.yul\":3398:3527   */\n    tag_158:\n        /* \"#utility.yul\":3432:3438   */\n      0x00\n        /* \"#utility.yul\":3459:3479   */\n      tag_250\n      tag_141\n      jump\t// in\n    tag_250:\n        /* \"#utility.yul\":3449:3479   */\n      swap1\n      pop\n        /* \"#utility.yul\":3488:3521   */\n      tag_251\n        /* \"#utility.yul\":3516:3520   */\n      dup3\n        /* \"#utility.yul\":3508:3514   */\n      dup3\n        /* \"#utility.yul\":3488:3521   */\n      tag_157\n      jump\t// in\n    tag_251:\n        /* \"#utility.yul\":3398:3527   */\n      swap2\n      swap1\n      pop\n      jump\t// out\n        /* \"#utility.yul\":3533:3841   */\n    tag_159:\n        /* \"#utility.yul\":3595:3599   */\n      0x00\n        /* \"#utility.yul\":3685:3703   */\n      0xffffffffffffffff\n        /* \"#utility.yul\":3677:3683   */\n      dup3\n        /* \"#utility.yul\":3674:3704   */\n      gt\n        /* \"#utility.yul\":3671:3727   */\n      iszero\n      tag_253\n      jumpi\n        /* \"#utility.yul\":3707:3725   */\n      tag_254\n      tag_156\n      jump\t// in\n    tag_254:\n        /* \"#utility.yul\":3671:3727   */\n    tag_253:\n        /* \"#utility.yul\":3745:3774   */\n      tag_255\n        /* \"#utility.yul\":3767:3773   */\n      dup3\n        /* \"#utility.yul\":3745:3774   */\n      tag_155\n      jump\t// in\n    tag_255:\n        /* \"#utility.yul\":3737:3774   */\n      swap1\n      pop\n        /* \"#utility.yul\":3829:3833   */\n      0x20\n        /* \"#utility.yul\":3823:3827   */\n      dup2\n        /* \"#utility.yul\":3819:3834   */\n      add\n        /* \"#utility.yul\":3811:3834   */\n      swap1\n      pop\n        /* \"#utility.yul\":3533:3841   */\n      swap2\n      swap1\n      pop\n      jump\t// out\n        /* \"#utility.yul\":3847:3995   */\n    tag_160:\n        /* \"#utility.yul\":3945:3951   */\n      dup3\n        /* \"#utility.yul\":3940:3943   */\n      dup2\n        /* \"#utility.yul\":3935:3938   */\n      dup4\n        /* \"#utility.yul\":3922:3952   */\n      calldatacopy\n        /* \"#utility.yul\":3986:3987   */\n      0x00\n        /* \"#utility.yul\":3977:3983   */\n      dup4\n        /* \"#utility.yul\":3972:3975   */\n      dup4\n        /* \"#utility.yul\":3968:3984   */\n      add\n        /* \"#utility.yul\":3961:3988   */\n      mstore\n        /* \"#utility.yul\":3847:3995   */\n      pop\n      pop\n      pop\n      jump\t// out\n        /* \"#utility.yul\":4001:4426   */\n    tag_161:\n        /* \"#utility.yul\":4079:4084   */\n      0x00\n        /* \"#utility.yul\":4104:4170   */\n      tag_258\n        /* \"#utility.yul\":4120:4169   */\n      tag_259\n        /* \"#utility.yul\":4162:4168   */\n      dup5\n        /* \"#utility.yul\":4120:4169   */\n      tag_159\n      jump\t// in\n    tag_259:\n        /* \"#utility.yul\":4104:4170   */\n      tag_158\n      jump\t// in\n    tag_258:\n        /* \"#utility.yul\":4095:4170   */\n      swap1\n      pop\n        /* \"#utility.yul\":4193:4199   */\n      dup3\n        /* \"#utility.yul\":4186:4191   */\n      dup2\n        /* \"#utility.yul\":4179:4200   */\n      mstore\n        /* \"#utility.yul\":4231:4235   */\n      0x20\n        /* \"#utility.yul\":4224:4229   */\n      dup2\n        /* \"#utility.yul\":4220:4236   */\n      add\n        /* \"#utility.yul\":4269:4272   */\n      dup5\n        /* \"#utility.yul\":4260:4266   */\n      dup5\n        /* \"#utility.yul\":4255:4258   */\n      dup5\n        /* \"#utility.yul\":4251:4267   */\n      add\n        /* \"#utility.yul\":4248:4273   */\n      gt\n        /* \"#utility.yul\":4245:4357   */\n      iszero\n      tag_260\n      jumpi\n        /* \"#utility.yul\":4276:4355   */\n      tag_261\n      tag_154\n      jump\t// in\n    tag_261:\n        /* \"#utility.yul\":4245:4357   */\n    tag_260:\n        /* \"#utility.yul\":4366:4420   */\n      tag_262\n        /* \"#utility.yul\":4413:4419   */\n      dup5\n        /* \"#utility.yul\":4408:4411   */\n      dup3\n        /* \"#utility.yul\":4403:4406   */\n      dup6\n        /* \"#utility.yul\":4366:4420   */\n      tag_160\n      jump\t// in\n    tag_262:\n        /* \"#utility.yul\":4085:4426   */\n      pop\n        /* \"#utility.yul\":4001:4426   */\n      swap4\n      swap3\n      pop\n      pop\n      pop\n      jump\t// out\n        /* \"#utility.yul\":4446:4786   */\n    tag_162:\n        /* \"#utility.yul\":4502:4507   */\n      0x00\n        /* \"#utility.yul\":4551:4554   */\n      dup3\n        /* \"#utility.yul\":4544:4548   */\n      0x1f\n        /* \"#utility.yul\":4536:4542   */\n      dup4\n        /* \"#utility.yul\":4532:4549   */\n      add\n        /* \"#utility.yul\":4528:4555   */\n      slt\n        /* \"#utility.yul\":4518:4640   */\n      tag_264\n      jumpi\n        /* \"#utility.yul\":4559:4638   */\n      tag_265\n      tag_153\n      jump\t// in\n    tag_265:\n        /* \"#utility.yul\":4518:4640   */\n    tag_264:\n        /* \"#utility.yul\":4676:4682   */\n      dup2\n        /* \"#utility.yul\":4663:4683   */\n      calldataload\n        /* \"#utility.yul\":4701:4780   */\n      tag_266\n        /* \"#utility.yul\":4776:4779   */\n      dup5\n        /* \"#utility.yul\":4768:4774   */\n      dup3\n        /* \"#utility.yul\":4761:4765   */\n      0x20\n        /* \"#utility.yul\":4753:4759   */\n      dup7\n        /* \"#utility.yul\":4749:4766   */\n      add\n        /* \"#utility.yul\":4701:4780   */\n      tag_161\n      jump\t// in\n    tag_266:\n        /* \"#utility.yul\":4692:4780   */\n      swap2\n      pop\n        /* \"#utility.yul\":4508:4786   */\n      pop\n        /* \"#utility.yul\":4446:4786   */\n      swap3\n      swap2\n      pop\n      pop\n      jump\t// out\n        /* \"#utility.yul\":4792:4896   */\n    tag_163:\n        /* \"#utility.yul\":4837:4844   */\n      0x00\n        /* \"#utility.yul\":4866:4890   */\n      tag_268\n        /* \"#utility.yul\":4884:4889   */\n      dup3\n        /* \"#utility.yul\":4866:4890   */\n      tag_144\n      jump\t// in\n    tag_268:\n        /* \"#utility.yul\":4855:4890   */\n      swap1\n      pop\n        /* \"#utility.yul\":4792:4896   */\n      swap2\n      swap1\n      pop\n      jump\t// out\n        /* \"#utility.yul\":4902:5040   */\n    tag_164:\n        /* \"#utility.yul\":4983:5015   */\n      tag_270\n        /* \"#utility.yul\":5009:5014   */\n      dup2\n        /* \"#utility.yul\":4983:5015   */\n      tag_163\n      jump\t// in\n    tag_270:\n        /* \"#utility.yul\":4976:4981   */\n      dup2\n        /* \"#utility.yul\":4973:5016   */\n      eq\n        /* \"#utility.yul\":4963:5034   */\n      tag_271\n      jumpi\n        /* \"#utility.yul\":5030:5031   */\n      0x00\n        /* \"#utility.yul\":5027:5028   */\n      dup1\n        /* \"#utility.yul\":5020:5032   */\n      revert\n        /* \"#utility.yul\":4963:5034   */\n    tag_271:\n        /* \"#utility.yul\":4902:5040   */\n      pop\n      jump\t// out\n        /* \"#utility.yul\":5046:5201   */\n    tag_165:\n        /* \"#utility.yul\":5100:5105   */\n      0x00\n        /* \"#utility.yul\":5138:5144   */\n      dup2\n        /* \"#utility.yul\":5125:5145   */\n      calldataload\n        /* \"#utility.yul\":5116:5145   */\n      swap1\n      pop\n        /* \"#utility.yul\":5154:5195   */\n      tag_273\n        /* \"#utility.yul\":5189:5194   */\n      dup2\n        /* \"#utility.yul\":5154:5195   */\n      tag_164\n      jump\t// in\n    tag_273:\n        /* \"#utility.yul\":5046:5201   */\n      swap3\n      swap2\n      pop\n      pop\n      jump\t// out\n        /* \"#utility.yul\":5207:6022   */\n    tag_62:\n        /* \"#utility.yul\":5302:5308   */\n      0x00\n        /* \"#utility.yul\":5310:5316   */\n      dup1\n        /* \"#utility.yul\":5318:5324   */\n      0x00\n        /* \"#utility.yul\":5367:5369   */\n      0x60\n        /* \"#utility.yul\":5355:5364   */\n      dup5\n        /* \"#utility.yul\":5346:5353   */\n      dup7\n        /* \"#utility.yul\":5342:5365   */\n      sub\n        /* \"#utility.yul\":5338:5370   */\n      slt\n        /* \"#utility.yul\":5335:5454   */\n      iszero\n      tag_275\n      jumpi\n        /* \"#utility.yul\":5373:5452   */\n      tag_276\n      tag_142\n      jump\t// in\n    tag_276:\n        /* \"#utility.yul\":5335:5454   */\n    tag_275:\n        /* \"#utility.yul\":5521:5522   */\n      0x00\n        /* \"#utility.yul\":5510:5519   */\n      dup5\n        /* \"#utility.yul\":5506:5523   */\n      add\n        /* \"#utility.yul\":5493:5524   */\n      calldataload\n        /* \"#utility.yul\":5551:5569   */\n      0xffffffffffffffff\n        /* \"#utility.yul\":5543:5549   */\n      dup2\n        /* \"#utility.yul\":5540:5570   */\n      gt\n        /* \"#utility.yul\":5537:5654   */\n      iszero\n      tag_277\n      jumpi\n        /* \"#utility.yul\":5573:5652   */\n      tag_278\n      tag_143\n      jump\t// in\n    tag_278:\n        /* \"#utility.yul\":5537:5654   */\n    tag_277:\n        /* \"#utility.yul\":5678:5741   */\n      tag_279\n        /* \"#utility.yul\":5733:5740   */\n      dup7\n        /* \"#utility.yul\":5724:5730   */\n      dup3\n        /* \"#utility.yul\":5713:5722   */\n      dup8\n        /* \"#utility.yul\":5709:5731   */\n      add\n        /* \"#utility.yul\":5678:5741   */\n      tag_162\n      jump\t// in\n    tag_279:\n        /* \"#utility.yul\":5668:5741   */\n      swap4\n      pop\n        /* \"#utility.yul\":5464:5751   */\n      pop\n        /* \"#utility.yul\":5790:5792   */\n      0x20\n        /* \"#utility.yul\":5816:5869   */\n      tag_280\n        /* \"#utility.yul\":5861:5868   */\n      dup7\n        /* \"#utility.yul\":5852:5858   */\n      dup3\n        /* \"#utility.yul\":5841:5850   */\n      dup8\n        /* \"#utility.yul\":5837:5859   */\n      add\n        /* \"#utility.yul\":5816:5869   */\n      tag_152\n      jump\t// in\n    tag_280:\n        /* \"#utility.yul\":5806:5869   */\n      swap3\n      pop\n        /* \"#utility.yul\":5761:5879   */\n      pop\n        /* \"#utility.yul\":5918:5920   */\n      0x40\n        /* \"#utility.yul\":5944:6005   */\n      tag_281\n        /* \"#utility.yul\":5997:6004   */\n      dup7\n        /* \"#utility.yul\":5988:5994   */\n      dup3\n        /* \"#utility.yul\":5977:5986   */\n      dup8\n        /* \"#utility.yul\":5973:5995   */\n      add\n        /* \"#utility.yul\":5944:6005   */\n      tag_165\n      jump\t// in\n    tag_281:\n        /* \"#utility.yul\":5934:6005   */\n      swap2\n      pop\n        /* \"#utility.yul\":5889:6015   */\n      pop\n        /* \"#utility.yul\":5207:6022   */\n      swap3\n      pop\n      swap3\n      pop\n      swap3\n      jump\t// out\n        /* \"#utility.yul\":6028:6127   */\n    tag_166:\n        /* \"#utility.yul\":6080:6086   */\n      0x00\n        /* \"#utility.yul\":6114:6119   */\n      dup2\n        /* \"#utility.yul\":6108:6120   */\n      mload\n        /* \"#utility.yul\":6098:6120   */\n      swap1\n      pop\n        /* \"#utility.yul\":6028:6127   */\n      swap2\n      swap1\n      pop\n      jump\t// out\n        /* \"#utility.yul\":6133:6302   */\n    tag_167:\n        /* \"#utility.yul\":6217:6228   */\n      0x00\n        /* \"#utility.yul\":6251:6257   */\n      dup3\n        /* \"#utility.yul\":6246:6249   */\n      dup3\n        /* \"#utility.yul\":6239:6258   */\n      mstore\n        /* \"#utility.yul\":6291:6295   */\n      0x20\n        /* \"#utility.yul\":6286:6289   */\n      dup3\n        /* \"#utility.yul\":6282:6296   */\n      add\n        /* \"#utility.yul\":6267:6296   */\n      swap1\n      pop\n        /* \"#utility.yul\":6133:6302   */\n      swap3\n      swap2\n      pop\n      pop\n      jump\t// out\n        /* \"#utility.yul\":6308:6447   */\n    tag_168:\n        /* \"#utility.yul\":6397:6403   */\n      dup3\n        /* \"#utility.yul\":6392:6395   */\n      dup2\n        /* \"#utility.yul\":6387:6390   */\n      dup4\n        /* \"#utility.yul\":6381:6404   */\n      mcopy\n        /* \"#utility.yul\":6438:6439   */\n      0x00\n        /* \"#utility.yul\":6429:6435   */\n      dup4\n        /* \"#utility.yul\":6424:6427   */\n      dup4\n        /* \"#utility.yul\":6420:6436   */\n      add\n        /* \"#utility.yul\":6413:6440   */\n      mstore\n        /* \"#utility.yul\":6308:6447   */\n      pop\n      pop\n      pop\n      jump\t// out\n        /* \"#utility.yul\":6453:6830   */\n    tag_169:\n        /* \"#utility.yul\":6541:6544   */\n      0x00\n        /* \"#utility.yul\":6569:6608   */\n      tag_286\n        /* \"#utility.yul\":6602:6607   */\n      dup3\n        /* \"#utility.yul\":6569:6608   */\n      tag_166\n      jump\t// in\n    tag_286:\n        /* \"#utility.yul\":6624:6695   */\n      tag_287\n        /* \"#utility.yul\":6688:6694   */\n      dup2\n        /* \"#utility.yul\":6683:6686   */\n      dup6\n        /* \"#utility.yul\":6624:6695   */\n      tag_167\n      jump\t// in\n    tag_287:\n        /* \"#utility.yul\":6617:6695   */\n      swap4\n      pop\n        /* \"#utility.yul\":6704:6769   */\n      tag_288\n        /* \"#utility.yul\":6762:6768   */\n      dup2\n        /* \"#utility.yul\":6757:6760   */\n      dup6\n        /* \"#utility.yul\":6750:6754   */\n      0x20\n        /* \"#utility.yul\":6743:6748   */\n      dup7\n        /* \"#utility.yul\":6739:6755   */\n      add\n        /* \"#utility.yul\":6704:6769   */\n      tag_168\n      jump\t// in\n    tag_288:\n        /* \"#utility.yul\":6794:6823   */\n      tag_289\n        /* \"#utility.yul\":6816:6822   */\n      dup2\n        /* \"#utility.yul\":6794:6823   */\n      tag_155\n      jump\t// in\n    tag_289:\n        /* \"#utility.yul\":6789:6792   */\n      dup5\n        /* \"#utility.yul\":6785:6824   */\n      add\n        /* \"#utility.yul\":6778:6824   */\n      swap2\n      pop\n        /* \"#utility.yul\":6545:6830   */\n      pop\n        /* \"#utility.yul\":6453:6830   */\n      swap3\n      swap2\n      pop\n      pop\n      jump\t// out\n        /* \"#utility.yul\":6836:6978   */\n    tag_170:\n        /* \"#utility.yul\":6939:6971   */\n      tag_291\n        /* \"#utility.yul\":6965:6970   */\n      dup2\n        /* \"#utility.yul\":6939:6971   */\n      tag_163\n      jump\t// in\n    tag_291:\n        /* \"#utility.yul\":6934:6937   */\n      dup3\n        /* \"#utility.yul\":6927:6972   */\n      mstore\n        /* \"#utility.yul\":6836:6978   */\n      pop\n      pop\n      jump\t// out\n        /* \"#utility.yul\":6984:7074   */\n    tag_171:\n        /* \"#utility.yul\":7018:7025   */\n      0x00\n        /* \"#utility.yul\":7061:7066   */\n      dup2\n        /* \"#utility.yul\":7054:7067   */\n      iszero\n        /* \"#utility.yul\":7047:7068   */\n      iszero\n        /* \"#utility.yul\":7036:7068   */\n      swap1\n      pop\n        /* \"#utility.yul\":6984:7074   */\n      swap2\n      swap1\n      pop\n      jump\t// out\n        /* \"#utility.yul\":7080:7189   */\n    tag_172:\n        /* \"#utility.yul\":7161:7182   */\n      tag_294\n        /* \"#utility.yul\":7176:7181   */\n      dup2\n        /* \"#utility.yul\":7161:7182   */\n      tag_171\n      jump\t// in\n    tag_294:\n        /* \"#utility.yul\":7156:7159   */\n      dup3\n        /* \"#utility.yul\":7149:7183   */\n      mstore\n        /* \"#utility.yul\":7080:7189   */\n      pop\n      pop\n      jump\t// out\n        /* \"#utility.yul\":7195:7970   */\n    tag_83:\n        /* \"#utility.yul\":7430:7434   */\n      0x00\n        /* \"#utility.yul\":7468:7471   */\n      0xa0\n        /* \"#utility.yul\":7457:7466   */\n      dup3\n        /* \"#utility.yul\":7453:7472   */\n      add\n        /* \"#utility.yul\":7445:7472   */\n      swap1\n      pop\n        /* \"#utility.yul\":7518:7527   */\n      dup2\n        /* \"#utility.yul\":7512:7516   */\n      dup2\n        /* \"#utility.yul\":7508:7528   */\n      sub\n        /* \"#utility.yul\":7504:7505   */\n      0x00\n        /* \"#utility.yul\":7493:7502   */\n      dup4\n        /* \"#utility.yul\":7489:7506   */\n      add\n        /* \"#utility.yul\":7482:7529   */\n      mstore\n        /* \"#utility.yul\":7546:7624   */\n      tag_296\n        /* \"#utility.yul\":7619:7623   */\n      dup2\n        /* \"#utility.yul\":7610:7616   */\n      dup9\n        /* \"#utility.yul\":7546:7624   */\n      tag_169\n      jump\t// in\n    tag_296:\n        /* \"#utility.yul\":7538:7624   */\n      swap1\n      pop\n        /* \"#utility.yul\":7634:7722   */\n      tag_297\n        /* \"#utility.yul\":7718:7720   */\n      0x20\n        /* \"#utility.yul\":7707:7716   */\n      dup4\n        /* \"#utility.yul\":7703:7721   */\n      add\n        /* \"#utility.yul\":7694:7700   */\n      dup8\n        /* \"#utility.yul\":7634:7722   */\n      tag_170\n      jump\t// in\n    tag_297:\n        /* \"#utility.yul\":7732:7804   */\n      tag_298\n        /* \"#utility.yul\":7800:7802   */\n      0x40\n        /* \"#utility.yul\":7789:7798   */\n      dup4\n        /* \"#utility.yul\":7785:7803   */\n      add\n        /* \"#utility.yul\":7776:7782   */\n      dup7\n        /* \"#utility.yul\":7732:7804   */\n      tag_149\n      jump\t// in\n    tag_298:\n        /* \"#utility.yul\":7814:7880   */\n      tag_299\n        /* \"#utility.yul\":7876:7878   */\n      0x60\n        /* \"#utility.yul\":7865:7874   */\n      dup4\n        /* \"#utility.yul\":7861:7879   */\n      add\n        /* \"#utility.yul\":7852:7858   */\n      dup6\n        /* \"#utility.yul\":7814:7880   */\n      tag_172\n      jump\t// in\n    tag_299:\n        /* \"#utility.yul\":7890:7963   */\n      tag_300\n        /* \"#utility.yul\":7958:7961   */\n      0x80\n        /* \"#utility.yul\":7947:7956   */\n      dup4\n        /* \"#utility.yul\":7943:7962   */\n      add\n        /* \"#utility.yul\":7934:7940   */\n      dup5\n        /* \"#utility.yul\":7890:7963   */\n      tag_149\n      jump\t// in\n    tag_300:\n        /* \"#utility.yul\":7195:7970   */\n      swap7\n      swap6\n      pop\n      pop\n      pop\n      pop\n      pop\n      pop\n      jump\t// out\n        /* \"#utility.yul\":7976:8158   */\n    tag_173:\n        /* \"#utility.yul\":8116:8150   */\n      0x54617267657420616d6f756e74206973206e6f74207265616368656420796574\n        /* \"#utility.yul\":8112:8113   */\n      0x00\n        /* \"#utility.yul\":8104:8110   */\n      dup3\n        /* \"#utility.yul\":8100:8114   */\n      add\n        /* \"#utility.yul\":8093:8151   */\n      mstore\n        /* \"#utility.yul\":7976:8158   */\n      pop\n      jump\t// out\n        /* \"#utility.yul\":8164:8530   */\n    tag_174:\n        /* \"#utility.yul\":8306:8309   */\n      0x00\n        /* \"#utility.yul\":8327:8394   */\n      tag_303\n        /* \"#utility.yul\":8391:8393   */\n      0x20\n        /* \"#utility.yul\":8386:8389   */\n      dup4\n        /* \"#utility.yul\":8327:8394   */\n      tag_167\n      jump\t// in\n    tag_303:\n        /* \"#utility.yul\":8320:8394   */\n      swap2\n      pop\n        /* \"#utility.yul\":8403:8496   */\n      tag_304\n        /* \"#utility.yul\":8492:8495   */\n      dup3\n        /* \"#utility.yul\":8403:8496   */\n      tag_173\n      jump\t// in\n    tag_304:\n        /* \"#utility.yul\":8521:8523   */\n      0x20\n        /* \"#utility.yul\":8516:8519   */\n      dup3\n        /* \"#utility.yul\":8512:8524   */\n      add\n        /* \"#utility.yul\":8505:8524   */\n      swap1\n      pop\n        /* \"#utility.yul\":8164:8530   */\n      swap2\n      swap1\n      pop\n      jump\t// out\n        /* \"#utility.yul\":8536:8955   */\n    tag_87:\n        /* \"#utility.yul\":8702:8706   */\n      0x00\n        /* \"#utility.yul\":8740:8742   */\n      0x20\n        /* \"#utility.yul\":8729:8738   */\n      dup3\n        /* \"#utility.yul\":8725:8743   */\n      add\n        /* \"#utility.yul\":8717:8743   */\n      swap1\n      pop\n        /* \"#utility.yul\":8789:8798   */\n      dup2\n        /* \"#utility.yul\":8783:8787   */\n      dup2\n        /* \"#utility.yul\":8779:8799   */\n      sub\n        /* \"#utility.yul\":8775:8776   */\n      0x00\n        /* \"#utility.yul\":8764:8773   */\n      dup4\n        /* \"#utility.yul\":8760:8777   */\n      add\n        /* \"#utility.yul\":8753:8800   */\n      mstore\n        /* \"#utility.yul\":8817:8948   */\n      tag_306\n        /* \"#utility.yul\":8943:8947   */\n      dup2\n        /* \"#utility.yul\":8817:8948   */\n      tag_174\n      jump\t// in\n    tag_306:\n        /* \"#utility.yul\":8809:8948   */\n      swap1\n      pop\n        /* \"#utility.yul\":8536:8955   */\n      swap2\n      swap1\n      pop\n      jump\t// out\n        /* \"#utility.yul\":8961:9187   */\n    tag_175:\n        /* \"#utility.yul\":9101:9135   */\n      0x546869732066756e64696e672068617320616c7265616479206265656e20636f\n        /* \"#utility.yul\":9097:9098   */\n      0x00\n        /* \"#utility.yul\":9089:9095   */\n      dup3\n        /* \"#utility.yul\":9085:9099   */\n      add\n        /* \"#utility.yul\":9078:9136   */\n      mstore\n        /* \"#utility.yul\":9170:9179   */\n      0x6d706c6574656400000000000000000000000000000000000000000000000000\n        /* \"#utility.yul\":9165:9167   */\n      0x20\n        /* \"#utility.yul\":9157:9163   */\n      dup3\n        /* \"#utility.yul\":9153:9168   */\n      add\n        /* \"#utility.yul\":9146:9180   */\n      mstore\n        /* \"#utility.yul\":8961:9187   */\n      pop\n      jump\t// out\n        /* \"#utility.yul\":9193:9559   */\n    tag_176:\n        /* \"#utility.yul\":9335:9338   */\n      0x00\n        /* \"#utility.yul\":9356:9423   */\n      tag_309\n        /* \"#utility.yul\":9420:9422   */\n      0x27\n        /* \"#utility.yul\":9415:9418   */\n      dup4\n        /* \"#utility.yul\":9356:9423   */\n      tag_167\n      jump\t// in\n    tag_309:\n        /* \"#utility.yul\":9349:9423   */\n      swap2\n      pop\n        /* \"#utility.yul\":9432:9525   */\n      tag_310\n        /* \"#utility.yul\":9521:9524   */\n      dup3\n        /* \"#utility.yul\":9432:9525   */\n      tag_175\n      jump\t// in\n    tag_310:\n        /* \"#utility.yul\":9550:9552   */\n      0x40\n        /* \"#utility.yul\":9545:9548   */\n      dup3\n        /* \"#utility.yul\":9541:9553   */\n      add\n        /* \"#utility.yul\":9534:9553   */\n      swap1\n      pop\n        /* \"#utility.yul\":9193:9559   */\n      swap2\n      swap1\n      pop\n      jump\t// out\n        /* \"#utility.yul\":9565:9984   */\n    tag_90:\n        /* \"#utility.yul\":9731:9735   */\n      0x00\n        /* \"#utility.yul\":9769:9771   */\n      0x20\n        /* \"#utility.yul\":9758:9767   */\n      dup3\n        /* \"#utility.yul\":9754:9772   */\n      add\n        /* \"#utility.yul\":9746:9772   */\n      swap1\n      pop\n        /* \"#utility.yul\":9818:9827   */\n      dup2\n        /* \"#utility.yul\":9812:9816   */\n      dup2\n        /* \"#utility.yul\":9808:9828   */\n      sub\n        /* \"#utility.yul\":9804:9805   */\n      0x00\n        /* \"#utility.yul\":9793:9802   */\n      dup4\n        /* \"#utility.yul\":9789:9806   */\n      add\n        /* \"#utility.yul\":9782:9829   */\n      mstore\n        /* \"#utility.yul\":9846:9977   */\n      tag_312\n        /* \"#utility.yul\":9972:9976   */\n      dup2\n        /* \"#utility.yul\":9846:9977   */\n      tag_176\n      jump\t// in\n    tag_312:\n        /* \"#utility.yul\":9838:9977   */\n      swap1\n      pop\n        /* \"#utility.yul\":9565:9984   */\n      swap2\n      swap1\n      pop\n      jump\t// out\n        /* \"#utility.yul\":9990:10170   */\n    tag_177:\n        /* \"#utility.yul\":10038:10115   */\n      0x4e487b7100000000000000000000000000000000000000000000000000000000\n        /* \"#utility.yul\":10035:10036   */\n      0x00\n        /* \"#utility.yul\":10028:10116   */\n      mstore\n        /* \"#utility.yul\":10135:10139   */\n      0x12\n        /* \"#utility.yul\":10132:10133   */\n      0x04\n        /* \"#utility.yul\":10125:10140   */\n      mstore\n        /* \"#utility.yul\":10159:10163   */\n      0x24\n        /* \"#utility.yul\":10156:10157   */\n      0x00\n        /* \"#utility.yul\":10149:10164   */\n      revert\n        /* \"#utility.yul\":10176:10356   */\n    tag_178:\n        /* \"#utility.yul\":10224:10301   */\n      0x4e487b7100000000000000000000000000000000000000000000000000000000\n        /* \"#utility.yul\":10221:10222   */\n      0x00\n        /* \"#utility.yul\":10214:10302   */\n      mstore\n        /* \"#utility.yul\":10321:10325   */\n      0x11\n        /* \"#utility.yul\":10318:10319   */\n      0x04\n        /* \"#utility.yul\":10311:10326   */\n      mstore\n        /* \"#utility.yul\":10345:10349   */\n      0x24\n        /* \"#utility.yul\":10342:10343   */\n      0x00\n        /* \"#utility.yul\":10335:10350   */\n      revert\n        /* \"#utility.yul\":10362:10547   */\n    tag_92:\n        /* \"#utility.yul\":10402:10403   */\n      0x00\n        /* \"#utility.yul\":10419:10439   */\n      tag_316\n        /* \"#utility.yul\":10437:10438   */\n      dup3\n        /* \"#utility.yul\":10419:10439   */\n      tag_148\n      jump\t// in\n    tag_316:\n        /* \"#utility.yul\":10414:10439   */\n      swap2\n      pop\n        /* \"#utility.yul\":10453:10473   */\n      tag_317\n        /* \"#utility.yul\":10471:10472   */\n      dup4\n        /* \"#utility.yul\":10453:10473   */\n      tag_148\n      jump\t// in\n    tag_317:\n        /* \"#utility.yul\":10448:10473   */\n      swap3\n      pop\n        /* \"#utility.yul\":10492:10493   */\n      dup3\n        /* \"#utility.yul\":10482:10517   */\n      tag_318\n      jumpi\n        /* \"#utility.yul\":10497:10515   */\n      tag_319\n      tag_177\n      jump\t// in\n    tag_319:\n        /* \"#utility.yul\":10482:10517   */\n    tag_318:\n        /* \"#utility.yul\":10539:10540   */\n      dup3\n        /* \"#utility.yul\":10536:10537   */\n      dup3\n        /* \"#utility.yul\":10532:10541   */\n      div\n        /* \"#utility.yul\":10527:10541   */\n      swap1\n      pop\n        /* \"#utility.yul\":10362:10547   */\n      swap3\n      swap2\n      pop\n      pop\n      jump\t// out\n        /* \"#utility.yul\":10553:10774   */\n    tag_179:\n        /* \"#utility.yul\":10693:10727   */\n      0x4e6f7420656e6f75676820766f74657320746f206d616b652061207061796d65\n        /* \"#utility.yul\":10689:10690   */\n      0x00\n        /* \"#utility.yul\":10681:10687   */\n      dup3\n        /* \"#utility.yul\":10677:10691   */\n      add\n        /* \"#utility.yul\":10670:10728   */\n      mstore\n        /* \"#utility.yul\":10762:10766   */\n      0x6e74000000000000000000000000000000000000000000000000000000000000\n        /* \"#utility.yul\":10757:10759   */\n      0x20\n        /* \"#utility.yul\":10749:10755   */\n      dup3\n        /* \"#utility.yul\":10745:10760   */\n      add\n        /* \"#utility.yul\":10738:10767   */\n      mstore\n        /* \"#utility.yul\":10553:10774   */\n      pop\n      jump\t// out\n        /* \"#utility.yul\":10780:11146   */\n    tag_180:\n        /* \"#utility.yul\":10922:10925   */\n      0x00\n        /* \"#utility.yul\":10943:11010   */\n      tag_322\n        /* \"#utility.yul\":11007:11009   */\n      0x22\n        /* \"#utility.yul\":11002:11005   */\n      dup4\n        /* \"#utility.yul\":10943:11010   */\n      tag_167\n      jump\t// in\n    tag_322:\n        /* \"#utility.yul\":10936:11010   */\n      swap2\n      pop\n        /* \"#utility.yul\":11019:11112   */\n      tag_323\n        /* \"#utility.yul\":11108:11111   */\n      dup3\n        /* \"#utility.yul\":11019:11112   */\n      tag_179\n      jump\t// in\n    tag_323:\n        /* \"#utility.yul\":11137:11139   */\n      0x40\n        /* \"#utility.yul\":11132:11135   */\n      dup3\n        /* \"#utility.yul\":11128:11140   */\n      add\n        /* \"#utility.yul\":11121:11140   */\n      swap1\n      pop\n        /* \"#utility.yul\":10780:11146   */\n      swap2\n      swap1\n      pop\n      jump\t// out\n        /* \"#utility.yul\":11152:11571   */\n    tag_95:\n        /* \"#utility.yul\":11318:11322   */\n      0x00\n        /* \"#utility.yul\":11356:11358   */\n      0x20\n        /* \"#utility.yul\":11345:11354   */\n      dup3\n        /* \"#utility.yul\":11341:11359   */\n      add\n        /* \"#utility.yul\":11333:11359   */\n      swap1\n      pop\n        /* \"#utility.yul\":11405:11414   */\n      dup2\n        /* \"#utility.yul\":11399:11403   */\n      dup2\n        /* \"#utility.yul\":11395:11415   */\n      sub\n        /* \"#utility.yul\":11391:11392   */\n      0x00\n        /* \"#utility.yul\":11380:11389   */\n      dup4\n        /* \"#utility.yul\":11376:11393   */\n      add\n        /* \"#utility.yul\":11369:11416   */\n      mstore\n        /* \"#utility.yul\":11433:11564   */\n      tag_325\n        /* \"#utility.yul\":11559:11563   */\n      dup2\n        /* \"#utility.yul\":11433:11564   */\n      tag_180\n      jump\t// in\n    tag_325:\n        /* \"#utility.yul\":11425:11564   */\n      swap1\n      pop\n        /* \"#utility.yul\":11152:11571   */\n      swap2\n      swap1\n      pop\n      jump\t// out\n        /* \"#utility.yul\":11577:11753   */\n    tag_181:\n        /* \"#utility.yul\":11717:11745   */\n      0x596f7520617265206e6f74206120636f6e7472696275746f7273000000000000\n        /* \"#utility.yul\":11713:11714   */\n      0x00\n        /* \"#utility.yul\":11705:11711   */\n      dup3\n        /* \"#utility.yul\":11701:11715   */\n      add\n        /* \"#utility.yul\":11694:11746   */\n      mstore\n        /* \"#utility.yul\":11577:11753   */\n      pop\n      jump\t// out\n        /* \"#utility.yul\":11759:12125   */\n    tag_182:\n        /* \"#utility.yul\":11901:11904   */\n      0x00\n        /* \"#utility.yul\":11922:11989   */\n      tag_328\n        /* \"#utility.yul\":11986:11988   */\n      0x1a\n        /* \"#utility.yul\":11981:11984   */\n      dup4\n        /* \"#utility.yul\":11922:11989   */\n      tag_167\n      jump\t// in\n    tag_328:\n        /* \"#utility.yul\":11915:11989   */\n      swap2\n      pop\n        /* \"#utility.yul\":11998:12091   */\n      tag_329\n        /* \"#utility.yul\":12087:12090   */\n      dup3\n        /* \"#utility.yul\":11998:12091   */\n      tag_181\n      jump\t// in\n    tag_329:\n        /* \"#utility.yul\":12116:12118   */\n      0x20\n        /* \"#utility.yul\":12111:12114   */\n      dup3\n        /* \"#utility.yul\":12107:12119   */\n      add\n        /* \"#utility.yul\":12100:12119   */\n      swap1\n      pop\n        /* \"#utility.yul\":11759:12125   */\n      swap2\n      swap1\n      pop\n      jump\t// out\n        /* \"#utility.yul\":12131:12550   */\n    tag_101:\n        /* \"#utility.yul\":12297:12301   */\n      0x00\n        /* \"#utility.yul\":12335:12337   */\n      0x20\n        /* \"#utility.yul\":12324:12333   */\n      dup3\n        /* \"#utility.yul\":12320:12338   */\n      add\n        /* \"#utility.yul\":12312:12338   */\n      swap1\n      pop\n        /* \"#utility.yul\":12384:12393   */\n      dup2\n        /* \"#utility.yul\":12378:12382   */\n      dup2\n        /* \"#utility.yul\":12374:12394   */\n      sub\n        /* \"#utility.yul\":12370:12371   */\n      0x00\n        /* \"#utility.yul\":12359:12368   */\n      dup4\n        /* \"#utility.yul\":12355:12372   */\n      add\n        /* \"#utility.yul\":12348:12395   */\n      mstore\n        /* \"#utility.yul\":12412:12543   */\n      tag_331\n        /* \"#utility.yul\":12538:12542   */\n      dup2\n        /* \"#utility.yul\":12412:12543   */\n      tag_182\n      jump\t// in\n    tag_331:\n        /* \"#utility.yul\":12404:12543   */\n      swap1\n      pop\n        /* \"#utility.yul\":12131:12550   */\n      swap2\n      swap1\n      pop\n      jump\t// out\n        /* \"#utility.yul\":12556:12805   */\n    tag_183:\n        /* \"#utility.yul\":12696:12730   */\n      0x446561646c696e6520686173206265656e207265616368656420616e64207461\n        /* \"#utility.yul\":12692:12693   */\n      0x00\n        /* \"#utility.yul\":12684:12690   */\n      dup3\n        /* \"#utility.yul\":12680:12694   */\n      add\n        /* \"#utility.yul\":12673:12731   */\n      mstore\n        /* \"#utility.yul\":12765:12797   */\n      0x7267657420616d6f756e74206973206e6f742072656163686564207965740000\n        /* \"#utility.yul\":12760:12762   */\n      0x20\n        /* \"#utility.yul\":12752:12758   */\n      dup3\n        /* \"#utility.yul\":12748:12763   */\n      add\n        /* \"#utility.yul\":12741:12798   */\n      mstore\n        /* \"#utility.yul\":12556:12805   */\n      pop\n      jump\t// out\n        /* \"#utility.yul\":12811:13177   */\n    tag_184:\n        /* \"#utility.yul\":12953:12956   */\n      0x00\n        /* \"#utility.yul\":12974:13041   */\n      tag_334\n        /* \"#utility.yul\":13038:13040   */\n      0x3e\n        /* \"#utility.yul\":13033:13036   */\n      dup4\n        /* \"#utility.yul\":12974:13041   */\n      tag_167\n      jump\t// in\n    tag_334:\n        /* \"#utility.yul\":12967:13041   */\n      swap2\n      pop\n        /* \"#utility.yul\":13050:13143   */\n      tag_335\n        /* \"#utility.yul\":13139:13142   */\n      dup3\n        /* \"#utility.yul\":13050:13143   */\n      tag_183\n      jump\t// in\n    tag_335:\n        /* \"#utility.yul\":13168:13170   */\n      0x40\n        /* \"#utility.yul\":13163:13166   */\n      dup3\n        /* \"#utility.yul\":13159:13171   */\n      add\n        /* \"#utility.yul\":13152:13171   */\n      swap1\n      pop\n        /* \"#utility.yul\":12811:13177   */\n      swap2\n      swap1\n      pop\n      jump\t// out\n        /* \"#utility.yul\":13183:13602   */\n    tag_105:\n        /* \"#utility.yul\":13349:13353   */\n      0x00\n        /* \"#utility.yul\":13387:13389   */\n      0x20\n        /* \"#utility.yul\":13376:13385   */\n      dup3\n        /* \"#utility.yul\":13372:13390   */\n      add\n        /* \"#utility.yul\":13364:13390   */\n      swap1\n      pop\n        /* \"#utility.yul\":13436:13445   */\n      dup2\n        /* \"#utility.yul\":13430:13434   */\n      dup2\n        /* \"#utility.yul\":13426:13446   */\n      sub\n        /* \"#utility.yul\":13422:13423   */\n      0x00\n        /* \"#utility.yul\":13411:13420   */\n      dup4\n        /* \"#utility.yul\":13407:13424   */\n      add\n        /* \"#utility.yul\":13400:13447   */\n      mstore\n        /* \"#utility.yul\":13464:13595   */\n      tag_337\n        /* \"#utility.yul\":13590:13594   */\n      dup2\n        /* \"#utility.yul\":13464:13595   */\n      tag_184\n      jump\t// in\n    tag_337:\n        /* \"#utility.yul\":13456:13595   */\n      swap1\n      pop\n        /* \"#utility.yul\":13183:13602   */\n      swap2\n      swap1\n      pop\n      jump\t// out\n        /* \"#utility.yul\":13608:13780   */\n    tag_185:\n        /* \"#utility.yul\":13748:13772   */\n      0x596f75206861766520616c726561647920766f74656400000000000000000000\n        /* \"#utility.yul\":13744:13745   */\n      0x00\n        /* \"#utility.yul\":13736:13742   */\n      dup3\n        /* \"#utility.yul\":13732:13746   */\n      add\n        /* \"#utility.yul\":13725:13773   */\n      mstore\n        /* \"#utility.yul\":13608:13780   */\n      pop\n      jump\t// out\n        /* \"#utility.yul\":13786:14152   */\n    tag_186:\n        /* \"#utility.yul\":13928:13931   */\n      0x00\n        /* \"#utility.yul\":13949:14016   */\n      tag_340\n        /* \"#utility.yul\":14013:14015   */\n      0x16\n        /* \"#utility.yul\":14008:14011   */\n      dup4\n        /* \"#utility.yul\":13949:14016   */\n      tag_167\n      jump\t// in\n    tag_340:\n        /* \"#utility.yul\":13942:14016   */\n      swap2\n      pop\n        /* \"#utility.yul\":14025:14118   */\n      tag_341\n        /* \"#utility.yul\":14114:14117   */\n      dup3\n        /* \"#utility.yul\":14025:14118   */\n      tag_185\n      jump\t// in\n    tag_341:\n        /* \"#utility.yul\":14143:14145   */\n      0x20\n        /* \"#utility.yul\":14138:14141   */\n      dup3\n        /* \"#utility.yul\":14134:14146   */\n      add\n        /* \"#utility.yul\":14127:14146   */\n      swap1\n      pop\n        /* \"#utility.yul\":13786:14152   */\n      swap2\n      swap1\n      pop\n      jump\t// out\n        /* \"#utility.yul\":14158:14577   */\n    tag_113:\n        /* \"#utility.yul\":14324:14328   */\n      0x00\n        /* \"#utility.yul\":14362:14364   */\n      0x20\n        /* \"#utility.yul\":14351:14360   */\n      dup3\n        /* \"#utility.yul\":14347:14365   */\n      add\n        /* \"#utility.yul\":14339:14365   */\n      swap1\n      pop\n        /* \"#utility.yul\":14411:14420   */\n      dup2\n        /* \"#utility.yul\":14405:14409   */\n      dup2\n        /* \"#utility.yul\":14401:14421   */\n      sub\n        /* \"#utility.yul\":14397:14398   */\n      0x00\n        /* \"#utility.yul\":14386:14395   */\n      dup4\n        /* \"#utility.yul\":14382:14399   */\n      add\n        /* \"#utility.yul\":14375:14422   */\n      mstore\n        /* \"#utility.yul\":14439:14570   */\n      tag_343\n        /* \"#utility.yul\":14565:14569   */\n      dup2\n        /* \"#utility.yul\":14439:14570   */\n      tag_186\n      jump\t// in\n    tag_343:\n        /* \"#utility.yul\":14431:14570   */\n      swap1\n      pop\n        /* \"#utility.yul\":14158:14577   */\n      swap2\n      swap1\n      pop\n      jump\t// out\n        /* \"#utility.yul\":14583:14816   */\n    tag_115:\n        /* \"#utility.yul\":14622:14625   */\n      0x00\n        /* \"#utility.yul\":14645:14669   */\n      tag_345\n        /* \"#utility.yul\":14663:14668   */\n      dup3\n        /* \"#utility.yul\":14645:14669   */\n      tag_148\n      jump\t// in\n    tag_345:\n        /* \"#utility.yul\":14636:14669   */\n      swap2\n      pop\n        /* \"#utility.yul\":14691:14757   */\n      0xffffffffffffffffffffffffffffffffffffffffffffffffffffffffffffffff\n        /* \"#utility.yul\":14684:14689   */\n      dup3\n        /* \"#utility.yul\":14681:14758   */\n      sub\n        /* \"#utility.yul\":14678:14781   */\n      tag_346\n      jumpi\n        /* \"#utility.yul\":14761:14779   */\n      tag_347\n      tag_178\n      jump\t// in\n    tag_347:\n        /* \"#utility.yul\":14678:14781   */\n    tag_346:\n        /* \"#utility.yul\":14808:14809   */\n      0x01\n        /* \"#utility.yul\":14801:14806   */\n      dup3\n        /* \"#utility.yul\":14797:14810   */\n      add\n        /* \"#utility.yul\":14790:14810   */\n      swap1\n      pop\n        /* \"#utility.yul\":14583:14816   */\n      swap2\n      swap1\n      pop\n      jump\t// out\n        /* \"#utility.yul\":14822:15002   */\n    tag_187:\n        /* \"#utility.yul\":14870:14947   */\n      0x4e487b7100000000000000000000000000000000000000000000000000000000\n        /* \"#utility.yul\":14867:14868   */\n      0x00\n        /* \"#utility.yul\":14860:14948   */\n      mstore\n        /* \"#utility.yul\":14967:14971   */\n      0x22\n        /* \"#utility.yul\":14964:14965   */\n      0x04\n        /* \"#utility.yul\":14957:14972   */\n      mstore\n        /* \"#utility.yul\":14991:14995   */\n      0x24\n        /* \"#utility.yul\":14988:14989   */\n      0x00\n        /* \"#utility.yul\":14981:14996   */\n      revert\n        /* \"#utility.yul\":15008:15328   */\n    tag_136:\n        /* \"#utility.yul\":15052:15058   */\n      0x00\n        /* \"#utility.yul\":15089:15090   */\n      0x02\n        /* \"#utility.yul\":15083:15087   */\n      dup3\n        /* \"#utility.yul\":15079:15091   */\n      div\n        /* \"#utility.yul\":15069:15091   */\n      swap1\n      pop\n        /* \"#utility.yul\":15136:15137   */\n      0x01\n        /* \"#utility.yul\":15130:15134   */\n      dup3\n        /* \"#utility.yul\":15126:15138   */\n      and\n        /* \"#utility.yul\":15157:15175   */\n      dup1\n        /* \"#utility.yul\":15147:15228   */\n      tag_350\n      jumpi\n        /* \"#utility.yul\":15213:15217   */\n      0x7f\n        /* \"#utility.yul\":15205:15211   */\n      dup3\n        /* \"#utility.yul\":15201:15218   */\n      and\n        /* \"#utility.yul\":15191:15218   */\n      swap2\n      pop\n        /* \"#utility.yul\":15147:15228   */\n    tag_350:\n        /* \"#utility.yul\":15275:15277   */\n      0x20\n        /* \"#utility.yul\":15267:15273   */\n      dup3\n        /* \"#utility.yul\":15264:15278   */\n      lt\n        /* \"#utility.yul\":15244:15262   */\n      dup2\n        /* \"#utility.yul\":15241:15279   */\n      sub\n        /* \"#utility.yul\":15238:15322   */\n      tag_351\n      jumpi\n        /* \"#utility.yul\":15294:15312   */\n      tag_352\n      tag_187\n      jump\t// in\n    tag_352:\n        /* \"#utility.yul\":15238:15322   */\n    tag_351:\n        /* \"#utility.yul\":15059:15328   */\n      pop\n        /* \"#utility.yul\":15008:15328   */\n      swap2\n      swap1\n      pop\n      jump\t// out\n        /* \"#utility.yul\":15334:15475   */\n    tag_188:\n        /* \"#utility.yul\":15383:15387   */\n      0x00\n        /* \"#utility.yul\":15406:15409   */\n      dup2\n        /* \"#utility.yul\":15398:15409   */\n      swap1\n      pop\n        /* \"#utility.yul\":15429:15432   */\n      dup2\n        /* \"#utility.yul\":15426:15427   */\n      0x00\n        /* \"#utility.yul\":15419:15433   */\n      mstore\n        /* \"#utility.yul\":15463:15467   */\n      0x20\n        /* \"#utility.yul\":15460:15461   */\n      0x00\n        /* \"#utility.yul\":15450:15468   */\n      keccak256\n        /* \"#utility.yul\":15442:15468   */\n      swap1\n      pop\n        /* \"#utility.yul\":15334:15475   */\n      swap2\n      swap1\n      pop\n      jump\t// out\n        /* \"#utility.yul\":15481:15574   */\n    tag_189:\n        /* \"#utility.yul\":15518:15524   */\n      0x00\n        /* \"#utility.yul\":15565:15567   */\n      0x20\n        /* \"#utility.yul\":15560:15562   */\n      0x1f\n        /* \"#utility.yul\":15553:15558   */\n      dup4\n        /* \"#utility.yul\":15549:15563   */\n      add\n        /* \"#utility.yul\":15545:15568   */\n      div\n        /* \"#utility.yul\":15535:15568   */\n      swap1\n      pop\n        /* \"#utility.yul\":15481:15574   */\n      swap2\n      swap1\n      pop\n      jump\t// out\n        /* \"#utility.yul\":15580:15687   */\n    tag_190:\n        /* \"#utility.yul\":15624:15632   */\n      0x00\n        /* \"#utility.yul\":15674:15679   */\n      dup3\n        /* \"#utility.yul\":15668:15672   */\n      dup3\n        /* \"#utility.yul\":15664:15680   */\n      shl\n        /* \"#utility.yul\":15643:15680   */\n      swap1\n      pop\n        /* \"#utility.yul\":15580:15687   */\n      swap3\n      swap2\n      pop\n      pop\n      jump\t// out\n        /* \"#utility.yul\":15693:16086   */\n    tag_191:\n        /* \"#utility.yul\":15762:15768   */\n      0x00\n        /* \"#utility.yul\":15812:15813   */\n      0x08\n        /* \"#utility.yul\":15800:15810   */\n      dup4\n        /* \"#utility.yul\":15796:15814   */\n      mul\n        /* \"#utility.yul\":15835:15932   */\n      tag_357\n        /* \"#utility.yul\":15865:15931   */\n      0xffffffffffffffffffffffffffffffffffffffffffffffffffffffffffffffff\n        /* \"#utility.yul\":15854:15863   */\n      dup3\n        /* \"#utility.yul\":15835:15932   */\n      tag_190\n      jump\t// in\n    tag_357:\n        /* \"#utility.yul\":15953:15992   */\n      tag_358\n        /* \"#utility.yul\":15983:15991   */\n      dup7\n        /* \"#utility.yul\":15972:15981   */\n      dup4\n        /* \"#utility.yul\":15953:15992   */\n      tag_190\n      jump\t// in\n    tag_358:\n        /* \"#utility.yul\":15941:15992   */\n      swap6\n      pop\n        /* \"#utility.yul\":16025:16029   */\n      dup1\n        /* \"#utility.yul\":16021:16030   */\n      not\n        /* \"#utility.yul\":16014:16019   */\n      dup5\n        /* \"#utility.yul\":16010:16031   */\n      and\n        /* \"#utility.yul\":16001:16031   */\n      swap4\n      pop\n        /* \"#utility.yul\":16074:16078   */\n      dup1\n        /* \"#utility.yul\":16064:16072   */\n      dup7\n        /* \"#utility.yul\":16060:16079   */\n      and\n        /* \"#utility.yul\":16053:16058   */\n      dup5\n        /* \"#utility.yul\":16050:16080   */\n      or\n        /* \"#utility.yul\":16040:16080   */\n      swap3\n      pop\n        /* \"#utility.yul\":15769:16086   */\n      pop\n      pop\n        /* \"#utility.yul\":15693:16086   */\n      swap4\n      swap3\n      pop\n      pop\n      pop\n      jump\t// out\n        /* \"#utility.yul\":16092:16152   */\n    tag_192:\n        /* \"#utility.yul\":16120:16123   */\n      0x00\n        /* \"#utility.yul\":16141:16146   */\n      dup2\n        /* \"#utility.yul\":16134:16146   */\n      swap1\n      pop\n        /* \"#utility.yul\":16092:16152   */\n      swap2\n      swap1\n      pop\n      jump\t// out\n        /* \"#utility.yul\":16158:16300   */\n    tag_193:\n        /* \"#utility.yul\":16208:16217   */\n      0x00\n        /* \"#utility.yul\":16241:16294   */\n      tag_361\n        /* \"#utility.yul\":16259:16293   */\n      tag_362\n        /* \"#utility.yul\":16268:16292   */\n      tag_363\n        /* \"#utility.yul\":16286:16291   */\n      dup5\n        /* \"#utility.yul\":16268:16292   */\n      tag_148\n      jump\t// in\n    tag_363:\n        /* \"#utility.yul\":16259:16293   */\n      tag_192\n      jump\t// in\n    tag_362:\n        /* \"#utility.yul\":16241:16294   */\n      tag_148\n      jump\t// in\n    tag_361:\n        /* \"#utility.yul\":16228:16294   */\n      swap1\n      pop\n        /* \"#utility.yul\":16158:16300   */\n      swap2\n      swap1\n      pop\n      jump\t// out\n        /* \"#utility.yul\":16306:16381   */\n    tag_194:\n        /* \"#utility.yul\":16349:16352   */\n      0x00\n        /* \"#utility.yul\":16370:16375   */\n      dup2\n        /* \"#utility.yul\":16363:16375   */\n      swap1\n      pop\n        /* \"#utility.yul\":16306:16381   */\n      swap2\n      swap1\n      pop\n      jump\t// out\n        /* \"#utility.yul\":16387:16656   */\n    tag_195:\n        /* \"#utility.yul\":16497:16536   */\n      tag_366\n        /* \"#utility.yul\":16528:16535   */\n      dup4\n        /* \"#utility.yul\":16497:16536   */\n      tag_193\n      jump\t// in\n    tag_366:\n        /* \"#utility.yul\":16558:16649   */\n      tag_367\n        /* \"#utility.yul\":16607:16648   */\n      tag_368\n        /* \"#utility.yul\":16631:16647   */\n      dup3\n        /* \"#utility.yul\":16607:16648   */\n      tag_194\n      jump\t// in\n    tag_368:\n        /* \"#utility.yul\":16599:16605   */\n      dup5\n        /* \"#utility.yul\":16592:16596   */\n      dup5\n        /* \"#utility.yul\":16586:16597   */\n      sload\n        /* \"#utility.yul\":16558:16649   */\n      tag_191\n      jump\t// in\n    tag_367:\n        /* \"#utility.yul\":16552:16556   */\n      dup3\n        /* \"#utility.yul\":16545:16650   */\n      sstore\n        /* \"#utility.yul\":16463:16656   */\n      pop\n        /* \"#utility.yul\":16387:16656   */\n      pop\n      pop\n      pop\n      jump\t// out\n        /* \"#utility.yul\":16662:16735   */\n    tag_196:\n        /* \"#utility.yul\":16707:16710   */\n      0x00\n        /* \"#utility.yul\":16662:16735   */\n      swap1\n      jump\t// out\n        /* \"#utility.yul\":16741:16930   */\n    tag_197:\n        /* \"#utility.yul\":16818:16850   */\n      tag_371\n      tag_196\n      jump\t// in\n    tag_371:\n        /* \"#utility.yul\":16859:16924   */\n      tag_372\n        /* \"#utility.yul\":16917:16923   */\n      dup2\n        /* \"#utility.yul\":16909:16915   */\n      dup5\n        /* \"#utility.yul\":16903:16907   */\n      dup5\n        /* \"#utility.yul\":16859:16924   */\n      tag_195\n      jump\t// in\n    tag_372:\n        /* \"#utility.yul\":16794:16930   */\n      pop\n        /* \"#utility.yul\":16741:16930   */\n      pop\n      pop\n      jump\t// out\n        /* \"#utility.yul\":16936:17122   */\n    tag_198:\n        /* \"#utility.yul\":16996:17116   */\n    tag_374:\n        /* \"#utility.yul\":17013:17016   */\n      dup2\n        /* \"#utility.yul\":17006:17011   */\n      dup2\n        /* \"#utility.yul\":17003:17017   */\n      lt\n        /* \"#utility.yul\":16996:17116   */\n      iszero\n      tag_376\n      jumpi\n        /* \"#utility.yul\":17067:17106   */\n      tag_377\n        /* \"#utility.yul\":17104:17105   */\n      0x00\n        /* \"#utility.yul\":17097:17102   */\n      dup3\n        /* \"#utility.yul\":17067:17106   */\n      tag_197\n      jump\t// in\n    tag_377:\n        /* \"#utility.yul\":17040:17041   */\n      0x01\n        /* \"#utility.yul\":17033:17038   */\n      dup2\n        /* \"#utility.yul\":17029:17042   */\n      add\n        /* \"#utility.yul\":17020:17042   */\n      swap1\n      pop\n        /* \"#utility.yul\":16996:17116   */\n      jump(tag_374)\n    tag_376:\n        /* \"#utility.yul\":16936:17122   */\n      pop\n      pop\n      jump\t// out\n        /* \"#utility.yul\":17128:17671   */\n    tag_199:\n        /* \"#utility.yul\":17229:17231   */\n      0x1f\n        /* \"#utility.yul\":17224:17227   */\n      dup3\n        /* \"#utility.yul\":17221:17232   */\n      gt\n        /* \"#utility.yul\":17218:17664   */\n      iszero\n      tag_379\n      jumpi\n        /* \"#utility.yul\":17263:17301   */\n      tag_380\n        /* \"#utility.yul\":17295:17300   */\n      dup2\n        /* \"#utility.yul\":17263:17301   */\n      tag_188\n      jump\t// in\n    tag_380:\n        /* \"#utility.yul\":17347:17376   */\n      tag_381\n        /* \"#utility.yul\":17365:17375   */\n      dup5\n        /* \"#utility.yul\":17347:17376   */\n      tag_189\n      jump\t// in\n    tag_381:\n        /* \"#utility.yul\":17337:17345   */\n      dup2\n        /* \"#utility.yul\":17333:17377   */\n      add\n        /* \"#utility.yul\":17530:17532   */\n      0x20\n        /* \"#utility.yul\":17518:17528   */\n      dup6\n        /* \"#utility.yul\":17515:17533   */\n      lt\n        /* \"#utility.yul\":17512:17561   */\n      iszero\n      tag_382\n      jumpi\n        /* \"#utility.yul\":17551:17559   */\n      dup2\n        /* \"#utility.yul\":17536:17559   */\n      swap1\n      pop\n        /* \"#utility.yul\":17512:17561   */\n    tag_382:\n        /* \"#utility.yul\":17574:17654   */\n      tag_383\n        /* \"#utility.yul\":17630:17652   */\n      tag_384\n        /* \"#utility.yul\":17648:17651   */\n      dup6\n        /* \"#utility.yul\":17630:17652   */\n      tag_189\n      jump\t// in\n    tag_384:\n        /* \"#utility.yul\":17620:17628   */\n      dup4\n        /* \"#utility.yul\":17616:17653   */\n      add\n        /* \"#utility.yul\":17603:17614   */\n      dup3\n        /* \"#utility.yul\":17574:17654   */\n      tag_198\n      jump\t// in\n    tag_383:\n        /* \"#utility.yul\":17233:17664   */\n      pop\n      pop\n        /* \"#utility.yul\":17218:17664   */\n    tag_379:\n        /* \"#utility.yul\":17128:17671   */\n      pop\n      pop\n      pop\n      jump\t// out\n        /* \"#utility.yul\":17677:17794   */\n    tag_200:\n        /* \"#utility.yul\":17731:17739   */\n      0x00\n        /* \"#utility.yul\":17781:17786   */\n      dup3\n        /* \"#utility.yul\":17775:17779   */\n      dup3\n        /* \"#utility.yul\":17771:17787   */\n      shr\n        /* \"#utility.yul\":17750:17787   */\n      swap1\n      pop\n        /* \"#utility.yul\":17677:17794   */\n      swap3\n      swap2\n      pop\n      pop\n      jump\t// out\n        /* \"#utility.yul\":17800:17969   */\n    tag_201:\n        /* \"#utility.yul\":17844:17850   */\n      0x00\n        /* \"#utility.yul\":17877:17928   */\n      tag_387\n        /* \"#utility.yul\":17925:17926   */\n      0x00\n        /* \"#utility.yul\":17921:17927   */\n      not\n        /* \"#utility.yul\":17913:17918   */\n      dup5\n        /* \"#utility.yul\":17910:17911   */\n      0x08\n        /* \"#utility.yul\":17906:17919   */\n      mul\n        /* \"#utility.yul\":17877:17928   */\n      tag_200\n      jump\t// in\n    tag_387:\n        /* \"#utility.yul\":17873:17929   */\n      not\n        /* \"#utility.yul\":17958:17962   */\n      dup1\n        /* \"#utility.yul\":17952:17956   */\n      dup4\n        /* \"#utility.yul\":17948:17963   */\n      and\n        /* \"#utility.yul\":17938:17963   */\n      swap2\n      pop\n        /* \"#utility.yul\":17851:17969   */\n      pop\n        /* \"#utility.yul\":17800:17969   */\n      swap3\n      swap2\n      pop\n      pop\n      jump\t// out\n        /* \"#utility.yul\":17974:18269   */\n    tag_202:\n        /* \"#utility.yul\":18050:18054   */\n      0x00\n        /* \"#utility.yul\":18196:18225   */\n      tag_389\n        /* \"#utility.yul\":18221:18224   */\n      dup4\n        /* \"#utility.yul\":18215:18219   */\n      dup4\n        /* \"#utility.yul\":18196:18225   */\n      tag_201\n      jump\t// in\n    tag_389:\n        /* \"#utility.yul\":18188:18225   */\n      swap2\n      pop\n        /* \"#utility.yul\":18258:18261   */\n      dup3\n        /* \"#utility.yul\":18255:18256   */\n      0x02\n        /* \"#utility.yul\":18251:18262   */\n      mul\n        /* \"#utility.yul\":18245:18249   */\n      dup3\n        /* \"#utility.yul\":18242:18263   */\n      or\n        /* \"#utility.yul\":18234:18263   */\n      swap1\n      pop\n        /* \"#utility.yul\":17974:18269   */\n      swap3\n      swap2\n      pop\n      pop\n      jump\t// out\n        /* \"#utility.yul\":18274:19669   */\n    tag_120:\n        /* \"#utility.yul\":18391:18428   */\n      tag_391\n        /* \"#utility.yul\":18424:18427   */\n      dup3\n        /* \"#utility.yul\":18391:18428   */\n      tag_166\n      jump\t// in\n    tag_391:\n        /* \"#utility.yul\":18493:18511   */\n      0xffffffffffffffff\n        /* \"#utility.yul\":18485:18491   */\n      dup2\n        /* \"#utility.yul\":18482:18512   */\n      gt\n        /* \"#utility.yul\":18479:18535   */\n      iszero\n      tag_392\n      jumpi\n        /* \"#utility.yul\":18515:18533   */\n      tag_393\n      tag_156\n      jump\t// in\n    tag_393:\n        /* \"#utility.yul\":18479:18535   */\n    tag_392:\n        /* \"#utility.yul\":18559:18597   */\n      tag_394\n        /* \"#utility.yul\":18591:18595   */\n      dup3\n        /* \"#utility.yul\":18585:18596   */\n      sload\n        /* \"#utility.yul\":18559:18597   */\n      tag_136\n      jump\t// in\n    tag_394:\n        /* \"#utility.yul\":18644:18711   */\n      tag_395\n        /* \"#utility.yul\":18704:18710   */\n      dup3\n        /* \"#utility.yul\":18696:18702   */\n      dup3\n        /* \"#utility.yul\":18690:18694   */\n      dup6\n        /* \"#utility.yul\":18644:18711   */\n      tag_199\n      jump\t// in\n    tag_395:\n        /* \"#utility.yul\":18738:18739   */\n      0x00\n        /* \"#utility.yul\":18762:18766   */\n      0x20\n        /* \"#utility.yul\":18749:18766   */\n      swap1\n      pop\n        /* \"#utility.yul\":18794:18796   */\n      0x1f\n        /* \"#utility.yul\":18786:18792   */\n      dup4\n        /* \"#utility.yul\":18783:18797   */\n      gt\n        /* \"#utility.yul\":18811:18812   */\n      0x01\n        /* \"#utility.yul\":18806:19424   */\n      dup2\n      eq\n      tag_397\n      jumpi\n        /* \"#utility.yul\":19468:19469   */\n      0x00\n        /* \"#utility.yul\":19485:19491   */\n      dup5\n        /* \"#utility.yul\":19482:19559   */\n      iszero\n      tag_398\n      jumpi\n        /* \"#utility.yul\":19534:19543   */\n      dup3\n        /* \"#utility.yul\":19529:19532   */\n      dup8\n        /* \"#utility.yul\":19525:19544   */\n      add\n        /* \"#utility.yul\":19519:19545   */\n      mload\n        /* \"#utility.yul\":19510:19545   */\n      swap1\n      pop\n        /* \"#utility.yul\":19482:19559   */\n    tag_398:\n        /* \"#utility.yul\":19585:19652   */\n      tag_399\n        /* \"#utility.yul\":19645:19651   */\n      dup6\n        /* \"#utility.yul\":19638:19643   */\n      dup3\n        /* \"#utility.yul\":19585:19652   */\n      tag_202\n      jump\t// in\n    tag_399:\n        /* \"#utility.yul\":19579:19583   */\n      dup7\n        /* \"#utility.yul\":19572:19653   */\n      sstore\n        /* \"#utility.yul\":19441:19663   */\n      pop\n        /* \"#utility.yul\":18776:19663   */\n      jump(tag_396)\n        /* \"#utility.yul\":18806:19424   */\n    tag_397:\n        /* \"#utility.yul\":18858:18862   */\n      0x1f\n        /* \"#utility.yul\":18854:18863   */\n      not\n        /* \"#utility.yul\":18846:18852   */\n      dup5\n        /* \"#utility.yul\":18842:18864   */\n      and\n        /* \"#utility.yul\":18892:18929   */\n      tag_400\n        /* \"#utility.yul\":18924:18928   */\n      dup7\n        /* \"#utility.yul\":18892:18929   */\n      tag_188\n      jump\t// in\n    tag_400:\n        /* \"#utility.yul\":18951:18952   */\n      0x00\n        /* \"#utility.yul\":18965:19173   */\n    tag_401:\n        /* \"#utility.yul\":18979:18986   */\n      dup3\n        /* \"#utility.yul\":18976:18977   */\n      dup2\n        /* \"#utility.yul\":18973:18987   */\n      lt\n        /* \"#utility.yul\":18965:19173   */\n      iszero\n      tag_403\n      jumpi\n        /* \"#utility.yul\":19058:19067   */\n      dup5\n        /* \"#utility.yul\":19053:19056   */\n      dup10\n        /* \"#utility.yul\":19049:19068   */\n      add\n        /* \"#utility.yul\":19043:19069   */\n      mload\n        /* \"#utility.yul\":19035:19041   */\n      dup3\n        /* \"#utility.yul\":19028:19070   */\n      sstore\n        /* \"#utility.yul\":19109:19110   */\n      0x01\n        /* \"#utility.yul\":19101:19107   */\n      dup3\n        /* \"#utility.yul\":19097:19111   */\n      add\n        /* \"#utility.yul\":19087:19111   */\n      swap2\n      pop\n        /* \"#utility.yul\":19156:19158   */\n      0x20\n        /* \"#utility.yul\":19145:19154   */\n      dup6\n        /* \"#utility.yul\":19141:19159   */\n      add\n        /* \"#utility.yul\":19128:19159   */\n      swap5\n      pop\n        /* \"#utility.yul\":19002:19006   */\n      0x20\n        /* \"#utility.yul\":18999:19000   */\n      dup2\n        /* \"#utility.yul\":18995:19007   */\n      add\n        /* \"#utility.yul\":18990:19007   */\n      swap1\n      pop\n        /* \"#utility.yul\":18965:19173   */\n      jump(tag_401)\n    tag_403:\n        /* \"#utility.yul\":19201:19207   */\n      dup7\n        /* \"#utility.yul\":19192:19199   */\n      dup4\n        /* \"#utility.yul\":19189:19208   */\n      lt\n        /* \"#utility.yul\":19186:19365   */\n      iszero\n      tag_404\n      jumpi\n        /* \"#utility.yul\":19259:19268   */\n      dup5\n        /* \"#utility.yul\":19254:19257   */\n      dup10\n        /* \"#utility.yul\":19250:19269   */\n      add\n        /* \"#utility.yul\":19244:19270   */\n      mload\n        /* \"#utility.yul\":19302:19350   */\n      tag_405\n        /* \"#utility.yul\":19344:19348   */\n      0x1f\n        /* \"#utility.yul\":19336:19342   */\n      dup10\n        /* \"#utility.yul\":19332:19349   */\n      and\n        /* \"#utility.yul\":19321:19330   */\n      dup3\n        /* \"#utility.yul\":19302:19350   */\n      tag_201\n      jump\t// in\n    tag_405:\n        /* \"#utility.yul\":19294:19300   */\n      dup4\n        /* \"#utility.yul\":19287:19351   */\n      sstore\n        /* \"#utility.yul\":19209:19365   */\n      pop\n        /* \"#utility.yul\":19186:19365   */\n    tag_404:\n        /* \"#utility.yul\":19411:19412   */\n      0x01\n        /* \"#utility.yul\":19407:19408   */\n      0x02\n        /* \"#utility.yul\":19399:19405   */\n      dup9\n        /* \"#utility.yul\":19395:19409   */\n      mul\n        /* \"#utility.yul\":19391:19413   */\n      add\n        /* \"#utility.yul\":19385:19389   */\n      dup9\n        /* \"#utility.yul\":19378:19414   */\n      sstore\n        /* \"#utility.yul\":18813:19424   */\n      pop\n      pop\n      pop\n        /* \"#utility.yul\":18776:19663   */\n    tag_396:\n      pop\n        /* \"#utility.yul\":18366:19669   */\n      pop\n      pop\n      pop\n        /* \"#utility.yul\":18274:19669   */\n      pop\n      pop\n      jump\t// out\n        /* \"#utility.yul\":19675:19903   */\n    tag_203:\n        /* \"#utility.yul\":19815:19849   */\n      0x596f752068617665206e6f74206d657420746865206d696e696d756d20636f6e\n        /* \"#utility.yul\":19811:19812   */\n      0x00\n        /* \"#utility.yul\":19803:19809   */\n      dup3\n        /* \"#utility.yul\":19799:19813   */\n      add\n        /* \"#utility.yul\":19792:19850   */\n      mstore\n        /* \"#utility.yul\":19884:19895   */\n      0x747269627574696f6e0000000000000000000000000000000000000000000000\n        /* \"#utility.yul\":19879:19881   */\n      0x20\n        /* \"#utility.yul\":19871:19877   */\n      dup3\n        /* \"#utility.yul\":19867:19882   */\n      add\n        /* \"#utility.yul\":19860:19896   */\n      mstore\n        /* \"#utility.yul\":19675:19903   */\n      pop\n      jump\t// out\n        /* \"#utility.yul\":19909:20275   */\n    tag_204:\n        /* \"#utility.yul\":20051:20054   */\n      0x00\n        /* \"#utility.yul\":20072:20139   */\n      tag_408\n        /* \"#utility.yul\":20136:20138   */\n      0x29\n        /* \"#utility.yul\":20131:20134   */\n      dup4\n        /* \"#utility.yul\":20072:20139   */\n      tag_167\n      jump\t// in\n    tag_408:\n        /* \"#utility.yul\":20065:20139   */\n      swap2\n      pop\n        /* \"#utility.yul\":20148:20241   */\n      tag_409\n        /* \"#utility.yul\":20237:20240   */\n      dup3\n        /* \"#utility.yul\":20148:20241   */\n      tag_203\n      jump\t// in\n    tag_409:\n        /* \"#utility.yul\":20266:20268   */\n      0x40\n        /* \"#utility.yul\":20261:20264   */\n      dup3\n        /* \"#utility.yul\":20257:20269   */\n      add\n        /* \"#utility.yul\":20250:20269   */\n      swap1\n      pop\n        /* \"#utility.yul\":19909:20275   */\n      swap2\n      swap1\n      pop\n      jump\t// out\n        /* \"#utility.yul\":20281:20700   */\n    tag_126:\n        /* \"#utility.yul\":20447:20451   */\n      0x00\n        /* \"#utility.yul\":20485:20487   */\n      0x20\n        /* \"#utility.yul\":20474:20483   */\n      dup3\n        /* \"#utility.yul\":20470:20488   */\n      add\n        /* \"#utility.yul\":20462:20488   */\n      swap1\n      pop\n        /* \"#utility.yul\":20534:20543   */\n      dup2\n        /* \"#utility.yul\":20528:20532   */\n      dup2\n        /* \"#utility.yul\":20524:20544   */\n      sub\n        /* \"#utility.yul\":20520:20521   */\n      0x00\n        /* \"#utility.yul\":20509:20518   */\n      dup4\n        /* \"#utility.yul\":20505:20522   */\n      add\n        /* \"#utility.yul\":20498:20545   */\n      mstore\n        /* \"#utility.yul\":20562:20693   */\n      tag_411\n        /* \"#utility.yul\":20688:20692   */\n      dup2\n        /* \"#utility.yul\":20562:20693   */\n      tag_204\n      jump\t// in\n    tag_411:\n        /* \"#utility.yul\":20554:20693   */\n      swap1\n      pop\n        /* \"#utility.yul\":20281:20700   */\n      swap2\n      swap1\n      pop\n      jump\t// out\n        /* \"#utility.yul\":20706:20881   */\n    tag_205:\n        /* \"#utility.yul\":20846:20873   */\n      0x446561646c696e6520686173206265656e207265616368656400000000000000\n        /* \"#utility.yul\":20842:20843   */\n      0x00\n        /* \"#utility.yul\":20834:20840   */\n      dup3\n        /* \"#utility.yul\":20830:20844   */\n      add\n        /* \"#utility.yul\":20823:20874   */\n      mstore\n        /* \"#utility.yul\":20706:20881   */\n      pop\n      jump\t// out\n        /* \"#utility.yul\":20887:21253   */\n    tag_206:\n        /* \"#utility.yul\":21029:21032   */\n      0x00\n        /* \"#utility.yul\":21050:21117   */\n      tag_414\n        /* \"#utility.yul\":21114:21116   */\n      0x19\n        /* \"#utility.yul\":21109:21112   */\n      dup4\n        /* \"#utility.yul\":21050:21117   */\n      tag_167\n      jump\t// in\n    tag_414:\n        /* \"#utility.yul\":21043:21117   */\n      swap2\n      pop\n        /* \"#utility.yul\":21126:21219   */\n      tag_415\n        /* \"#utility.yul\":21215:21218   */\n      dup3\n        /* \"#utility.yul\":21126:21219   */\n      tag_205\n      jump\t// in\n    tag_415:\n        /* \"#utility.yul\":21244:21246   */\n      0x20\n        /* \"#utility.yul\":21239:21242   */\n      dup3\n        /* \"#utility.yul\":21235:21247   */\n      add\n        /* \"#utility.yul\":21228:21247   */\n      swap1\n      pop\n        /* \"#utility.yul\":20887:21253   */\n      swap2\n      swap1\n      pop\n      jump\t// out\n        /* \"#utility.yul\":21259:21678   */\n    tag_129:\n        /* \"#utility.yul\":21425:21429   */\n      0x00\n        /* \"#utility.yul\":21463:21465   */\n      0x20\n        /* \"#utility.yul\":21452:21461   */\n      dup3\n        /* \"#utility.yul\":21448:21466   */\n      add\n        /* \"#utility.yul\":21440:21466   */\n      swap1\n      pop\n        /* \"#utility.yul\":21512:21521   */\n      dup2\n        /* \"#utility.yul\":21506:21510   */\n      dup2\n        /* \"#utility.yul\":21502:21522   */\n      sub\n        /* \"#utility.yul\":21498:21499   */\n      0x00\n        /* \"#utility.yul\":21487:21496   */\n      dup4\n        /* \"#utility.yul\":21483:21500   */\n      add\n        /* \"#utility.yul\":21476:21523   */\n      mstore\n        /* \"#utility.yul\":21540:21671   */\n      tag_417\n        /* \"#utility.yul\":21666:21670   */\n      dup2\n        /* \"#utility.yul\":21540:21671   */\n      tag_206\n      jump\t// in\n    tag_417:\n        /* \"#utility.yul\":21532:21671   */\n      swap1\n      pop\n        /* \"#utility.yul\":21259:21678   */\n      swap2\n      swap1\n      pop\n      jump\t// out\n        /* \"#utility.yul\":21684:21875   */\n    tag_133:\n        /* \"#utility.yul\":21724:21727   */\n      0x00\n        /* \"#utility.yul\":21743:21763   */\n      tag_419\n        /* \"#utility.yul\":21761:21762   */\n      dup3\n        /* \"#utility.yul\":21743:21763   */\n      tag_148\n      jump\t// in\n    tag_419:\n        /* \"#utility.yul\":21738:21763   */\n      swap2\n      pop\n        /* \"#utility.yul\":21777:21797   */\n      tag_420\n        /* \"#utility.yul\":21795:21796   */\n      dup4\n        /* \"#utility.yul\":21777:21797   */\n      tag_148\n      jump\t// in\n    tag_420:\n        /* \"#utility.yul\":21772:21797   */\n      swap3\n      pop\n        /* \"#utility.yul\":21820:21821   */\n      dup3\n        /* \"#utility.yul\":21817:21818   */\n      dup3\n        /* \"#utility.yul\":21813:21822   */\n      add\n        /* \"#utility.yul\":21806:21822   */\n      swap1\n      pop\n        /* \"#utility.yul\":21841:21844   */\n      dup1\n        /* \"#utility.yul\":21838:21839   */\n      dup3\n        /* \"#utility.yul\":21835:21845   */\n      gt\n        /* \"#utility.yul\":21832:21868   */\n      iszero\n      tag_421\n      jumpi\n        /* \"#utility.yul\":21848:21866   */\n      tag_422\n      tag_178\n      jump\t// in\n    tag_422:\n        /* \"#utility.yul\":21832:21868   */\n    tag_421:\n        /* \"#utility.yul\":21684:21875   */\n      swap3\n      swap2\n      pop\n      pop\n      jump\t// out\n\n    auxdata: 0xa26469706673582212205b34d051d81acaf18888a14ba2680570e3b1f4dc934bbace8dc78ea97bfa183f64736f6c634300081a0033\n}\n",
				"bytecode": {
					"linkReferences": {},
					"object": "6080604052348015600e575f80fd5b5060405161183e38038061183e8339818101604052810190602e91906097565b60025f9054906101000a9050508160038190555080600481905550670de0b6b3a76400006005819055505f600881905550505060ce565b5f80fd5b5f819050919050565b6079816069565b81146082575f80fd5b50565b5f815190506091816072565b92915050565b5f806040838503121560aa5760a96065565b5b5f60b5858286016085565b925050602060c4858286016085565b9150509250929050565b611763806100db5f395ff3fe6080604052600436106100e7575f3560e01c80638aa52eb511610089578063c71daccb11610058578063c71daccb1461029f578063d4b83992146102c9578063d7bb99ba146102f3578063eaac9e5d146102fd576100e7565b80638aa52eb5146101f9578063937e09b114610223578063c34f712a1461024d578063c59ee1dc14610275576100e7565b8063481c6a75116100c5578063481c6a751461017b5780635114cb52146101a5578063590e1ae3146101cd5780636a8961d8146101e3576100e7565b80631f6d4942146100eb57806329dcb0cf146101275780634377cf6514610151575b5f80fd5b3480156100f6575f80fd5b50610111600480360381019061010c9190610beb565b61033d565b60405161011e9190610c2e565b60405180910390f35b348015610132575f80fd5b5061013b610351565b6040516101489190610c2e565b60405180910390f35b34801561015c575f80fd5b50610165610357565b6040516101729190610c2e565b60405180910390f35b348015610186575f80fd5b5061018f61035d565b60405161019c9190610c56565b60405180910390f35b3480156101b0575f80fd5b506101cb60048036038101906101c69190610c99565b610382565b005b3480156101d8575f80fd5b506101e1610513565b005b3480156101ee575f80fd5b506101f76106a7565b005b348015610204575f80fd5b5061020d61083f565b60405161021a9190610c2e565b60405180910390f35b34801561022e575f80fd5b50610237610845565b6040516102449190610c2e565b60405180910390f35b348015610258575f80fd5b50610273600480360381019061026e9190610e3b565b61084b565b005b348015610280575f80fd5b50610289610939565b6040516102969190610c2e565b60405180910390f35b3480156102aa575f80fd5b506102b361093f565b6040516102c09190610c2e565b60405180910390f35b3480156102d4575f80fd5b506102dd610946565b6040516102ea9190610c2e565b60405180910390f35b6102fb61094c565b005b348015610308575f80fd5b50610323600480360381019061031e9190610c99565b610a9d565b604051610334959493929190610f30565b60405180910390f35b5f602052805f5260405f205f915090505481565b60035481565b60075481565b60025f9054906101000a900473ffffffffffffffffffffffffffffffffffffffff1681565b60045460065410156103c9576040517f08c379a00000000000000000000000000000000000000000000000000000000081526004016103c090610fd2565b60405180910390fd5b5f60015f8381526020019081526020015f2090505f1515816003015f9054906101000a900460ff16151514610433576040517f08c379a000000000000000000000000000000000000000000000000000000000815260040161042a90611060565b60405180910390fd5b600260075461044291906110d8565b81600501541015610488576040517f08c379a000000000000000000000000000000000000000000000000000000000815260040161047f90611178565b60405180910390fd5b806001015f9054906101000a900473ffffffffffffffffffffffffffffffffffffffff1673ffffffffffffffffffffffffffffffffffffffff166108fc826002015490811502906040515f60405180830381858888f193505050501580156104f2573d5f803e3d5ffd5b506001816003015f6101000a81548160ff0219169083151502179055505050565b5f805f3373ffffffffffffffffffffffffffffffffffffffff1673ffffffffffffffffffffffffffffffffffffffff1681526020019081526020015f205411610591576040517f08c379a0000000000000000000000000000000000000000000000000000000008152600401610588906111e0565b60405180910390fd5b600354421180156105a55750600454600654105b6105e4576040517f08c379a00000000000000000000000000000000000000000000000000000000081526004016105db9061126e565b60405180910390fd5b3373ffffffffffffffffffffffffffffffffffffffff166108fc5f803373ffffffffffffffffffffffffffffffffffffffff1673ffffffffffffffffffffffffffffffffffffffff1681526020019081526020015f205490811502906040515f60405180830381858888f19350505050158015610663573d5f803e3d5ffd5b505f805f3373ffffffffffffffffffffffffffffffffffffffff1673ffffffffffffffffffffffffffffffffffffffff1681526020019081526020015f2081905550565b5f805f3373ffffffffffffffffffffffffffffffffffffffff1673ffffffffffffffffffffffffffffffffffffffff1681526020019081526020015f205411610725576040517f08c379a000000000000000000000000000000000000000000000000000000000815260040161071c906111e0565b60405180910390fd5b5f60015f60085481526020019081526020015f2090505f1515816004015f3373ffffffffffffffffffffffffffffffffffffffff1673ffffffffffffffffffffffffffffffffffffffff1681526020019081526020015f205f9054906101000a900460ff161515146107cc576040517f08c379a00000000000000000000000000000000000000000000000000000000081526004016107c3906112d6565b60405180910390fd5b6001816004015f3373ffffffffffffffffffffffffffffffffffffffff1673ffffffffffffffffffffffffffffffffffffffff1681526020019081526020015f205f6101000a81548160ff021916908315150217905550806005015f815480929190610837906112f4565b919050555050565b60085481565b60055481565b60025f9054906101000a900473ffffffffffffffffffffffffffffffffffffffff1673ffffffffffffffffffffffffffffffffffffffff163373ffffffffffffffffffffffffffffffffffffffff16146108a3575f80fd5b5f60015f60085481526020019081526020015f20905083815f0190816108c99190611535565b5082816002018190555081816001015f6101000a81548173ffffffffffffffffffffffffffffffffffffffff021916908373ffffffffffffffffffffffffffffffffffffffff16021790555060075f815480929190610927906112f4565b91905055505f60088190555050505050565b60065481565b5f47905090565b60045481565b600554341015610991576040517f08c379a000000000000000000000000000000000000000000000000000000000815260040161098890611674565b60405180910390fd5b6003544210156109d6576040517f08c379a00000000000000000000000000000000000000000000000000000000081526004016109cd906116dc565b60405180910390fd5b5f805f3373ffffffffffffffffffffffffffffffffffffffff1673ffffffffffffffffffffffffffffffffffffffff1681526020019081526020015f205403610a315760075f815480929190610a2b906112f4565b91905055505b345f803373ffffffffffffffffffffffffffffffffffffffff1673ffffffffffffffffffffffffffffffffffffffff1681526020019081526020015f205f828254610a7c91906116fa565b925050819055503460065f828254610a9491906116fa565b92505081905550565b6001602052805f5260405f205f91509050805f018054610abc90611368565b80601f0160208091040260200160405190810160405280929190818152602001828054610ae890611368565b8015610b335780601f10610b0a57610100808354040283529160200191610b33565b820191905f5260205f20905b815481529060010190602001808311610b1657829003601f168201915b505050505090806001015f9054906101000a900473ffffffffffffffffffffffffffffffffffffffff1690806002015490806003015f9054906101000a900460ff16908060050154905085565b5f604051905090565b5f80fd5b5f80fd5b5f73ffffffffffffffffffffffffffffffffffffffff82169050919050565b5f610bba82610b91565b9050919050565b610bca81610bb0565b8114610bd4575f80fd5b50565b5f81359050610be581610bc1565b92915050565b5f60208284031215610c0057610bff610b89565b5b5f610c0d84828501610bd7565b91505092915050565b5f819050919050565b610c2881610c16565b82525050565b5f602082019050610c415f830184610c1f565b92915050565b610c5081610bb0565b82525050565b5f602082019050610c695f830184610c47565b92915050565b610c7881610c16565b8114610c82575f80fd5b50565b5f81359050610c9381610c6f565b92915050565b5f60208284031215610cae57610cad610b89565b5b5f610cbb84828501610c85565b91505092915050565b5f80fd5b5f80fd5b5f601f19601f8301169050919050565b7f4e487b71000000000000000000000000000000000000000000000000000000005f52604160045260245ffd5b610d1282610ccc565b810181811067ffffffffffffffff82111715610d3157610d30610cdc565b5b80604052505050565b5f610d43610b80565b9050610d4f8282610d09565b919050565b5f67ffffffffffffffff821115610d6e57610d6d610cdc565b5b610d7782610ccc565b9050602081019050919050565b828183375f83830152505050565b5f610da4610d9f84610d54565b610d3a565b905082815260208101848484011115610dc057610dbf610cc8565b5b610dcb848285610d84565b509392505050565b5f82601f830112610de757610de6610cc4565b5b8135610df7848260208601610d92565b91505092915050565b5f610e0a82610b91565b9050919050565b610e1a81610e00565b8114610e24575f80fd5b50565b5f81359050610e3581610e11565b92915050565b5f805f60608486031215610e5257610e51610b89565b5b5f84013567ffffffffffffffff811115610e6f57610e6e610b8d565b5b610e7b86828701610dd3565b9350506020610e8c86828701610c85565b9250506040610e9d86828701610e27565b9150509250925092565b5f81519050919050565b5f82825260208201905092915050565b8281835e5f83830152505050565b5f610ed982610ea7565b610ee38185610eb1565b9350610ef3818560208601610ec1565b610efc81610ccc565b840191505092915050565b610f1081610e00565b82525050565b5f8115159050919050565b610f2a81610f16565b82525050565b5f60a0820190508181035f830152610f488188610ecf565b9050610f576020830187610f07565b610f646040830186610c1f565b610f716060830185610f21565b610f7e6080830184610c1f565b9695505050505050565b7f54617267657420616d6f756e74206973206e6f742072656163686564207965745f82015250565b5f610fbc602083610eb1565b9150610fc782610f88565b602082019050919050565b5f6020820190508181035f830152610fe981610fb0565b9050919050565b7f546869732066756e64696e672068617320616c7265616479206265656e20636f5f8201527f6d706c6574656400000000000000000000000000000000000000000000000000602082015250565b5f61104a602783610eb1565b915061105582610ff0565b604082019050919050565b5f6020820190508181035f8301526110778161103e565b9050919050565b7f4e487b71000000000000000000000000000000000000000000000000000000005f52601260045260245ffd5b7f4e487b71000000000000000000000000000000000000000000000000000000005f52601160045260245ffd5b5f6110e282610c16565b91506110ed83610c16565b9250826110fd576110fc61107e565b5b828204905092915050565b7f4e6f7420656e6f75676820766f74657320746f206d616b652061207061796d655f8201527f6e74000000000000000000000000000000000000000000000000000000000000602082015250565b5f611162602283610eb1565b915061116d82611108565b604082019050919050565b5f6020820190508181035f83015261118f81611156565b9050919050565b7f596f7520617265206e6f74206120636f6e7472696275746f72730000000000005f82015250565b5f6111ca601a83610eb1565b91506111d582611196565b602082019050919050565b5f6020820190508181035f8301526111f7816111be565b9050919050565b7f446561646c696e6520686173206265656e207265616368656420616e642074615f8201527f7267657420616d6f756e74206973206e6f742072656163686564207965740000602082015250565b5f611258603e83610eb1565b9150611263826111fe565b604082019050919050565b5f6020820190508181035f8301526112858161124c565b9050919050565b7f596f75206861766520616c726561647920766f746564000000000000000000005f82015250565b5f6112c0601683610eb1565b91506112cb8261128c565b602082019050919050565b5f6020820190508181035f8301526112ed816112b4565b9050919050565b5f6112fe82610c16565b91507fffffffffffffffffffffffffffffffffffffffffffffffffffffffffffffffff82036113305761132f6110ab565b5b600182019050919050565b7f4e487b71000000000000000000000000000000000000000000000000000000005f52602260045260245ffd5b5f600282049050600182168061137f57607f821691505b6020821081036113925761139161133b565b5b50919050565b5f819050815f5260205f209050919050565b5f6020601f8301049050919050565b5f82821b905092915050565b5f600883026113f47fffffffffffffffffffffffffffffffffffffffffffffffffffffffffffffffff826113b9565b6113fe86836113b9565b95508019841693508086168417925050509392505050565b5f819050919050565b5f61143961143461142f84610c16565b611416565b610c16565b9050919050565b5f819050919050565b6114528361141f565b61146661145e82611440565b8484546113c5565b825550505050565b5f90565b61147a61146e565b611485818484611449565b505050565b5b818110156114a85761149d5f82611472565b60018101905061148b565b5050565b601f8211156114ed576114be81611398565b6114c7846113aa565b810160208510156114d6578190505b6114ea6114e2856113aa565b83018261148a565b50505b505050565b5f82821c905092915050565b5f61150d5f19846008026114f2565b1980831691505092915050565b5f61152583836114fe565b9150826002028217905092915050565b61153e82610ea7565b67ffffffffffffffff81111561155757611556610cdc565b5b6115618254611368565b61156c8282856114ac565b5f60209050601f83116001811461159d575f841561158b578287015190505b611595858261151a565b8655506115fc565b601f1984166115ab86611398565b5f5b828110156115d2578489015182556001820191506020850194506020810190506115ad565b868310156115ef57848901516115eb601f8916826114fe565b8355505b6001600288020188555050505b505050505050565b7f596f752068617665206e6f74206d657420746865206d696e696d756d20636f6e5f8201527f747269627574696f6e0000000000000000000000000000000000000000000000602082015250565b5f61165e602983610eb1565b915061166982611604565b604082019050919050565b5f6020820190508181035f83015261168b81611652565b9050919050565b7f446561646c696e6520686173206265656e2072656163686564000000000000005f82015250565b5f6116c6601983610eb1565b91506116d182611692565b602082019050919050565b5f6020820190508181035f8301526116f3816116ba565b9050919050565b5f61170482610c16565b915061170f83610c16565b9250828201905080821115611727576117266110ab565b5b9291505056fea26469706673582212205b34d051d81acaf18888a14ba2680570e3b1f4dc934bbace8dc78ea97bfa183f64736f6c634300081a0033",
					"opcodes": "PUSH1 0x80 PUSH1 0x40 MSTORE CALLVALUE DUP1 ISZERO PUSH1 0xE JUMPI PUSH0 DUP1 REVERT JUMPDEST POP PUSH1 0x40 MLOAD PUSH2 0x183E CODESIZE SUB DUP1 PUSH2 0x183E DUP4 CODECOPY DUP2 DUP2 ADD PUSH1 0x40 MSTORE DUP2 ADD SWAP1 PUSH1 0x2E SWAP2 SWAP1 PUSH1 0x97 JUMP JUMPDEST PUSH1 0x2 PUSH0 SWAP1 SLOAD SWAP1 PUSH2 0x100 EXP SWAP1 POP POP DUP2 PUSH1 0x3 DUP2 SWAP1 SSTORE POP DUP1 PUSH1 0x4 DUP2 SWAP1 SSTORE POP PUSH8 0xDE0B6B3A7640000 PUSH1 0x5 DUP2 SWAP1 SSTORE POP PUSH0 PUSH1 0x8 DUP2 SWAP1 SSTORE POP POP POP PUSH1 0xCE JUMP JUMPDEST PUSH0 DUP1 REVERT JUMPDEST PUSH0 DUP2 SWAP1 POP SWAP2 SWAP1 POP JUMP JUMPDEST PUSH1 0x79 DUP2 PUSH1 0x69 JUMP JUMPDEST DUP2 EQ PUSH1 0x82 JUMPI PUSH0 DUP1 REVERT JUMPDEST POP JUMP JUMPDEST PUSH0 DUP2 MLOAD SWAP1 POP PUSH1 0x91 DUP2 PUSH1 0x72 JUMP JUMPDEST SWAP3 SWAP2 POP POP JUMP JUMPDEST PUSH0 DUP1 PUSH1 0x40 DUP4 DUP6 SUB SLT ISZERO PUSH1 0xAA JUMPI PUSH1 0xA9 PUSH1 0x65 JUMP JUMPDEST JUMPDEST PUSH0 PUSH1 0xB5 DUP6 DUP3 DUP7 ADD PUSH1 0x85 JUMP JUMPDEST SWAP3 POP POP PUSH1 0x20 PUSH1 0xC4 DUP6 DUP3 DUP7 ADD PUSH1 0x85 JUMP JUMPDEST SWAP2 POP POP SWAP3 POP SWAP3 SWAP1 POP JUMP JUMPDEST PUSH2 0x1763 DUP1 PUSH2 0xDB PUSH0 CODECOPY PUSH0 RETURN INVALID PUSH1 0x80 PUSH1 0x40 MSTORE PUSH1 0x4 CALLDATASIZE LT PUSH2 0xE7 JUMPI PUSH0 CALLDATALOAD PUSH1 0xE0 SHR DUP1 PUSH4 0x8AA52EB5 GT PUSH2 0x89 JUMPI DUP1 PUSH4 0xC71DACCB GT PUSH2 0x58 JUMPI DUP1 PUSH4 0xC71DACCB EQ PUSH2 0x29F JUMPI DUP1 PUSH4 0xD4B83992 EQ PUSH2 0x2C9 JUMPI DUP1 PUSH4 0xD7BB99BA EQ PUSH2 0x2F3 JUMPI DUP1 PUSH4 0xEAAC9E5D EQ PUSH2 0x2FD JUMPI PUSH2 0xE7 JUMP JUMPDEST DUP1 PUSH4 0x8AA52EB5 EQ PUSH2 0x1F9 JUMPI DUP1 PUSH4 0x937E09B1 EQ PUSH2 0x223 JUMPI DUP1 PUSH4 0xC34F712A EQ PUSH2 0x24D JUMPI DUP1 PUSH4 0xC59EE1DC EQ PUSH2 0x275 JUMPI PUSH2 0xE7 JUMP JUMPDEST DUP1 PUSH4 0x481C6A75 GT PUSH2 0xC5 JUMPI DUP1 PUSH4 0x481C6A75 EQ PUSH2 0x17B JUMPI DUP1 PUSH4 0x5114CB52 EQ PUSH2 0x1A5 JUMPI DUP1 PUSH4 0x590E1AE3 EQ PUSH2 0x1CD JUMPI DUP1 PUSH4 0x6A8961D8 EQ PUSH2 0x1E3 JUMPI PUSH2 0xE7 JUMP JUMPDEST DUP1 PUSH4 0x1F6D4942 EQ PUSH2 0xEB JUMPI DUP1 PUSH4 0x29DCB0CF EQ PUSH2 0x127 JUMPI DUP1 PUSH4 0x4377CF65 EQ PUSH2 0x151 JUMPI JUMPDEST PUSH0 DUP1 REVERT JUMPDEST CALLVALUE DUP1 ISZERO PUSH2 0xF6 JUMPI PUSH0 DUP1 REVERT JUMPDEST POP PUSH2 0x111 PUSH1 0x4 DUP1 CALLDATASIZE SUB DUP2 ADD SWAP1 PUSH2 0x10C SWAP2 SWAP1 PUSH2 0xBEB JUMP JUMPDEST PUSH2 0x33D JUMP JUMPDEST PUSH1 0x40 MLOAD PUSH2 0x11E SWAP2 SWAP1 PUSH2 0xC2E JUMP JUMPDEST PUSH1 0x40 MLOAD DUP1 SWAP2 SUB SWAP1 RETURN JUMPDEST CALLVALUE DUP1 ISZERO PUSH2 0x132 JUMPI PUSH0 DUP1 REVERT JUMPDEST POP PUSH2 0x13B PUSH2 0x351 JUMP JUMPDEST PUSH1 0x40 MLOAD PUSH2 0x148 SWAP2 SWAP1 PUSH2 0xC2E JUMP JUMPDEST PUSH1 0x40 MLOAD DUP1 SWAP2 SUB SWAP1 RETURN JUMPDEST CALLVALUE DUP1 ISZERO PUSH2 0x15C JUMPI PUSH0 DUP1 REVERT JUMPDEST POP PUSH2 0x165 PUSH2 0x357 JUMP JUMPDEST PUSH1 0x40 MLOAD PUSH2 0x172 SWAP2 SWAP1 PUSH2 0xC2E JUMP JUMPDEST PUSH1 0x40 MLOAD DUP1 SWAP2 SUB SWAP1 RETURN JUMPDEST CALLVALUE DUP1 ISZERO PUSH2 0x186 JUMPI PUSH0 DUP1 REVERT JUMPDEST POP PUSH2 0x18F PUSH2 0x35D JUMP JUMPDEST PUSH1 0x40 MLOAD PUSH2 0x19C SWAP2 SWAP1 PUSH2 0xC56 JUMP JUMPDEST PUSH1 0x40 MLOAD DUP1 SWAP2 SUB SWAP1 RETURN JUMPDEST CALLVALUE DUP1 ISZERO PUSH2 0x1B0 JUMPI PUSH0 DUP1 REVERT JUMPDEST POP PUSH2 0x1CB PUSH1 0x4 DUP1 CALLDATASIZE SUB DUP2 ADD SWAP1 PUSH2 0x1C6 SWAP2 SWAP1 PUSH2 0xC99 JUMP JUMPDEST PUSH2 0x382 JUMP JUMPDEST STOP JUMPDEST CALLVALUE DUP1 ISZERO PUSH2 0x1D8 JUMPI PUSH0 DUP1 REVERT JUMPDEST POP PUSH2 0x1E1 PUSH2 0x513 JUMP JUMPDEST STOP JUMPDEST CALLVALUE DUP1 ISZERO PUSH2 0x1EE JUMPI PUSH0 DUP1 REVERT JUMPDEST POP PUSH2 0x1F7 PUSH2 0x6A7 JUMP JUMPDEST STOP JUMPDEST CALLVALUE DUP1 ISZERO PUSH2 0x204 JUMPI PUSH0 DUP1 REVERT JUMPDEST POP PUSH2 0x20D PUSH2 0x83F JUMP JUMPDEST PUSH1 0x40 MLOAD PUSH2 0x21A SWAP2 SWAP1 PUSH2 0xC2E JUMP JUMPDEST PUSH1 0x40 MLOAD DUP1 SWAP2 SUB SWAP1 RETURN JUMPDEST CALLVALUE DUP1 ISZERO PUSH2 0x22E JUMPI PUSH0 DUP1 REVERT JUMPDEST POP PUSH2 0x237 PUSH2 0x845 JUMP JUMPDEST PUSH1 0x40 MLOAD PUSH2 0x244 SWAP2 SWAP1 PUSH2 0xC2E JUMP JUMPDEST PUSH1 0x40 MLOAD DUP1 SWAP2 SUB SWAP1 RETURN JUMPDEST CALLVALUE DUP1 ISZERO PUSH2 0x258 JUMPI PUSH0 DUP1 REVERT JUMPDEST POP PUSH2 0x273 PUSH1 0x4 DUP1 CALLDATASIZE SUB DUP2 ADD SWAP1 PUSH2 0x26E SWAP2 SWAP1 PUSH2 0xE3B JUMP JUMPDEST PUSH2 0x84B JUMP JUMPDEST STOP JUMPDEST CALLVALUE DUP1 ISZERO PUSH2 0x280 JUMPI PUSH0 DUP1 REVERT JUMPDEST POP PUSH2 0x289 PUSH2 0x939 JUMP JUMPDEST PUSH1 0x40 MLOAD PUSH2 0x296 SWAP2 SWAP1 PUSH2 0xC2E JUMP JUMPDEST PUSH1 0x40 MLOAD DUP1 SWAP2 SUB SWAP1 RETURN JUMPDEST CALLVALUE DUP1 ISZERO PUSH2 0x2AA JUMPI PUSH0 DUP1 REVERT JUMPDEST POP PUSH2 0x2B3 PUSH2 0x93F JUMP JUMPDEST PUSH1 0x40 MLOAD PUSH2 0x2C0 SWAP2 SWAP1 PUSH2 0xC2E JUMP JUMPDEST PUSH1 0x40 MLOAD DUP1 SWAP2 SUB SWAP1 RETURN JUMPDEST CALLVALUE DUP1 ISZERO PUSH2 0x2D4 JUMPI PUSH0 DUP1 REVERT JUMPDEST POP PUSH2 0x2DD PUSH2 0x946 JUMP JUMPDEST PUSH1 0x40 MLOAD PUSH2 0x2EA SWAP2 SWAP1 PUSH2 0xC2E JUMP JUMPDEST PUSH1 0x40 MLOAD DUP1 SWAP2 SUB SWAP1 RETURN JUMPDEST PUSH2 0x2FB PUSH2 0x94C JUMP JUMPDEST STOP JUMPDEST CALLVALUE DUP1 ISZERO PUSH2 0x308 JUMPI PUSH0 DUP1 REVERT JUMPDEST POP PUSH2 0x323 PUSH1 0x4 DUP1 CALLDATASIZE SUB DUP2 ADD SWAP1 PUSH2 0x31E SWAP2 SWAP1 PUSH2 0xC99 JUMP JUMPDEST PUSH2 0xA9D JUMP JUMPDEST PUSH1 0x40 MLOAD PUSH2 0x334 SWAP6 SWAP5 SWAP4 SWAP3 SWAP2 SWAP1 PUSH2 0xF30 JUMP JUMPDEST PUSH1 0x40 MLOAD DUP1 SWAP2 SUB SWAP1 RETURN JUMPDEST PUSH0 PUSH1 0x20 MSTORE DUP1 PUSH0 MSTORE PUSH1 0x40 PUSH0 KECCAK256 PUSH0 SWAP2 POP SWAP1 POP SLOAD DUP2 JUMP JUMPDEST PUSH1 0x3 SLOAD DUP2 JUMP JUMPDEST PUSH1 0x7 SLOAD DUP2 JUMP JUMPDEST PUSH1 0x2 PUSH0 SWAP1 SLOAD SWAP1 PUSH2 0x100 EXP SWAP1 DIV PUSH20 0xFFFFFFFFFFFFFFFFFFFFFFFFFFFFFFFFFFFFFFFF AND DUP2 JUMP JUMPDEST PUSH1 0x4 SLOAD PUSH1 0x6 SLOAD LT ISZERO PUSH2 0x3C9 JUMPI PUSH1 0x40 MLOAD PUSH32 0x8C379A000000000000000000000000000000000000000000000000000000000 DUP2 MSTORE PUSH1 0x4 ADD PUSH2 0x3C0 SWAP1 PUSH2 0xFD2 JUMP JUMPDEST PUSH1 0x40 MLOAD DUP1 SWAP2 SUB SWAP1 REVERT JUMPDEST PUSH0 PUSH1 0x1 PUSH0 DUP4 DUP2 MSTORE PUSH1 0x20 ADD SWAP1 DUP2 MSTORE PUSH1 0x20 ADD PUSH0 KECCAK256 SWAP1 POP PUSH0 ISZERO ISZERO DUP2 PUSH1 0x3 ADD PUSH0 SWAP1 SLOAD SWAP1 PUSH2 0x100 EXP SWAP1 DIV PUSH1 0xFF AND ISZERO ISZERO EQ PUSH2 0x433 JUMPI PUSH1 0x40 MLOAD PUSH32 0x8C379A000000000000000000000000000000000000000000000000000000000 DUP2 MSTORE PUSH1 0x4 ADD PUSH2 0x42A SWAP1 PUSH2 0x1060 JUMP JUMPDEST PUSH1 0x40 MLOAD DUP1 SWAP2 SUB SWAP1 REVERT JUMPDEST PUSH1 0x2 PUSH1 0x7 SLOAD PUSH2 0x442 SWAP2 SWAP1 PUSH2 0x10D8 JUMP JUMPDEST DUP2 PUSH1 0x5 ADD SLOAD LT ISZERO PUSH2 0x488 JUMPI PUSH1 0x40 MLOAD PUSH32 0x8C379A000000000000000000000000000000000000000000000000000000000 DUP2 MSTORE PUSH1 0x4 ADD PUSH2 0x47F SWAP1 PUSH2 0x1178 JUMP JUMPDEST PUSH1 0x40 MLOAD DUP1 SWAP2 SUB SWAP1 REVERT JUMPDEST DUP1 PUSH1 0x1 ADD PUSH0 SWAP1 SLOAD SWAP1 PUSH2 0x100 EXP SWAP1 DIV PUSH20 0xFFFFFFFFFFFFFFFFFFFFFFFFFFFFFFFFFFFFFFFF AND PUSH20 0xFFFFFFFFFFFFFFFFFFFFFFFFFFFFFFFFFFFFFFFF AND PUSH2 0x8FC DUP3 PUSH1 0x2 ADD SLOAD SWAP1 DUP2 ISZERO MUL SWAP1 PUSH1 0x40 MLOAD PUSH0 PUSH1 0x40 MLOAD DUP1 DUP4 SUB DUP2 DUP6 DUP9 DUP9 CALL SWAP4 POP POP POP POP ISZERO DUP1 ISZERO PUSH2 0x4F2 JUMPI RETURNDATASIZE PUSH0 DUP1 RETURNDATACOPY RETURNDATASIZE PUSH0 REVERT JUMPDEST POP PUSH1 0x1 DUP2 PUSH1 0x3 ADD PUSH0 PUSH2 0x100 EXP DUP2 SLOAD DUP2 PUSH1 0xFF MUL NOT AND SWAP1 DUP4 ISZERO ISZERO MUL OR SWAP1 SSTORE POP POP POP JUMP JUMPDEST PUSH0 DUP1 PUSH0 CALLER PUSH20 0xFFFFFFFFFFFFFFFFFFFFFFFFFFFFFFFFFFFFFFFF AND PUSH20 0xFFFFFFFFFFFFFFFFFFFFFFFFFFFFFFFFFFFFFFFF AND DUP2 MSTORE PUSH1 0x20 ADD SWAP1 DUP2 MSTORE PUSH1 0x20 ADD PUSH0 KECCAK256 SLOAD GT PUSH2 0x591 JUMPI PUSH1 0x40 MLOAD PUSH32 0x8C379A000000000000000000000000000000000000000000000000000000000 DUP2 MSTORE PUSH1 0x4 ADD PUSH2 0x588 SWAP1 PUSH2 0x11E0 JUMP JUMPDEST PUSH1 0x40 MLOAD DUP1 SWAP2 SUB SWAP1 REVERT JUMPDEST PUSH1 0x3 SLOAD TIMESTAMP GT DUP1 ISZERO PUSH2 0x5A5 JUMPI POP PUSH1 0x4 SLOAD PUSH1 0x6 SLOAD LT JUMPDEST PUSH2 0x5E4 JUMPI PUSH1 0x40 MLOAD PUSH32 0x8C379A000000000000000000000000000000000000000000000000000000000 DUP2 MSTORE PUSH1 0x4 ADD PUSH2 0x5DB SWAP1 PUSH2 0x126E JUMP JUMPDEST PUSH1 0x40 MLOAD DUP1 SWAP2 SUB SWAP1 REVERT JUMPDEST CALLER PUSH20 0xFFFFFFFFFFFFFFFFFFFFFFFFFFFFFFFFFFFFFFFF AND PUSH2 0x8FC PUSH0 DUP1 CALLER PUSH20 0xFFFFFFFFFFFFFFFFFFFFFFFFFFFFFFFFFFFFFFFF AND PUSH20 0xFFFFFFFFFFFFFFFFFFFFFFFFFFFFFFFFFFFFFFFF AND DUP2 MSTORE PUSH1 0x20 ADD SWAP1 DUP2 MSTORE PUSH1 0x20 ADD PUSH0 KECCAK256 SLOAD SWAP1 DUP2 ISZERO MUL SWAP1 PUSH1 0x40 MLOAD PUSH0 PUSH1 0x40 MLOAD DUP1 DUP4 SUB DUP2 DUP6 DUP9 DUP9 CALL SWAP4 POP POP POP POP ISZERO DUP1 ISZERO PUSH2 0x663 JUMPI RETURNDATASIZE PUSH0 DUP1 RETURNDATACOPY RETURNDATASIZE PUSH0 REVERT JUMPDEST POP PUSH0 DUP1 PUSH0 CALLER PUSH20 0xFFFFFFFFFFFFFFFFFFFFFFFFFFFFFFFFFFFFFFFF AND PUSH20 0xFFFFFFFFFFFFFFFFFFFFFFFFFFFFFFFFFFFFFFFF AND DUP2 MSTORE PUSH1 0x20 ADD SWAP1 DUP2 MSTORE PUSH1 0x20 ADD PUSH0 KECCAK256 DUP2 SWAP1 SSTORE POP JUMP JUMPDEST PUSH0 DUP1 PUSH0 CALLER PUSH20 0xFFFFFFFFFFFFFFFFFFFFFFFFFFFFFFFFFFFFFFFF AND PUSH20 0xFFFFFFFFFFFFFFFFFFFFFFFFFFFFFFFFFFFFFFFF AND DUP2 MSTORE PUSH1 0x20 ADD SWAP1 DUP2 MSTORE PUSH1 0x20 ADD PUSH0 KECCAK256 SLOAD GT PUSH2 0x725 JUMPI PUSH1 0x40 MLOAD PUSH32 0x8C379A000000000000000000000000000000000000000000000000000000000 DUP2 MSTORE PUSH1 0x4 ADD PUSH2 0x71C SWAP1 PUSH2 0x11E0 JUMP JUMPDEST PUSH1 0x40 MLOAD DUP1 SWAP2 SUB SWAP1 REVERT JUMPDEST PUSH0 PUSH1 0x1 PUSH0 PUSH1 0x8 SLOAD DUP2 MSTORE PUSH1 0x20 ADD SWAP1 DUP2 MSTORE PUSH1 0x20 ADD PUSH0 KECCAK256 SWAP1 POP PUSH0 ISZERO ISZERO DUP2 PUSH1 0x4 ADD PUSH0 CALLER PUSH20 0xFFFFFFFFFFFFFFFFFFFFFFFFFFFFFFFFFFFFFFFF AND PUSH20 0xFFFFFFFFFFFFFFFFFFFFFFFFFFFFFFFFFFFFFFFF AND DUP2 MSTORE PUSH1 0x20 ADD SWAP1 DUP2 MSTORE PUSH1 0x20 ADD PUSH0 KECCAK256 PUSH0 SWAP1 SLOAD SWAP1 PUSH2 0x100 EXP SWAP1 DIV PUSH1 0xFF AND ISZERO ISZERO EQ PUSH2 0x7CC JUMPI PUSH1 0x40 MLOAD PUSH32 0x8C379A000000000000000000000000000000000000000000000000000000000 DUP2 MSTORE PUSH1 0x4 ADD PUSH2 0x7C3 SWAP1 PUSH2 0x12D6 JUMP JUMPDEST PUSH1 0x40 MLOAD DUP1 SWAP2 SUB SWAP1 REVERT JUMPDEST PUSH1 0x1 DUP2 PUSH1 0x4 ADD PUSH0 CALLER PUSH20 0xFFFFFFFFFFFFFFFFFFFFFFFFFFFFFFFFFFFFFFFF AND PUSH20 0xFFFFFFFFFFFFFFFFFFFFFFFFFFFFFFFFFFFFFFFF AND DUP2 MSTORE PUSH1 0x20 ADD SWAP1 DUP2 MSTORE PUSH1 0x20 ADD PUSH0 KECCAK256 PUSH0 PUSH2 0x100 EXP DUP2 SLOAD DUP2 PUSH1 0xFF MUL NOT AND SWAP1 DUP4 ISZERO ISZERO MUL OR SWAP1 SSTORE POP DUP1 PUSH1 0x5 ADD PUSH0 DUP2 SLOAD DUP1 SWAP3 SWAP2 SWAP1 PUSH2 0x837 SWAP1 PUSH2 0x12F4 JUMP JUMPDEST SWAP2 SWAP1 POP SSTORE POP POP JUMP JUMPDEST PUSH1 0x8 SLOAD DUP2 JUMP JUMPDEST PUSH1 0x5 SLOAD DUP2 JUMP JUMPDEST PUSH1 0x2 PUSH0 SWAP1 SLOAD SWAP1 PUSH2 0x100 EXP SWAP1 DIV PUSH20 0xFFFFFFFFFFFFFFFFFFFFFFFFFFFFFFFFFFFFFFFF AND PUSH20 0xFFFFFFFFFFFFFFFFFFFFFFFFFFFFFFFFFFFFFFFF AND CALLER PUSH20 0xFFFFFFFFFFFFFFFFFFFFFFFFFFFFFFFFFFFFFFFF AND EQ PUSH2 0x8A3 JUMPI PUSH0 DUP1 REVERT JUMPDEST PUSH0 PUSH1 0x1 PUSH0 PUSH1 0x8 SLOAD DUP2 MSTORE PUSH1 0x20 ADD SWAP1 DUP2 MSTORE PUSH1 0x20 ADD PUSH0 KECCAK256 SWAP1 POP DUP4 DUP2 PUSH0 ADD SWAP1 DUP2 PUSH2 0x8C9 SWAP2 SWAP1 PUSH2 0x1535 JUMP JUMPDEST POP DUP3 DUP2 PUSH1 0x2 ADD DUP2 SWAP1 SSTORE POP DUP2 DUP2 PUSH1 0x1 ADD PUSH0 PUSH2 0x100 EXP DUP2 SLOAD DUP2 PUSH20 0xFFFFFFFFFFFFFFFFFFFFFFFFFFFFFFFFFFFFFFFF MUL NOT AND SWAP1 DUP4 PUSH20 0xFFFFFFFFFFFFFFFFFFFFFFFFFFFFFFFFFFFFFFFF AND MUL OR SWAP1 SSTORE POP PUSH1 0x7 PUSH0 DUP2 SLOAD DUP1 SWAP3 SWAP2 SWAP1 PUSH2 0x927 SWAP1 PUSH2 0x12F4 JUMP JUMPDEST SWAP2 SWAP1 POP SSTORE POP PUSH0 PUSH1 0x8 DUP2 SWAP1 SSTORE POP POP POP POP POP JUMP JUMPDEST PUSH1 0x6 SLOAD DUP2 JUMP JUMPDEST PUSH0 SELFBALANCE SWAP1 POP SWAP1 JUMP JUMPDEST PUSH1 0x4 SLOAD DUP2 JUMP JUMPDEST PUSH1 0x5 SLOAD CALLVALUE LT ISZERO PUSH2 0x991 JUMPI PUSH1 0x40 MLOAD PUSH32 0x8C379A000000000000000000000000000000000000000000000000000000000 DUP2 MSTORE PUSH1 0x4 ADD PUSH2 0x988 SWAP1 PUSH2 0x1674 JUMP JUMPDEST PUSH1 0x40 MLOAD DUP1 SWAP2 SUB SWAP1 REVERT JUMPDEST PUSH1 0x3 SLOAD TIMESTAMP LT ISZERO PUSH2 0x9D6 JUMPI PUSH1 0x40 MLOAD PUSH32 0x8C379A000000000000000000000000000000000000000000000000000000000 DUP2 MSTORE PUSH1 0x4 ADD PUSH2 0x9CD SWAP1 PUSH2 0x16DC JUMP JUMPDEST PUSH1 0x40 MLOAD DUP1 SWAP2 SUB SWAP1 REVERT JUMPDEST PUSH0 DUP1 PUSH0 CALLER PUSH20 0xFFFFFFFFFFFFFFFFFFFFFFFFFFFFFFFFFFFFFFFF AND PUSH20 0xFFFFFFFFFFFFFFFFFFFFFFFFFFFFFFFFFFFFFFFF AND DUP2 MSTORE PUSH1 0x20 ADD SWAP1 DUP2 MSTORE PUSH1 0x20 ADD PUSH0 KECCAK256 SLOAD SUB PUSH2 0xA31 JUMPI PUSH1 0x7 PUSH0 DUP2 SLOAD DUP1 SWAP3 SWAP2 SWAP1 PUSH2 0xA2B SWAP1 PUSH2 0x12F4 JUMP JUMPDEST SWAP2 SWAP1 POP SSTORE POP JUMPDEST CALLVALUE PUSH0 DUP1 CALLER PUSH20 0xFFFFFFFFFFFFFFFFFFFFFFFFFFFFFFFFFFFFFFFF AND PUSH20 0xFFFFFFFFFFFFFFFFFFFFFFFFFFFFFFFFFFFFFFFF AND DUP2 MSTORE PUSH1 0x20 ADD SWAP1 DUP2 MSTORE PUSH1 0x20 ADD PUSH0 KECCAK256 PUSH0 DUP3 DUP3 SLOAD PUSH2 0xA7C SWAP2 SWAP1 PUSH2 0x16FA JUMP JUMPDEST SWAP3 POP POP DUP2 SWAP1 SSTORE POP CALLVALUE PUSH1 0x6 PUSH0 DUP3 DUP3 SLOAD PUSH2 0xA94 SWAP2 SWAP1 PUSH2 0x16FA JUMP JUMPDEST SWAP3 POP POP DUP2 SWAP1 SSTORE POP JUMP JUMPDEST PUSH1 0x1 PUSH1 0x20 MSTORE DUP1 PUSH0 MSTORE PUSH1 0x40 PUSH0 KECCAK256 PUSH0 SWAP2 POP SWAP1 POP DUP1 PUSH0 ADD DUP1 SLOAD PUSH2 0xABC SWAP1 PUSH2 0x1368 JUMP JUMPDEST DUP1 PUSH1 0x1F ADD PUSH1 0x20 DUP1 SWAP2 DIV MUL PUSH1 0x20 ADD PUSH1 0x40 MLOAD SWAP1 DUP2 ADD PUSH1 0x40 MSTORE DUP1 SWAP3 SWAP2 SWAP1 DUP2 DUP2 MSTORE PUSH1 0x20 ADD DUP3 DUP1 SLOAD PUSH2 0xAE8 SWAP1 PUSH2 0x1368 JUMP JUMPDEST DUP1 ISZERO PUSH2 0xB33 JUMPI DUP1 PUSH1 0x1F LT PUSH2 0xB0A JUMPI PUSH2 0x100 DUP1 DUP4 SLOAD DIV MUL DUP4 MSTORE SWAP2 PUSH1 0x20 ADD SWAP2 PUSH2 0xB33 JUMP JUMPDEST DUP3 ADD SWAP2 SWAP1 PUSH0 MSTORE PUSH1 0x20 PUSH0 KECCAK256 SWAP1 JUMPDEST DUP2 SLOAD DUP2 MSTORE SWAP1 PUSH1 0x1 ADD SWAP1 PUSH1 0x20 ADD DUP1 DUP4 GT PUSH2 0xB16 JUMPI DUP3 SWAP1 SUB PUSH1 0x1F AND DUP3 ADD SWAP2 JUMPDEST POP POP POP POP POP SWAP1 DUP1 PUSH1 0x1 ADD PUSH0 SWAP1 SLOAD SWAP1 PUSH2 0x100 EXP SWAP1 DIV PUSH20 0xFFFFFFFFFFFFFFFFFFFFFFFFFFFFFFFFFFFFFFFF AND SWAP1 DUP1 PUSH1 0x2 ADD SLOAD SWAP1 DUP1 PUSH1 0x3 ADD PUSH0 SWAP1 SLOAD SWAP1 PUSH2 0x100 EXP SWAP1 DIV PUSH1 0xFF AND SWAP1 DUP1 PUSH1 0x5 ADD SLOAD SWAP1 POP DUP6 JUMP JUMPDEST PUSH0 PUSH1 0x40 MLOAD SWAP1 POP SWAP1 JUMP JUMPDEST PUSH0 DUP1 REVERT JUMPDEST PUSH0 DUP1 REVERT JUMPDEST PUSH0 PUSH20 0xFFFFFFFFFFFFFFFFFFFFFFFFFFFFFFFFFFFFFFFF DUP3 AND SWAP1 POP SWAP2 SWAP1 POP JUMP JUMPDEST PUSH0 PUSH2 0xBBA DUP3 PUSH2 0xB91 JUMP JUMPDEST SWAP1 POP SWAP2 SWAP1 POP JUMP JUMPDEST PUSH2 0xBCA DUP2 PUSH2 0xBB0 JUMP JUMPDEST DUP2 EQ PUSH2 0xBD4 JUMPI PUSH0 DUP1 REVERT JUMPDEST POP JUMP JUMPDEST PUSH0 DUP2 CALLDATALOAD SWAP1 POP PUSH2 0xBE5 DUP2 PUSH2 0xBC1 JUMP JUMPDEST SWAP3 SWAP2 POP POP JUMP JUMPDEST PUSH0 PUSH1 0x20 DUP3 DUP5 SUB SLT ISZERO PUSH2 0xC00 JUMPI PUSH2 0xBFF PUSH2 0xB89 JUMP JUMPDEST JUMPDEST PUSH0 PUSH2 0xC0D DUP5 DUP3 DUP6 ADD PUSH2 0xBD7 JUMP JUMPDEST SWAP2 POP POP SWAP3 SWAP2 POP POP JUMP JUMPDEST PUSH0 DUP2 SWAP1 POP SWAP2 SWAP1 POP JUMP JUMPDEST PUSH2 0xC28 DUP2 PUSH2 0xC16 JUMP JUMPDEST DUP3 MSTORE POP POP JUMP JUMPDEST PUSH0 PUSH1 0x20 DUP3 ADD SWAP1 POP PUSH2 0xC41 PUSH0 DUP4 ADD DUP5 PUSH2 0xC1F JUMP JUMPDEST SWAP3 SWAP2 POP POP JUMP JUMPDEST PUSH2 0xC50 DUP2 PUSH2 0xBB0 JUMP JUMPDEST DUP3 MSTORE POP POP JUMP JUMPDEST PUSH0 PUSH1 0x20 DUP3 ADD SWAP1 POP PUSH2 0xC69 PUSH0 DUP4 ADD DUP5 PUSH2 0xC47 JUMP JUMPDEST SWAP3 SWAP2 POP POP JUMP JUMPDEST PUSH2 0xC78 DUP2 PUSH2 0xC16 JUMP JUMPDEST DUP2 EQ PUSH2 0xC82 JUMPI PUSH0 DUP1 REVERT JUMPDEST POP JUMP JUMPDEST PUSH0 DUP2 CALLDATALOAD SWAP1 POP PUSH2 0xC93 DUP2 PUSH2 0xC6F JUMP JUMPDEST SWAP3 SWAP2 POP POP JUMP JUMPDEST PUSH0 PUSH1 0x20 DUP3 DUP5 SUB SLT ISZERO PUSH2 0xCAE JUMPI PUSH2 0xCAD PUSH2 0xB89 JUMP JUMPDEST JUMPDEST PUSH0 PUSH2 0xCBB DUP5 DUP3 DUP6 ADD PUSH2 0xC85 JUMP JUMPDEST SWAP2 POP POP SWAP3 SWAP2 POP POP JUMP JUMPDEST PUSH0 DUP1 REVERT JUMPDEST PUSH0 DUP1 REVERT JUMPDEST PUSH0 PUSH1 0x1F NOT PUSH1 0x1F DUP4 ADD AND SWAP1 POP SWAP2 SWAP1 POP JUMP JUMPDEST PUSH32 0x4E487B7100000000000000000000000000000000000000000000000000000000 PUSH0 MSTORE PUSH1 0x41 PUSH1 0x4 MSTORE PUSH1 0x24 PUSH0 REVERT JUMPDEST PUSH2 0xD12 DUP3 PUSH2 0xCCC JUMP JUMPDEST DUP2 ADD DUP2 DUP2 LT PUSH8 0xFFFFFFFFFFFFFFFF DUP3 GT OR ISZERO PUSH2 0xD31 JUMPI PUSH2 0xD30 PUSH2 0xCDC JUMP JUMPDEST JUMPDEST DUP1 PUSH1 0x40 MSTORE POP POP POP JUMP JUMPDEST PUSH0 PUSH2 0xD43 PUSH2 0xB80 JUMP JUMPDEST SWAP1 POP PUSH2 0xD4F DUP3 DUP3 PUSH2 0xD09 JUMP JUMPDEST SWAP2 SWAP1 POP JUMP JUMPDEST PUSH0 PUSH8 0xFFFFFFFFFFFFFFFF DUP3 GT ISZERO PUSH2 0xD6E JUMPI PUSH2 0xD6D PUSH2 0xCDC JUMP JUMPDEST JUMPDEST PUSH2 0xD77 DUP3 PUSH2 0xCCC JUMP JUMPDEST SWAP1 POP PUSH1 0x20 DUP2 ADD SWAP1 POP SWAP2 SWAP1 POP JUMP JUMPDEST DUP3 DUP2 DUP4 CALLDATACOPY PUSH0 DUP4 DUP4 ADD MSTORE POP POP POP JUMP JUMPDEST PUSH0 PUSH2 0xDA4 PUSH2 0xD9F DUP5 PUSH2 0xD54 JUMP JUMPDEST PUSH2 0xD3A JUMP JUMPDEST SWAP1 POP DUP3 DUP2 MSTORE PUSH1 0x20 DUP2 ADD DUP5 DUP5 DUP5 ADD GT ISZERO PUSH2 0xDC0 JUMPI PUSH2 0xDBF PUSH2 0xCC8 JUMP JUMPDEST JUMPDEST PUSH2 0xDCB DUP5 DUP3 DUP6 PUSH2 0xD84 JUMP JUMPDEST POP SWAP4 SWAP3 POP POP POP JUMP JUMPDEST PUSH0 DUP3 PUSH1 0x1F DUP4 ADD SLT PUSH2 0xDE7 JUMPI PUSH2 0xDE6 PUSH2 0xCC4 JUMP JUMPDEST JUMPDEST DUP2 CALLDATALOAD PUSH2 0xDF7 DUP5 DUP3 PUSH1 0x20 DUP7 ADD PUSH2 0xD92 JUMP JUMPDEST SWAP2 POP POP SWAP3 SWAP2 POP POP JUMP JUMPDEST PUSH0 PUSH2 0xE0A DUP3 PUSH2 0xB91 JUMP JUMPDEST SWAP1 POP SWAP2 SWAP1 POP JUMP JUMPDEST PUSH2 0xE1A DUP2 PUSH2 0xE00 JUMP JUMPDEST DUP2 EQ PUSH2 0xE24 JUMPI PUSH0 DUP1 REVERT JUMPDEST POP JUMP JUMPDEST PUSH0 DUP2 CALLDATALOAD SWAP1 POP PUSH2 0xE35 DUP2 PUSH2 0xE11 JUMP JUMPDEST SWAP3 SWAP2 POP POP JUMP JUMPDEST PUSH0 DUP1 PUSH0 PUSH1 0x60 DUP5 DUP7 SUB SLT ISZERO PUSH2 0xE52 JUMPI PUSH2 0xE51 PUSH2 0xB89 JUMP JUMPDEST JUMPDEST PUSH0 DUP5 ADD CALLDATALOAD PUSH8 0xFFFFFFFFFFFFFFFF DUP2 GT ISZERO PUSH2 0xE6F JUMPI PUSH2 0xE6E PUSH2 0xB8D JUMP JUMPDEST JUMPDEST PUSH2 0xE7B DUP7 DUP3 DUP8 ADD PUSH2 0xDD3 JUMP JUMPDEST SWAP4 POP POP PUSH1 0x20 PUSH2 0xE8C DUP7 DUP3 DUP8 ADD PUSH2 0xC85 JUMP JUMPDEST SWAP3 POP POP PUSH1 0x40 PUSH2 0xE9D DUP7 DUP3 DUP8 ADD PUSH2 0xE27 JUMP JUMPDEST SWAP2 POP POP SWAP3 POP SWAP3 POP SWAP3 JUMP JUMPDEST PUSH0 DUP2 MLOAD SWAP1 POP SWAP2 SWAP1 POP JUMP JUMPDEST PUSH0 DUP3 DUP3 MSTORE PUSH1 0x20 DUP3 ADD SWAP1 POP SWAP3 SWAP2 POP POP JUMP JUMPDEST DUP3 DUP2 DUP4 MCOPY PUSH0 DUP4 DUP4 ADD MSTORE POP POP POP JUMP JUMPDEST PUSH0 PUSH2 0xED9 DUP3 PUSH2 0xEA7 JUMP JUMPDEST PUSH2 0xEE3 DUP2 DUP6 PUSH2 0xEB1 JUMP JUMPDEST SWAP4 POP PUSH2 0xEF3 DUP2 DUP6 PUSH1 0x20 DUP7 ADD PUSH2 0xEC1 JUMP JUMPDEST PUSH2 0xEFC DUP2 PUSH2 0xCCC JUMP JUMPDEST DUP5 ADD SWAP2 POP POP SWAP3 SWAP2 POP POP JUMP JUMPDEST PUSH2 0xF10 DUP2 PUSH2 0xE00 JUMP JUMPDEST DUP3 MSTORE POP POP JUMP JUMPDEST PUSH0 DUP2 ISZERO ISZERO SWAP1 POP SWAP2 SWAP1 POP JUMP JUMPDEST PUSH2 0xF2A DUP2 PUSH2 0xF16 JUMP JUMPDEST DUP3 MSTORE POP POP JUMP JUMPDEST PUSH0 PUSH1 0xA0 DUP3 ADD SWAP1 POP DUP2 DUP2 SUB PUSH0 DUP4 ADD MSTORE PUSH2 0xF48 DUP2 DUP9 PUSH2 0xECF JUMP JUMPDEST SWAP1 POP PUSH2 0xF57 PUSH1 0x20 DUP4 ADD DUP8 PUSH2 0xF07 JUMP JUMPDEST PUSH2 0xF64 PUSH1 0x40 DUP4 ADD DUP7 PUSH2 0xC1F JUMP JUMPDEST PUSH2 0xF71 PUSH1 0x60 DUP4 ADD DUP6 PUSH2 0xF21 JUMP JUMPDEST PUSH2 0xF7E PUSH1 0x80 DUP4 ADD DUP5 PUSH2 0xC1F JUMP JUMPDEST SWAP7 SWAP6 POP POP POP POP POP POP JUMP JUMPDEST PUSH32 0x54617267657420616D6F756E74206973206E6F74207265616368656420796574 PUSH0 DUP3 ADD MSTORE POP JUMP JUMPDEST PUSH0 PUSH2 0xFBC PUSH1 0x20 DUP4 PUSH2 0xEB1 JUMP JUMPDEST SWAP2 POP PUSH2 0xFC7 DUP3 PUSH2 0xF88 JUMP JUMPDEST PUSH1 0x20 DUP3 ADD SWAP1 POP SWAP2 SWAP1 POP JUMP JUMPDEST PUSH0 PUSH1 0x20 DUP3 ADD SWAP1 POP DUP2 DUP2 SUB PUSH0 DUP4 ADD MSTORE PUSH2 0xFE9 DUP2 PUSH2 0xFB0 JUMP JUMPDEST SWAP1 POP SWAP2 SWAP1 POP JUMP JUMPDEST PUSH32 0x546869732066756E64696E672068617320616C7265616479206265656E20636F PUSH0 DUP3 ADD MSTORE PUSH32 0x6D706C6574656400000000000000000000000000000000000000000000000000 PUSH1 0x20 DUP3 ADD MSTORE POP JUMP JUMPDEST PUSH0 PUSH2 0x104A PUSH1 0x27 DUP4 PUSH2 0xEB1 JUMP JUMPDEST SWAP2 POP PUSH2 0x1055 DUP3 PUSH2 0xFF0 JUMP JUMPDEST PUSH1 0x40 DUP3 ADD SWAP1 POP SWAP2 SWAP1 POP JUMP JUMPDEST PUSH0 PUSH1 0x20 DUP3 ADD SWAP1 POP DUP2 DUP2 SUB PUSH0 DUP4 ADD MSTORE PUSH2 0x1077 DUP2 PUSH2 0x103E JUMP JUMPDEST SWAP1 POP SWAP2 SWAP1 POP JUMP JUMPDEST PUSH32 0x4E487B7100000000000000000000000000000000000000000000000000000000 PUSH0 MSTORE PUSH1 0x12 PUSH1 0x4 MSTORE PUSH1 0x24 PUSH0 REVERT JUMPDEST PUSH32 0x4E487B7100000000000000000000000000000000000000000000000000000000 PUSH0 MSTORE PUSH1 0x11 PUSH1 0x4 MSTORE PUSH1 0x24 PUSH0 REVERT JUMPDEST PUSH0 PUSH2 0x10E2 DUP3 PUSH2 0xC16 JUMP JUMPDEST SWAP2 POP PUSH2 0x10ED DUP4 PUSH2 0xC16 JUMP JUMPDEST SWAP3 POP DUP3 PUSH2 0x10FD JUMPI PUSH2 0x10FC PUSH2 0x107E JUMP JUMPDEST JUMPDEST DUP3 DUP3 DIV SWAP1 POP SWAP3 SWAP2 POP POP JUMP JUMPDEST PUSH32 0x4E6F7420656E6F75676820766F74657320746F206D616B652061207061796D65 PUSH0 DUP3 ADD MSTORE PUSH32 0x6E74000000000000000000000000000000000000000000000000000000000000 PUSH1 0x20 DUP3 ADD MSTORE POP JUMP JUMPDEST PUSH0 PUSH2 0x1162 PUSH1 0x22 DUP4 PUSH2 0xEB1 JUMP JUMPDEST SWAP2 POP PUSH2 0x116D DUP3 PUSH2 0x1108 JUMP JUMPDEST PUSH1 0x40 DUP3 ADD SWAP1 POP SWAP2 SWAP1 POP JUMP JUMPDEST PUSH0 PUSH1 0x20 DUP3 ADD SWAP1 POP DUP2 DUP2 SUB PUSH0 DUP4 ADD MSTORE PUSH2 0x118F DUP2 PUSH2 0x1156 JUMP JUMPDEST SWAP1 POP SWAP2 SWAP1 POP JUMP JUMPDEST PUSH32 0x596F7520617265206E6F74206120636F6E7472696275746F7273000000000000 PUSH0 DUP3 ADD MSTORE POP JUMP JUMPDEST PUSH0 PUSH2 0x11CA PUSH1 0x1A DUP4 PUSH2 0xEB1 JUMP JUMPDEST SWAP2 POP PUSH2 0x11D5 DUP3 PUSH2 0x1196 JUMP JUMPDEST PUSH1 0x20 DUP3 ADD SWAP1 POP SWAP2 SWAP1 POP JUMP JUMPDEST PUSH0 PUSH1 0x20 DUP3 ADD SWAP1 POP DUP2 DUP2 SUB PUSH0 DUP4 ADD MSTORE PUSH2 0x11F7 DUP2 PUSH2 0x11BE JUMP JUMPDEST SWAP1 POP SWAP2 SWAP1 POP JUMP JUMPDEST PUSH32 0x446561646C696E6520686173206265656E207265616368656420616E64207461 PUSH0 DUP3 ADD MSTORE PUSH32 0x7267657420616D6F756E74206973206E6F742072656163686564207965740000 PUSH1 0x20 DUP3 ADD MSTORE POP JUMP JUMPDEST PUSH0 PUSH2 0x1258 PUSH1 0x3E DUP4 PUSH2 0xEB1 JUMP JUMPDEST SWAP2 POP PUSH2 0x1263 DUP3 PUSH2 0x11FE JUMP JUMPDEST PUSH1 0x40 DUP3 ADD SWAP1 POP SWAP2 SWAP1 POP JUMP JUMPDEST PUSH0 PUSH1 0x20 DUP3 ADD SWAP1 POP DUP2 DUP2 SUB PUSH0 DUP4 ADD MSTORE PUSH2 0x1285 DUP2 PUSH2 0x124C JUMP JUMPDEST SWAP1 POP SWAP2 SWAP1 POP JUMP JUMPDEST PUSH32 0x596F75206861766520616C726561647920766F74656400000000000000000000 PUSH0 DUP3 ADD MSTORE POP JUMP JUMPDEST PUSH0 PUSH2 0x12C0 PUSH1 0x16 DUP4 PUSH2 0xEB1 JUMP JUMPDEST SWAP2 POP PUSH2 0x12CB DUP3 PUSH2 0x128C JUMP JUMPDEST PUSH1 0x20 DUP3 ADD SWAP1 POP SWAP2 SWAP1 POP JUMP JUMPDEST PUSH0 PUSH1 0x20 DUP3 ADD SWAP1 POP DUP2 DUP2 SUB PUSH0 DUP4 ADD MSTORE PUSH2 0x12ED DUP2 PUSH2 0x12B4 JUMP JUMPDEST SWAP1 POP SWAP2 SWAP1 POP JUMP JUMPDEST PUSH0 PUSH2 0x12FE DUP3 PUSH2 0xC16 JUMP JUMPDEST SWAP2 POP PUSH32 0xFFFFFFFFFFFFFFFFFFFFFFFFFFFFFFFFFFFFFFFFFFFFFFFFFFFFFFFFFFFFFFFF DUP3 SUB PUSH2 0x1330 JUMPI PUSH2 0x132F PUSH2 0x10AB JUMP JUMPDEST JUMPDEST PUSH1 0x1 DUP3 ADD SWAP1 POP SWAP2 SWAP1 POP JUMP JUMPDEST PUSH32 0x4E487B7100000000000000000000000000000000000000000000000000000000 PUSH0 MSTORE PUSH1 0x22 PUSH1 0x4 MSTORE PUSH1 0x24 PUSH0 REVERT JUMPDEST PUSH0 PUSH1 0x2 DUP3 DIV SWAP1 POP PUSH1 0x1 DUP3 AND DUP1 PUSH2 0x137F JUMPI PUSH1 0x7F DUP3 AND SWAP2 POP JUMPDEST PUSH1 0x20 DUP3 LT DUP2 SUB PUSH2 0x1392 JUMPI PUSH2 0x1391 PUSH2 0x133B JUMP JUMPDEST JUMPDEST POP SWAP2 SWAP1 POP JUMP JUMPDEST PUSH0 DUP2 SWAP1 POP DUP2 PUSH0 MSTORE PUSH1 0x20 PUSH0 KECCAK256 SWAP1 POP SWAP2 SWAP1 POP JUMP JUMPDEST PUSH0 PUSH1 0x20 PUSH1 0x1F DUP4 ADD DIV SWAP1 POP SWAP2 SWAP1 POP JUMP JUMPDEST PUSH0 DUP3 DUP3 SHL SWAP1 POP SWAP3 SWAP2 POP POP JUMP JUMPDEST PUSH0 PUSH1 0x8 DUP4 MUL PUSH2 0x13F4 PUSH32 0xFFFFFFFFFFFFFFFFFFFFFFFFFFFFFFFFFFFFFFFFFFFFFFFFFFFFFFFFFFFFFFFF DUP3 PUSH2 0x13B9 JUMP JUMPDEST PUSH2 0x13FE DUP7 DUP4 PUSH2 0x13B9 JUMP JUMPDEST SWAP6 POP DUP1 NOT DUP5 AND SWAP4 POP DUP1 DUP7 AND DUP5 OR SWAP3 POP POP POP SWAP4 SWAP3 POP POP POP JUMP JUMPDEST PUSH0 DUP2 SWAP1 POP SWAP2 SWAP1 POP JUMP JUMPDEST PUSH0 PUSH2 0x1439 PUSH2 0x1434 PUSH2 0x142F DUP5 PUSH2 0xC16 JUMP JUMPDEST PUSH2 0x1416 JUMP JUMPDEST PUSH2 0xC16 JUMP JUMPDEST SWAP1 POP SWAP2 SWAP1 POP JUMP JUMPDEST PUSH0 DUP2 SWAP1 POP SWAP2 SWAP1 POP JUMP JUMPDEST PUSH2 0x1452 DUP4 PUSH2 0x141F JUMP JUMPDEST PUSH2 0x1466 PUSH2 0x145E DUP3 PUSH2 0x1440 JUMP JUMPDEST DUP5 DUP5 SLOAD PUSH2 0x13C5 JUMP JUMPDEST DUP3 SSTORE POP POP POP POP JUMP JUMPDEST PUSH0 SWAP1 JUMP JUMPDEST PUSH2 0x147A PUSH2 0x146E JUMP JUMPDEST PUSH2 0x1485 DUP2 DUP5 DUP5 PUSH2 0x1449 JUMP JUMPDEST POP POP POP JUMP JUMPDEST JUMPDEST DUP2 DUP2 LT ISZERO PUSH2 0x14A8 JUMPI PUSH2 0x149D PUSH0 DUP3 PUSH2 0x1472 JUMP JUMPDEST PUSH1 0x1 DUP2 ADD SWAP1 POP PUSH2 0x148B JUMP JUMPDEST POP POP JUMP JUMPDEST PUSH1 0x1F DUP3 GT ISZERO PUSH2 0x14ED JUMPI PUSH2 0x14BE DUP2 PUSH2 0x1398 JUMP JUMPDEST PUSH2 0x14C7 DUP5 PUSH2 0x13AA JUMP JUMPDEST DUP2 ADD PUSH1 0x20 DUP6 LT ISZERO PUSH2 0x14D6 JUMPI DUP2 SWAP1 POP JUMPDEST PUSH2 0x14EA PUSH2 0x14E2 DUP6 PUSH2 0x13AA JUMP JUMPDEST DUP4 ADD DUP3 PUSH2 0x148A JUMP JUMPDEST POP POP JUMPDEST POP POP POP JUMP JUMPDEST PUSH0 DUP3 DUP3 SHR SWAP1 POP SWAP3 SWAP2 POP POP JUMP JUMPDEST PUSH0 PUSH2 0x150D PUSH0 NOT DUP5 PUSH1 0x8 MUL PUSH2 0x14F2 JUMP JUMPDEST NOT DUP1 DUP4 AND SWAP2 POP POP SWAP3 SWAP2 POP POP JUMP JUMPDEST PUSH0 PUSH2 0x1525 DUP4 DUP4 PUSH2 0x14FE JUMP JUMPDEST SWAP2 POP DUP3 PUSH1 0x2 MUL DUP3 OR SWAP1 POP SWAP3 SWAP2 POP POP JUMP JUMPDEST PUSH2 0x153E DUP3 PUSH2 0xEA7 JUMP JUMPDEST PUSH8 0xFFFFFFFFFFFFFFFF DUP2 GT ISZERO PUSH2 0x1557 JUMPI PUSH2 0x1556 PUSH2 0xCDC JUMP JUMPDEST JUMPDEST PUSH2 0x1561 DUP3 SLOAD PUSH2 0x1368 JUMP JUMPDEST PUSH2 0x156C DUP3 DUP3 DUP6 PUSH2 0x14AC JUMP JUMPDEST PUSH0 PUSH1 0x20 SWAP1 POP PUSH1 0x1F DUP4 GT PUSH1 0x1 DUP2 EQ PUSH2 0x159D JUMPI PUSH0 DUP5 ISZERO PUSH2 0x158B JUMPI DUP3 DUP8 ADD MLOAD SWAP1 POP JUMPDEST PUSH2 0x1595 DUP6 DUP3 PUSH2 0x151A JUMP JUMPDEST DUP7 SSTORE POP PUSH2 0x15FC JUMP JUMPDEST PUSH1 0x1F NOT DUP5 AND PUSH2 0x15AB DUP7 PUSH2 0x1398 JUMP JUMPDEST PUSH0 JUMPDEST DUP3 DUP2 LT ISZERO PUSH2 0x15D2 JUMPI DUP5 DUP10 ADD MLOAD DUP3 SSTORE PUSH1 0x1 DUP3 ADD SWAP2 POP PUSH1 0x20 DUP6 ADD SWAP5 POP PUSH1 0x20 DUP2 ADD SWAP1 POP PUSH2 0x15AD JUMP JUMPDEST DUP7 DUP4 LT ISZERO PUSH2 0x15EF JUMPI DUP5 DUP10 ADD MLOAD PUSH2 0x15EB PUSH1 0x1F DUP10 AND DUP3 PUSH2 0x14FE JUMP JUMPDEST DUP4 SSTORE POP JUMPDEST PUSH1 0x1 PUSH1 0x2 DUP9 MUL ADD DUP9 SSTORE POP POP POP JUMPDEST POP POP POP POP POP POP JUMP JUMPDEST PUSH32 0x596F752068617665206E6F74206D657420746865206D696E696D756D20636F6E PUSH0 DUP3 ADD MSTORE PUSH32 0x747269627574696F6E0000000000000000000000000000000000000000000000 PUSH1 0x20 DUP3 ADD MSTORE POP JUMP JUMPDEST PUSH0 PUSH2 0x165E PUSH1 0x29 DUP4 PUSH2 0xEB1 JUMP JUMPDEST SWAP2 POP PUSH2 0x1669 DUP3 PUSH2 0x1604 JUMP JUMPDEST PUSH1 0x40 DUP3 ADD SWAP1 POP SWAP2 SWAP1 POP JUMP JUMPDEST PUSH0 PUSH1 0x20 DUP3 ADD SWAP1 POP DUP2 DUP2 SUB PUSH0 DUP4 ADD MSTORE PUSH2 0x168B DUP2 PUSH2 0x1652 JUMP JUMPDEST SWAP1 POP SWAP2 SWAP1 POP JUMP JUMPDEST PUSH32 0x446561646C696E6520686173206265656E207265616368656400000000000000 PUSH0 DUP3 ADD MSTORE POP JUMP JUMPDEST PUSH0 PUSH2 0x16C6 PUSH1 0x19 DUP4 PUSH2 0xEB1 JUMP JUMPDEST SWAP2 POP PUSH2 0x16D1 DUP3 PUSH2 0x1692 JUMP JUMPDEST PUSH1 0x20 DUP3 ADD SWAP1 POP SWAP2 SWAP1 POP JUMP JUMPDEST PUSH0 PUSH1 0x20 DUP3 ADD SWAP1 POP DUP2 DUP2 SUB PUSH0 DUP4 ADD MSTORE PUSH2 0x16F3 DUP2 PUSH2 0x16BA JUMP JUMPDEST SWAP1 POP SWAP2 SWAP1 POP JUMP JUMPDEST PUSH0 PUSH2 0x1704 DUP3 PUSH2 0xC16 JUMP JUMPDEST SWAP2 POP PUSH2 0x170F DUP4 PUSH2 0xC16 JUMP JUMPDEST SWAP3 POP DUP3 DUP3 ADD SWAP1 POP DUP1 DUP3 GT ISZERO PUSH2 0x1727 JUMPI PUSH2 0x1726 PUSH2 0x10AB JUMP JUMPDEST JUMPDEST SWAP3 SWAP2 POP POP JUMP INVALID LOG2 PUSH5 0x6970667358 0x22 SLT KECCAK256 JUMPDEST CALLVALUE 0xD0 MLOAD 0xD8 BYTE 0xCA CALL DUP9 DUP9 LOG1 0x4B LOG2 PUSH9 0x570E3B1F4DC934BBA 0xCE DUP14 0xC7 DUP15 0xA9 PUSH28 0xFA183F64736F6C634300081A00330000000000000000000000000000 "
				},
				"gasEstimates": {
					"creation": {
						"codeDepositCost": "1197400",
						"executionCost": "infinite",
						"totalCost": "infinite"
					},
					"external": {
						"checkBalance()": "356",
						"contribute()": "infinite",
						"contributors(address)": "2825",
						"createCrowdFunding(string,uint256,address)": "infinite",
						"deadline()": "2471",
						"makeCrowdFunding(uint256)": "infinite",
						"makePayment(uint256)": "infinite",
						"manager()": "2531",
						"minimumContribution()": "2470",
						"numberOfContributors()": "2493",
						"numberOfMakeCrowdFunding()": "2448",
						"raisedAmount()": "2514",
						"refund()": "infinite",
						"target()": "2469",
						"voteCrowdFunding()": "55610"
					}
				},
				"methodIdentifiers": {
					"checkBalance()": "c71daccb",
					"contribute()": "d7bb99ba",
					"contributors(address)": "1f6d4942",
					"createCrowdFunding(string,uint256,address)": "c34f712a",
					"deadline()": "29dcb0cf",
					"makeCrowdFunding(uint256)": "eaac9e5d",
					"makePayment(uint256)": "5114cb52",
					"manager()": "481c6a75",
					"minimumContribution()": "937e09b1",
					"numberOfContributors()": "4377cf65",
					"numberOfMakeCrowdFunding()": "8aa52eb5",
					"raisedAmount()": "c59ee1dc",
					"refund()": "590e1ae3",
					"target()": "d4b83992",
					"voteCrowdFunding()": "6a8961d8"
				}
			},
			"storageLayout": {
				"storage": [
					{
						"astId": 20,
						"contract": "abc.sol:CrowdFunding",
						"label": "contributors",
						"offset": 0,
						"slot": "0",
						"type": "t_mapping(t_address,t_uint256)"
					},
					{
						"astId": 25,
						"contract": "abc.sol:CrowdFunding",
						"label": "makeCrowdFunding",
						"offset": 0,
						"slot": "1",
						"type": "t_mapping(t_uint256,t_struct(MakeCrowdFunding)16_storage)"
					},
					{
						"astId": 27,
						"contract": "abc.sol:CrowdFunding",
						"label": "manager",
						"offset": 0,
						"slot": "2",
						"type": "t_address"
					},
					{
						"astId": 29,
						"contract": "abc.sol:CrowdFunding",
						"label": "deadline",
						"offset": 0,
						"slot": "3",
						"type": "t_uint256"
					},
					{
						"astId": 31,
						"contract": "abc.sol:CrowdFunding",
						"label": "target",
						"offset": 0,
						"slot": "4",
						"type": "t_uint256"
					},
					{
						"astId": 33,
						"contract": "abc.sol:CrowdFunding",
						"label": "minimumContribution",
						"offset": 0,
						"slot": "5",
						"type": "t_uint256"
					},
					{
						"astId": 35,
						"contract": "abc.sol:CrowdFunding",
						"label": "raisedAmount",
						"offset": 0,
						"slot": "6",
						"type": "t_uint256"
					},
					{
						"astId": 37,
						"contract": "abc.sol:CrowdFunding",
						"label": "numberOfContributors",
						"offset": 0,
						"slot": "7",
						"type": "t_uint256"
					},
					{
						"astId": 39,
						"contract": "abc.sol:CrowdFunding",
						"label": "numberOfMakeCrowdFunding",
						"offset": 0,
						"slot": "8",
						"type": "t_uint256"
					}
				],
				"types": {
					"t_address": {
						"encoding": "inplace",
						"label": "address",
						"numberOfBytes": "20"
					},
					"t_address_payable": {
						"encoding": "inplace",
						"label": "address payable",
						"numberOfBytes": "20"
					},
					"t_bool": {
						"encoding": "inplace",
						"label": "bool",
						"numberOfBytes": "1"
					},
					"t_mapping(t_address,t_bool)": {
						"encoding": "mapping",
						"key": "t_address",
						"label": "mapping(address => bool)",
						"numberOfBytes": "32",
						"value": "t_bool"
					},
					"t_mapping(t_address,t_uint256)": {
						"encoding": "mapping",
						"key": "t_address",
						"label": "mapping(address => uint256)",
						"numberOfBytes": "32",
						"value": "t_uint256"
					},
					"t_mapping(t_uint256,t_struct(MakeCrowdFunding)16_storage)": {
						"encoding": "mapping",
						"key": "t_uint256",
						"label": "mapping(uint256 => struct CrowdFunding.MakeCrowdFunding)",
						"numberOfBytes": "32",
						"value": "t_struct(MakeCrowdFunding)16_storage"
					},
					"t_string_storage": {
						"encoding": "bytes",
						"label": "string",
						"numberOfBytes": "32"
					},
					"t_struct(MakeCrowdFunding)16_storage": {
						"encoding": "inplace",
						"label": "struct CrowdFunding.MakeCrowdFunding",
						"members": [
							{
								"astId": 3,
								"contract": "abc.sol:CrowdFunding",
								"label": "fundingName",
								"offset": 0,
								"slot": "0",
								"type": "t_string_storage"
							},
							{
								"astId": 5,
								"contract": "abc.sol:CrowdFunding",
								"label": "recipient",
								"offset": 0,
								"slot": "1",
								"type": "t_address_payable"
							},
							{
								"astId": 7,
								"contract": "abc.sol:CrowdFunding",
								"label": "value",
								"offset": 0,
								"slot": "2",
								"type": "t_uint256"
							},
							{
								"astId": 9,
								"contract": "abc.sol:CrowdFunding",
								"label": "completed",
								"offset": 0,
								"slot": "3",
								"type": "t_bool"
							},
							{
								"astId": 13,
								"contract": "abc.sol:CrowdFunding",
								"label": "voters",
								"offset": 0,
								"slot": "4",
								"type": "t_mapping(t_address,t_bool)"
							},
							{
								"astId": 15,
								"contract": "abc.sol:CrowdFunding",
								"label": "numberOfVoters",
								"offset": 0,
								"slot": "5",
								"type": "t_uint256"
							}
						],
						"numberOfBytes": "192"
					},
					"t_uint256": {
						"encoding": "inplace",
						"label": "uint256",
						"numberOfBytes": "32"
					}
				}
			},
			"userdoc": {
				"kind": "user",
				"methods": {},
				"version": 1
			}
		}
	}
}