{
	"Solidity Basic/Array Of Struct.sol": {
		"ArrayOfStruct": {
			"abi": [
				{
					"inputs": [
						{
							"internalType": "uint256",
							"name": "index",
							"type": "uint256"
						}
					],
					"name": "getStudent",
					"outputs": [
						{
							"components": [
								{
									"internalType": "string",
									"name": "name",
									"type": "string"
								},
								{
									"internalType": "uint256",
									"name": "age",
									"type": "uint256"
								},
								{
									"internalType": "bool",
									"name": "pass",
									"type": "bool"
								}
							],
							"internalType": "struct ArrayOfStruct.Student",
							"name": "",
							"type": "tuple"
						}
					],
					"stateMutability": "view",
					"type": "function"
				},
				{
					"inputs": [
						{
							"internalType": "uint256",
							"name": "",
							"type": "uint256"
						}
					],
					"name": "s1",
					"outputs": [
						{
							"internalType": "string",
							"name": "name",
							"type": "string"
						},
						{
							"internalType": "uint256",
							"name": "age",
							"type": "uint256"
						},
						{
							"internalType": "bool",
							"name": "pass",
							"type": "bool"
						}
					],
					"stateMutability": "view",
					"type": "function"
				},
				{
					"inputs": [
						{
							"internalType": "uint256",
							"name": "index",
							"type": "uint256"
						},
						{
							"internalType": "string",
							"name": "_name",
							"type": "string"
						},
						{
							"internalType": "uint256",
							"name": "_age",
							"type": "uint256"
						},
						{
							"internalType": "bool",
							"name": "_pass",
							"type": "bool"
						}
					],
					"name": "setStudent",
					"outputs": [],
					"stateMutability": "nonpayable",
					"type": "function"
				}
			],
			"devdoc": {
				"kind": "dev",
				"methods": {},
				"version": 1
			},
			"evm": {
				"assembly": "    /* \"Solidity Basic/Array Of Struct.sol\":59:668  contract ArrayOfStruct {... */\n  mstore(0x40, 0x80)\n  callvalue\n  dup1\n  iszero\n  tag_1\n  jumpi\n  0x00\n  dup1\n  revert\ntag_1:\n  pop\n  dataSize(sub_0)\n  dup1\n  dataOffset(sub_0)\n  0x00\n  codecopy\n  0x00\n  return\nstop\n\nsub_0: assembly {\n        /* \"Solidity Basic/Array Of Struct.sol\":59:668  contract ArrayOfStruct {... */\n      mstore(0x40, 0x80)\n      callvalue\n      dup1\n      iszero\n      tag_1\n      jumpi\n      0x00\n      dup1\n      revert\n    tag_1:\n      pop\n      jumpi(tag_2, lt(calldatasize, 0x04))\n      shr(0xe0, calldataload(0x00))\n      dup1\n      0x448a8e1e\n      eq\n      tag_3\n      jumpi\n      dup1\n      0x642f9163\n      eq\n      tag_4\n      jumpi\n      dup1\n      0xce6695be\n      eq\n      tag_5\n      jumpi\n    tag_2:\n      0x00\n      dup1\n      revert\n        /* \"Solidity Basic/Array Of Struct.sol\":181:201  Student[3] public s1 */\n    tag_3:\n      tag_6\n      0x04\n      dup1\n      calldatasize\n      sub\n      dup2\n      add\n      swap1\n      tag_7\n      swap2\n      swap1\n      tag_8\n      jump\t// in\n    tag_7:\n      tag_9\n      jump\t// in\n    tag_6:\n      mload(0x40)\n      tag_10\n      swap4\n      swap3\n      swap2\n      swap1\n      tag_11\n      jump\t// in\n    tag_10:\n      mload(0x40)\n      dup1\n      swap2\n      sub\n      swap1\n      return\n        /* \"Solidity Basic/Array Of Struct.sol\":560:665  function getStudent (uint index) public view returns (Student memory) {... */\n    tag_4:\n      tag_12\n      0x04\n      dup1\n      calldatasize\n      sub\n      dup2\n      add\n      swap1\n      tag_13\n      swap2\n      swap1\n      tag_8\n      jump\t// in\n    tag_13:\n      tag_14\n      jump\t// in\n    tag_12:\n      mload(0x40)\n      tag_15\n      swap2\n      swap1\n      tag_16\n      jump\t// in\n    tag_15:\n      mload(0x40)\n      dup1\n      swap2\n      sub\n      swap1\n      return\n        /* \"Solidity Basic/Array Of Struct.sol\":300:552  function setStudent (uint index, string memory _name, uint _age, bool _pass) public { // If the array is dynamic , delete uint index... */\n    tag_5:\n      tag_17\n      0x04\n      dup1\n      calldatasize\n      sub\n      dup2\n      add\n      swap1\n      tag_18\n      swap2\n      swap1\n      tag_19\n      jump\t// in\n    tag_18:\n      tag_20\n      jump\t// in\n    tag_17:\n      stop\n        /* \"Solidity Basic/Array Of Struct.sol\":181:201  Student[3] public s1 */\n    tag_9:\n      0x00\n      dup2\n      0x03\n      dup2\n      lt\n      tag_21\n      jumpi\n      0x00\n      dup1\n      revert\n    tag_21:\n      0x03\n      mul\n      add\n      0x00\n      swap2\n      pop\n      swap1\n      pop\n      dup1\n      0x00\n      add\n      dup1\n      sload\n      tag_23\n      swap1\n      tag_24\n      jump\t// in\n    tag_23:\n      dup1\n      0x1f\n      add\n      0x20\n      dup1\n      swap2\n      div\n      mul\n      0x20\n      add\n      mload(0x40)\n      swap1\n      dup2\n      add\n      0x40\n      mstore\n      dup1\n      swap3\n      swap2\n      swap1\n      dup2\n      dup2\n      mstore\n      0x20\n      add\n      dup3\n      dup1\n      sload\n      tag_25\n      swap1\n      tag_24\n      jump\t// in\n    tag_25:\n      dup1\n      iszero\n      tag_26\n      jumpi\n      dup1\n      0x1f\n      lt\n      tag_27\n      jumpi\n      0x0100\n      dup1\n      dup4\n      sload\n      div\n      mul\n      dup4\n      mstore\n      swap2\n      0x20\n      add\n      swap2\n      jump(tag_26)\n    tag_27:\n      dup3\n      add\n      swap2\n      swap1\n      0x00\n      mstore\n      keccak256(0x00, 0x20)\n      swap1\n    tag_28:\n      dup2\n      sload\n      dup2\n      mstore\n      swap1\n      0x01\n      add\n      swap1\n      0x20\n      add\n      dup1\n      dup4\n      gt\n      tag_28\n      jumpi\n      dup3\n      swap1\n      sub\n      0x1f\n      and\n      dup3\n      add\n      swap2\n    tag_26:\n      pop\n      pop\n      pop\n      pop\n      pop\n      swap1\n      dup1\n      0x01\n      add\n      sload\n      swap1\n      dup1\n      0x02\n      add\n      0x00\n      swap1\n      sload\n      swap1\n      0x0100\n      exp\n      swap1\n      div\n      0xff\n      and\n      swap1\n      pop\n      dup4\n      jump\t// out\n        /* \"Solidity Basic/Array Of Struct.sol\":560:665  function getStudent (uint index) public view returns (Student memory) {... */\n    tag_14:\n        /* \"Solidity Basic/Array Of Struct.sol\":614:628  Student memory */\n      tag_29\n      tag_30\n      jump\t// in\n    tag_29:\n        /* \"Solidity Basic/Array Of Struct.sol\":648:650  s1 */\n      0x00\n        /* \"Solidity Basic/Array Of Struct.sol\":651:656  index */\n      dup3\n        /* \"Solidity Basic/Array Of Struct.sol\":648:657  s1[index] */\n      0x03\n      dup2\n      lt\n      tag_32\n      jumpi\n      tag_33\n      tag_34\n      jump\t// in\n    tag_33:\n    tag_32:\n      0x03\n      mul\n      add\n        /* \"Solidity Basic/Array Of Struct.sol\":641:657  return s1[index] */\n      mload(0x40)\n      dup1\n      0x60\n      add\n      0x40\n      mstore\n      swap1\n      dup2\n      0x00\n      dup3\n      add\n      dup1\n      sload\n      tag_36\n      swap1\n      tag_24\n      jump\t// in\n    tag_36:\n      dup1\n      0x1f\n      add\n      0x20\n      dup1\n      swap2\n      div\n      mul\n      0x20\n      add\n      mload(0x40)\n      swap1\n      dup2\n      add\n      0x40\n      mstore\n      dup1\n      swap3\n      swap2\n      swap1\n      dup2\n      dup2\n      mstore\n      0x20\n      add\n      dup3\n      dup1\n      sload\n      tag_37\n      swap1\n      tag_24\n      jump\t// in\n    tag_37:\n      dup1\n      iszero\n      tag_38\n      jumpi\n      dup1\n      0x1f\n      lt\n      tag_39\n      jumpi\n      0x0100\n      dup1\n      dup4\n      sload\n      div\n      mul\n      dup4\n      mstore\n      swap2\n      0x20\n      add\n      swap2\n      jump(tag_38)\n    tag_39:\n      dup3\n      add\n      swap2\n      swap1\n      0x00\n      mstore\n      keccak256(0x00, 0x20)\n      swap1\n    tag_40:\n      dup2\n      sload\n      dup2\n      mstore\n      swap1\n      0x01\n      add\n      swap1\n      0x20\n      add\n      dup1\n      dup4\n      gt\n      tag_40\n      jumpi\n      dup3\n      swap1\n      sub\n      0x1f\n      and\n      dup3\n      add\n      swap2\n    tag_38:\n      pop\n      pop\n      pop\n      pop\n      pop\n      dup2\n      mstore\n      0x20\n      add\n      0x01\n      dup3\n      add\n      sload\n      dup2\n      mstore\n      0x20\n      add\n      0x02\n      dup3\n      add\n      0x00\n      swap1\n      sload\n      swap1\n      0x0100\n      exp\n      swap1\n      div\n      0xff\n      and\n      iszero\n      iszero\n      iszero\n      iszero\n      dup2\n      mstore\n      pop\n      pop\n      swap1\n      pop\n        /* \"Solidity Basic/Array Of Struct.sol\":560:665  function getStudent (uint index) public view returns (Student memory) {... */\n      swap2\n      swap1\n      pop\n      jump\t// out\n        /* \"Solidity Basic/Array Of Struct.sol\":300:552  function setStudent (uint index, string memory _name, uint _age, bool _pass) public { // If the array is dynamic , delete uint index... */\n    tag_20:\n        /* \"Solidity Basic/Array Of Struct.sol\":519:544  Student(_name,_age,_pass) */\n      mload(0x40)\n      dup1\n      0x60\n      add\n      0x40\n      mstore\n      dup1\n        /* \"Solidity Basic/Array Of Struct.sol\":527:532  _name */\n      dup5\n        /* \"Solidity Basic/Array Of Struct.sol\":519:544  Student(_name,_age,_pass) */\n      dup2\n      mstore\n      0x20\n      add\n        /* \"Solidity Basic/Array Of Struct.sol\":533:537  _age */\n      dup4\n        /* \"Solidity Basic/Array Of Struct.sol\":519:544  Student(_name,_age,_pass) */\n      dup2\n      mstore\n      0x20\n      add\n        /* \"Solidity Basic/Array Of Struct.sol\":538:543  _pass */\n      dup3\n        /* \"Solidity Basic/Array Of Struct.sol\":519:544  Student(_name,_age,_pass) */\n      iszero\n      iszero\n      dup2\n      mstore\n      pop\n        /* \"Solidity Basic/Array Of Struct.sol\":507:509  s1 */\n      0x00\n        /* \"Solidity Basic/Array Of Struct.sol\":510:515  index */\n      dup6\n        /* \"Solidity Basic/Array Of Struct.sol\":507:516  s1[index] */\n      0x03\n      dup2\n      lt\n      tag_42\n      jumpi\n      tag_43\n      tag_34\n      jump\t// in\n    tag_43:\n    tag_42:\n      0x03\n      mul\n      add\n        /* \"Solidity Basic/Array Of Struct.sol\":507:544  s1[index] = Student(_name,_age,_pass) */\n      0x00\n      dup3\n      add\n      mload\n      dup2\n      0x00\n      add\n      swap1\n      dup2\n      tag_45\n      swap2\n      swap1\n      tag_46\n      jump\t// in\n    tag_45:\n      pop\n      0x20\n      dup3\n      add\n      mload\n      dup2\n      0x01\n      add\n      sstore\n      0x40\n      dup3\n      add\n      mload\n      dup2\n      0x02\n      add\n      exp(0x0100, 0x00)\n      dup2\n      sload\n      dup2\n      0xff\n      mul\n      not\n      and\n      swap1\n      dup4\n      iszero\n      iszero\n      mul\n      or\n      swap1\n      sstore\n      pop\n      swap1\n      pop\n      pop\n        /* \"Solidity Basic/Array Of Struct.sol\":300:552  function setStudent (uint index, string memory _name, uint _age, bool _pass) public { // If the array is dynamic , delete uint index... */\n      pop\n      pop\n      pop\n      pop\n      jump\t// out\n    tag_30:\n      mload(0x40)\n      dup1\n      0x60\n      add\n      0x40\n      mstore\n      dup1\n      0x60\n      dup2\n      mstore\n      0x20\n      add\n      0x00\n      dup2\n      mstore\n      0x20\n      add\n      iszero(iszero(0x00))\n      dup2\n      mstore\n      pop\n      swap1\n      jump\t// out\n        /* \"#utility.yul\":7:82   */\n    tag_47:\n        /* \"#utility.yul\":40:46   */\n      0x00\n        /* \"#utility.yul\":73:75   */\n      0x40\n        /* \"#utility.yul\":67:76   */\n      mload\n        /* \"#utility.yul\":57:76   */\n      swap1\n      pop\n        /* \"#utility.yul\":7:82   */\n      swap1\n      jump\t// out\n        /* \"#utility.yul\":88:205   */\n    tag_48:\n        /* \"#utility.yul\":197:198   */\n      0x00\n        /* \"#utility.yul\":194:195   */\n      dup1\n        /* \"#utility.yul\":187:199   */\n      revert\n        /* \"#utility.yul\":211:328   */\n    tag_49:\n        /* \"#utility.yul\":320:321   */\n      0x00\n        /* \"#utility.yul\":317:318   */\n      dup1\n        /* \"#utility.yul\":310:322   */\n      revert\n        /* \"#utility.yul\":334:411   */\n    tag_50:\n        /* \"#utility.yul\":371:378   */\n      0x00\n        /* \"#utility.yul\":400:405   */\n      dup2\n        /* \"#utility.yul\":389:405   */\n      swap1\n      pop\n        /* \"#utility.yul\":334:411   */\n      swap2\n      swap1\n      pop\n      jump\t// out\n        /* \"#utility.yul\":417:539   */\n    tag_51:\n        /* \"#utility.yul\":490:514   */\n      tag_99\n        /* \"#utility.yul\":508:513   */\n      dup2\n        /* \"#utility.yul\":490:514   */\n      tag_50\n      jump\t// in\n    tag_99:\n        /* \"#utility.yul\":483:488   */\n      dup2\n        /* \"#utility.yul\":480:515   */\n      eq\n        /* \"#utility.yul\":470:533   */\n      tag_100\n      jumpi\n        /* \"#utility.yul\":529:530   */\n      0x00\n        /* \"#utility.yul\":526:527   */\n      dup1\n        /* \"#utility.yul\":519:531   */\n      revert\n        /* \"#utility.yul\":470:533   */\n    tag_100:\n        /* \"#utility.yul\":417:539   */\n      pop\n      jump\t// out\n        /* \"#utility.yul\":545:684   */\n    tag_52:\n        /* \"#utility.yul\":591:596   */\n      0x00\n        /* \"#utility.yul\":629:635   */\n      dup2\n        /* \"#utility.yul\":616:636   */\n      calldataload\n        /* \"#utility.yul\":607:636   */\n      swap1\n      pop\n        /* \"#utility.yul\":645:678   */\n      tag_102\n        /* \"#utility.yul\":672:677   */\n      dup2\n        /* \"#utility.yul\":645:678   */\n      tag_51\n      jump\t// in\n    tag_102:\n        /* \"#utility.yul\":545:684   */\n      swap3\n      swap2\n      pop\n      pop\n      jump\t// out\n        /* \"#utility.yul\":690:1019   */\n    tag_8:\n        /* \"#utility.yul\":749:755   */\n      0x00\n        /* \"#utility.yul\":798:800   */\n      0x20\n        /* \"#utility.yul\":786:795   */\n      dup3\n        /* \"#utility.yul\":777:784   */\n      dup5\n        /* \"#utility.yul\":773:796   */\n      sub\n        /* \"#utility.yul\":769:801   */\n      slt\n        /* \"#utility.yul\":766:885   */\n      iszero\n      tag_104\n      jumpi\n        /* \"#utility.yul\":804:883   */\n      tag_105\n      tag_48\n      jump\t// in\n    tag_105:\n        /* \"#utility.yul\":766:885   */\n    tag_104:\n        /* \"#utility.yul\":924:925   */\n      0x00\n        /* \"#utility.yul\":949:1002   */\n      tag_106\n        /* \"#utility.yul\":994:1001   */\n      dup5\n        /* \"#utility.yul\":985:991   */\n      dup3\n        /* \"#utility.yul\":974:983   */\n      dup6\n        /* \"#utility.yul\":970:992   */\n      add\n        /* \"#utility.yul\":949:1002   */\n      tag_52\n      jump\t// in\n    tag_106:\n        /* \"#utility.yul\":939:1002   */\n      swap2\n      pop\n        /* \"#utility.yul\":895:1012   */\n      pop\n        /* \"#utility.yul\":690:1019   */\n      swap3\n      swap2\n      pop\n      pop\n      jump\t// out\n        /* \"#utility.yul\":1025:1124   */\n    tag_53:\n        /* \"#utility.yul\":1077:1083   */\n      0x00\n        /* \"#utility.yul\":1111:1116   */\n      dup2\n        /* \"#utility.yul\":1105:1117   */\n      mload\n        /* \"#utility.yul\":1095:1117   */\n      swap1\n      pop\n        /* \"#utility.yul\":1025:1124   */\n      swap2\n      swap1\n      pop\n      jump\t// out\n        /* \"#utility.yul\":1130:1299   */\n    tag_54:\n        /* \"#utility.yul\":1214:1225   */\n      0x00\n        /* \"#utility.yul\":1248:1254   */\n      dup3\n        /* \"#utility.yul\":1243:1246   */\n      dup3\n        /* \"#utility.yul\":1236:1255   */\n      mstore\n        /* \"#utility.yul\":1288:1292   */\n      0x20\n        /* \"#utility.yul\":1283:1286   */\n      dup3\n        /* \"#utility.yul\":1279:1293   */\n      add\n        /* \"#utility.yul\":1264:1293   */\n      swap1\n      pop\n        /* \"#utility.yul\":1130:1299   */\n      swap3\n      swap2\n      pop\n      pop\n      jump\t// out\n        /* \"#utility.yul\":1305:1444   */\n    tag_55:\n        /* \"#utility.yul\":1394:1400   */\n      dup3\n        /* \"#utility.yul\":1389:1392   */\n      dup2\n        /* \"#utility.yul\":1384:1387   */\n      dup4\n        /* \"#utility.yul\":1378:1401   */\n      mcopy\n        /* \"#utility.yul\":1435:1436   */\n      0x00\n        /* \"#utility.yul\":1426:1432   */\n      dup4\n        /* \"#utility.yul\":1421:1424   */\n      dup4\n        /* \"#utility.yul\":1417:1433   */\n      add\n        /* \"#utility.yul\":1410:1437   */\n      mstore\n        /* \"#utility.yul\":1305:1444   */\n      pop\n      pop\n      pop\n      jump\t// out\n        /* \"#utility.yul\":1450:1552   */\n    tag_56:\n        /* \"#utility.yul\":1491:1497   */\n      0x00\n        /* \"#utility.yul\":1542:1544   */\n      0x1f\n        /* \"#utility.yul\":1538:1545   */\n      not\n        /* \"#utility.yul\":1533:1535   */\n      0x1f\n        /* \"#utility.yul\":1526:1531   */\n      dup4\n        /* \"#utility.yul\":1522:1536   */\n      add\n        /* \"#utility.yul\":1518:1546   */\n      and\n        /* \"#utility.yul\":1508:1546   */\n      swap1\n      pop\n        /* \"#utility.yul\":1450:1552   */\n      swap2\n      swap1\n      pop\n      jump\t// out\n        /* \"#utility.yul\":1558:1935   */\n    tag_57:\n        /* \"#utility.yul\":1646:1649   */\n      0x00\n        /* \"#utility.yul\":1674:1713   */\n      tag_112\n        /* \"#utility.yul\":1707:1712   */\n      dup3\n        /* \"#utility.yul\":1674:1713   */\n      tag_53\n      jump\t// in\n    tag_112:\n        /* \"#utility.yul\":1729:1800   */\n      tag_113\n        /* \"#utility.yul\":1793:1799   */\n      dup2\n        /* \"#utility.yul\":1788:1791   */\n      dup6\n        /* \"#utility.yul\":1729:1800   */\n      tag_54\n      jump\t// in\n    tag_113:\n        /* \"#utility.yul\":1722:1800   */\n      swap4\n      pop\n        /* \"#utility.yul\":1809:1874   */\n      tag_114\n        /* \"#utility.yul\":1867:1873   */\n      dup2\n        /* \"#utility.yul\":1862:1865   */\n      dup6\n        /* \"#utility.yul\":1855:1859   */\n      0x20\n        /* \"#utility.yul\":1848:1853   */\n      dup7\n        /* \"#utility.yul\":1844:1860   */\n      add\n        /* \"#utility.yul\":1809:1874   */\n      tag_55\n      jump\t// in\n    tag_114:\n        /* \"#utility.yul\":1899:1928   */\n      tag_115\n        /* \"#utility.yul\":1921:1927   */\n      dup2\n        /* \"#utility.yul\":1899:1928   */\n      tag_56\n      jump\t// in\n    tag_115:\n        /* \"#utility.yul\":1894:1897   */\n      dup5\n        /* \"#utility.yul\":1890:1929   */\n      add\n        /* \"#utility.yul\":1883:1929   */\n      swap2\n      pop\n        /* \"#utility.yul\":1650:1935   */\n      pop\n        /* \"#utility.yul\":1558:1935   */\n      swap3\n      swap2\n      pop\n      pop\n      jump\t// out\n        /* \"#utility.yul\":1941:2059   */\n    tag_58:\n        /* \"#utility.yul\":2028:2052   */\n      tag_117\n        /* \"#utility.yul\":2046:2051   */\n      dup2\n        /* \"#utility.yul\":2028:2052   */\n      tag_50\n      jump\t// in\n    tag_117:\n        /* \"#utility.yul\":2023:2026   */\n      dup3\n        /* \"#utility.yul\":2016:2053   */\n      mstore\n        /* \"#utility.yul\":1941:2059   */\n      pop\n      pop\n      jump\t// out\n        /* \"#utility.yul\":2065:2155   */\n    tag_59:\n        /* \"#utility.yul\":2099:2106   */\n      0x00\n        /* \"#utility.yul\":2142:2147   */\n      dup2\n        /* \"#utility.yul\":2135:2148   */\n      iszero\n        /* \"#utility.yul\":2128:2149   */\n      iszero\n        /* \"#utility.yul\":2117:2149   */\n      swap1\n      pop\n        /* \"#utility.yul\":2065:2155   */\n      swap2\n      swap1\n      pop\n      jump\t// out\n        /* \"#utility.yul\":2161:2270   */\n    tag_60:\n        /* \"#utility.yul\":2242:2263   */\n      tag_120\n        /* \"#utility.yul\":2257:2262   */\n      dup2\n        /* \"#utility.yul\":2242:2263   */\n      tag_59\n      jump\t// in\n    tag_120:\n        /* \"#utility.yul\":2237:2240   */\n      dup3\n        /* \"#utility.yul\":2230:2264   */\n      mstore\n        /* \"#utility.yul\":2161:2270   */\n      pop\n      pop\n      jump\t// out\n        /* \"#utility.yul\":2276:2797   */\n    tag_11:\n        /* \"#utility.yul\":2439:2443   */\n      0x00\n        /* \"#utility.yul\":2477:2479   */\n      0x60\n        /* \"#utility.yul\":2466:2475   */\n      dup3\n        /* \"#utility.yul\":2462:2480   */\n      add\n        /* \"#utility.yul\":2454:2480   */\n      swap1\n      pop\n        /* \"#utility.yul\":2526:2535   */\n      dup2\n        /* \"#utility.yul\":2520:2524   */\n      dup2\n        /* \"#utility.yul\":2516:2536   */\n      sub\n        /* \"#utility.yul\":2512:2513   */\n      0x00\n        /* \"#utility.yul\":2501:2510   */\n      dup4\n        /* \"#utility.yul\":2497:2514   */\n      add\n        /* \"#utility.yul\":2490:2537   */\n      mstore\n        /* \"#utility.yul\":2554:2632   */\n      tag_122\n        /* \"#utility.yul\":2627:2631   */\n      dup2\n        /* \"#utility.yul\":2618:2624   */\n      dup7\n        /* \"#utility.yul\":2554:2632   */\n      tag_57\n      jump\t// in\n    tag_122:\n        /* \"#utility.yul\":2546:2632   */\n      swap1\n      pop\n        /* \"#utility.yul\":2642:2714   */\n      tag_123\n        /* \"#utility.yul\":2710:2712   */\n      0x20\n        /* \"#utility.yul\":2699:2708   */\n      dup4\n        /* \"#utility.yul\":2695:2713   */\n      add\n        /* \"#utility.yul\":2686:2692   */\n      dup6\n        /* \"#utility.yul\":2642:2714   */\n      tag_58\n      jump\t// in\n    tag_123:\n        /* \"#utility.yul\":2724:2790   */\n      tag_124\n        /* \"#utility.yul\":2786:2788   */\n      0x40\n        /* \"#utility.yul\":2775:2784   */\n      dup4\n        /* \"#utility.yul\":2771:2789   */\n      add\n        /* \"#utility.yul\":2762:2768   */\n      dup5\n        /* \"#utility.yul\":2724:2790   */\n      tag_60\n      jump\t// in\n    tag_124:\n        /* \"#utility.yul\":2276:2797   */\n      swap5\n      swap4\n      pop\n      pop\n      pop\n      pop\n      jump\t// out\n        /* \"#utility.yul\":2803:2962   */\n    tag_61:\n        /* \"#utility.yul\":2877:2888   */\n      0x00\n        /* \"#utility.yul\":2911:2917   */\n      dup3\n        /* \"#utility.yul\":2906:2909   */\n      dup3\n        /* \"#utility.yul\":2899:2918   */\n      mstore\n        /* \"#utility.yul\":2951:2955   */\n      0x20\n        /* \"#utility.yul\":2946:2949   */\n      dup3\n        /* \"#utility.yul\":2942:2956   */\n      add\n        /* \"#utility.yul\":2927:2956   */\n      swap1\n      pop\n        /* \"#utility.yul\":2803:2962   */\n      swap3\n      swap2\n      pop\n      pop\n      jump\t// out\n        /* \"#utility.yul\":2968:3325   */\n    tag_62:\n        /* \"#utility.yul\":3046:3049   */\n      0x00\n        /* \"#utility.yul\":3074:3113   */\n      tag_127\n        /* \"#utility.yul\":3107:3112   */\n      dup3\n        /* \"#utility.yul\":3074:3113   */\n      tag_53\n      jump\t// in\n    tag_127:\n        /* \"#utility.yul\":3129:3190   */\n      tag_128\n        /* \"#utility.yul\":3183:3189   */\n      dup2\n        /* \"#utility.yul\":3178:3181   */\n      dup6\n        /* \"#utility.yul\":3129:3190   */\n      tag_61\n      jump\t// in\n    tag_128:\n        /* \"#utility.yul\":3122:3190   */\n      swap4\n      pop\n        /* \"#utility.yul\":3199:3264   */\n      tag_129\n        /* \"#utility.yul\":3257:3263   */\n      dup2\n        /* \"#utility.yul\":3252:3255   */\n      dup6\n        /* \"#utility.yul\":3245:3249   */\n      0x20\n        /* \"#utility.yul\":3238:3243   */\n      dup7\n        /* \"#utility.yul\":3234:3250   */\n      add\n        /* \"#utility.yul\":3199:3264   */\n      tag_55\n      jump\t// in\n    tag_129:\n        /* \"#utility.yul\":3289:3318   */\n      tag_130\n        /* \"#utility.yul\":3311:3317   */\n      dup2\n        /* \"#utility.yul\":3289:3318   */\n      tag_56\n      jump\t// in\n    tag_130:\n        /* \"#utility.yul\":3284:3287   */\n      dup5\n        /* \"#utility.yul\":3280:3319   */\n      add\n        /* \"#utility.yul\":3273:3319   */\n      swap2\n      pop\n        /* \"#utility.yul\":3050:3325   */\n      pop\n        /* \"#utility.yul\":2968:3325   */\n      swap3\n      swap2\n      pop\n      pop\n      jump\t// out\n        /* \"#utility.yul\":3331:3439   */\n    tag_63:\n        /* \"#utility.yul\":3408:3432   */\n      tag_132\n        /* \"#utility.yul\":3426:3431   */\n      dup2\n        /* \"#utility.yul\":3408:3432   */\n      tag_50\n      jump\t// in\n    tag_132:\n        /* \"#utility.yul\":3403:3406   */\n      dup3\n        /* \"#utility.yul\":3396:3433   */\n      mstore\n        /* \"#utility.yul\":3331:3439   */\n      pop\n      pop\n      jump\t// out\n        /* \"#utility.yul\":3445:3544   */\n    tag_64:\n        /* \"#utility.yul\":3516:3537   */\n      tag_134\n        /* \"#utility.yul\":3531:3536   */\n      dup2\n        /* \"#utility.yul\":3516:3537   */\n      tag_59\n      jump\t// in\n    tag_134:\n        /* \"#utility.yul\":3511:3514   */\n      dup3\n        /* \"#utility.yul\":3504:3538   */\n      mstore\n        /* \"#utility.yul\":3445:3544   */\n      pop\n      pop\n      jump\t// out\n        /* \"#utility.yul\":3618:4385   */\n    tag_65:\n        /* \"#utility.yul\":3731:3734   */\n      0x00\n        /* \"#utility.yul\":3767:3771   */\n      0x60\n        /* \"#utility.yul\":3762:3765   */\n      dup4\n        /* \"#utility.yul\":3758:3772   */\n      add\n        /* \"#utility.yul\":3854:3858   */\n      0x00\n        /* \"#utility.yul\":3847:3852   */\n      dup4\n        /* \"#utility.yul\":3843:3859   */\n      add\n        /* \"#utility.yul\":3837:3860   */\n      mload\n        /* \"#utility.yul\":3907:3910   */\n      dup5\n        /* \"#utility.yul\":3901:3905   */\n      dup3\n        /* \"#utility.yul\":3897:3911   */\n      sub\n        /* \"#utility.yul\":3890:3894   */\n      0x00\n        /* \"#utility.yul\":3885:3888   */\n      dup7\n        /* \"#utility.yul\":3881:3895   */\n      add\n        /* \"#utility.yul\":3874:3912   */\n      mstore\n        /* \"#utility.yul\":3933:4006   */\n      tag_136\n        /* \"#utility.yul\":4001:4005   */\n      dup3\n        /* \"#utility.yul\":3987:3999   */\n      dup3\n        /* \"#utility.yul\":3933:4006   */\n      tag_62\n      jump\t// in\n    tag_136:\n        /* \"#utility.yul\":3925:4006   */\n      swap2\n      pop\n        /* \"#utility.yul\":3782:4017   */\n      pop\n        /* \"#utility.yul\":4098:4102   */\n      0x20\n        /* \"#utility.yul\":4091:4096   */\n      dup4\n        /* \"#utility.yul\":4087:4103   */\n      add\n        /* \"#utility.yul\":4081:4104   */\n      mload\n        /* \"#utility.yul\":4117:4180   */\n      tag_137\n        /* \"#utility.yul\":4174:4178   */\n      0x20\n        /* \"#utility.yul\":4169:4172   */\n      dup7\n        /* \"#utility.yul\":4165:4179   */\n      add\n        /* \"#utility.yul\":4151:4163   */\n      dup3\n        /* \"#utility.yul\":4117:4180   */\n      tag_63\n      jump\t// in\n    tag_137:\n        /* \"#utility.yul\":4027:4190   */\n      pop\n        /* \"#utility.yul\":4272:4276   */\n      0x40\n        /* \"#utility.yul\":4265:4270   */\n      dup4\n        /* \"#utility.yul\":4261:4277   */\n      add\n        /* \"#utility.yul\":4255:4278   */\n      mload\n        /* \"#utility.yul\":4291:4348   */\n      tag_138\n        /* \"#utility.yul\":4342:4346   */\n      0x40\n        /* \"#utility.yul\":4337:4340   */\n      dup7\n        /* \"#utility.yul\":4333:4347   */\n      add\n        /* \"#utility.yul\":4319:4331   */\n      dup3\n        /* \"#utility.yul\":4291:4348   */\n      tag_64\n      jump\t// in\n    tag_138:\n        /* \"#utility.yul\":4200:4358   */\n      pop\n        /* \"#utility.yul\":4375:4379   */\n      dup1\n        /* \"#utility.yul\":4368:4379   */\n      swap2\n      pop\n        /* \"#utility.yul\":3736:4385   */\n      pop\n        /* \"#utility.yul\":3618:4385   */\n      swap3\n      swap2\n      pop\n      pop\n      jump\t// out\n        /* \"#utility.yul\":4391:4752   */\n    tag_16:\n        /* \"#utility.yul\":4528:4532   */\n      0x00\n        /* \"#utility.yul\":4566:4568   */\n      0x20\n        /* \"#utility.yul\":4555:4564   */\n      dup3\n        /* \"#utility.yul\":4551:4569   */\n      add\n        /* \"#utility.yul\":4543:4569   */\n      swap1\n      pop\n        /* \"#utility.yul\":4615:4624   */\n      dup2\n        /* \"#utility.yul\":4609:4613   */\n      dup2\n        /* \"#utility.yul\":4605:4625   */\n      sub\n        /* \"#utility.yul\":4601:4602   */\n      0x00\n        /* \"#utility.yul\":4590:4599   */\n      dup4\n        /* \"#utility.yul\":4586:4603   */\n      add\n        /* \"#utility.yul\":4579:4626   */\n      mstore\n        /* \"#utility.yul\":4643:4745   */\n      tag_140\n        /* \"#utility.yul\":4740:4744   */\n      dup2\n        /* \"#utility.yul\":4731:4737   */\n      dup5\n        /* \"#utility.yul\":4643:4745   */\n      tag_65\n      jump\t// in\n    tag_140:\n        /* \"#utility.yul\":4635:4745   */\n      swap1\n      pop\n        /* \"#utility.yul\":4391:4752   */\n      swap3\n      swap2\n      pop\n      pop\n      jump\t// out\n        /* \"#utility.yul\":4758:4875   */\n    tag_66:\n        /* \"#utility.yul\":4867:4868   */\n      0x00\n        /* \"#utility.yul\":4864:4865   */\n      dup1\n        /* \"#utility.yul\":4857:4869   */\n      revert\n        /* \"#utility.yul\":4881:4998   */\n    tag_67:\n        /* \"#utility.yul\":4990:4991   */\n      0x00\n        /* \"#utility.yul\":4987:4988   */\n      dup1\n        /* \"#utility.yul\":4980:4992   */\n      revert\n        /* \"#utility.yul\":5004:5184   */\n    tag_68:\n        /* \"#utility.yul\":5052:5129   */\n      0x4e487b7100000000000000000000000000000000000000000000000000000000\n        /* \"#utility.yul\":5049:5050   */\n      0x00\n        /* \"#utility.yul\":5042:5130   */\n      mstore\n        /* \"#utility.yul\":5149:5153   */\n      0x41\n        /* \"#utility.yul\":5146:5147   */\n      0x04\n        /* \"#utility.yul\":5139:5154   */\n      mstore\n        /* \"#utility.yul\":5173:5177   */\n      0x24\n        /* \"#utility.yul\":5170:5171   */\n      0x00\n        /* \"#utility.yul\":5163:5178   */\n      revert\n        /* \"#utility.yul\":5190:5471   */\n    tag_69:\n        /* \"#utility.yul\":5273:5300   */\n      tag_145\n        /* \"#utility.yul\":5295:5299   */\n      dup3\n        /* \"#utility.yul\":5273:5300   */\n      tag_56\n      jump\t// in\n    tag_145:\n        /* \"#utility.yul\":5265:5271   */\n      dup2\n        /* \"#utility.yul\":5261:5301   */\n      add\n        /* \"#utility.yul\":5403:5409   */\n      dup2\n        /* \"#utility.yul\":5391:5401   */\n      dup2\n        /* \"#utility.yul\":5388:5410   */\n      lt\n        /* \"#utility.yul\":5367:5385   */\n      0xffffffffffffffff\n        /* \"#utility.yul\":5355:5365   */\n      dup3\n        /* \"#utility.yul\":5352:5386   */\n      gt\n        /* \"#utility.yul\":5349:5411   */\n      or\n        /* \"#utility.yul\":5346:5434   */\n      iszero\n      tag_146\n      jumpi\n        /* \"#utility.yul\":5414:5432   */\n      tag_147\n      tag_68\n      jump\t// in\n    tag_147:\n        /* \"#utility.yul\":5346:5434   */\n    tag_146:\n        /* \"#utility.yul\":5454:5464   */\n      dup1\n        /* \"#utility.yul\":5450:5452   */\n      0x40\n        /* \"#utility.yul\":5443:5465   */\n      mstore\n        /* \"#utility.yul\":5233:5471   */\n      pop\n        /* \"#utility.yul\":5190:5471   */\n      pop\n      pop\n      jump\t// out\n        /* \"#utility.yul\":5477:5606   */\n    tag_70:\n        /* \"#utility.yul\":5511:5517   */\n      0x00\n        /* \"#utility.yul\":5538:5558   */\n      tag_149\n      tag_47\n      jump\t// in\n    tag_149:\n        /* \"#utility.yul\":5528:5558   */\n      swap1\n      pop\n        /* \"#utility.yul\":5567:5600   */\n      tag_150\n        /* \"#utility.yul\":5595:5599   */\n      dup3\n        /* \"#utility.yul\":5587:5593   */\n      dup3\n        /* \"#utility.yul\":5567:5600   */\n      tag_69\n      jump\t// in\n    tag_150:\n        /* \"#utility.yul\":5477:5606   */\n      swap2\n      swap1\n      pop\n      jump\t// out\n        /* \"#utility.yul\":5612:5920   */\n    tag_71:\n        /* \"#utility.yul\":5674:5678   */\n      0x00\n        /* \"#utility.yul\":5764:5782   */\n      0xffffffffffffffff\n        /* \"#utility.yul\":5756:5762   */\n      dup3\n        /* \"#utility.yul\":5753:5783   */\n      gt\n        /* \"#utility.yul\":5750:5806   */\n      iszero\n      tag_152\n      jumpi\n        /* \"#utility.yul\":5786:5804   */\n      tag_153\n      tag_68\n      jump\t// in\n    tag_153:\n        /* \"#utility.yul\":5750:5806   */\n    tag_152:\n        /* \"#utility.yul\":5824:5853   */\n      tag_154\n        /* \"#utility.yul\":5846:5852   */\n      dup3\n        /* \"#utility.yul\":5824:5853   */\n      tag_56\n      jump\t// in\n    tag_154:\n        /* \"#utility.yul\":5816:5853   */\n      swap1\n      pop\n        /* \"#utility.yul\":5908:5912   */\n      0x20\n        /* \"#utility.yul\":5902:5906   */\n      dup2\n        /* \"#utility.yul\":5898:5913   */\n      add\n        /* \"#utility.yul\":5890:5913   */\n      swap1\n      pop\n        /* \"#utility.yul\":5612:5920   */\n      swap2\n      swap1\n      pop\n      jump\t// out\n        /* \"#utility.yul\":5926:6074   */\n    tag_72:\n        /* \"#utility.yul\":6024:6030   */\n      dup3\n        /* \"#utility.yul\":6019:6022   */\n      dup2\n        /* \"#utility.yul\":6014:6017   */\n      dup4\n        /* \"#utility.yul\":6001:6031   */\n      calldatacopy\n        /* \"#utility.yul\":6065:6066   */\n      0x00\n        /* \"#utility.yul\":6056:6062   */\n      dup4\n        /* \"#utility.yul\":6051:6054   */\n      dup4\n        /* \"#utility.yul\":6047:6063   */\n      add\n        /* \"#utility.yul\":6040:6067   */\n      mstore\n        /* \"#utility.yul\":5926:6074   */\n      pop\n      pop\n      pop\n      jump\t// out\n        /* \"#utility.yul\":6080:6505   */\n    tag_73:\n        /* \"#utility.yul\":6158:6163   */\n      0x00\n        /* \"#utility.yul\":6183:6249   */\n      tag_157\n        /* \"#utility.yul\":6199:6248   */\n      tag_158\n        /* \"#utility.yul\":6241:6247   */\n      dup5\n        /* \"#utility.yul\":6199:6248   */\n      tag_71\n      jump\t// in\n    tag_158:\n        /* \"#utility.yul\":6183:6249   */\n      tag_70\n      jump\t// in\n    tag_157:\n        /* \"#utility.yul\":6174:6249   */\n      swap1\n      pop\n        /* \"#utility.yul\":6272:6278   */\n      dup3\n        /* \"#utility.yul\":6265:6270   */\n      dup2\n        /* \"#utility.yul\":6258:6279   */\n      mstore\n        /* \"#utility.yul\":6310:6314   */\n      0x20\n        /* \"#utility.yul\":6303:6308   */\n      dup2\n        /* \"#utility.yul\":6299:6315   */\n      add\n        /* \"#utility.yul\":6348:6351   */\n      dup5\n        /* \"#utility.yul\":6339:6345   */\n      dup5\n        /* \"#utility.yul\":6334:6337   */\n      dup5\n        /* \"#utility.yul\":6330:6346   */\n      add\n        /* \"#utility.yul\":6327:6352   */\n      gt\n        /* \"#utility.yul\":6324:6436   */\n      iszero\n      tag_159\n      jumpi\n        /* \"#utility.yul\":6355:6434   */\n      tag_160\n      tag_67\n      jump\t// in\n    tag_160:\n        /* \"#utility.yul\":6324:6436   */\n    tag_159:\n        /* \"#utility.yul\":6445:6499   */\n      tag_161\n        /* \"#utility.yul\":6492:6498   */\n      dup5\n        /* \"#utility.yul\":6487:6490   */\n      dup3\n        /* \"#utility.yul\":6482:6485   */\n      dup6\n        /* \"#utility.yul\":6445:6499   */\n      tag_72\n      jump\t// in\n    tag_161:\n        /* \"#utility.yul\":6164:6505   */\n      pop\n        /* \"#utility.yul\":6080:6505   */\n      swap4\n      swap3\n      pop\n      pop\n      pop\n      jump\t// out\n        /* \"#utility.yul\":6525:6865   */\n    tag_74:\n        /* \"#utility.yul\":6581:6586   */\n      0x00\n        /* \"#utility.yul\":6630:6633   */\n      dup3\n        /* \"#utility.yul\":6623:6627   */\n      0x1f\n        /* \"#utility.yul\":6615:6621   */\n      dup4\n        /* \"#utility.yul\":6611:6628   */\n      add\n        /* \"#utility.yul\":6607:6634   */\n      slt\n        /* \"#utility.yul\":6597:6719   */\n      tag_163\n      jumpi\n        /* \"#utility.yul\":6638:6717   */\n      tag_164\n      tag_66\n      jump\t// in\n    tag_164:\n        /* \"#utility.yul\":6597:6719   */\n    tag_163:\n        /* \"#utility.yul\":6755:6761   */\n      dup2\n        /* \"#utility.yul\":6742:6762   */\n      calldataload\n        /* \"#utility.yul\":6780:6859   */\n      tag_165\n        /* \"#utility.yul\":6855:6858   */\n      dup5\n        /* \"#utility.yul\":6847:6853   */\n      dup3\n        /* \"#utility.yul\":6840:6844   */\n      0x20\n        /* \"#utility.yul\":6832:6838   */\n      dup7\n        /* \"#utility.yul\":6828:6845   */\n      add\n        /* \"#utility.yul\":6780:6859   */\n      tag_73\n      jump\t// in\n    tag_165:\n        /* \"#utility.yul\":6771:6859   */\n      swap2\n      pop\n        /* \"#utility.yul\":6587:6865   */\n      pop\n        /* \"#utility.yul\":6525:6865   */\n      swap3\n      swap2\n      pop\n      pop\n      jump\t// out\n        /* \"#utility.yul\":6871:6987   */\n    tag_75:\n        /* \"#utility.yul\":6941:6962   */\n      tag_167\n        /* \"#utility.yul\":6956:6961   */\n      dup2\n        /* \"#utility.yul\":6941:6962   */\n      tag_59\n      jump\t// in\n    tag_167:\n        /* \"#utility.yul\":6934:6939   */\n      dup2\n        /* \"#utility.yul\":6931:6963   */\n      eq\n        /* \"#utility.yul\":6921:6981   */\n      tag_168\n      jumpi\n        /* \"#utility.yul\":6977:6978   */\n      0x00\n        /* \"#utility.yul\":6974:6975   */\n      dup1\n        /* \"#utility.yul\":6967:6979   */\n      revert\n        /* \"#utility.yul\":6921:6981   */\n    tag_168:\n        /* \"#utility.yul\":6871:6987   */\n      pop\n      jump\t// out\n        /* \"#utility.yul\":6993:7126   */\n    tag_76:\n        /* \"#utility.yul\":7036:7041   */\n      0x00\n        /* \"#utility.yul\":7074:7080   */\n      dup2\n        /* \"#utility.yul\":7061:7081   */\n      calldataload\n        /* \"#utility.yul\":7052:7081   */\n      swap1\n      pop\n        /* \"#utility.yul\":7090:7120   */\n      tag_170\n        /* \"#utility.yul\":7114:7119   */\n      dup2\n        /* \"#utility.yul\":7090:7120   */\n      tag_75\n      jump\t// in\n    tag_170:\n        /* \"#utility.yul\":6993:7126   */\n      swap3\n      swap2\n      pop\n      pop\n      jump\t// out\n        /* \"#utility.yul\":7132:8071   */\n    tag_19:\n        /* \"#utility.yul\":7225:7231   */\n      0x00\n        /* \"#utility.yul\":7233:7239   */\n      dup1\n        /* \"#utility.yul\":7241:7247   */\n      0x00\n        /* \"#utility.yul\":7249:7255   */\n      dup1\n        /* \"#utility.yul\":7298:7301   */\n      0x80\n        /* \"#utility.yul\":7286:7295   */\n      dup6\n        /* \"#utility.yul\":7277:7284   */\n      dup8\n        /* \"#utility.yul\":7273:7296   */\n      sub\n        /* \"#utility.yul\":7269:7302   */\n      slt\n        /* \"#utility.yul\":7266:7386   */\n      iszero\n      tag_172\n      jumpi\n        /* \"#utility.yul\":7305:7384   */\n      tag_173\n      tag_48\n      jump\t// in\n    tag_173:\n        /* \"#utility.yul\":7266:7386   */\n    tag_172:\n        /* \"#utility.yul\":7425:7426   */\n      0x00\n        /* \"#utility.yul\":7450:7503   */\n      tag_174\n        /* \"#utility.yul\":7495:7502   */\n      dup8\n        /* \"#utility.yul\":7486:7492   */\n      dup3\n        /* \"#utility.yul\":7475:7484   */\n      dup9\n        /* \"#utility.yul\":7471:7493   */\n      add\n        /* \"#utility.yul\":7450:7503   */\n      tag_52\n      jump\t// in\n    tag_174:\n        /* \"#utility.yul\":7440:7503   */\n      swap5\n      pop\n        /* \"#utility.yul\":7396:7513   */\n      pop\n        /* \"#utility.yul\":7580:7582   */\n      0x20\n        /* \"#utility.yul\":7569:7578   */\n      dup6\n        /* \"#utility.yul\":7565:7583   */\n      add\n        /* \"#utility.yul\":7552:7584   */\n      calldataload\n        /* \"#utility.yul\":7611:7629   */\n      0xffffffffffffffff\n        /* \"#utility.yul\":7603:7609   */\n      dup2\n        /* \"#utility.yul\":7600:7630   */\n      gt\n        /* \"#utility.yul\":7597:7714   */\n      iszero\n      tag_175\n      jumpi\n        /* \"#utility.yul\":7633:7712   */\n      tag_176\n      tag_49\n      jump\t// in\n    tag_176:\n        /* \"#utility.yul\":7597:7714   */\n    tag_175:\n        /* \"#utility.yul\":7738:7801   */\n      tag_177\n        /* \"#utility.yul\":7793:7800   */\n      dup8\n        /* \"#utility.yul\":7784:7790   */\n      dup3\n        /* \"#utility.yul\":7773:7782   */\n      dup9\n        /* \"#utility.yul\":7769:7791   */\n      add\n        /* \"#utility.yul\":7738:7801   */\n      tag_74\n      jump\t// in\n    tag_177:\n        /* \"#utility.yul\":7728:7801   */\n      swap4\n      pop\n        /* \"#utility.yul\":7523:7811   */\n      pop\n        /* \"#utility.yul\":7850:7852   */\n      0x40\n        /* \"#utility.yul\":7876:7929   */\n      tag_178\n        /* \"#utility.yul\":7921:7928   */\n      dup8\n        /* \"#utility.yul\":7912:7918   */\n      dup3\n        /* \"#utility.yul\":7901:7910   */\n      dup9\n        /* \"#utility.yul\":7897:7919   */\n      add\n        /* \"#utility.yul\":7876:7929   */\n      tag_52\n      jump\t// in\n    tag_178:\n        /* \"#utility.yul\":7866:7929   */\n      swap3\n      pop\n        /* \"#utility.yul\":7821:7939   */\n      pop\n        /* \"#utility.yul\":7978:7980   */\n      0x60\n        /* \"#utility.yul\":8004:8054   */\n      tag_179\n        /* \"#utility.yul\":8046:8053   */\n      dup8\n        /* \"#utility.yul\":8037:8043   */\n      dup3\n        /* \"#utility.yul\":8026:8035   */\n      dup9\n        /* \"#utility.yul\":8022:8044   */\n      add\n        /* \"#utility.yul\":8004:8054   */\n      tag_76\n      jump\t// in\n    tag_179:\n        /* \"#utility.yul\":7994:8054   */\n      swap2\n      pop\n        /* \"#utility.yul\":7949:8064   */\n      pop\n        /* \"#utility.yul\":7132:8071   */\n      swap3\n      swap6\n      swap2\n      swap5\n      pop\n      swap3\n      pop\n      jump\t// out\n        /* \"#utility.yul\":8077:8257   */\n    tag_77:\n        /* \"#utility.yul\":8125:8202   */\n      0x4e487b7100000000000000000000000000000000000000000000000000000000\n        /* \"#utility.yul\":8122:8123   */\n      0x00\n        /* \"#utility.yul\":8115:8203   */\n      mstore\n        /* \"#utility.yul\":8222:8226   */\n      0x22\n        /* \"#utility.yul\":8219:8220   */\n      0x04\n        /* \"#utility.yul\":8212:8227   */\n      mstore\n        /* \"#utility.yul\":8246:8250   */\n      0x24\n        /* \"#utility.yul\":8243:8244   */\n      0x00\n        /* \"#utility.yul\":8236:8251   */\n      revert\n        /* \"#utility.yul\":8263:8583   */\n    tag_24:\n        /* \"#utility.yul\":8307:8313   */\n      0x00\n        /* \"#utility.yul\":8344:8345   */\n      0x02\n        /* \"#utility.yul\":8338:8342   */\n      dup3\n        /* \"#utility.yul\":8334:8346   */\n      div\n        /* \"#utility.yul\":8324:8346   */\n      swap1\n      pop\n        /* \"#utility.yul\":8391:8392   */\n      0x01\n        /* \"#utility.yul\":8385:8389   */\n      dup3\n        /* \"#utility.yul\":8381:8393   */\n      and\n        /* \"#utility.yul\":8412:8430   */\n      dup1\n        /* \"#utility.yul\":8402:8483   */\n      tag_182\n      jumpi\n        /* \"#utility.yul\":8468:8472   */\n      0x7f\n        /* \"#utility.yul\":8460:8466   */\n      dup3\n        /* \"#utility.yul\":8456:8473   */\n      and\n        /* \"#utility.yul\":8446:8473   */\n      swap2\n      pop\n        /* \"#utility.yul\":8402:8483   */\n    tag_182:\n        /* \"#utility.yul\":8530:8532   */\n      0x20\n        /* \"#utility.yul\":8522:8528   */\n      dup3\n        /* \"#utility.yul\":8519:8533   */\n      lt\n        /* \"#utility.yul\":8499:8517   */\n      dup2\n        /* \"#utility.yul\":8496:8534   */\n      sub\n        /* \"#utility.yul\":8493:8577   */\n      tag_183\n      jumpi\n        /* \"#utility.yul\":8549:8567   */\n      tag_184\n      tag_77\n      jump\t// in\n    tag_184:\n        /* \"#utility.yul\":8493:8577   */\n    tag_183:\n        /* \"#utility.yul\":8314:8583   */\n      pop\n        /* \"#utility.yul\":8263:8583   */\n      swap2\n      swap1\n      pop\n      jump\t// out\n        /* \"#utility.yul\":8589:8769   */\n    tag_34:\n        /* \"#utility.yul\":8637:8714   */\n      0x4e487b7100000000000000000000000000000000000000000000000000000000\n        /* \"#utility.yul\":8634:8635   */\n      0x00\n        /* \"#utility.yul\":8627:8715   */\n      mstore\n        /* \"#utility.yul\":8734:8738   */\n      0x32\n        /* \"#utility.yul\":8731:8732   */\n      0x04\n        /* \"#utility.yul\":8724:8739   */\n      mstore\n        /* \"#utility.yul\":8758:8762   */\n      0x24\n        /* \"#utility.yul\":8755:8756   */\n      0x00\n        /* \"#utility.yul\":8748:8763   */\n      revert\n        /* \"#utility.yul\":8775:8916   */\n    tag_78:\n        /* \"#utility.yul\":8824:8828   */\n      0x00\n        /* \"#utility.yul\":8847:8850   */\n      dup2\n        /* \"#utility.yul\":8839:8850   */\n      swap1\n      pop\n        /* \"#utility.yul\":8870:8873   */\n      dup2\n        /* \"#utility.yul\":8867:8868   */\n      0x00\n        /* \"#utility.yul\":8860:8874   */\n      mstore\n        /* \"#utility.yul\":8904:8908   */\n      0x20\n        /* \"#utility.yul\":8901:8902   */\n      0x00\n        /* \"#utility.yul\":8891:8909   */\n      keccak256\n        /* \"#utility.yul\":8883:8909   */\n      swap1\n      pop\n        /* \"#utility.yul\":8775:8916   */\n      swap2\n      swap1\n      pop\n      jump\t// out\n        /* \"#utility.yul\":8922:9015   */\n    tag_79:\n        /* \"#utility.yul\":8959:8965   */\n      0x00\n        /* \"#utility.yul\":9006:9008   */\n      0x20\n        /* \"#utility.yul\":9001:9003   */\n      0x1f\n        /* \"#utility.yul\":8994:8999   */\n      dup4\n        /* \"#utility.yul\":8990:9004   */\n      add\n        /* \"#utility.yul\":8986:9009   */\n      div\n        /* \"#utility.yul\":8976:9009   */\n      swap1\n      pop\n        /* \"#utility.yul\":8922:9015   */\n      swap2\n      swap1\n      pop\n      jump\t// out\n        /* \"#utility.yul\":9021:9128   */\n    tag_80:\n        /* \"#utility.yul\":9065:9073   */\n      0x00\n        /* \"#utility.yul\":9115:9120   */\n      dup3\n        /* \"#utility.yul\":9109:9113   */\n      dup3\n        /* \"#utility.yul\":9105:9121   */\n      shl\n        /* \"#utility.yul\":9084:9121   */\n      swap1\n      pop\n        /* \"#utility.yul\":9021:9128   */\n      swap3\n      swap2\n      pop\n      pop\n      jump\t// out\n        /* \"#utility.yul\":9134:9527   */\n    tag_81:\n        /* \"#utility.yul\":9203:9209   */\n      0x00\n        /* \"#utility.yul\":9253:9254   */\n      0x08\n        /* \"#utility.yul\":9241:9251   */\n      dup4\n        /* \"#utility.yul\":9237:9255   */\n      mul\n        /* \"#utility.yul\":9276:9373   */\n      tag_190\n        /* \"#utility.yul\":9306:9372   */\n      0xffffffffffffffffffffffffffffffffffffffffffffffffffffffffffffffff\n        /* \"#utility.yul\":9295:9304   */\n      dup3\n        /* \"#utility.yul\":9276:9373   */\n      tag_80\n      jump\t// in\n    tag_190:\n        /* \"#utility.yul\":9394:9433   */\n      tag_191\n        /* \"#utility.yul\":9424:9432   */\n      dup7\n        /* \"#utility.yul\":9413:9422   */\n      dup4\n        /* \"#utility.yul\":9394:9433   */\n      tag_80\n      jump\t// in\n    tag_191:\n        /* \"#utility.yul\":9382:9433   */\n      swap6\n      pop\n        /* \"#utility.yul\":9466:9470   */\n      dup1\n        /* \"#utility.yul\":9462:9471   */\n      not\n        /* \"#utility.yul\":9455:9460   */\n      dup5\n        /* \"#utility.yul\":9451:9472   */\n      and\n        /* \"#utility.yul\":9442:9472   */\n      swap4\n      pop\n        /* \"#utility.yul\":9515:9519   */\n      dup1\n        /* \"#utility.yul\":9505:9513   */\n      dup7\n        /* \"#utility.yul\":9501:9520   */\n      and\n        /* \"#utility.yul\":9494:9499   */\n      dup5\n        /* \"#utility.yul\":9491:9521   */\n      or\n        /* \"#utility.yul\":9481:9521   */\n      swap3\n      pop\n        /* \"#utility.yul\":9210:9527   */\n      pop\n      pop\n        /* \"#utility.yul\":9134:9527   */\n      swap4\n      swap3\n      pop\n      pop\n      pop\n      jump\t// out\n        /* \"#utility.yul\":9533:9593   */\n    tag_82:\n        /* \"#utility.yul\":9561:9564   */\n      0x00\n        /* \"#utility.yul\":9582:9587   */\n      dup2\n        /* \"#utility.yul\":9575:9587   */\n      swap1\n      pop\n        /* \"#utility.yul\":9533:9593   */\n      swap2\n      swap1\n      pop\n      jump\t// out\n        /* \"#utility.yul\":9599:9741   */\n    tag_83:\n        /* \"#utility.yul\":9649:9658   */\n      0x00\n        /* \"#utility.yul\":9682:9735   */\n      tag_194\n        /* \"#utility.yul\":9700:9734   */\n      tag_195\n        /* \"#utility.yul\":9709:9733   */\n      tag_196\n        /* \"#utility.yul\":9727:9732   */\n      dup5\n        /* \"#utility.yul\":9709:9733   */\n      tag_50\n      jump\t// in\n    tag_196:\n        /* \"#utility.yul\":9700:9734   */\n      tag_82\n      jump\t// in\n    tag_195:\n        /* \"#utility.yul\":9682:9735   */\n      tag_50\n      jump\t// in\n    tag_194:\n        /* \"#utility.yul\":9669:9735   */\n      swap1\n      pop\n        /* \"#utility.yul\":9599:9741   */\n      swap2\n      swap1\n      pop\n      jump\t// out\n        /* \"#utility.yul\":9747:9822   */\n    tag_84:\n        /* \"#utility.yul\":9790:9793   */\n      0x00\n        /* \"#utility.yul\":9811:9816   */\n      dup2\n        /* \"#utility.yul\":9804:9816   */\n      swap1\n      pop\n        /* \"#utility.yul\":9747:9822   */\n      swap2\n      swap1\n      pop\n      jump\t// out\n        /* \"#utility.yul\":9828:10097   */\n    tag_85:\n        /* \"#utility.yul\":9938:9977   */\n      tag_199\n        /* \"#utility.yul\":9969:9976   */\n      dup4\n        /* \"#utility.yul\":9938:9977   */\n      tag_83\n      jump\t// in\n    tag_199:\n        /* \"#utility.yul\":9999:10090   */\n      tag_200\n        /* \"#utility.yul\":10048:10089   */\n      tag_201\n        /* \"#utility.yul\":10072:10088   */\n      dup3\n        /* \"#utility.yul\":10048:10089   */\n      tag_84\n      jump\t// in\n    tag_201:\n        /* \"#utility.yul\":10040:10046   */\n      dup5\n        /* \"#utility.yul\":10033:10037   */\n      dup5\n        /* \"#utility.yul\":10027:10038   */\n      sload\n        /* \"#utility.yul\":9999:10090   */\n      tag_81\n      jump\t// in\n    tag_200:\n        /* \"#utility.yul\":9993:9997   */\n      dup3\n        /* \"#utility.yul\":9986:10091   */\n      sstore\n        /* \"#utility.yul\":9904:10097   */\n      pop\n        /* \"#utility.yul\":9828:10097   */\n      pop\n      pop\n      pop\n      jump\t// out\n        /* \"#utility.yul\":10103:10176   */\n    tag_86:\n        /* \"#utility.yul\":10148:10151   */\n      0x00\n        /* \"#utility.yul\":10103:10176   */\n      swap1\n      jump\t// out\n        /* \"#utility.yul\":10182:10371   */\n    tag_87:\n        /* \"#utility.yul\":10259:10291   */\n      tag_204\n      tag_86\n      jump\t// in\n    tag_204:\n        /* \"#utility.yul\":10300:10365   */\n      tag_205\n        /* \"#utility.yul\":10358:10364   */\n      dup2\n        /* \"#utility.yul\":10350:10356   */\n      dup5\n        /* \"#utility.yul\":10344:10348   */\n      dup5\n        /* \"#utility.yul\":10300:10365   */\n      tag_85\n      jump\t// in\n    tag_205:\n        /* \"#utility.yul\":10235:10371   */\n      pop\n        /* \"#utility.yul\":10182:10371   */\n      pop\n      pop\n      jump\t// out\n        /* \"#utility.yul\":10377:10563   */\n    tag_88:\n        /* \"#utility.yul\":10437:10557   */\n    tag_207:\n        /* \"#utility.yul\":10454:10457   */\n      dup2\n        /* \"#utility.yul\":10447:10452   */\n      dup2\n        /* \"#utility.yul\":10444:10458   */\n      lt\n        /* \"#utility.yul\":10437:10557   */\n      iszero\n      tag_209\n      jumpi\n        /* \"#utility.yul\":10508:10547   */\n      tag_210\n        /* \"#utility.yul\":10545:10546   */\n      0x00\n        /* \"#utility.yul\":10538:10543   */\n      dup3\n        /* \"#utility.yul\":10508:10547   */\n      tag_87\n      jump\t// in\n    tag_210:\n        /* \"#utility.yul\":10481:10482   */\n      0x01\n        /* \"#utility.yul\":10474:10479   */\n      dup2\n        /* \"#utility.yul\":10470:10483   */\n      add\n        /* \"#utility.yul\":10461:10483   */\n      swap1\n      pop\n        /* \"#utility.yul\":10437:10557   */\n      jump(tag_207)\n    tag_209:\n        /* \"#utility.yul\":10377:10563   */\n      pop\n      pop\n      jump\t// out\n        /* \"#utility.yul\":10569:11112   */\n    tag_89:\n        /* \"#utility.yul\":10670:10672   */\n      0x1f\n        /* \"#utility.yul\":10665:10668   */\n      dup3\n        /* \"#utility.yul\":10662:10673   */\n      gt\n        /* \"#utility.yul\":10659:11105   */\n      iszero\n      tag_212\n      jumpi\n        /* \"#utility.yul\":10704:10742   */\n      tag_213\n        /* \"#utility.yul\":10736:10741   */\n      dup2\n        /* \"#utility.yul\":10704:10742   */\n      tag_78\n      jump\t// in\n    tag_213:\n        /* \"#utility.yul\":10788:10817   */\n      tag_214\n        /* \"#utility.yul\":10806:10816   */\n      dup5\n        /* \"#utility.yul\":10788:10817   */\n      tag_79\n      jump\t// in\n    tag_214:\n        /* \"#utility.yul\":10778:10786   */\n      dup2\n        /* \"#utility.yul\":10774:10818   */\n      add\n        /* \"#utility.yul\":10971:10973   */\n      0x20\n        /* \"#utility.yul\":10959:10969   */\n      dup6\n        /* \"#utility.yul\":10956:10974   */\n      lt\n        /* \"#utility.yul\":10953:11002   */\n      iszero\n      tag_215\n      jumpi\n        /* \"#utility.yul\":10992:11000   */\n      dup2\n        /* \"#utility.yul\":10977:11000   */\n      swap1\n      pop\n        /* \"#utility.yul\":10953:11002   */\n    tag_215:\n        /* \"#utility.yul\":11015:11095   */\n      tag_216\n        /* \"#utility.yul\":11071:11093   */\n      tag_217\n        /* \"#utility.yul\":11089:11092   */\n      dup6\n        /* \"#utility.yul\":11071:11093   */\n      tag_79\n      jump\t// in\n    tag_217:\n        /* \"#utility.yul\":11061:11069   */\n      dup4\n        /* \"#utility.yul\":11057:11094   */\n      add\n        /* \"#utility.yul\":11044:11055   */\n      dup3\n        /* \"#utility.yul\":11015:11095   */\n      tag_88\n      jump\t// in\n    tag_216:\n        /* \"#utility.yul\":10674:11105   */\n      pop\n      pop\n        /* \"#utility.yul\":10659:11105   */\n    tag_212:\n        /* \"#utility.yul\":10569:11112   */\n      pop\n      pop\n      pop\n      jump\t// out\n        /* \"#utility.yul\":11118:11235   */\n    tag_90:\n        /* \"#utility.yul\":11172:11180   */\n      0x00\n        /* \"#utility.yul\":11222:11227   */\n      dup3\n        /* \"#utility.yul\":11216:11220   */\n      dup3\n        /* \"#utility.yul\":11212:11228   */\n      shr\n        /* \"#utility.yul\":11191:11228   */\n      swap1\n      pop\n        /* \"#utility.yul\":11118:11235   */\n      swap3\n      swap2\n      pop\n      pop\n      jump\t// out\n        /* \"#utility.yul\":11241:11410   */\n    tag_91:\n        /* \"#utility.yul\":11285:11291   */\n      0x00\n        /* \"#utility.yul\":11318:11369   */\n      tag_220\n        /* \"#utility.yul\":11366:11367   */\n      0x00\n        /* \"#utility.yul\":11362:11368   */\n      not\n        /* \"#utility.yul\":11354:11359   */\n      dup5\n        /* \"#utility.yul\":11351:11352   */\n      0x08\n        /* \"#utility.yul\":11347:11360   */\n      mul\n        /* \"#utility.yul\":11318:11369   */\n      tag_90\n      jump\t// in\n    tag_220:\n        /* \"#utility.yul\":11314:11370   */\n      not\n        /* \"#utility.yul\":11399:11403   */\n      dup1\n        /* \"#utility.yul\":11393:11397   */\n      dup4\n        /* \"#utility.yul\":11389:11404   */\n      and\n        /* \"#utility.yul\":11379:11404   */\n      swap2\n      pop\n        /* \"#utility.yul\":11292:11410   */\n      pop\n        /* \"#utility.yul\":11241:11410   */\n      swap3\n      swap2\n      pop\n      pop\n      jump\t// out\n        /* \"#utility.yul\":11415:11710   */\n    tag_92:\n        /* \"#utility.yul\":11491:11495   */\n      0x00\n        /* \"#utility.yul\":11637:11666   */\n      tag_222\n        /* \"#utility.yul\":11662:11665   */\n      dup4\n        /* \"#utility.yul\":11656:11660   */\n      dup4\n        /* \"#utility.yul\":11637:11666   */\n      tag_91\n      jump\t// in\n    tag_222:\n        /* \"#utility.yul\":11629:11666   */\n      swap2\n      pop\n        /* \"#utility.yul\":11699:11702   */\n      dup3\n        /* \"#utility.yul\":11696:11697   */\n      0x02\n        /* \"#utility.yul\":11692:11703   */\n      mul\n        /* \"#utility.yul\":11686:11690   */\n      dup3\n        /* \"#utility.yul\":11683:11704   */\n      or\n        /* \"#utility.yul\":11675:11704   */\n      swap1\n      pop\n        /* \"#utility.yul\":11415:11710   */\n      swap3\n      swap2\n      pop\n      pop\n      jump\t// out\n        /* \"#utility.yul\":11715:13110   */\n    tag_46:\n        /* \"#utility.yul\":11832:11869   */\n      tag_224\n        /* \"#utility.yul\":11865:11868   */\n      dup3\n        /* \"#utility.yul\":11832:11869   */\n      tag_53\n      jump\t// in\n    tag_224:\n        /* \"#utility.yul\":11934:11952   */\n      0xffffffffffffffff\n        /* \"#utility.yul\":11926:11932   */\n      dup2\n        /* \"#utility.yul\":11923:11953   */\n      gt\n        /* \"#utility.yul\":11920:11976   */\n      iszero\n      tag_225\n      jumpi\n        /* \"#utility.yul\":11956:11974   */\n      tag_226\n      tag_68\n      jump\t// in\n    tag_226:\n        /* \"#utility.yul\":11920:11976   */\n    tag_225:\n        /* \"#utility.yul\":12000:12038   */\n      tag_227\n        /* \"#utility.yul\":12032:12036   */\n      dup3\n        /* \"#utility.yul\":12026:12037   */\n      sload\n        /* \"#utility.yul\":12000:12038   */\n      tag_24\n      jump\t// in\n    tag_227:\n        /* \"#utility.yul\":12085:12152   */\n      tag_228\n        /* \"#utility.yul\":12145:12151   */\n      dup3\n        /* \"#utility.yul\":12137:12143   */\n      dup3\n        /* \"#utility.yul\":12131:12135   */\n      dup6\n        /* \"#utility.yul\":12085:12152   */\n      tag_89\n      jump\t// in\n    tag_228:\n        /* \"#utility.yul\":12179:12180   */\n      0x00\n        /* \"#utility.yul\":12203:12207   */\n      0x20\n        /* \"#utility.yul\":12190:12207   */\n      swap1\n      pop\n        /* \"#utility.yul\":12235:12237   */\n      0x1f\n        /* \"#utility.yul\":12227:12233   */\n      dup4\n        /* \"#utility.yul\":12224:12238   */\n      gt\n        /* \"#utility.yul\":12252:12253   */\n      0x01\n        /* \"#utility.yul\":12247:12865   */\n      dup2\n      eq\n      tag_230\n      jumpi\n        /* \"#utility.yul\":12909:12910   */\n      0x00\n        /* \"#utility.yul\":12926:12932   */\n      dup5\n        /* \"#utility.yul\":12923:13000   */\n      iszero\n      tag_231\n      jumpi\n        /* \"#utility.yul\":12975:12984   */\n      dup3\n        /* \"#utility.yul\":12970:12973   */\n      dup8\n        /* \"#utility.yul\":12966:12985   */\n      add\n        /* \"#utility.yul\":12960:12986   */\n      mload\n        /* \"#utility.yul\":12951:12986   */\n      swap1\n      pop\n        /* \"#utility.yul\":12923:13000   */\n    tag_231:\n        /* \"#utility.yul\":13026:13093   */\n      tag_232\n        /* \"#utility.yul\":13086:13092   */\n      dup6\n        /* \"#utility.yul\":13079:13084   */\n      dup3\n        /* \"#utility.yul\":13026:13093   */\n      tag_92\n      jump\t// in\n    tag_232:\n        /* \"#utility.yul\":13020:13024   */\n      dup7\n        /* \"#utility.yul\":13013:13094   */\n      sstore\n        /* \"#utility.yul\":12882:13104   */\n      pop\n        /* \"#utility.yul\":12217:13104   */\n      jump(tag_229)\n        /* \"#utility.yul\":12247:12865   */\n    tag_230:\n        /* \"#utility.yul\":12299:12303   */\n      0x1f\n        /* \"#utility.yul\":12295:12304   */\n      not\n        /* \"#utility.yul\":12287:12293   */\n      dup5\n        /* \"#utility.yul\":12283:12305   */\n      and\n        /* \"#utility.yul\":12333:12370   */\n      tag_233\n        /* \"#utility.yul\":12365:12369   */\n      dup7\n        /* \"#utility.yul\":12333:12370   */\n      tag_78\n      jump\t// in\n    tag_233:\n        /* \"#utility.yul\":12392:12393   */\n      0x00\n        /* \"#utility.yul\":12406:12614   */\n    tag_234:\n        /* \"#utility.yul\":12420:12427   */\n      dup3\n        /* \"#utility.yul\":12417:12418   */\n      dup2\n        /* \"#utility.yul\":12414:12428   */\n      lt\n        /* \"#utility.yul\":12406:12614   */\n      iszero\n      tag_236\n      jumpi\n        /* \"#utility.yul\":12499:12508   */\n      dup5\n        /* \"#utility.yul\":12494:12497   */\n      dup10\n        /* \"#utility.yul\":12490:12509   */\n      add\n        /* \"#utility.yul\":12484:12510   */\n      mload\n        /* \"#utility.yul\":12476:12482   */\n      dup3\n        /* \"#utility.yul\":12469:12511   */\n      sstore\n        /* \"#utility.yul\":12550:12551   */\n      0x01\n        /* \"#utility.yul\":12542:12548   */\n      dup3\n        /* \"#utility.yul\":12538:12552   */\n      add\n        /* \"#utility.yul\":12528:12552   */\n      swap2\n      pop\n        /* \"#utility.yul\":12597:12599   */\n      0x20\n        /* \"#utility.yul\":12586:12595   */\n      dup6\n        /* \"#utility.yul\":12582:12600   */\n      add\n        /* \"#utility.yul\":12569:12600   */\n      swap5\n      pop\n        /* \"#utility.yul\":12443:12447   */\n      0x20\n        /* \"#utility.yul\":12440:12441   */\n      dup2\n        /* \"#utility.yul\":12436:12448   */\n      add\n        /* \"#utility.yul\":12431:12448   */\n      swap1\n      pop\n        /* \"#utility.yul\":12406:12614   */\n      jump(tag_234)\n    tag_236:\n        /* \"#utility.yul\":12642:12648   */\n      dup7\n        /* \"#utility.yul\":12633:12640   */\n      dup4\n        /* \"#utility.yul\":12630:12649   */\n      lt\n        /* \"#utility.yul\":12627:12806   */\n      iszero\n      tag_237\n      jumpi\n        /* \"#utility.yul\":12700:12709   */\n      dup5\n        /* \"#utility.yul\":12695:12698   */\n      dup10\n        /* \"#utility.yul\":12691:12710   */\n      add\n        /* \"#utility.yul\":12685:12711   */\n      mload\n        /* \"#utility.yul\":12743:12791   */\n      tag_238\n        /* \"#utility.yul\":12785:12789   */\n      0x1f\n        /* \"#utility.yul\":12777:12783   */\n      dup10\n        /* \"#utility.yul\":12773:12790   */\n      and\n        /* \"#utility.yul\":12762:12771   */\n      dup3\n        /* \"#utility.yul\":12743:12791   */\n      tag_91\n      jump\t// in\n    tag_238:\n        /* \"#utility.yul\":12735:12741   */\n      dup4\n        /* \"#utility.yul\":12728:12792   */\n      sstore\n        /* \"#utility.yul\":12650:12806   */\n      pop\n        /* \"#utility.yul\":12627:12806   */\n    tag_237:\n        /* \"#utility.yul\":12852:12853   */\n      0x01\n        /* \"#utility.yul\":12848:12849   */\n      0x02\n        /* \"#utility.yul\":12840:12846   */\n      dup9\n        /* \"#utility.yul\":12836:12850   */\n      mul\n        /* \"#utility.yul\":12832:12854   */\n      add\n        /* \"#utility.yul\":12826:12830   */\n      dup9\n        /* \"#utility.yul\":12819:12855   */\n      sstore\n        /* \"#utility.yul\":12254:12865   */\n      pop\n      pop\n      pop\n        /* \"#utility.yul\":12217:13104   */\n    tag_229:\n      pop\n        /* \"#utility.yul\":11807:13110   */\n      pop\n      pop\n      pop\n        /* \"#utility.yul\":11715:13110   */\n      pop\n      pop\n      jump\t// out\n\n    auxdata: 0xa26469706673582212209e77dd0813bd7d2cc08462c711cda154e88481638d1c967f49dc13f2e152139764736f6c634300081a0033\n}\n",
				"bytecode": {
					"linkReferences": {},
					"object": "6080604052348015600e575f80fd5b50610a178061001c5f395ff3fe608060405234801561000f575f80fd5b506004361061003f575f3560e01c8063448a8e1e14610043578063642f916314610075578063ce6695be146100a5575b5f80fd5b61005d60048036038101906100589190610342565b6100c1565b60405161006c93929190610406565b60405180910390f35b61008f600480360381019061008a9190610342565b61017f565b60405161009c91906104f5565b60405180910390f35b6100bf60048036038101906100ba919061066b565b610263565b005b5f81600381106100cf575f80fd5b600302015f91509050805f0180546100e690610718565b80601f016020809104026020016040519081016040528092919081815260200182805461011290610718565b801561015d5780601f106101345761010080835404028352916020019161015d565b820191905f5260205f20905b81548152906001019060200180831161014057829003601f168201915b505050505090806001015490806002015f9054906101000a900460ff16905083565b6101876102dd565b5f826003811061019a57610199610748565b5b600302016040518060600160405290815f820180546101b890610718565b80601f01602080910402602001604051908101604052809291908181526020018280546101e490610718565b801561022f5780601f106102065761010080835404028352916020019161022f565b820191905f5260205f20905b81548152906001019060200180831161021257829003601f168201915b5050505050815260200160018201548152602001600282015f9054906101000a900460ff1615151515815250509050919050565b60405180606001604052808481526020018381526020018215158152505f856003811061029357610292610748565b5b600302015f820151815f0190816102aa9190610912565b50602082015181600101556040820151816002015f6101000a81548160ff02191690831515021790555090505050505050565b6040518060600160405280606081526020015f81526020015f151581525090565b5f604051905090565b5f80fd5b5f80fd5b5f819050919050565b6103218161030f565b811461032b575f80fd5b50565b5f8135905061033c81610318565b92915050565b5f6020828403121561035757610356610307565b5b5f6103648482850161032e565b91505092915050565b5f81519050919050565b5f82825260208201905092915050565b8281835e5f83830152505050565b5f601f19601f8301169050919050565b5f6103af8261036d565b6103b98185610377565b93506103c9818560208601610387565b6103d281610395565b840191505092915050565b6103e68161030f565b82525050565b5f8115159050919050565b610400816103ec565b82525050565b5f6060820190508181035f83015261041e81866103a5565b905061042d60208301856103dd565b61043a60408301846103f7565b949350505050565b5f82825260208201905092915050565b5f61045c8261036d565b6104668185610442565b9350610476818560208601610387565b61047f81610395565b840191505092915050565b6104938161030f565b82525050565b6104a2816103ec565b82525050565b5f606083015f8301518482035f8601526104c28282610452565b91505060208301516104d7602086018261048a565b5060408301516104ea6040860182610499565b508091505092915050565b5f6020820190508181035f83015261050d81846104a8565b905092915050565b5f80fd5b5f80fd5b7f4e487b71000000000000000000000000000000000000000000000000000000005f52604160045260245ffd5b61055382610395565b810181811067ffffffffffffffff821117156105725761057161051d565b5b80604052505050565b5f6105846102fe565b9050610590828261054a565b919050565b5f67ffffffffffffffff8211156105af576105ae61051d565b5b6105b882610395565b9050602081019050919050565b828183375f83830152505050565b5f6105e56105e084610595565b61057b565b90508281526020810184848401111561060157610600610519565b5b61060c8482856105c5565b509392505050565b5f82601f83011261062857610627610515565b5b81356106388482602086016105d3565b91505092915050565b61064a816103ec565b8114610654575f80fd5b50565b5f8135905061066581610641565b92915050565b5f805f806080858703121561068357610682610307565b5b5f6106908782880161032e565b945050602085013567ffffffffffffffff8111156106b1576106b061030b565b5b6106bd87828801610614565b93505060406106ce8782880161032e565b92505060606106df87828801610657565b91505092959194509250565b7f4e487b71000000000000000000000000000000000000000000000000000000005f52602260045260245ffd5b5f600282049050600182168061072f57607f821691505b602082108103610742576107416106eb565b5b50919050565b7f4e487b71000000000000000000000000000000000000000000000000000000005f52603260045260245ffd5b5f819050815f5260205f209050919050565b5f6020601f8301049050919050565b5f82821b905092915050565b5f600883026107d17fffffffffffffffffffffffffffffffffffffffffffffffffffffffffffffffff82610796565b6107db8683610796565b95508019841693508086168417925050509392505050565b5f819050919050565b5f61081661081161080c8461030f565b6107f3565b61030f565b9050919050565b5f819050919050565b61082f836107fc565b61084361083b8261081d565b8484546107a2565b825550505050565b5f90565b61085761084b565b610862818484610826565b505050565b5b818110156108855761087a5f8261084f565b600181019050610868565b5050565b601f8211156108ca5761089b81610775565b6108a484610787565b810160208510156108b3578190505b6108c76108bf85610787565b830182610867565b50505b505050565b5f82821c905092915050565b5f6108ea5f19846008026108cf565b1980831691505092915050565b5f61090283836108db565b9150826002028217905092915050565b61091b8261036d565b67ffffffffffffffff8111156109345761093361051d565b5b61093e8254610718565b610949828285610889565b5f60209050601f83116001811461097a575f8415610968578287015190505b61097285826108f7565b8655506109d9565b601f19841661098886610775565b5f5b828110156109af5784890151825560018201915060208501945060208101905061098a565b868310156109cc57848901516109c8601f8916826108db565b8355505b6001600288020188555050505b50505050505056fea26469706673582212209e77dd0813bd7d2cc08462c711cda154e88481638d1c967f49dc13f2e152139764736f6c634300081a0033",
					"opcodes": "PUSH1 0x80 PUSH1 0x40 MSTORE CALLVALUE DUP1 ISZERO PUSH1 0xE JUMPI PUSH0 DUP1 REVERT JUMPDEST POP PUSH2 0xA17 DUP1 PUSH2 0x1C PUSH0 CODECOPY PUSH0 RETURN INVALID PUSH1 0x80 PUSH1 0x40 MSTORE CALLVALUE DUP1 ISZERO PUSH2 0xF JUMPI PUSH0 DUP1 REVERT JUMPDEST POP PUSH1 0x4 CALLDATASIZE LT PUSH2 0x3F JUMPI PUSH0 CALLDATALOAD PUSH1 0xE0 SHR DUP1 PUSH4 0x448A8E1E EQ PUSH2 0x43 JUMPI DUP1 PUSH4 0x642F9163 EQ PUSH2 0x75 JUMPI DUP1 PUSH4 0xCE6695BE EQ PUSH2 0xA5 JUMPI JUMPDEST PUSH0 DUP1 REVERT JUMPDEST PUSH2 0x5D PUSH1 0x4 DUP1 CALLDATASIZE SUB DUP2 ADD SWAP1 PUSH2 0x58 SWAP2 SWAP1 PUSH2 0x342 JUMP JUMPDEST PUSH2 0xC1 JUMP JUMPDEST PUSH1 0x40 MLOAD PUSH2 0x6C SWAP4 SWAP3 SWAP2 SWAP1 PUSH2 0x406 JUMP JUMPDEST PUSH1 0x40 MLOAD DUP1 SWAP2 SUB SWAP1 RETURN JUMPDEST PUSH2 0x8F PUSH1 0x4 DUP1 CALLDATASIZE SUB DUP2 ADD SWAP1 PUSH2 0x8A SWAP2 SWAP1 PUSH2 0x342 JUMP JUMPDEST PUSH2 0x17F JUMP JUMPDEST PUSH1 0x40 MLOAD PUSH2 0x9C SWAP2 SWAP1 PUSH2 0x4F5 JUMP JUMPDEST PUSH1 0x40 MLOAD DUP1 SWAP2 SUB SWAP1 RETURN JUMPDEST PUSH2 0xBF PUSH1 0x4 DUP1 CALLDATASIZE SUB DUP2 ADD SWAP1 PUSH2 0xBA SWAP2 SWAP1 PUSH2 0x66B JUMP JUMPDEST PUSH2 0x263 JUMP JUMPDEST STOP JUMPDEST PUSH0 DUP2 PUSH1 0x3 DUP2 LT PUSH2 0xCF JUMPI PUSH0 DUP1 REVERT JUMPDEST PUSH1 0x3 MUL ADD PUSH0 SWAP2 POP SWAP1 POP DUP1 PUSH0 ADD DUP1 SLOAD PUSH2 0xE6 SWAP1 PUSH2 0x718 JUMP JUMPDEST DUP1 PUSH1 0x1F ADD PUSH1 0x20 DUP1 SWAP2 DIV MUL PUSH1 0x20 ADD PUSH1 0x40 MLOAD SWAP1 DUP2 ADD PUSH1 0x40 MSTORE DUP1 SWAP3 SWAP2 SWAP1 DUP2 DUP2 MSTORE PUSH1 0x20 ADD DUP3 DUP1 SLOAD PUSH2 0x112 SWAP1 PUSH2 0x718 JUMP JUMPDEST DUP1 ISZERO PUSH2 0x15D JUMPI DUP1 PUSH1 0x1F LT PUSH2 0x134 JUMPI PUSH2 0x100 DUP1 DUP4 SLOAD DIV MUL DUP4 MSTORE SWAP2 PUSH1 0x20 ADD SWAP2 PUSH2 0x15D JUMP JUMPDEST DUP3 ADD SWAP2 SWAP1 PUSH0 MSTORE PUSH1 0x20 PUSH0 KECCAK256 SWAP1 JUMPDEST DUP2 SLOAD DUP2 MSTORE SWAP1 PUSH1 0x1 ADD SWAP1 PUSH1 0x20 ADD DUP1 DUP4 GT PUSH2 0x140 JUMPI DUP3 SWAP1 SUB PUSH1 0x1F AND DUP3 ADD SWAP2 JUMPDEST POP POP POP POP POP SWAP1 DUP1 PUSH1 0x1 ADD SLOAD SWAP1 DUP1 PUSH1 0x2 ADD PUSH0 SWAP1 SLOAD SWAP1 PUSH2 0x100 EXP SWAP1 DIV PUSH1 0xFF AND SWAP1 POP DUP4 JUMP JUMPDEST PUSH2 0x187 PUSH2 0x2DD JUMP JUMPDEST PUSH0 DUP3 PUSH1 0x3 DUP2 LT PUSH2 0x19A JUMPI PUSH2 0x199 PUSH2 0x748 JUMP JUMPDEST JUMPDEST PUSH1 0x3 MUL ADD PUSH1 0x40 MLOAD DUP1 PUSH1 0x60 ADD PUSH1 0x40 MSTORE SWAP1 DUP2 PUSH0 DUP3 ADD DUP1 SLOAD PUSH2 0x1B8 SWAP1 PUSH2 0x718 JUMP JUMPDEST DUP1 PUSH1 0x1F ADD PUSH1 0x20 DUP1 SWAP2 DIV MUL PUSH1 0x20 ADD PUSH1 0x40 MLOAD SWAP1 DUP2 ADD PUSH1 0x40 MSTORE DUP1 SWAP3 SWAP2 SWAP1 DUP2 DUP2 MSTORE PUSH1 0x20 ADD DUP3 DUP1 SLOAD PUSH2 0x1E4 SWAP1 PUSH2 0x718 JUMP JUMPDEST DUP1 ISZERO PUSH2 0x22F JUMPI DUP1 PUSH1 0x1F LT PUSH2 0x206 JUMPI PUSH2 0x100 DUP1 DUP4 SLOAD DIV MUL DUP4 MSTORE SWAP2 PUSH1 0x20 ADD SWAP2 PUSH2 0x22F JUMP JUMPDEST DUP3 ADD SWAP2 SWAP1 PUSH0 MSTORE PUSH1 0x20 PUSH0 KECCAK256 SWAP1 JUMPDEST DUP2 SLOAD DUP2 MSTORE SWAP1 PUSH1 0x1 ADD SWAP1 PUSH1 0x20 ADD DUP1 DUP4 GT PUSH2 0x212 JUMPI DUP3 SWAP1 SUB PUSH1 0x1F AND DUP3 ADD SWAP2 JUMPDEST POP POP POP POP POP DUP2 MSTORE PUSH1 0x20 ADD PUSH1 0x1 DUP3 ADD SLOAD DUP2 MSTORE PUSH1 0x20 ADD PUSH1 0x2 DUP3 ADD PUSH0 SWAP1 SLOAD SWAP1 PUSH2 0x100 EXP SWAP1 DIV PUSH1 0xFF AND ISZERO ISZERO ISZERO ISZERO DUP2 MSTORE POP POP SWAP1 POP SWAP2 SWAP1 POP JUMP JUMPDEST PUSH1 0x40 MLOAD DUP1 PUSH1 0x60 ADD PUSH1 0x40 MSTORE DUP1 DUP5 DUP2 MSTORE PUSH1 0x20 ADD DUP4 DUP2 MSTORE PUSH1 0x20 ADD DUP3 ISZERO ISZERO DUP2 MSTORE POP PUSH0 DUP6 PUSH1 0x3 DUP2 LT PUSH2 0x293 JUMPI PUSH2 0x292 PUSH2 0x748 JUMP JUMPDEST JUMPDEST PUSH1 0x3 MUL ADD PUSH0 DUP3 ADD MLOAD DUP2 PUSH0 ADD SWAP1 DUP2 PUSH2 0x2AA SWAP2 SWAP1 PUSH2 0x912 JUMP JUMPDEST POP PUSH1 0x20 DUP3 ADD MLOAD DUP2 PUSH1 0x1 ADD SSTORE PUSH1 0x40 DUP3 ADD MLOAD DUP2 PUSH1 0x2 ADD PUSH0 PUSH2 0x100 EXP DUP2 SLOAD DUP2 PUSH1 0xFF MUL NOT AND SWAP1 DUP4 ISZERO ISZERO MUL OR SWAP1 SSTORE POP SWAP1 POP POP POP POP POP POP JUMP JUMPDEST PUSH1 0x40 MLOAD DUP1 PUSH1 0x60 ADD PUSH1 0x40 MSTORE DUP1 PUSH1 0x60 DUP2 MSTORE PUSH1 0x20 ADD PUSH0 DUP2 MSTORE PUSH1 0x20 ADD PUSH0 ISZERO ISZERO DUP2 MSTORE POP SWAP1 JUMP JUMPDEST PUSH0 PUSH1 0x40 MLOAD SWAP1 POP SWAP1 JUMP JUMPDEST PUSH0 DUP1 REVERT JUMPDEST PUSH0 DUP1 REVERT JUMPDEST PUSH0 DUP2 SWAP1 POP SWAP2 SWAP1 POP JUMP JUMPDEST PUSH2 0x321 DUP2 PUSH2 0x30F JUMP JUMPDEST DUP2 EQ PUSH2 0x32B JUMPI PUSH0 DUP1 REVERT JUMPDEST POP JUMP JUMPDEST PUSH0 DUP2 CALLDATALOAD SWAP1 POP PUSH2 0x33C DUP2 PUSH2 0x318 JUMP JUMPDEST SWAP3 SWAP2 POP POP JUMP JUMPDEST PUSH0 PUSH1 0x20 DUP3 DUP5 SUB SLT ISZERO PUSH2 0x357 JUMPI PUSH2 0x356 PUSH2 0x307 JUMP JUMPDEST JUMPDEST PUSH0 PUSH2 0x364 DUP5 DUP3 DUP6 ADD PUSH2 0x32E JUMP JUMPDEST SWAP2 POP POP SWAP3 SWAP2 POP POP JUMP JUMPDEST PUSH0 DUP2 MLOAD SWAP1 POP SWAP2 SWAP1 POP JUMP JUMPDEST PUSH0 DUP3 DUP3 MSTORE PUSH1 0x20 DUP3 ADD SWAP1 POP SWAP3 SWAP2 POP POP JUMP JUMPDEST DUP3 DUP2 DUP4 MCOPY PUSH0 DUP4 DUP4 ADD MSTORE POP POP POP JUMP JUMPDEST PUSH0 PUSH1 0x1F NOT PUSH1 0x1F DUP4 ADD AND SWAP1 POP SWAP2 SWAP1 POP JUMP JUMPDEST PUSH0 PUSH2 0x3AF DUP3 PUSH2 0x36D JUMP JUMPDEST PUSH2 0x3B9 DUP2 DUP6 PUSH2 0x377 JUMP JUMPDEST SWAP4 POP PUSH2 0x3C9 DUP2 DUP6 PUSH1 0x20 DUP7 ADD PUSH2 0x387 JUMP JUMPDEST PUSH2 0x3D2 DUP2 PUSH2 0x395 JUMP JUMPDEST DUP5 ADD SWAP2 POP POP SWAP3 SWAP2 POP POP JUMP JUMPDEST PUSH2 0x3E6 DUP2 PUSH2 0x30F JUMP JUMPDEST DUP3 MSTORE POP POP JUMP JUMPDEST PUSH0 DUP2 ISZERO ISZERO SWAP1 POP SWAP2 SWAP1 POP JUMP JUMPDEST PUSH2 0x400 DUP2 PUSH2 0x3EC JUMP JUMPDEST DUP3 MSTORE POP POP JUMP JUMPDEST PUSH0 PUSH1 0x60 DUP3 ADD SWAP1 POP DUP2 DUP2 SUB PUSH0 DUP4 ADD MSTORE PUSH2 0x41E DUP2 DUP7 PUSH2 0x3A5 JUMP JUMPDEST SWAP1 POP PUSH2 0x42D PUSH1 0x20 DUP4 ADD DUP6 PUSH2 0x3DD JUMP JUMPDEST PUSH2 0x43A PUSH1 0x40 DUP4 ADD DUP5 PUSH2 0x3F7 JUMP JUMPDEST SWAP5 SWAP4 POP POP POP POP JUMP JUMPDEST PUSH0 DUP3 DUP3 MSTORE PUSH1 0x20 DUP3 ADD SWAP1 POP SWAP3 SWAP2 POP POP JUMP JUMPDEST PUSH0 PUSH2 0x45C DUP3 PUSH2 0x36D JUMP JUMPDEST PUSH2 0x466 DUP2 DUP6 PUSH2 0x442 JUMP JUMPDEST SWAP4 POP PUSH2 0x476 DUP2 DUP6 PUSH1 0x20 DUP7 ADD PUSH2 0x387 JUMP JUMPDEST PUSH2 0x47F DUP2 PUSH2 0x395 JUMP JUMPDEST DUP5 ADD SWAP2 POP POP SWAP3 SWAP2 POP POP JUMP JUMPDEST PUSH2 0x493 DUP2 PUSH2 0x30F JUMP JUMPDEST DUP3 MSTORE POP POP JUMP JUMPDEST PUSH2 0x4A2 DUP2 PUSH2 0x3EC JUMP JUMPDEST DUP3 MSTORE POP POP JUMP JUMPDEST PUSH0 PUSH1 0x60 DUP4 ADD PUSH0 DUP4 ADD MLOAD DUP5 DUP3 SUB PUSH0 DUP7 ADD MSTORE PUSH2 0x4C2 DUP3 DUP3 PUSH2 0x452 JUMP JUMPDEST SWAP2 POP POP PUSH1 0x20 DUP4 ADD MLOAD PUSH2 0x4D7 PUSH1 0x20 DUP7 ADD DUP3 PUSH2 0x48A JUMP JUMPDEST POP PUSH1 0x40 DUP4 ADD MLOAD PUSH2 0x4EA PUSH1 0x40 DUP7 ADD DUP3 PUSH2 0x499 JUMP JUMPDEST POP DUP1 SWAP2 POP POP SWAP3 SWAP2 POP POP JUMP JUMPDEST PUSH0 PUSH1 0x20 DUP3 ADD SWAP1 POP DUP2 DUP2 SUB PUSH0 DUP4 ADD MSTORE PUSH2 0x50D DUP2 DUP5 PUSH2 0x4A8 JUMP JUMPDEST SWAP1 POP SWAP3 SWAP2 POP POP JUMP JUMPDEST PUSH0 DUP1 REVERT JUMPDEST PUSH0 DUP1 REVERT JUMPDEST PUSH32 0x4E487B7100000000000000000000000000000000000000000000000000000000 PUSH0 MSTORE PUSH1 0x41 PUSH1 0x4 MSTORE PUSH1 0x24 PUSH0 REVERT JUMPDEST PUSH2 0x553 DUP3 PUSH2 0x395 JUMP JUMPDEST DUP2 ADD DUP2 DUP2 LT PUSH8 0xFFFFFFFFFFFFFFFF DUP3 GT OR ISZERO PUSH2 0x572 JUMPI PUSH2 0x571 PUSH2 0x51D JUMP JUMPDEST JUMPDEST DUP1 PUSH1 0x40 MSTORE POP POP POP JUMP JUMPDEST PUSH0 PUSH2 0x584 PUSH2 0x2FE JUMP JUMPDEST SWAP1 POP PUSH2 0x590 DUP3 DUP3 PUSH2 0x54A JUMP JUMPDEST SWAP2 SWAP1 POP JUMP JUMPDEST PUSH0 PUSH8 0xFFFFFFFFFFFFFFFF DUP3 GT ISZERO PUSH2 0x5AF JUMPI PUSH2 0x5AE PUSH2 0x51D JUMP JUMPDEST JUMPDEST PUSH2 0x5B8 DUP3 PUSH2 0x395 JUMP JUMPDEST SWAP1 POP PUSH1 0x20 DUP2 ADD SWAP1 POP SWAP2 SWAP1 POP JUMP JUMPDEST DUP3 DUP2 DUP4 CALLDATACOPY PUSH0 DUP4 DUP4 ADD MSTORE POP POP POP JUMP JUMPDEST PUSH0 PUSH2 0x5E5 PUSH2 0x5E0 DUP5 PUSH2 0x595 JUMP JUMPDEST PUSH2 0x57B JUMP JUMPDEST SWAP1 POP DUP3 DUP2 MSTORE PUSH1 0x20 DUP2 ADD DUP5 DUP5 DUP5 ADD GT ISZERO PUSH2 0x601 JUMPI PUSH2 0x600 PUSH2 0x519 JUMP JUMPDEST JUMPDEST PUSH2 0x60C DUP5 DUP3 DUP6 PUSH2 0x5C5 JUMP JUMPDEST POP SWAP4 SWAP3 POP POP POP JUMP JUMPDEST PUSH0 DUP3 PUSH1 0x1F DUP4 ADD SLT PUSH2 0x628 JUMPI PUSH2 0x627 PUSH2 0x515 JUMP JUMPDEST JUMPDEST DUP2 CALLDATALOAD PUSH2 0x638 DUP5 DUP3 PUSH1 0x20 DUP7 ADD PUSH2 0x5D3 JUMP JUMPDEST SWAP2 POP POP SWAP3 SWAP2 POP POP JUMP JUMPDEST PUSH2 0x64A DUP2 PUSH2 0x3EC JUMP JUMPDEST DUP2 EQ PUSH2 0x654 JUMPI PUSH0 DUP1 REVERT JUMPDEST POP JUMP JUMPDEST PUSH0 DUP2 CALLDATALOAD SWAP1 POP PUSH2 0x665 DUP2 PUSH2 0x641 JUMP JUMPDEST SWAP3 SWAP2 POP POP JUMP JUMPDEST PUSH0 DUP1 PUSH0 DUP1 PUSH1 0x80 DUP6 DUP8 SUB SLT ISZERO PUSH2 0x683 JUMPI PUSH2 0x682 PUSH2 0x307 JUMP JUMPDEST JUMPDEST PUSH0 PUSH2 0x690 DUP8 DUP3 DUP9 ADD PUSH2 0x32E JUMP JUMPDEST SWAP5 POP POP PUSH1 0x20 DUP6 ADD CALLDATALOAD PUSH8 0xFFFFFFFFFFFFFFFF DUP2 GT ISZERO PUSH2 0x6B1 JUMPI PUSH2 0x6B0 PUSH2 0x30B JUMP JUMPDEST JUMPDEST PUSH2 0x6BD DUP8 DUP3 DUP9 ADD PUSH2 0x614 JUMP JUMPDEST SWAP4 POP POP PUSH1 0x40 PUSH2 0x6CE DUP8 DUP3 DUP9 ADD PUSH2 0x32E JUMP JUMPDEST SWAP3 POP POP PUSH1 0x60 PUSH2 0x6DF DUP8 DUP3 DUP9 ADD PUSH2 0x657 JUMP JUMPDEST SWAP2 POP POP SWAP3 SWAP6 SWAP2 SWAP5 POP SWAP3 POP JUMP JUMPDEST PUSH32 0x4E487B7100000000000000000000000000000000000000000000000000000000 PUSH0 MSTORE PUSH1 0x22 PUSH1 0x4 MSTORE PUSH1 0x24 PUSH0 REVERT JUMPDEST PUSH0 PUSH1 0x2 DUP3 DIV SWAP1 POP PUSH1 0x1 DUP3 AND DUP1 PUSH2 0x72F JUMPI PUSH1 0x7F DUP3 AND SWAP2 POP JUMPDEST PUSH1 0x20 DUP3 LT DUP2 SUB PUSH2 0x742 JUMPI PUSH2 0x741 PUSH2 0x6EB JUMP JUMPDEST JUMPDEST POP SWAP2 SWAP1 POP JUMP JUMPDEST PUSH32 0x4E487B7100000000000000000000000000000000000000000000000000000000 PUSH0 MSTORE PUSH1 0x32 PUSH1 0x4 MSTORE PUSH1 0x24 PUSH0 REVERT JUMPDEST PUSH0 DUP2 SWAP1 POP DUP2 PUSH0 MSTORE PUSH1 0x20 PUSH0 KECCAK256 SWAP1 POP SWAP2 SWAP1 POP JUMP JUMPDEST PUSH0 PUSH1 0x20 PUSH1 0x1F DUP4 ADD DIV SWAP1 POP SWAP2 SWAP1 POP JUMP JUMPDEST PUSH0 DUP3 DUP3 SHL SWAP1 POP SWAP3 SWAP2 POP POP JUMP JUMPDEST PUSH0 PUSH1 0x8 DUP4 MUL PUSH2 0x7D1 PUSH32 0xFFFFFFFFFFFFFFFFFFFFFFFFFFFFFFFFFFFFFFFFFFFFFFFFFFFFFFFFFFFFFFFF DUP3 PUSH2 0x796 JUMP JUMPDEST PUSH2 0x7DB DUP7 DUP4 PUSH2 0x796 JUMP JUMPDEST SWAP6 POP DUP1 NOT DUP5 AND SWAP4 POP DUP1 DUP7 AND DUP5 OR SWAP3 POP POP POP SWAP4 SWAP3 POP POP POP JUMP JUMPDEST PUSH0 DUP2 SWAP1 POP SWAP2 SWAP1 POP JUMP JUMPDEST PUSH0 PUSH2 0x816 PUSH2 0x811 PUSH2 0x80C DUP5 PUSH2 0x30F JUMP JUMPDEST PUSH2 0x7F3 JUMP JUMPDEST PUSH2 0x30F JUMP JUMPDEST SWAP1 POP SWAP2 SWAP1 POP JUMP JUMPDEST PUSH0 DUP2 SWAP1 POP SWAP2 SWAP1 POP JUMP JUMPDEST PUSH2 0x82F DUP4 PUSH2 0x7FC JUMP JUMPDEST PUSH2 0x843 PUSH2 0x83B DUP3 PUSH2 0x81D JUMP JUMPDEST DUP5 DUP5 SLOAD PUSH2 0x7A2 JUMP JUMPDEST DUP3 SSTORE POP POP POP POP JUMP JUMPDEST PUSH0 SWAP1 JUMP JUMPDEST PUSH2 0x857 PUSH2 0x84B JUMP JUMPDEST PUSH2 0x862 DUP2 DUP5 DUP5 PUSH2 0x826 JUMP JUMPDEST POP POP POP JUMP JUMPDEST JUMPDEST DUP2 DUP2 LT ISZERO PUSH2 0x885 JUMPI PUSH2 0x87A PUSH0 DUP3 PUSH2 0x84F JUMP JUMPDEST PUSH1 0x1 DUP2 ADD SWAP1 POP PUSH2 0x868 JUMP JUMPDEST POP POP JUMP JUMPDEST PUSH1 0x1F DUP3 GT ISZERO PUSH2 0x8CA JUMPI PUSH2 0x89B DUP2 PUSH2 0x775 JUMP JUMPDEST PUSH2 0x8A4 DUP5 PUSH2 0x787 JUMP JUMPDEST DUP2 ADD PUSH1 0x20 DUP6 LT ISZERO PUSH2 0x8B3 JUMPI DUP2 SWAP1 POP JUMPDEST PUSH2 0x8C7 PUSH2 0x8BF DUP6 PUSH2 0x787 JUMP JUMPDEST DUP4 ADD DUP3 PUSH2 0x867 JUMP JUMPDEST POP POP JUMPDEST POP POP POP JUMP JUMPDEST PUSH0 DUP3 DUP3 SHR SWAP1 POP SWAP3 SWAP2 POP POP JUMP JUMPDEST PUSH0 PUSH2 0x8EA PUSH0 NOT DUP5 PUSH1 0x8 MUL PUSH2 0x8CF JUMP JUMPDEST NOT DUP1 DUP4 AND SWAP2 POP POP SWAP3 SWAP2 POP POP JUMP JUMPDEST PUSH0 PUSH2 0x902 DUP4 DUP4 PUSH2 0x8DB JUMP JUMPDEST SWAP2 POP DUP3 PUSH1 0x2 MUL DUP3 OR SWAP1 POP SWAP3 SWAP2 POP POP JUMP JUMPDEST PUSH2 0x91B DUP3 PUSH2 0x36D JUMP JUMPDEST PUSH8 0xFFFFFFFFFFFFFFFF DUP2 GT ISZERO PUSH2 0x934 JUMPI PUSH2 0x933 PUSH2 0x51D JUMP JUMPDEST JUMPDEST PUSH2 0x93E DUP3 SLOAD PUSH2 0x718 JUMP JUMPDEST PUSH2 0x949 DUP3 DUP3 DUP6 PUSH2 0x889 JUMP JUMPDEST PUSH0 PUSH1 0x20 SWAP1 POP PUSH1 0x1F DUP4 GT PUSH1 0x1 DUP2 EQ PUSH2 0x97A JUMPI PUSH0 DUP5 ISZERO PUSH2 0x968 JUMPI DUP3 DUP8 ADD MLOAD SWAP1 POP JUMPDEST PUSH2 0x972 DUP6 DUP3 PUSH2 0x8F7 JUMP JUMPDEST DUP7 SSTORE POP PUSH2 0x9D9 JUMP JUMPDEST PUSH1 0x1F NOT DUP5 AND PUSH2 0x988 DUP7 PUSH2 0x775 JUMP JUMPDEST PUSH0 JUMPDEST DUP3 DUP2 LT ISZERO PUSH2 0x9AF JUMPI DUP5 DUP10 ADD MLOAD DUP3 SSTORE PUSH1 0x1 DUP3 ADD SWAP2 POP PUSH1 0x20 DUP6 ADD SWAP5 POP PUSH1 0x20 DUP2 ADD SWAP1 POP PUSH2 0x98A JUMP JUMPDEST DUP7 DUP4 LT ISZERO PUSH2 0x9CC JUMPI DUP5 DUP10 ADD MLOAD PUSH2 0x9C8 PUSH1 0x1F DUP10 AND DUP3 PUSH2 0x8DB JUMP JUMPDEST DUP4 SSTORE POP JUMPDEST PUSH1 0x1 PUSH1 0x2 DUP9 MUL ADD DUP9 SSTORE POP POP POP JUMPDEST POP POP POP POP POP POP JUMP INVALID LOG2 PUSH5 0x6970667358 0x22 SLT KECCAK256 SWAP15 PUSH24 0xDD0813BD7D2CC08462C711CDA154E88481638D1C967F49DC SGT CALLCODE 0xE1 MSTORE SGT SWAP8 PUSH5 0x736F6C6343 STOP ADDMOD BYTE STOP CALLER "
				},
				"gasEstimates": {
					"creation": {
						"codeDepositCost": "516600",
						"executionCost": "547",
						"totalCost": "517147"
					},
					"external": {
						"getStudent(uint256)": "infinite",
						"s1(uint256)": "infinite",
						"setStudent(uint256,string,uint256,bool)": "infinite"
					}
				},
				"methodIdentifiers": {
					"getStudent(uint256)": "642f9163",
					"s1(uint256)": "448a8e1e",
					"setStudent(uint256,string,uint256,bool)": "ce6695be"
				}
			},
			"storageLayout": {
				"storage": [
					{
						"astId": 13,
						"contract": "Solidity Basic/Array Of Struct.sol:ArrayOfStruct",
						"label": "s1",
						"offset": 0,
						"slot": "0",
						"type": "t_array(t_struct(Student)8_storage)3_storage"
					}
				],
				"types": {
					"t_array(t_struct(Student)8_storage)3_storage": {
						"base": "t_struct(Student)8_storage",
						"encoding": "inplace",
						"label": "struct ArrayOfStruct.Student[3]",
						"numberOfBytes": "288"
					},
					"t_bool": {
						"encoding": "inplace",
						"label": "bool",
						"numberOfBytes": "1"
					},
					"t_string_storage": {
						"encoding": "bytes",
						"label": "string",
						"numberOfBytes": "32"
					},
					"t_struct(Student)8_storage": {
						"encoding": "inplace",
						"label": "struct ArrayOfStruct.Student",
						"members": [
							{
								"astId": 3,
								"contract": "Solidity Basic/Array Of Struct.sol:ArrayOfStruct",
								"label": "name",
								"offset": 0,
								"slot": "0",
								"type": "t_string_storage"
							},
							{
								"astId": 5,
								"contract": "Solidity Basic/Array Of Struct.sol:ArrayOfStruct",
								"label": "age",
								"offset": 0,
								"slot": "1",
								"type": "t_uint256"
							},
							{
								"astId": 7,
								"contract": "Solidity Basic/Array Of Struct.sol:ArrayOfStruct",
								"label": "pass",
								"offset": 0,
								"slot": "2",
								"type": "t_bool"
							}
						],
						"numberOfBytes": "96"
					},
					"t_uint256": {
						"encoding": "inplace",
						"label": "uint256",
						"numberOfBytes": "32"
					}
				}
			},
			"userdoc": {
				"kind": "user",
				"methods": {},
				"version": 1
			}
		}
	}
}