{
	"Solidity Basic/Event.sol": {
		"Event": {
			"abi": [
				{
					"anonymous": false,
					"inputs": [
						{
							"indexed": true,
							"internalType": "address",
							"name": "sender",
							"type": "address"
						},
						{
							"indexed": false,
							"internalType": "uint256",
							"name": "val",
							"type": "uint256"
						}
					],
					"name": "IndexedLog",
					"type": "event"
				},
				{
					"anonymous": false,
					"inputs": [
						{
							"indexed": false,
							"internalType": "string",
							"name": "message",
							"type": "string"
						},
						{
							"indexed": false,
							"internalType": "uint256",
							"name": "value",
							"type": "uint256"
						}
					],
					"name": "Log",
					"type": "event"
				},
				{
					"anonymous": false,
					"inputs": [
						{
							"indexed": true,
							"internalType": "address",
							"name": "_from",
							"type": "address"
						},
						{
							"indexed": true,
							"internalType": "address",
							"name": "_to",
							"type": "address"
						},
						{
							"indexed": false,
							"internalType": "string",
							"name": "message",
							"type": "string"
						}
					],
					"name": "SimpleEvent",
					"type": "event"
				},
				{
					"inputs": [],
					"name": "example",
					"outputs": [],
					"stateMutability": "nonpayable",
					"type": "function"
				},
				{
					"inputs": [
						{
							"internalType": "address",
							"name": "_to",
							"type": "address"
						},
						{
							"internalType": "string",
							"name": "message",
							"type": "string"
						}
					],
					"name": "simple",
					"outputs": [],
					"stateMutability": "nonpayable",
					"type": "function"
				}
			],
			"devdoc": {
				"kind": "dev",
				"methods": {},
				"version": 1
			},
			"evm": {
				"assembly": "    /* \"Solidity Basic/Event.sol\":60:579  contract Event {... */\n  mstore(0x40, 0x80)\n  callvalue\n  dup1\n  iszero\n  tag_1\n  jumpi\n  0x00\n  dup1\n  revert\ntag_1:\n  pop\n  dataSize(sub_0)\n  dup1\n  dataOffset(sub_0)\n  0x00\n  codecopy\n  0x00\n  return\nstop\n\nsub_0: assembly {\n        /* \"Solidity Basic/Event.sol\":60:579  contract Event {... */\n      mstore(0x40, 0x80)\n      callvalue\n      dup1\n      iszero\n      tag_1\n      jumpi\n      0x00\n      dup1\n      revert\n    tag_1:\n      pop\n      jumpi(tag_2, lt(calldatasize, 0x04))\n      shr(0xe0, calldataload(0x00))\n      dup1\n      0x54353f2f\n      eq\n      tag_3\n      jumpi\n      dup1\n      0xa0868b72\n      eq\n      tag_4\n      jumpi\n    tag_2:\n      0x00\n      dup1\n      revert\n        /* \"Solidity Basic/Event.sol\":222:354  function example() external {... */\n    tag_3:\n      tag_5\n      tag_6\n      jump\t// in\n    tag_5:\n      stop\n        /* \"Solidity Basic/Event.sol\":452:576  function simple(address _to, string calldata message) external {... */\n    tag_4:\n      tag_7\n      0x04\n      dup1\n      calldatasize\n      sub\n      dup2\n      add\n      swap1\n      tag_8\n      swap2\n      swap1\n      tag_9\n      jump\t// in\n    tag_8:\n      tag_10\n      jump\t// in\n    tag_7:\n      stop\n        /* \"Solidity Basic/Event.sol\":222:354  function example() external {... */\n    tag_6:\n        /* \"Solidity Basic/Event.sol\":266:301  Log(\"Hello World\", block.timestamp) */\n      0xdd970dd9b5bfe707922155b058a407655cb18288b807e2216442bca8ad83d6b5\n        /* \"Solidity Basic/Event.sol\":285:300  block.timestamp */\n      timestamp\n        /* \"Solidity Basic/Event.sol\":266:301  Log(\"Hello World\", block.timestamp) */\n      mload(0x40)\n      tag_12\n      swap2\n      swap1\n      tag_13\n      jump\t// in\n    tag_12:\n      mload(0x40)\n      dup1\n      swap2\n      sub\n      swap1\n      log1\n        /* \"Solidity Basic/Event.sol\":328:338  msg.sender */\n      caller\n        /* \"Solidity Basic/Event.sol\":317:346  IndexedLog(msg.sender, 12345) */\n      0xffffffffffffffffffffffffffffffffffffffff\n      and\n      0x919a4e0615aef45fd56105241973bd25f287f1040399e7c9f97fa2ca1c2b5174\n        /* \"Solidity Basic/Event.sol\":340:345  12345 */\n      0x3039\n        /* \"Solidity Basic/Event.sol\":317:346  IndexedLog(msg.sender, 12345) */\n      mload(0x40)\n      tag_14\n      swap2\n      swap1\n      tag_15\n      jump\t// in\n    tag_14:\n      mload(0x40)\n      dup1\n      swap2\n      sub\n      swap1\n      log2\n        /* \"Solidity Basic/Event.sol\":222:354  function example() external {... */\n      jump\t// out\n        /* \"Solidity Basic/Event.sol\":452:576  function simple(address _to, string calldata message) external {... */\n    tag_10:\n        /* \"Solidity Basic/Event.sol\":555:558  _to */\n      dup3\n        /* \"Solidity Basic/Event.sol\":531:568  SimpleEvent(msg.sender, _to, message) */\n      0xffffffffffffffffffffffffffffffffffffffff\n      and\n        /* \"Solidity Basic/Event.sol\":543:553  msg.sender */\n      caller\n        /* \"Solidity Basic/Event.sol\":531:568  SimpleEvent(msg.sender, _to, message) */\n      0xffffffffffffffffffffffffffffffffffffffff\n      and\n      0x7a7af472d40445802baf9a642269657e491d0e9f9c07d11f4276f98d29ebd2d4\n        /* \"Solidity Basic/Event.sol\":560:567  message */\n      dup5\n      dup5\n        /* \"Solidity Basic/Event.sol\":531:568  SimpleEvent(msg.sender, _to, message) */\n      mload(0x40)\n      tag_17\n      swap3\n      swap2\n      swap1\n      tag_18\n      jump\t// in\n    tag_17:\n      mload(0x40)\n      dup1\n      swap2\n      sub\n      swap1\n      log3\n        /* \"Solidity Basic/Event.sol\":452:576  function simple(address _to, string calldata message) external {... */\n      pop\n      pop\n      pop\n      jump\t// out\n        /* \"#utility.yul\":88:205   */\n    tag_20:\n        /* \"#utility.yul\":197:198   */\n      0x00\n        /* \"#utility.yul\":194:195   */\n      dup1\n        /* \"#utility.yul\":187:199   */\n      revert\n        /* \"#utility.yul\":211:328   */\n    tag_21:\n        /* \"#utility.yul\":320:321   */\n      0x00\n        /* \"#utility.yul\":317:318   */\n      dup1\n        /* \"#utility.yul\":310:322   */\n      revert\n        /* \"#utility.yul\":334:460   */\n    tag_22:\n        /* \"#utility.yul\":371:378   */\n      0x00\n        /* \"#utility.yul\":411:453   */\n      0xffffffffffffffffffffffffffffffffffffffff\n        /* \"#utility.yul\":404:409   */\n      dup3\n        /* \"#utility.yul\":400:454   */\n      and\n        /* \"#utility.yul\":389:454   */\n      swap1\n      pop\n        /* \"#utility.yul\":334:460   */\n      swap2\n      swap1\n      pop\n      jump\t// out\n        /* \"#utility.yul\":466:562   */\n    tag_23:\n        /* \"#utility.yul\":503:510   */\n      0x00\n        /* \"#utility.yul\":532:556   */\n      tag_48\n        /* \"#utility.yul\":550:555   */\n      dup3\n        /* \"#utility.yul\":532:556   */\n      tag_22\n      jump\t// in\n    tag_48:\n        /* \"#utility.yul\":521:556   */\n      swap1\n      pop\n        /* \"#utility.yul\":466:562   */\n      swap2\n      swap1\n      pop\n      jump\t// out\n        /* \"#utility.yul\":568:690   */\n    tag_24:\n        /* \"#utility.yul\":641:665   */\n      tag_50\n        /* \"#utility.yul\":659:664   */\n      dup2\n        /* \"#utility.yul\":641:665   */\n      tag_23\n      jump\t// in\n    tag_50:\n        /* \"#utility.yul\":634:639   */\n      dup2\n        /* \"#utility.yul\":631:666   */\n      eq\n        /* \"#utility.yul\":621:684   */\n      tag_51\n      jumpi\n        /* \"#utility.yul\":680:681   */\n      0x00\n        /* \"#utility.yul\":677:678   */\n      dup1\n        /* \"#utility.yul\":670:682   */\n      revert\n        /* \"#utility.yul\":621:684   */\n    tag_51:\n        /* \"#utility.yul\":568:690   */\n      pop\n      jump\t// out\n        /* \"#utility.yul\":696:835   */\n    tag_25:\n        /* \"#utility.yul\":742:747   */\n      0x00\n        /* \"#utility.yul\":780:786   */\n      dup2\n        /* \"#utility.yul\":767:787   */\n      calldataload\n        /* \"#utility.yul\":758:787   */\n      swap1\n      pop\n        /* \"#utility.yul\":796:829   */\n      tag_53\n        /* \"#utility.yul\":823:828   */\n      dup2\n        /* \"#utility.yul\":796:829   */\n      tag_24\n      jump\t// in\n    tag_53:\n        /* \"#utility.yul\":696:835   */\n      swap3\n      swap2\n      pop\n      pop\n      jump\t// out\n        /* \"#utility.yul\":841:958   */\n    tag_26:\n        /* \"#utility.yul\":950:951   */\n      0x00\n        /* \"#utility.yul\":947:948   */\n      dup1\n        /* \"#utility.yul\":940:952   */\n      revert\n        /* \"#utility.yul\":964:1081   */\n    tag_27:\n        /* \"#utility.yul\":1073:1074   */\n      0x00\n        /* \"#utility.yul\":1070:1071   */\n      dup1\n        /* \"#utility.yul\":1063:1075   */\n      revert\n        /* \"#utility.yul\":1087:1204   */\n    tag_28:\n        /* \"#utility.yul\":1196:1197   */\n      0x00\n        /* \"#utility.yul\":1193:1194   */\n      dup1\n        /* \"#utility.yul\":1186:1198   */\n      revert\n        /* \"#utility.yul\":1224:1777   */\n    tag_29:\n        /* \"#utility.yul\":1282:1290   */\n      0x00\n        /* \"#utility.yul\":1292:1298   */\n      dup1\n        /* \"#utility.yul\":1342:1345   */\n      dup4\n        /* \"#utility.yul\":1335:1339   */\n      0x1f\n        /* \"#utility.yul\":1327:1333   */\n      dup5\n        /* \"#utility.yul\":1323:1340   */\n      add\n        /* \"#utility.yul\":1319:1346   */\n      slt\n        /* \"#utility.yul\":1309:1431   */\n      tag_58\n      jumpi\n        /* \"#utility.yul\":1350:1429   */\n      tag_59\n      tag_26\n      jump\t// in\n    tag_59:\n        /* \"#utility.yul\":1309:1431   */\n    tag_58:\n        /* \"#utility.yul\":1463:1469   */\n      dup3\n        /* \"#utility.yul\":1450:1470   */\n      calldataload\n        /* \"#utility.yul\":1440:1470   */\n      swap1\n      pop\n        /* \"#utility.yul\":1493:1511   */\n      0xffffffffffffffff\n        /* \"#utility.yul\":1485:1491   */\n      dup2\n        /* \"#utility.yul\":1482:1512   */\n      gt\n        /* \"#utility.yul\":1479:1596   */\n      iszero\n      tag_60\n      jumpi\n        /* \"#utility.yul\":1515:1594   */\n      tag_61\n      tag_27\n      jump\t// in\n    tag_61:\n        /* \"#utility.yul\":1479:1596   */\n    tag_60:\n        /* \"#utility.yul\":1629:1633   */\n      0x20\n        /* \"#utility.yul\":1621:1627   */\n      dup4\n        /* \"#utility.yul\":1617:1634   */\n      add\n        /* \"#utility.yul\":1605:1634   */\n      swap2\n      pop\n        /* \"#utility.yul\":1683:1686   */\n      dup4\n        /* \"#utility.yul\":1675:1679   */\n      0x01\n        /* \"#utility.yul\":1667:1673   */\n      dup3\n        /* \"#utility.yul\":1663:1680   */\n      mul\n        /* \"#utility.yul\":1653:1661   */\n      dup4\n        /* \"#utility.yul\":1649:1681   */\n      add\n        /* \"#utility.yul\":1646:1687   */\n      gt\n        /* \"#utility.yul\":1643:1771   */\n      iszero\n      tag_62\n      jumpi\n        /* \"#utility.yul\":1690:1769   */\n      tag_63\n      tag_28\n      jump\t// in\n    tag_63:\n        /* \"#utility.yul\":1643:1771   */\n    tag_62:\n        /* \"#utility.yul\":1224:1777   */\n      swap3\n      pop\n      swap3\n      swap1\n      pop\n      jump\t// out\n        /* \"#utility.yul\":1783:2457   */\n    tag_9:\n        /* \"#utility.yul\":1863:1869   */\n      0x00\n        /* \"#utility.yul\":1871:1877   */\n      dup1\n        /* \"#utility.yul\":1879:1885   */\n      0x00\n        /* \"#utility.yul\":1928:1930   */\n      0x40\n        /* \"#utility.yul\":1916:1925   */\n      dup5\n        /* \"#utility.yul\":1907:1914   */\n      dup7\n        /* \"#utility.yul\":1903:1926   */\n      sub\n        /* \"#utility.yul\":1899:1931   */\n      slt\n        /* \"#utility.yul\":1896:2015   */\n      iszero\n      tag_65\n      jumpi\n        /* \"#utility.yul\":1934:2013   */\n      tag_66\n      tag_20\n      jump\t// in\n    tag_66:\n        /* \"#utility.yul\":1896:2015   */\n    tag_65:\n        /* \"#utility.yul\":2054:2055   */\n      0x00\n        /* \"#utility.yul\":2079:2132   */\n      tag_67\n        /* \"#utility.yul\":2124:2131   */\n      dup7\n        /* \"#utility.yul\":2115:2121   */\n      dup3\n        /* \"#utility.yul\":2104:2113   */\n      dup8\n        /* \"#utility.yul\":2100:2122   */\n      add\n        /* \"#utility.yul\":2079:2132   */\n      tag_25\n      jump\t// in\n    tag_67:\n        /* \"#utility.yul\":2069:2132   */\n      swap4\n      pop\n        /* \"#utility.yul\":2025:2142   */\n      pop\n        /* \"#utility.yul\":2209:2211   */\n      0x20\n        /* \"#utility.yul\":2198:2207   */\n      dup5\n        /* \"#utility.yul\":2194:2212   */\n      add\n        /* \"#utility.yul\":2181:2213   */\n      calldataload\n        /* \"#utility.yul\":2240:2258   */\n      0xffffffffffffffff\n        /* \"#utility.yul\":2232:2238   */\n      dup2\n        /* \"#utility.yul\":2229:2259   */\n      gt\n        /* \"#utility.yul\":2226:2343   */\n      iszero\n      tag_68\n      jumpi\n        /* \"#utility.yul\":2262:2341   */\n      tag_69\n      tag_21\n      jump\t// in\n    tag_69:\n        /* \"#utility.yul\":2226:2343   */\n    tag_68:\n        /* \"#utility.yul\":2375:2440   */\n      tag_70\n        /* \"#utility.yul\":2432:2439   */\n      dup7\n        /* \"#utility.yul\":2423:2429   */\n      dup3\n        /* \"#utility.yul\":2412:2421   */\n      dup8\n        /* \"#utility.yul\":2408:2430   */\n      add\n        /* \"#utility.yul\":2375:2440   */\n      tag_29\n      jump\t// in\n    tag_70:\n        /* \"#utility.yul\":2357:2440   */\n      swap3\n      pop\n      swap3\n      pop\n        /* \"#utility.yul\":2152:2450   */\n      pop\n        /* \"#utility.yul\":1783:2457   */\n      swap3\n      pop\n      swap3\n      pop\n      swap3\n      jump\t// out\n        /* \"#utility.yul\":2463:2632   */\n    tag_30:\n        /* \"#utility.yul\":2547:2558   */\n      0x00\n        /* \"#utility.yul\":2581:2587   */\n      dup3\n        /* \"#utility.yul\":2576:2579   */\n      dup3\n        /* \"#utility.yul\":2569:2588   */\n      mstore\n        /* \"#utility.yul\":2621:2625   */\n      0x20\n        /* \"#utility.yul\":2616:2619   */\n      dup3\n        /* \"#utility.yul\":2612:2626   */\n      add\n        /* \"#utility.yul\":2597:2626   */\n      swap1\n      pop\n        /* \"#utility.yul\":2463:2632   */\n      swap3\n      swap2\n      pop\n      pop\n      jump\t// out\n        /* \"#utility.yul\":2638:2799   */\n    tag_31:\n        /* \"#utility.yul\":2778:2791   */\n      0x48656c6c6f20576f726c64000000000000000000000000000000000000000000\n        /* \"#utility.yul\":2774:2775   */\n      0x00\n        /* \"#utility.yul\":2766:2772   */\n      dup3\n        /* \"#utility.yul\":2762:2776   */\n      add\n        /* \"#utility.yul\":2755:2792   */\n      mstore\n        /* \"#utility.yul\":2638:2799   */\n      pop\n      jump\t// out\n        /* \"#utility.yul\":2805:3171   */\n    tag_32:\n        /* \"#utility.yul\":2947:2950   */\n      0x00\n        /* \"#utility.yul\":2968:3035   */\n      tag_74\n        /* \"#utility.yul\":3032:3034   */\n      0x0b\n        /* \"#utility.yul\":3027:3030   */\n      dup4\n        /* \"#utility.yul\":2968:3035   */\n      tag_30\n      jump\t// in\n    tag_74:\n        /* \"#utility.yul\":2961:3035   */\n      swap2\n      pop\n        /* \"#utility.yul\":3044:3137   */\n      tag_75\n        /* \"#utility.yul\":3133:3136   */\n      dup3\n        /* \"#utility.yul\":3044:3137   */\n      tag_31\n      jump\t// in\n    tag_75:\n        /* \"#utility.yul\":3162:3164   */\n      0x20\n        /* \"#utility.yul\":3157:3160   */\n      dup3\n        /* \"#utility.yul\":3153:3165   */\n      add\n        /* \"#utility.yul\":3146:3165   */\n      swap1\n      pop\n        /* \"#utility.yul\":2805:3171   */\n      swap2\n      swap1\n      pop\n      jump\t// out\n        /* \"#utility.yul\":3177:3254   */\n    tag_33:\n        /* \"#utility.yul\":3214:3221   */\n      0x00\n        /* \"#utility.yul\":3243:3248   */\n      dup2\n        /* \"#utility.yul\":3232:3248   */\n      swap1\n      pop\n        /* \"#utility.yul\":3177:3254   */\n      swap2\n      swap1\n      pop\n      jump\t// out\n        /* \"#utility.yul\":3260:3378   */\n    tag_34:\n        /* \"#utility.yul\":3347:3371   */\n      tag_78\n        /* \"#utility.yul\":3365:3370   */\n      dup2\n        /* \"#utility.yul\":3347:3371   */\n      tag_33\n      jump\t// in\n    tag_78:\n        /* \"#utility.yul\":3342:3345   */\n      dup3\n        /* \"#utility.yul\":3335:3372   */\n      mstore\n        /* \"#utility.yul\":3260:3378   */\n      pop\n      pop\n      jump\t// out\n        /* \"#utility.yul\":3384:3913   */\n    tag_13:\n        /* \"#utility.yul\":3578:3582   */\n      0x00\n        /* \"#utility.yul\":3616:3618   */\n      0x40\n        /* \"#utility.yul\":3605:3614   */\n      dup3\n        /* \"#utility.yul\":3601:3619   */\n      add\n        /* \"#utility.yul\":3593:3619   */\n      swap1\n      pop\n        /* \"#utility.yul\":3665:3674   */\n      dup2\n        /* \"#utility.yul\":3659:3663   */\n      dup2\n        /* \"#utility.yul\":3655:3675   */\n      sub\n        /* \"#utility.yul\":3651:3652   */\n      0x00\n        /* \"#utility.yul\":3640:3649   */\n      dup4\n        /* \"#utility.yul\":3636:3653   */\n      add\n        /* \"#utility.yul\":3629:3676   */\n      mstore\n        /* \"#utility.yul\":3693:3824   */\n      tag_80\n        /* \"#utility.yul\":3819:3823   */\n      dup2\n        /* \"#utility.yul\":3693:3824   */\n      tag_32\n      jump\t// in\n    tag_80:\n        /* \"#utility.yul\":3685:3824   */\n      swap1\n      pop\n        /* \"#utility.yul\":3834:3906   */\n      tag_81\n        /* \"#utility.yul\":3902:3904   */\n      0x20\n        /* \"#utility.yul\":3891:3900   */\n      dup4\n        /* \"#utility.yul\":3887:3905   */\n      add\n        /* \"#utility.yul\":3878:3884   */\n      dup5\n        /* \"#utility.yul\":3834:3906   */\n      tag_34\n      jump\t// in\n    tag_81:\n        /* \"#utility.yul\":3384:3913   */\n      swap3\n      swap2\n      pop\n      pop\n      jump\t// out\n        /* \"#utility.yul\":3919:4008   */\n    tag_35:\n        /* \"#utility.yul\":3968:3975   */\n      0x00\n        /* \"#utility.yul\":3997:4002   */\n      dup2\n        /* \"#utility.yul\":3986:4002   */\n      swap1\n      pop\n        /* \"#utility.yul\":3919:4008   */\n      swap2\n      swap1\n      pop\n      jump\t// out\n        /* \"#utility.yul\":4014:4074   */\n    tag_36:\n        /* \"#utility.yul\":4042:4045   */\n      0x00\n        /* \"#utility.yul\":4063:4068   */\n      dup2\n        /* \"#utility.yul\":4056:4068   */\n      swap1\n      pop\n        /* \"#utility.yul\":4014:4074   */\n      swap2\n      swap1\n      pop\n      jump\t// out\n        /* \"#utility.yul\":4080:4246   */\n    tag_37:\n        /* \"#utility.yul\":4142:4151   */\n      0x00\n        /* \"#utility.yul\":4175:4240   */\n      tag_85\n        /* \"#utility.yul\":4193:4239   */\n      tag_86\n        /* \"#utility.yul\":4202:4238   */\n      tag_87\n        /* \"#utility.yul\":4232:4237   */\n      dup5\n        /* \"#utility.yul\":4202:4238   */\n      tag_35\n      jump\t// in\n    tag_87:\n        /* \"#utility.yul\":4193:4239   */\n      tag_36\n      jump\t// in\n    tag_86:\n        /* \"#utility.yul\":4175:4240   */\n      tag_33\n      jump\t// in\n    tag_85:\n        /* \"#utility.yul\":4162:4240   */\n      swap1\n      pop\n        /* \"#utility.yul\":4080:4246   */\n      swap2\n      swap1\n      pop\n      jump\t// out\n        /* \"#utility.yul\":4252:4407   */\n    tag_38:\n        /* \"#utility.yul\":4351:4400   */\n      tag_89\n        /* \"#utility.yul\":4394:4399   */\n      dup2\n        /* \"#utility.yul\":4351:4400   */\n      tag_37\n      jump\t// in\n    tag_89:\n        /* \"#utility.yul\":4346:4349   */\n      dup3\n        /* \"#utility.yul\":4339:4401   */\n      mstore\n        /* \"#utility.yul\":4252:4407   */\n      pop\n      pop\n      jump\t// out\n        /* \"#utility.yul\":4413:4659   */\n    tag_15:\n        /* \"#utility.yul\":4518:4522   */\n      0x00\n        /* \"#utility.yul\":4556:4558   */\n      0x20\n        /* \"#utility.yul\":4545:4554   */\n      dup3\n        /* \"#utility.yul\":4541:4559   */\n      add\n        /* \"#utility.yul\":4533:4559   */\n      swap1\n      pop\n        /* \"#utility.yul\":4569:4652   */\n      tag_91\n        /* \"#utility.yul\":4649:4650   */\n      0x00\n        /* \"#utility.yul\":4638:4647   */\n      dup4\n        /* \"#utility.yul\":4634:4651   */\n      add\n        /* \"#utility.yul\":4625:4631   */\n      dup5\n        /* \"#utility.yul\":4569:4652   */\n      tag_38\n      jump\t// in\n    tag_91:\n        /* \"#utility.yul\":4413:4659   */\n      swap3\n      swap2\n      pop\n      pop\n      jump\t// out\n        /* \"#utility.yul\":4665:4813   */\n    tag_39:\n        /* \"#utility.yul\":4763:4769   */\n      dup3\n        /* \"#utility.yul\":4758:4761   */\n      dup2\n        /* \"#utility.yul\":4753:4756   */\n      dup4\n        /* \"#utility.yul\":4740:4770   */\n      calldatacopy\n        /* \"#utility.yul\":4804:4805   */\n      0x00\n        /* \"#utility.yul\":4795:4801   */\n      dup4\n        /* \"#utility.yul\":4790:4793   */\n      dup4\n        /* \"#utility.yul\":4786:4802   */\n      add\n        /* \"#utility.yul\":4779:4806   */\n      mstore\n        /* \"#utility.yul\":4665:4813   */\n      pop\n      pop\n      pop\n      jump\t// out\n        /* \"#utility.yul\":4819:4921   */\n    tag_40:\n        /* \"#utility.yul\":4860:4866   */\n      0x00\n        /* \"#utility.yul\":4911:4913   */\n      0x1f\n        /* \"#utility.yul\":4907:4914   */\n      not\n        /* \"#utility.yul\":4902:4904   */\n      0x1f\n        /* \"#utility.yul\":4895:4900   */\n      dup4\n        /* \"#utility.yul\":4891:4905   */\n      add\n        /* \"#utility.yul\":4887:4915   */\n      and\n        /* \"#utility.yul\":4877:4915   */\n      swap1\n      pop\n        /* \"#utility.yul\":4819:4921   */\n      swap2\n      swap1\n      pop\n      jump\t// out\n        /* \"#utility.yul\":4951:5268   */\n    tag_41:\n        /* \"#utility.yul\":5049:5052   */\n      0x00\n        /* \"#utility.yul\":5070:5141   */\n      tag_95\n        /* \"#utility.yul\":5134:5140   */\n      dup4\n        /* \"#utility.yul\":5129:5132   */\n      dup6\n        /* \"#utility.yul\":5070:5141   */\n      tag_30\n      jump\t// in\n    tag_95:\n        /* \"#utility.yul\":5063:5141   */\n      swap4\n      pop\n        /* \"#utility.yul\":5151:5207   */\n      tag_96\n        /* \"#utility.yul\":5200:5206   */\n      dup4\n        /* \"#utility.yul\":5195:5198   */\n      dup6\n        /* \"#utility.yul\":5188:5193   */\n      dup5\n        /* \"#utility.yul\":5151:5207   */\n      tag_39\n      jump\t// in\n    tag_96:\n        /* \"#utility.yul\":5232:5261   */\n      tag_97\n        /* \"#utility.yul\":5254:5260   */\n      dup4\n        /* \"#utility.yul\":5232:5261   */\n      tag_40\n      jump\t// in\n    tag_97:\n        /* \"#utility.yul\":5227:5230   */\n      dup5\n        /* \"#utility.yul\":5223:5262   */\n      add\n        /* \"#utility.yul\":5216:5262   */\n      swap1\n      pop\n        /* \"#utility.yul\":4951:5268   */\n      swap4\n      swap3\n      pop\n      pop\n      pop\n      jump\t// out\n        /* \"#utility.yul\":5274:5607   */\n    tag_18:\n        /* \"#utility.yul\":5397:5401   */\n      0x00\n        /* \"#utility.yul\":5435:5437   */\n      0x20\n        /* \"#utility.yul\":5424:5433   */\n      dup3\n        /* \"#utility.yul\":5420:5438   */\n      add\n        /* \"#utility.yul\":5412:5438   */\n      swap1\n      pop\n        /* \"#utility.yul\":5484:5493   */\n      dup2\n        /* \"#utility.yul\":5478:5482   */\n      dup2\n        /* \"#utility.yul\":5474:5494   */\n      sub\n        /* \"#utility.yul\":5470:5471   */\n      0x00\n        /* \"#utility.yul\":5459:5468   */\n      dup4\n        /* \"#utility.yul\":5455:5472   */\n      add\n        /* \"#utility.yul\":5448:5495   */\n      mstore\n        /* \"#utility.yul\":5512:5600   */\n      tag_99\n        /* \"#utility.yul\":5595:5599   */\n      dup2\n        /* \"#utility.yul\":5586:5592   */\n      dup5\n        /* \"#utility.yul\":5578:5584   */\n      dup7\n        /* \"#utility.yul\":5512:5600   */\n      tag_41\n      jump\t// in\n    tag_99:\n        /* \"#utility.yul\":5504:5600   */\n      swap1\n      pop\n        /* \"#utility.yul\":5274:5607   */\n      swap4\n      swap3\n      pop\n      pop\n      pop\n      jump\t// out\n\n    auxdata: 0xa26469706673582212201b74d5d779ec7b433fbc44dd156fc2110c6d5e9846079ca9f9743308a1d2c2ec64736f6c634300081a0033\n}\n",
				"bytecode": {
					"linkReferences": {},
					"object": "6080604052348015600e575f80fd5b5061040e8061001c5f395ff3fe608060405234801561000f575f80fd5b5060043610610034575f3560e01c806354353f2f14610038578063a0868b7214610042575b5f80fd5b61004061005e565b005b61005c60048036038101906100579190610216565b6100e7565b005b7fdd970dd9b5bfe707922155b058a407655cb18288b807e2216442bca8ad83d6b54260405161008d91906102e5565b60405180910390a13373ffffffffffffffffffffffffffffffffffffffff167f919a4e0615aef45fd56105241973bd25f287f1040399e7c9f97fa2ca1c2b51746130396040516100dd9190610353565b60405180910390a2565b8273ffffffffffffffffffffffffffffffffffffffff163373ffffffffffffffffffffffffffffffffffffffff167f7a7af472d40445802baf9a642269657e491d0e9f9c07d11f4276f98d29ebd2d484846040516101469291906103b6565b60405180910390a3505050565b5f80fd5b5f80fd5b5f73ffffffffffffffffffffffffffffffffffffffff82169050919050565b5f6101848261015b565b9050919050565b6101948161017a565b811461019e575f80fd5b50565b5f813590506101af8161018b565b92915050565b5f80fd5b5f80fd5b5f80fd5b5f8083601f8401126101d6576101d56101b5565b5b8235905067ffffffffffffffff8111156101f3576101f26101b9565b5b60208301915083600182028301111561020f5761020e6101bd565b5b9250929050565b5f805f6040848603121561022d5761022c610153565b5b5f61023a868287016101a1565b935050602084013567ffffffffffffffff81111561025b5761025a610157565b5b610267868287016101c1565b92509250509250925092565b5f82825260208201905092915050565b7f48656c6c6f20576f726c640000000000000000000000000000000000000000005f82015250565b5f6102b7600b83610273565b91506102c282610283565b602082019050919050565b5f819050919050565b6102df816102cd565b82525050565b5f6040820190508181035f8301526102fc816102ab565b905061030b60208301846102d6565b92915050565b5f819050919050565b5f819050919050565b5f61033d61033861033384610311565b61031a565b6102cd565b9050919050565b61034d81610323565b82525050565b5f6020820190506103665f830184610344565b92915050565b828183375f83830152505050565b5f601f19601f8301169050919050565b5f6103958385610273565b93506103a283858461036c565b6103ab8361037a565b840190509392505050565b5f6020820190508181035f8301526103cf81848661038a565b9050939250505056fea26469706673582212201b74d5d779ec7b433fbc44dd156fc2110c6d5e9846079ca9f9743308a1d2c2ec64736f6c634300081a0033",
					"opcodes": "PUSH1 0x80 PUSH1 0x40 MSTORE CALLVALUE DUP1 ISZERO PUSH1 0xE JUMPI PUSH0 DUP1 REVERT JUMPDEST POP PUSH2 0x40E DUP1 PUSH2 0x1C PUSH0 CODECOPY PUSH0 RETURN INVALID PUSH1 0x80 PUSH1 0x40 MSTORE CALLVALUE DUP1 ISZERO PUSH2 0xF JUMPI PUSH0 DUP1 REVERT JUMPDEST POP PUSH1 0x4 CALLDATASIZE LT PUSH2 0x34 JUMPI PUSH0 CALLDATALOAD PUSH1 0xE0 SHR DUP1 PUSH4 0x54353F2F EQ PUSH2 0x38 JUMPI DUP1 PUSH4 0xA0868B72 EQ PUSH2 0x42 JUMPI JUMPDEST PUSH0 DUP1 REVERT JUMPDEST PUSH2 0x40 PUSH2 0x5E JUMP JUMPDEST STOP JUMPDEST PUSH2 0x5C PUSH1 0x4 DUP1 CALLDATASIZE SUB DUP2 ADD SWAP1 PUSH2 0x57 SWAP2 SWAP1 PUSH2 0x216 JUMP JUMPDEST PUSH2 0xE7 JUMP JUMPDEST STOP JUMPDEST PUSH32 0xDD970DD9B5BFE707922155B058A407655CB18288B807E2216442BCA8AD83D6B5 TIMESTAMP PUSH1 0x40 MLOAD PUSH2 0x8D SWAP2 SWAP1 PUSH2 0x2E5 JUMP JUMPDEST PUSH1 0x40 MLOAD DUP1 SWAP2 SUB SWAP1 LOG1 CALLER PUSH20 0xFFFFFFFFFFFFFFFFFFFFFFFFFFFFFFFFFFFFFFFF AND PUSH32 0x919A4E0615AEF45FD56105241973BD25F287F1040399E7C9F97FA2CA1C2B5174 PUSH2 0x3039 PUSH1 0x40 MLOAD PUSH2 0xDD SWAP2 SWAP1 PUSH2 0x353 JUMP JUMPDEST PUSH1 0x40 MLOAD DUP1 SWAP2 SUB SWAP1 LOG2 JUMP JUMPDEST DUP3 PUSH20 0xFFFFFFFFFFFFFFFFFFFFFFFFFFFFFFFFFFFFFFFF AND CALLER PUSH20 0xFFFFFFFFFFFFFFFFFFFFFFFFFFFFFFFFFFFFFFFF AND PUSH32 0x7A7AF472D40445802BAF9A642269657E491D0E9F9C07D11F4276F98D29EBD2D4 DUP5 DUP5 PUSH1 0x40 MLOAD PUSH2 0x146 SWAP3 SWAP2 SWAP1 PUSH2 0x3B6 JUMP JUMPDEST PUSH1 0x40 MLOAD DUP1 SWAP2 SUB SWAP1 LOG3 POP POP POP JUMP JUMPDEST PUSH0 DUP1 REVERT JUMPDEST PUSH0 DUP1 REVERT JUMPDEST PUSH0 PUSH20 0xFFFFFFFFFFFFFFFFFFFFFFFFFFFFFFFFFFFFFFFF DUP3 AND SWAP1 POP SWAP2 SWAP1 POP JUMP JUMPDEST PUSH0 PUSH2 0x184 DUP3 PUSH2 0x15B JUMP JUMPDEST SWAP1 POP SWAP2 SWAP1 POP JUMP JUMPDEST PUSH2 0x194 DUP2 PUSH2 0x17A JUMP JUMPDEST DUP2 EQ PUSH2 0x19E JUMPI PUSH0 DUP1 REVERT JUMPDEST POP JUMP JUMPDEST PUSH0 DUP2 CALLDATALOAD SWAP1 POP PUSH2 0x1AF DUP2 PUSH2 0x18B JUMP JUMPDEST SWAP3 SWAP2 POP POP JUMP JUMPDEST PUSH0 DUP1 REVERT JUMPDEST PUSH0 DUP1 REVERT JUMPDEST PUSH0 DUP1 REVERT JUMPDEST PUSH0 DUP1 DUP4 PUSH1 0x1F DUP5 ADD SLT PUSH2 0x1D6 JUMPI PUSH2 0x1D5 PUSH2 0x1B5 JUMP JUMPDEST JUMPDEST DUP3 CALLDATALOAD SWAP1 POP PUSH8 0xFFFFFFFFFFFFFFFF DUP2 GT ISZERO PUSH2 0x1F3 JUMPI PUSH2 0x1F2 PUSH2 0x1B9 JUMP JUMPDEST JUMPDEST PUSH1 0x20 DUP4 ADD SWAP2 POP DUP4 PUSH1 0x1 DUP3 MUL DUP4 ADD GT ISZERO PUSH2 0x20F JUMPI PUSH2 0x20E PUSH2 0x1BD JUMP JUMPDEST JUMPDEST SWAP3 POP SWAP3 SWAP1 POP JUMP JUMPDEST PUSH0 DUP1 PUSH0 PUSH1 0x40 DUP5 DUP7 SUB SLT ISZERO PUSH2 0x22D JUMPI PUSH2 0x22C PUSH2 0x153 JUMP JUMPDEST JUMPDEST PUSH0 PUSH2 0x23A DUP7 DUP3 DUP8 ADD PUSH2 0x1A1 JUMP JUMPDEST SWAP4 POP POP PUSH1 0x20 DUP5 ADD CALLDATALOAD PUSH8 0xFFFFFFFFFFFFFFFF DUP2 GT ISZERO PUSH2 0x25B JUMPI PUSH2 0x25A PUSH2 0x157 JUMP JUMPDEST JUMPDEST PUSH2 0x267 DUP7 DUP3 DUP8 ADD PUSH2 0x1C1 JUMP JUMPDEST SWAP3 POP SWAP3 POP POP SWAP3 POP SWAP3 POP SWAP3 JUMP JUMPDEST PUSH0 DUP3 DUP3 MSTORE PUSH1 0x20 DUP3 ADD SWAP1 POP SWAP3 SWAP2 POP POP JUMP JUMPDEST PUSH32 0x48656C6C6F20576F726C64000000000000000000000000000000000000000000 PUSH0 DUP3 ADD MSTORE POP JUMP JUMPDEST PUSH0 PUSH2 0x2B7 PUSH1 0xB DUP4 PUSH2 0x273 JUMP JUMPDEST SWAP2 POP PUSH2 0x2C2 DUP3 PUSH2 0x283 JUMP JUMPDEST PUSH1 0x20 DUP3 ADD SWAP1 POP SWAP2 SWAP1 POP JUMP JUMPDEST PUSH0 DUP2 SWAP1 POP SWAP2 SWAP1 POP JUMP JUMPDEST PUSH2 0x2DF DUP2 PUSH2 0x2CD JUMP JUMPDEST DUP3 MSTORE POP POP JUMP JUMPDEST PUSH0 PUSH1 0x40 DUP3 ADD SWAP1 POP DUP2 DUP2 SUB PUSH0 DUP4 ADD MSTORE PUSH2 0x2FC DUP2 PUSH2 0x2AB JUMP JUMPDEST SWAP1 POP PUSH2 0x30B PUSH1 0x20 DUP4 ADD DUP5 PUSH2 0x2D6 JUMP JUMPDEST SWAP3 SWAP2 POP POP JUMP JUMPDEST PUSH0 DUP2 SWAP1 POP SWAP2 SWAP1 POP JUMP JUMPDEST PUSH0 DUP2 SWAP1 POP SWAP2 SWAP1 POP JUMP JUMPDEST PUSH0 PUSH2 0x33D PUSH2 0x338 PUSH2 0x333 DUP5 PUSH2 0x311 JUMP JUMPDEST PUSH2 0x31A JUMP JUMPDEST PUSH2 0x2CD JUMP JUMPDEST SWAP1 POP SWAP2 SWAP1 POP JUMP JUMPDEST PUSH2 0x34D DUP2 PUSH2 0x323 JUMP JUMPDEST DUP3 MSTORE POP POP JUMP JUMPDEST PUSH0 PUSH1 0x20 DUP3 ADD SWAP1 POP PUSH2 0x366 PUSH0 DUP4 ADD DUP5 PUSH2 0x344 JUMP JUMPDEST SWAP3 SWAP2 POP POP JUMP JUMPDEST DUP3 DUP2 DUP4 CALLDATACOPY PUSH0 DUP4 DUP4 ADD MSTORE POP POP POP JUMP JUMPDEST PUSH0 PUSH1 0x1F NOT PUSH1 0x1F DUP4 ADD AND SWAP1 POP SWAP2 SWAP1 POP JUMP JUMPDEST PUSH0 PUSH2 0x395 DUP4 DUP6 PUSH2 0x273 JUMP JUMPDEST SWAP4 POP PUSH2 0x3A2 DUP4 DUP6 DUP5 PUSH2 0x36C JUMP JUMPDEST PUSH2 0x3AB DUP4 PUSH2 0x37A JUMP JUMPDEST DUP5 ADD SWAP1 POP SWAP4 SWAP3 POP POP POP JUMP JUMPDEST PUSH0 PUSH1 0x20 DUP3 ADD SWAP1 POP DUP2 DUP2 SUB PUSH0 DUP4 ADD MSTORE PUSH2 0x3CF DUP2 DUP5 DUP7 PUSH2 0x38A JUMP JUMPDEST SWAP1 POP SWAP4 SWAP3 POP POP POP JUMP INVALID LOG2 PUSH5 0x6970667358 0x22 SLT KECCAK256 SHL PUSH21 0xD5D779EC7B433FBC44DD156FC2110C6D5E9846079C 0xA9 0xF9 PUSH21 0x3308A1D2C2EC64736F6C634300081A003300000000 "
				},
				"gasEstimates": {
					"creation": {
						"codeDepositCost": "207600",
						"executionCost": "249",
						"totalCost": "207849"
					},
					"external": {
						"example()": "infinite",
						"simple(address,string)": "infinite"
					}
				},
				"methodIdentifiers": {
					"example()": "54353f2f",
					"simple(address,string)": "a0868b72"
				}
			},
			"storageLayout": {
				"storage": [],
				"types": null
			},
			"userdoc": {
				"kind": "user",
				"methods": {},
				"version": 1
			}
		}
	}
}