{
	"Solidity Basic/View&Pure.sol": {
		"ViewAndPure": {
			"abi": [
				{
					"inputs": [],
					"name": "getA",
					"outputs": [
						{
							"internalType": "uint256",
							"name": "",
							"type": "uint256"
						}
					],
					"stateMutability": "view",
					"type": "function"
				},
				{
					"inputs": [
						{
							"internalType": "uint256",
							"name": "b",
							"type": "uint256"
						},
						{
							"internalType": "uint256",
							"name": "c",
							"type": "uint256"
						}
					],
					"name": "pureB",
					"outputs": [
						{
							"internalType": "uint256",
							"name": "",
							"type": "uint256"
						}
					],
					"stateMutability": "pure",
					"type": "function"
				},
				{
					"inputs": [],
					"name": "setA",
					"outputs": [],
					"stateMutability": "nonpayable",
					"type": "function"
				}
			],
			"devdoc": {
				"kind": "dev",
				"methods": {},
				"version": 1
			},
			"evm": {
				"assembly": "    /* \"Solidity Basic/View&Pure.sol\":59:443  contract ViewAndPure {... */\n  mstore(0x40, 0x80)\n  callvalue\n  dup1\n  iszero\n  tag_1\n  jumpi\n  0x00\n  dup1\n  revert\ntag_1:\n  pop\n  dataSize(sub_0)\n  dup1\n  dataOffset(sub_0)\n  0x00\n  codecopy\n  0x00\n  return\nstop\n\nsub_0: assembly {\n        /* \"Solidity Basic/View&Pure.sol\":59:443  contract ViewAndPure {... */\n      mstore(0x40, 0x80)\n      callvalue\n      dup1\n      iszero\n      tag_1\n      jumpi\n      0x00\n      dup1\n      revert\n    tag_1:\n      pop\n      jumpi(tag_2, lt(calldatasize, 0x04))\n      shr(0xe0, calldataload(0x00))\n      dup1\n      0x1fc376f7\n      eq\n      tag_3\n      jumpi\n      dup1\n      0x59495432\n      eq\n      tag_4\n      jumpi\n      dup1\n      0xd46300fd\n      eq\n      tag_5\n      jumpi\n    tag_2:\n      0x00\n      dup1\n      revert\n        /* \"Solidity Basic/View&Pure.sol\":102:148  function setA () public {... */\n    tag_3:\n      tag_6\n      tag_7\n      jump\t// in\n    tag_6:\n      stop\n        /* \"Solidity Basic/View&Pure.sol\":287:440  function pureB (uint b, uint c) public pure returns (uint) { // Pure declares that no state variable will be changed / read... */\n    tag_4:\n      tag_8\n      0x04\n      dup1\n      calldatasize\n      sub\n      dup2\n      add\n      swap1\n      tag_9\n      swap2\n      swap1\n      tag_10\n      jump\t// in\n    tag_9:\n      tag_11\n      jump\t// in\n    tag_8:\n      mload(0x40)\n      tag_12\n      swap2\n      swap1\n      tag_13\n      jump\t// in\n    tag_12:\n      mload(0x40)\n      dup1\n      swap2\n      sub\n      swap1\n      return\n        /* \"Solidity Basic/View&Pure.sol\":156:279  function getA () public view returns (uint) { // View is used to read the state variable's value ... */\n    tag_5:\n      tag_14\n      tag_15\n      jump\t// in\n    tag_14:\n      mload(0x40)\n      tag_16\n      swap2\n      swap1\n      tag_13\n      jump\t// in\n    tag_16:\n      mload(0x40)\n      dup1\n      swap2\n      sub\n      swap1\n      return\n        /* \"Solidity Basic/View&Pure.sol\":102:148  function setA () public {... */\n    tag_7:\n        /* \"Solidity Basic/View&Pure.sol\":137:138  a */\n      0x00\n      dup1\n        /* \"Solidity Basic/View&Pure.sol\":137:140  a++ */\n      dup2\n      sload\n      dup1\n      swap3\n      swap2\n      swap1\n      tag_18\n      swap1\n      tag_19\n      jump\t// in\n    tag_18:\n      swap2\n      swap1\n      pop\n      sstore\n      pop\n        /* \"Solidity Basic/View&Pure.sol\":102:148  function setA () public {... */\n      jump\t// out\n        /* \"Solidity Basic/View&Pure.sol\":287:440  function pureB (uint b, uint c) public pure returns (uint) { // Pure declares that no state variable will be changed / read... */\n    tag_11:\n        /* \"Solidity Basic/View&Pure.sol\":340:344  uint */\n      0x00\n        /* \"Solidity Basic/View&Pure.sol\":431:432  c */\n      dup2\n        /* \"Solidity Basic/View&Pure.sol\":427:428  b */\n      dup4\n        /* \"Solidity Basic/View&Pure.sol\":427:432  b + c */\n      tag_21\n      swap2\n      swap1\n      tag_22\n      jump\t// in\n    tag_21:\n        /* \"Solidity Basic/View&Pure.sol\":420:432  return b + c */\n      swap1\n      pop\n        /* \"Solidity Basic/View&Pure.sol\":287:440  function pureB (uint b, uint c) public pure returns (uint) { // Pure declares that no state variable will be changed / read... */\n      swap3\n      swap2\n      pop\n      pop\n      jump\t// out\n        /* \"Solidity Basic/View&Pure.sol\":156:279  function getA () public view returns (uint) { // View is used to read the state variable's value ... */\n    tag_15:\n        /* \"Solidity Basic/View&Pure.sol\":194:198  uint */\n      0x00\n        /* \"Solidity Basic/View&Pure.sol\":270:271  a */\n      dup1\n      sload\n        /* \"Solidity Basic/View&Pure.sol\":263:271  return a */\n      swap1\n      pop\n        /* \"Solidity Basic/View&Pure.sol\":156:279  function getA () public view returns (uint) { // View is used to read the state variable's value ... */\n      swap1\n      jump\t// out\n        /* \"#utility.yul\":88:205   */\n    tag_25:\n        /* \"#utility.yul\":197:198   */\n      0x00\n        /* \"#utility.yul\":194:195   */\n      dup1\n        /* \"#utility.yul\":187:199   */\n      revert\n        /* \"#utility.yul\":334:411   */\n    tag_27:\n        /* \"#utility.yul\":371:378   */\n      0x00\n        /* \"#utility.yul\":400:405   */\n      dup2\n        /* \"#utility.yul\":389:405   */\n      swap1\n      pop\n        /* \"#utility.yul\":334:411   */\n      swap2\n      swap1\n      pop\n      jump\t// out\n        /* \"#utility.yul\":417:539   */\n    tag_28:\n        /* \"#utility.yul\":490:514   */\n      tag_38\n        /* \"#utility.yul\":508:513   */\n      dup2\n        /* \"#utility.yul\":490:514   */\n      tag_27\n      jump\t// in\n    tag_38:\n        /* \"#utility.yul\":483:488   */\n      dup2\n        /* \"#utility.yul\":480:515   */\n      eq\n        /* \"#utility.yul\":470:533   */\n      tag_39\n      jumpi\n        /* \"#utility.yul\":529:530   */\n      0x00\n        /* \"#utility.yul\":526:527   */\n      dup1\n        /* \"#utility.yul\":519:531   */\n      revert\n        /* \"#utility.yul\":470:533   */\n    tag_39:\n        /* \"#utility.yul\":417:539   */\n      pop\n      jump\t// out\n        /* \"#utility.yul\":545:684   */\n    tag_29:\n        /* \"#utility.yul\":591:596   */\n      0x00\n        /* \"#utility.yul\":629:635   */\n      dup2\n        /* \"#utility.yul\":616:636   */\n      calldataload\n        /* \"#utility.yul\":607:636   */\n      swap1\n      pop\n        /* \"#utility.yul\":645:678   */\n      tag_41\n        /* \"#utility.yul\":672:677   */\n      dup2\n        /* \"#utility.yul\":645:678   */\n      tag_28\n      jump\t// in\n    tag_41:\n        /* \"#utility.yul\":545:684   */\n      swap3\n      swap2\n      pop\n      pop\n      jump\t// out\n        /* \"#utility.yul\":690:1164   */\n    tag_10:\n        /* \"#utility.yul\":758:764   */\n      0x00\n        /* \"#utility.yul\":766:772   */\n      dup1\n        /* \"#utility.yul\":815:817   */\n      0x40\n        /* \"#utility.yul\":803:812   */\n      dup4\n        /* \"#utility.yul\":794:801   */\n      dup6\n        /* \"#utility.yul\":790:813   */\n      sub\n        /* \"#utility.yul\":786:818   */\n      slt\n        /* \"#utility.yul\":783:902   */\n      iszero\n      tag_43\n      jumpi\n        /* \"#utility.yul\":821:900   */\n      tag_44\n      tag_25\n      jump\t// in\n    tag_44:\n        /* \"#utility.yul\":783:902   */\n    tag_43:\n        /* \"#utility.yul\":941:942   */\n      0x00\n        /* \"#utility.yul\":966:1019   */\n      tag_45\n        /* \"#utility.yul\":1011:1018   */\n      dup6\n        /* \"#utility.yul\":1002:1008   */\n      dup3\n        /* \"#utility.yul\":991:1000   */\n      dup7\n        /* \"#utility.yul\":987:1009   */\n      add\n        /* \"#utility.yul\":966:1019   */\n      tag_29\n      jump\t// in\n    tag_45:\n        /* \"#utility.yul\":956:1019   */\n      swap3\n      pop\n        /* \"#utility.yul\":912:1029   */\n      pop\n        /* \"#utility.yul\":1068:1070   */\n      0x20\n        /* \"#utility.yul\":1094:1147   */\n      tag_46\n        /* \"#utility.yul\":1139:1146   */\n      dup6\n        /* \"#utility.yul\":1130:1136   */\n      dup3\n        /* \"#utility.yul\":1119:1128   */\n      dup7\n        /* \"#utility.yul\":1115:1137   */\n      add\n        /* \"#utility.yul\":1094:1147   */\n      tag_29\n      jump\t// in\n    tag_46:\n        /* \"#utility.yul\":1084:1147   */\n      swap2\n      pop\n        /* \"#utility.yul\":1039:1157   */\n      pop\n        /* \"#utility.yul\":690:1164   */\n      swap3\n      pop\n      swap3\n      swap1\n      pop\n      jump\t// out\n        /* \"#utility.yul\":1170:1288   */\n    tag_30:\n        /* \"#utility.yul\":1257:1281   */\n      tag_48\n        /* \"#utility.yul\":1275:1280   */\n      dup2\n        /* \"#utility.yul\":1257:1281   */\n      tag_27\n      jump\t// in\n    tag_48:\n        /* \"#utility.yul\":1252:1255   */\n      dup3\n        /* \"#utility.yul\":1245:1282   */\n      mstore\n        /* \"#utility.yul\":1170:1288   */\n      pop\n      pop\n      jump\t// out\n        /* \"#utility.yul\":1294:1516   */\n    tag_13:\n        /* \"#utility.yul\":1387:1391   */\n      0x00\n        /* \"#utility.yul\":1425:1427   */\n      0x20\n        /* \"#utility.yul\":1414:1423   */\n      dup3\n        /* \"#utility.yul\":1410:1428   */\n      add\n        /* \"#utility.yul\":1402:1428   */\n      swap1\n      pop\n        /* \"#utility.yul\":1438:1509   */\n      tag_50\n        /* \"#utility.yul\":1506:1507   */\n      0x00\n        /* \"#utility.yul\":1495:1504   */\n      dup4\n        /* \"#utility.yul\":1491:1508   */\n      add\n        /* \"#utility.yul\":1482:1488   */\n      dup5\n        /* \"#utility.yul\":1438:1509   */\n      tag_30\n      jump\t// in\n    tag_50:\n        /* \"#utility.yul\":1294:1516   */\n      swap3\n      swap2\n      pop\n      pop\n      jump\t// out\n        /* \"#utility.yul\":1522:1702   */\n    tag_31:\n        /* \"#utility.yul\":1570:1647   */\n      0x4e487b7100000000000000000000000000000000000000000000000000000000\n        /* \"#utility.yul\":1567:1568   */\n      0x00\n        /* \"#utility.yul\":1560:1648   */\n      mstore\n        /* \"#utility.yul\":1667:1671   */\n      0x11\n        /* \"#utility.yul\":1664:1665   */\n      0x04\n        /* \"#utility.yul\":1657:1672   */\n      mstore\n        /* \"#utility.yul\":1691:1695   */\n      0x24\n        /* \"#utility.yul\":1688:1689   */\n      0x00\n        /* \"#utility.yul\":1681:1696   */\n      revert\n        /* \"#utility.yul\":1708:1941   */\n    tag_19:\n        /* \"#utility.yul\":1747:1750   */\n      0x00\n        /* \"#utility.yul\":1770:1794   */\n      tag_53\n        /* \"#utility.yul\":1788:1793   */\n      dup3\n        /* \"#utility.yul\":1770:1794   */\n      tag_27\n      jump\t// in\n    tag_53:\n        /* \"#utility.yul\":1761:1794   */\n      swap2\n      pop\n        /* \"#utility.yul\":1816:1882   */\n      0xffffffffffffffffffffffffffffffffffffffffffffffffffffffffffffffff\n        /* \"#utility.yul\":1809:1814   */\n      dup3\n        /* \"#utility.yul\":1806:1883   */\n      sub\n        /* \"#utility.yul\":1803:1906   */\n      tag_54\n      jumpi\n        /* \"#utility.yul\":1886:1904   */\n      tag_55\n      tag_31\n      jump\t// in\n    tag_55:\n        /* \"#utility.yul\":1803:1906   */\n    tag_54:\n        /* \"#utility.yul\":1933:1934   */\n      0x01\n        /* \"#utility.yul\":1926:1931   */\n      dup3\n        /* \"#utility.yul\":1922:1935   */\n      add\n        /* \"#utility.yul\":1915:1935   */\n      swap1\n      pop\n        /* \"#utility.yul\":1708:1941   */\n      swap2\n      swap1\n      pop\n      jump\t// out\n        /* \"#utility.yul\":1947:2138   */\n    tag_22:\n        /* \"#utility.yul\":1987:1990   */\n      0x00\n        /* \"#utility.yul\":2006:2026   */\n      tag_57\n        /* \"#utility.yul\":2024:2025   */\n      dup3\n        /* \"#utility.yul\":2006:2026   */\n      tag_27\n      jump\t// in\n    tag_57:\n        /* \"#utility.yul\":2001:2026   */\n      swap2\n      pop\n        /* \"#utility.yul\":2040:2060   */\n      tag_58\n        /* \"#utility.yul\":2058:2059   */\n      dup4\n        /* \"#utility.yul\":2040:2060   */\n      tag_27\n      jump\t// in\n    tag_58:\n        /* \"#utility.yul\":2035:2060   */\n      swap3\n      pop\n        /* \"#utility.yul\":2083:2084   */\n      dup3\n        /* \"#utility.yul\":2080:2081   */\n      dup3\n        /* \"#utility.yul\":2076:2085   */\n      add\n        /* \"#utility.yul\":2069:2085   */\n      swap1\n      pop\n        /* \"#utility.yul\":2104:2107   */\n      dup1\n        /* \"#utility.yul\":2101:2102   */\n      dup3\n        /* \"#utility.yul\":2098:2108   */\n      gt\n        /* \"#utility.yul\":2095:2131   */\n      iszero\n      tag_59\n      jumpi\n        /* \"#utility.yul\":2111:2129   */\n      tag_60\n      tag_31\n      jump\t// in\n    tag_60:\n        /* \"#utility.yul\":2095:2131   */\n    tag_59:\n        /* \"#utility.yul\":1947:2138   */\n      swap3\n      swap2\n      pop\n      pop\n      jump\t// out\n\n    auxdata: 0xa2646970667358221220c2aad88bf5a0d5de8a98d1831923281734a5abc2f85458b2668946842ecba6f064736f6c634300081a0033\n}\n",
				"bytecode": {
					"linkReferences": {},
					"object": "6080604052348015600e575f80fd5b5061024a8061001c5f395ff3fe608060405234801561000f575f80fd5b506004361061003f575f3560e01c80631fc376f714610043578063594954321461004d578063d46300fd1461007d575b5f80fd5b61004b61009b565b005b61006760048036038101906100629190610107565b6100b3565b6040516100749190610154565b60405180910390f35b6100856100c8565b6040516100929190610154565b60405180910390f35b5f808154809291906100ac9061019a565b9190505550565b5f81836100c091906101e1565b905092915050565b5f8054905090565b5f80fd5b5f819050919050565b6100e6816100d4565b81146100f0575f80fd5b50565b5f81359050610101816100dd565b92915050565b5f806040838503121561011d5761011c6100d0565b5b5f61012a858286016100f3565b925050602061013b858286016100f3565b9150509250929050565b61014e816100d4565b82525050565b5f6020820190506101675f830184610145565b92915050565b7f4e487b71000000000000000000000000000000000000000000000000000000005f52601160045260245ffd5b5f6101a4826100d4565b91507fffffffffffffffffffffffffffffffffffffffffffffffffffffffffffffffff82036101d6576101d561016d565b5b600182019050919050565b5f6101eb826100d4565b91506101f6836100d4565b925082820190508082111561020e5761020d61016d565b5b9291505056fea2646970667358221220c2aad88bf5a0d5de8a98d1831923281734a5abc2f85458b2668946842ecba6f064736f6c634300081a0033",
					"opcodes": "PUSH1 0x80 PUSH1 0x40 MSTORE CALLVALUE DUP1 ISZERO PUSH1 0xE JUMPI PUSH0 DUP1 REVERT JUMPDEST POP PUSH2 0x24A DUP1 PUSH2 0x1C PUSH0 CODECOPY PUSH0 RETURN INVALID PUSH1 0x80 PUSH1 0x40 MSTORE CALLVALUE DUP1 ISZERO PUSH2 0xF JUMPI PUSH0 DUP1 REVERT JUMPDEST POP PUSH1 0x4 CALLDATASIZE LT PUSH2 0x3F JUMPI PUSH0 CALLDATALOAD PUSH1 0xE0 SHR DUP1 PUSH4 0x1FC376F7 EQ PUSH2 0x43 JUMPI DUP1 PUSH4 0x59495432 EQ PUSH2 0x4D JUMPI DUP1 PUSH4 0xD46300FD EQ PUSH2 0x7D JUMPI JUMPDEST PUSH0 DUP1 REVERT JUMPDEST PUSH2 0x4B PUSH2 0x9B JUMP JUMPDEST STOP JUMPDEST PUSH2 0x67 PUSH1 0x4 DUP1 CALLDATASIZE SUB DUP2 ADD SWAP1 PUSH2 0x62 SWAP2 SWAP1 PUSH2 0x107 JUMP JUMPDEST PUSH2 0xB3 JUMP JUMPDEST PUSH1 0x40 MLOAD PUSH2 0x74 SWAP2 SWAP1 PUSH2 0x154 JUMP JUMPDEST PUSH1 0x40 MLOAD DUP1 SWAP2 SUB SWAP1 RETURN JUMPDEST PUSH2 0x85 PUSH2 0xC8 JUMP JUMPDEST PUSH1 0x40 MLOAD PUSH2 0x92 SWAP2 SWAP1 PUSH2 0x154 JUMP JUMPDEST PUSH1 0x40 MLOAD DUP1 SWAP2 SUB SWAP1 RETURN JUMPDEST PUSH0 DUP1 DUP2 SLOAD DUP1 SWAP3 SWAP2 SWAP1 PUSH2 0xAC SWAP1 PUSH2 0x19A JUMP JUMPDEST SWAP2 SWAP1 POP SSTORE POP JUMP JUMPDEST PUSH0 DUP2 DUP4 PUSH2 0xC0 SWAP2 SWAP1 PUSH2 0x1E1 JUMP JUMPDEST SWAP1 POP SWAP3 SWAP2 POP POP JUMP JUMPDEST PUSH0 DUP1 SLOAD SWAP1 POP SWAP1 JUMP JUMPDEST PUSH0 DUP1 REVERT JUMPDEST PUSH0 DUP2 SWAP1 POP SWAP2 SWAP1 POP JUMP JUMPDEST PUSH2 0xE6 DUP2 PUSH2 0xD4 JUMP JUMPDEST DUP2 EQ PUSH2 0xF0 JUMPI PUSH0 DUP1 REVERT JUMPDEST POP JUMP JUMPDEST PUSH0 DUP2 CALLDATALOAD SWAP1 POP PUSH2 0x101 DUP2 PUSH2 0xDD JUMP JUMPDEST SWAP3 SWAP2 POP POP JUMP JUMPDEST PUSH0 DUP1 PUSH1 0x40 DUP4 DUP6 SUB SLT ISZERO PUSH2 0x11D JUMPI PUSH2 0x11C PUSH2 0xD0 JUMP JUMPDEST JUMPDEST PUSH0 PUSH2 0x12A DUP6 DUP3 DUP7 ADD PUSH2 0xF3 JUMP JUMPDEST SWAP3 POP POP PUSH1 0x20 PUSH2 0x13B DUP6 DUP3 DUP7 ADD PUSH2 0xF3 JUMP JUMPDEST SWAP2 POP POP SWAP3 POP SWAP3 SWAP1 POP JUMP JUMPDEST PUSH2 0x14E DUP2 PUSH2 0xD4 JUMP JUMPDEST DUP3 MSTORE POP POP JUMP JUMPDEST PUSH0 PUSH1 0x20 DUP3 ADD SWAP1 POP PUSH2 0x167 PUSH0 DUP4 ADD DUP5 PUSH2 0x145 JUMP JUMPDEST SWAP3 SWAP2 POP POP JUMP JUMPDEST PUSH32 0x4E487B7100000000000000000000000000000000000000000000000000000000 PUSH0 MSTORE PUSH1 0x11 PUSH1 0x4 MSTORE PUSH1 0x24 PUSH0 REVERT JUMPDEST PUSH0 PUSH2 0x1A4 DUP3 PUSH2 0xD4 JUMP JUMPDEST SWAP2 POP PUSH32 0xFFFFFFFFFFFFFFFFFFFFFFFFFFFFFFFFFFFFFFFFFFFFFFFFFFFFFFFFFFFFFFFF DUP3 SUB PUSH2 0x1D6 JUMPI PUSH2 0x1D5 PUSH2 0x16D JUMP JUMPDEST JUMPDEST PUSH1 0x1 DUP3 ADD SWAP1 POP SWAP2 SWAP1 POP JUMP JUMPDEST PUSH0 PUSH2 0x1EB DUP3 PUSH2 0xD4 JUMP JUMPDEST SWAP2 POP PUSH2 0x1F6 DUP4 PUSH2 0xD4 JUMP JUMPDEST SWAP3 POP DUP3 DUP3 ADD SWAP1 POP DUP1 DUP3 GT ISZERO PUSH2 0x20E JUMPI PUSH2 0x20D PUSH2 0x16D JUMP JUMPDEST JUMPDEST SWAP3 SWAP2 POP POP JUMP INVALID LOG2 PUSH5 0x6970667358 0x22 SLT KECCAK256 0xC2 0xAA 0xD8 DUP12 CREATE2 LOG0 0xD5 0xDE DUP11 SWAP9 0xD1 DUP4 NOT 0x23 0x28 OR CALLVALUE 0xA5 0xAB 0xC2 0xF8 SLOAD PC 0xB2 PUSH7 0x8946842ECBA6F0 PUSH5 0x736F6C6343 STOP ADDMOD BYTE STOP CALLER "
				},
				"gasEstimates": {
					"creation": {
						"codeDepositCost": "117200",
						"executionCost": "163",
						"totalCost": "117363"
					},
					"external": {
						"getA()": "2454",
						"pureB(uint256,uint256)": "infinite",
						"setA()": "24475"
					}
				},
				"methodIdentifiers": {
					"getA()": "d46300fd",
					"pureB(uint256,uint256)": "59495432",
					"setA()": "1fc376f7"
				}
			},
			"storageLayout": {
				"storage": [
					{
						"astId": 3,
						"contract": "Solidity Basic/View&Pure.sol:ViewAndPure",
						"label": "a",
						"offset": 0,
						"slot": "0",
						"type": "t_uint256"
					}
				],
				"types": {
					"t_uint256": {
						"encoding": "inplace",
						"label": "uint256",
						"numberOfBytes": "32"
					}
				}
			},
			"userdoc": {
				"kind": "user",
				"methods": {},
				"version": 1
			}
		}
	}
}