{
	"Solidity Basic/Enum.sol": {
		"Enum": {
			"abi": [
				{
					"inputs": [],
					"name": "checkEnumValue",
					"outputs": [
						{
							"internalType": "string",
							"name": "",
							"type": "string"
						}
					],
					"stateMutability": "view",
					"type": "function"
				},
				{
					"inputs": [],
					"name": "getEnumValue",
					"outputs": [
						{
							"internalType": "enum Enum.Button",
							"name": "",
							"type": "uint8"
						}
					],
					"stateMutability": "view",
					"type": "function"
				},
				{
					"inputs": [
						{
							"internalType": "enum Enum.Button",
							"name": "_x",
							"type": "uint8"
						}
					],
					"name": "setEnumValue",
					"outputs": [],
					"stateMutability": "nonpayable",
					"type": "function"
				},
				{
					"inputs": [],
					"name": "x",
					"outputs": [
						{
							"internalType": "enum Enum.Button",
							"name": "",
							"type": "uint8"
						}
					],
					"stateMutability": "view",
					"type": "function"
				}
			],
			"devdoc": {
				"kind": "dev",
				"methods": {},
				"version": 1
			},
			"evm": {
				"assembly": "    /* \"Solidity Basic/Enum.sol\":59:592  contract Enum {... */\n  mstore(0x40, 0x80)\n  callvalue\n  dup1\n  iszero\n  tag_1\n  jumpi\n  0x00\n  dup1\n  revert\ntag_1:\n  pop\n  dataSize(sub_0)\n  dup1\n  dataOffset(sub_0)\n  0x00\n  codecopy\n  0x00\n  return\nstop\n\nsub_0: assembly {\n        /* \"Solidity Basic/Enum.sol\":59:592  contract Enum {... */\n      mstore(0x40, 0x80)\n      callvalue\n      dup1\n      iszero\n      tag_1\n      jumpi\n      0x00\n      dup1\n      revert\n    tag_1:\n      pop\n      jumpi(tag_2, lt(calldatasize, 0x04))\n      shr(0xe0, calldataload(0x00))\n      dup1\n      0x0c55699c\n      eq\n      tag_3\n      jumpi\n      dup1\n      0x48593bae\n      eq\n      tag_4\n      jumpi\n      dup1\n      0x75a15343\n      eq\n      tag_5\n      jumpi\n      dup1\n      0xbae82806\n      eq\n      tag_6\n      jumpi\n    tag_2:\n      0x00\n      dup1\n      revert\n        /* \"Solidity Basic/Enum.sol\":224:239  Button public x */\n    tag_3:\n      tag_7\n      tag_8\n      jump\t// in\n    tag_7:\n      mload(0x40)\n      tag_9\n      swap2\n      swap1\n      tag_10\n      jump\t// in\n    tag_9:\n      mload(0x40)\n      dup1\n      swap2\n      sub\n      swap1\n      return\n        /* \"Solidity Basic/Enum.sol\":322:403  function getEnumValue () public view returns (Button) {... */\n    tag_4:\n      tag_11\n      tag_12\n      jump\t// in\n    tag_11:\n      mload(0x40)\n      tag_13\n      swap2\n      swap1\n      tag_10\n      jump\t// in\n    tag_13:\n      mload(0x40)\n      dup1\n      swap2\n      sub\n      swap1\n      return\n        /* \"Solidity Basic/Enum.sol\":411:589  function checkEnumValue () public view returns (string memory) {... */\n    tag_5:\n      tag_14\n      tag_15\n      jump\t// in\n    tag_14:\n      mload(0x40)\n      tag_16\n      swap2\n      swap1\n      tag_17\n      jump\t// in\n    tag_16:\n      mload(0x40)\n      dup1\n      swap2\n      sub\n      swap1\n      return\n        /* \"Solidity Basic/Enum.sol\":248:314  function setEnumValue (Button _x) public {... */\n    tag_6:\n      tag_18\n      0x04\n      dup1\n      calldatasize\n      sub\n      dup2\n      add\n      swap1\n      tag_19\n      swap2\n      swap1\n      tag_20\n      jump\t// in\n    tag_19:\n      tag_21\n      jump\t// in\n    tag_18:\n      stop\n        /* \"Solidity Basic/Enum.sol\":224:239  Button public x */\n    tag_8:\n      0x00\n      dup1\n      sload\n      swap1\n      0x0100\n      exp\n      swap1\n      div\n      0xff\n      and\n      dup2\n      jump\t// out\n        /* \"Solidity Basic/Enum.sol\":322:403  function getEnumValue () public view returns (Button) {... */\n    tag_12:\n        /* \"Solidity Basic/Enum.sol\":368:374  Button */\n      0x00\n        /* \"Solidity Basic/Enum.sol\":394:395  x */\n      dup1\n      0x00\n      swap1\n      sload\n      swap1\n      0x0100\n      exp\n      swap1\n      div\n      0xff\n      and\n        /* \"Solidity Basic/Enum.sol\":387:395  return x */\n      swap1\n      pop\n        /* \"Solidity Basic/Enum.sol\":322:403  function getEnumValue () public view returns (Button) {... */\n      swap1\n      jump\t// out\n        /* \"Solidity Basic/Enum.sol\":411:589  function checkEnumValue () public view returns (string memory) {... */\n    tag_15:\n        /* \"Solidity Basic/Enum.sol\":459:472  string memory */\n      0x60\n        /* \"Solidity Basic/Enum.sol\":494:503  Button.ON */\n      0x00\n        /* \"Solidity Basic/Enum.sol\":489:503  x == Button.ON */\n      0x01\n      dup2\n      gt\n      iszero\n      tag_24\n      jumpi\n      tag_25\n      tag_26\n      jump\t// in\n    tag_25:\n    tag_24:\n        /* \"Solidity Basic/Enum.sol\":489:490  x */\n      0x00\n      dup1\n      sload\n      swap1\n      0x0100\n      exp\n      swap1\n      div\n      0xff\n      and\n        /* \"Solidity Basic/Enum.sol\":489:503  x == Button.ON */\n      0x01\n      dup2\n      gt\n      iszero\n      tag_27\n      jumpi\n      tag_28\n      tag_26\n      jump\t// in\n    tag_28:\n    tag_27:\n      sub\n        /* \"Solidity Basic/Enum.sol\":485:581  if (x == Button.ON) {... */\n      tag_29\n      jumpi\n        /* \"Solidity Basic/Enum.sol\":520:541  return 'Button is ON' */\n      mload(0x40)\n      dup1\n      0x40\n      add\n      0x40\n      mstore\n      dup1\n      0x0c\n      dup2\n      mstore\n      0x20\n      add\n      0x427574746f6e206973204f4e0000000000000000000000000000000000000000\n      dup2\n      mstore\n      pop\n      swap1\n      pop\n      jump(tag_23)\n        /* \"Solidity Basic/Enum.sol\":485:581  if (x == Button.ON) {... */\n    tag_29:\n        /* \"Solidity Basic/Enum.sol\":559:581  return 'Button is OFF' */\n      mload(0x40)\n      dup1\n      0x40\n      add\n      0x40\n      mstore\n      dup1\n      0x0d\n      dup2\n      mstore\n      0x20\n      add\n      0x427574746f6e206973204f464600000000000000000000000000000000000000\n      dup2\n      mstore\n      pop\n      swap1\n      pop\n        /* \"Solidity Basic/Enum.sol\":411:589  function checkEnumValue () public view returns (string memory) {... */\n    tag_23:\n      swap1\n      jump\t// out\n        /* \"Solidity Basic/Enum.sol\":248:314  function setEnumValue (Button _x) public {... */\n    tag_21:\n        /* \"Solidity Basic/Enum.sol\":304:306  _x */\n      dup1\n        /* \"Solidity Basic/Enum.sol\":300:301  x */\n      0x00\n      dup1\n        /* \"Solidity Basic/Enum.sol\":300:306  x = _x */\n      0x0100\n      exp\n      dup2\n      sload\n      dup2\n      0xff\n      mul\n      not\n      and\n      swap1\n      dup4\n      0x01\n      dup2\n      gt\n      iszero\n      tag_32\n      jumpi\n      tag_33\n      tag_26\n      jump\t// in\n    tag_33:\n    tag_32:\n      mul\n      or\n      swap1\n      sstore\n      pop\n        /* \"Solidity Basic/Enum.sol\":248:314  function setEnumValue (Button _x) public {... */\n      pop\n      jump\t// out\n        /* \"#utility.yul\":7:187   */\n    tag_26:\n        /* \"#utility.yul\":55:132   */\n      0x4e487b7100000000000000000000000000000000000000000000000000000000\n        /* \"#utility.yul\":52:53   */\n      0x00\n        /* \"#utility.yul\":45:133   */\n      mstore\n        /* \"#utility.yul\":152:156   */\n      0x21\n        /* \"#utility.yul\":149:150   */\n      0x04\n        /* \"#utility.yul\":142:157   */\n      mstore\n        /* \"#utility.yul\":176:180   */\n      0x24\n        /* \"#utility.yul\":173:174   */\n      0x00\n        /* \"#utility.yul\":166:181   */\n      revert\n        /* \"#utility.yul\":193:306   */\n    tag_34:\n        /* \"#utility.yul\":274:275   */\n      0x02\n        /* \"#utility.yul\":267:272   */\n      dup2\n        /* \"#utility.yul\":264:276   */\n      lt\n        /* \"#utility.yul\":254:300   */\n      tag_51\n      jumpi\n        /* \"#utility.yul\":280:298   */\n      tag_52\n      tag_26\n      jump\t// in\n    tag_52:\n        /* \"#utility.yul\":254:300   */\n    tag_51:\n        /* \"#utility.yul\":193:306   */\n      pop\n      jump\t// out\n        /* \"#utility.yul\":312:439   */\n    tag_35:\n        /* \"#utility.yul\":357:364   */\n      0x00\n        /* \"#utility.yul\":386:391   */\n      dup2\n        /* \"#utility.yul\":375:391   */\n      swap1\n      pop\n        /* \"#utility.yul\":392:433   */\n      tag_54\n        /* \"#utility.yul\":427:432   */\n      dup3\n        /* \"#utility.yul\":392:433   */\n      tag_34\n      jump\t// in\n    tag_54:\n        /* \"#utility.yul\":312:439   */\n      swap2\n      swap1\n      pop\n      jump\t// out\n        /* \"#utility.yul\":445:572   */\n    tag_36:\n        /* \"#utility.yul\":501:510   */\n      0x00\n        /* \"#utility.yul\":534:566   */\n      tag_56\n        /* \"#utility.yul\":560:565   */\n      dup3\n        /* \"#utility.yul\":534:566   */\n      tag_35\n      jump\t// in\n    tag_56:\n        /* \"#utility.yul\":521:566   */\n      swap1\n      pop\n        /* \"#utility.yul\":445:572   */\n      swap2\n      swap1\n      pop\n      jump\t// out\n        /* \"#utility.yul\":578:721   */\n    tag_37:\n        /* \"#utility.yul\":671:714   */\n      tag_58\n        /* \"#utility.yul\":708:713   */\n      dup2\n        /* \"#utility.yul\":671:714   */\n      tag_36\n      jump\t// in\n    tag_58:\n        /* \"#utility.yul\":666:669   */\n      dup3\n        /* \"#utility.yul\":659:715   */\n      mstore\n        /* \"#utility.yul\":578:721   */\n      pop\n      pop\n      jump\t// out\n        /* \"#utility.yul\":727:961   */\n    tag_10:\n        /* \"#utility.yul\":826:830   */\n      0x00\n        /* \"#utility.yul\":864:866   */\n      0x20\n        /* \"#utility.yul\":853:862   */\n      dup3\n        /* \"#utility.yul\":849:867   */\n      add\n        /* \"#utility.yul\":841:867   */\n      swap1\n      pop\n        /* \"#utility.yul\":877:954   */\n      tag_60\n        /* \"#utility.yul\":951:952   */\n      0x00\n        /* \"#utility.yul\":940:949   */\n      dup4\n        /* \"#utility.yul\":936:953   */\n      add\n        /* \"#utility.yul\":927:933   */\n      dup5\n        /* \"#utility.yul\":877:954   */\n      tag_37\n      jump\t// in\n    tag_60:\n        /* \"#utility.yul\":727:961   */\n      swap3\n      swap2\n      pop\n      pop\n      jump\t// out\n        /* \"#utility.yul\":967:1066   */\n    tag_38:\n        /* \"#utility.yul\":1019:1025   */\n      0x00\n        /* \"#utility.yul\":1053:1058   */\n      dup2\n        /* \"#utility.yul\":1047:1059   */\n      mload\n        /* \"#utility.yul\":1037:1059   */\n      swap1\n      pop\n        /* \"#utility.yul\":967:1066   */\n      swap2\n      swap1\n      pop\n      jump\t// out\n        /* \"#utility.yul\":1072:1241   */\n    tag_39:\n        /* \"#utility.yul\":1156:1167   */\n      0x00\n        /* \"#utility.yul\":1190:1196   */\n      dup3\n        /* \"#utility.yul\":1185:1188   */\n      dup3\n        /* \"#utility.yul\":1178:1197   */\n      mstore\n        /* \"#utility.yul\":1230:1234   */\n      0x20\n        /* \"#utility.yul\":1225:1228   */\n      dup3\n        /* \"#utility.yul\":1221:1235   */\n      add\n        /* \"#utility.yul\":1206:1235   */\n      swap1\n      pop\n        /* \"#utility.yul\":1072:1241   */\n      swap3\n      swap2\n      pop\n      pop\n      jump\t// out\n        /* \"#utility.yul\":1247:1386   */\n    tag_40:\n        /* \"#utility.yul\":1336:1342   */\n      dup3\n        /* \"#utility.yul\":1331:1334   */\n      dup2\n        /* \"#utility.yul\":1326:1329   */\n      dup4\n        /* \"#utility.yul\":1320:1343   */\n      mcopy\n        /* \"#utility.yul\":1377:1378   */\n      0x00\n        /* \"#utility.yul\":1368:1374   */\n      dup4\n        /* \"#utility.yul\":1363:1366   */\n      dup4\n        /* \"#utility.yul\":1359:1375   */\n      add\n        /* \"#utility.yul\":1352:1379   */\n      mstore\n        /* \"#utility.yul\":1247:1386   */\n      pop\n      pop\n      pop\n      jump\t// out\n        /* \"#utility.yul\":1392:1494   */\n    tag_41:\n        /* \"#utility.yul\":1433:1439   */\n      0x00\n        /* \"#utility.yul\":1484:1486   */\n      0x1f\n        /* \"#utility.yul\":1480:1487   */\n      not\n        /* \"#utility.yul\":1475:1477   */\n      0x1f\n        /* \"#utility.yul\":1468:1473   */\n      dup4\n        /* \"#utility.yul\":1464:1478   */\n      add\n        /* \"#utility.yul\":1460:1488   */\n      and\n        /* \"#utility.yul\":1450:1488   */\n      swap1\n      pop\n        /* \"#utility.yul\":1392:1494   */\n      swap2\n      swap1\n      pop\n      jump\t// out\n        /* \"#utility.yul\":1500:1877   */\n    tag_42:\n        /* \"#utility.yul\":1588:1591   */\n      0x00\n        /* \"#utility.yul\":1616:1655   */\n      tag_66\n        /* \"#utility.yul\":1649:1654   */\n      dup3\n        /* \"#utility.yul\":1616:1655   */\n      tag_38\n      jump\t// in\n    tag_66:\n        /* \"#utility.yul\":1671:1742   */\n      tag_67\n        /* \"#utility.yul\":1735:1741   */\n      dup2\n        /* \"#utility.yul\":1730:1733   */\n      dup6\n        /* \"#utility.yul\":1671:1742   */\n      tag_39\n      jump\t// in\n    tag_67:\n        /* \"#utility.yul\":1664:1742   */\n      swap4\n      pop\n        /* \"#utility.yul\":1751:1816   */\n      tag_68\n        /* \"#utility.yul\":1809:1815   */\n      dup2\n        /* \"#utility.yul\":1804:1807   */\n      dup6\n        /* \"#utility.yul\":1797:1801   */\n      0x20\n        /* \"#utility.yul\":1790:1795   */\n      dup7\n        /* \"#utility.yul\":1786:1802   */\n      add\n        /* \"#utility.yul\":1751:1816   */\n      tag_40\n      jump\t// in\n    tag_68:\n        /* \"#utility.yul\":1841:1870   */\n      tag_69\n        /* \"#utility.yul\":1863:1869   */\n      dup2\n        /* \"#utility.yul\":1841:1870   */\n      tag_41\n      jump\t// in\n    tag_69:\n        /* \"#utility.yul\":1836:1839   */\n      dup5\n        /* \"#utility.yul\":1832:1871   */\n      add\n        /* \"#utility.yul\":1825:1871   */\n      swap2\n      pop\n        /* \"#utility.yul\":1592:1877   */\n      pop\n        /* \"#utility.yul\":1500:1877   */\n      swap3\n      swap2\n      pop\n      pop\n      jump\t// out\n        /* \"#utility.yul\":1883:2196   */\n    tag_17:\n        /* \"#utility.yul\":1996:2000   */\n      0x00\n        /* \"#utility.yul\":2034:2036   */\n      0x20\n        /* \"#utility.yul\":2023:2032   */\n      dup3\n        /* \"#utility.yul\":2019:2037   */\n      add\n        /* \"#utility.yul\":2011:2037   */\n      swap1\n      pop\n        /* \"#utility.yul\":2083:2092   */\n      dup2\n        /* \"#utility.yul\":2077:2081   */\n      dup2\n        /* \"#utility.yul\":2073:2093   */\n      sub\n        /* \"#utility.yul\":2069:2070   */\n      0x00\n        /* \"#utility.yul\":2058:2067   */\n      dup4\n        /* \"#utility.yul\":2054:2071   */\n      add\n        /* \"#utility.yul\":2047:2094   */\n      mstore\n        /* \"#utility.yul\":2111:2189   */\n      tag_71\n        /* \"#utility.yul\":2184:2188   */\n      dup2\n        /* \"#utility.yul\":2175:2181   */\n      dup5\n        /* \"#utility.yul\":2111:2189   */\n      tag_42\n      jump\t// in\n    tag_71:\n        /* \"#utility.yul\":2103:2189   */\n      swap1\n      pop\n        /* \"#utility.yul\":1883:2196   */\n      swap3\n      swap2\n      pop\n      pop\n      jump\t// out\n        /* \"#utility.yul\":2283:2400   */\n    tag_44:\n        /* \"#utility.yul\":2392:2393   */\n      0x00\n        /* \"#utility.yul\":2389:2390   */\n      dup1\n        /* \"#utility.yul\":2382:2394   */\n      revert\n        /* \"#utility.yul\":2529:2636   */\n    tag_46:\n        /* \"#utility.yul\":2610:2611   */\n      0x02\n        /* \"#utility.yul\":2603:2608   */\n      dup2\n        /* \"#utility.yul\":2600:2612   */\n      lt\n        /* \"#utility.yul\":2590:2630   */\n      tag_76\n      jumpi\n        /* \"#utility.yul\":2626:2627   */\n      0x00\n        /* \"#utility.yul\":2623:2624   */\n      dup1\n        /* \"#utility.yul\":2616:2628   */\n      revert\n        /* \"#utility.yul\":2590:2630   */\n    tag_76:\n        /* \"#utility.yul\":2529:2636   */\n      pop\n      jump\t// out\n        /* \"#utility.yul\":2642:2797   */\n    tag_47:\n        /* \"#utility.yul\":2696:2701   */\n      0x00\n        /* \"#utility.yul\":2734:2740   */\n      dup2\n        /* \"#utility.yul\":2721:2741   */\n      calldataload\n        /* \"#utility.yul\":2712:2741   */\n      swap1\n      pop\n        /* \"#utility.yul\":2750:2791   */\n      tag_78\n        /* \"#utility.yul\":2785:2790   */\n      dup2\n        /* \"#utility.yul\":2750:2791   */\n      tag_46\n      jump\t// in\n    tag_78:\n        /* \"#utility.yul\":2642:2797   */\n      swap3\n      swap2\n      pop\n      pop\n      jump\t// out\n        /* \"#utility.yul\":2803:3148   */\n    tag_20:\n        /* \"#utility.yul\":2870:2876   */\n      0x00\n        /* \"#utility.yul\":2919:2921   */\n      0x20\n        /* \"#utility.yul\":2907:2916   */\n      dup3\n        /* \"#utility.yul\":2898:2905   */\n      dup5\n        /* \"#utility.yul\":2894:2917   */\n      sub\n        /* \"#utility.yul\":2890:2922   */\n      slt\n        /* \"#utility.yul\":2887:3006   */\n      iszero\n      tag_80\n      jumpi\n        /* \"#utility.yul\":2925:3004   */\n      tag_81\n      tag_44\n      jump\t// in\n    tag_81:\n        /* \"#utility.yul\":2887:3006   */\n    tag_80:\n        /* \"#utility.yul\":3045:3046   */\n      0x00\n        /* \"#utility.yul\":3070:3131   */\n      tag_82\n        /* \"#utility.yul\":3123:3130   */\n      dup5\n        /* \"#utility.yul\":3114:3120   */\n      dup3\n        /* \"#utility.yul\":3103:3112   */\n      dup6\n        /* \"#utility.yul\":3099:3121   */\n      add\n        /* \"#utility.yul\":3070:3131   */\n      tag_47\n      jump\t// in\n    tag_82:\n        /* \"#utility.yul\":3060:3131   */\n      swap2\n      pop\n        /* \"#utility.yul\":3016:3141   */\n      pop\n        /* \"#utility.yul\":2803:3148   */\n      swap3\n      swap2\n      pop\n      pop\n      jump\t// out\n\n    auxdata: 0xa2646970667358221220157bc30fc10980329f2a9393180a376f2e3713d4fc1ed8db5924cadc900fa8b364736f6c634300081a0033\n}\n",
				"bytecode": {
					"linkReferences": {},
					"object": "6080604052348015600e575f80fd5b506103698061001c5f395ff3fe608060405234801561000f575f80fd5b506004361061004a575f3560e01c80630c55699c1461004e57806348593bae1461006c57806375a153431461008a578063bae82806146100a8575b5f80fd5b6100566100c4565b6040516100639190610238565b60405180910390f35b6100746100d4565b6040516100819190610238565b60405180910390f35b6100926100e8565b60405161009f91906102c1565b60405180910390f35b6100c260048036038101906100bd9190610308565b61019a565b005b5f8054906101000a900460ff1681565b5f805f9054906101000a900460ff16905090565b60605f60018111156100fd576100fc6101c5565b5b5f8054906101000a900460ff16600181111561011c5761011b6101c5565b5b0361015e576040518060400160405280600c81526020017f427574746f6e206973204f4e00000000000000000000000000000000000000008152509050610197565b6040518060400160405280600d81526020017f427574746f6e206973204f46460000000000000000000000000000000000000081525090505b90565b805f806101000a81548160ff021916908360018111156101bd576101bc6101c5565b5b021790555050565b7f4e487b71000000000000000000000000000000000000000000000000000000005f52602160045260245ffd5b60028110610203576102026101c5565b5b50565b5f819050610213826101f2565b919050565b5f61022282610206565b9050919050565b61023281610218565b82525050565b5f60208201905061024b5f830184610229565b92915050565b5f81519050919050565b5f82825260208201905092915050565b8281835e5f83830152505050565b5f601f19601f8301169050919050565b5f61029382610251565b61029d818561025b565b93506102ad81856020860161026b565b6102b681610279565b840191505092915050565b5f6020820190508181035f8301526102d98184610289565b905092915050565b5f80fd5b600281106102f1575f80fd5b50565b5f81359050610302816102e5565b92915050565b5f6020828403121561031d5761031c6102e1565b5b5f61032a848285016102f4565b9150509291505056fea2646970667358221220157bc30fc10980329f2a9393180a376f2e3713d4fc1ed8db5924cadc900fa8b364736f6c634300081a0033",
					"opcodes": "PUSH1 0x80 PUSH1 0x40 MSTORE CALLVALUE DUP1 ISZERO PUSH1 0xE JUMPI PUSH0 DUP1 REVERT JUMPDEST POP PUSH2 0x369 DUP1 PUSH2 0x1C PUSH0 CODECOPY PUSH0 RETURN INVALID PUSH1 0x80 PUSH1 0x40 MSTORE CALLVALUE DUP1 ISZERO PUSH2 0xF JUMPI PUSH0 DUP1 REVERT JUMPDEST POP PUSH1 0x4 CALLDATASIZE LT PUSH2 0x4A JUMPI PUSH0 CALLDATALOAD PUSH1 0xE0 SHR DUP1 PUSH4 0xC55699C EQ PUSH2 0x4E JUMPI DUP1 PUSH4 0x48593BAE EQ PUSH2 0x6C JUMPI DUP1 PUSH4 0x75A15343 EQ PUSH2 0x8A JUMPI DUP1 PUSH4 0xBAE82806 EQ PUSH2 0xA8 JUMPI JUMPDEST PUSH0 DUP1 REVERT JUMPDEST PUSH2 0x56 PUSH2 0xC4 JUMP JUMPDEST PUSH1 0x40 MLOAD PUSH2 0x63 SWAP2 SWAP1 PUSH2 0x238 JUMP JUMPDEST PUSH1 0x40 MLOAD DUP1 SWAP2 SUB SWAP1 RETURN JUMPDEST PUSH2 0x74 PUSH2 0xD4 JUMP JUMPDEST PUSH1 0x40 MLOAD PUSH2 0x81 SWAP2 SWAP1 PUSH2 0x238 JUMP JUMPDEST PUSH1 0x40 MLOAD DUP1 SWAP2 SUB SWAP1 RETURN JUMPDEST PUSH2 0x92 PUSH2 0xE8 JUMP JUMPDEST PUSH1 0x40 MLOAD PUSH2 0x9F SWAP2 SWAP1 PUSH2 0x2C1 JUMP JUMPDEST PUSH1 0x40 MLOAD DUP1 SWAP2 SUB SWAP1 RETURN JUMPDEST PUSH2 0xC2 PUSH1 0x4 DUP1 CALLDATASIZE SUB DUP2 ADD SWAP1 PUSH2 0xBD SWAP2 SWAP1 PUSH2 0x308 JUMP JUMPDEST PUSH2 0x19A JUMP JUMPDEST STOP JUMPDEST PUSH0 DUP1 SLOAD SWAP1 PUSH2 0x100 EXP SWAP1 DIV PUSH1 0xFF AND DUP2 JUMP JUMPDEST PUSH0 DUP1 PUSH0 SWAP1 SLOAD SWAP1 PUSH2 0x100 EXP SWAP1 DIV PUSH1 0xFF AND SWAP1 POP SWAP1 JUMP JUMPDEST PUSH1 0x60 PUSH0 PUSH1 0x1 DUP2 GT ISZERO PUSH2 0xFD JUMPI PUSH2 0xFC PUSH2 0x1C5 JUMP JUMPDEST JUMPDEST PUSH0 DUP1 SLOAD SWAP1 PUSH2 0x100 EXP SWAP1 DIV PUSH1 0xFF AND PUSH1 0x1 DUP2 GT ISZERO PUSH2 0x11C JUMPI PUSH2 0x11B PUSH2 0x1C5 JUMP JUMPDEST JUMPDEST SUB PUSH2 0x15E JUMPI PUSH1 0x40 MLOAD DUP1 PUSH1 0x40 ADD PUSH1 0x40 MSTORE DUP1 PUSH1 0xC DUP2 MSTORE PUSH1 0x20 ADD PUSH32 0x427574746F6E206973204F4E0000000000000000000000000000000000000000 DUP2 MSTORE POP SWAP1 POP PUSH2 0x197 JUMP JUMPDEST PUSH1 0x40 MLOAD DUP1 PUSH1 0x40 ADD PUSH1 0x40 MSTORE DUP1 PUSH1 0xD DUP2 MSTORE PUSH1 0x20 ADD PUSH32 0x427574746F6E206973204F464600000000000000000000000000000000000000 DUP2 MSTORE POP SWAP1 POP JUMPDEST SWAP1 JUMP JUMPDEST DUP1 PUSH0 DUP1 PUSH2 0x100 EXP DUP2 SLOAD DUP2 PUSH1 0xFF MUL NOT AND SWAP1 DUP4 PUSH1 0x1 DUP2 GT ISZERO PUSH2 0x1BD JUMPI PUSH2 0x1BC PUSH2 0x1C5 JUMP JUMPDEST JUMPDEST MUL OR SWAP1 SSTORE POP POP JUMP JUMPDEST PUSH32 0x4E487B7100000000000000000000000000000000000000000000000000000000 PUSH0 MSTORE PUSH1 0x21 PUSH1 0x4 MSTORE PUSH1 0x24 PUSH0 REVERT JUMPDEST PUSH1 0x2 DUP2 LT PUSH2 0x203 JUMPI PUSH2 0x202 PUSH2 0x1C5 JUMP JUMPDEST JUMPDEST POP JUMP JUMPDEST PUSH0 DUP2 SWAP1 POP PUSH2 0x213 DUP3 PUSH2 0x1F2 JUMP JUMPDEST SWAP2 SWAP1 POP JUMP JUMPDEST PUSH0 PUSH2 0x222 DUP3 PUSH2 0x206 JUMP JUMPDEST SWAP1 POP SWAP2 SWAP1 POP JUMP JUMPDEST PUSH2 0x232 DUP2 PUSH2 0x218 JUMP JUMPDEST DUP3 MSTORE POP POP JUMP JUMPDEST PUSH0 PUSH1 0x20 DUP3 ADD SWAP1 POP PUSH2 0x24B PUSH0 DUP4 ADD DUP5 PUSH2 0x229 JUMP JUMPDEST SWAP3 SWAP2 POP POP JUMP JUMPDEST PUSH0 DUP2 MLOAD SWAP1 POP SWAP2 SWAP1 POP JUMP JUMPDEST PUSH0 DUP3 DUP3 MSTORE PUSH1 0x20 DUP3 ADD SWAP1 POP SWAP3 SWAP2 POP POP JUMP JUMPDEST DUP3 DUP2 DUP4 MCOPY PUSH0 DUP4 DUP4 ADD MSTORE POP POP POP JUMP JUMPDEST PUSH0 PUSH1 0x1F NOT PUSH1 0x1F DUP4 ADD AND SWAP1 POP SWAP2 SWAP1 POP JUMP JUMPDEST PUSH0 PUSH2 0x293 DUP3 PUSH2 0x251 JUMP JUMPDEST PUSH2 0x29D DUP2 DUP6 PUSH2 0x25B JUMP JUMPDEST SWAP4 POP PUSH2 0x2AD DUP2 DUP6 PUSH1 0x20 DUP7 ADD PUSH2 0x26B JUMP JUMPDEST PUSH2 0x2B6 DUP2 PUSH2 0x279 JUMP JUMPDEST DUP5 ADD SWAP2 POP POP SWAP3 SWAP2 POP POP JUMP JUMPDEST PUSH0 PUSH1 0x20 DUP3 ADD SWAP1 POP DUP2 DUP2 SUB PUSH0 DUP4 ADD MSTORE PUSH2 0x2D9 DUP2 DUP5 PUSH2 0x289 JUMP JUMPDEST SWAP1 POP SWAP3 SWAP2 POP POP JUMP JUMPDEST PUSH0 DUP1 REVERT JUMPDEST PUSH1 0x2 DUP2 LT PUSH2 0x2F1 JUMPI PUSH0 DUP1 REVERT JUMPDEST POP JUMP JUMPDEST PUSH0 DUP2 CALLDATALOAD SWAP1 POP PUSH2 0x302 DUP2 PUSH2 0x2E5 JUMP JUMPDEST SWAP3 SWAP2 POP POP JUMP JUMPDEST PUSH0 PUSH1 0x20 DUP3 DUP5 SUB SLT ISZERO PUSH2 0x31D JUMPI PUSH2 0x31C PUSH2 0x2E1 JUMP JUMPDEST JUMPDEST PUSH0 PUSH2 0x32A DUP5 DUP3 DUP6 ADD PUSH2 0x2F4 JUMP JUMPDEST SWAP2 POP POP SWAP3 SWAP2 POP POP JUMP INVALID LOG2 PUSH5 0x6970667358 0x22 SLT KECCAK256 ISZERO PUSH28 0xC30FC10980329F2A9393180A376F2E3713D4FC1ED8DB5924CADC900F 0xA8 0xB3 PUSH5 0x736F6C6343 STOP ADDMOD BYTE STOP CALLER "
				},
				"gasEstimates": {
					"creation": {
						"codeDepositCost": "174600",
						"executionCost": "218",
						"totalCost": "174818"
					},
					"external": {
						"checkEnumValue()": "infinite",
						"getEnumValue()": "2561",
						"setEnumValue(uint8)": "24689",
						"x()": "2529"
					}
				},
				"methodIdentifiers": {
					"checkEnumValue()": "75a15343",
					"getEnumValue()": "48593bae",
					"setEnumValue(uint8)": "bae82806",
					"x()": "0c55699c"
				}
			},
			"storageLayout": {
				"storage": [
					{
						"astId": 7,
						"contract": "Solidity Basic/Enum.sol:Enum",
						"label": "x",
						"offset": 0,
						"slot": "0",
						"type": "t_enum(Button)4"
					}
				],
				"types": {
					"t_enum(Button)4": {
						"encoding": "inplace",
						"label": "enum Enum.Button",
						"numberOfBytes": "1"
					}
				}
			},
			"userdoc": {
				"kind": "user",
				"methods": {},
				"version": 1
			}
		}
	}
}