{
	"Solidity Basic/Loops.sol": {
		"Loops": {
			"abi": [
				{
					"inputs": [],
					"name": "doWhileLoop",
					"outputs": [
						{
							"internalType": "uint256",
							"name": "",
							"type": "uint256"
						}
					],
					"stateMutability": "pure",
					"type": "function"
				},
				{
					"inputs": [],
					"name": "forLoop",
					"outputs": [
						{
							"internalType": "uint256",
							"name": "",
							"type": "uint256"
						}
					],
					"stateMutability": "pure",
					"type": "function"
				},
				{
					"inputs": [],
					"name": "whileLoop",
					"outputs": [
						{
							"internalType": "uint256",
							"name": "",
							"type": "uint256"
						}
					],
					"stateMutability": "pure",
					"type": "function"
				}
			],
			"devdoc": {
				"kind": "dev",
				"methods": {},
				"version": 1
			},
			"evm": {
				"assembly": "    /* \"Solidity Basic/Loops.sol\":59:656  contract Loops {... */\n  mstore(0x40, 0x80)\n  callvalue\n  dup1\n  iszero\n  tag_1\n  jumpi\n  0x00\n  dup1\n  revert\ntag_1:\n  pop\n  dataSize(sub_0)\n  dup1\n  dataOffset(sub_0)\n  0x00\n  codecopy\n  0x00\n  return\nstop\n\nsub_0: assembly {\n        /* \"Solidity Basic/Loops.sol\":59:656  contract Loops {... */\n      mstore(0x40, 0x80)\n      callvalue\n      dup1\n      iszero\n      tag_1\n      jumpi\n      0x00\n      dup1\n      revert\n    tag_1:\n      pop\n      jumpi(tag_2, lt(calldatasize, 0x04))\n      shr(0xe0, calldataload(0x00))\n      dup1\n      0x174c9c7e\n      eq\n      tag_3\n      jumpi\n      dup1\n      0xe7c898ef\n      eq\n      tag_4\n      jumpi\n      dup1\n      0xfc0e6008\n      eq\n      tag_5\n      jumpi\n    tag_2:\n      0x00\n      dup1\n      revert\n        /* \"Solidity Basic/Loops.sol\":459:653  function doWhileLoop () public pure returns (uint) {... */\n    tag_3:\n      tag_6\n      tag_7\n      jump\t// in\n    tag_6:\n      mload(0x40)\n      tag_8\n      swap2\n      swap1\n      tag_9\n      jump\t// in\n    tag_8:\n      mload(0x40)\n      dup1\n      swap2\n      sub\n      swap1\n      return\n        /* \"Solidity Basic/Loops.sol\":81:269  function whileLoop () public pure returns (uint) {... */\n    tag_4:\n      tag_10\n      tag_11\n      jump\t// in\n    tag_10:\n      mload(0x40)\n      tag_12\n      swap2\n      swap1\n      tag_9\n      jump\t// in\n    tag_12:\n      mload(0x40)\n      dup1\n      swap2\n      sub\n      swap1\n      return\n        /* \"Solidity Basic/Loops.sol\":277:451  function forLoop () public pure returns (uint) {... */\n    tag_5:\n      tag_13\n      tag_14\n      jump\t// in\n    tag_13:\n      mload(0x40)\n      tag_15\n      swap2\n      swap1\n      tag_9\n      jump\t// in\n    tag_15:\n      mload(0x40)\n      dup1\n      swap2\n      sub\n      swap1\n      return\n        /* \"Solidity Basic/Loops.sol\":459:653  function doWhileLoop () public pure returns (uint) {... */\n    tag_7:\n        /* \"Solidity Basic/Loops.sol\":504:508  uint */\n      0x00\n        /* \"Solidity Basic/Loops.sol\":521:527  uint e */\n      dup1\n        /* \"Solidity Basic/Loops.sol\":538:544  uint f */\n      0x00\n        /* \"Solidity Basic/Loops.sol\":557:627  do {... */\n    tag_17:\n        /* \"Solidity Basic/Loops.sol\":580:581  f */\n      dup1\n        /* \"Solidity Basic/Loops.sol\":575:581  e += f */\n      dup3\n      tag_20\n      swap2\n      swap1\n      tag_21\n      jump\t// in\n    tag_20:\n      swap2\n      pop\n        /* \"Solidity Basic/Loops.sol\":596:599  f++ */\n      dup1\n      dup1\n      tag_22\n      swap1\n      tag_23\n      jump\t// in\n    tag_22:\n      swap2\n      pop\n      pop\n        /* \"Solidity Basic/Loops.sol\":623:625  10 */\n      0x0a\n        /* \"Solidity Basic/Loops.sol\":619:620  f */\n      dup2\n        /* \"Solidity Basic/Loops.sol\":619:625  f < 10 */\n      lt\n        /* \"Solidity Basic/Loops.sol\":557:627  do {... */\n      tag_17\n      jumpi\n        /* \"Solidity Basic/Loops.sol\":644:645  e */\n      dup2\n        /* \"Solidity Basic/Loops.sol\":637:645  return e */\n      swap3\n      pop\n      pop\n      pop\n        /* \"Solidity Basic/Loops.sol\":459:653  function doWhileLoop () public pure returns (uint) {... */\n      swap1\n      jump\t// out\n        /* \"Solidity Basic/Loops.sol\":81:269  function whileLoop () public pure returns (uint) {... */\n    tag_11:\n        /* \"Solidity Basic/Loops.sol\":124:128  uint */\n      0x00\n        /* \"Solidity Basic/Loops.sol\":141:147  uint a */\n      dup1\n        /* \"Solidity Basic/Loops.sol\":158:164  uint b */\n      0x00\n        /* \"Solidity Basic/Loops.sol\":177:243  while (b < 10) {... */\n    tag_25:\n        /* \"Solidity Basic/Loops.sol\":188:190  10 */\n      0x0a\n        /* \"Solidity Basic/Loops.sol\":184:185  b */\n      dup2\n        /* \"Solidity Basic/Loops.sol\":184:190  b < 10 */\n      lt\n        /* \"Solidity Basic/Loops.sol\":177:243  while (b < 10) {... */\n      iszero\n      tag_26\n      jumpi\n        /* \"Solidity Basic/Loops.sol\":212:213  b */\n      dup1\n        /* \"Solidity Basic/Loops.sol\":207:213  a += b */\n      dup3\n      tag_27\n      swap2\n      swap1\n      tag_21\n      jump\t// in\n    tag_27:\n      swap2\n      pop\n        /* \"Solidity Basic/Loops.sol\":228:231  b++ */\n      dup1\n      dup1\n      tag_28\n      swap1\n      tag_23\n      jump\t// in\n    tag_28:\n      swap2\n      pop\n      pop\n        /* \"Solidity Basic/Loops.sol\":177:243  while (b < 10) {... */\n      jump(tag_25)\n    tag_26:\n        /* \"Solidity Basic/Loops.sol\":260:261  a */\n      dup2\n        /* \"Solidity Basic/Loops.sol\":253:261  return a */\n      swap3\n      pop\n      pop\n      pop\n        /* \"Solidity Basic/Loops.sol\":81:269  function whileLoop () public pure returns (uint) {... */\n      swap1\n      jump\t// out\n        /* \"Solidity Basic/Loops.sol\":277:451  function forLoop () public pure returns (uint) {... */\n    tag_14:\n        /* \"Solidity Basic/Loops.sol\":318:322  uint */\n      0x00\n        /* \"Solidity Basic/Loops.sol\":335:341  uint c */\n      dup1\n        /* \"Solidity Basic/Loops.sol\":352:358  uint d */\n      0x00\n        /* \"Solidity Basic/Loops.sol\":371:425  for (d; d < 10; d++) {... */\n    tag_30:\n        /* \"Solidity Basic/Loops.sol\":383:385  10 */\n      0x0a\n        /* \"Solidity Basic/Loops.sol\":379:380  d */\n      dup2\n        /* \"Solidity Basic/Loops.sol\":379:385  d < 10 */\n      lt\n        /* \"Solidity Basic/Loops.sol\":371:425  for (d; d < 10; d++) {... */\n      iszero\n      tag_31\n      jumpi\n        /* \"Solidity Basic/Loops.sol\":412:413  d */\n      dup1\n        /* \"Solidity Basic/Loops.sol\":407:413  c += d */\n      dup3\n      tag_33\n      swap2\n      swap1\n      tag_21\n      jump\t// in\n    tag_33:\n      swap2\n      pop\n        /* \"Solidity Basic/Loops.sol\":387:390  d++ */\n      dup1\n      dup1\n      0x01\n      add\n      swap2\n      pop\n      pop\n        /* \"Solidity Basic/Loops.sol\":371:425  for (d; d < 10; d++) {... */\n      jump(tag_30)\n    tag_31:\n        /* \"Solidity Basic/Loops.sol\":442:443  c */\n      dup2\n        /* \"Solidity Basic/Loops.sol\":435:443  return c */\n      swap3\n      pop\n      pop\n      pop\n        /* \"Solidity Basic/Loops.sol\":277:451  function forLoop () public pure returns (uint) {... */\n      swap1\n      jump\t// out\n        /* \"#utility.yul\":7:84   */\n    tag_34:\n        /* \"#utility.yul\":44:51   */\n      0x00\n        /* \"#utility.yul\":73:78   */\n      dup2\n        /* \"#utility.yul\":62:78   */\n      swap1\n      pop\n        /* \"#utility.yul\":7:84   */\n      swap2\n      swap1\n      pop\n      jump\t// out\n        /* \"#utility.yul\":90:208   */\n    tag_35:\n        /* \"#utility.yul\":177:201   */\n      tag_40\n        /* \"#utility.yul\":195:200   */\n      dup2\n        /* \"#utility.yul\":177:201   */\n      tag_34\n      jump\t// in\n    tag_40:\n        /* \"#utility.yul\":172:175   */\n      dup3\n        /* \"#utility.yul\":165:202   */\n      mstore\n        /* \"#utility.yul\":90:208   */\n      pop\n      pop\n      jump\t// out\n        /* \"#utility.yul\":214:436   */\n    tag_9:\n        /* \"#utility.yul\":307:311   */\n      0x00\n        /* \"#utility.yul\":345:347   */\n      0x20\n        /* \"#utility.yul\":334:343   */\n      dup3\n        /* \"#utility.yul\":330:348   */\n      add\n        /* \"#utility.yul\":322:348   */\n      swap1\n      pop\n        /* \"#utility.yul\":358:429   */\n      tag_42\n        /* \"#utility.yul\":426:427   */\n      0x00\n        /* \"#utility.yul\":415:424   */\n      dup4\n        /* \"#utility.yul\":411:428   */\n      add\n        /* \"#utility.yul\":402:408   */\n      dup5\n        /* \"#utility.yul\":358:429   */\n      tag_35\n      jump\t// in\n    tag_42:\n        /* \"#utility.yul\":214:436   */\n      swap3\n      swap2\n      pop\n      pop\n      jump\t// out\n        /* \"#utility.yul\":442:622   */\n    tag_36:\n        /* \"#utility.yul\":490:567   */\n      0x4e487b7100000000000000000000000000000000000000000000000000000000\n        /* \"#utility.yul\":487:488   */\n      0x00\n        /* \"#utility.yul\":480:568   */\n      mstore\n        /* \"#utility.yul\":587:591   */\n      0x11\n        /* \"#utility.yul\":584:585   */\n      0x04\n        /* \"#utility.yul\":577:592   */\n      mstore\n        /* \"#utility.yul\":611:615   */\n      0x24\n        /* \"#utility.yul\":608:609   */\n      0x00\n        /* \"#utility.yul\":601:616   */\n      revert\n        /* \"#utility.yul\":628:819   */\n    tag_21:\n        /* \"#utility.yul\":668:671   */\n      0x00\n        /* \"#utility.yul\":687:707   */\n      tag_45\n        /* \"#utility.yul\":705:706   */\n      dup3\n        /* \"#utility.yul\":687:707   */\n      tag_34\n      jump\t// in\n    tag_45:\n        /* \"#utility.yul\":682:707   */\n      swap2\n      pop\n        /* \"#utility.yul\":721:741   */\n      tag_46\n        /* \"#utility.yul\":739:740   */\n      dup4\n        /* \"#utility.yul\":721:741   */\n      tag_34\n      jump\t// in\n    tag_46:\n        /* \"#utility.yul\":716:741   */\n      swap3\n      pop\n        /* \"#utility.yul\":764:765   */\n      dup3\n        /* \"#utility.yul\":761:762   */\n      dup3\n        /* \"#utility.yul\":757:766   */\n      add\n        /* \"#utility.yul\":750:766   */\n      swap1\n      pop\n        /* \"#utility.yul\":785:788   */\n      dup1\n        /* \"#utility.yul\":782:783   */\n      dup3\n        /* \"#utility.yul\":779:789   */\n      gt\n        /* \"#utility.yul\":776:812   */\n      iszero\n      tag_47\n      jumpi\n        /* \"#utility.yul\":792:810   */\n      tag_48\n      tag_36\n      jump\t// in\n    tag_48:\n        /* \"#utility.yul\":776:812   */\n    tag_47:\n        /* \"#utility.yul\":628:819   */\n      swap3\n      swap2\n      pop\n      pop\n      jump\t// out\n        /* \"#utility.yul\":825:1058   */\n    tag_23:\n        /* \"#utility.yul\":864:867   */\n      0x00\n        /* \"#utility.yul\":887:911   */\n      tag_50\n        /* \"#utility.yul\":905:910   */\n      dup3\n        /* \"#utility.yul\":887:911   */\n      tag_34\n      jump\t// in\n    tag_50:\n        /* \"#utility.yul\":878:911   */\n      swap2\n      pop\n        /* \"#utility.yul\":933:999   */\n      0xffffffffffffffffffffffffffffffffffffffffffffffffffffffffffffffff\n        /* \"#utility.yul\":926:931   */\n      dup3\n        /* \"#utility.yul\":923:1000   */\n      sub\n        /* \"#utility.yul\":920:1023   */\n      tag_51\n      jumpi\n        /* \"#utility.yul\":1003:1021   */\n      tag_52\n      tag_36\n      jump\t// in\n    tag_52:\n        /* \"#utility.yul\":920:1023   */\n    tag_51:\n        /* \"#utility.yul\":1050:1051   */\n      0x01\n        /* \"#utility.yul\":1043:1048   */\n      dup3\n        /* \"#utility.yul\":1039:1052   */\n      add\n        /* \"#utility.yul\":1032:1052   */\n      swap1\n      pop\n        /* \"#utility.yul\":825:1058   */\n      swap2\n      swap1\n      pop\n      jump\t// out\n\n    auxdata: 0xa26469706673582212202f40d3d22fc37cc6b1156a86363b063eab740cc3eeebf2bfcb76c4a950432ba864736f6c634300081a0033\n}\n",
				"bytecode": {
					"linkReferences": {},
					"object": "6080604052348015600e575f80fd5b506102418061001c5f395ff3fe608060405234801561000f575f80fd5b506004361061003f575f3560e01c8063174c9c7e14610043578063e7c898ef14610061578063fc0e60081461007f575b5f80fd5b61004b61009d565b604051610058919061014b565b60405180910390f35b6100696100cd565b604051610076919061014b565b60405180910390f35b610087610103565b604051610094919061014b565b60405180910390f35b5f805f5b80826100ad9190610191565b915080806100ba906101c4565b915050600a81106100a157819250505090565b5f805f5b600a8110156100fb5780826100e69190610191565b915080806100f3906101c4565b9150506100d1565b819250505090565b5f805f5b600a81101561012b57808261011c9190610191565b91508080600101915050610107565b819250505090565b5f819050919050565b61014581610133565b82525050565b5f60208201905061015e5f83018461013c565b92915050565b7f4e487b71000000000000000000000000000000000000000000000000000000005f52601160045260245ffd5b5f61019b82610133565b91506101a683610133565b92508282019050808211156101be576101bd610164565b5b92915050565b5f6101ce82610133565b91507fffffffffffffffffffffffffffffffffffffffffffffffffffffffffffffffff8203610200576101ff610164565b5b60018201905091905056fea26469706673582212202f40d3d22fc37cc6b1156a86363b063eab740cc3eeebf2bfcb76c4a950432ba864736f6c634300081a0033",
					"opcodes": "PUSH1 0x80 PUSH1 0x40 MSTORE CALLVALUE DUP1 ISZERO PUSH1 0xE JUMPI PUSH0 DUP1 REVERT JUMPDEST POP PUSH2 0x241 DUP1 PUSH2 0x1C PUSH0 CODECOPY PUSH0 RETURN INVALID PUSH1 0x80 PUSH1 0x40 MSTORE CALLVALUE DUP1 ISZERO PUSH2 0xF JUMPI PUSH0 DUP1 REVERT JUMPDEST POP PUSH1 0x4 CALLDATASIZE LT PUSH2 0x3F JUMPI PUSH0 CALLDATALOAD PUSH1 0xE0 SHR DUP1 PUSH4 0x174C9C7E EQ PUSH2 0x43 JUMPI DUP1 PUSH4 0xE7C898EF EQ PUSH2 0x61 JUMPI DUP1 PUSH4 0xFC0E6008 EQ PUSH2 0x7F JUMPI JUMPDEST PUSH0 DUP1 REVERT JUMPDEST PUSH2 0x4B PUSH2 0x9D JUMP JUMPDEST PUSH1 0x40 MLOAD PUSH2 0x58 SWAP2 SWAP1 PUSH2 0x14B JUMP JUMPDEST PUSH1 0x40 MLOAD DUP1 SWAP2 SUB SWAP1 RETURN JUMPDEST PUSH2 0x69 PUSH2 0xCD JUMP JUMPDEST PUSH1 0x40 MLOAD PUSH2 0x76 SWAP2 SWAP1 PUSH2 0x14B JUMP JUMPDEST PUSH1 0x40 MLOAD DUP1 SWAP2 SUB SWAP1 RETURN JUMPDEST PUSH2 0x87 PUSH2 0x103 JUMP JUMPDEST PUSH1 0x40 MLOAD PUSH2 0x94 SWAP2 SWAP1 PUSH2 0x14B JUMP JUMPDEST PUSH1 0x40 MLOAD DUP1 SWAP2 SUB SWAP1 RETURN JUMPDEST PUSH0 DUP1 PUSH0 JUMPDEST DUP1 DUP3 PUSH2 0xAD SWAP2 SWAP1 PUSH2 0x191 JUMP JUMPDEST SWAP2 POP DUP1 DUP1 PUSH2 0xBA SWAP1 PUSH2 0x1C4 JUMP JUMPDEST SWAP2 POP POP PUSH1 0xA DUP2 LT PUSH2 0xA1 JUMPI DUP2 SWAP3 POP POP POP SWAP1 JUMP JUMPDEST PUSH0 DUP1 PUSH0 JUMPDEST PUSH1 0xA DUP2 LT ISZERO PUSH2 0xFB JUMPI DUP1 DUP3 PUSH2 0xE6 SWAP2 SWAP1 PUSH2 0x191 JUMP JUMPDEST SWAP2 POP DUP1 DUP1 PUSH2 0xF3 SWAP1 PUSH2 0x1C4 JUMP JUMPDEST SWAP2 POP POP PUSH2 0xD1 JUMP JUMPDEST DUP2 SWAP3 POP POP POP SWAP1 JUMP JUMPDEST PUSH0 DUP1 PUSH0 JUMPDEST PUSH1 0xA DUP2 LT ISZERO PUSH2 0x12B JUMPI DUP1 DUP3 PUSH2 0x11C SWAP2 SWAP1 PUSH2 0x191 JUMP JUMPDEST SWAP2 POP DUP1 DUP1 PUSH1 0x1 ADD SWAP2 POP POP PUSH2 0x107 JUMP JUMPDEST DUP2 SWAP3 POP POP POP SWAP1 JUMP JUMPDEST PUSH0 DUP2 SWAP1 POP SWAP2 SWAP1 POP JUMP JUMPDEST PUSH2 0x145 DUP2 PUSH2 0x133 JUMP JUMPDEST DUP3 MSTORE POP POP JUMP JUMPDEST PUSH0 PUSH1 0x20 DUP3 ADD SWAP1 POP PUSH2 0x15E PUSH0 DUP4 ADD DUP5 PUSH2 0x13C JUMP JUMPDEST SWAP3 SWAP2 POP POP JUMP JUMPDEST PUSH32 0x4E487B7100000000000000000000000000000000000000000000000000000000 PUSH0 MSTORE PUSH1 0x11 PUSH1 0x4 MSTORE PUSH1 0x24 PUSH0 REVERT JUMPDEST PUSH0 PUSH2 0x19B DUP3 PUSH2 0x133 JUMP JUMPDEST SWAP2 POP PUSH2 0x1A6 DUP4 PUSH2 0x133 JUMP JUMPDEST SWAP3 POP DUP3 DUP3 ADD SWAP1 POP DUP1 DUP3 GT ISZERO PUSH2 0x1BE JUMPI PUSH2 0x1BD PUSH2 0x164 JUMP JUMPDEST JUMPDEST SWAP3 SWAP2 POP POP JUMP JUMPDEST PUSH0 PUSH2 0x1CE DUP3 PUSH2 0x133 JUMP JUMPDEST SWAP2 POP PUSH32 0xFFFFFFFFFFFFFFFFFFFFFFFFFFFFFFFFFFFFFFFFFFFFFFFFFFFFFFFFFFFFFFFF DUP3 SUB PUSH2 0x200 JUMPI PUSH2 0x1FF PUSH2 0x164 JUMP JUMPDEST JUMPDEST PUSH1 0x1 DUP3 ADD SWAP1 POP SWAP2 SWAP1 POP JUMP INVALID LOG2 PUSH5 0x6970667358 0x22 SLT KECCAK256 0x2F BLOCKHASH 0xD3 0xD2 0x2F 0xC3 PUSH29 0xC6B1156A86363B063EAB740CC3EEEBF2BFCB76C4A950432BA864736F6C PUSH4 0x4300081A STOP CALLER "
				},
				"gasEstimates": {
					"creation": {
						"codeDepositCost": "115400",
						"executionCost": "163",
						"totalCost": "115563"
					},
					"external": {
						"doWhileLoop()": "infinite",
						"forLoop()": "infinite",
						"whileLoop()": "infinite"
					}
				},
				"methodIdentifiers": {
					"doWhileLoop()": "174c9c7e",
					"forLoop()": "fc0e6008",
					"whileLoop()": "e7c898ef"
				}
			},
			"storageLayout": {
				"storage": [],
				"types": null
			},
			"userdoc": {
				"kind": "user",
				"methods": {},
				"version": 1
			}
		}
	}
}