{
	"Solidity Basic/Struct.sol": {
		"Struct": {
			"abi": [
				{
					"inputs": [],
					"name": "getSpecific",
					"outputs": [
						{
							"internalType": "string",
							"name": "",
							"type": "string"
						}
					],
					"stateMutability": "view",
					"type": "function"
				},
				{
					"inputs": [],
					"name": "getStudent",
					"outputs": [
						{
							"components": [
								{
									"internalType": "string",
									"name": "name",
									"type": "string"
								},
								{
									"internalType": "uint256",
									"name": "age",
									"type": "uint256"
								},
								{
									"internalType": "bool",
									"name": "pass",
									"type": "bool"
								}
							],
							"internalType": "struct Struct.Student",
							"name": "",
							"type": "tuple"
						}
					],
					"stateMutability": "view",
					"type": "function"
				},
				{
					"inputs": [],
					"name": "s1",
					"outputs": [
						{
							"internalType": "string",
							"name": "name",
							"type": "string"
						},
						{
							"internalType": "uint256",
							"name": "age",
							"type": "uint256"
						},
						{
							"internalType": "bool",
							"name": "pass",
							"type": "bool"
						}
					],
					"stateMutability": "view",
					"type": "function"
				},
				{
					"inputs": [
						{
							"internalType": "string",
							"name": "_name",
							"type": "string"
						},
						{
							"internalType": "uint256",
							"name": "_age",
							"type": "uint256"
						},
						{
							"internalType": "bool",
							"name": "_pass",
							"type": "bool"
						}
					],
					"name": "setStudent",
					"outputs": [],
					"stateMutability": "nonpayable",
					"type": "function"
				}
			],
			"devdoc": {
				"kind": "dev",
				"methods": {},
				"version": 1
			},
			"evm": {
				"assembly": "    /* \"Solidity Basic/Struct.sol\":59:787  contract Struct {... */\n  mstore(0x40, 0x80)\n  callvalue\n  dup1\n  iszero\n  tag_1\n  jumpi\n  0x00\n  dup1\n  revert\ntag_1:\n  pop\n  dataSize(sub_0)\n  dup1\n  dataOffset(sub_0)\n  0x00\n  codecopy\n  0x00\n  return\nstop\n\nsub_0: assembly {\n        /* \"Solidity Basic/Struct.sol\":59:787  contract Struct {... */\n      mstore(0x40, 0x80)\n      callvalue\n      dup1\n      iszero\n      tag_1\n      jumpi\n      0x00\n      dup1\n      revert\n    tag_1:\n      pop\n      jumpi(tag_2, lt(calldatasize, 0x04))\n      shr(0xe0, calldataload(0x00))\n      dup1\n      0x19044f07\n      eq\n      tag_3\n      jumpi\n      dup1\n      0x6cc014de\n      eq\n      tag_4\n      jumpi\n      dup1\n      0xb439548d\n      eq\n      tag_5\n      jumpi\n      dup1\n      0xb7e7f6a5\n      eq\n      tag_6\n      jumpi\n    tag_2:\n      0x00\n      dup1\n      revert\n        /* \"Solidity Basic/Struct.sol\":317:539  function setStudent(string memory _name, uint _age, bool _pass) public {... */\n    tag_3:\n      tag_7\n      0x04\n      dup1\n      calldatasize\n      sub\n      dup2\n      add\n      swap1\n      tag_8\n      swap2\n      swap1\n      tag_9\n      jump\t// in\n    tag_8:\n      tag_10\n      jump\t// in\n    tag_7:\n      stop\n        /* \"Solidity Basic/Struct.sol\":291:308  Student public s1 */\n    tag_4:\n      tag_11\n      tag_12\n      jump\t// in\n    tag_11:\n      mload(0x40)\n      tag_13\n      swap4\n      swap3\n      swap2\n      swap1\n      tag_14\n      jump\t// in\n    tag_13:\n      mload(0x40)\n      dup1\n      swap2\n      sub\n      swap1\n      return\n        /* \"Solidity Basic/Struct.sol\":547:657  function getStudent() public view returns (Student memory) { // Return whole struct... */\n    tag_5:\n      tag_15\n      tag_16\n      jump\t// in\n    tag_15:\n      mload(0x40)\n      tag_17\n      swap2\n      swap1\n      tag_18\n      jump\t// in\n    tag_17:\n      mload(0x40)\n      dup1\n      swap2\n      sub\n      swap1\n      return\n        /* \"Solidity Basic/Struct.sol\":665:784  function getSpecific () public view returns (string memory) { // Return specific struct... */\n    tag_6:\n      tag_19\n      tag_20\n      jump\t// in\n    tag_19:\n      mload(0x40)\n      tag_21\n      swap2\n      swap1\n      tag_22\n      jump\t// in\n    tag_21:\n      mload(0x40)\n      dup1\n      swap2\n      sub\n      swap1\n      return\n        /* \"Solidity Basic/Struct.sol\":317:539  function setStudent(string memory _name, uint _age, bool _pass) public {... */\n    tag_10:\n        /* \"Solidity Basic/Struct.sol\":504:531  Student(_name, _age, _pass) */\n      mload(0x40)\n      dup1\n      0x60\n      add\n      0x40\n      mstore\n      dup1\n        /* \"Solidity Basic/Struct.sol\":512:517  _name */\n      dup5\n        /* \"Solidity Basic/Struct.sol\":504:531  Student(_name, _age, _pass) */\n      dup2\n      mstore\n      0x20\n      add\n        /* \"Solidity Basic/Struct.sol\":519:523  _age */\n      dup4\n        /* \"Solidity Basic/Struct.sol\":504:531  Student(_name, _age, _pass) */\n      dup2\n      mstore\n      0x20\n      add\n        /* \"Solidity Basic/Struct.sol\":525:530  _pass */\n      dup3\n        /* \"Solidity Basic/Struct.sol\":504:531  Student(_name, _age, _pass) */\n      iszero\n      iszero\n      dup2\n      mstore\n      pop\n        /* \"Solidity Basic/Struct.sol\":499:501  s1 */\n      0x00\n        /* \"Solidity Basic/Struct.sol\":499:531  s1 = Student(_name, _age, _pass) */\n      dup1\n      dup3\n      add\n      mload\n      dup2\n      0x00\n      add\n      swap1\n      dup2\n      tag_24\n      swap2\n      swap1\n      tag_25\n      jump\t// in\n    tag_24:\n      pop\n      0x20\n      dup3\n      add\n      mload\n      dup2\n      0x01\n      add\n      sstore\n      0x40\n      dup3\n      add\n      mload\n      dup2\n      0x02\n      add\n      exp(0x0100, 0x00)\n      dup2\n      sload\n      dup2\n      0xff\n      mul\n      not\n      and\n      swap1\n      dup4\n      iszero\n      iszero\n      mul\n      or\n      swap1\n      sstore\n      pop\n      swap1\n      pop\n      pop\n        /* \"Solidity Basic/Struct.sol\":317:539  function setStudent(string memory _name, uint _age, bool _pass) public {... */\n      pop\n      pop\n      pop\n      jump\t// out\n        /* \"Solidity Basic/Struct.sol\":291:308  Student public s1 */\n    tag_12:\n      0x00\n      dup1\n      0x00\n      add\n      dup1\n      sload\n      tag_26\n      swap1\n      tag_27\n      jump\t// in\n    tag_26:\n      dup1\n      0x1f\n      add\n      0x20\n      dup1\n      swap2\n      div\n      mul\n      0x20\n      add\n      mload(0x40)\n      swap1\n      dup2\n      add\n      0x40\n      mstore\n      dup1\n      swap3\n      swap2\n      swap1\n      dup2\n      dup2\n      mstore\n      0x20\n      add\n      dup3\n      dup1\n      sload\n      tag_28\n      swap1\n      tag_27\n      jump\t// in\n    tag_28:\n      dup1\n      iszero\n      tag_29\n      jumpi\n      dup1\n      0x1f\n      lt\n      tag_30\n      jumpi\n      0x0100\n      dup1\n      dup4\n      sload\n      div\n      mul\n      dup4\n      mstore\n      swap2\n      0x20\n      add\n      swap2\n      jump(tag_29)\n    tag_30:\n      dup3\n      add\n      swap2\n      swap1\n      0x00\n      mstore\n      keccak256(0x00, 0x20)\n      swap1\n    tag_31:\n      dup2\n      sload\n      dup2\n      mstore\n      swap1\n      0x01\n      add\n      swap1\n      0x20\n      add\n      dup1\n      dup4\n      gt\n      tag_31\n      jumpi\n      dup3\n      swap1\n      sub\n      0x1f\n      and\n      dup3\n      add\n      swap2\n    tag_29:\n      pop\n      pop\n      pop\n      pop\n      pop\n      swap1\n      dup1\n      0x01\n      add\n      sload\n      swap1\n      dup1\n      0x02\n      add\n      0x00\n      swap1\n      sload\n      swap1\n      0x0100\n      exp\n      swap1\n      div\n      0xff\n      and\n      swap1\n      pop\n      dup4\n      jump\t// out\n        /* \"Solidity Basic/Struct.sol\":547:657  function getStudent() public view returns (Student memory) { // Return whole struct... */\n    tag_16:\n        /* \"Solidity Basic/Struct.sol\":590:604  Student memory */\n      tag_32\n      tag_33\n      jump\t// in\n    tag_32:\n        /* \"Solidity Basic/Struct.sol\":647:649  s1 */\n      0x00\n        /* \"Solidity Basic/Struct.sol\":640:649  return s1 */\n      mload(0x40)\n      dup1\n      0x60\n      add\n      0x40\n      mstore\n      swap1\n      dup2\n      0x00\n      dup3\n      add\n      dup1\n      sload\n      tag_35\n      swap1\n      tag_27\n      jump\t// in\n    tag_35:\n      dup1\n      0x1f\n      add\n      0x20\n      dup1\n      swap2\n      div\n      mul\n      0x20\n      add\n      mload(0x40)\n      swap1\n      dup2\n      add\n      0x40\n      mstore\n      dup1\n      swap3\n      swap2\n      swap1\n      dup2\n      dup2\n      mstore\n      0x20\n      add\n      dup3\n      dup1\n      sload\n      tag_36\n      swap1\n      tag_27\n      jump\t// in\n    tag_36:\n      dup1\n      iszero\n      tag_37\n      jumpi\n      dup1\n      0x1f\n      lt\n      tag_38\n      jumpi\n      0x0100\n      dup1\n      dup4\n      sload\n      div\n      mul\n      dup4\n      mstore\n      swap2\n      0x20\n      add\n      swap2\n      jump(tag_37)\n    tag_38:\n      dup3\n      add\n      swap2\n      swap1\n      0x00\n      mstore\n      keccak256(0x00, 0x20)\n      swap1\n    tag_39:\n      dup2\n      sload\n      dup2\n      mstore\n      swap1\n      0x01\n      add\n      swap1\n      0x20\n      add\n      dup1\n      dup4\n      gt\n      tag_39\n      jumpi\n      dup3\n      swap1\n      sub\n      0x1f\n      and\n      dup3\n      add\n      swap2\n    tag_37:\n      pop\n      pop\n      pop\n      pop\n      pop\n      dup2\n      mstore\n      0x20\n      add\n      0x01\n      dup3\n      add\n      sload\n      dup2\n      mstore\n      0x20\n      add\n      0x02\n      dup3\n      add\n      0x00\n      swap1\n      sload\n      swap1\n      0x0100\n      exp\n      swap1\n      div\n      0xff\n      and\n      iszero\n      iszero\n      iszero\n      iszero\n      dup2\n      mstore\n      pop\n      pop\n      swap1\n      pop\n        /* \"Solidity Basic/Struct.sol\":547:657  function getStudent() public view returns (Student memory) { // Return whole struct... */\n      swap1\n      jump\t// out\n        /* \"Solidity Basic/Struct.sol\":665:784  function getSpecific () public view returns (string memory) { // Return specific struct... */\n    tag_20:\n        /* \"Solidity Basic/Struct.sol\":710:723  string memory */\n      0x60\n        /* \"Solidity Basic/Struct.sol\":769:771  s1 */\n      0x00\n        /* \"Solidity Basic/Struct.sol\":769:776  s1.name */\n      dup1\n      add\n        /* \"Solidity Basic/Struct.sol\":762:776  return s1.name */\n      dup1\n      sload\n      tag_41\n      swap1\n      tag_27\n      jump\t// in\n    tag_41:\n      dup1\n      0x1f\n      add\n      0x20\n      dup1\n      swap2\n      div\n      mul\n      0x20\n      add\n      mload(0x40)\n      swap1\n      dup2\n      add\n      0x40\n      mstore\n      dup1\n      swap3\n      swap2\n      swap1\n      dup2\n      dup2\n      mstore\n      0x20\n      add\n      dup3\n      dup1\n      sload\n      tag_42\n      swap1\n      tag_27\n      jump\t// in\n    tag_42:\n      dup1\n      iszero\n      tag_43\n      jumpi\n      dup1\n      0x1f\n      lt\n      tag_44\n      jumpi\n      0x0100\n      dup1\n      dup4\n      sload\n      div\n      mul\n      dup4\n      mstore\n      swap2\n      0x20\n      add\n      swap2\n      jump(tag_43)\n    tag_44:\n      dup3\n      add\n      swap2\n      swap1\n      0x00\n      mstore\n      keccak256(0x00, 0x20)\n      swap1\n    tag_45:\n      dup2\n      sload\n      dup2\n      mstore\n      swap1\n      0x01\n      add\n      swap1\n      0x20\n      add\n      dup1\n      dup4\n      gt\n      tag_45\n      jumpi\n      dup3\n      swap1\n      sub\n      0x1f\n      and\n      dup3\n      add\n      swap2\n    tag_43:\n      pop\n      pop\n      pop\n      pop\n      pop\n      swap1\n      pop\n        /* \"Solidity Basic/Struct.sol\":665:784  function getSpecific () public view returns (string memory) { // Return specific struct... */\n      swap1\n      jump\t// out\n    tag_33:\n      mload(0x40)\n      dup1\n      0x60\n      add\n      0x40\n      mstore\n      dup1\n      0x60\n      dup2\n      mstore\n      0x20\n      add\n      0x00\n      dup2\n      mstore\n      0x20\n      add\n      iszero(iszero(0x00))\n      dup2\n      mstore\n      pop\n      swap1\n      jump\t// out\n        /* \"#utility.yul\":7:82   */\n    tag_46:\n        /* \"#utility.yul\":40:46   */\n      0x00\n        /* \"#utility.yul\":73:75   */\n      0x40\n        /* \"#utility.yul\":67:76   */\n      mload\n        /* \"#utility.yul\":57:76   */\n      swap1\n      pop\n        /* \"#utility.yul\":7:82   */\n      swap1\n      jump\t// out\n        /* \"#utility.yul\":88:205   */\n    tag_47:\n        /* \"#utility.yul\":197:198   */\n      0x00\n        /* \"#utility.yul\":194:195   */\n      dup1\n        /* \"#utility.yul\":187:199   */\n      revert\n        /* \"#utility.yul\":211:328   */\n    tag_48:\n        /* \"#utility.yul\":320:321   */\n      0x00\n        /* \"#utility.yul\":317:318   */\n      dup1\n        /* \"#utility.yul\":310:322   */\n      revert\n        /* \"#utility.yul\":334:451   */\n    tag_49:\n        /* \"#utility.yul\":443:444   */\n      0x00\n        /* \"#utility.yul\":440:441   */\n      dup1\n        /* \"#utility.yul\":433:445   */\n      revert\n        /* \"#utility.yul\":457:574   */\n    tag_50:\n        /* \"#utility.yul\":566:567   */\n      0x00\n        /* \"#utility.yul\":563:564   */\n      dup1\n        /* \"#utility.yul\":556:568   */\n      revert\n        /* \"#utility.yul\":580:682   */\n    tag_51:\n        /* \"#utility.yul\":621:627   */\n      0x00\n        /* \"#utility.yul\":672:674   */\n      0x1f\n        /* \"#utility.yul\":668:675   */\n      not\n        /* \"#utility.yul\":663:665   */\n      0x1f\n        /* \"#utility.yul\":656:661   */\n      dup4\n        /* \"#utility.yul\":652:666   */\n      add\n        /* \"#utility.yul\":648:676   */\n      and\n        /* \"#utility.yul\":638:676   */\n      swap1\n      pop\n        /* \"#utility.yul\":580:682   */\n      swap2\n      swap1\n      pop\n      jump\t// out\n        /* \"#utility.yul\":688:868   */\n    tag_52:\n        /* \"#utility.yul\":736:813   */\n      0x4e487b7100000000000000000000000000000000000000000000000000000000\n        /* \"#utility.yul\":733:734   */\n      0x00\n        /* \"#utility.yul\":726:814   */\n      mstore\n        /* \"#utility.yul\":833:837   */\n      0x41\n        /* \"#utility.yul\":830:831   */\n      0x04\n        /* \"#utility.yul\":823:838   */\n      mstore\n        /* \"#utility.yul\":857:861   */\n      0x24\n        /* \"#utility.yul\":854:855   */\n      0x00\n        /* \"#utility.yul\":847:862   */\n      revert\n        /* \"#utility.yul\":874:1155   */\n    tag_53:\n        /* \"#utility.yul\":957:984   */\n      tag_101\n        /* \"#utility.yul\":979:983   */\n      dup3\n        /* \"#utility.yul\":957:984   */\n      tag_51\n      jump\t// in\n    tag_101:\n        /* \"#utility.yul\":949:955   */\n      dup2\n        /* \"#utility.yul\":945:985   */\n      add\n        /* \"#utility.yul\":1087:1093   */\n      dup2\n        /* \"#utility.yul\":1075:1085   */\n      dup2\n        /* \"#utility.yul\":1072:1094   */\n      lt\n        /* \"#utility.yul\":1051:1069   */\n      0xffffffffffffffff\n        /* \"#utility.yul\":1039:1049   */\n      dup3\n        /* \"#utility.yul\":1036:1070   */\n      gt\n        /* \"#utility.yul\":1033:1095   */\n      or\n        /* \"#utility.yul\":1030:1118   */\n      iszero\n      tag_102\n      jumpi\n        /* \"#utility.yul\":1098:1116   */\n      tag_103\n      tag_52\n      jump\t// in\n    tag_103:\n        /* \"#utility.yul\":1030:1118   */\n    tag_102:\n        /* \"#utility.yul\":1138:1148   */\n      dup1\n        /* \"#utility.yul\":1134:1136   */\n      0x40\n        /* \"#utility.yul\":1127:1149   */\n      mstore\n        /* \"#utility.yul\":917:1155   */\n      pop\n        /* \"#utility.yul\":874:1155   */\n      pop\n      pop\n      jump\t// out\n        /* \"#utility.yul\":1161:1290   */\n    tag_54:\n        /* \"#utility.yul\":1195:1201   */\n      0x00\n        /* \"#utility.yul\":1222:1242   */\n      tag_105\n      tag_46\n      jump\t// in\n    tag_105:\n        /* \"#utility.yul\":1212:1242   */\n      swap1\n      pop\n        /* \"#utility.yul\":1251:1284   */\n      tag_106\n        /* \"#utility.yul\":1279:1283   */\n      dup3\n        /* \"#utility.yul\":1271:1277   */\n      dup3\n        /* \"#utility.yul\":1251:1284   */\n      tag_53\n      jump\t// in\n    tag_106:\n        /* \"#utility.yul\":1161:1290   */\n      swap2\n      swap1\n      pop\n      jump\t// out\n        /* \"#utility.yul\":1296:1604   */\n    tag_55:\n        /* \"#utility.yul\":1358:1362   */\n      0x00\n        /* \"#utility.yul\":1448:1466   */\n      0xffffffffffffffff\n        /* \"#utility.yul\":1440:1446   */\n      dup3\n        /* \"#utility.yul\":1437:1467   */\n      gt\n        /* \"#utility.yul\":1434:1490   */\n      iszero\n      tag_108\n      jumpi\n        /* \"#utility.yul\":1470:1488   */\n      tag_109\n      tag_52\n      jump\t// in\n    tag_109:\n        /* \"#utility.yul\":1434:1490   */\n    tag_108:\n        /* \"#utility.yul\":1508:1537   */\n      tag_110\n        /* \"#utility.yul\":1530:1536   */\n      dup3\n        /* \"#utility.yul\":1508:1537   */\n      tag_51\n      jump\t// in\n    tag_110:\n        /* \"#utility.yul\":1500:1537   */\n      swap1\n      pop\n        /* \"#utility.yul\":1592:1596   */\n      0x20\n        /* \"#utility.yul\":1586:1590   */\n      dup2\n        /* \"#utility.yul\":1582:1597   */\n      add\n        /* \"#utility.yul\":1574:1597   */\n      swap1\n      pop\n        /* \"#utility.yul\":1296:1604   */\n      swap2\n      swap1\n      pop\n      jump\t// out\n        /* \"#utility.yul\":1610:1758   */\n    tag_56:\n        /* \"#utility.yul\":1708:1714   */\n      dup3\n        /* \"#utility.yul\":1703:1706   */\n      dup2\n        /* \"#utility.yul\":1698:1701   */\n      dup4\n        /* \"#utility.yul\":1685:1715   */\n      calldatacopy\n        /* \"#utility.yul\":1749:1750   */\n      0x00\n        /* \"#utility.yul\":1740:1746   */\n      dup4\n        /* \"#utility.yul\":1735:1738   */\n      dup4\n        /* \"#utility.yul\":1731:1747   */\n      add\n        /* \"#utility.yul\":1724:1751   */\n      mstore\n        /* \"#utility.yul\":1610:1758   */\n      pop\n      pop\n      pop\n      jump\t// out\n        /* \"#utility.yul\":1764:2189   */\n    tag_57:\n        /* \"#utility.yul\":1842:1847   */\n      0x00\n        /* \"#utility.yul\":1867:1933   */\n      tag_113\n        /* \"#utility.yul\":1883:1932   */\n      tag_114\n        /* \"#utility.yul\":1925:1931   */\n      dup5\n        /* \"#utility.yul\":1883:1932   */\n      tag_55\n      jump\t// in\n    tag_114:\n        /* \"#utility.yul\":1867:1933   */\n      tag_54\n      jump\t// in\n    tag_113:\n        /* \"#utility.yul\":1858:1933   */\n      swap1\n      pop\n        /* \"#utility.yul\":1956:1962   */\n      dup3\n        /* \"#utility.yul\":1949:1954   */\n      dup2\n        /* \"#utility.yul\":1942:1963   */\n      mstore\n        /* \"#utility.yul\":1994:1998   */\n      0x20\n        /* \"#utility.yul\":1987:1992   */\n      dup2\n        /* \"#utility.yul\":1983:1999   */\n      add\n        /* \"#utility.yul\":2032:2035   */\n      dup5\n        /* \"#utility.yul\":2023:2029   */\n      dup5\n        /* \"#utility.yul\":2018:2021   */\n      dup5\n        /* \"#utility.yul\":2014:2030   */\n      add\n        /* \"#utility.yul\":2011:2036   */\n      gt\n        /* \"#utility.yul\":2008:2120   */\n      iszero\n      tag_115\n      jumpi\n        /* \"#utility.yul\":2039:2118   */\n      tag_116\n      tag_50\n      jump\t// in\n    tag_116:\n        /* \"#utility.yul\":2008:2120   */\n    tag_115:\n        /* \"#utility.yul\":2129:2183   */\n      tag_117\n        /* \"#utility.yul\":2176:2182   */\n      dup5\n        /* \"#utility.yul\":2171:2174   */\n      dup3\n        /* \"#utility.yul\":2166:2169   */\n      dup6\n        /* \"#utility.yul\":2129:2183   */\n      tag_56\n      jump\t// in\n    tag_117:\n        /* \"#utility.yul\":1848:2189   */\n      pop\n        /* \"#utility.yul\":1764:2189   */\n      swap4\n      swap3\n      pop\n      pop\n      pop\n      jump\t// out\n        /* \"#utility.yul\":2209:2549   */\n    tag_58:\n        /* \"#utility.yul\":2265:2270   */\n      0x00\n        /* \"#utility.yul\":2314:2317   */\n      dup3\n        /* \"#utility.yul\":2307:2311   */\n      0x1f\n        /* \"#utility.yul\":2299:2305   */\n      dup4\n        /* \"#utility.yul\":2295:2312   */\n      add\n        /* \"#utility.yul\":2291:2318   */\n      slt\n        /* \"#utility.yul\":2281:2403   */\n      tag_119\n      jumpi\n        /* \"#utility.yul\":2322:2401   */\n      tag_120\n      tag_49\n      jump\t// in\n    tag_120:\n        /* \"#utility.yul\":2281:2403   */\n    tag_119:\n        /* \"#utility.yul\":2439:2445   */\n      dup2\n        /* \"#utility.yul\":2426:2446   */\n      calldataload\n        /* \"#utility.yul\":2464:2543   */\n      tag_121\n        /* \"#utility.yul\":2539:2542   */\n      dup5\n        /* \"#utility.yul\":2531:2537   */\n      dup3\n        /* \"#utility.yul\":2524:2528   */\n      0x20\n        /* \"#utility.yul\":2516:2522   */\n      dup7\n        /* \"#utility.yul\":2512:2529   */\n      add\n        /* \"#utility.yul\":2464:2543   */\n      tag_57\n      jump\t// in\n    tag_121:\n        /* \"#utility.yul\":2455:2543   */\n      swap2\n      pop\n        /* \"#utility.yul\":2271:2549   */\n      pop\n        /* \"#utility.yul\":2209:2549   */\n      swap3\n      swap2\n      pop\n      pop\n      jump\t// out\n        /* \"#utility.yul\":2555:2632   */\n    tag_59:\n        /* \"#utility.yul\":2592:2599   */\n      0x00\n        /* \"#utility.yul\":2621:2626   */\n      dup2\n        /* \"#utility.yul\":2610:2626   */\n      swap1\n      pop\n        /* \"#utility.yul\":2555:2632   */\n      swap2\n      swap1\n      pop\n      jump\t// out\n        /* \"#utility.yul\":2638:2760   */\n    tag_60:\n        /* \"#utility.yul\":2711:2735   */\n      tag_124\n        /* \"#utility.yul\":2729:2734   */\n      dup2\n        /* \"#utility.yul\":2711:2735   */\n      tag_59\n      jump\t// in\n    tag_124:\n        /* \"#utility.yul\":2704:2709   */\n      dup2\n        /* \"#utility.yul\":2701:2736   */\n      eq\n        /* \"#utility.yul\":2691:2754   */\n      tag_125\n      jumpi\n        /* \"#utility.yul\":2750:2751   */\n      0x00\n        /* \"#utility.yul\":2747:2748   */\n      dup1\n        /* \"#utility.yul\":2740:2752   */\n      revert\n        /* \"#utility.yul\":2691:2754   */\n    tag_125:\n        /* \"#utility.yul\":2638:2760   */\n      pop\n      jump\t// out\n        /* \"#utility.yul\":2766:2905   */\n    tag_61:\n        /* \"#utility.yul\":2812:2817   */\n      0x00\n        /* \"#utility.yul\":2850:2856   */\n      dup2\n        /* \"#utility.yul\":2837:2857   */\n      calldataload\n        /* \"#utility.yul\":2828:2857   */\n      swap1\n      pop\n        /* \"#utility.yul\":2866:2899   */\n      tag_127\n        /* \"#utility.yul\":2893:2898   */\n      dup2\n        /* \"#utility.yul\":2866:2899   */\n      tag_60\n      jump\t// in\n    tag_127:\n        /* \"#utility.yul\":2766:2905   */\n      swap3\n      swap2\n      pop\n      pop\n      jump\t// out\n        /* \"#utility.yul\":2911:3001   */\n    tag_62:\n        /* \"#utility.yul\":2945:2952   */\n      0x00\n        /* \"#utility.yul\":2988:2993   */\n      dup2\n        /* \"#utility.yul\":2981:2994   */\n      iszero\n        /* \"#utility.yul\":2974:2995   */\n      iszero\n        /* \"#utility.yul\":2963:2995   */\n      swap1\n      pop\n        /* \"#utility.yul\":2911:3001   */\n      swap2\n      swap1\n      pop\n      jump\t// out\n        /* \"#utility.yul\":3007:3123   */\n    tag_63:\n        /* \"#utility.yul\":3077:3098   */\n      tag_130\n        /* \"#utility.yul\":3092:3097   */\n      dup2\n        /* \"#utility.yul\":3077:3098   */\n      tag_62\n      jump\t// in\n    tag_130:\n        /* \"#utility.yul\":3070:3075   */\n      dup2\n        /* \"#utility.yul\":3067:3099   */\n      eq\n        /* \"#utility.yul\":3057:3117   */\n      tag_131\n      jumpi\n        /* \"#utility.yul\":3113:3114   */\n      0x00\n        /* \"#utility.yul\":3110:3111   */\n      dup1\n        /* \"#utility.yul\":3103:3115   */\n      revert\n        /* \"#utility.yul\":3057:3117   */\n    tag_131:\n        /* \"#utility.yul\":3007:3123   */\n      pop\n      jump\t// out\n        /* \"#utility.yul\":3129:3262   */\n    tag_64:\n        /* \"#utility.yul\":3172:3177   */\n      0x00\n        /* \"#utility.yul\":3210:3216   */\n      dup2\n        /* \"#utility.yul\":3197:3217   */\n      calldataload\n        /* \"#utility.yul\":3188:3217   */\n      swap1\n      pop\n        /* \"#utility.yul\":3226:3256   */\n      tag_133\n        /* \"#utility.yul\":3250:3255   */\n      dup2\n        /* \"#utility.yul\":3226:3256   */\n      tag_63\n      jump\t// in\n    tag_133:\n        /* \"#utility.yul\":3129:3262   */\n      swap3\n      swap2\n      pop\n      pop\n      jump\t// out\n        /* \"#utility.yul\":3268:4061   */\n    tag_9:\n        /* \"#utility.yul\":3352:3358   */\n      0x00\n        /* \"#utility.yul\":3360:3366   */\n      dup1\n        /* \"#utility.yul\":3368:3374   */\n      0x00\n        /* \"#utility.yul\":3417:3419   */\n      0x60\n        /* \"#utility.yul\":3405:3414   */\n      dup5\n        /* \"#utility.yul\":3396:3403   */\n      dup7\n        /* \"#utility.yul\":3392:3415   */\n      sub\n        /* \"#utility.yul\":3388:3420   */\n      slt\n        /* \"#utility.yul\":3385:3504   */\n      iszero\n      tag_135\n      jumpi\n        /* \"#utility.yul\":3423:3502   */\n      tag_136\n      tag_47\n      jump\t// in\n    tag_136:\n        /* \"#utility.yul\":3385:3504   */\n    tag_135:\n        /* \"#utility.yul\":3571:3572   */\n      0x00\n        /* \"#utility.yul\":3560:3569   */\n      dup5\n        /* \"#utility.yul\":3556:3573   */\n      add\n        /* \"#utility.yul\":3543:3574   */\n      calldataload\n        /* \"#utility.yul\":3601:3619   */\n      0xffffffffffffffff\n        /* \"#utility.yul\":3593:3599   */\n      dup2\n        /* \"#utility.yul\":3590:3620   */\n      gt\n        /* \"#utility.yul\":3587:3704   */\n      iszero\n      tag_137\n      jumpi\n        /* \"#utility.yul\":3623:3702   */\n      tag_138\n      tag_48\n      jump\t// in\n    tag_138:\n        /* \"#utility.yul\":3587:3704   */\n    tag_137:\n        /* \"#utility.yul\":3728:3791   */\n      tag_139\n        /* \"#utility.yul\":3783:3790   */\n      dup7\n        /* \"#utility.yul\":3774:3780   */\n      dup3\n        /* \"#utility.yul\":3763:3772   */\n      dup8\n        /* \"#utility.yul\":3759:3781   */\n      add\n        /* \"#utility.yul\":3728:3791   */\n      tag_58\n      jump\t// in\n    tag_139:\n        /* \"#utility.yul\":3718:3791   */\n      swap4\n      pop\n        /* \"#utility.yul\":3514:3801   */\n      pop\n        /* \"#utility.yul\":3840:3842   */\n      0x20\n        /* \"#utility.yul\":3866:3919   */\n      tag_140\n        /* \"#utility.yul\":3911:3918   */\n      dup7\n        /* \"#utility.yul\":3902:3908   */\n      dup3\n        /* \"#utility.yul\":3891:3900   */\n      dup8\n        /* \"#utility.yul\":3887:3909   */\n      add\n        /* \"#utility.yul\":3866:3919   */\n      tag_61\n      jump\t// in\n    tag_140:\n        /* \"#utility.yul\":3856:3919   */\n      swap3\n      pop\n        /* \"#utility.yul\":3811:3929   */\n      pop\n        /* \"#utility.yul\":3968:3970   */\n      0x40\n        /* \"#utility.yul\":3994:4044   */\n      tag_141\n        /* \"#utility.yul\":4036:4043   */\n      dup7\n        /* \"#utility.yul\":4027:4033   */\n      dup3\n        /* \"#utility.yul\":4016:4025   */\n      dup8\n        /* \"#utility.yul\":4012:4034   */\n      add\n        /* \"#utility.yul\":3994:4044   */\n      tag_64\n      jump\t// in\n    tag_141:\n        /* \"#utility.yul\":3984:4044   */\n      swap2\n      pop\n        /* \"#utility.yul\":3939:4054   */\n      pop\n        /* \"#utility.yul\":3268:4061   */\n      swap3\n      pop\n      swap3\n      pop\n      swap3\n      jump\t// out\n        /* \"#utility.yul\":4067:4166   */\n    tag_65:\n        /* \"#utility.yul\":4119:4125   */\n      0x00\n        /* \"#utility.yul\":4153:4158   */\n      dup2\n        /* \"#utility.yul\":4147:4159   */\n      mload\n        /* \"#utility.yul\":4137:4159   */\n      swap1\n      pop\n        /* \"#utility.yul\":4067:4166   */\n      swap2\n      swap1\n      pop\n      jump\t// out\n        /* \"#utility.yul\":4172:4341   */\n    tag_66:\n        /* \"#utility.yul\":4256:4267   */\n      0x00\n        /* \"#utility.yul\":4290:4296   */\n      dup3\n        /* \"#utility.yul\":4285:4288   */\n      dup3\n        /* \"#utility.yul\":4278:4297   */\n      mstore\n        /* \"#utility.yul\":4330:4334   */\n      0x20\n        /* \"#utility.yul\":4325:4328   */\n      dup3\n        /* \"#utility.yul\":4321:4335   */\n      add\n        /* \"#utility.yul\":4306:4335   */\n      swap1\n      pop\n        /* \"#utility.yul\":4172:4341   */\n      swap3\n      swap2\n      pop\n      pop\n      jump\t// out\n        /* \"#utility.yul\":4347:4486   */\n    tag_67:\n        /* \"#utility.yul\":4436:4442   */\n      dup3\n        /* \"#utility.yul\":4431:4434   */\n      dup2\n        /* \"#utility.yul\":4426:4429   */\n      dup4\n        /* \"#utility.yul\":4420:4443   */\n      mcopy\n        /* \"#utility.yul\":4477:4478   */\n      0x00\n        /* \"#utility.yul\":4468:4474   */\n      dup4\n        /* \"#utility.yul\":4463:4466   */\n      dup4\n        /* \"#utility.yul\":4459:4475   */\n      add\n        /* \"#utility.yul\":4452:4479   */\n      mstore\n        /* \"#utility.yul\":4347:4486   */\n      pop\n      pop\n      pop\n      jump\t// out\n        /* \"#utility.yul\":4492:4869   */\n    tag_68:\n        /* \"#utility.yul\":4580:4583   */\n      0x00\n        /* \"#utility.yul\":4608:4647   */\n      tag_146\n        /* \"#utility.yul\":4641:4646   */\n      dup3\n        /* \"#utility.yul\":4608:4647   */\n      tag_65\n      jump\t// in\n    tag_146:\n        /* \"#utility.yul\":4663:4734   */\n      tag_147\n        /* \"#utility.yul\":4727:4733   */\n      dup2\n        /* \"#utility.yul\":4722:4725   */\n      dup6\n        /* \"#utility.yul\":4663:4734   */\n      tag_66\n      jump\t// in\n    tag_147:\n        /* \"#utility.yul\":4656:4734   */\n      swap4\n      pop\n        /* \"#utility.yul\":4743:4808   */\n      tag_148\n        /* \"#utility.yul\":4801:4807   */\n      dup2\n        /* \"#utility.yul\":4796:4799   */\n      dup6\n        /* \"#utility.yul\":4789:4793   */\n      0x20\n        /* \"#utility.yul\":4782:4787   */\n      dup7\n        /* \"#utility.yul\":4778:4794   */\n      add\n        /* \"#utility.yul\":4743:4808   */\n      tag_67\n      jump\t// in\n    tag_148:\n        /* \"#utility.yul\":4833:4862   */\n      tag_149\n        /* \"#utility.yul\":4855:4861   */\n      dup2\n        /* \"#utility.yul\":4833:4862   */\n      tag_51\n      jump\t// in\n    tag_149:\n        /* \"#utility.yul\":4828:4831   */\n      dup5\n        /* \"#utility.yul\":4824:4863   */\n      add\n        /* \"#utility.yul\":4817:4863   */\n      swap2\n      pop\n        /* \"#utility.yul\":4584:4869   */\n      pop\n        /* \"#utility.yul\":4492:4869   */\n      swap3\n      swap2\n      pop\n      pop\n      jump\t// out\n        /* \"#utility.yul\":4875:4993   */\n    tag_69:\n        /* \"#utility.yul\":4962:4986   */\n      tag_151\n        /* \"#utility.yul\":4980:4985   */\n      dup2\n        /* \"#utility.yul\":4962:4986   */\n      tag_59\n      jump\t// in\n    tag_151:\n        /* \"#utility.yul\":4957:4960   */\n      dup3\n        /* \"#utility.yul\":4950:4987   */\n      mstore\n        /* \"#utility.yul\":4875:4993   */\n      pop\n      pop\n      jump\t// out\n        /* \"#utility.yul\":4999:5108   */\n    tag_70:\n        /* \"#utility.yul\":5080:5101   */\n      tag_153\n        /* \"#utility.yul\":5095:5100   */\n      dup2\n        /* \"#utility.yul\":5080:5101   */\n      tag_62\n      jump\t// in\n    tag_153:\n        /* \"#utility.yul\":5075:5078   */\n      dup3\n        /* \"#utility.yul\":5068:5102   */\n      mstore\n        /* \"#utility.yul\":4999:5108   */\n      pop\n      pop\n      jump\t// out\n        /* \"#utility.yul\":5114:5635   */\n    tag_14:\n        /* \"#utility.yul\":5277:5281   */\n      0x00\n        /* \"#utility.yul\":5315:5317   */\n      0x60\n        /* \"#utility.yul\":5304:5313   */\n      dup3\n        /* \"#utility.yul\":5300:5318   */\n      add\n        /* \"#utility.yul\":5292:5318   */\n      swap1\n      pop\n        /* \"#utility.yul\":5364:5373   */\n      dup2\n        /* \"#utility.yul\":5358:5362   */\n      dup2\n        /* \"#utility.yul\":5354:5374   */\n      sub\n        /* \"#utility.yul\":5350:5351   */\n      0x00\n        /* \"#utility.yul\":5339:5348   */\n      dup4\n        /* \"#utility.yul\":5335:5352   */\n      add\n        /* \"#utility.yul\":5328:5375   */\n      mstore\n        /* \"#utility.yul\":5392:5470   */\n      tag_155\n        /* \"#utility.yul\":5465:5469   */\n      dup2\n        /* \"#utility.yul\":5456:5462   */\n      dup7\n        /* \"#utility.yul\":5392:5470   */\n      tag_68\n      jump\t// in\n    tag_155:\n        /* \"#utility.yul\":5384:5470   */\n      swap1\n      pop\n        /* \"#utility.yul\":5480:5552   */\n      tag_156\n        /* \"#utility.yul\":5548:5550   */\n      0x20\n        /* \"#utility.yul\":5537:5546   */\n      dup4\n        /* \"#utility.yul\":5533:5551   */\n      add\n        /* \"#utility.yul\":5524:5530   */\n      dup6\n        /* \"#utility.yul\":5480:5552   */\n      tag_69\n      jump\t// in\n    tag_156:\n        /* \"#utility.yul\":5562:5628   */\n      tag_157\n        /* \"#utility.yul\":5624:5626   */\n      0x40\n        /* \"#utility.yul\":5613:5622   */\n      dup4\n        /* \"#utility.yul\":5609:5627   */\n      add\n        /* \"#utility.yul\":5600:5606   */\n      dup5\n        /* \"#utility.yul\":5562:5628   */\n      tag_70\n      jump\t// in\n    tag_157:\n        /* \"#utility.yul\":5114:5635   */\n      swap5\n      swap4\n      pop\n      pop\n      pop\n      pop\n      jump\t// out\n        /* \"#utility.yul\":5641:5800   */\n    tag_71:\n        /* \"#utility.yul\":5715:5726   */\n      0x00\n        /* \"#utility.yul\":5749:5755   */\n      dup3\n        /* \"#utility.yul\":5744:5747   */\n      dup3\n        /* \"#utility.yul\":5737:5756   */\n      mstore\n        /* \"#utility.yul\":5789:5793   */\n      0x20\n        /* \"#utility.yul\":5784:5787   */\n      dup3\n        /* \"#utility.yul\":5780:5794   */\n      add\n        /* \"#utility.yul\":5765:5794   */\n      swap1\n      pop\n        /* \"#utility.yul\":5641:5800   */\n      swap3\n      swap2\n      pop\n      pop\n      jump\t// out\n        /* \"#utility.yul\":5806:6163   */\n    tag_72:\n        /* \"#utility.yul\":5884:5887   */\n      0x00\n        /* \"#utility.yul\":5912:5951   */\n      tag_160\n        /* \"#utility.yul\":5945:5950   */\n      dup3\n        /* \"#utility.yul\":5912:5951   */\n      tag_65\n      jump\t// in\n    tag_160:\n        /* \"#utility.yul\":5967:6028   */\n      tag_161\n        /* \"#utility.yul\":6021:6027   */\n      dup2\n        /* \"#utility.yul\":6016:6019   */\n      dup6\n        /* \"#utility.yul\":5967:6028   */\n      tag_71\n      jump\t// in\n    tag_161:\n        /* \"#utility.yul\":5960:6028   */\n      swap4\n      pop\n        /* \"#utility.yul\":6037:6102   */\n      tag_162\n        /* \"#utility.yul\":6095:6101   */\n      dup2\n        /* \"#utility.yul\":6090:6093   */\n      dup6\n        /* \"#utility.yul\":6083:6087   */\n      0x20\n        /* \"#utility.yul\":6076:6081   */\n      dup7\n        /* \"#utility.yul\":6072:6088   */\n      add\n        /* \"#utility.yul\":6037:6102   */\n      tag_67\n      jump\t// in\n    tag_162:\n        /* \"#utility.yul\":6127:6156   */\n      tag_163\n        /* \"#utility.yul\":6149:6155   */\n      dup2\n        /* \"#utility.yul\":6127:6156   */\n      tag_51\n      jump\t// in\n    tag_163:\n        /* \"#utility.yul\":6122:6125   */\n      dup5\n        /* \"#utility.yul\":6118:6157   */\n      add\n        /* \"#utility.yul\":6111:6157   */\n      swap2\n      pop\n        /* \"#utility.yul\":5888:6163   */\n      pop\n        /* \"#utility.yul\":5806:6163   */\n      swap3\n      swap2\n      pop\n      pop\n      jump\t// out\n        /* \"#utility.yul\":6169:6277   */\n    tag_73:\n        /* \"#utility.yul\":6246:6270   */\n      tag_165\n        /* \"#utility.yul\":6264:6269   */\n      dup2\n        /* \"#utility.yul\":6246:6270   */\n      tag_59\n      jump\t// in\n    tag_165:\n        /* \"#utility.yul\":6241:6244   */\n      dup3\n        /* \"#utility.yul\":6234:6271   */\n      mstore\n        /* \"#utility.yul\":6169:6277   */\n      pop\n      pop\n      jump\t// out\n        /* \"#utility.yul\":6283:6382   */\n    tag_74:\n        /* \"#utility.yul\":6354:6375   */\n      tag_167\n        /* \"#utility.yul\":6369:6374   */\n      dup2\n        /* \"#utility.yul\":6354:6375   */\n      tag_62\n      jump\t// in\n    tag_167:\n        /* \"#utility.yul\":6349:6352   */\n      dup3\n        /* \"#utility.yul\":6342:6376   */\n      mstore\n        /* \"#utility.yul\":6283:6382   */\n      pop\n      pop\n      jump\t// out\n        /* \"#utility.yul\":6442:7209   */\n    tag_75:\n        /* \"#utility.yul\":6555:6558   */\n      0x00\n        /* \"#utility.yul\":6591:6595   */\n      0x60\n        /* \"#utility.yul\":6586:6589   */\n      dup4\n        /* \"#utility.yul\":6582:6596   */\n      add\n        /* \"#utility.yul\":6678:6682   */\n      0x00\n        /* \"#utility.yul\":6671:6676   */\n      dup4\n        /* \"#utility.yul\":6667:6683   */\n      add\n        /* \"#utility.yul\":6661:6684   */\n      mload\n        /* \"#utility.yul\":6731:6734   */\n      dup5\n        /* \"#utility.yul\":6725:6729   */\n      dup3\n        /* \"#utility.yul\":6721:6735   */\n      sub\n        /* \"#utility.yul\":6714:6718   */\n      0x00\n        /* \"#utility.yul\":6709:6712   */\n      dup7\n        /* \"#utility.yul\":6705:6719   */\n      add\n        /* \"#utility.yul\":6698:6736   */\n      mstore\n        /* \"#utility.yul\":6757:6830   */\n      tag_169\n        /* \"#utility.yul\":6825:6829   */\n      dup3\n        /* \"#utility.yul\":6811:6823   */\n      dup3\n        /* \"#utility.yul\":6757:6830   */\n      tag_72\n      jump\t// in\n    tag_169:\n        /* \"#utility.yul\":6749:6830   */\n      swap2\n      pop\n        /* \"#utility.yul\":6606:6841   */\n      pop\n        /* \"#utility.yul\":6922:6926   */\n      0x20\n        /* \"#utility.yul\":6915:6920   */\n      dup4\n        /* \"#utility.yul\":6911:6927   */\n      add\n        /* \"#utility.yul\":6905:6928   */\n      mload\n        /* \"#utility.yul\":6941:7004   */\n      tag_170\n        /* \"#utility.yul\":6998:7002   */\n      0x20\n        /* \"#utility.yul\":6993:6996   */\n      dup7\n        /* \"#utility.yul\":6989:7003   */\n      add\n        /* \"#utility.yul\":6975:6987   */\n      dup3\n        /* \"#utility.yul\":6941:7004   */\n      tag_73\n      jump\t// in\n    tag_170:\n        /* \"#utility.yul\":6851:7014   */\n      pop\n        /* \"#utility.yul\":7096:7100   */\n      0x40\n        /* \"#utility.yul\":7089:7094   */\n      dup4\n        /* \"#utility.yul\":7085:7101   */\n      add\n        /* \"#utility.yul\":7079:7102   */\n      mload\n        /* \"#utility.yul\":7115:7172   */\n      tag_171\n        /* \"#utility.yul\":7166:7170   */\n      0x40\n        /* \"#utility.yul\":7161:7164   */\n      dup7\n        /* \"#utility.yul\":7157:7171   */\n      add\n        /* \"#utility.yul\":7143:7155   */\n      dup3\n        /* \"#utility.yul\":7115:7172   */\n      tag_74\n      jump\t// in\n    tag_171:\n        /* \"#utility.yul\":7024:7182   */\n      pop\n        /* \"#utility.yul\":7199:7203   */\n      dup1\n        /* \"#utility.yul\":7192:7203   */\n      swap2\n      pop\n        /* \"#utility.yul\":6560:7209   */\n      pop\n        /* \"#utility.yul\":6442:7209   */\n      swap3\n      swap2\n      pop\n      pop\n      jump\t// out\n        /* \"#utility.yul\":7215:7576   */\n    tag_18:\n        /* \"#utility.yul\":7352:7356   */\n      0x00\n        /* \"#utility.yul\":7390:7392   */\n      0x20\n        /* \"#utility.yul\":7379:7388   */\n      dup3\n        /* \"#utility.yul\":7375:7393   */\n      add\n        /* \"#utility.yul\":7367:7393   */\n      swap1\n      pop\n        /* \"#utility.yul\":7439:7448   */\n      dup2\n        /* \"#utility.yul\":7433:7437   */\n      dup2\n        /* \"#utility.yul\":7429:7449   */\n      sub\n        /* \"#utility.yul\":7425:7426   */\n      0x00\n        /* \"#utility.yul\":7414:7423   */\n      dup4\n        /* \"#utility.yul\":7410:7427   */\n      add\n        /* \"#utility.yul\":7403:7450   */\n      mstore\n        /* \"#utility.yul\":7467:7569   */\n      tag_173\n        /* \"#utility.yul\":7564:7568   */\n      dup2\n        /* \"#utility.yul\":7555:7561   */\n      dup5\n        /* \"#utility.yul\":7467:7569   */\n      tag_75\n      jump\t// in\n    tag_173:\n        /* \"#utility.yul\":7459:7569   */\n      swap1\n      pop\n        /* \"#utility.yul\":7215:7576   */\n      swap3\n      swap2\n      pop\n      pop\n      jump\t// out\n        /* \"#utility.yul\":7582:7895   */\n    tag_22:\n        /* \"#utility.yul\":7695:7699   */\n      0x00\n        /* \"#utility.yul\":7733:7735   */\n      0x20\n        /* \"#utility.yul\":7722:7731   */\n      dup3\n        /* \"#utility.yul\":7718:7736   */\n      add\n        /* \"#utility.yul\":7710:7736   */\n      swap1\n      pop\n        /* \"#utility.yul\":7782:7791   */\n      dup2\n        /* \"#utility.yul\":7776:7780   */\n      dup2\n        /* \"#utility.yul\":7772:7792   */\n      sub\n        /* \"#utility.yul\":7768:7769   */\n      0x00\n        /* \"#utility.yul\":7757:7766   */\n      dup4\n        /* \"#utility.yul\":7753:7770   */\n      add\n        /* \"#utility.yul\":7746:7793   */\n      mstore\n        /* \"#utility.yul\":7810:7888   */\n      tag_175\n        /* \"#utility.yul\":7883:7887   */\n      dup2\n        /* \"#utility.yul\":7874:7880   */\n      dup5\n        /* \"#utility.yul\":7810:7888   */\n      tag_68\n      jump\t// in\n    tag_175:\n        /* \"#utility.yul\":7802:7888   */\n      swap1\n      pop\n        /* \"#utility.yul\":7582:7895   */\n      swap3\n      swap2\n      pop\n      pop\n      jump\t// out\n        /* \"#utility.yul\":7901:8081   */\n    tag_76:\n        /* \"#utility.yul\":7949:8026   */\n      0x4e487b7100000000000000000000000000000000000000000000000000000000\n        /* \"#utility.yul\":7946:7947   */\n      0x00\n        /* \"#utility.yul\":7939:8027   */\n      mstore\n        /* \"#utility.yul\":8046:8050   */\n      0x22\n        /* \"#utility.yul\":8043:8044   */\n      0x04\n        /* \"#utility.yul\":8036:8051   */\n      mstore\n        /* \"#utility.yul\":8070:8074   */\n      0x24\n        /* \"#utility.yul\":8067:8068   */\n      0x00\n        /* \"#utility.yul\":8060:8075   */\n      revert\n        /* \"#utility.yul\":8087:8407   */\n    tag_27:\n        /* \"#utility.yul\":8131:8137   */\n      0x00\n        /* \"#utility.yul\":8168:8169   */\n      0x02\n        /* \"#utility.yul\":8162:8166   */\n      dup3\n        /* \"#utility.yul\":8158:8170   */\n      div\n        /* \"#utility.yul\":8148:8170   */\n      swap1\n      pop\n        /* \"#utility.yul\":8215:8216   */\n      0x01\n        /* \"#utility.yul\":8209:8213   */\n      dup3\n        /* \"#utility.yul\":8205:8217   */\n      and\n        /* \"#utility.yul\":8236:8254   */\n      dup1\n        /* \"#utility.yul\":8226:8307   */\n      tag_178\n      jumpi\n        /* \"#utility.yul\":8292:8296   */\n      0x7f\n        /* \"#utility.yul\":8284:8290   */\n      dup3\n        /* \"#utility.yul\":8280:8297   */\n      and\n        /* \"#utility.yul\":8270:8297   */\n      swap2\n      pop\n        /* \"#utility.yul\":8226:8307   */\n    tag_178:\n        /* \"#utility.yul\":8354:8356   */\n      0x20\n        /* \"#utility.yul\":8346:8352   */\n      dup3\n        /* \"#utility.yul\":8343:8357   */\n      lt\n        /* \"#utility.yul\":8323:8341   */\n      dup2\n        /* \"#utility.yul\":8320:8358   */\n      sub\n        /* \"#utility.yul\":8317:8401   */\n      tag_179\n      jumpi\n        /* \"#utility.yul\":8373:8391   */\n      tag_180\n      tag_76\n      jump\t// in\n    tag_180:\n        /* \"#utility.yul\":8317:8401   */\n    tag_179:\n        /* \"#utility.yul\":8138:8407   */\n      pop\n        /* \"#utility.yul\":8087:8407   */\n      swap2\n      swap1\n      pop\n      jump\t// out\n        /* \"#utility.yul\":8413:8554   */\n    tag_77:\n        /* \"#utility.yul\":8462:8466   */\n      0x00\n        /* \"#utility.yul\":8485:8488   */\n      dup2\n        /* \"#utility.yul\":8477:8488   */\n      swap1\n      pop\n        /* \"#utility.yul\":8508:8511   */\n      dup2\n        /* \"#utility.yul\":8505:8506   */\n      0x00\n        /* \"#utility.yul\":8498:8512   */\n      mstore\n        /* \"#utility.yul\":8542:8546   */\n      0x20\n        /* \"#utility.yul\":8539:8540   */\n      0x00\n        /* \"#utility.yul\":8529:8547   */\n      keccak256\n        /* \"#utility.yul\":8521:8547   */\n      swap1\n      pop\n        /* \"#utility.yul\":8413:8554   */\n      swap2\n      swap1\n      pop\n      jump\t// out\n        /* \"#utility.yul\":8560:8653   */\n    tag_78:\n        /* \"#utility.yul\":8597:8603   */\n      0x00\n        /* \"#utility.yul\":8644:8646   */\n      0x20\n        /* \"#utility.yul\":8639:8641   */\n      0x1f\n        /* \"#utility.yul\":8632:8637   */\n      dup4\n        /* \"#utility.yul\":8628:8642   */\n      add\n        /* \"#utility.yul\":8624:8647   */\n      div\n        /* \"#utility.yul\":8614:8647   */\n      swap1\n      pop\n        /* \"#utility.yul\":8560:8653   */\n      swap2\n      swap1\n      pop\n      jump\t// out\n        /* \"#utility.yul\":8659:8766   */\n    tag_79:\n        /* \"#utility.yul\":8703:8711   */\n      0x00\n        /* \"#utility.yul\":8753:8758   */\n      dup3\n        /* \"#utility.yul\":8747:8751   */\n      dup3\n        /* \"#utility.yul\":8743:8759   */\n      shl\n        /* \"#utility.yul\":8722:8759   */\n      swap1\n      pop\n        /* \"#utility.yul\":8659:8766   */\n      swap3\n      swap2\n      pop\n      pop\n      jump\t// out\n        /* \"#utility.yul\":8772:9165   */\n    tag_80:\n        /* \"#utility.yul\":8841:8847   */\n      0x00\n        /* \"#utility.yul\":8891:8892   */\n      0x08\n        /* \"#utility.yul\":8879:8889   */\n      dup4\n        /* \"#utility.yul\":8875:8893   */\n      mul\n        /* \"#utility.yul\":8914:9011   */\n      tag_185\n        /* \"#utility.yul\":8944:9010   */\n      0xffffffffffffffffffffffffffffffffffffffffffffffffffffffffffffffff\n        /* \"#utility.yul\":8933:8942   */\n      dup3\n        /* \"#utility.yul\":8914:9011   */\n      tag_79\n      jump\t// in\n    tag_185:\n        /* \"#utility.yul\":9032:9071   */\n      tag_186\n        /* \"#utility.yul\":9062:9070   */\n      dup7\n        /* \"#utility.yul\":9051:9060   */\n      dup4\n        /* \"#utility.yul\":9032:9071   */\n      tag_79\n      jump\t// in\n    tag_186:\n        /* \"#utility.yul\":9020:9071   */\n      swap6\n      pop\n        /* \"#utility.yul\":9104:9108   */\n      dup1\n        /* \"#utility.yul\":9100:9109   */\n      not\n        /* \"#utility.yul\":9093:9098   */\n      dup5\n        /* \"#utility.yul\":9089:9110   */\n      and\n        /* \"#utility.yul\":9080:9110   */\n      swap4\n      pop\n        /* \"#utility.yul\":9153:9157   */\n      dup1\n        /* \"#utility.yul\":9143:9151   */\n      dup7\n        /* \"#utility.yul\":9139:9158   */\n      and\n        /* \"#utility.yul\":9132:9137   */\n      dup5\n        /* \"#utility.yul\":9129:9159   */\n      or\n        /* \"#utility.yul\":9119:9159   */\n      swap3\n      pop\n        /* \"#utility.yul\":8848:9165   */\n      pop\n      pop\n        /* \"#utility.yul\":8772:9165   */\n      swap4\n      swap3\n      pop\n      pop\n      pop\n      jump\t// out\n        /* \"#utility.yul\":9171:9231   */\n    tag_81:\n        /* \"#utility.yul\":9199:9202   */\n      0x00\n        /* \"#utility.yul\":9220:9225   */\n      dup2\n        /* \"#utility.yul\":9213:9225   */\n      swap1\n      pop\n        /* \"#utility.yul\":9171:9231   */\n      swap2\n      swap1\n      pop\n      jump\t// out\n        /* \"#utility.yul\":9237:9379   */\n    tag_82:\n        /* \"#utility.yul\":9287:9296   */\n      0x00\n        /* \"#utility.yul\":9320:9373   */\n      tag_189\n        /* \"#utility.yul\":9338:9372   */\n      tag_190\n        /* \"#utility.yul\":9347:9371   */\n      tag_191\n        /* \"#utility.yul\":9365:9370   */\n      dup5\n        /* \"#utility.yul\":9347:9371   */\n      tag_59\n      jump\t// in\n    tag_191:\n        /* \"#utility.yul\":9338:9372   */\n      tag_81\n      jump\t// in\n    tag_190:\n        /* \"#utility.yul\":9320:9373   */\n      tag_59\n      jump\t// in\n    tag_189:\n        /* \"#utility.yul\":9307:9373   */\n      swap1\n      pop\n        /* \"#utility.yul\":9237:9379   */\n      swap2\n      swap1\n      pop\n      jump\t// out\n        /* \"#utility.yul\":9385:9460   */\n    tag_83:\n        /* \"#utility.yul\":9428:9431   */\n      0x00\n        /* \"#utility.yul\":9449:9454   */\n      dup2\n        /* \"#utility.yul\":9442:9454   */\n      swap1\n      pop\n        /* \"#utility.yul\":9385:9460   */\n      swap2\n      swap1\n      pop\n      jump\t// out\n        /* \"#utility.yul\":9466:9735   */\n    tag_84:\n        /* \"#utility.yul\":9576:9615   */\n      tag_194\n        /* \"#utility.yul\":9607:9614   */\n      dup4\n        /* \"#utility.yul\":9576:9615   */\n      tag_82\n      jump\t// in\n    tag_194:\n        /* \"#utility.yul\":9637:9728   */\n      tag_195\n        /* \"#utility.yul\":9686:9727   */\n      tag_196\n        /* \"#utility.yul\":9710:9726   */\n      dup3\n        /* \"#utility.yul\":9686:9727   */\n      tag_83\n      jump\t// in\n    tag_196:\n        /* \"#utility.yul\":9678:9684   */\n      dup5\n        /* \"#utility.yul\":9671:9675   */\n      dup5\n        /* \"#utility.yul\":9665:9676   */\n      sload\n        /* \"#utility.yul\":9637:9728   */\n      tag_80\n      jump\t// in\n    tag_195:\n        /* \"#utility.yul\":9631:9635   */\n      dup3\n        /* \"#utility.yul\":9624:9729   */\n      sstore\n        /* \"#utility.yul\":9542:9735   */\n      pop\n        /* \"#utility.yul\":9466:9735   */\n      pop\n      pop\n      pop\n      jump\t// out\n        /* \"#utility.yul\":9741:9814   */\n    tag_85:\n        /* \"#utility.yul\":9786:9789   */\n      0x00\n        /* \"#utility.yul\":9741:9814   */\n      swap1\n      jump\t// out\n        /* \"#utility.yul\":9820:10009   */\n    tag_86:\n        /* \"#utility.yul\":9897:9929   */\n      tag_199\n      tag_85\n      jump\t// in\n    tag_199:\n        /* \"#utility.yul\":9938:10003   */\n      tag_200\n        /* \"#utility.yul\":9996:10002   */\n      dup2\n        /* \"#utility.yul\":9988:9994   */\n      dup5\n        /* \"#utility.yul\":9982:9986   */\n      dup5\n        /* \"#utility.yul\":9938:10003   */\n      tag_84\n      jump\t// in\n    tag_200:\n        /* \"#utility.yul\":9873:10009   */\n      pop\n        /* \"#utility.yul\":9820:10009   */\n      pop\n      pop\n      jump\t// out\n        /* \"#utility.yul\":10015:10201   */\n    tag_87:\n        /* \"#utility.yul\":10075:10195   */\n    tag_202:\n        /* \"#utility.yul\":10092:10095   */\n      dup2\n        /* \"#utility.yul\":10085:10090   */\n      dup2\n        /* \"#utility.yul\":10082:10096   */\n      lt\n        /* \"#utility.yul\":10075:10195   */\n      iszero\n      tag_204\n      jumpi\n        /* \"#utility.yul\":10146:10185   */\n      tag_205\n        /* \"#utility.yul\":10183:10184   */\n      0x00\n        /* \"#utility.yul\":10176:10181   */\n      dup3\n        /* \"#utility.yul\":10146:10185   */\n      tag_86\n      jump\t// in\n    tag_205:\n        /* \"#utility.yul\":10119:10120   */\n      0x01\n        /* \"#utility.yul\":10112:10117   */\n      dup2\n        /* \"#utility.yul\":10108:10121   */\n      add\n        /* \"#utility.yul\":10099:10121   */\n      swap1\n      pop\n        /* \"#utility.yul\":10075:10195   */\n      jump(tag_202)\n    tag_204:\n        /* \"#utility.yul\":10015:10201   */\n      pop\n      pop\n      jump\t// out\n        /* \"#utility.yul\":10207:10750   */\n    tag_88:\n        /* \"#utility.yul\":10308:10310   */\n      0x1f\n        /* \"#utility.yul\":10303:10306   */\n      dup3\n        /* \"#utility.yul\":10300:10311   */\n      gt\n        /* \"#utility.yul\":10297:10743   */\n      iszero\n      tag_207\n      jumpi\n        /* \"#utility.yul\":10342:10380   */\n      tag_208\n        /* \"#utility.yul\":10374:10379   */\n      dup2\n        /* \"#utility.yul\":10342:10380   */\n      tag_77\n      jump\t// in\n    tag_208:\n        /* \"#utility.yul\":10426:10455   */\n      tag_209\n        /* \"#utility.yul\":10444:10454   */\n      dup5\n        /* \"#utility.yul\":10426:10455   */\n      tag_78\n      jump\t// in\n    tag_209:\n        /* \"#utility.yul\":10416:10424   */\n      dup2\n        /* \"#utility.yul\":10412:10456   */\n      add\n        /* \"#utility.yul\":10609:10611   */\n      0x20\n        /* \"#utility.yul\":10597:10607   */\n      dup6\n        /* \"#utility.yul\":10594:10612   */\n      lt\n        /* \"#utility.yul\":10591:10640   */\n      iszero\n      tag_210\n      jumpi\n        /* \"#utility.yul\":10630:10638   */\n      dup2\n        /* \"#utility.yul\":10615:10638   */\n      swap1\n      pop\n        /* \"#utility.yul\":10591:10640   */\n    tag_210:\n        /* \"#utility.yul\":10653:10733   */\n      tag_211\n        /* \"#utility.yul\":10709:10731   */\n      tag_212\n        /* \"#utility.yul\":10727:10730   */\n      dup6\n        /* \"#utility.yul\":10709:10731   */\n      tag_78\n      jump\t// in\n    tag_212:\n        /* \"#utility.yul\":10699:10707   */\n      dup4\n        /* \"#utility.yul\":10695:10732   */\n      add\n        /* \"#utility.yul\":10682:10693   */\n      dup3\n        /* \"#utility.yul\":10653:10733   */\n      tag_87\n      jump\t// in\n    tag_211:\n        /* \"#utility.yul\":10312:10743   */\n      pop\n      pop\n        /* \"#utility.yul\":10297:10743   */\n    tag_207:\n        /* \"#utility.yul\":10207:10750   */\n      pop\n      pop\n      pop\n      jump\t// out\n        /* \"#utility.yul\":10756:10873   */\n    tag_89:\n        /* \"#utility.yul\":10810:10818   */\n      0x00\n        /* \"#utility.yul\":10860:10865   */\n      dup3\n        /* \"#utility.yul\":10854:10858   */\n      dup3\n        /* \"#utility.yul\":10850:10866   */\n      shr\n        /* \"#utility.yul\":10829:10866   */\n      swap1\n      pop\n        /* \"#utility.yul\":10756:10873   */\n      swap3\n      swap2\n      pop\n      pop\n      jump\t// out\n        /* \"#utility.yul\":10879:11048   */\n    tag_90:\n        /* \"#utility.yul\":10923:10929   */\n      0x00\n        /* \"#utility.yul\":10956:11007   */\n      tag_215\n        /* \"#utility.yul\":11004:11005   */\n      0x00\n        /* \"#utility.yul\":11000:11006   */\n      not\n        /* \"#utility.yul\":10992:10997   */\n      dup5\n        /* \"#utility.yul\":10989:10990   */\n      0x08\n        /* \"#utility.yul\":10985:10998   */\n      mul\n        /* \"#utility.yul\":10956:11007   */\n      tag_89\n      jump\t// in\n    tag_215:\n        /* \"#utility.yul\":10952:11008   */\n      not\n        /* \"#utility.yul\":11037:11041   */\n      dup1\n        /* \"#utility.yul\":11031:11035   */\n      dup4\n        /* \"#utility.yul\":11027:11042   */\n      and\n        /* \"#utility.yul\":11017:11042   */\n      swap2\n      pop\n        /* \"#utility.yul\":10930:11048   */\n      pop\n        /* \"#utility.yul\":10879:11048   */\n      swap3\n      swap2\n      pop\n      pop\n      jump\t// out\n        /* \"#utility.yul\":11053:11348   */\n    tag_91:\n        /* \"#utility.yul\":11129:11133   */\n      0x00\n        /* \"#utility.yul\":11275:11304   */\n      tag_217\n        /* \"#utility.yul\":11300:11303   */\n      dup4\n        /* \"#utility.yul\":11294:11298   */\n      dup4\n        /* \"#utility.yul\":11275:11304   */\n      tag_90\n      jump\t// in\n    tag_217:\n        /* \"#utility.yul\":11267:11304   */\n      swap2\n      pop\n        /* \"#utility.yul\":11337:11340   */\n      dup3\n        /* \"#utility.yul\":11334:11335   */\n      0x02\n        /* \"#utility.yul\":11330:11341   */\n      mul\n        /* \"#utility.yul\":11324:11328   */\n      dup3\n        /* \"#utility.yul\":11321:11342   */\n      or\n        /* \"#utility.yul\":11313:11342   */\n      swap1\n      pop\n        /* \"#utility.yul\":11053:11348   */\n      swap3\n      swap2\n      pop\n      pop\n      jump\t// out\n        /* \"#utility.yul\":11353:12748   */\n    tag_25:\n        /* \"#utility.yul\":11470:11507   */\n      tag_219\n        /* \"#utility.yul\":11503:11506   */\n      dup3\n        /* \"#utility.yul\":11470:11507   */\n      tag_65\n      jump\t// in\n    tag_219:\n        /* \"#utility.yul\":11572:11590   */\n      0xffffffffffffffff\n        /* \"#utility.yul\":11564:11570   */\n      dup2\n        /* \"#utility.yul\":11561:11591   */\n      gt\n        /* \"#utility.yul\":11558:11614   */\n      iszero\n      tag_220\n      jumpi\n        /* \"#utility.yul\":11594:11612   */\n      tag_221\n      tag_52\n      jump\t// in\n    tag_221:\n        /* \"#utility.yul\":11558:11614   */\n    tag_220:\n        /* \"#utility.yul\":11638:11676   */\n      tag_222\n        /* \"#utility.yul\":11670:11674   */\n      dup3\n        /* \"#utility.yul\":11664:11675   */\n      sload\n        /* \"#utility.yul\":11638:11676   */\n      tag_27\n      jump\t// in\n    tag_222:\n        /* \"#utility.yul\":11723:11790   */\n      tag_223\n        /* \"#utility.yul\":11783:11789   */\n      dup3\n        /* \"#utility.yul\":11775:11781   */\n      dup3\n        /* \"#utility.yul\":11769:11773   */\n      dup6\n        /* \"#utility.yul\":11723:11790   */\n      tag_88\n      jump\t// in\n    tag_223:\n        /* \"#utility.yul\":11817:11818   */\n      0x00\n        /* \"#utility.yul\":11841:11845   */\n      0x20\n        /* \"#utility.yul\":11828:11845   */\n      swap1\n      pop\n        /* \"#utility.yul\":11873:11875   */\n      0x1f\n        /* \"#utility.yul\":11865:11871   */\n      dup4\n        /* \"#utility.yul\":11862:11876   */\n      gt\n        /* \"#utility.yul\":11890:11891   */\n      0x01\n        /* \"#utility.yul\":11885:12503   */\n      dup2\n      eq\n      tag_225\n      jumpi\n        /* \"#utility.yul\":12547:12548   */\n      0x00\n        /* \"#utility.yul\":12564:12570   */\n      dup5\n        /* \"#utility.yul\":12561:12638   */\n      iszero\n      tag_226\n      jumpi\n        /* \"#utility.yul\":12613:12622   */\n      dup3\n        /* \"#utility.yul\":12608:12611   */\n      dup8\n        /* \"#utility.yul\":12604:12623   */\n      add\n        /* \"#utility.yul\":12598:12624   */\n      mload\n        /* \"#utility.yul\":12589:12624   */\n      swap1\n      pop\n        /* \"#utility.yul\":12561:12638   */\n    tag_226:\n        /* \"#utility.yul\":12664:12731   */\n      tag_227\n        /* \"#utility.yul\":12724:12730   */\n      dup6\n        /* \"#utility.yul\":12717:12722   */\n      dup3\n        /* \"#utility.yul\":12664:12731   */\n      tag_91\n      jump\t// in\n    tag_227:\n        /* \"#utility.yul\":12658:12662   */\n      dup7\n        /* \"#utility.yul\":12651:12732   */\n      sstore\n        /* \"#utility.yul\":12520:12742   */\n      pop\n        /* \"#utility.yul\":11855:12742   */\n      jump(tag_224)\n        /* \"#utility.yul\":11885:12503   */\n    tag_225:\n        /* \"#utility.yul\":11937:11941   */\n      0x1f\n        /* \"#utility.yul\":11933:11942   */\n      not\n        /* \"#utility.yul\":11925:11931   */\n      dup5\n        /* \"#utility.yul\":11921:11943   */\n      and\n        /* \"#utility.yul\":11971:12008   */\n      tag_228\n        /* \"#utility.yul\":12003:12007   */\n      dup7\n        /* \"#utility.yul\":11971:12008   */\n      tag_77\n      jump\t// in\n    tag_228:\n        /* \"#utility.yul\":12030:12031   */\n      0x00\n        /* \"#utility.yul\":12044:12252   */\n    tag_229:\n        /* \"#utility.yul\":12058:12065   */\n      dup3\n        /* \"#utility.yul\":12055:12056   */\n      dup2\n        /* \"#utility.yul\":12052:12066   */\n      lt\n        /* \"#utility.yul\":12044:12252   */\n      iszero\n      tag_231\n      jumpi\n        /* \"#utility.yul\":12137:12146   */\n      dup5\n        /* \"#utility.yul\":12132:12135   */\n      dup10\n        /* \"#utility.yul\":12128:12147   */\n      add\n        /* \"#utility.yul\":12122:12148   */\n      mload\n        /* \"#utility.yul\":12114:12120   */\n      dup3\n        /* \"#utility.yul\":12107:12149   */\n      sstore\n        /* \"#utility.yul\":12188:12189   */\n      0x01\n        /* \"#utility.yul\":12180:12186   */\n      dup3\n        /* \"#utility.yul\":12176:12190   */\n      add\n        /* \"#utility.yul\":12166:12190   */\n      swap2\n      pop\n        /* \"#utility.yul\":12235:12237   */\n      0x20\n        /* \"#utility.yul\":12224:12233   */\n      dup6\n        /* \"#utility.yul\":12220:12238   */\n      add\n        /* \"#utility.yul\":12207:12238   */\n      swap5\n      pop\n        /* \"#utility.yul\":12081:12085   */\n      0x20\n        /* \"#utility.yul\":12078:12079   */\n      dup2\n        /* \"#utility.yul\":12074:12086   */\n      add\n        /* \"#utility.yul\":12069:12086   */\n      swap1\n      pop\n        /* \"#utility.yul\":12044:12252   */\n      jump(tag_229)\n    tag_231:\n        /* \"#utility.yul\":12280:12286   */\n      dup7\n        /* \"#utility.yul\":12271:12278   */\n      dup4\n        /* \"#utility.yul\":12268:12287   */\n      lt\n        /* \"#utility.yul\":12265:12444   */\n      iszero\n      tag_232\n      jumpi\n        /* \"#utility.yul\":12338:12347   */\n      dup5\n        /* \"#utility.yul\":12333:12336   */\n      dup10\n        /* \"#utility.yul\":12329:12348   */\n      add\n        /* \"#utility.yul\":12323:12349   */\n      mload\n        /* \"#utility.yul\":12381:12429   */\n      tag_233\n        /* \"#utility.yul\":12423:12427   */\n      0x1f\n        /* \"#utility.yul\":12415:12421   */\n      dup10\n        /* \"#utility.yul\":12411:12428   */\n      and\n        /* \"#utility.yul\":12400:12409   */\n      dup3\n        /* \"#utility.yul\":12381:12429   */\n      tag_90\n      jump\t// in\n    tag_233:\n        /* \"#utility.yul\":12373:12379   */\n      dup4\n        /* \"#utility.yul\":12366:12430   */\n      sstore\n        /* \"#utility.yul\":12288:12444   */\n      pop\n        /* \"#utility.yul\":12265:12444   */\n    tag_232:\n        /* \"#utility.yul\":12490:12491   */\n      0x01\n        /* \"#utility.yul\":12486:12487   */\n      0x02\n        /* \"#utility.yul\":12478:12484   */\n      dup9\n        /* \"#utility.yul\":12474:12488   */\n      mul\n        /* \"#utility.yul\":12470:12492   */\n      add\n        /* \"#utility.yul\":12464:12468   */\n      dup9\n        /* \"#utility.yul\":12457:12493   */\n      sstore\n        /* \"#utility.yul\":11892:12503   */\n      pop\n      pop\n      pop\n        /* \"#utility.yul\":11855:12742   */\n    tag_224:\n      pop\n        /* \"#utility.yul\":11445:12748   */\n      pop\n      pop\n      pop\n        /* \"#utility.yul\":11353:12748   */\n      pop\n      pop\n      jump\t// out\n\n    auxdata: 0xa264697066735822122086fc690e25a521e20df31d6ae87edcfdc39d6497593471cd3783639b674c0c2f64736f6c634300081a0033\n}\n",
				"bytecode": {
					"linkReferences": {},
					"object": "6080604052348015600e575f80fd5b50610a1c8061001c5f395ff3fe608060405234801561000f575f80fd5b506004361061004a575f3560e01c806319044f071461004e5780636cc014de1461006a578063b439548d1461008a578063b7e7f6a5146100a8575b5f80fd5b61006860048036038101906100639190610504565b6100c6565b005b610072610129565b604051610081939291906105ee565b60405180910390f35b6100926101d1565b60405161009f91906106dd565b60405180910390f35b6100b061029d565b6040516100bd91906106fd565b60405180910390f35b60405180606001604052808481526020018381526020018215158152505f80820151815f0190816100f79190610917565b50602082015181600101556040820151816002015f6101000a81548160ff021916908315150217905550905050505050565b5f805f0180546101389061074a565b80601f01602080910402602001604051908101604052809291908181526020018280546101649061074a565b80156101af5780601f10610186576101008083540402835291602001916101af565b820191905f5260205f20905b81548152906001019060200180831161019257829003601f168201915b505050505090806001015490806002015f9054906101000a900460ff16905083565b6101d961032e565b5f6040518060600160405290815f820180546101f49061074a565b80601f01602080910402602001604051908101604052809291908181526020018280546102209061074a565b801561026b5780601f106102425761010080835404028352916020019161026b565b820191905f5260205f20905b81548152906001019060200180831161024e57829003601f168201915b5050505050815260200160018201548152602001600282015f9054906101000a900460ff161515151581525050905090565b60605f800180546102ad9061074a565b80601f01602080910402602001604051908101604052809291908181526020018280546102d99061074a565b80156103245780601f106102fb57610100808354040283529160200191610324565b820191905f5260205f20905b81548152906001019060200180831161030757829003601f168201915b5050505050905090565b6040518060600160405280606081526020015f81526020015f151581525090565b5f604051905090565b5f80fd5b5f80fd5b5f80fd5b5f80fd5b5f601f19601f8301169050919050565b7f4e487b71000000000000000000000000000000000000000000000000000000005f52604160045260245ffd5b6103ae82610368565b810181811067ffffffffffffffff821117156103cd576103cc610378565b5b80604052505050565b5f6103df61034f565b90506103eb82826103a5565b919050565b5f67ffffffffffffffff82111561040a57610409610378565b5b61041382610368565b9050602081019050919050565b828183375f83830152505050565b5f61044061043b846103f0565b6103d6565b90508281526020810184848401111561045c5761045b610364565b5b610467848285610420565b509392505050565b5f82601f83011261048357610482610360565b5b813561049384826020860161042e565b91505092915050565b5f819050919050565b6104ae8161049c565b81146104b8575f80fd5b50565b5f813590506104c9816104a5565b92915050565b5f8115159050919050565b6104e3816104cf565b81146104ed575f80fd5b50565b5f813590506104fe816104da565b92915050565b5f805f6060848603121561051b5761051a610358565b5b5f84013567ffffffffffffffff8111156105385761053761035c565b5b6105448682870161046f565b9350506020610555868287016104bb565b9250506040610566868287016104f0565b9150509250925092565b5f81519050919050565b5f82825260208201905092915050565b8281835e5f83830152505050565b5f6105a282610570565b6105ac818561057a565b93506105bc81856020860161058a565b6105c581610368565b840191505092915050565b6105d98161049c565b82525050565b6105e8816104cf565b82525050565b5f6060820190508181035f8301526106068186610598565b905061061560208301856105d0565b61062260408301846105df565b949350505050565b5f82825260208201905092915050565b5f61064482610570565b61064e818561062a565b935061065e81856020860161058a565b61066781610368565b840191505092915050565b61067b8161049c565b82525050565b61068a816104cf565b82525050565b5f606083015f8301518482035f8601526106aa828261063a565b91505060208301516106bf6020860182610672565b5060408301516106d26040860182610681565b508091505092915050565b5f6020820190508181035f8301526106f58184610690565b905092915050565b5f6020820190508181035f8301526107158184610598565b905092915050565b7f4e487b71000000000000000000000000000000000000000000000000000000005f52602260045260245ffd5b5f600282049050600182168061076157607f821691505b6020821081036107745761077361071d565b5b50919050565b5f819050815f5260205f209050919050565b5f6020601f8301049050919050565b5f82821b905092915050565b5f600883026107d67fffffffffffffffffffffffffffffffffffffffffffffffffffffffffffffffff8261079b565b6107e0868361079b565b95508019841693508086168417925050509392505050565b5f819050919050565b5f61081b6108166108118461049c565b6107f8565b61049c565b9050919050565b5f819050919050565b61083483610801565b61084861084082610822565b8484546107a7565b825550505050565b5f90565b61085c610850565b61086781848461082b565b505050565b5b8181101561088a5761087f5f82610854565b60018101905061086d565b5050565b601f8211156108cf576108a08161077a565b6108a98461078c565b810160208510156108b8578190505b6108cc6108c48561078c565b83018261086c565b50505b505050565b5f82821c905092915050565b5f6108ef5f19846008026108d4565b1980831691505092915050565b5f61090783836108e0565b9150826002028217905092915050565b61092082610570565b67ffffffffffffffff81111561093957610938610378565b5b610943825461074a565b61094e82828561088e565b5f60209050601f83116001811461097f575f841561096d578287015190505b61097785826108fc565b8655506109de565b601f19841661098d8661077a565b5f5b828110156109b45784890151825560018201915060208501945060208101905061098f565b868310156109d157848901516109cd601f8916826108e0565b8355505b6001600288020188555050505b50505050505056fea264697066735822122086fc690e25a521e20df31d6ae87edcfdc39d6497593471cd3783639b674c0c2f64736f6c634300081a0033",
					"opcodes": "PUSH1 0x80 PUSH1 0x40 MSTORE CALLVALUE DUP1 ISZERO PUSH1 0xE JUMPI PUSH0 DUP1 REVERT JUMPDEST POP PUSH2 0xA1C DUP1 PUSH2 0x1C PUSH0 CODECOPY PUSH0 RETURN INVALID PUSH1 0x80 PUSH1 0x40 MSTORE CALLVALUE DUP1 ISZERO PUSH2 0xF JUMPI PUSH0 DUP1 REVERT JUMPDEST POP PUSH1 0x4 CALLDATASIZE LT PUSH2 0x4A JUMPI PUSH0 CALLDATALOAD PUSH1 0xE0 SHR DUP1 PUSH4 0x19044F07 EQ PUSH2 0x4E JUMPI DUP1 PUSH4 0x6CC014DE EQ PUSH2 0x6A JUMPI DUP1 PUSH4 0xB439548D EQ PUSH2 0x8A JUMPI DUP1 PUSH4 0xB7E7F6A5 EQ PUSH2 0xA8 JUMPI JUMPDEST PUSH0 DUP1 REVERT JUMPDEST PUSH2 0x68 PUSH1 0x4 DUP1 CALLDATASIZE SUB DUP2 ADD SWAP1 PUSH2 0x63 SWAP2 SWAP1 PUSH2 0x504 JUMP JUMPDEST PUSH2 0xC6 JUMP JUMPDEST STOP JUMPDEST PUSH2 0x72 PUSH2 0x129 JUMP JUMPDEST PUSH1 0x40 MLOAD PUSH2 0x81 SWAP4 SWAP3 SWAP2 SWAP1 PUSH2 0x5EE JUMP JUMPDEST PUSH1 0x40 MLOAD DUP1 SWAP2 SUB SWAP1 RETURN JUMPDEST PUSH2 0x92 PUSH2 0x1D1 JUMP JUMPDEST PUSH1 0x40 MLOAD PUSH2 0x9F SWAP2 SWAP1 PUSH2 0x6DD JUMP JUMPDEST PUSH1 0x40 MLOAD DUP1 SWAP2 SUB SWAP1 RETURN JUMPDEST PUSH2 0xB0 PUSH2 0x29D JUMP JUMPDEST PUSH1 0x40 MLOAD PUSH2 0xBD SWAP2 SWAP1 PUSH2 0x6FD JUMP JUMPDEST PUSH1 0x40 MLOAD DUP1 SWAP2 SUB SWAP1 RETURN JUMPDEST PUSH1 0x40 MLOAD DUP1 PUSH1 0x60 ADD PUSH1 0x40 MSTORE DUP1 DUP5 DUP2 MSTORE PUSH1 0x20 ADD DUP4 DUP2 MSTORE PUSH1 0x20 ADD DUP3 ISZERO ISZERO DUP2 MSTORE POP PUSH0 DUP1 DUP3 ADD MLOAD DUP2 PUSH0 ADD SWAP1 DUP2 PUSH2 0xF7 SWAP2 SWAP1 PUSH2 0x917 JUMP JUMPDEST POP PUSH1 0x20 DUP3 ADD MLOAD DUP2 PUSH1 0x1 ADD SSTORE PUSH1 0x40 DUP3 ADD MLOAD DUP2 PUSH1 0x2 ADD PUSH0 PUSH2 0x100 EXP DUP2 SLOAD DUP2 PUSH1 0xFF MUL NOT AND SWAP1 DUP4 ISZERO ISZERO MUL OR SWAP1 SSTORE POP SWAP1 POP POP POP POP POP JUMP JUMPDEST PUSH0 DUP1 PUSH0 ADD DUP1 SLOAD PUSH2 0x138 SWAP1 PUSH2 0x74A JUMP JUMPDEST DUP1 PUSH1 0x1F ADD PUSH1 0x20 DUP1 SWAP2 DIV MUL PUSH1 0x20 ADD PUSH1 0x40 MLOAD SWAP1 DUP2 ADD PUSH1 0x40 MSTORE DUP1 SWAP3 SWAP2 SWAP1 DUP2 DUP2 MSTORE PUSH1 0x20 ADD DUP3 DUP1 SLOAD PUSH2 0x164 SWAP1 PUSH2 0x74A JUMP JUMPDEST DUP1 ISZERO PUSH2 0x1AF JUMPI DUP1 PUSH1 0x1F LT PUSH2 0x186 JUMPI PUSH2 0x100 DUP1 DUP4 SLOAD DIV MUL DUP4 MSTORE SWAP2 PUSH1 0x20 ADD SWAP2 PUSH2 0x1AF JUMP JUMPDEST DUP3 ADD SWAP2 SWAP1 PUSH0 MSTORE PUSH1 0x20 PUSH0 KECCAK256 SWAP1 JUMPDEST DUP2 SLOAD DUP2 MSTORE SWAP1 PUSH1 0x1 ADD SWAP1 PUSH1 0x20 ADD DUP1 DUP4 GT PUSH2 0x192 JUMPI DUP3 SWAP1 SUB PUSH1 0x1F AND DUP3 ADD SWAP2 JUMPDEST POP POP POP POP POP SWAP1 DUP1 PUSH1 0x1 ADD SLOAD SWAP1 DUP1 PUSH1 0x2 ADD PUSH0 SWAP1 SLOAD SWAP1 PUSH2 0x100 EXP SWAP1 DIV PUSH1 0xFF AND SWAP1 POP DUP4 JUMP JUMPDEST PUSH2 0x1D9 PUSH2 0x32E JUMP JUMPDEST PUSH0 PUSH1 0x40 MLOAD DUP1 PUSH1 0x60 ADD PUSH1 0x40 MSTORE SWAP1 DUP2 PUSH0 DUP3 ADD DUP1 SLOAD PUSH2 0x1F4 SWAP1 PUSH2 0x74A JUMP JUMPDEST DUP1 PUSH1 0x1F ADD PUSH1 0x20 DUP1 SWAP2 DIV MUL PUSH1 0x20 ADD PUSH1 0x40 MLOAD SWAP1 DUP2 ADD PUSH1 0x40 MSTORE DUP1 SWAP3 SWAP2 SWAP1 DUP2 DUP2 MSTORE PUSH1 0x20 ADD DUP3 DUP1 SLOAD PUSH2 0x220 SWAP1 PUSH2 0x74A JUMP JUMPDEST DUP1 ISZERO PUSH2 0x26B JUMPI DUP1 PUSH1 0x1F LT PUSH2 0x242 JUMPI PUSH2 0x100 DUP1 DUP4 SLOAD DIV MUL DUP4 MSTORE SWAP2 PUSH1 0x20 ADD SWAP2 PUSH2 0x26B JUMP JUMPDEST DUP3 ADD SWAP2 SWAP1 PUSH0 MSTORE PUSH1 0x20 PUSH0 KECCAK256 SWAP1 JUMPDEST DUP2 SLOAD DUP2 MSTORE SWAP1 PUSH1 0x1 ADD SWAP1 PUSH1 0x20 ADD DUP1 DUP4 GT PUSH2 0x24E JUMPI DUP3 SWAP1 SUB PUSH1 0x1F AND DUP3 ADD SWAP2 JUMPDEST POP POP POP POP POP DUP2 MSTORE PUSH1 0x20 ADD PUSH1 0x1 DUP3 ADD SLOAD DUP2 MSTORE PUSH1 0x20 ADD PUSH1 0x2 DUP3 ADD PUSH0 SWAP1 SLOAD SWAP1 PUSH2 0x100 EXP SWAP1 DIV PUSH1 0xFF AND ISZERO ISZERO ISZERO ISZERO DUP2 MSTORE POP POP SWAP1 POP SWAP1 JUMP JUMPDEST PUSH1 0x60 PUSH0 DUP1 ADD DUP1 SLOAD PUSH2 0x2AD SWAP1 PUSH2 0x74A JUMP JUMPDEST DUP1 PUSH1 0x1F ADD PUSH1 0x20 DUP1 SWAP2 DIV MUL PUSH1 0x20 ADD PUSH1 0x40 MLOAD SWAP1 DUP2 ADD PUSH1 0x40 MSTORE DUP1 SWAP3 SWAP2 SWAP1 DUP2 DUP2 MSTORE PUSH1 0x20 ADD DUP3 DUP1 SLOAD PUSH2 0x2D9 SWAP1 PUSH2 0x74A JUMP JUMPDEST DUP1 ISZERO PUSH2 0x324 JUMPI DUP1 PUSH1 0x1F LT PUSH2 0x2FB JUMPI PUSH2 0x100 DUP1 DUP4 SLOAD DIV MUL DUP4 MSTORE SWAP2 PUSH1 0x20 ADD SWAP2 PUSH2 0x324 JUMP JUMPDEST DUP3 ADD SWAP2 SWAP1 PUSH0 MSTORE PUSH1 0x20 PUSH0 KECCAK256 SWAP1 JUMPDEST DUP2 SLOAD DUP2 MSTORE SWAP1 PUSH1 0x1 ADD SWAP1 PUSH1 0x20 ADD DUP1 DUP4 GT PUSH2 0x307 JUMPI DUP3 SWAP1 SUB PUSH1 0x1F AND DUP3 ADD SWAP2 JUMPDEST POP POP POP POP POP SWAP1 POP SWAP1 JUMP JUMPDEST PUSH1 0x40 MLOAD DUP1 PUSH1 0x60 ADD PUSH1 0x40 MSTORE DUP1 PUSH1 0x60 DUP2 MSTORE PUSH1 0x20 ADD PUSH0 DUP2 MSTORE PUSH1 0x20 ADD PUSH0 ISZERO ISZERO DUP2 MSTORE POP SWAP1 JUMP JUMPDEST PUSH0 PUSH1 0x40 MLOAD SWAP1 POP SWAP1 JUMP JUMPDEST PUSH0 DUP1 REVERT JUMPDEST PUSH0 DUP1 REVERT JUMPDEST PUSH0 DUP1 REVERT JUMPDEST PUSH0 DUP1 REVERT JUMPDEST PUSH0 PUSH1 0x1F NOT PUSH1 0x1F DUP4 ADD AND SWAP1 POP SWAP2 SWAP1 POP JUMP JUMPDEST PUSH32 0x4E487B7100000000000000000000000000000000000000000000000000000000 PUSH0 MSTORE PUSH1 0x41 PUSH1 0x4 MSTORE PUSH1 0x24 PUSH0 REVERT JUMPDEST PUSH2 0x3AE DUP3 PUSH2 0x368 JUMP JUMPDEST DUP2 ADD DUP2 DUP2 LT PUSH8 0xFFFFFFFFFFFFFFFF DUP3 GT OR ISZERO PUSH2 0x3CD JUMPI PUSH2 0x3CC PUSH2 0x378 JUMP JUMPDEST JUMPDEST DUP1 PUSH1 0x40 MSTORE POP POP POP JUMP JUMPDEST PUSH0 PUSH2 0x3DF PUSH2 0x34F JUMP JUMPDEST SWAP1 POP PUSH2 0x3EB DUP3 DUP3 PUSH2 0x3A5 JUMP JUMPDEST SWAP2 SWAP1 POP JUMP JUMPDEST PUSH0 PUSH8 0xFFFFFFFFFFFFFFFF DUP3 GT ISZERO PUSH2 0x40A JUMPI PUSH2 0x409 PUSH2 0x378 JUMP JUMPDEST JUMPDEST PUSH2 0x413 DUP3 PUSH2 0x368 JUMP JUMPDEST SWAP1 POP PUSH1 0x20 DUP2 ADD SWAP1 POP SWAP2 SWAP1 POP JUMP JUMPDEST DUP3 DUP2 DUP4 CALLDATACOPY PUSH0 DUP4 DUP4 ADD MSTORE POP POP POP JUMP JUMPDEST PUSH0 PUSH2 0x440 PUSH2 0x43B DUP5 PUSH2 0x3F0 JUMP JUMPDEST PUSH2 0x3D6 JUMP JUMPDEST SWAP1 POP DUP3 DUP2 MSTORE PUSH1 0x20 DUP2 ADD DUP5 DUP5 DUP5 ADD GT ISZERO PUSH2 0x45C JUMPI PUSH2 0x45B PUSH2 0x364 JUMP JUMPDEST JUMPDEST PUSH2 0x467 DUP5 DUP3 DUP6 PUSH2 0x420 JUMP JUMPDEST POP SWAP4 SWAP3 POP POP POP JUMP JUMPDEST PUSH0 DUP3 PUSH1 0x1F DUP4 ADD SLT PUSH2 0x483 JUMPI PUSH2 0x482 PUSH2 0x360 JUMP JUMPDEST JUMPDEST DUP2 CALLDATALOAD PUSH2 0x493 DUP5 DUP3 PUSH1 0x20 DUP7 ADD PUSH2 0x42E JUMP JUMPDEST SWAP2 POP POP SWAP3 SWAP2 POP POP JUMP JUMPDEST PUSH0 DUP2 SWAP1 POP SWAP2 SWAP1 POP JUMP JUMPDEST PUSH2 0x4AE DUP2 PUSH2 0x49C JUMP JUMPDEST DUP2 EQ PUSH2 0x4B8 JUMPI PUSH0 DUP1 REVERT JUMPDEST POP JUMP JUMPDEST PUSH0 DUP2 CALLDATALOAD SWAP1 POP PUSH2 0x4C9 DUP2 PUSH2 0x4A5 JUMP JUMPDEST SWAP3 SWAP2 POP POP JUMP JUMPDEST PUSH0 DUP2 ISZERO ISZERO SWAP1 POP SWAP2 SWAP1 POP JUMP JUMPDEST PUSH2 0x4E3 DUP2 PUSH2 0x4CF JUMP JUMPDEST DUP2 EQ PUSH2 0x4ED JUMPI PUSH0 DUP1 REVERT JUMPDEST POP JUMP JUMPDEST PUSH0 DUP2 CALLDATALOAD SWAP1 POP PUSH2 0x4FE DUP2 PUSH2 0x4DA JUMP JUMPDEST SWAP3 SWAP2 POP POP JUMP JUMPDEST PUSH0 DUP1 PUSH0 PUSH1 0x60 DUP5 DUP7 SUB SLT ISZERO PUSH2 0x51B JUMPI PUSH2 0x51A PUSH2 0x358 JUMP JUMPDEST JUMPDEST PUSH0 DUP5 ADD CALLDATALOAD PUSH8 0xFFFFFFFFFFFFFFFF DUP2 GT ISZERO PUSH2 0x538 JUMPI PUSH2 0x537 PUSH2 0x35C JUMP JUMPDEST JUMPDEST PUSH2 0x544 DUP7 DUP3 DUP8 ADD PUSH2 0x46F JUMP JUMPDEST SWAP4 POP POP PUSH1 0x20 PUSH2 0x555 DUP7 DUP3 DUP8 ADD PUSH2 0x4BB JUMP JUMPDEST SWAP3 POP POP PUSH1 0x40 PUSH2 0x566 DUP7 DUP3 DUP8 ADD PUSH2 0x4F0 JUMP JUMPDEST SWAP2 POP POP SWAP3 POP SWAP3 POP SWAP3 JUMP JUMPDEST PUSH0 DUP2 MLOAD SWAP1 POP SWAP2 SWAP1 POP JUMP JUMPDEST PUSH0 DUP3 DUP3 MSTORE PUSH1 0x20 DUP3 ADD SWAP1 POP SWAP3 SWAP2 POP POP JUMP JUMPDEST DUP3 DUP2 DUP4 MCOPY PUSH0 DUP4 DUP4 ADD MSTORE POP POP POP JUMP JUMPDEST PUSH0 PUSH2 0x5A2 DUP3 PUSH2 0x570 JUMP JUMPDEST PUSH2 0x5AC DUP2 DUP6 PUSH2 0x57A JUMP JUMPDEST SWAP4 POP PUSH2 0x5BC DUP2 DUP6 PUSH1 0x20 DUP7 ADD PUSH2 0x58A JUMP JUMPDEST PUSH2 0x5C5 DUP2 PUSH2 0x368 JUMP JUMPDEST DUP5 ADD SWAP2 POP POP SWAP3 SWAP2 POP POP JUMP JUMPDEST PUSH2 0x5D9 DUP2 PUSH2 0x49C JUMP JUMPDEST DUP3 MSTORE POP POP JUMP JUMPDEST PUSH2 0x5E8 DUP2 PUSH2 0x4CF JUMP JUMPDEST DUP3 MSTORE POP POP JUMP JUMPDEST PUSH0 PUSH1 0x60 DUP3 ADD SWAP1 POP DUP2 DUP2 SUB PUSH0 DUP4 ADD MSTORE PUSH2 0x606 DUP2 DUP7 PUSH2 0x598 JUMP JUMPDEST SWAP1 POP PUSH2 0x615 PUSH1 0x20 DUP4 ADD DUP6 PUSH2 0x5D0 JUMP JUMPDEST PUSH2 0x622 PUSH1 0x40 DUP4 ADD DUP5 PUSH2 0x5DF JUMP JUMPDEST SWAP5 SWAP4 POP POP POP POP JUMP JUMPDEST PUSH0 DUP3 DUP3 MSTORE PUSH1 0x20 DUP3 ADD SWAP1 POP SWAP3 SWAP2 POP POP JUMP JUMPDEST PUSH0 PUSH2 0x644 DUP3 PUSH2 0x570 JUMP JUMPDEST PUSH2 0x64E DUP2 DUP6 PUSH2 0x62A JUMP JUMPDEST SWAP4 POP PUSH2 0x65E DUP2 DUP6 PUSH1 0x20 DUP7 ADD PUSH2 0x58A JUMP JUMPDEST PUSH2 0x667 DUP2 PUSH2 0x368 JUMP JUMPDEST DUP5 ADD SWAP2 POP POP SWAP3 SWAP2 POP POP JUMP JUMPDEST PUSH2 0x67B DUP2 PUSH2 0x49C JUMP JUMPDEST DUP3 MSTORE POP POP JUMP JUMPDEST PUSH2 0x68A DUP2 PUSH2 0x4CF JUMP JUMPDEST DUP3 MSTORE POP POP JUMP JUMPDEST PUSH0 PUSH1 0x60 DUP4 ADD PUSH0 DUP4 ADD MLOAD DUP5 DUP3 SUB PUSH0 DUP7 ADD MSTORE PUSH2 0x6AA DUP3 DUP3 PUSH2 0x63A JUMP JUMPDEST SWAP2 POP POP PUSH1 0x20 DUP4 ADD MLOAD PUSH2 0x6BF PUSH1 0x20 DUP7 ADD DUP3 PUSH2 0x672 JUMP JUMPDEST POP PUSH1 0x40 DUP4 ADD MLOAD PUSH2 0x6D2 PUSH1 0x40 DUP7 ADD DUP3 PUSH2 0x681 JUMP JUMPDEST POP DUP1 SWAP2 POP POP SWAP3 SWAP2 POP POP JUMP JUMPDEST PUSH0 PUSH1 0x20 DUP3 ADD SWAP1 POP DUP2 DUP2 SUB PUSH0 DUP4 ADD MSTORE PUSH2 0x6F5 DUP2 DUP5 PUSH2 0x690 JUMP JUMPDEST SWAP1 POP SWAP3 SWAP2 POP POP JUMP JUMPDEST PUSH0 PUSH1 0x20 DUP3 ADD SWAP1 POP DUP2 DUP2 SUB PUSH0 DUP4 ADD MSTORE PUSH2 0x715 DUP2 DUP5 PUSH2 0x598 JUMP JUMPDEST SWAP1 POP SWAP3 SWAP2 POP POP JUMP JUMPDEST PUSH32 0x4E487B7100000000000000000000000000000000000000000000000000000000 PUSH0 MSTORE PUSH1 0x22 PUSH1 0x4 MSTORE PUSH1 0x24 PUSH0 REVERT JUMPDEST PUSH0 PUSH1 0x2 DUP3 DIV SWAP1 POP PUSH1 0x1 DUP3 AND DUP1 PUSH2 0x761 JUMPI PUSH1 0x7F DUP3 AND SWAP2 POP JUMPDEST PUSH1 0x20 DUP3 LT DUP2 SUB PUSH2 0x774 JUMPI PUSH2 0x773 PUSH2 0x71D JUMP JUMPDEST JUMPDEST POP SWAP2 SWAP1 POP JUMP JUMPDEST PUSH0 DUP2 SWAP1 POP DUP2 PUSH0 MSTORE PUSH1 0x20 PUSH0 KECCAK256 SWAP1 POP SWAP2 SWAP1 POP JUMP JUMPDEST PUSH0 PUSH1 0x20 PUSH1 0x1F DUP4 ADD DIV SWAP1 POP SWAP2 SWAP1 POP JUMP JUMPDEST PUSH0 DUP3 DUP3 SHL SWAP1 POP SWAP3 SWAP2 POP POP JUMP JUMPDEST PUSH0 PUSH1 0x8 DUP4 MUL PUSH2 0x7D6 PUSH32 0xFFFFFFFFFFFFFFFFFFFFFFFFFFFFFFFFFFFFFFFFFFFFFFFFFFFFFFFFFFFFFFFF DUP3 PUSH2 0x79B JUMP JUMPDEST PUSH2 0x7E0 DUP7 DUP4 PUSH2 0x79B JUMP JUMPDEST SWAP6 POP DUP1 NOT DUP5 AND SWAP4 POP DUP1 DUP7 AND DUP5 OR SWAP3 POP POP POP SWAP4 SWAP3 POP POP POP JUMP JUMPDEST PUSH0 DUP2 SWAP1 POP SWAP2 SWAP1 POP JUMP JUMPDEST PUSH0 PUSH2 0x81B PUSH2 0x816 PUSH2 0x811 DUP5 PUSH2 0x49C JUMP JUMPDEST PUSH2 0x7F8 JUMP JUMPDEST PUSH2 0x49C JUMP JUMPDEST SWAP1 POP SWAP2 SWAP1 POP JUMP JUMPDEST PUSH0 DUP2 SWAP1 POP SWAP2 SWAP1 POP JUMP JUMPDEST PUSH2 0x834 DUP4 PUSH2 0x801 JUMP JUMPDEST PUSH2 0x848 PUSH2 0x840 DUP3 PUSH2 0x822 JUMP JUMPDEST DUP5 DUP5 SLOAD PUSH2 0x7A7 JUMP JUMPDEST DUP3 SSTORE POP POP POP POP JUMP JUMPDEST PUSH0 SWAP1 JUMP JUMPDEST PUSH2 0x85C PUSH2 0x850 JUMP JUMPDEST PUSH2 0x867 DUP2 DUP5 DUP5 PUSH2 0x82B JUMP JUMPDEST POP POP POP JUMP JUMPDEST JUMPDEST DUP2 DUP2 LT ISZERO PUSH2 0x88A JUMPI PUSH2 0x87F PUSH0 DUP3 PUSH2 0x854 JUMP JUMPDEST PUSH1 0x1 DUP2 ADD SWAP1 POP PUSH2 0x86D JUMP JUMPDEST POP POP JUMP JUMPDEST PUSH1 0x1F DUP3 GT ISZERO PUSH2 0x8CF JUMPI PUSH2 0x8A0 DUP2 PUSH2 0x77A JUMP JUMPDEST PUSH2 0x8A9 DUP5 PUSH2 0x78C JUMP JUMPDEST DUP2 ADD PUSH1 0x20 DUP6 LT ISZERO PUSH2 0x8B8 JUMPI DUP2 SWAP1 POP JUMPDEST PUSH2 0x8CC PUSH2 0x8C4 DUP6 PUSH2 0x78C JUMP JUMPDEST DUP4 ADD DUP3 PUSH2 0x86C JUMP JUMPDEST POP POP JUMPDEST POP POP POP JUMP JUMPDEST PUSH0 DUP3 DUP3 SHR SWAP1 POP SWAP3 SWAP2 POP POP JUMP JUMPDEST PUSH0 PUSH2 0x8EF PUSH0 NOT DUP5 PUSH1 0x8 MUL PUSH2 0x8D4 JUMP JUMPDEST NOT DUP1 DUP4 AND SWAP2 POP POP SWAP3 SWAP2 POP POP JUMP JUMPDEST PUSH0 PUSH2 0x907 DUP4 DUP4 PUSH2 0x8E0 JUMP JUMPDEST SWAP2 POP DUP3 PUSH1 0x2 MUL DUP3 OR SWAP1 POP SWAP3 SWAP2 POP POP JUMP JUMPDEST PUSH2 0x920 DUP3 PUSH2 0x570 JUMP JUMPDEST PUSH8 0xFFFFFFFFFFFFFFFF DUP2 GT ISZERO PUSH2 0x939 JUMPI PUSH2 0x938 PUSH2 0x378 JUMP JUMPDEST JUMPDEST PUSH2 0x943 DUP3 SLOAD PUSH2 0x74A JUMP JUMPDEST PUSH2 0x94E DUP3 DUP3 DUP6 PUSH2 0x88E JUMP JUMPDEST PUSH0 PUSH1 0x20 SWAP1 POP PUSH1 0x1F DUP4 GT PUSH1 0x1 DUP2 EQ PUSH2 0x97F JUMPI PUSH0 DUP5 ISZERO PUSH2 0x96D JUMPI DUP3 DUP8 ADD MLOAD SWAP1 POP JUMPDEST PUSH2 0x977 DUP6 DUP3 PUSH2 0x8FC JUMP JUMPDEST DUP7 SSTORE POP PUSH2 0x9DE JUMP JUMPDEST PUSH1 0x1F NOT DUP5 AND PUSH2 0x98D DUP7 PUSH2 0x77A JUMP JUMPDEST PUSH0 JUMPDEST DUP3 DUP2 LT ISZERO PUSH2 0x9B4 JUMPI DUP5 DUP10 ADD MLOAD DUP3 SSTORE PUSH1 0x1 DUP3 ADD SWAP2 POP PUSH1 0x20 DUP6 ADD SWAP5 POP PUSH1 0x20 DUP2 ADD SWAP1 POP PUSH2 0x98F JUMP JUMPDEST DUP7 DUP4 LT ISZERO PUSH2 0x9D1 JUMPI DUP5 DUP10 ADD MLOAD PUSH2 0x9CD PUSH1 0x1F DUP10 AND DUP3 PUSH2 0x8E0 JUMP JUMPDEST DUP4 SSTORE POP JUMPDEST PUSH1 0x1 PUSH1 0x2 DUP9 MUL ADD DUP9 SSTORE POP POP POP JUMPDEST POP POP POP POP POP POP JUMP INVALID LOG2 PUSH5 0x6970667358 0x22 SLT KECCAK256 DUP7 0xFC PUSH10 0xE25A521E20DF31D6AE8 PUSH31 0xDCFDC39D6497593471CD3783639B674C0C2F64736F6C634300081A00330000 "
				},
				"gasEstimates": {
					"creation": {
						"codeDepositCost": "517600",
						"executionCost": "547",
						"totalCost": "518147"
					},
					"external": {
						"getSpecific()": "infinite",
						"getStudent()": "infinite",
						"s1()": "infinite",
						"setStudent(string,uint256,bool)": "infinite"
					}
				},
				"methodIdentifiers": {
					"getSpecific()": "b7e7f6a5",
					"getStudent()": "b439548d",
					"s1()": "6cc014de",
					"setStudent(string,uint256,bool)": "19044f07"
				}
			},
			"storageLayout": {
				"storage": [
					{
						"astId": 11,
						"contract": "Solidity Basic/Struct.sol:Struct",
						"label": "s1",
						"offset": 0,
						"slot": "0",
						"type": "t_struct(Student)8_storage"
					}
				],
				"types": {
					"t_bool": {
						"encoding": "inplace",
						"label": "bool",
						"numberOfBytes": "1"
					},
					"t_string_storage": {
						"encoding": "bytes",
						"label": "string",
						"numberOfBytes": "32"
					},
					"t_struct(Student)8_storage": {
						"encoding": "inplace",
						"label": "struct Struct.Student",
						"members": [
							{
								"astId": 3,
								"contract": "Solidity Basic/Struct.sol:Struct",
								"label": "name",
								"offset": 0,
								"slot": "0",
								"type": "t_string_storage"
							},
							{
								"astId": 5,
								"contract": "Solidity Basic/Struct.sol:Struct",
								"label": "age",
								"offset": 0,
								"slot": "1",
								"type": "t_uint256"
							},
							{
								"astId": 7,
								"contract": "Solidity Basic/Struct.sol:Struct",
								"label": "pass",
								"offset": 0,
								"slot": "2",
								"type": "t_bool"
							}
						],
						"numberOfBytes": "96"
					},
					"t_uint256": {
						"encoding": "inplace",
						"label": "uint256",
						"numberOfBytes": "32"
					}
				}
			},
			"userdoc": {
				"kind": "user",
				"methods": {},
				"version": 1
			}
		}
	}
}