{
	"Solidity Basic/Error.sol": {
		"Errors": {
			"abi": [
				{
					"inputs": [
						{
							"internalType": "address",
							"name": "caller",
							"type": "address"
						},
						{
							"internalType": "uint256",
							"name": "x",
							"type": "uint256"
						}
					],
					"name": "CustomError",
					"type": "error"
				},
				{
					"inputs": [],
					"name": "checkAssert",
					"outputs": [],
					"stateMutability": "view",
					"type": "function"
				},
				{
					"inputs": [
						{
							"internalType": "uint256",
							"name": "x",
							"type": "uint256"
						}
					],
					"name": "checkRequire",
					"outputs": [],
					"stateMutability": "pure",
					"type": "function"
				},
				{
					"inputs": [],
					"name": "num",
					"outputs": [
						{
							"internalType": "uint256",
							"name": "",
							"type": "uint256"
						}
					],
					"stateMutability": "view",
					"type": "function"
				},
				{
					"inputs": [
						{
							"internalType": "uint256",
							"name": "_x",
							"type": "uint256"
						}
					],
					"name": "testCustomError",
					"outputs": [],
					"stateMutability": "view",
					"type": "function"
				},
				{
					"inputs": [
						{
							"internalType": "uint256",
							"name": "x",
							"type": "uint256"
						}
					],
					"name": "testRevert",
					"outputs": [],
					"stateMutability": "pure",
					"type": "function"
				}
			],
			"devdoc": {
				"kind": "dev",
				"methods": {},
				"version": 1
			},
			"evm": {
				"assembly": "    /* \"Solidity Basic/Error.sol\":60:964  contract Errors {... */\n  mstore(0x40, 0x80)\n    /* \"Solidity Basic/Error.sol\":549:552  123 */\n  0x7b\n    /* \"Solidity Basic/Error.sol\":531:552  uint public num = 123 */\n  0x00\n  sstore\n    /* \"Solidity Basic/Error.sol\":60:964  contract Errors {... */\n  callvalue\n  dup1\n  iszero\n  tag_1\n  jumpi\n  0x00\n  dup1\n  revert\ntag_1:\n  pop\n  dataSize(sub_0)\n  dup1\n  dataOffset(sub_0)\n  0x00\n  codecopy\n  0x00\n  return\nstop\n\nsub_0: assembly {\n        /* \"Solidity Basic/Error.sol\":60:964  contract Errors {... */\n      mstore(0x40, 0x80)\n      callvalue\n      dup1\n      iszero\n      tag_1\n      jumpi\n      0x00\n      dup1\n      revert\n    tag_1:\n      pop\n      jumpi(tag_2, lt(calldatasize, 0x04))\n      shr(0xe0, calldataload(0x00))\n      dup1\n      0x05655727\n      eq\n      tag_3\n      jumpi\n      dup1\n      0x20987767\n      eq\n      tag_4\n      jumpi\n      dup1\n      0x4e70b1dc\n      eq\n      tag_5\n      jumpi\n      dup1\n      0x75f7286c\n      eq\n      tag_6\n      jumpi\n      dup1\n      0x8575d3e1\n      eq\n      tag_7\n      jumpi\n    tag_2:\n      0x00\n      dup1\n      revert\n        /* \"Solidity Basic/Error.sol\":203:305  function checkRequire(uint x) public pure {... */\n    tag_3:\n      tag_8\n      0x04\n      dup1\n      calldatasize\n      sub\n      dup2\n      add\n      swap1\n      tag_9\n      swap2\n      swap1\n      tag_10\n      jump\t// in\n    tag_9:\n      tag_11\n      jump\t// in\n    tag_8:\n      stop\n        /* \"Solidity Basic/Error.sol\":313:523  function testRevert(uint x) public pure { // Does the same like require , but revert's best use case are in nested and alot of if statement... */\n    tag_4:\n      tag_12\n      0x04\n      dup1\n      calldatasize\n      sub\n      dup2\n      add\n      swap1\n      tag_13\n      swap2\n      swap1\n      tag_10\n      jump\t// in\n    tag_13:\n      tag_14\n      jump\t// in\n    tag_12:\n      stop\n        /* \"Solidity Basic/Error.sol\":531:552  uint public num = 123 */\n    tag_5:\n      tag_15\n      tag_16\n      jump\t// in\n    tag_15:\n      mload(0x40)\n      tag_17\n      swap2\n      swap1\n      tag_18\n      jump\t// in\n    tag_17:\n      mload(0x40)\n      dup1\n      swap2\n      sub\n      swap1\n      return\n        /* \"Solidity Basic/Error.sol\":782:961  function testCustomError(uint _x) public view { // Revert is needed to use custom error... */\n    tag_6:\n      tag_19\n      0x04\n      dup1\n      calldatasize\n      sub\n      dup2\n      add\n      swap1\n      tag_20\n      swap2\n      swap1\n      tag_10\n      jump\t// in\n    tag_20:\n      tag_21\n      jump\t// in\n    tag_19:\n      stop\n        /* \"Solidity Basic/Error.sol\":561:692  function checkAssert() public view { // Assert is used when state variable is always to be true... */\n    tag_7:\n      tag_22\n      tag_23\n      jump\t// in\n    tag_22:\n      stop\n        /* \"Solidity Basic/Error.sol\":203:305  function checkRequire(uint x) public pure {... */\n    tag_11:\n        /* \"Solidity Basic/Error.sol\":268:270  10 */\n      0x0a\n        /* \"Solidity Basic/Error.sol\":264:265  x */\n      dup2\n        /* \"Solidity Basic/Error.sol\":264:270  x > 10 */\n      gt\n        /* \"Solidity Basic/Error.sol\":256:280  require(x > 10, \"Error\") */\n      tag_25\n      jumpi\n      mload(0x40)\n      0x08c379a000000000000000000000000000000000000000000000000000000000\n      dup2\n      mstore\n      0x04\n      add\n      tag_26\n      swap1\n      tag_27\n      jump\t// in\n    tag_26:\n      mload(0x40)\n      dup1\n      swap2\n      sub\n      swap1\n      revert\n    tag_25:\n        /* \"Solidity Basic/Error.sol\":203:305  function checkRequire(uint x) public pure {... */\n      pop\n      jump\t// out\n        /* \"Solidity Basic/Error.sol\":313:523  function testRevert(uint x) public pure { // Does the same like require , but revert's best use case are in nested and alot of if statement... */\n    tag_14:\n        /* \"Solidity Basic/Error.sol\":470:472  10 */\n      0x0a\n        /* \"Solidity Basic/Error.sol\":466:467  x */\n      dup2\n        /* \"Solidity Basic/Error.sol\":466:472  x > 10 */\n      gt\n        /* \"Solidity Basic/Error.sol\":462:516  if (x > 10) {... */\n      iszero\n      tag_29\n      jumpi\n        /* \"Solidity Basic/Error.sol\":489:504  revert(\"Error\") */\n      mload(0x40)\n      0x08c379a000000000000000000000000000000000000000000000000000000000\n      dup2\n      mstore\n      0x04\n      add\n      tag_30\n      swap1\n      tag_27\n      jump\t// in\n    tag_30:\n      mload(0x40)\n      dup1\n      swap2\n      sub\n      swap1\n      revert\n        /* \"Solidity Basic/Error.sol\":462:516  if (x > 10) {... */\n    tag_29:\n        /* \"Solidity Basic/Error.sol\":313:523  function testRevert(uint x) public pure { // Does the same like require , but revert's best use case are in nested and alot of if statement... */\n      pop\n      jump\t// out\n        /* \"Solidity Basic/Error.sol\":531:552  uint public num = 123 */\n    tag_16:\n      sload(0x00)\n      dup2\n      jump\t// out\n        /* \"Solidity Basic/Error.sol\":782:961  function testCustomError(uint _x) public view { // Revert is needed to use custom error... */\n    tag_21:\n        /* \"Solidity Basic/Error.sol\":888:890  10 */\n      0x0a\n        /* \"Solidity Basic/Error.sol\":883:885  _x */\n      dup2\n        /* \"Solidity Basic/Error.sol\":883:890  _x > 10 */\n      gt\n        /* \"Solidity Basic/Error.sol\":879:954  if (_x > 10 ) {... */\n      iszero\n      tag_32\n      jumpi\n        /* \"Solidity Basic/Error.sol\":927:937  msg.sender */\n      caller\n        /* \"Solidity Basic/Error.sol\":939:941  _x */\n      dup2\n        /* \"Solidity Basic/Error.sol\":915:942  CustomError(msg.sender, _x) */\n      mload(0x40)\n      0x190a30a900000000000000000000000000000000000000000000000000000000\n      dup2\n      mstore\n      0x04\n      add\n      tag_33\n      swap3\n      swap2\n      swap1\n      tag_34\n      jump\t// in\n    tag_33:\n      mload(0x40)\n      dup1\n      swap2\n      sub\n      swap1\n      revert\n        /* \"Solidity Basic/Error.sol\":879:954  if (_x > 10 ) {... */\n    tag_32:\n        /* \"Solidity Basic/Error.sol\":782:961  function testCustomError(uint _x) public view { // Revert is needed to use custom error... */\n      pop\n      jump\t// out\n        /* \"Solidity Basic/Error.sol\":561:692  function checkAssert() public view { // Assert is used when state variable is always to be true... */\n    tag_23:\n        /* \"Solidity Basic/Error.sol\":680:683  123 */\n      0x7b\n        /* \"Solidity Basic/Error.sol\":673:676  num */\n      sload(0x00)\n        /* \"Solidity Basic/Error.sol\":673:683  num == 123 */\n      eq\n        /* \"Solidity Basic/Error.sol\":666:684  assert(num == 123) */\n      tag_36\n      jumpi\n      tag_37\n      tag_38\n      jump\t// in\n    tag_37:\n    tag_36:\n        /* \"Solidity Basic/Error.sol\":561:692  function checkAssert() public view { // Assert is used when state variable is always to be true... */\n      jump\t// out\n        /* \"#utility.yul\":88:205   */\n    tag_40:\n        /* \"#utility.yul\":197:198   */\n      0x00\n        /* \"#utility.yul\":194:195   */\n      dup1\n        /* \"#utility.yul\":187:199   */\n      revert\n        /* \"#utility.yul\":334:411   */\n    tag_42:\n        /* \"#utility.yul\":371:378   */\n      0x00\n        /* \"#utility.yul\":400:405   */\n      dup2\n        /* \"#utility.yul\":389:405   */\n      swap1\n      pop\n        /* \"#utility.yul\":334:411   */\n      swap2\n      swap1\n      pop\n      jump\t// out\n        /* \"#utility.yul\":417:539   */\n    tag_43:\n        /* \"#utility.yul\":490:514   */\n      tag_58\n        /* \"#utility.yul\":508:513   */\n      dup2\n        /* \"#utility.yul\":490:514   */\n      tag_42\n      jump\t// in\n    tag_58:\n        /* \"#utility.yul\":483:488   */\n      dup2\n        /* \"#utility.yul\":480:515   */\n      eq\n        /* \"#utility.yul\":470:533   */\n      tag_59\n      jumpi\n        /* \"#utility.yul\":529:530   */\n      0x00\n        /* \"#utility.yul\":526:527   */\n      dup1\n        /* \"#utility.yul\":519:531   */\n      revert\n        /* \"#utility.yul\":470:533   */\n    tag_59:\n        /* \"#utility.yul\":417:539   */\n      pop\n      jump\t// out\n        /* \"#utility.yul\":545:684   */\n    tag_44:\n        /* \"#utility.yul\":591:596   */\n      0x00\n        /* \"#utility.yul\":629:635   */\n      dup2\n        /* \"#utility.yul\":616:636   */\n      calldataload\n        /* \"#utility.yul\":607:636   */\n      swap1\n      pop\n        /* \"#utility.yul\":645:678   */\n      tag_61\n        /* \"#utility.yul\":672:677   */\n      dup2\n        /* \"#utility.yul\":645:678   */\n      tag_43\n      jump\t// in\n    tag_61:\n        /* \"#utility.yul\":545:684   */\n      swap3\n      swap2\n      pop\n      pop\n      jump\t// out\n        /* \"#utility.yul\":690:1019   */\n    tag_10:\n        /* \"#utility.yul\":749:755   */\n      0x00\n        /* \"#utility.yul\":798:800   */\n      0x20\n        /* \"#utility.yul\":786:795   */\n      dup3\n        /* \"#utility.yul\":777:784   */\n      dup5\n        /* \"#utility.yul\":773:796   */\n      sub\n        /* \"#utility.yul\":769:801   */\n      slt\n        /* \"#utility.yul\":766:885   */\n      iszero\n      tag_63\n      jumpi\n        /* \"#utility.yul\":804:883   */\n      tag_64\n      tag_40\n      jump\t// in\n    tag_64:\n        /* \"#utility.yul\":766:885   */\n    tag_63:\n        /* \"#utility.yul\":924:925   */\n      0x00\n        /* \"#utility.yul\":949:1002   */\n      tag_65\n        /* \"#utility.yul\":994:1001   */\n      dup5\n        /* \"#utility.yul\":985:991   */\n      dup3\n        /* \"#utility.yul\":974:983   */\n      dup6\n        /* \"#utility.yul\":970:992   */\n      add\n        /* \"#utility.yul\":949:1002   */\n      tag_44\n      jump\t// in\n    tag_65:\n        /* \"#utility.yul\":939:1002   */\n      swap2\n      pop\n        /* \"#utility.yul\":895:1012   */\n      pop\n        /* \"#utility.yul\":690:1019   */\n      swap3\n      swap2\n      pop\n      pop\n      jump\t// out\n        /* \"#utility.yul\":1025:1143   */\n    tag_45:\n        /* \"#utility.yul\":1112:1136   */\n      tag_67\n        /* \"#utility.yul\":1130:1135   */\n      dup2\n        /* \"#utility.yul\":1112:1136   */\n      tag_42\n      jump\t// in\n    tag_67:\n        /* \"#utility.yul\":1107:1110   */\n      dup3\n        /* \"#utility.yul\":1100:1137   */\n      mstore\n        /* \"#utility.yul\":1025:1143   */\n      pop\n      pop\n      jump\t// out\n        /* \"#utility.yul\":1149:1371   */\n    tag_18:\n        /* \"#utility.yul\":1242:1246   */\n      0x00\n        /* \"#utility.yul\":1280:1282   */\n      0x20\n        /* \"#utility.yul\":1269:1278   */\n      dup3\n        /* \"#utility.yul\":1265:1283   */\n      add\n        /* \"#utility.yul\":1257:1283   */\n      swap1\n      pop\n        /* \"#utility.yul\":1293:1364   */\n      tag_69\n        /* \"#utility.yul\":1361:1362   */\n      0x00\n        /* \"#utility.yul\":1350:1359   */\n      dup4\n        /* \"#utility.yul\":1346:1363   */\n      add\n        /* \"#utility.yul\":1337:1343   */\n      dup5\n        /* \"#utility.yul\":1293:1364   */\n      tag_45\n      jump\t// in\n    tag_69:\n        /* \"#utility.yul\":1149:1371   */\n      swap3\n      swap2\n      pop\n      pop\n      jump\t// out\n        /* \"#utility.yul\":1377:1546   */\n    tag_46:\n        /* \"#utility.yul\":1461:1472   */\n      0x00\n        /* \"#utility.yul\":1495:1501   */\n      dup3\n        /* \"#utility.yul\":1490:1493   */\n      dup3\n        /* \"#utility.yul\":1483:1502   */\n      mstore\n        /* \"#utility.yul\":1535:1539   */\n      0x20\n        /* \"#utility.yul\":1530:1533   */\n      dup3\n        /* \"#utility.yul\":1526:1540   */\n      add\n        /* \"#utility.yul\":1511:1540   */\n      swap1\n      pop\n        /* \"#utility.yul\":1377:1546   */\n      swap3\n      swap2\n      pop\n      pop\n      jump\t// out\n        /* \"#utility.yul\":1552:1707   */\n    tag_47:\n        /* \"#utility.yul\":1692:1699   */\n      0x4572726f72000000000000000000000000000000000000000000000000000000\n        /* \"#utility.yul\":1688:1689   */\n      0x00\n        /* \"#utility.yul\":1680:1686   */\n      dup3\n        /* \"#utility.yul\":1676:1690   */\n      add\n        /* \"#utility.yul\":1669:1700   */\n      mstore\n        /* \"#utility.yul\":1552:1707   */\n      pop\n      jump\t// out\n        /* \"#utility.yul\":1713:2078   */\n    tag_48:\n        /* \"#utility.yul\":1855:1858   */\n      0x00\n        /* \"#utility.yul\":1876:1942   */\n      tag_73\n        /* \"#utility.yul\":1940:1941   */\n      0x05\n        /* \"#utility.yul\":1935:1938   */\n      dup4\n        /* \"#utility.yul\":1876:1942   */\n      tag_46\n      jump\t// in\n    tag_73:\n        /* \"#utility.yul\":1869:1942   */\n      swap2\n      pop\n        /* \"#utility.yul\":1951:2044   */\n      tag_74\n        /* \"#utility.yul\":2040:2043   */\n      dup3\n        /* \"#utility.yul\":1951:2044   */\n      tag_47\n      jump\t// in\n    tag_74:\n        /* \"#utility.yul\":2069:2071   */\n      0x20\n        /* \"#utility.yul\":2064:2067   */\n      dup3\n        /* \"#utility.yul\":2060:2072   */\n      add\n        /* \"#utility.yul\":2053:2072   */\n      swap1\n      pop\n        /* \"#utility.yul\":1713:2078   */\n      swap2\n      swap1\n      pop\n      jump\t// out\n        /* \"#utility.yul\":2084:2503   */\n    tag_27:\n        /* \"#utility.yul\":2250:2254   */\n      0x00\n        /* \"#utility.yul\":2288:2290   */\n      0x20\n        /* \"#utility.yul\":2277:2286   */\n      dup3\n        /* \"#utility.yul\":2273:2291   */\n      add\n        /* \"#utility.yul\":2265:2291   */\n      swap1\n      pop\n        /* \"#utility.yul\":2337:2346   */\n      dup2\n        /* \"#utility.yul\":2331:2335   */\n      dup2\n        /* \"#utility.yul\":2327:2347   */\n      sub\n        /* \"#utility.yul\":2323:2324   */\n      0x00\n        /* \"#utility.yul\":2312:2321   */\n      dup4\n        /* \"#utility.yul\":2308:2325   */\n      add\n        /* \"#utility.yul\":2301:2348   */\n      mstore\n        /* \"#utility.yul\":2365:2496   */\n      tag_76\n        /* \"#utility.yul\":2491:2495   */\n      dup2\n        /* \"#utility.yul\":2365:2496   */\n      tag_48\n      jump\t// in\n    tag_76:\n        /* \"#utility.yul\":2357:2496   */\n      swap1\n      pop\n        /* \"#utility.yul\":2084:2503   */\n      swap2\n      swap1\n      pop\n      jump\t// out\n        /* \"#utility.yul\":2509:2635   */\n    tag_49:\n        /* \"#utility.yul\":2546:2553   */\n      0x00\n        /* \"#utility.yul\":2586:2628   */\n      0xffffffffffffffffffffffffffffffffffffffff\n        /* \"#utility.yul\":2579:2584   */\n      dup3\n        /* \"#utility.yul\":2575:2629   */\n      and\n        /* \"#utility.yul\":2564:2629   */\n      swap1\n      pop\n        /* \"#utility.yul\":2509:2635   */\n      swap2\n      swap1\n      pop\n      jump\t// out\n        /* \"#utility.yul\":2641:2737   */\n    tag_50:\n        /* \"#utility.yul\":2678:2685   */\n      0x00\n        /* \"#utility.yul\":2707:2731   */\n      tag_79\n        /* \"#utility.yul\":2725:2730   */\n      dup3\n        /* \"#utility.yul\":2707:2731   */\n      tag_49\n      jump\t// in\n    tag_79:\n        /* \"#utility.yul\":2696:2731   */\n      swap1\n      pop\n        /* \"#utility.yul\":2641:2737   */\n      swap2\n      swap1\n      pop\n      jump\t// out\n        /* \"#utility.yul\":2743:2861   */\n    tag_51:\n        /* \"#utility.yul\":2830:2854   */\n      tag_81\n        /* \"#utility.yul\":2848:2853   */\n      dup2\n        /* \"#utility.yul\":2830:2854   */\n      tag_50\n      jump\t// in\n    tag_81:\n        /* \"#utility.yul\":2825:2828   */\n      dup3\n        /* \"#utility.yul\":2818:2855   */\n      mstore\n        /* \"#utility.yul\":2743:2861   */\n      pop\n      pop\n      jump\t// out\n        /* \"#utility.yul\":2867:3199   */\n    tag_34:\n        /* \"#utility.yul\":2988:2992   */\n      0x00\n        /* \"#utility.yul\":3026:3028   */\n      0x40\n        /* \"#utility.yul\":3015:3024   */\n      dup3\n        /* \"#utility.yul\":3011:3029   */\n      add\n        /* \"#utility.yul\":3003:3029   */\n      swap1\n      pop\n        /* \"#utility.yul\":3039:3110   */\n      tag_83\n        /* \"#utility.yul\":3107:3108   */\n      0x00\n        /* \"#utility.yul\":3096:3105   */\n      dup4\n        /* \"#utility.yul\":3092:3109   */\n      add\n        /* \"#utility.yul\":3083:3089   */\n      dup6\n        /* \"#utility.yul\":3039:3110   */\n      tag_51\n      jump\t// in\n    tag_83:\n        /* \"#utility.yul\":3120:3192   */\n      tag_84\n        /* \"#utility.yul\":3188:3190   */\n      0x20\n        /* \"#utility.yul\":3177:3186   */\n      dup4\n        /* \"#utility.yul\":3173:3191   */\n      add\n        /* \"#utility.yul\":3164:3170   */\n      dup5\n        /* \"#utility.yul\":3120:3192   */\n      tag_45\n      jump\t// in\n    tag_84:\n        /* \"#utility.yul\":2867:3199   */\n      swap4\n      swap3\n      pop\n      pop\n      pop\n      jump\t// out\n        /* \"#utility.yul\":3205:3385   */\n    tag_38:\n        /* \"#utility.yul\":3253:3330   */\n      0x4e487b7100000000000000000000000000000000000000000000000000000000\n        /* \"#utility.yul\":3250:3251   */\n      0x00\n        /* \"#utility.yul\":3243:3331   */\n      mstore\n        /* \"#utility.yul\":3350:3354   */\n      0x01\n        /* \"#utility.yul\":3347:3348   */\n      0x04\n        /* \"#utility.yul\":3340:3355   */\n      mstore\n        /* \"#utility.yul\":3374:3378   */\n      0x24\n        /* \"#utility.yul\":3371:3372   */\n      0x00\n        /* \"#utility.yul\":3364:3379   */\n      revert\n\n    auxdata: 0xa2646970667358221220c39fff1ef8089fdc32b56c91a9087a2eface51364206e1fa90656e6fdad544da64736f6c634300081a0033\n}\n",
				"bytecode": {
					"linkReferences": {},
					"object": "6080604052607b5f553480156012575f80fd5b50610391806100205f395ff3fe608060405234801561000f575f80fd5b5060043610610055575f3560e01c8063056557271461005957806320987767146100755780634e70b1dc1461009157806375f7286c146100af5780638575d3e1146100cb575b5f80fd5b610073600480360381019061006e91906101fd565b6100d5565b005b61008f600480360381019061008a91906101fd565b61011b565b005b610099610162565b6040516100a69190610237565b60405180910390f35b6100c960048036038101906100c491906101fd565b610167565b005b6100d36101b2565b005b600a8111610118576040517f08c379a000000000000000000000000000000000000000000000000000000000815260040161010f906102aa565b60405180910390fd5b50565b600a81111561015f576040517f08c379a0000000000000000000000000000000000000000000000000000000008152600401610156906102aa565b60405180910390fd5b50565b5f5481565b600a8111156101af5733816040517f190a30a90000000000000000000000000000000000000000000000000000000081526004016101a6929190610307565b60405180910390fd5b50565b607b5f54146101c4576101c361032e565b5b565b5f80fd5b5f819050919050565b6101dc816101ca565b81146101e6575f80fd5b50565b5f813590506101f7816101d3565b92915050565b5f60208284031215610212576102116101c6565b5b5f61021f848285016101e9565b91505092915050565b610231816101ca565b82525050565b5f60208201905061024a5f830184610228565b92915050565b5f82825260208201905092915050565b7f4572726f720000000000000000000000000000000000000000000000000000005f82015250565b5f610294600583610250565b915061029f82610260565b602082019050919050565b5f6020820190508181035f8301526102c181610288565b9050919050565b5f73ffffffffffffffffffffffffffffffffffffffff82169050919050565b5f6102f1826102c8565b9050919050565b610301816102e7565b82525050565b5f60408201905061031a5f8301856102f8565b6103276020830184610228565b9392505050565b7f4e487b71000000000000000000000000000000000000000000000000000000005f52600160045260245ffdfea2646970667358221220c39fff1ef8089fdc32b56c91a9087a2eface51364206e1fa90656e6fdad544da64736f6c634300081a0033",
					"opcodes": "PUSH1 0x80 PUSH1 0x40 MSTORE PUSH1 0x7B PUSH0 SSTORE CALLVALUE DUP1 ISZERO PUSH1 0x12 JUMPI PUSH0 DUP1 REVERT JUMPDEST POP PUSH2 0x391 DUP1 PUSH2 0x20 PUSH0 CODECOPY PUSH0 RETURN INVALID PUSH1 0x80 PUSH1 0x40 MSTORE CALLVALUE DUP1 ISZERO PUSH2 0xF JUMPI PUSH0 DUP1 REVERT JUMPDEST POP PUSH1 0x4 CALLDATASIZE LT PUSH2 0x55 JUMPI PUSH0 CALLDATALOAD PUSH1 0xE0 SHR DUP1 PUSH4 0x5655727 EQ PUSH2 0x59 JUMPI DUP1 PUSH4 0x20987767 EQ PUSH2 0x75 JUMPI DUP1 PUSH4 0x4E70B1DC EQ PUSH2 0x91 JUMPI DUP1 PUSH4 0x75F7286C EQ PUSH2 0xAF JUMPI DUP1 PUSH4 0x8575D3E1 EQ PUSH2 0xCB JUMPI JUMPDEST PUSH0 DUP1 REVERT JUMPDEST PUSH2 0x73 PUSH1 0x4 DUP1 CALLDATASIZE SUB DUP2 ADD SWAP1 PUSH2 0x6E SWAP2 SWAP1 PUSH2 0x1FD JUMP JUMPDEST PUSH2 0xD5 JUMP JUMPDEST STOP JUMPDEST PUSH2 0x8F PUSH1 0x4 DUP1 CALLDATASIZE SUB DUP2 ADD SWAP1 PUSH2 0x8A SWAP2 SWAP1 PUSH2 0x1FD JUMP JUMPDEST PUSH2 0x11B JUMP JUMPDEST STOP JUMPDEST PUSH2 0x99 PUSH2 0x162 JUMP JUMPDEST PUSH1 0x40 MLOAD PUSH2 0xA6 SWAP2 SWAP1 PUSH2 0x237 JUMP JUMPDEST PUSH1 0x40 MLOAD DUP1 SWAP2 SUB SWAP1 RETURN JUMPDEST PUSH2 0xC9 PUSH1 0x4 DUP1 CALLDATASIZE SUB DUP2 ADD SWAP1 PUSH2 0xC4 SWAP2 SWAP1 PUSH2 0x1FD JUMP JUMPDEST PUSH2 0x167 JUMP JUMPDEST STOP JUMPDEST PUSH2 0xD3 PUSH2 0x1B2 JUMP JUMPDEST STOP JUMPDEST PUSH1 0xA DUP2 GT PUSH2 0x118 JUMPI PUSH1 0x40 MLOAD PUSH32 0x8C379A000000000000000000000000000000000000000000000000000000000 DUP2 MSTORE PUSH1 0x4 ADD PUSH2 0x10F SWAP1 PUSH2 0x2AA JUMP JUMPDEST PUSH1 0x40 MLOAD DUP1 SWAP2 SUB SWAP1 REVERT JUMPDEST POP JUMP JUMPDEST PUSH1 0xA DUP2 GT ISZERO PUSH2 0x15F JUMPI PUSH1 0x40 MLOAD PUSH32 0x8C379A000000000000000000000000000000000000000000000000000000000 DUP2 MSTORE PUSH1 0x4 ADD PUSH2 0x156 SWAP1 PUSH2 0x2AA JUMP JUMPDEST PUSH1 0x40 MLOAD DUP1 SWAP2 SUB SWAP1 REVERT JUMPDEST POP JUMP JUMPDEST PUSH0 SLOAD DUP2 JUMP JUMPDEST PUSH1 0xA DUP2 GT ISZERO PUSH2 0x1AF JUMPI CALLER DUP2 PUSH1 0x40 MLOAD PUSH32 0x190A30A900000000000000000000000000000000000000000000000000000000 DUP2 MSTORE PUSH1 0x4 ADD PUSH2 0x1A6 SWAP3 SWAP2 SWAP1 PUSH2 0x307 JUMP JUMPDEST PUSH1 0x40 MLOAD DUP1 SWAP2 SUB SWAP1 REVERT JUMPDEST POP JUMP JUMPDEST PUSH1 0x7B PUSH0 SLOAD EQ PUSH2 0x1C4 JUMPI PUSH2 0x1C3 PUSH2 0x32E JUMP JUMPDEST JUMPDEST JUMP JUMPDEST PUSH0 DUP1 REVERT JUMPDEST PUSH0 DUP2 SWAP1 POP SWAP2 SWAP1 POP JUMP JUMPDEST PUSH2 0x1DC DUP2 PUSH2 0x1CA JUMP JUMPDEST DUP2 EQ PUSH2 0x1E6 JUMPI PUSH0 DUP1 REVERT JUMPDEST POP JUMP JUMPDEST PUSH0 DUP2 CALLDATALOAD SWAP1 POP PUSH2 0x1F7 DUP2 PUSH2 0x1D3 JUMP JUMPDEST SWAP3 SWAP2 POP POP JUMP JUMPDEST PUSH0 PUSH1 0x20 DUP3 DUP5 SUB SLT ISZERO PUSH2 0x212 JUMPI PUSH2 0x211 PUSH2 0x1C6 JUMP JUMPDEST JUMPDEST PUSH0 PUSH2 0x21F DUP5 DUP3 DUP6 ADD PUSH2 0x1E9 JUMP JUMPDEST SWAP2 POP POP SWAP3 SWAP2 POP POP JUMP JUMPDEST PUSH2 0x231 DUP2 PUSH2 0x1CA JUMP JUMPDEST DUP3 MSTORE POP POP JUMP JUMPDEST PUSH0 PUSH1 0x20 DUP3 ADD SWAP1 POP PUSH2 0x24A PUSH0 DUP4 ADD DUP5 PUSH2 0x228 JUMP JUMPDEST SWAP3 SWAP2 POP POP JUMP JUMPDEST PUSH0 DUP3 DUP3 MSTORE PUSH1 0x20 DUP3 ADD SWAP1 POP SWAP3 SWAP2 POP POP JUMP JUMPDEST PUSH32 0x4572726F72000000000000000000000000000000000000000000000000000000 PUSH0 DUP3 ADD MSTORE POP JUMP JUMPDEST PUSH0 PUSH2 0x294 PUSH1 0x5 DUP4 PUSH2 0x250 JUMP JUMPDEST SWAP2 POP PUSH2 0x29F DUP3 PUSH2 0x260 JUMP JUMPDEST PUSH1 0x20 DUP3 ADD SWAP1 POP SWAP2 SWAP1 POP JUMP JUMPDEST PUSH0 PUSH1 0x20 DUP3 ADD SWAP1 POP DUP2 DUP2 SUB PUSH0 DUP4 ADD MSTORE PUSH2 0x2C1 DUP2 PUSH2 0x288 JUMP JUMPDEST SWAP1 POP SWAP2 SWAP1 POP JUMP JUMPDEST PUSH0 PUSH20 0xFFFFFFFFFFFFFFFFFFFFFFFFFFFFFFFFFFFFFFFF DUP3 AND SWAP1 POP SWAP2 SWAP1 POP JUMP JUMPDEST PUSH0 PUSH2 0x2F1 DUP3 PUSH2 0x2C8 JUMP JUMPDEST SWAP1 POP SWAP2 SWAP1 POP JUMP JUMPDEST PUSH2 0x301 DUP2 PUSH2 0x2E7 JUMP JUMPDEST DUP3 MSTORE POP POP JUMP JUMPDEST PUSH0 PUSH1 0x40 DUP3 ADD SWAP1 POP PUSH2 0x31A PUSH0 DUP4 ADD DUP6 PUSH2 0x2F8 JUMP JUMPDEST PUSH2 0x327 PUSH1 0x20 DUP4 ADD DUP5 PUSH2 0x228 JUMP JUMPDEST SWAP4 SWAP3 POP POP POP JUMP JUMPDEST PUSH32 0x4E487B7100000000000000000000000000000000000000000000000000000000 PUSH0 MSTORE PUSH1 0x1 PUSH1 0x4 MSTORE PUSH1 0x24 PUSH0 REVERT INVALID LOG2 PUSH5 0x6970667358 0x22 SLT KECCAK256 0xC3 SWAP16 SELFDESTRUCT 0x1E 0xF8 ADDMOD SWAP16 0xDC ORIGIN 0xB5 PUSH13 0x91A9087A2EFACE51364206E1FA SWAP1 PUSH6 0x6E6FDAD544DA PUSH5 0x736F6C6343 STOP ADDMOD BYTE STOP CALLER "
				},
				"gasEstimates": {
					"creation": {
						"codeDepositCost": "182600",
						"executionCost": "22329",
						"totalCost": "204929"
					},
					"external": {
						"checkAssert()": "2358",
						"checkRequire(uint256)": "684",
						"num()": "2446",
						"testCustomError(uint256)": "infinite",
						"testRevert(uint256)": "709"
					}
				},
				"methodIdentifiers": {
					"checkAssert()": "8575d3e1",
					"checkRequire(uint256)": "05655727",
					"num()": "4e70b1dc",
					"testCustomError(uint256)": "75f7286c",
					"testRevert(uint256)": "20987767"
				}
			},
			"storageLayout": {
				"storage": [
					{
						"astId": 32,
						"contract": "Solidity Basic/Error.sol:Errors",
						"label": "num",
						"offset": 0,
						"slot": "0",
						"type": "t_uint256"
					}
				],
				"types": {
					"t_uint256": {
						"encoding": "inplace",
						"label": "uint256",
						"numberOfBytes": "32"
					}
				}
			},
			"userdoc": {
				"kind": "user",
				"methods": {},
				"version": 1
			}
		}
	}
}