{
	"data": {
		"bytecode": {
			"linkReferences": {},
			"object": "6080604052348015600e575f80fd5b5061026b8061001c5f395ff3fe608060405234801561000f575f80fd5b5060043610610060575f3560e01c80634b30a6a1146100645780634c9eb4d41461008257806367cb61b6146100a057806373630af9146100be578063979ae409146100dc57806398f42fe3146100e6575b5f80fd5b61006c610104565b60405161007991906101eb565b60405180910390f35b61008a610108565b60405161009791906101eb565b60405180910390f35b6100a8610110565b6040516100b591906101eb565b60405180910390f35b6100c6610124565b6040516100d3919061021c565b60405180910390f35b6100e461013d565b005b6100ee610168565b6040516100fb91906101eb565b60405180910390f35b5f90565b5f6003905090565b5f805f9054906101000a900460ff16905090565b5f80600381111561013857610137610178565b5b905090565b60035f806101000a81548160ff0219169083600381111561016157610160610178565b5b0217905550565b5f8054906101000a900460ff1681565b7f4e487b71000000000000000000000000000000000000000000000000000000005f52602160045260245ffd5b600481106101b6576101b5610178565b5b50565b5f8190506101c6826101a5565b919050565b5f6101d5826101b9565b9050919050565b6101e5816101cb565b82525050565b5f6020820190506101fe5f8301846101dc565b92915050565b5f819050919050565b61021681610204565b82525050565b5f60208201905061022f5f83018461020d565b9291505056fea264697066735822122065b67ed9d12b3e4d2f8586144ed5f4a7618c8fadd4aee27b2883ddd18b809d6e64736f6c634300081a0033",
			"opcodes": "PUSH1 0x80 PUSH1 0x40 MSTORE CALLVALUE DUP1 ISZERO PUSH1 0xE JUMPI PUSH0 DUP1 REVERT JUMPDEST POP PUSH2 0x26B DUP1 PUSH2 0x1C PUSH0 CODECOPY PUSH0 RETURN INVALID PUSH1 0x80 PUSH1 0x40 MSTORE CALLVALUE DUP1 ISZERO PUSH2 0xF JUMPI PUSH0 DUP1 REVERT JUMPDEST POP PUSH1 0x4 CALLDATASIZE LT PUSH2 0x60 JUMPI PUSH0 CALLDATALOAD PUSH1 0xE0 SHR DUP1 PUSH4 0x4B30A6A1 EQ PUSH2 0x64 JUMPI DUP1 PUSH4 0x4C9EB4D4 EQ PUSH2 0x82 JUMPI DUP1 PUSH4 0x67CB61B6 EQ PUSH2 0xA0 JUMPI DUP1 PUSH4 0x73630AF9 EQ PUSH2 0xBE JUMPI DUP1 PUSH4 0x979AE409 EQ PUSH2 0xDC JUMPI DUP1 PUSH4 0x98F42FE3 EQ PUSH2 0xE6 JUMPI JUMPDEST PUSH0 DUP1 REVERT JUMPDEST PUSH2 0x6C PUSH2 0x104 JUMP JUMPDEST PUSH1 0x40 MLOAD PUSH2 0x79 SWAP2 SWAP1 PUSH2 0x1EB JUMP JUMPDEST PUSH1 0x40 MLOAD DUP1 SWAP2 SUB SWAP1 RETURN JUMPDEST PUSH2 0x8A PUSH2 0x108 JUMP JUMPDEST PUSH1 0x40 MLOAD PUSH2 0x97 SWAP2 SWAP1 PUSH2 0x1EB JUMP JUMPDEST PUSH1 0x40 MLOAD DUP1 SWAP2 SUB SWAP1 RETURN JUMPDEST PUSH2 0xA8 PUSH2 0x110 JUMP JUMPDEST PUSH1 0x40 MLOAD PUSH2 0xB5 SWAP2 SWAP1 PUSH2 0x1EB JUMP JUMPDEST PUSH1 0x40 MLOAD DUP1 SWAP2 SUB SWAP1 RETURN JUMPDEST PUSH2 0xC6 PUSH2 0x124 JUMP JUMPDEST PUSH1 0x40 MLOAD PUSH2 0xD3 SWAP2 SWAP1 PUSH2 0x21C JUMP JUMPDEST PUSH1 0x40 MLOAD DUP1 SWAP2 SUB SWAP1 RETURN JUMPDEST PUSH2 0xE4 PUSH2 0x13D JUMP JUMPDEST STOP JUMPDEST PUSH2 0xEE PUSH2 0x168 JUMP JUMPDEST PUSH1 0x40 MLOAD PUSH2 0xFB SWAP2 SWAP1 PUSH2 0x1EB JUMP JUMPDEST PUSH1 0x40 MLOAD DUP1 SWAP2 SUB SWAP1 RETURN JUMPDEST PUSH0 SWAP1 JUMP JUMPDEST PUSH0 PUSH1 0x3 SWAP1 POP SWAP1 JUMP JUMPDEST PUSH0 DUP1 PUSH0 SWAP1 SLOAD SWAP1 PUSH2 0x100 EXP SWAP1 DIV PUSH1 0xFF AND SWAP1 POP SWAP1 JUMP JUMPDEST PUSH0 DUP1 PUSH1 0x3 DUP2 GT ISZERO PUSH2 0x138 JUMPI PUSH2 0x137 PUSH2 0x178 JUMP JUMPDEST JUMPDEST SWAP1 POP SWAP1 JUMP JUMPDEST PUSH1 0x3 PUSH0 DUP1 PUSH2 0x100 EXP DUP2 SLOAD DUP2 PUSH1 0xFF MUL NOT AND SWAP1 DUP4 PUSH1 0x3 DUP2 GT ISZERO PUSH2 0x161 JUMPI PUSH2 0x160 PUSH2 0x178 JUMP JUMPDEST JUMPDEST MUL OR SWAP1 SSTORE POP JUMP JUMPDEST PUSH0 DUP1 SLOAD SWAP1 PUSH2 0x100 EXP SWAP1 DIV PUSH1 0xFF AND DUP2 JUMP JUMPDEST PUSH32 0x4E487B7100000000000000000000000000000000000000000000000000000000 PUSH0 MSTORE PUSH1 0x21 PUSH1 0x4 MSTORE PUSH1 0x24 PUSH0 REVERT JUMPDEST PUSH1 0x4 DUP2 LT PUSH2 0x1B6 JUMPI PUSH2 0x1B5 PUSH2 0x178 JUMP JUMPDEST JUMPDEST POP JUMP JUMPDEST PUSH0 DUP2 SWAP1 POP PUSH2 0x1C6 DUP3 PUSH2 0x1A5 JUMP JUMPDEST SWAP2 SWAP1 POP JUMP JUMPDEST PUSH0 PUSH2 0x1D5 DUP3 PUSH2 0x1B9 JUMP JUMPDEST SWAP1 POP SWAP2 SWAP1 POP JUMP JUMPDEST PUSH2 0x1E5 DUP2 PUSH2 0x1CB JUMP JUMPDEST DUP3 MSTORE POP POP JUMP JUMPDEST PUSH0 PUSH1 0x20 DUP3 ADD SWAP1 POP PUSH2 0x1FE PUSH0 DUP4 ADD DUP5 PUSH2 0x1DC JUMP JUMPDEST SWAP3 SWAP2 POP POP JUMP JUMPDEST PUSH0 DUP2 SWAP1 POP SWAP2 SWAP1 POP JUMP JUMPDEST PUSH2 0x216 DUP2 PUSH2 0x204 JUMP JUMPDEST DUP3 MSTORE POP POP JUMP JUMPDEST PUSH0 PUSH1 0x20 DUP3 ADD SWAP1 POP PUSH2 0x22F PUSH0 DUP4 ADD DUP5 PUSH2 0x20D JUMP JUMPDEST SWAP3 SWAP2 POP POP JUMP INVALID LOG2 PUSH5 0x6970667358 0x22 SLT KECCAK256 PUSH6 0xB67ED9D12B3E 0x4D 0x2F DUP6 DUP7 EQ 0x4E 0xD5 DELEGATECALL 0xA7 PUSH2 0x8C8F 0xAD 0xD4 0xAE 0xE2 PUSH28 0x2883DDD18B809D6E64736F6C634300081A0033000000000000000000 "
		},
		"gasEstimates": {
			"creation": {
				"codeDepositCost": "123800",
				"executionCost": "169",
				"totalCost": "123969"
			},
			"external": {
				"choice()": "2639",
				"getChoice()": "2583",
				"getDefaultChoiceValueType()": "402",
				"getMaxValue()": "426",
				"getMinValue()": "396",
				"setChoice()": "24495"
			}
		},
		"methodIdentifiers": {
			"choice()": "98f42fe3",
			"getChoice()": "67cb61b6",
			"getDefaultChoiceValueType()": "73630af9",
			"getMaxValue()": "4c9eb4d4",
			"getMinValue()": "4b30a6a1",
			"setChoice()": "979ae409"
		}
	},
	"abi": [
		{
			"inputs": [],
			"name": "choice",
			"outputs": [
				{
					"internalType": "enum Enums.Choices",
					"name": "",
					"type": "uint8"
				}
			],
			"stateMutability": "view",
			"type": "function"
		},
		{
			"inputs": [],
			"name": "getChoice",
			"outputs": [
				{
					"internalType": "enum Enums.Choices",
					"name": "",
					"type": "uint8"
				}
			],
			"stateMutability": "view",
			"type": "function"
		},
		{
			"inputs": [],
			"name": "getDefaultChoiceValueType",
			"outputs": [
				{
					"internalType": "uint256",
					"name": "",
					"type": "uint256"
				}
			],
			"stateMutability": "pure",
			"type": "function"
		},
		{
			"inputs": [],
			"name": "getMaxValue",
			"outputs": [
				{
					"internalType": "enum Enums.Choices",
					"name": "",
					"type": "uint8"
				}
			],
			"stateMutability": "pure",
			"type": "function"
		},
		{
			"inputs": [],
			"name": "getMinValue",
			"outputs": [
				{
					"internalType": "enum Enums.Choices",
					"name": "",
					"type": "uint8"
				}
			],
			"stateMutability": "pure",
			"type": "function"
		},
		{
			"inputs": [],
			"name": "setChoice",
			"outputs": [],
			"stateMutability": "nonpayable",
			"type": "function"
		}
	]
}