{
	"data": {
		"bytecode": {
			"linkReferences": {},
			"object": "6080604052348015600e575f80fd5b5061017f8061001c5f395ff3fe608060405234801561000f575f80fd5b506004361061004a575f3560e01c806350a8a4b61461004e578063792803a9146100585780637970a18914610077578063adb4d99014610096575b5f80fd5b6100566100b5565b005b6100606100c7565b60405161006e929190610122565b60405180910390f35b61007f6100d4565b60405161008d929190610122565b60405180910390f35b61009e6100e2565b6040516100ac929190610122565b60405180910390f35b5f806100bf6100e2565b915091505050565b5f8060015f915091509091565b5f8060026001915091509091565b5f8060036001915091509091565b5f819050919050565b610102816100f0565b82525050565b5f8115159050919050565b61011c81610108565b82525050565b5f6040820190506101355f8301856100f9565b6101426020830184610113565b939250505056fea2646970667358221220c9a84fc9ca17880f26e3f3e84a3a6c26d97f9145914513415f7f2cc251ba165064736f6c634300081a0033",
			"opcodes": "PUSH1 0x80 PUSH1 0x40 MSTORE CALLVALUE DUP1 ISZERO PUSH1 0xE JUMPI PUSH0 DUP1 REVERT JUMPDEST POP PUSH2 0x17F DUP1 PUSH2 0x1C PUSH0 CODECOPY PUSH0 RETURN INVALID PUSH1 0x80 PUSH1 0x40 MSTORE CALLVALUE DUP1 ISZERO PUSH2 0xF JUMPI PUSH0 DUP1 REVERT JUMPDEST POP PUSH1 0x4 CALLDATASIZE LT PUSH2 0x4A JUMPI PUSH0 CALLDATALOAD PUSH1 0xE0 SHR DUP1 PUSH4 0x50A8A4B6 EQ PUSH2 0x4E JUMPI DUP1 PUSH4 0x792803A9 EQ PUSH2 0x58 JUMPI DUP1 PUSH4 0x7970A189 EQ PUSH2 0x77 JUMPI DUP1 PUSH4 0xADB4D990 EQ PUSH2 0x96 JUMPI JUMPDEST PUSH0 DUP1 REVERT JUMPDEST PUSH2 0x56 PUSH2 0xB5 JUMP JUMPDEST STOP JUMPDEST PUSH2 0x60 PUSH2 0xC7 JUMP JUMPDEST PUSH1 0x40 MLOAD PUSH2 0x6E SWAP3 SWAP2 SWAP1 PUSH2 0x122 JUMP JUMPDEST PUSH1 0x40 MLOAD DUP1 SWAP2 SUB SWAP1 RETURN JUMPDEST PUSH2 0x7F PUSH2 0xD4 JUMP JUMPDEST PUSH1 0x40 MLOAD PUSH2 0x8D SWAP3 SWAP2 SWAP1 PUSH2 0x122 JUMP JUMPDEST PUSH1 0x40 MLOAD DUP1 SWAP2 SUB SWAP1 RETURN JUMPDEST PUSH2 0x9E PUSH2 0xE2 JUMP JUMPDEST PUSH1 0x40 MLOAD PUSH2 0xAC SWAP3 SWAP2 SWAP1 PUSH2 0x122 JUMP JUMPDEST PUSH1 0x40 MLOAD DUP1 SWAP2 SUB SWAP1 RETURN JUMPDEST PUSH0 DUP1 PUSH2 0xBF PUSH2 0xE2 JUMP JUMPDEST SWAP2 POP SWAP2 POP POP POP JUMP JUMPDEST PUSH0 DUP1 PUSH1 0x1 PUSH0 SWAP2 POP SWAP2 POP SWAP1 SWAP2 JUMP JUMPDEST PUSH0 DUP1 PUSH1 0x2 PUSH1 0x1 SWAP2 POP SWAP2 POP SWAP1 SWAP2 JUMP JUMPDEST PUSH0 DUP1 PUSH1 0x3 PUSH1 0x1 SWAP2 POP SWAP2 POP SWAP1 SWAP2 JUMP JUMPDEST PUSH0 DUP2 SWAP1 POP SWAP2 SWAP1 POP JUMP JUMPDEST PUSH2 0x102 DUP2 PUSH2 0xF0 JUMP JUMPDEST DUP3 MSTORE POP POP JUMP JUMPDEST PUSH0 DUP2 ISZERO ISZERO SWAP1 POP SWAP2 SWAP1 POP JUMP JUMPDEST PUSH2 0x11C DUP2 PUSH2 0x108 JUMP JUMPDEST DUP3 MSTORE POP POP JUMP JUMPDEST PUSH0 PUSH1 0x40 DUP3 ADD SWAP1 POP PUSH2 0x135 PUSH0 DUP4 ADD DUP6 PUSH2 0xF9 JUMP JUMPDEST PUSH2 0x142 PUSH1 0x20 DUP4 ADD DUP5 PUSH2 0x113 JUMP JUMPDEST SWAP4 SWAP3 POP POP POP JUMP INVALID LOG2 PUSH5 0x6970667358 0x22 SLT KECCAK256 0xC9 0xA8 0x4F 0xC9 0xCA OR DUP9 0xF 0x26 0xE3 RETURN 0xE8 BLOBBASEFEE GASPRICE PUSH13 0x26D97F9145914513415F7F2CC2 MLOAD 0xBA AND POP PUSH5 0x736F6C6343 STOP ADDMOD BYTE STOP CALLER "
		},
		"gasEstimates": {
			"creation": {
				"codeDepositCost": "76600",
				"executionCost": "121",
				"totalCost": "76721"
			},
			"external": {
				"assigned()": "495",
				"destructuringOutputs()": "191",
				"multipleOutputs()": "450",
				"namedOutputs()": "473"
			}
		},
		"methodIdentifiers": {
			"assigned()": "adb4d990",
			"destructuringOutputs()": "50a8a4b6",
			"multipleOutputs()": "792803a9",
			"namedOutputs()": "7970a189"
		}
	},
	"abi": [
		{
			"inputs": [],
			"name": "assigned",
			"outputs": [
				{
					"internalType": "uint256",
					"name": "b",
					"type": "uint256"
				},
				{
					"internalType": "bool",
					"name": "c",
					"type": "bool"
				}
			],
			"stateMutability": "pure",
			"type": "function"
		},
		{
			"inputs": [],
			"name": "destructuringOutputs",
			"outputs": [],
			"stateMutability": "pure",
			"type": "function"
		},
		{
			"inputs": [],
			"name": "multipleOutputs",
			"outputs": [
				{
					"internalType": "uint256",
					"name": "",
					"type": "uint256"
				},
				{
					"internalType": "bool",
					"name": "",
					"type": "bool"
				}
			],
			"stateMutability": "pure",
			"type": "function"
		},
		{
			"inputs": [],
			"name": "namedOutputs",
			"outputs": [
				{
					"internalType": "uint256",
					"name": "a",
					"type": "uint256"
				},
				{
					"internalType": "bool",
					"name": "b",
					"type": "bool"
				}
			],
			"stateMutability": "pure",
			"type": "function"
		}
	]
}