{
	"Solidity Basic Projects/Voting.sol": {
		"Voting": {
			"abi": [
				{
					"inputs": [
						{
							"internalType": "uint256",
							"name": "proposalIndex",
							"type": "uint256"
						},
						{
							"internalType": "bool",
							"name": "support",
							"type": "bool"
						}
					],
					"name": "castVote",
					"outputs": [],
					"stateMutability": "nonpayable",
					"type": "function"
				},
				{
					"inputs": [
						{
							"internalType": "address",
							"name": "_target",
							"type": "address"
						},
						{
							"internalType": "bytes",
							"name": "_data",
							"type": "bytes"
						}
					],
					"name": "newProposal",
					"outputs": [],
					"stateMutability": "nonpayable",
					"type": "function"
				},
				{
					"inputs": [
						{
							"internalType": "uint256",
							"name": "",
							"type": "uint256"
						}
					],
					"name": "proposals",
					"outputs": [
						{
							"internalType": "address",
							"name": "target",
							"type": "address"
						},
						{
							"internalType": "bytes",
							"name": "data",
							"type": "bytes"
						},
						{
							"internalType": "uint256",
							"name": "yesCount",
							"type": "uint256"
						},
						{
							"internalType": "uint256",
							"name": "noCount",
							"type": "uint256"
						}
					],
					"stateMutability": "view",
					"type": "function"
				}
			],
			"devdoc": {
				"kind": "dev",
				"methods": {},
				"version": 1
			},
			"evm": {
				"assembly": "    /* \"Solidity Basic Projects/Voting.sol\":61:1409  contract Voting {... */\n  mstore(0x40, 0x80)\n  callvalue\n  dup1\n  iszero\n  tag_1\n  jumpi\n  0x00\n  dup1\n  revert\ntag_1:\n  pop\n  dataSize(sub_0)\n  dup1\n  dataOffset(sub_0)\n  0x00\n  codecopy\n  0x00\n  return\nstop\n\nsub_0: assembly {\n        /* \"Solidity Basic Projects/Voting.sol\":61:1409  contract Voting {... */\n      mstore(0x40, 0x80)\n      callvalue\n      dup1\n      iszero\n      tag_1\n      jumpi\n      0x00\n      dup1\n      revert\n    tag_1:\n      pop\n      jumpi(tag_2, lt(calldatasize, 0x04))\n      shr(0xe0, calldataload(0x00))\n      dup1\n      0x013cf08b\n      eq\n      tag_3\n      jumpi\n      dup1\n      0x15373e3d\n      eq\n      tag_4\n      jumpi\n      dup1\n      0x1a3fd122\n      eq\n      tag_5\n      jumpi\n    tag_2:\n      0x00\n      dup1\n      revert\n        /* \"Solidity Basic Projects/Voting.sol\":340:367  Proposal[] public proposals */\n    tag_3:\n      tag_6\n      0x04\n      dup1\n      calldatasize\n      sub\n      dup2\n      add\n      swap1\n      tag_7\n      swap2\n      swap1\n      tag_8\n      jump\t// in\n    tag_7:\n      tag_9\n      jump\t// in\n    tag_6:\n      mload(0x40)\n      tag_10\n      swap5\n      swap4\n      swap3\n      swap2\n      swap1\n      tag_11\n      jump\t// in\n    tag_10:\n      mload(0x40)\n      dup1\n      swap2\n      sub\n      swap1\n      return\n        /* \"Solidity Basic Projects/Voting.sol\":608:1406  function castVote(uint256 proposalIndex, bool support) external { // Cast vote by inputed boolean value true / false... */\n    tag_4:\n      tag_12\n      0x04\n      dup1\n      calldatasize\n      sub\n      dup2\n      add\n      swap1\n      tag_13\n      swap2\n      swap1\n      tag_14\n      jump\t// in\n    tag_13:\n      tag_15\n      jump\t// in\n    tag_12:\n      stop\n        /* \"Solidity Basic Projects/Voting.sol\":376:600  function newProposal(address _target, bytes calldata _data) external { // Create a new proposal... */\n    tag_5:\n      tag_16\n      0x04\n      dup1\n      calldatasize\n      sub\n      dup2\n      add\n      swap1\n      tag_17\n      swap2\n      swap1\n      tag_18\n      jump\t// in\n    tag_17:\n      tag_19\n      jump\t// in\n    tag_16:\n      stop\n        /* \"Solidity Basic Projects/Voting.sol\":340:367  Proposal[] public proposals */\n    tag_9:\n      0x00\n      dup2\n      dup2\n      sload\n      dup2\n      lt\n      tag_20\n      jumpi\n      0x00\n      dup1\n      revert\n    tag_20:\n      swap1\n      0x00\n      mstore\n      keccak256(0x00, 0x20)\n      swap1\n      0x05\n      mul\n      add\n      0x00\n      swap2\n      pop\n      swap1\n      pop\n      dup1\n      0x00\n      add\n      0x00\n      swap1\n      sload\n      swap1\n      0x0100\n      exp\n      swap1\n      div\n      0xffffffffffffffffffffffffffffffffffffffff\n      and\n      swap1\n      dup1\n      0x01\n      add\n      dup1\n      sload\n      tag_22\n      swap1\n      tag_23\n      jump\t// in\n    tag_22:\n      dup1\n      0x1f\n      add\n      0x20\n      dup1\n      swap2\n      div\n      mul\n      0x20\n      add\n      mload(0x40)\n      swap1\n      dup2\n      add\n      0x40\n      mstore\n      dup1\n      swap3\n      swap2\n      swap1\n      dup2\n      dup2\n      mstore\n      0x20\n      add\n      dup3\n      dup1\n      sload\n      tag_24\n      swap1\n      tag_23\n      jump\t// in\n    tag_24:\n      dup1\n      iszero\n      tag_25\n      jumpi\n      dup1\n      0x1f\n      lt\n      tag_26\n      jumpi\n      0x0100\n      dup1\n      dup4\n      sload\n      div\n      mul\n      dup4\n      mstore\n      swap2\n      0x20\n      add\n      swap2\n      jump(tag_25)\n    tag_26:\n      dup3\n      add\n      swap2\n      swap1\n      0x00\n      mstore\n      keccak256(0x00, 0x20)\n      swap1\n    tag_27:\n      dup2\n      sload\n      dup2\n      mstore\n      swap1\n      0x01\n      add\n      swap1\n      0x20\n      add\n      dup1\n      dup4\n      gt\n      tag_27\n      jumpi\n      dup3\n      swap1\n      sub\n      0x1f\n      and\n      dup3\n      add\n      swap2\n    tag_25:\n      pop\n      pop\n      pop\n      pop\n      pop\n      swap1\n      dup1\n      0x02\n      add\n      sload\n      swap1\n      dup1\n      0x03\n      add\n      sload\n      swap1\n      pop\n      dup5\n      jump\t// out\n        /* \"Solidity Basic Projects/Voting.sol\":608:1406  function castVote(uint256 proposalIndex, bool support) external { // Cast vote by inputed boolean value true / false... */\n    tag_15:\n        /* \"Solidity Basic Projects/Voting.sol\":734:759  Proposal storage proposal */\n      0x00\n        /* \"Solidity Basic Projects/Voting.sol\":762:771  proposals */\n      dup1\n        /* \"Solidity Basic Projects/Voting.sol\":772:785  proposalIndex */\n      dup4\n        /* \"Solidity Basic Projects/Voting.sol\":762:786  proposals[proposalIndex] */\n      dup2\n      sload\n      dup2\n      lt\n      tag_29\n      jumpi\n      tag_30\n      tag_31\n      jump\t// in\n    tag_30:\n    tag_29:\n      swap1\n      0x00\n      mstore\n      keccak256(0x00, 0x20)\n      swap1\n      0x05\n      mul\n      add\n        /* \"Solidity Basic Projects/Voting.sol\":734:786  Proposal storage proposal = proposals[proposalIndex] */\n      swap1\n      pop\n        /* \"Solidity Basic Projects/Voting.sol\":872:886  VoteStates.Yes */\n      0x01\n        /* \"Solidity Basic Projects/Voting.sol\":838:886  proposal.voteState[msg.sender] == VoteStates.Yes */\n      0x02\n      dup2\n      gt\n      iszero\n      tag_33\n      jumpi\n      tag_34\n      tag_35\n      jump\t// in\n    tag_34:\n    tag_33:\n        /* \"Solidity Basic Projects/Voting.sol\":838:846  proposal */\n      dup2\n        /* \"Solidity Basic Projects/Voting.sol\":838:856  proposal.voteState */\n      0x04\n      add\n        /* \"Solidity Basic Projects/Voting.sol\":838:868  proposal.voteState[msg.sender] */\n      0x00\n        /* \"Solidity Basic Projects/Voting.sol\":857:867  msg.sender */\n      caller\n        /* \"Solidity Basic Projects/Voting.sol\":838:868  proposal.voteState[msg.sender] */\n      0xffffffffffffffffffffffffffffffffffffffff\n      and\n      0xffffffffffffffffffffffffffffffffffffffff\n      and\n      dup2\n      mstore\n      0x20\n      add\n      swap1\n      dup2\n      mstore\n      0x20\n      add\n      0x00\n      keccak256\n      0x00\n      swap1\n      sload\n      swap1\n      0x0100\n      exp\n      swap1\n      div\n      0xff\n      and\n        /* \"Solidity Basic Projects/Voting.sol\":838:886  proposal.voteState[msg.sender] == VoteStates.Yes */\n      0x02\n      dup2\n      gt\n      iszero\n      tag_36\n      jumpi\n      tag_37\n      tag_35\n      jump\t// in\n    tag_37:\n    tag_36:\n      sub\n        /* \"Solidity Basic Projects/Voting.sol\":835:934  if(proposal.voteState[msg.sender] == VoteStates.Yes) {... */\n      tag_38\n      jumpi\n        /* \"Solidity Basic Projects/Voting.sol\":903:911  proposal */\n      dup1\n        /* \"Solidity Basic Projects/Voting.sol\":903:920  proposal.yesCount */\n      0x02\n      add\n      0x00\n        /* \"Solidity Basic Projects/Voting.sol\":903:922  proposal.yesCount-- */\n      dup2\n      sload\n      dup1\n      swap3\n      swap2\n      swap1\n      tag_39\n      swap1\n      tag_40\n      jump\t// in\n    tag_39:\n      swap2\n      swap1\n      pop\n      sstore\n      pop\n        /* \"Solidity Basic Projects/Voting.sol\":835:934  if(proposal.voteState[msg.sender] == VoteStates.Yes) {... */\n    tag_38:\n        /* \"Solidity Basic Projects/Voting.sol\":983:996  VoteStates.No */\n      0x02\n        /* \"Solidity Basic Projects/Voting.sol\":949:996  proposal.voteState[msg.sender] == VoteStates.No */\n      dup1\n      dup2\n      gt\n      iszero\n      tag_41\n      jumpi\n      tag_42\n      tag_35\n      jump\t// in\n    tag_42:\n    tag_41:\n        /* \"Solidity Basic Projects/Voting.sol\":949:957  proposal */\n      dup2\n        /* \"Solidity Basic Projects/Voting.sol\":949:967  proposal.voteState */\n      0x04\n      add\n        /* \"Solidity Basic Projects/Voting.sol\":949:979  proposal.voteState[msg.sender] */\n      0x00\n        /* \"Solidity Basic Projects/Voting.sol\":968:978  msg.sender */\n      caller\n        /* \"Solidity Basic Projects/Voting.sol\":949:979  proposal.voteState[msg.sender] */\n      0xffffffffffffffffffffffffffffffffffffffff\n      and\n      0xffffffffffffffffffffffffffffffffffffffff\n      and\n      dup2\n      mstore\n      0x20\n      add\n      swap1\n      dup2\n      mstore\n      0x20\n      add\n      0x00\n      keccak256\n      0x00\n      swap1\n      sload\n      swap1\n      0x0100\n      exp\n      swap1\n      div\n      0xff\n      and\n        /* \"Solidity Basic Projects/Voting.sol\":949:996  proposal.voteState[msg.sender] == VoteStates.No */\n      0x02\n      dup2\n      gt\n      iszero\n      tag_43\n      jumpi\n      tag_44\n      tag_35\n      jump\t// in\n    tag_44:\n    tag_43:\n      sub\n        /* \"Solidity Basic Projects/Voting.sol\":946:1043  if(proposal.voteState[msg.sender] == VoteStates.No) {... */\n      tag_45\n      jumpi\n        /* \"Solidity Basic Projects/Voting.sol\":1013:1021  proposal */\n      dup1\n        /* \"Solidity Basic Projects/Voting.sol\":1013:1029  proposal.noCount */\n      0x03\n      add\n      0x00\n        /* \"Solidity Basic Projects/Voting.sol\":1013:1031  proposal.noCount-- */\n      dup2\n      sload\n      dup1\n      swap3\n      swap2\n      swap1\n      tag_46\n      swap1\n      tag_40\n      jump\t// in\n    tag_46:\n      swap2\n      swap1\n      pop\n      sstore\n      pop\n        /* \"Solidity Basic Projects/Voting.sol\":946:1043  if(proposal.voteState[msg.sender] == VoteStates.No) {... */\n    tag_45:\n        /* \"Solidity Basic Projects/Voting.sol\":1058:1065  support */\n      dup2\n        /* \"Solidity Basic Projects/Voting.sol\":1055:1181  if(support) {... */\n      iszero\n      tag_47\n      jumpi\n        /* \"Solidity Basic Projects/Voting.sol\":1082:1090  proposal */\n      dup1\n        /* \"Solidity Basic Projects/Voting.sol\":1082:1099  proposal.yesCount */\n      0x02\n      add\n      0x00\n        /* \"Solidity Basic Projects/Voting.sol\":1082:1101  proposal.yesCount++ */\n      dup2\n      sload\n      dup1\n      swap3\n      swap2\n      swap1\n      tag_48\n      swap1\n      tag_49\n      jump\t// in\n    tag_48:\n      swap2\n      swap1\n      pop\n      sstore\n      pop\n        /* \"Solidity Basic Projects/Voting.sol\":1055:1181  if(support) {... */\n      jump(tag_50)\n    tag_47:\n        /* \"Solidity Basic Projects/Voting.sol\":1142:1150  proposal */\n      dup1\n        /* \"Solidity Basic Projects/Voting.sol\":1142:1158  proposal.noCount */\n      0x03\n      add\n      0x00\n        /* \"Solidity Basic Projects/Voting.sol\":1142:1160  proposal.noCount++ */\n      dup2\n      sload\n      dup1\n      swap3\n      swap2\n      swap1\n      tag_51\n      swap1\n      tag_49\n      jump\t// in\n    tag_51:\n      swap2\n      swap1\n      pop\n      sstore\n      pop\n        /* \"Solidity Basic Projects/Voting.sol\":1055:1181  if(support) {... */\n    tag_50:\n        /* \"Solidity Basic Projects/Voting.sol\":1358:1365  support */\n      dup2\n        /* \"Solidity Basic Projects/Voting.sol\":1358:1398  support ? VoteStates.Yes : VoteStates.No */\n      tag_52\n      jumpi\n        /* \"Solidity Basic Projects/Voting.sol\":1385:1398  VoteStates.No */\n      0x02\n        /* \"Solidity Basic Projects/Voting.sol\":1358:1398  support ? VoteStates.Yes : VoteStates.No */\n      jump(tag_53)\n    tag_52:\n        /* \"Solidity Basic Projects/Voting.sol\":1368:1382  VoteStates.Yes */\n      0x01\n        /* \"Solidity Basic Projects/Voting.sol\":1358:1398  support ? VoteStates.Yes : VoteStates.No */\n    tag_53:\n        /* \"Solidity Basic Projects/Voting.sol\":1325:1333  proposal */\n      dup2\n        /* \"Solidity Basic Projects/Voting.sol\":1325:1343  proposal.voteState */\n      0x04\n      add\n        /* \"Solidity Basic Projects/Voting.sol\":1325:1355  proposal.voteState[msg.sender] */\n      0x00\n        /* \"Solidity Basic Projects/Voting.sol\":1344:1354  msg.sender */\n      caller\n        /* \"Solidity Basic Projects/Voting.sol\":1325:1355  proposal.voteState[msg.sender] */\n      0xffffffffffffffffffffffffffffffffffffffff\n      and\n      0xffffffffffffffffffffffffffffffffffffffff\n      and\n      dup2\n      mstore\n      0x20\n      add\n      swap1\n      dup2\n      mstore\n      0x20\n      add\n      0x00\n      keccak256\n      0x00\n        /* \"Solidity Basic Projects/Voting.sol\":1325:1398  proposal.voteState[msg.sender] = support ? VoteStates.Yes : VoteStates.No */\n      0x0100\n      exp\n      dup2\n      sload\n      dup2\n      0xff\n      mul\n      not\n      and\n      swap1\n      dup4\n      0x02\n      dup2\n      gt\n      iszero\n      tag_54\n      jumpi\n      tag_55\n      tag_35\n      jump\t// in\n    tag_55:\n    tag_54:\n      mul\n      or\n      swap1\n      sstore\n      pop\n        /* \"Solidity Basic Projects/Voting.sol\":672:1406  { // Cast vote by inputed boolean value true / false... */\n      pop\n        /* \"Solidity Basic Projects/Voting.sol\":608:1406  function castVote(uint256 proposalIndex, bool support) external { // Cast vote by inputed boolean value true / false... */\n      pop\n      pop\n      jump\t// out\n        /* \"Solidity Basic Projects/Voting.sol\":376:600  function newProposal(address _target, bytes calldata _data) external { // Create a new proposal... */\n    tag_19:\n        /* \"Solidity Basic Projects/Voting.sol\":480:505  Proposal storage proposal */\n      0x00\n        /* \"Solidity Basic Projects/Voting.sol\":508:517  proposals */\n      dup1\n        /* \"Solidity Basic Projects/Voting.sol\":508:524  proposals.push() */\n      0x01\n      dup2\n      0x01\n      dup2\n      sload\n      add\n      dup1\n      dup3\n      sstore\n      dup1\n      swap2\n      pop\n      pop\n      sub\n      swap1\n      0x00\n      mstore\n      keccak256(0x00, 0x20)\n      swap1\n      0x05\n      mul\n      add\n        /* \"Solidity Basic Projects/Voting.sol\":480:524  Proposal storage proposal = proposals.push() */\n      swap1\n      pop\n        /* \"Solidity Basic Projects/Voting.sol\":552:559  _target */\n      dup4\n        /* \"Solidity Basic Projects/Voting.sol\":534:542  proposal */\n      dup2\n        /* \"Solidity Basic Projects/Voting.sol\":534:549  proposal.target */\n      0x00\n      add\n      0x00\n        /* \"Solidity Basic Projects/Voting.sol\":534:559  proposal.target = _target */\n      0x0100\n      exp\n      dup2\n      sload\n      dup2\n      0xffffffffffffffffffffffffffffffffffffffff\n      mul\n      not\n      and\n      swap1\n      dup4\n      0xffffffffffffffffffffffffffffffffffffffff\n      and\n      mul\n      or\n      swap1\n      sstore\n      pop\n        /* \"Solidity Basic Projects/Voting.sol\":585:590  _data */\n      dup3\n      dup3\n        /* \"Solidity Basic Projects/Voting.sol\":569:577  proposal */\n      dup3\n        /* \"Solidity Basic Projects/Voting.sol\":569:582  proposal.data */\n      0x01\n      add\n        /* \"Solidity Basic Projects/Voting.sol\":569:590  proposal.data = _data */\n      swap2\n      dup3\n      tag_58\n      swap3\n      swap2\n      swap1\n      tag_59\n      jump\t// in\n    tag_58:\n      pop\n        /* \"Solidity Basic Projects/Voting.sol\":445:600  { // Create a new proposal... */\n      pop\n        /* \"Solidity Basic Projects/Voting.sol\":376:600  function newProposal(address _target, bytes calldata _data) external { // Create a new proposal... */\n      pop\n      pop\n      pop\n      jump\t// out\n        /* \"#utility.yul\":88:205   */\n    tag_61:\n        /* \"#utility.yul\":197:198   */\n      0x00\n        /* \"#utility.yul\":194:195   */\n      dup1\n        /* \"#utility.yul\":187:199   */\n      revert\n        /* \"#utility.yul\":211:328   */\n    tag_62:\n        /* \"#utility.yul\":320:321   */\n      0x00\n        /* \"#utility.yul\":317:318   */\n      dup1\n        /* \"#utility.yul\":310:322   */\n      revert\n        /* \"#utility.yul\":334:411   */\n    tag_63:\n        /* \"#utility.yul\":371:378   */\n      0x00\n        /* \"#utility.yul\":400:405   */\n      dup2\n        /* \"#utility.yul\":389:405   */\n      swap1\n      pop\n        /* \"#utility.yul\":334:411   */\n      swap2\n      swap1\n      pop\n      jump\t// out\n        /* \"#utility.yul\":417:539   */\n    tag_64:\n        /* \"#utility.yul\":490:514   */\n      tag_109\n        /* \"#utility.yul\":508:513   */\n      dup2\n        /* \"#utility.yul\":490:514   */\n      tag_63\n      jump\t// in\n    tag_109:\n        /* \"#utility.yul\":483:488   */\n      dup2\n        /* \"#utility.yul\":480:515   */\n      eq\n        /* \"#utility.yul\":470:533   */\n      tag_110\n      jumpi\n        /* \"#utility.yul\":529:530   */\n      0x00\n        /* \"#utility.yul\":526:527   */\n      dup1\n        /* \"#utility.yul\":519:531   */\n      revert\n        /* \"#utility.yul\":470:533   */\n    tag_110:\n        /* \"#utility.yul\":417:539   */\n      pop\n      jump\t// out\n        /* \"#utility.yul\":545:684   */\n    tag_65:\n        /* \"#utility.yul\":591:596   */\n      0x00\n        /* \"#utility.yul\":629:635   */\n      dup2\n        /* \"#utility.yul\":616:636   */\n      calldataload\n        /* \"#utility.yul\":607:636   */\n      swap1\n      pop\n        /* \"#utility.yul\":645:678   */\n      tag_112\n        /* \"#utility.yul\":672:677   */\n      dup2\n        /* \"#utility.yul\":645:678   */\n      tag_64\n      jump\t// in\n    tag_112:\n        /* \"#utility.yul\":545:684   */\n      swap3\n      swap2\n      pop\n      pop\n      jump\t// out\n        /* \"#utility.yul\":690:1019   */\n    tag_8:\n        /* \"#utility.yul\":749:755   */\n      0x00\n        /* \"#utility.yul\":798:800   */\n      0x20\n        /* \"#utility.yul\":786:795   */\n      dup3\n        /* \"#utility.yul\":777:784   */\n      dup5\n        /* \"#utility.yul\":773:796   */\n      sub\n        /* \"#utility.yul\":769:801   */\n      slt\n        /* \"#utility.yul\":766:885   */\n      iszero\n      tag_114\n      jumpi\n        /* \"#utility.yul\":804:883   */\n      tag_115\n      tag_61\n      jump\t// in\n    tag_115:\n        /* \"#utility.yul\":766:885   */\n    tag_114:\n        /* \"#utility.yul\":924:925   */\n      0x00\n        /* \"#utility.yul\":949:1002   */\n      tag_116\n        /* \"#utility.yul\":994:1001   */\n      dup5\n        /* \"#utility.yul\":985:991   */\n      dup3\n        /* \"#utility.yul\":974:983   */\n      dup6\n        /* \"#utility.yul\":970:992   */\n      add\n        /* \"#utility.yul\":949:1002   */\n      tag_65\n      jump\t// in\n    tag_116:\n        /* \"#utility.yul\":939:1002   */\n      swap2\n      pop\n        /* \"#utility.yul\":895:1012   */\n      pop\n        /* \"#utility.yul\":690:1019   */\n      swap3\n      swap2\n      pop\n      pop\n      jump\t// out\n        /* \"#utility.yul\":1025:1151   */\n    tag_66:\n        /* \"#utility.yul\":1062:1069   */\n      0x00\n        /* \"#utility.yul\":1102:1144   */\n      0xffffffffffffffffffffffffffffffffffffffff\n        /* \"#utility.yul\":1095:1100   */\n      dup3\n        /* \"#utility.yul\":1091:1145   */\n      and\n        /* \"#utility.yul\":1080:1145   */\n      swap1\n      pop\n        /* \"#utility.yul\":1025:1151   */\n      swap2\n      swap1\n      pop\n      jump\t// out\n        /* \"#utility.yul\":1157:1253   */\n    tag_67:\n        /* \"#utility.yul\":1194:1201   */\n      0x00\n        /* \"#utility.yul\":1223:1247   */\n      tag_119\n        /* \"#utility.yul\":1241:1246   */\n      dup3\n        /* \"#utility.yul\":1223:1247   */\n      tag_66\n      jump\t// in\n    tag_119:\n        /* \"#utility.yul\":1212:1247   */\n      swap1\n      pop\n        /* \"#utility.yul\":1157:1253   */\n      swap2\n      swap1\n      pop\n      jump\t// out\n        /* \"#utility.yul\":1259:1377   */\n    tag_68:\n        /* \"#utility.yul\":1346:1370   */\n      tag_121\n        /* \"#utility.yul\":1364:1369   */\n      dup2\n        /* \"#utility.yul\":1346:1370   */\n      tag_67\n      jump\t// in\n    tag_121:\n        /* \"#utility.yul\":1341:1344   */\n      dup3\n        /* \"#utility.yul\":1334:1371   */\n      mstore\n        /* \"#utility.yul\":1259:1377   */\n      pop\n      pop\n      jump\t// out\n        /* \"#utility.yul\":1383:1481   */\n    tag_69:\n        /* \"#utility.yul\":1434:1440   */\n      0x00\n        /* \"#utility.yul\":1468:1473   */\n      dup2\n        /* \"#utility.yul\":1462:1474   */\n      mload\n        /* \"#utility.yul\":1452:1474   */\n      swap1\n      pop\n        /* \"#utility.yul\":1383:1481   */\n      swap2\n      swap1\n      pop\n      jump\t// out\n        /* \"#utility.yul\":1487:1655   */\n    tag_70:\n        /* \"#utility.yul\":1570:1581   */\n      0x00\n        /* \"#utility.yul\":1604:1610   */\n      dup3\n        /* \"#utility.yul\":1599:1602   */\n      dup3\n        /* \"#utility.yul\":1592:1611   */\n      mstore\n        /* \"#utility.yul\":1644:1648   */\n      0x20\n        /* \"#utility.yul\":1639:1642   */\n      dup3\n        /* \"#utility.yul\":1635:1649   */\n      add\n        /* \"#utility.yul\":1620:1649   */\n      swap1\n      pop\n        /* \"#utility.yul\":1487:1655   */\n      swap3\n      swap2\n      pop\n      pop\n      jump\t// out\n        /* \"#utility.yul\":1661:1800   */\n    tag_71:\n        /* \"#utility.yul\":1750:1756   */\n      dup3\n        /* \"#utility.yul\":1745:1748   */\n      dup2\n        /* \"#utility.yul\":1740:1743   */\n      dup4\n        /* \"#utility.yul\":1734:1757   */\n      mcopy\n        /* \"#utility.yul\":1791:1792   */\n      0x00\n        /* \"#utility.yul\":1782:1788   */\n      dup4\n        /* \"#utility.yul\":1777:1780   */\n      dup4\n        /* \"#utility.yul\":1773:1789   */\n      add\n        /* \"#utility.yul\":1766:1793   */\n      mstore\n        /* \"#utility.yul\":1661:1800   */\n      pop\n      pop\n      pop\n      jump\t// out\n        /* \"#utility.yul\":1806:1908   */\n    tag_72:\n        /* \"#utility.yul\":1847:1853   */\n      0x00\n        /* \"#utility.yul\":1898:1900   */\n      0x1f\n        /* \"#utility.yul\":1894:1901   */\n      not\n        /* \"#utility.yul\":1889:1891   */\n      0x1f\n        /* \"#utility.yul\":1882:1887   */\n      dup4\n        /* \"#utility.yul\":1878:1892   */\n      add\n        /* \"#utility.yul\":1874:1902   */\n      and\n        /* \"#utility.yul\":1864:1902   */\n      swap1\n      pop\n        /* \"#utility.yul\":1806:1908   */\n      swap2\n      swap1\n      pop\n      jump\t// out\n        /* \"#utility.yul\":1914:2287   */\n    tag_73:\n        /* \"#utility.yul\":2000:2003   */\n      0x00\n        /* \"#utility.yul\":2028:2066   */\n      tag_127\n        /* \"#utility.yul\":2060:2065   */\n      dup3\n        /* \"#utility.yul\":2028:2066   */\n      tag_69\n      jump\t// in\n    tag_127:\n        /* \"#utility.yul\":2082:2152   */\n      tag_128\n        /* \"#utility.yul\":2145:2151   */\n      dup2\n        /* \"#utility.yul\":2140:2143   */\n      dup6\n        /* \"#utility.yul\":2082:2152   */\n      tag_70\n      jump\t// in\n    tag_128:\n        /* \"#utility.yul\":2075:2152   */\n      swap4\n      pop\n        /* \"#utility.yul\":2161:2226   */\n      tag_129\n        /* \"#utility.yul\":2219:2225   */\n      dup2\n        /* \"#utility.yul\":2214:2217   */\n      dup6\n        /* \"#utility.yul\":2207:2211   */\n      0x20\n        /* \"#utility.yul\":2200:2205   */\n      dup7\n        /* \"#utility.yul\":2196:2212   */\n      add\n        /* \"#utility.yul\":2161:2226   */\n      tag_71\n      jump\t// in\n    tag_129:\n        /* \"#utility.yul\":2251:2280   */\n      tag_130\n        /* \"#utility.yul\":2273:2279   */\n      dup2\n        /* \"#utility.yul\":2251:2280   */\n      tag_72\n      jump\t// in\n    tag_130:\n        /* \"#utility.yul\":2246:2249   */\n      dup5\n        /* \"#utility.yul\":2242:2281   */\n      add\n        /* \"#utility.yul\":2235:2281   */\n      swap2\n      pop\n        /* \"#utility.yul\":2004:2287   */\n      pop\n        /* \"#utility.yul\":1914:2287   */\n      swap3\n      swap2\n      pop\n      pop\n      jump\t// out\n        /* \"#utility.yul\":2293:2411   */\n    tag_74:\n        /* \"#utility.yul\":2380:2404   */\n      tag_132\n        /* \"#utility.yul\":2398:2403   */\n      dup2\n        /* \"#utility.yul\":2380:2404   */\n      tag_63\n      jump\t// in\n    tag_132:\n        /* \"#utility.yul\":2375:2378   */\n      dup3\n        /* \"#utility.yul\":2368:2405   */\n      mstore\n        /* \"#utility.yul\":2293:2411   */\n      pop\n      pop\n      jump\t// out\n        /* \"#utility.yul\":2417:3057   */\n    tag_11:\n        /* \"#utility.yul\":2612:2616   */\n      0x00\n        /* \"#utility.yul\":2650:2653   */\n      0x80\n        /* \"#utility.yul\":2639:2648   */\n      dup3\n        /* \"#utility.yul\":2635:2654   */\n      add\n        /* \"#utility.yul\":2627:2654   */\n      swap1\n      pop\n        /* \"#utility.yul\":2664:2735   */\n      tag_134\n        /* \"#utility.yul\":2732:2733   */\n      0x00\n        /* \"#utility.yul\":2721:2730   */\n      dup4\n        /* \"#utility.yul\":2717:2734   */\n      add\n        /* \"#utility.yul\":2708:2714   */\n      dup8\n        /* \"#utility.yul\":2664:2735   */\n      tag_68\n      jump\t// in\n    tag_134:\n        /* \"#utility.yul\":2782:2791   */\n      dup2\n        /* \"#utility.yul\":2776:2780   */\n      dup2\n        /* \"#utility.yul\":2772:2792   */\n      sub\n        /* \"#utility.yul\":2767:2769   */\n      0x20\n        /* \"#utility.yul\":2756:2765   */\n      dup4\n        /* \"#utility.yul\":2752:2770   */\n      add\n        /* \"#utility.yul\":2745:2793   */\n      mstore\n        /* \"#utility.yul\":2810:2886   */\n      tag_135\n        /* \"#utility.yul\":2881:2885   */\n      dup2\n        /* \"#utility.yul\":2872:2878   */\n      dup7\n        /* \"#utility.yul\":2810:2886   */\n      tag_73\n      jump\t// in\n    tag_135:\n        /* \"#utility.yul\":2802:2886   */\n      swap1\n      pop\n        /* \"#utility.yul\":2896:2968   */\n      tag_136\n        /* \"#utility.yul\":2964:2966   */\n      0x40\n        /* \"#utility.yul\":2953:2962   */\n      dup4\n        /* \"#utility.yul\":2949:2967   */\n      add\n        /* \"#utility.yul\":2940:2946   */\n      dup6\n        /* \"#utility.yul\":2896:2968   */\n      tag_74\n      jump\t// in\n    tag_136:\n        /* \"#utility.yul\":2978:3050   */\n      tag_137\n        /* \"#utility.yul\":3046:3048   */\n      0x60\n        /* \"#utility.yul\":3035:3044   */\n      dup4\n        /* \"#utility.yul\":3031:3049   */\n      add\n        /* \"#utility.yul\":3022:3028   */\n      dup5\n        /* \"#utility.yul\":2978:3050   */\n      tag_74\n      jump\t// in\n    tag_137:\n        /* \"#utility.yul\":2417:3057   */\n      swap6\n      swap5\n      pop\n      pop\n      pop\n      pop\n      pop\n      jump\t// out\n        /* \"#utility.yul\":3063:3153   */\n    tag_75:\n        /* \"#utility.yul\":3097:3104   */\n      0x00\n        /* \"#utility.yul\":3140:3145   */\n      dup2\n        /* \"#utility.yul\":3133:3146   */\n      iszero\n        /* \"#utility.yul\":3126:3147   */\n      iszero\n        /* \"#utility.yul\":3115:3147   */\n      swap1\n      pop\n        /* \"#utility.yul\":3063:3153   */\n      swap2\n      swap1\n      pop\n      jump\t// out\n        /* \"#utility.yul\":3159:3275   */\n    tag_76:\n        /* \"#utility.yul\":3229:3250   */\n      tag_140\n        /* \"#utility.yul\":3244:3249   */\n      dup2\n        /* \"#utility.yul\":3229:3250   */\n      tag_75\n      jump\t// in\n    tag_140:\n        /* \"#utility.yul\":3222:3227   */\n      dup2\n        /* \"#utility.yul\":3219:3251   */\n      eq\n        /* \"#utility.yul\":3209:3269   */\n      tag_141\n      jumpi\n        /* \"#utility.yul\":3265:3266   */\n      0x00\n        /* \"#utility.yul\":3262:3263   */\n      dup1\n        /* \"#utility.yul\":3255:3267   */\n      revert\n        /* \"#utility.yul\":3209:3269   */\n    tag_141:\n        /* \"#utility.yul\":3159:3275   */\n      pop\n      jump\t// out\n        /* \"#utility.yul\":3281:3414   */\n    tag_77:\n        /* \"#utility.yul\":3324:3329   */\n      0x00\n        /* \"#utility.yul\":3362:3368   */\n      dup2\n        /* \"#utility.yul\":3349:3369   */\n      calldataload\n        /* \"#utility.yul\":3340:3369   */\n      swap1\n      pop\n        /* \"#utility.yul\":3378:3408   */\n      tag_143\n        /* \"#utility.yul\":3402:3407   */\n      dup2\n        /* \"#utility.yul\":3378:3408   */\n      tag_76\n      jump\t// in\n    tag_143:\n        /* \"#utility.yul\":3281:3414   */\n      swap3\n      swap2\n      pop\n      pop\n      jump\t// out\n        /* \"#utility.yul\":3420:3888   */\n    tag_14:\n        /* \"#utility.yul\":3485:3491   */\n      0x00\n        /* \"#utility.yul\":3493:3499   */\n      dup1\n        /* \"#utility.yul\":3542:3544   */\n      0x40\n        /* \"#utility.yul\":3530:3539   */\n      dup4\n        /* \"#utility.yul\":3521:3528   */\n      dup6\n        /* \"#utility.yul\":3517:3540   */\n      sub\n        /* \"#utility.yul\":3513:3545   */\n      slt\n        /* \"#utility.yul\":3510:3629   */\n      iszero\n      tag_145\n      jumpi\n        /* \"#utility.yul\":3548:3627   */\n      tag_146\n      tag_61\n      jump\t// in\n    tag_146:\n        /* \"#utility.yul\":3510:3629   */\n    tag_145:\n        /* \"#utility.yul\":3668:3669   */\n      0x00\n        /* \"#utility.yul\":3693:3746   */\n      tag_147\n        /* \"#utility.yul\":3738:3745   */\n      dup6\n        /* \"#utility.yul\":3729:3735   */\n      dup3\n        /* \"#utility.yul\":3718:3727   */\n      dup7\n        /* \"#utility.yul\":3714:3736   */\n      add\n        /* \"#utility.yul\":3693:3746   */\n      tag_65\n      jump\t// in\n    tag_147:\n        /* \"#utility.yul\":3683:3746   */\n      swap3\n      pop\n        /* \"#utility.yul\":3639:3756   */\n      pop\n        /* \"#utility.yul\":3795:3797   */\n      0x20\n        /* \"#utility.yul\":3821:3871   */\n      tag_148\n        /* \"#utility.yul\":3863:3870   */\n      dup6\n        /* \"#utility.yul\":3854:3860   */\n      dup3\n        /* \"#utility.yul\":3843:3852   */\n      dup7\n        /* \"#utility.yul\":3839:3861   */\n      add\n        /* \"#utility.yul\":3821:3871   */\n      tag_77\n      jump\t// in\n    tag_148:\n        /* \"#utility.yul\":3811:3871   */\n      swap2\n      pop\n        /* \"#utility.yul\":3766:3881   */\n      pop\n        /* \"#utility.yul\":3420:3888   */\n      swap3\n      pop\n      swap3\n      swap1\n      pop\n      jump\t// out\n        /* \"#utility.yul\":3894:4016   */\n    tag_78:\n        /* \"#utility.yul\":3967:3991   */\n      tag_150\n        /* \"#utility.yul\":3985:3990   */\n      dup2\n        /* \"#utility.yul\":3967:3991   */\n      tag_67\n      jump\t// in\n    tag_150:\n        /* \"#utility.yul\":3960:3965   */\n      dup2\n        /* \"#utility.yul\":3957:3992   */\n      eq\n        /* \"#utility.yul\":3947:4010   */\n      tag_151\n      jumpi\n        /* \"#utility.yul\":4006:4007   */\n      0x00\n        /* \"#utility.yul\":4003:4004   */\n      dup1\n        /* \"#utility.yul\":3996:4008   */\n      revert\n        /* \"#utility.yul\":3947:4010   */\n    tag_151:\n        /* \"#utility.yul\":3894:4016   */\n      pop\n      jump\t// out\n        /* \"#utility.yul\":4022:4161   */\n    tag_79:\n        /* \"#utility.yul\":4068:4073   */\n      0x00\n        /* \"#utility.yul\":4106:4112   */\n      dup2\n        /* \"#utility.yul\":4093:4113   */\n      calldataload\n        /* \"#utility.yul\":4084:4113   */\n      swap1\n      pop\n        /* \"#utility.yul\":4122:4155   */\n      tag_153\n        /* \"#utility.yul\":4149:4154   */\n      dup2\n        /* \"#utility.yul\":4122:4155   */\n      tag_78\n      jump\t// in\n    tag_153:\n        /* \"#utility.yul\":4022:4161   */\n      swap3\n      swap2\n      pop\n      pop\n      jump\t// out\n        /* \"#utility.yul\":4167:4284   */\n    tag_80:\n        /* \"#utility.yul\":4276:4277   */\n      0x00\n        /* \"#utility.yul\":4273:4274   */\n      dup1\n        /* \"#utility.yul\":4266:4278   */\n      revert\n        /* \"#utility.yul\":4290:4407   */\n    tag_81:\n        /* \"#utility.yul\":4399:4400   */\n      0x00\n        /* \"#utility.yul\":4396:4397   */\n      dup1\n        /* \"#utility.yul\":4389:4401   */\n      revert\n        /* \"#utility.yul\":4413:4530   */\n    tag_82:\n        /* \"#utility.yul\":4522:4523   */\n      0x00\n        /* \"#utility.yul\":4519:4520   */\n      dup1\n        /* \"#utility.yul\":4512:4524   */\n      revert\n        /* \"#utility.yul\":4549:5101   */\n    tag_83:\n        /* \"#utility.yul\":4606:4614   */\n      0x00\n        /* \"#utility.yul\":4616:4622   */\n      dup1\n        /* \"#utility.yul\":4666:4669   */\n      dup4\n        /* \"#utility.yul\":4659:4663   */\n      0x1f\n        /* \"#utility.yul\":4651:4657   */\n      dup5\n        /* \"#utility.yul\":4647:4664   */\n      add\n        /* \"#utility.yul\":4643:4670   */\n      slt\n        /* \"#utility.yul\":4633:4755   */\n      tag_158\n      jumpi\n        /* \"#utility.yul\":4674:4753   */\n      tag_159\n      tag_80\n      jump\t// in\n    tag_159:\n        /* \"#utility.yul\":4633:4755   */\n    tag_158:\n        /* \"#utility.yul\":4787:4793   */\n      dup3\n        /* \"#utility.yul\":4774:4794   */\n      calldataload\n        /* \"#utility.yul\":4764:4794   */\n      swap1\n      pop\n        /* \"#utility.yul\":4817:4835   */\n      0xffffffffffffffff\n        /* \"#utility.yul\":4809:4815   */\n      dup2\n        /* \"#utility.yul\":4806:4836   */\n      gt\n        /* \"#utility.yul\":4803:4920   */\n      iszero\n      tag_160\n      jumpi\n        /* \"#utility.yul\":4839:4918   */\n      tag_161\n      tag_81\n      jump\t// in\n    tag_161:\n        /* \"#utility.yul\":4803:4920   */\n    tag_160:\n        /* \"#utility.yul\":4953:4957   */\n      0x20\n        /* \"#utility.yul\":4945:4951   */\n      dup4\n        /* \"#utility.yul\":4941:4958   */\n      add\n        /* \"#utility.yul\":4929:4958   */\n      swap2\n      pop\n        /* \"#utility.yul\":5007:5010   */\n      dup4\n        /* \"#utility.yul\":4999:5003   */\n      0x01\n        /* \"#utility.yul\":4991:4997   */\n      dup3\n        /* \"#utility.yul\":4987:5004   */\n      mul\n        /* \"#utility.yul\":4977:4985   */\n      dup4\n        /* \"#utility.yul\":4973:5005   */\n      add\n        /* \"#utility.yul\":4970:5011   */\n      gt\n        /* \"#utility.yul\":4967:5095   */\n      iszero\n      tag_162\n      jumpi\n        /* \"#utility.yul\":5014:5093   */\n      tag_163\n      tag_82\n      jump\t// in\n    tag_163:\n        /* \"#utility.yul\":4967:5095   */\n    tag_162:\n        /* \"#utility.yul\":4549:5101   */\n      swap3\n      pop\n      swap3\n      swap1\n      pop\n      jump\t// out\n        /* \"#utility.yul\":5107:5779   */\n    tag_18:\n        /* \"#utility.yul\":5186:5192   */\n      0x00\n        /* \"#utility.yul\":5194:5200   */\n      dup1\n        /* \"#utility.yul\":5202:5208   */\n      0x00\n        /* \"#utility.yul\":5251:5253   */\n      0x40\n        /* \"#utility.yul\":5239:5248   */\n      dup5\n        /* \"#utility.yul\":5230:5237   */\n      dup7\n        /* \"#utility.yul\":5226:5249   */\n      sub\n        /* \"#utility.yul\":5222:5254   */\n      slt\n        /* \"#utility.yul\":5219:5338   */\n      iszero\n      tag_165\n      jumpi\n        /* \"#utility.yul\":5257:5336   */\n      tag_166\n      tag_61\n      jump\t// in\n    tag_166:\n        /* \"#utility.yul\":5219:5338   */\n    tag_165:\n        /* \"#utility.yul\":5377:5378   */\n      0x00\n        /* \"#utility.yul\":5402:5455   */\n      tag_167\n        /* \"#utility.yul\":5447:5454   */\n      dup7\n        /* \"#utility.yul\":5438:5444   */\n      dup3\n        /* \"#utility.yul\":5427:5436   */\n      dup8\n        /* \"#utility.yul\":5423:5445   */\n      add\n        /* \"#utility.yul\":5402:5455   */\n      tag_79\n      jump\t// in\n    tag_167:\n        /* \"#utility.yul\":5392:5455   */\n      swap4\n      pop\n        /* \"#utility.yul\":5348:5465   */\n      pop\n        /* \"#utility.yul\":5532:5534   */\n      0x20\n        /* \"#utility.yul\":5521:5530   */\n      dup5\n        /* \"#utility.yul\":5517:5535   */\n      add\n        /* \"#utility.yul\":5504:5536   */\n      calldataload\n        /* \"#utility.yul\":5563:5581   */\n      0xffffffffffffffff\n        /* \"#utility.yul\":5555:5561   */\n      dup2\n        /* \"#utility.yul\":5552:5582   */\n      gt\n        /* \"#utility.yul\":5549:5666   */\n      iszero\n      tag_168\n      jumpi\n        /* \"#utility.yul\":5585:5664   */\n      tag_169\n      tag_62\n      jump\t// in\n    tag_169:\n        /* \"#utility.yul\":5549:5666   */\n    tag_168:\n        /* \"#utility.yul\":5698:5762   */\n      tag_170\n        /* \"#utility.yul\":5754:5761   */\n      dup7\n        /* \"#utility.yul\":5745:5751   */\n      dup3\n        /* \"#utility.yul\":5734:5743   */\n      dup8\n        /* \"#utility.yul\":5730:5752   */\n      add\n        /* \"#utility.yul\":5698:5762   */\n      tag_83\n      jump\t// in\n    tag_170:\n        /* \"#utility.yul\":5680:5762   */\n      swap3\n      pop\n      swap3\n      pop\n        /* \"#utility.yul\":5475:5772   */\n      pop\n        /* \"#utility.yul\":5107:5779   */\n      swap3\n      pop\n      swap3\n      pop\n      swap3\n      jump\t// out\n        /* \"#utility.yul\":5785:5965   */\n    tag_84:\n        /* \"#utility.yul\":5833:5910   */\n      0x4e487b7100000000000000000000000000000000000000000000000000000000\n        /* \"#utility.yul\":5830:5831   */\n      0x00\n        /* \"#utility.yul\":5823:5911   */\n      mstore\n        /* \"#utility.yul\":5930:5934   */\n      0x22\n        /* \"#utility.yul\":5927:5928   */\n      0x04\n        /* \"#utility.yul\":5920:5935   */\n      mstore\n        /* \"#utility.yul\":5954:5958   */\n      0x24\n        /* \"#utility.yul\":5951:5952   */\n      0x00\n        /* \"#utility.yul\":5944:5959   */\n      revert\n        /* \"#utility.yul\":5971:6291   */\n    tag_23:\n        /* \"#utility.yul\":6015:6021   */\n      0x00\n        /* \"#utility.yul\":6052:6053   */\n      0x02\n        /* \"#utility.yul\":6046:6050   */\n      dup3\n        /* \"#utility.yul\":6042:6054   */\n      div\n        /* \"#utility.yul\":6032:6054   */\n      swap1\n      pop\n        /* \"#utility.yul\":6099:6100   */\n      0x01\n        /* \"#utility.yul\":6093:6097   */\n      dup3\n        /* \"#utility.yul\":6089:6101   */\n      and\n        /* \"#utility.yul\":6120:6138   */\n      dup1\n        /* \"#utility.yul\":6110:6191   */\n      tag_173\n      jumpi\n        /* \"#utility.yul\":6176:6180   */\n      0x7f\n        /* \"#utility.yul\":6168:6174   */\n      dup3\n        /* \"#utility.yul\":6164:6181   */\n      and\n        /* \"#utility.yul\":6154:6181   */\n      swap2\n      pop\n        /* \"#utility.yul\":6110:6191   */\n    tag_173:\n        /* \"#utility.yul\":6238:6240   */\n      0x20\n        /* \"#utility.yul\":6230:6236   */\n      dup3\n        /* \"#utility.yul\":6227:6241   */\n      lt\n        /* \"#utility.yul\":6207:6225   */\n      dup2\n        /* \"#utility.yul\":6204:6242   */\n      sub\n        /* \"#utility.yul\":6201:6285   */\n      tag_174\n      jumpi\n        /* \"#utility.yul\":6257:6275   */\n      tag_175\n      tag_84\n      jump\t// in\n    tag_175:\n        /* \"#utility.yul\":6201:6285   */\n    tag_174:\n        /* \"#utility.yul\":6022:6291   */\n      pop\n        /* \"#utility.yul\":5971:6291   */\n      swap2\n      swap1\n      pop\n      jump\t// out\n        /* \"#utility.yul\":6297:6477   */\n    tag_31:\n        /* \"#utility.yul\":6345:6422   */\n      0x4e487b7100000000000000000000000000000000000000000000000000000000\n        /* \"#utility.yul\":6342:6343   */\n      0x00\n        /* \"#utility.yul\":6335:6423   */\n      mstore\n        /* \"#utility.yul\":6442:6446   */\n      0x32\n        /* \"#utility.yul\":6439:6440   */\n      0x04\n        /* \"#utility.yul\":6432:6447   */\n      mstore\n        /* \"#utility.yul\":6466:6470   */\n      0x24\n        /* \"#utility.yul\":6463:6464   */\n      0x00\n        /* \"#utility.yul\":6456:6471   */\n      revert\n        /* \"#utility.yul\":6483:6663   */\n    tag_35:\n        /* \"#utility.yul\":6531:6608   */\n      0x4e487b7100000000000000000000000000000000000000000000000000000000\n        /* \"#utility.yul\":6528:6529   */\n      0x00\n        /* \"#utility.yul\":6521:6609   */\n      mstore\n        /* \"#utility.yul\":6628:6632   */\n      0x21\n        /* \"#utility.yul\":6625:6626   */\n      0x04\n        /* \"#utility.yul\":6618:6633   */\n      mstore\n        /* \"#utility.yul\":6652:6656   */\n      0x24\n        /* \"#utility.yul\":6649:6650   */\n      0x00\n        /* \"#utility.yul\":6642:6657   */\n      revert\n        /* \"#utility.yul\":6669:6849   */\n    tag_85:\n        /* \"#utility.yul\":6717:6794   */\n      0x4e487b7100000000000000000000000000000000000000000000000000000000\n        /* \"#utility.yul\":6714:6715   */\n      0x00\n        /* \"#utility.yul\":6707:6795   */\n      mstore\n        /* \"#utility.yul\":6814:6818   */\n      0x11\n        /* \"#utility.yul\":6811:6812   */\n      0x04\n        /* \"#utility.yul\":6804:6819   */\n      mstore\n        /* \"#utility.yul\":6838:6842   */\n      0x24\n        /* \"#utility.yul\":6835:6836   */\n      0x00\n        /* \"#utility.yul\":6828:6843   */\n      revert\n        /* \"#utility.yul\":6855:7026   */\n    tag_40:\n        /* \"#utility.yul\":6894:6897   */\n      0x00\n        /* \"#utility.yul\":6917:6941   */\n      tag_180\n        /* \"#utility.yul\":6935:6940   */\n      dup3\n        /* \"#utility.yul\":6917:6941   */\n      tag_63\n      jump\t// in\n    tag_180:\n        /* \"#utility.yul\":6908:6941   */\n      swap2\n      pop\n        /* \"#utility.yul\":6963:6967   */\n      0x00\n        /* \"#utility.yul\":6956:6961   */\n      dup3\n        /* \"#utility.yul\":6953:6968   */\n      sub\n        /* \"#utility.yul\":6950:6991   */\n      tag_181\n      jumpi\n        /* \"#utility.yul\":6971:6989   */\n      tag_182\n      tag_85\n      jump\t// in\n    tag_182:\n        /* \"#utility.yul\":6950:6991   */\n    tag_181:\n        /* \"#utility.yul\":7018:7019   */\n      0x01\n        /* \"#utility.yul\":7011:7016   */\n      dup3\n        /* \"#utility.yul\":7007:7020   */\n      sub\n        /* \"#utility.yul\":7000:7020   */\n      swap1\n      pop\n        /* \"#utility.yul\":6855:7026   */\n      swap2\n      swap1\n      pop\n      jump\t// out\n        /* \"#utility.yul\":7032:7265   */\n    tag_49:\n        /* \"#utility.yul\":7071:7074   */\n      0x00\n        /* \"#utility.yul\":7094:7118   */\n      tag_184\n        /* \"#utility.yul\":7112:7117   */\n      dup3\n        /* \"#utility.yul\":7094:7118   */\n      tag_63\n      jump\t// in\n    tag_184:\n        /* \"#utility.yul\":7085:7118   */\n      swap2\n      pop\n        /* \"#utility.yul\":7140:7206   */\n      0xffffffffffffffffffffffffffffffffffffffffffffffffffffffffffffffff\n        /* \"#utility.yul\":7133:7138   */\n      dup3\n        /* \"#utility.yul\":7130:7207   */\n      sub\n        /* \"#utility.yul\":7127:7230   */\n      tag_185\n      jumpi\n        /* \"#utility.yul\":7210:7228   */\n      tag_186\n      tag_85\n      jump\t// in\n    tag_186:\n        /* \"#utility.yul\":7127:7230   */\n    tag_185:\n        /* \"#utility.yul\":7257:7258   */\n      0x01\n        /* \"#utility.yul\":7250:7255   */\n      dup3\n        /* \"#utility.yul\":7246:7259   */\n      add\n        /* \"#utility.yul\":7239:7259   */\n      swap1\n      pop\n        /* \"#utility.yul\":7032:7265   */\n      swap2\n      swap1\n      pop\n      jump\t// out\n        /* \"#utility.yul\":7271:7367   */\n    tag_86:\n        /* \"#utility.yul\":7329:7335   */\n      0x00\n        /* \"#utility.yul\":7357:7360   */\n      dup3\n        /* \"#utility.yul\":7347:7360   */\n      swap1\n      pop\n        /* \"#utility.yul\":7271:7367   */\n      swap3\n      swap2\n      pop\n      pop\n      jump\t// out\n        /* \"#utility.yul\":7373:7553   */\n    tag_87:\n        /* \"#utility.yul\":7421:7498   */\n      0x4e487b7100000000000000000000000000000000000000000000000000000000\n        /* \"#utility.yul\":7418:7419   */\n      0x00\n        /* \"#utility.yul\":7411:7499   */\n      mstore\n        /* \"#utility.yul\":7518:7522   */\n      0x41\n        /* \"#utility.yul\":7515:7516   */\n      0x04\n        /* \"#utility.yul\":7508:7523   */\n      mstore\n        /* \"#utility.yul\":7542:7546   */\n      0x24\n        /* \"#utility.yul\":7539:7540   */\n      0x00\n        /* \"#utility.yul\":7532:7547   */\n      revert\n        /* \"#utility.yul\":7559:7699   */\n    tag_88:\n        /* \"#utility.yul\":7607:7611   */\n      0x00\n        /* \"#utility.yul\":7630:7633   */\n      dup2\n        /* \"#utility.yul\":7622:7633   */\n      swap1\n      pop\n        /* \"#utility.yul\":7653:7656   */\n      dup2\n        /* \"#utility.yul\":7650:7651   */\n      0x00\n        /* \"#utility.yul\":7643:7657   */\n      mstore\n        /* \"#utility.yul\":7687:7691   */\n      0x20\n        /* \"#utility.yul\":7684:7685   */\n      0x00\n        /* \"#utility.yul\":7674:7692   */\n      keccak256\n        /* \"#utility.yul\":7666:7692   */\n      swap1\n      pop\n        /* \"#utility.yul\":7559:7699   */\n      swap2\n      swap1\n      pop\n      jump\t// out\n        /* \"#utility.yul\":7705:7798   */\n    tag_89:\n        /* \"#utility.yul\":7742:7748   */\n      0x00\n        /* \"#utility.yul\":7789:7791   */\n      0x20\n        /* \"#utility.yul\":7784:7786   */\n      0x1f\n        /* \"#utility.yul\":7777:7782   */\n      dup4\n        /* \"#utility.yul\":7773:7787   */\n      add\n        /* \"#utility.yul\":7769:7792   */\n      div\n        /* \"#utility.yul\":7759:7792   */\n      swap1\n      pop\n        /* \"#utility.yul\":7705:7798   */\n      swap2\n      swap1\n      pop\n      jump\t// out\n        /* \"#utility.yul\":7804:7911   */\n    tag_90:\n        /* \"#utility.yul\":7848:7856   */\n      0x00\n        /* \"#utility.yul\":7898:7903   */\n      dup3\n        /* \"#utility.yul\":7892:7896   */\n      dup3\n        /* \"#utility.yul\":7888:7904   */\n      shl\n        /* \"#utility.yul\":7867:7904   */\n      swap1\n      pop\n        /* \"#utility.yul\":7804:7911   */\n      swap3\n      swap2\n      pop\n      pop\n      jump\t// out\n        /* \"#utility.yul\":7917:8310   */\n    tag_91:\n        /* \"#utility.yul\":7986:7992   */\n      0x00\n        /* \"#utility.yul\":8036:8037   */\n      0x08\n        /* \"#utility.yul\":8024:8034   */\n      dup4\n        /* \"#utility.yul\":8020:8038   */\n      mul\n        /* \"#utility.yul\":8059:8156   */\n      tag_193\n        /* \"#utility.yul\":8089:8155   */\n      0xffffffffffffffffffffffffffffffffffffffffffffffffffffffffffffffff\n        /* \"#utility.yul\":8078:8087   */\n      dup3\n        /* \"#utility.yul\":8059:8156   */\n      tag_90\n      jump\t// in\n    tag_193:\n        /* \"#utility.yul\":8177:8216   */\n      tag_194\n        /* \"#utility.yul\":8207:8215   */\n      dup7\n        /* \"#utility.yul\":8196:8205   */\n      dup4\n        /* \"#utility.yul\":8177:8216   */\n      tag_90\n      jump\t// in\n    tag_194:\n        /* \"#utility.yul\":8165:8216   */\n      swap6\n      pop\n        /* \"#utility.yul\":8249:8253   */\n      dup1\n        /* \"#utility.yul\":8245:8254   */\n      not\n        /* \"#utility.yul\":8238:8243   */\n      dup5\n        /* \"#utility.yul\":8234:8255   */\n      and\n        /* \"#utility.yul\":8225:8255   */\n      swap4\n      pop\n        /* \"#utility.yul\":8298:8302   */\n      dup1\n        /* \"#utility.yul\":8288:8296   */\n      dup7\n        /* \"#utility.yul\":8284:8303   */\n      and\n        /* \"#utility.yul\":8277:8282   */\n      dup5\n        /* \"#utility.yul\":8274:8304   */\n      or\n        /* \"#utility.yul\":8264:8304   */\n      swap3\n      pop\n        /* \"#utility.yul\":7993:8310   */\n      pop\n      pop\n        /* \"#utility.yul\":7917:8310   */\n      swap4\n      swap3\n      pop\n      pop\n      pop\n      jump\t// out\n        /* \"#utility.yul\":8316:8376   */\n    tag_92:\n        /* \"#utility.yul\":8344:8347   */\n      0x00\n        /* \"#utility.yul\":8365:8370   */\n      dup2\n        /* \"#utility.yul\":8358:8370   */\n      swap1\n      pop\n        /* \"#utility.yul\":8316:8376   */\n      swap2\n      swap1\n      pop\n      jump\t// out\n        /* \"#utility.yul\":8382:8524   */\n    tag_93:\n        /* \"#utility.yul\":8432:8441   */\n      0x00\n        /* \"#utility.yul\":8465:8518   */\n      tag_197\n        /* \"#utility.yul\":8483:8517   */\n      tag_198\n        /* \"#utility.yul\":8492:8516   */\n      tag_199\n        /* \"#utility.yul\":8510:8515   */\n      dup5\n        /* \"#utility.yul\":8492:8516   */\n      tag_63\n      jump\t// in\n    tag_199:\n        /* \"#utility.yul\":8483:8517   */\n      tag_92\n      jump\t// in\n    tag_198:\n        /* \"#utility.yul\":8465:8518   */\n      tag_63\n      jump\t// in\n    tag_197:\n        /* \"#utility.yul\":8452:8518   */\n      swap1\n      pop\n        /* \"#utility.yul\":8382:8524   */\n      swap2\n      swap1\n      pop\n      jump\t// out\n        /* \"#utility.yul\":8530:8605   */\n    tag_94:\n        /* \"#utility.yul\":8573:8576   */\n      0x00\n        /* \"#utility.yul\":8594:8599   */\n      dup2\n        /* \"#utility.yul\":8587:8599   */\n      swap1\n      pop\n        /* \"#utility.yul\":8530:8605   */\n      swap2\n      swap1\n      pop\n      jump\t// out\n        /* \"#utility.yul\":8611:8880   */\n    tag_95:\n        /* \"#utility.yul\":8721:8760   */\n      tag_202\n        /* \"#utility.yul\":8752:8759   */\n      dup4\n        /* \"#utility.yul\":8721:8760   */\n      tag_93\n      jump\t// in\n    tag_202:\n        /* \"#utility.yul\":8782:8873   */\n      tag_203\n        /* \"#utility.yul\":8831:8872   */\n      tag_204\n        /* \"#utility.yul\":8855:8871   */\n      dup3\n        /* \"#utility.yul\":8831:8872   */\n      tag_94\n      jump\t// in\n    tag_204:\n        /* \"#utility.yul\":8823:8829   */\n      dup5\n        /* \"#utility.yul\":8816:8820   */\n      dup5\n        /* \"#utility.yul\":8810:8821   */\n      sload\n        /* \"#utility.yul\":8782:8873   */\n      tag_91\n      jump\t// in\n    tag_203:\n        /* \"#utility.yul\":8776:8780   */\n      dup3\n        /* \"#utility.yul\":8769:8874   */\n      sstore\n        /* \"#utility.yul\":8687:8880   */\n      pop\n        /* \"#utility.yul\":8611:8880   */\n      pop\n      pop\n      pop\n      jump\t// out\n        /* \"#utility.yul\":8886:8959   */\n    tag_96:\n        /* \"#utility.yul\":8931:8934   */\n      0x00\n        /* \"#utility.yul\":8886:8959   */\n      swap1\n      jump\t// out\n        /* \"#utility.yul\":8965:9154   */\n    tag_97:\n        /* \"#utility.yul\":9042:9074   */\n      tag_207\n      tag_96\n      jump\t// in\n    tag_207:\n        /* \"#utility.yul\":9083:9148   */\n      tag_208\n        /* \"#utility.yul\":9141:9147   */\n      dup2\n        /* \"#utility.yul\":9133:9139   */\n      dup5\n        /* \"#utility.yul\":9127:9131   */\n      dup5\n        /* \"#utility.yul\":9083:9148   */\n      tag_95\n      jump\t// in\n    tag_208:\n        /* \"#utility.yul\":9018:9154   */\n      pop\n        /* \"#utility.yul\":8965:9154   */\n      pop\n      pop\n      jump\t// out\n        /* \"#utility.yul\":9160:9346   */\n    tag_98:\n        /* \"#utility.yul\":9220:9340   */\n    tag_210:\n        /* \"#utility.yul\":9237:9240   */\n      dup2\n        /* \"#utility.yul\":9230:9235   */\n      dup2\n        /* \"#utility.yul\":9227:9241   */\n      lt\n        /* \"#utility.yul\":9220:9340   */\n      iszero\n      tag_212\n      jumpi\n        /* \"#utility.yul\":9291:9330   */\n      tag_213\n        /* \"#utility.yul\":9328:9329   */\n      0x00\n        /* \"#utility.yul\":9321:9326   */\n      dup3\n        /* \"#utility.yul\":9291:9330   */\n      tag_97\n      jump\t// in\n    tag_213:\n        /* \"#utility.yul\":9264:9265   */\n      0x01\n        /* \"#utility.yul\":9257:9262   */\n      dup2\n        /* \"#utility.yul\":9253:9266   */\n      add\n        /* \"#utility.yul\":9244:9266   */\n      swap1\n      pop\n        /* \"#utility.yul\":9220:9340   */\n      jump(tag_210)\n    tag_212:\n        /* \"#utility.yul\":9160:9346   */\n      pop\n      pop\n      jump\t// out\n        /* \"#utility.yul\":9352:9893   */\n    tag_99:\n        /* \"#utility.yul\":9452:9454   */\n      0x1f\n        /* \"#utility.yul\":9447:9450   */\n      dup3\n        /* \"#utility.yul\":9444:9455   */\n      gt\n        /* \"#utility.yul\":9441:9886   */\n      iszero\n      tag_215\n      jumpi\n        /* \"#utility.yul\":9486:9523   */\n      tag_216\n        /* \"#utility.yul\":9517:9522   */\n      dup2\n        /* \"#utility.yul\":9486:9523   */\n      tag_88\n      jump\t// in\n    tag_216:\n        /* \"#utility.yul\":9569:9598   */\n      tag_217\n        /* \"#utility.yul\":9587:9597   */\n      dup5\n        /* \"#utility.yul\":9569:9598   */\n      tag_89\n      jump\t// in\n    tag_217:\n        /* \"#utility.yul\":9559:9567   */\n      dup2\n        /* \"#utility.yul\":9555:9599   */\n      add\n        /* \"#utility.yul\":9752:9754   */\n      0x20\n        /* \"#utility.yul\":9740:9750   */\n      dup6\n        /* \"#utility.yul\":9737:9755   */\n      lt\n        /* \"#utility.yul\":9734:9783   */\n      iszero\n      tag_218\n      jumpi\n        /* \"#utility.yul\":9773:9781   */\n      dup2\n        /* \"#utility.yul\":9758:9781   */\n      swap1\n      pop\n        /* \"#utility.yul\":9734:9783   */\n    tag_218:\n        /* \"#utility.yul\":9796:9876   */\n      tag_219\n        /* \"#utility.yul\":9852:9874   */\n      tag_220\n        /* \"#utility.yul\":9870:9873   */\n      dup6\n        /* \"#utility.yul\":9852:9874   */\n      tag_89\n      jump\t// in\n    tag_220:\n        /* \"#utility.yul\":9842:9850   */\n      dup4\n        /* \"#utility.yul\":9838:9875   */\n      add\n        /* \"#utility.yul\":9825:9836   */\n      dup3\n        /* \"#utility.yul\":9796:9876   */\n      tag_98\n      jump\t// in\n    tag_219:\n        /* \"#utility.yul\":9456:9886   */\n      pop\n      pop\n        /* \"#utility.yul\":9441:9886   */\n    tag_215:\n        /* \"#utility.yul\":9352:9893   */\n      pop\n      pop\n      pop\n      jump\t// out\n        /* \"#utility.yul\":9899:10016   */\n    tag_100:\n        /* \"#utility.yul\":9953:9961   */\n      0x00\n        /* \"#utility.yul\":10003:10008   */\n      dup3\n        /* \"#utility.yul\":9997:10001   */\n      dup3\n        /* \"#utility.yul\":9993:10009   */\n      shr\n        /* \"#utility.yul\":9972:10009   */\n      swap1\n      pop\n        /* \"#utility.yul\":9899:10016   */\n      swap3\n      swap2\n      pop\n      pop\n      jump\t// out\n        /* \"#utility.yul\":10022:10191   */\n    tag_101:\n        /* \"#utility.yul\":10066:10072   */\n      0x00\n        /* \"#utility.yul\":10099:10150   */\n      tag_223\n        /* \"#utility.yul\":10147:10148   */\n      0x00\n        /* \"#utility.yul\":10143:10149   */\n      not\n        /* \"#utility.yul\":10135:10140   */\n      dup5\n        /* \"#utility.yul\":10132:10133   */\n      0x08\n        /* \"#utility.yul\":10128:10141   */\n      mul\n        /* \"#utility.yul\":10099:10150   */\n      tag_100\n      jump\t// in\n    tag_223:\n        /* \"#utility.yul\":10095:10151   */\n      not\n        /* \"#utility.yul\":10180:10184   */\n      dup1\n        /* \"#utility.yul\":10174:10178   */\n      dup4\n        /* \"#utility.yul\":10170:10185   */\n      and\n        /* \"#utility.yul\":10160:10185   */\n      swap2\n      pop\n        /* \"#utility.yul\":10073:10191   */\n      pop\n        /* \"#utility.yul\":10022:10191   */\n      swap3\n      swap2\n      pop\n      pop\n      jump\t// out\n        /* \"#utility.yul\":10196:10491   */\n    tag_102:\n        /* \"#utility.yul\":10272:10276   */\n      0x00\n        /* \"#utility.yul\":10418:10447   */\n      tag_225\n        /* \"#utility.yul\":10443:10446   */\n      dup4\n        /* \"#utility.yul\":10437:10441   */\n      dup4\n        /* \"#utility.yul\":10418:10447   */\n      tag_101\n      jump\t// in\n    tag_225:\n        /* \"#utility.yul\":10410:10447   */\n      swap2\n      pop\n        /* \"#utility.yul\":10480:10483   */\n      dup3\n        /* \"#utility.yul\":10477:10478   */\n      0x02\n        /* \"#utility.yul\":10473:10484   */\n      mul\n        /* \"#utility.yul\":10467:10471   */\n      dup3\n        /* \"#utility.yul\":10464:10485   */\n      or\n        /* \"#utility.yul\":10456:10485   */\n      swap1\n      pop\n        /* \"#utility.yul\":10196:10491   */\n      swap3\n      swap2\n      pop\n      pop\n      jump\t// out\n        /* \"#utility.yul\":10496:11894   */\n    tag_59:\n        /* \"#utility.yul\":10618:10661   */\n      tag_227\n        /* \"#utility.yul\":10657:10660   */\n      dup4\n        /* \"#utility.yul\":10652:10655   */\n      dup4\n        /* \"#utility.yul\":10618:10661   */\n      tag_86\n      jump\t// in\n    tag_227:\n        /* \"#utility.yul\":10726:10744   */\n      0xffffffffffffffff\n        /* \"#utility.yul\":10718:10724   */\n      dup2\n        /* \"#utility.yul\":10715:10745   */\n      gt\n        /* \"#utility.yul\":10712:10768   */\n      iszero\n      tag_228\n      jumpi\n        /* \"#utility.yul\":10748:10766   */\n      tag_229\n      tag_87\n      jump\t// in\n    tag_229:\n        /* \"#utility.yul\":10712:10768   */\n    tag_228:\n        /* \"#utility.yul\":10792:10830   */\n      tag_230\n        /* \"#utility.yul\":10824:10828   */\n      dup3\n        /* \"#utility.yul\":10818:10829   */\n      sload\n        /* \"#utility.yul\":10792:10830   */\n      tag_23\n      jump\t// in\n    tag_230:\n        /* \"#utility.yul\":10877:10943   */\n      tag_231\n        /* \"#utility.yul\":10936:10942   */\n      dup3\n        /* \"#utility.yul\":10928:10934   */\n      dup3\n        /* \"#utility.yul\":10922:10926   */\n      dup6\n        /* \"#utility.yul\":10877:10943   */\n      tag_99\n      jump\t// in\n    tag_231:\n        /* \"#utility.yul\":10970:10971   */\n      0x00\n        /* \"#utility.yul\":10999:11001   */\n      0x1f\n        /* \"#utility.yul\":10991:10997   */\n      dup4\n        /* \"#utility.yul\":10988:11002   */\n      gt\n        /* \"#utility.yul\":11016:11017   */\n      0x01\n        /* \"#utility.yul\":11011:11642   */\n      dup2\n      eq\n      tag_233\n      jumpi\n        /* \"#utility.yul\":11686:11687   */\n      0x00\n        /* \"#utility.yul\":11703:11709   */\n      dup5\n        /* \"#utility.yul\":11700:11784   */\n      iszero\n      tag_234\n      jumpi\n        /* \"#utility.yul\":11759:11768   */\n      dup3\n        /* \"#utility.yul\":11754:11757   */\n      dup8\n        /* \"#utility.yul\":11750:11769   */\n      add\n        /* \"#utility.yul\":11737:11770   */\n      calldataload\n        /* \"#utility.yul\":11728:11770   */\n      swap1\n      pop\n        /* \"#utility.yul\":11700:11784   */\n    tag_234:\n        /* \"#utility.yul\":11810:11877   */\n      tag_235\n        /* \"#utility.yul\":11870:11876   */\n      dup6\n        /* \"#utility.yul\":11863:11868   */\n      dup3\n        /* \"#utility.yul\":11810:11877   */\n      tag_102\n      jump\t// in\n    tag_235:\n        /* \"#utility.yul\":11804:11808   */\n      dup7\n        /* \"#utility.yul\":11797:11878   */\n      sstore\n        /* \"#utility.yul\":11659:11888   */\n      pop\n        /* \"#utility.yul\":10981:11888   */\n      jump(tag_232)\n        /* \"#utility.yul\":11011:11642   */\n    tag_233:\n        /* \"#utility.yul\":11063:11067   */\n      0x1f\n        /* \"#utility.yul\":11059:11068   */\n      not\n        /* \"#utility.yul\":11051:11057   */\n      dup5\n        /* \"#utility.yul\":11047:11069   */\n      and\n        /* \"#utility.yul\":11097:11133   */\n      tag_236\n        /* \"#utility.yul\":11128:11132   */\n      dup7\n        /* \"#utility.yul\":11097:11133   */\n      tag_88\n      jump\t// in\n    tag_236:\n        /* \"#utility.yul\":11155:11156   */\n      0x00\n        /* \"#utility.yul\":11169:11384   */\n    tag_237:\n        /* \"#utility.yul\":11183:11190   */\n      dup3\n        /* \"#utility.yul\":11180:11181   */\n      dup2\n        /* \"#utility.yul\":11177:11191   */\n      lt\n        /* \"#utility.yul\":11169:11384   */\n      iszero\n      tag_239\n      jumpi\n        /* \"#utility.yul\":11269:11278   */\n      dup5\n        /* \"#utility.yul\":11264:11267   */\n      dup10\n        /* \"#utility.yul\":11260:11279   */\n      add\n        /* \"#utility.yul\":11247:11280   */\n      calldataload\n        /* \"#utility.yul\":11239:11245   */\n      dup3\n        /* \"#utility.yul\":11232:11281   */\n      sstore\n        /* \"#utility.yul\":11320:11321   */\n      0x01\n        /* \"#utility.yul\":11312:11318   */\n      dup3\n        /* \"#utility.yul\":11308:11322   */\n      add\n        /* \"#utility.yul\":11298:11322   */\n      swap2\n      pop\n        /* \"#utility.yul\":11367:11369   */\n      0x20\n        /* \"#utility.yul\":11356:11365   */\n      dup6\n        /* \"#utility.yul\":11352:11370   */\n      add\n        /* \"#utility.yul\":11339:11370   */\n      swap5\n      pop\n        /* \"#utility.yul\":11206:11210   */\n      0x20\n        /* \"#utility.yul\":11203:11204   */\n      dup2\n        /* \"#utility.yul\":11199:11211   */\n      add\n        /* \"#utility.yul\":11194:11211   */\n      swap1\n      pop\n        /* \"#utility.yul\":11169:11384   */\n      jump(tag_237)\n    tag_239:\n        /* \"#utility.yul\":11412:11418   */\n      dup7\n        /* \"#utility.yul\":11403:11410   */\n      dup4\n        /* \"#utility.yul\":11400:11419   */\n      lt\n        /* \"#utility.yul\":11397:11583   */\n      iszero\n      tag_240\n      jumpi\n        /* \"#utility.yul\":11477:11486   */\n      dup5\n        /* \"#utility.yul\":11472:11475   */\n      dup10\n        /* \"#utility.yul\":11468:11487   */\n      add\n        /* \"#utility.yul\":11455:11488   */\n      calldataload\n        /* \"#utility.yul\":11520:11568   */\n      tag_241\n        /* \"#utility.yul\":11562:11566   */\n      0x1f\n        /* \"#utility.yul\":11554:11560   */\n      dup10\n        /* \"#utility.yul\":11550:11567   */\n      and\n        /* \"#utility.yul\":11539:11548   */\n      dup3\n        /* \"#utility.yul\":11520:11568   */\n      tag_101\n      jump\t// in\n    tag_241:\n        /* \"#utility.yul\":11512:11518   */\n      dup4\n        /* \"#utility.yul\":11505:11569   */\n      sstore\n        /* \"#utility.yul\":11420:11583   */\n      pop\n        /* \"#utility.yul\":11397:11583   */\n    tag_240:\n        /* \"#utility.yul\":11629:11630   */\n      0x01\n        /* \"#utility.yul\":11625:11626   */\n      0x02\n        /* \"#utility.yul\":11617:11623   */\n      dup9\n        /* \"#utility.yul\":11613:11627   */\n      mul\n        /* \"#utility.yul\":11609:11631   */\n      add\n        /* \"#utility.yul\":11603:11607   */\n      dup9\n        /* \"#utility.yul\":11596:11632   */\n      sstore\n        /* \"#utility.yul\":11018:11642   */\n      pop\n      pop\n      pop\n        /* \"#utility.yul\":10981:11888   */\n    tag_232:\n      pop\n        /* \"#utility.yul\":10593:11894   */\n      pop\n      pop\n      pop\n        /* \"#utility.yul\":10496:11894   */\n      pop\n      pop\n      pop\n      jump\t// out\n\n    auxdata: 0xa264697066735822122050fcf908a9ab2ffa5988d414724dfeb2e4435b79155c12dd0569e3288713d2b364736f6c634300081a0033\n}\n",
				"bytecode": {
					"linkReferences": {},
					"object": "6080604052348015600e575f80fd5b50610af48061001c5f395ff3fe608060405234801561000f575f80fd5b506004361061003f575f3560e01c8063013cf08b1461004357806315373e3d146100765780631a3fd12214610092575b5f80fd5b61005d6004803603810190610058919061043d565b6100ae565b60405161006d9493929190610526565b60405180910390f35b610090600480360381019061008b91906105a5565b61018d565b005b6100ac60048036038101906100a7919061066e565b610387565b005b5f81815481106100bc575f80fd5b905f5260205f2090600502015f91509050805f015f9054906101000a900473ffffffffffffffffffffffffffffffffffffffff1690806001018054610100906106f8565b80601f016020809104026020016040519081016040528092919081815260200182805461012c906106f8565b80156101775780601f1061014e57610100808354040283529160200191610177565b820191905f5260205f20905b81548152906001019060200180831161015a57829003601f168201915b5050505050908060020154908060030154905084565b5f8083815481106101a1576101a0610728565b5b905f5260205f2090600502019050600160028111156101c3576101c2610755565b5b816004015f3373ffffffffffffffffffffffffffffffffffffffff1673ffffffffffffffffffffffffffffffffffffffff1681526020019081526020015f205f9054906101000a900460ff16600281111561022157610220610755565b5b0361024057806002015f81548092919061023a906107af565b91905055505b60028081111561025357610252610755565b5b816004015f3373ffffffffffffffffffffffffffffffffffffffff1673ffffffffffffffffffffffffffffffffffffffff1681526020019081526020015f205f9054906101000a900460ff1660028111156102b1576102b0610755565b5b036102d057806003015f8154809291906102ca906107af565b91905055505b81156102f457806002015f8154809291906102ea906107d6565b919050555061030e565b806003015f815480929190610308906107d6565b91905055505b8161031a57600261031d565b60015b816004015f3373ffffffffffffffffffffffffffffffffffffffff1673ffffffffffffffffffffffffffffffffffffffff1681526020019081526020015f205f6101000a81548160ff0219169083600281111561037d5761037c610755565b5b0217905550505050565b5f8060018160018154018082558091505003905f5260205f209060050201905083815f015f6101000a81548173ffffffffffffffffffffffffffffffffffffffff021916908373ffffffffffffffffffffffffffffffffffffffff16021790555082828260010191826103fb9291906109f1565b5050505050565b5f80fd5b5f80fd5b5f819050919050565b61041c8161040a565b8114610426575f80fd5b50565b5f8135905061043781610413565b92915050565b5f6020828403121561045257610451610402565b5b5f61045f84828501610429565b91505092915050565b5f73ffffffffffffffffffffffffffffffffffffffff82169050919050565b5f61049182610468565b9050919050565b6104a181610487565b82525050565b5f81519050919050565b5f82825260208201905092915050565b8281835e5f83830152505050565b5f601f19601f8301169050919050565b5f6104e9826104a7565b6104f381856104b1565b93506105038185602086016104c1565b61050c816104cf565b840191505092915050565b6105208161040a565b82525050565b5f6080820190506105395f830187610498565b818103602083015261054b81866104df565b905061055a6040830185610517565b6105676060830184610517565b95945050505050565b5f8115159050919050565b61058481610570565b811461058e575f80fd5b50565b5f8135905061059f8161057b565b92915050565b5f80604083850312156105bb576105ba610402565b5b5f6105c885828601610429565b92505060206105d985828601610591565b9150509250929050565b6105ec81610487565b81146105f6575f80fd5b50565b5f81359050610607816105e3565b92915050565b5f80fd5b5f80fd5b5f80fd5b5f8083601f84011261062e5761062d61060d565b5b8235905067ffffffffffffffff81111561064b5761064a610611565b5b60208301915083600182028301111561066757610666610615565b5b9250929050565b5f805f6040848603121561068557610684610402565b5b5f610692868287016105f9565b935050602084013567ffffffffffffffff8111156106b3576106b2610406565b5b6106bf86828701610619565b92509250509250925092565b7f4e487b71000000000000000000000000000000000000000000000000000000005f52602260045260245ffd5b5f600282049050600182168061070f57607f821691505b602082108103610722576107216106cb565b5b50919050565b7f4e487b71000000000000000000000000000000000000000000000000000000005f52603260045260245ffd5b7f4e487b71000000000000000000000000000000000000000000000000000000005f52602160045260245ffd5b7f4e487b71000000000000000000000000000000000000000000000000000000005f52601160045260245ffd5b5f6107b98261040a565b91505f82036107cb576107ca610782565b5b600182039050919050565b5f6107e08261040a565b91507fffffffffffffffffffffffffffffffffffffffffffffffffffffffffffffffff820361081257610811610782565b5b600182019050919050565b5f82905092915050565b7f4e487b71000000000000000000000000000000000000000000000000000000005f52604160045260245ffd5b5f819050815f5260205f209050919050565b5f6020601f8301049050919050565b5f82821b905092915050565b5f600883026108b07fffffffffffffffffffffffffffffffffffffffffffffffffffffffffffffffff82610875565b6108ba8683610875565b95508019841693508086168417925050509392505050565b5f819050919050565b5f6108f56108f06108eb8461040a565b6108d2565b61040a565b9050919050565b5f819050919050565b61090e836108db565b61092261091a826108fc565b848454610881565b825550505050565b5f90565b61093661092a565b610941818484610905565b505050565b5b81811015610964576109595f8261092e565b600181019050610947565b5050565b601f8211156109a95761097a81610854565b61098384610866565b81016020851015610992578190505b6109a661099e85610866565b830182610946565b50505b505050565b5f82821c905092915050565b5f6109c95f19846008026109ae565b1980831691505092915050565b5f6109e183836109ba565b9150826002028217905092915050565b6109fb838361081d565b67ffffffffffffffff811115610a1457610a13610827565b5b610a1e82546106f8565b610a29828285610968565b5f601f831160018114610a56575f8415610a44578287013590505b610a4e85826109d6565b865550610ab5565b601f198416610a6486610854565b5f5b82811015610a8b57848901358255600182019150602085019450602081019050610a66565b86831015610aa85784890135610aa4601f8916826109ba565b8355505b6001600288020188555050505b5050505050505056fea264697066735822122050fcf908a9ab2ffa5988d414724dfeb2e4435b79155c12dd0569e3288713d2b364736f6c634300081a0033",
					"opcodes": "PUSH1 0x80 PUSH1 0x40 MSTORE CALLVALUE DUP1 ISZERO PUSH1 0xE JUMPI PUSH0 DUP1 REVERT JUMPDEST POP PUSH2 0xAF4 DUP1 PUSH2 0x1C PUSH0 CODECOPY PUSH0 RETURN INVALID PUSH1 0x80 PUSH1 0x40 MSTORE CALLVALUE DUP1 ISZERO PUSH2 0xF JUMPI PUSH0 DUP1 REVERT JUMPDEST POP PUSH1 0x4 CALLDATASIZE LT PUSH2 0x3F JUMPI PUSH0 CALLDATALOAD PUSH1 0xE0 SHR DUP1 PUSH4 0x13CF08B EQ PUSH2 0x43 JUMPI DUP1 PUSH4 0x15373E3D EQ PUSH2 0x76 JUMPI DUP1 PUSH4 0x1A3FD122 EQ PUSH2 0x92 JUMPI JUMPDEST PUSH0 DUP1 REVERT JUMPDEST PUSH2 0x5D PUSH1 0x4 DUP1 CALLDATASIZE SUB DUP2 ADD SWAP1 PUSH2 0x58 SWAP2 SWAP1 PUSH2 0x43D JUMP JUMPDEST PUSH2 0xAE JUMP JUMPDEST PUSH1 0x40 MLOAD PUSH2 0x6D SWAP5 SWAP4 SWAP3 SWAP2 SWAP1 PUSH2 0x526 JUMP JUMPDEST PUSH1 0x40 MLOAD DUP1 SWAP2 SUB SWAP1 RETURN JUMPDEST PUSH2 0x90 PUSH1 0x4 DUP1 CALLDATASIZE SUB DUP2 ADD SWAP1 PUSH2 0x8B SWAP2 SWAP1 PUSH2 0x5A5 JUMP JUMPDEST PUSH2 0x18D JUMP JUMPDEST STOP JUMPDEST PUSH2 0xAC PUSH1 0x4 DUP1 CALLDATASIZE SUB DUP2 ADD SWAP1 PUSH2 0xA7 SWAP2 SWAP1 PUSH2 0x66E JUMP JUMPDEST PUSH2 0x387 JUMP JUMPDEST STOP JUMPDEST PUSH0 DUP2 DUP2 SLOAD DUP2 LT PUSH2 0xBC JUMPI PUSH0 DUP1 REVERT JUMPDEST SWAP1 PUSH0 MSTORE PUSH1 0x20 PUSH0 KECCAK256 SWAP1 PUSH1 0x5 MUL ADD PUSH0 SWAP2 POP SWAP1 POP DUP1 PUSH0 ADD PUSH0 SWAP1 SLOAD SWAP1 PUSH2 0x100 EXP SWAP1 DIV PUSH20 0xFFFFFFFFFFFFFFFFFFFFFFFFFFFFFFFFFFFFFFFF AND SWAP1 DUP1 PUSH1 0x1 ADD DUP1 SLOAD PUSH2 0x100 SWAP1 PUSH2 0x6F8 JUMP JUMPDEST DUP1 PUSH1 0x1F ADD PUSH1 0x20 DUP1 SWAP2 DIV MUL PUSH1 0x20 ADD PUSH1 0x40 MLOAD SWAP1 DUP2 ADD PUSH1 0x40 MSTORE DUP1 SWAP3 SWAP2 SWAP1 DUP2 DUP2 MSTORE PUSH1 0x20 ADD DUP3 DUP1 SLOAD PUSH2 0x12C SWAP1 PUSH2 0x6F8 JUMP JUMPDEST DUP1 ISZERO PUSH2 0x177 JUMPI DUP1 PUSH1 0x1F LT PUSH2 0x14E JUMPI PUSH2 0x100 DUP1 DUP4 SLOAD DIV MUL DUP4 MSTORE SWAP2 PUSH1 0x20 ADD SWAP2 PUSH2 0x177 JUMP JUMPDEST DUP3 ADD SWAP2 SWAP1 PUSH0 MSTORE PUSH1 0x20 PUSH0 KECCAK256 SWAP1 JUMPDEST DUP2 SLOAD DUP2 MSTORE SWAP1 PUSH1 0x1 ADD SWAP1 PUSH1 0x20 ADD DUP1 DUP4 GT PUSH2 0x15A JUMPI DUP3 SWAP1 SUB PUSH1 0x1F AND DUP3 ADD SWAP2 JUMPDEST POP POP POP POP POP SWAP1 DUP1 PUSH1 0x2 ADD SLOAD SWAP1 DUP1 PUSH1 0x3 ADD SLOAD SWAP1 POP DUP5 JUMP JUMPDEST PUSH0 DUP1 DUP4 DUP2 SLOAD DUP2 LT PUSH2 0x1A1 JUMPI PUSH2 0x1A0 PUSH2 0x728 JUMP JUMPDEST JUMPDEST SWAP1 PUSH0 MSTORE PUSH1 0x20 PUSH0 KECCAK256 SWAP1 PUSH1 0x5 MUL ADD SWAP1 POP PUSH1 0x1 PUSH1 0x2 DUP2 GT ISZERO PUSH2 0x1C3 JUMPI PUSH2 0x1C2 PUSH2 0x755 JUMP JUMPDEST JUMPDEST DUP2 PUSH1 0x4 ADD PUSH0 CALLER PUSH20 0xFFFFFFFFFFFFFFFFFFFFFFFFFFFFFFFFFFFFFFFF AND PUSH20 0xFFFFFFFFFFFFFFFFFFFFFFFFFFFFFFFFFFFFFFFF AND DUP2 MSTORE PUSH1 0x20 ADD SWAP1 DUP2 MSTORE PUSH1 0x20 ADD PUSH0 KECCAK256 PUSH0 SWAP1 SLOAD SWAP1 PUSH2 0x100 EXP SWAP1 DIV PUSH1 0xFF AND PUSH1 0x2 DUP2 GT ISZERO PUSH2 0x221 JUMPI PUSH2 0x220 PUSH2 0x755 JUMP JUMPDEST JUMPDEST SUB PUSH2 0x240 JUMPI DUP1 PUSH1 0x2 ADD PUSH0 DUP2 SLOAD DUP1 SWAP3 SWAP2 SWAP1 PUSH2 0x23A SWAP1 PUSH2 0x7AF JUMP JUMPDEST SWAP2 SWAP1 POP SSTORE POP JUMPDEST PUSH1 0x2 DUP1 DUP2 GT ISZERO PUSH2 0x253 JUMPI PUSH2 0x252 PUSH2 0x755 JUMP JUMPDEST JUMPDEST DUP2 PUSH1 0x4 ADD PUSH0 CALLER PUSH20 0xFFFFFFFFFFFFFFFFFFFFFFFFFFFFFFFFFFFFFFFF AND PUSH20 0xFFFFFFFFFFFFFFFFFFFFFFFFFFFFFFFFFFFFFFFF AND DUP2 MSTORE PUSH1 0x20 ADD SWAP1 DUP2 MSTORE PUSH1 0x20 ADD PUSH0 KECCAK256 PUSH0 SWAP1 SLOAD SWAP1 PUSH2 0x100 EXP SWAP1 DIV PUSH1 0xFF AND PUSH1 0x2 DUP2 GT ISZERO PUSH2 0x2B1 JUMPI PUSH2 0x2B0 PUSH2 0x755 JUMP JUMPDEST JUMPDEST SUB PUSH2 0x2D0 JUMPI DUP1 PUSH1 0x3 ADD PUSH0 DUP2 SLOAD DUP1 SWAP3 SWAP2 SWAP1 PUSH2 0x2CA SWAP1 PUSH2 0x7AF JUMP JUMPDEST SWAP2 SWAP1 POP SSTORE POP JUMPDEST DUP2 ISZERO PUSH2 0x2F4 JUMPI DUP1 PUSH1 0x2 ADD PUSH0 DUP2 SLOAD DUP1 SWAP3 SWAP2 SWAP1 PUSH2 0x2EA SWAP1 PUSH2 0x7D6 JUMP JUMPDEST SWAP2 SWAP1 POP SSTORE POP PUSH2 0x30E JUMP JUMPDEST DUP1 PUSH1 0x3 ADD PUSH0 DUP2 SLOAD DUP1 SWAP3 SWAP2 SWAP1 PUSH2 0x308 SWAP1 PUSH2 0x7D6 JUMP JUMPDEST SWAP2 SWAP1 POP SSTORE POP JUMPDEST DUP2 PUSH2 0x31A JUMPI PUSH1 0x2 PUSH2 0x31D JUMP JUMPDEST PUSH1 0x1 JUMPDEST DUP2 PUSH1 0x4 ADD PUSH0 CALLER PUSH20 0xFFFFFFFFFFFFFFFFFFFFFFFFFFFFFFFFFFFFFFFF AND PUSH20 0xFFFFFFFFFFFFFFFFFFFFFFFFFFFFFFFFFFFFFFFF AND DUP2 MSTORE PUSH1 0x20 ADD SWAP1 DUP2 MSTORE PUSH1 0x20 ADD PUSH0 KECCAK256 PUSH0 PUSH2 0x100 EXP DUP2 SLOAD DUP2 PUSH1 0xFF MUL NOT AND SWAP1 DUP4 PUSH1 0x2 DUP2 GT ISZERO PUSH2 0x37D JUMPI PUSH2 0x37C PUSH2 0x755 JUMP JUMPDEST JUMPDEST MUL OR SWAP1 SSTORE POP POP POP POP JUMP JUMPDEST PUSH0 DUP1 PUSH1 0x1 DUP2 PUSH1 0x1 DUP2 SLOAD ADD DUP1 DUP3 SSTORE DUP1 SWAP2 POP POP SUB SWAP1 PUSH0 MSTORE PUSH1 0x20 PUSH0 KECCAK256 SWAP1 PUSH1 0x5 MUL ADD SWAP1 POP DUP4 DUP2 PUSH0 ADD PUSH0 PUSH2 0x100 EXP DUP2 SLOAD DUP2 PUSH20 0xFFFFFFFFFFFFFFFFFFFFFFFFFFFFFFFFFFFFFFFF MUL NOT AND SWAP1 DUP4 PUSH20 0xFFFFFFFFFFFFFFFFFFFFFFFFFFFFFFFFFFFFFFFF AND MUL OR SWAP1 SSTORE POP DUP3 DUP3 DUP3 PUSH1 0x1 ADD SWAP2 DUP3 PUSH2 0x3FB SWAP3 SWAP2 SWAP1 PUSH2 0x9F1 JUMP JUMPDEST POP POP POP POP POP JUMP JUMPDEST PUSH0 DUP1 REVERT JUMPDEST PUSH0 DUP1 REVERT JUMPDEST PUSH0 DUP2 SWAP1 POP SWAP2 SWAP1 POP JUMP JUMPDEST PUSH2 0x41C DUP2 PUSH2 0x40A JUMP JUMPDEST DUP2 EQ PUSH2 0x426 JUMPI PUSH0 DUP1 REVERT JUMPDEST POP JUMP JUMPDEST PUSH0 DUP2 CALLDATALOAD SWAP1 POP PUSH2 0x437 DUP2 PUSH2 0x413 JUMP JUMPDEST SWAP3 SWAP2 POP POP JUMP JUMPDEST PUSH0 PUSH1 0x20 DUP3 DUP5 SUB SLT ISZERO PUSH2 0x452 JUMPI PUSH2 0x451 PUSH2 0x402 JUMP JUMPDEST JUMPDEST PUSH0 PUSH2 0x45F DUP5 DUP3 DUP6 ADD PUSH2 0x429 JUMP JUMPDEST SWAP2 POP POP SWAP3 SWAP2 POP POP JUMP JUMPDEST PUSH0 PUSH20 0xFFFFFFFFFFFFFFFFFFFFFFFFFFFFFFFFFFFFFFFF DUP3 AND SWAP1 POP SWAP2 SWAP1 POP JUMP JUMPDEST PUSH0 PUSH2 0x491 DUP3 PUSH2 0x468 JUMP JUMPDEST SWAP1 POP SWAP2 SWAP1 POP JUMP JUMPDEST PUSH2 0x4A1 DUP2 PUSH2 0x487 JUMP JUMPDEST DUP3 MSTORE POP POP JUMP JUMPDEST PUSH0 DUP2 MLOAD SWAP1 POP SWAP2 SWAP1 POP JUMP JUMPDEST PUSH0 DUP3 DUP3 MSTORE PUSH1 0x20 DUP3 ADD SWAP1 POP SWAP3 SWAP2 POP POP JUMP JUMPDEST DUP3 DUP2 DUP4 MCOPY PUSH0 DUP4 DUP4 ADD MSTORE POP POP POP JUMP JUMPDEST PUSH0 PUSH1 0x1F NOT PUSH1 0x1F DUP4 ADD AND SWAP1 POP SWAP2 SWAP1 POP JUMP JUMPDEST PUSH0 PUSH2 0x4E9 DUP3 PUSH2 0x4A7 JUMP JUMPDEST PUSH2 0x4F3 DUP2 DUP6 PUSH2 0x4B1 JUMP JUMPDEST SWAP4 POP PUSH2 0x503 DUP2 DUP6 PUSH1 0x20 DUP7 ADD PUSH2 0x4C1 JUMP JUMPDEST PUSH2 0x50C DUP2 PUSH2 0x4CF JUMP JUMPDEST DUP5 ADD SWAP2 POP POP SWAP3 SWAP2 POP POP JUMP JUMPDEST PUSH2 0x520 DUP2 PUSH2 0x40A JUMP JUMPDEST DUP3 MSTORE POP POP JUMP JUMPDEST PUSH0 PUSH1 0x80 DUP3 ADD SWAP1 POP PUSH2 0x539 PUSH0 DUP4 ADD DUP8 PUSH2 0x498 JUMP JUMPDEST DUP2 DUP2 SUB PUSH1 0x20 DUP4 ADD MSTORE PUSH2 0x54B DUP2 DUP7 PUSH2 0x4DF JUMP JUMPDEST SWAP1 POP PUSH2 0x55A PUSH1 0x40 DUP4 ADD DUP6 PUSH2 0x517 JUMP JUMPDEST PUSH2 0x567 PUSH1 0x60 DUP4 ADD DUP5 PUSH2 0x517 JUMP JUMPDEST SWAP6 SWAP5 POP POP POP POP POP JUMP JUMPDEST PUSH0 DUP2 ISZERO ISZERO SWAP1 POP SWAP2 SWAP1 POP JUMP JUMPDEST PUSH2 0x584 DUP2 PUSH2 0x570 JUMP JUMPDEST DUP2 EQ PUSH2 0x58E JUMPI PUSH0 DUP1 REVERT JUMPDEST POP JUMP JUMPDEST PUSH0 DUP2 CALLDATALOAD SWAP1 POP PUSH2 0x59F DUP2 PUSH2 0x57B JUMP JUMPDEST SWAP3 SWAP2 POP POP JUMP JUMPDEST PUSH0 DUP1 PUSH1 0x40 DUP4 DUP6 SUB SLT ISZERO PUSH2 0x5BB JUMPI PUSH2 0x5BA PUSH2 0x402 JUMP JUMPDEST JUMPDEST PUSH0 PUSH2 0x5C8 DUP6 DUP3 DUP7 ADD PUSH2 0x429 JUMP JUMPDEST SWAP3 POP POP PUSH1 0x20 PUSH2 0x5D9 DUP6 DUP3 DUP7 ADD PUSH2 0x591 JUMP JUMPDEST SWAP2 POP POP SWAP3 POP SWAP3 SWAP1 POP JUMP JUMPDEST PUSH2 0x5EC DUP2 PUSH2 0x487 JUMP JUMPDEST DUP2 EQ PUSH2 0x5F6 JUMPI PUSH0 DUP1 REVERT JUMPDEST POP JUMP JUMPDEST PUSH0 DUP2 CALLDATALOAD SWAP1 POP PUSH2 0x607 DUP2 PUSH2 0x5E3 JUMP JUMPDEST SWAP3 SWAP2 POP POP JUMP JUMPDEST PUSH0 DUP1 REVERT JUMPDEST PUSH0 DUP1 REVERT JUMPDEST PUSH0 DUP1 REVERT JUMPDEST PUSH0 DUP1 DUP4 PUSH1 0x1F DUP5 ADD SLT PUSH2 0x62E JUMPI PUSH2 0x62D PUSH2 0x60D JUMP JUMPDEST JUMPDEST DUP3 CALLDATALOAD SWAP1 POP PUSH8 0xFFFFFFFFFFFFFFFF DUP2 GT ISZERO PUSH2 0x64B JUMPI PUSH2 0x64A PUSH2 0x611 JUMP JUMPDEST JUMPDEST PUSH1 0x20 DUP4 ADD SWAP2 POP DUP4 PUSH1 0x1 DUP3 MUL DUP4 ADD GT ISZERO PUSH2 0x667 JUMPI PUSH2 0x666 PUSH2 0x615 JUMP JUMPDEST JUMPDEST SWAP3 POP SWAP3 SWAP1 POP JUMP JUMPDEST PUSH0 DUP1 PUSH0 PUSH1 0x40 DUP5 DUP7 SUB SLT ISZERO PUSH2 0x685 JUMPI PUSH2 0x684 PUSH2 0x402 JUMP JUMPDEST JUMPDEST PUSH0 PUSH2 0x692 DUP7 DUP3 DUP8 ADD PUSH2 0x5F9 JUMP JUMPDEST SWAP4 POP POP PUSH1 0x20 DUP5 ADD CALLDATALOAD PUSH8 0xFFFFFFFFFFFFFFFF DUP2 GT ISZERO PUSH2 0x6B3 JUMPI PUSH2 0x6B2 PUSH2 0x406 JUMP JUMPDEST JUMPDEST PUSH2 0x6BF DUP7 DUP3 DUP8 ADD PUSH2 0x619 JUMP JUMPDEST SWAP3 POP SWAP3 POP POP SWAP3 POP SWAP3 POP SWAP3 JUMP JUMPDEST PUSH32 0x4E487B7100000000000000000000000000000000000000000000000000000000 PUSH0 MSTORE PUSH1 0x22 PUSH1 0x4 MSTORE PUSH1 0x24 PUSH0 REVERT JUMPDEST PUSH0 PUSH1 0x2 DUP3 DIV SWAP1 POP PUSH1 0x1 DUP3 AND DUP1 PUSH2 0x70F JUMPI PUSH1 0x7F DUP3 AND SWAP2 POP JUMPDEST PUSH1 0x20 DUP3 LT DUP2 SUB PUSH2 0x722 JUMPI PUSH2 0x721 PUSH2 0x6CB JUMP JUMPDEST JUMPDEST POP SWAP2 SWAP1 POP JUMP JUMPDEST PUSH32 0x4E487B7100000000000000000000000000000000000000000000000000000000 PUSH0 MSTORE PUSH1 0x32 PUSH1 0x4 MSTORE PUSH1 0x24 PUSH0 REVERT JUMPDEST PUSH32 0x4E487B7100000000000000000000000000000000000000000000000000000000 PUSH0 MSTORE PUSH1 0x21 PUSH1 0x4 MSTORE PUSH1 0x24 PUSH0 REVERT JUMPDEST PUSH32 0x4E487B7100000000000000000000000000000000000000000000000000000000 PUSH0 MSTORE PUSH1 0x11 PUSH1 0x4 MSTORE PUSH1 0x24 PUSH0 REVERT JUMPDEST PUSH0 PUSH2 0x7B9 DUP3 PUSH2 0x40A JUMP JUMPDEST SWAP2 POP PUSH0 DUP3 SUB PUSH2 0x7CB JUMPI PUSH2 0x7CA PUSH2 0x782 JUMP JUMPDEST JUMPDEST PUSH1 0x1 DUP3 SUB SWAP1 POP SWAP2 SWAP1 POP JUMP JUMPDEST PUSH0 PUSH2 0x7E0 DUP3 PUSH2 0x40A JUMP JUMPDEST SWAP2 POP PUSH32 0xFFFFFFFFFFFFFFFFFFFFFFFFFFFFFFFFFFFFFFFFFFFFFFFFFFFFFFFFFFFFFFFF DUP3 SUB PUSH2 0x812 JUMPI PUSH2 0x811 PUSH2 0x782 JUMP JUMPDEST JUMPDEST PUSH1 0x1 DUP3 ADD SWAP1 POP SWAP2 SWAP1 POP JUMP JUMPDEST PUSH0 DUP3 SWAP1 POP SWAP3 SWAP2 POP POP JUMP JUMPDEST PUSH32 0x4E487B7100000000000000000000000000000000000000000000000000000000 PUSH0 MSTORE PUSH1 0x41 PUSH1 0x4 MSTORE PUSH1 0x24 PUSH0 REVERT JUMPDEST PUSH0 DUP2 SWAP1 POP DUP2 PUSH0 MSTORE PUSH1 0x20 PUSH0 KECCAK256 SWAP1 POP SWAP2 SWAP1 POP JUMP JUMPDEST PUSH0 PUSH1 0x20 PUSH1 0x1F DUP4 ADD DIV SWAP1 POP SWAP2 SWAP1 POP JUMP JUMPDEST PUSH0 DUP3 DUP3 SHL SWAP1 POP SWAP3 SWAP2 POP POP JUMP JUMPDEST PUSH0 PUSH1 0x8 DUP4 MUL PUSH2 0x8B0 PUSH32 0xFFFFFFFFFFFFFFFFFFFFFFFFFFFFFFFFFFFFFFFFFFFFFFFFFFFFFFFFFFFFFFFF DUP3 PUSH2 0x875 JUMP JUMPDEST PUSH2 0x8BA DUP7 DUP4 PUSH2 0x875 JUMP JUMPDEST SWAP6 POP DUP1 NOT DUP5 AND SWAP4 POP DUP1 DUP7 AND DUP5 OR SWAP3 POP POP POP SWAP4 SWAP3 POP POP POP JUMP JUMPDEST PUSH0 DUP2 SWAP1 POP SWAP2 SWAP1 POP JUMP JUMPDEST PUSH0 PUSH2 0x8F5 PUSH2 0x8F0 PUSH2 0x8EB DUP5 PUSH2 0x40A JUMP JUMPDEST PUSH2 0x8D2 JUMP JUMPDEST PUSH2 0x40A JUMP JUMPDEST SWAP1 POP SWAP2 SWAP1 POP JUMP JUMPDEST PUSH0 DUP2 SWAP1 POP SWAP2 SWAP1 POP JUMP JUMPDEST PUSH2 0x90E DUP4 PUSH2 0x8DB JUMP JUMPDEST PUSH2 0x922 PUSH2 0x91A DUP3 PUSH2 0x8FC JUMP JUMPDEST DUP5 DUP5 SLOAD PUSH2 0x881 JUMP JUMPDEST DUP3 SSTORE POP POP POP POP JUMP JUMPDEST PUSH0 SWAP1 JUMP JUMPDEST PUSH2 0x936 PUSH2 0x92A JUMP JUMPDEST PUSH2 0x941 DUP2 DUP5 DUP5 PUSH2 0x905 JUMP JUMPDEST POP POP POP JUMP JUMPDEST JUMPDEST DUP2 DUP2 LT ISZERO PUSH2 0x964 JUMPI PUSH2 0x959 PUSH0 DUP3 PUSH2 0x92E JUMP JUMPDEST PUSH1 0x1 DUP2 ADD SWAP1 POP PUSH2 0x947 JUMP JUMPDEST POP POP JUMP JUMPDEST PUSH1 0x1F DUP3 GT ISZERO PUSH2 0x9A9 JUMPI PUSH2 0x97A DUP2 PUSH2 0x854 JUMP JUMPDEST PUSH2 0x983 DUP5 PUSH2 0x866 JUMP JUMPDEST DUP2 ADD PUSH1 0x20 DUP6 LT ISZERO PUSH2 0x992 JUMPI DUP2 SWAP1 POP JUMPDEST PUSH2 0x9A6 PUSH2 0x99E DUP6 PUSH2 0x866 JUMP JUMPDEST DUP4 ADD DUP3 PUSH2 0x946 JUMP JUMPDEST POP POP JUMPDEST POP POP POP JUMP JUMPDEST PUSH0 DUP3 DUP3 SHR SWAP1 POP SWAP3 SWAP2 POP POP JUMP JUMPDEST PUSH0 PUSH2 0x9C9 PUSH0 NOT DUP5 PUSH1 0x8 MUL PUSH2 0x9AE JUMP JUMPDEST NOT DUP1 DUP4 AND SWAP2 POP POP SWAP3 SWAP2 POP POP JUMP JUMPDEST PUSH0 PUSH2 0x9E1 DUP4 DUP4 PUSH2 0x9BA JUMP JUMPDEST SWAP2 POP DUP3 PUSH1 0x2 MUL DUP3 OR SWAP1 POP SWAP3 SWAP2 POP POP JUMP JUMPDEST PUSH2 0x9FB DUP4 DUP4 PUSH2 0x81D JUMP JUMPDEST PUSH8 0xFFFFFFFFFFFFFFFF DUP2 GT ISZERO PUSH2 0xA14 JUMPI PUSH2 0xA13 PUSH2 0x827 JUMP JUMPDEST JUMPDEST PUSH2 0xA1E DUP3 SLOAD PUSH2 0x6F8 JUMP JUMPDEST PUSH2 0xA29 DUP3 DUP3 DUP6 PUSH2 0x968 JUMP JUMPDEST PUSH0 PUSH1 0x1F DUP4 GT PUSH1 0x1 DUP2 EQ PUSH2 0xA56 JUMPI PUSH0 DUP5 ISZERO PUSH2 0xA44 JUMPI DUP3 DUP8 ADD CALLDATALOAD SWAP1 POP JUMPDEST PUSH2 0xA4E DUP6 DUP3 PUSH2 0x9D6 JUMP JUMPDEST DUP7 SSTORE POP PUSH2 0xAB5 JUMP JUMPDEST PUSH1 0x1F NOT DUP5 AND PUSH2 0xA64 DUP7 PUSH2 0x854 JUMP JUMPDEST PUSH0 JUMPDEST DUP3 DUP2 LT ISZERO PUSH2 0xA8B JUMPI DUP5 DUP10 ADD CALLDATALOAD DUP3 SSTORE PUSH1 0x1 DUP3 ADD SWAP2 POP PUSH1 0x20 DUP6 ADD SWAP5 POP PUSH1 0x20 DUP2 ADD SWAP1 POP PUSH2 0xA66 JUMP JUMPDEST DUP7 DUP4 LT ISZERO PUSH2 0xAA8 JUMPI DUP5 DUP10 ADD CALLDATALOAD PUSH2 0xAA4 PUSH1 0x1F DUP10 AND DUP3 PUSH2 0x9BA JUMP JUMPDEST DUP4 SSTORE POP JUMPDEST PUSH1 0x1 PUSH1 0x2 DUP9 MUL ADD DUP9 SSTORE POP POP POP JUMPDEST POP POP POP POP POP POP POP JUMP INVALID LOG2 PUSH5 0x6970667358 0x22 SLT KECCAK256 POP 0xFC 0xF9 ADDMOD 0xA9 0xAB 0x2F STATICCALL MSIZE DUP9 0xD4 EQ PUSH19 0x4DFEB2E4435B79155C12DD0569E3288713D2B3 PUSH5 0x736F6C6343 STOP ADDMOD BYTE STOP CALLER "
				},
				"gasEstimates": {
					"creation": {
						"codeDepositCost": "560800",
						"executionCost": "592",
						"totalCost": "561392"
					},
					"external": {
						"castVote(uint256,bool)": "infinite",
						"newProposal(address,bytes)": "infinite",
						"proposals(uint256)": "infinite"
					}
				},
				"methodIdentifiers": {
					"castVote(uint256,bool)": "15373e3d",
					"newProposal(address,bytes)": "1a3fd122",
					"proposals(uint256)": "013cf08b"
				}
			},
			"storageLayout": {
				"storage": [
					{
						"astId": 23,
						"contract": "Solidity Basic Projects/Voting.sol:Voting",
						"label": "proposals",
						"offset": 0,
						"slot": "0",
						"type": "t_array(t_struct(Proposal)19_storage)dyn_storage"
					}
				],
				"types": {
					"t_address": {
						"encoding": "inplace",
						"label": "address",
						"numberOfBytes": "20"
					},
					"t_array(t_struct(Proposal)19_storage)dyn_storage": {
						"base": "t_struct(Proposal)19_storage",
						"encoding": "dynamic_array",
						"label": "struct Voting.Proposal[]",
						"numberOfBytes": "32"
					},
					"t_bytes_storage": {
						"encoding": "bytes",
						"label": "bytes",
						"numberOfBytes": "32"
					},
					"t_enum(VoteStates)5": {
						"encoding": "inplace",
						"label": "enum Voting.VoteStates",
						"numberOfBytes": "1"
					},
					"t_mapping(t_address,t_enum(VoteStates)5)": {
						"encoding": "mapping",
						"key": "t_address",
						"label": "mapping(address => enum Voting.VoteStates)",
						"numberOfBytes": "32",
						"value": "t_enum(VoteStates)5"
					},
					"t_struct(Proposal)19_storage": {
						"encoding": "inplace",
						"label": "struct Voting.Proposal",
						"members": [
							{
								"astId": 7,
								"contract": "Solidity Basic Projects/Voting.sol:Voting",
								"label": "target",
								"offset": 0,
								"slot": "0",
								"type": "t_address"
							},
							{
								"astId": 9,
								"contract": "Solidity Basic Projects/Voting.sol:Voting",
								"label": "data",
								"offset": 0,
								"slot": "1",
								"type": "t_bytes_storage"
							},
							{
								"astId": 11,
								"contract": "Solidity Basic Projects/Voting.sol:Voting",
								"label": "yesCount",
								"offset": 0,
								"slot": "2",
								"type": "t_uint256"
							},
							{
								"astId": 13,
								"contract": "Solidity Basic Projects/Voting.sol:Voting",
								"label": "noCount",
								"offset": 0,
								"slot": "3",
								"type": "t_uint256"
							},
							{
								"astId": 18,
								"contract": "Solidity Basic Projects/Voting.sol:Voting",
								"label": "voteState",
								"offset": 0,
								"slot": "4",
								"type": "t_mapping(t_address,t_enum(VoteStates)5)"
							}
						],
						"numberOfBytes": "160"
					},
					"t_uint256": {
						"encoding": "inplace",
						"label": "uint256",
						"numberOfBytes": "32"
					}
				}
			},
			"userdoc": {
				"kind": "user",
				"methods": {},
				"version": 1
			}
		}
	}
}