{
	"Solidity Basic Projects/Crowdfunding.sol": {
		"Crowdfunding": {
			"abi": [
				{
					"inputs": [
						{
							"internalType": "uint256",
							"name": "_target",
							"type": "uint256"
						},
						{
							"internalType": "uint256",
							"name": "_deadline",
							"type": "uint256"
						}
					],
					"stateMutability": "nonpayable",
					"type": "constructor"
				},
				{
					"inputs": [],
					"name": "checkBalance",
					"outputs": [
						{
							"internalType": "uint256",
							"name": "",
							"type": "uint256"
						}
					],
					"stateMutability": "view",
					"type": "function"
				},
				{
					"inputs": [],
					"name": "contribution",
					"outputs": [],
					"stateMutability": "payable",
					"type": "function"
				},
				{
					"inputs": [
						{
							"internalType": "address",
							"name": "",
							"type": "address"
						}
					],
					"name": "contributors",
					"outputs": [
						{
							"internalType": "uint256",
							"name": "",
							"type": "uint256"
						}
					],
					"stateMutability": "view",
					"type": "function"
				},
				{
					"inputs": [
						{
							"internalType": "string",
							"name": "_description",
							"type": "string"
						},
						{
							"internalType": "address payable",
							"name": "_recipient",
							"type": "address"
						},
						{
							"internalType": "uint256",
							"name": "_value",
							"type": "uint256"
						}
					],
					"name": "createRequest",
					"outputs": [],
					"stateMutability": "nonpayable",
					"type": "function"
				},
				{
					"inputs": [],
					"name": "deadline",
					"outputs": [
						{
							"internalType": "uint256",
							"name": "",
							"type": "uint256"
						}
					],
					"stateMutability": "view",
					"type": "function"
				},
				{
					"inputs": [
						{
							"internalType": "uint256",
							"name": "_numRequest",
							"type": "uint256"
						}
					],
					"name": "makePayment",
					"outputs": [],
					"stateMutability": "nonpayable",
					"type": "function"
				},
				{
					"inputs": [],
					"name": "manager",
					"outputs": [
						{
							"internalType": "address",
							"name": "",
							"type": "address"
						}
					],
					"stateMutability": "view",
					"type": "function"
				},
				{
					"inputs": [],
					"name": "minimumContribution",
					"outputs": [
						{
							"internalType": "uint256",
							"name": "",
							"type": "uint256"
						}
					],
					"stateMutability": "view",
					"type": "function"
				},
				{
					"inputs": [],
					"name": "numOfContributors",
					"outputs": [
						{
							"internalType": "uint256",
							"name": "",
							"type": "uint256"
						}
					],
					"stateMutability": "view",
					"type": "function"
				},
				{
					"inputs": [],
					"name": "numRequest",
					"outputs": [
						{
							"internalType": "uint256",
							"name": "",
							"type": "uint256"
						}
					],
					"stateMutability": "view",
					"type": "function"
				},
				{
					"inputs": [],
					"name": "raisedAmount",
					"outputs": [
						{
							"internalType": "uint256",
							"name": "",
							"type": "uint256"
						}
					],
					"stateMutability": "view",
					"type": "function"
				},
				{
					"inputs": [],
					"name": "refund",
					"outputs": [],
					"stateMutability": "nonpayable",
					"type": "function"
				},
				{
					"inputs": [
						{
							"internalType": "uint256",
							"name": "",
							"type": "uint256"
						}
					],
					"name": "request",
					"outputs": [
						{
							"internalType": "string",
							"name": "description",
							"type": "string"
						},
						{
							"internalType": "address payable",
							"name": "recipient",
							"type": "address"
						},
						{
							"internalType": "uint256",
							"name": "value",
							"type": "uint256"
						},
						{
							"internalType": "bool",
							"name": "completed",
							"type": "bool"
						},
						{
							"internalType": "uint256",
							"name": "noOfVoters",
							"type": "uint256"
						}
					],
					"stateMutability": "view",
					"type": "function"
				},
				{
					"inputs": [],
					"name": "target",
					"outputs": [
						{
							"internalType": "uint256",
							"name": "",
							"type": "uint256"
						}
					],
					"stateMutability": "view",
					"type": "function"
				},
				{
					"inputs": [
						{
							"internalType": "uint256",
							"name": "_requestNo",
							"type": "uint256"
						}
					],
					"name": "voteRequest",
					"outputs": [],
					"stateMutability": "nonpayable",
					"type": "function"
				}
			],
			"devdoc": {
				"kind": "dev",
				"methods": {},
				"version": 1
			},
			"evm": {
				"assembly": "    /* \"Solidity Basic Projects/Crowdfunding.sol\":60:3091  contract Crowdfunding {... */\n  mstore(0x40, 0x80)\n    /* \"Solidity Basic Projects/Crowdfunding.sol\":613:810  constructor(uint _target, uint _deadline) {... */\n  callvalue\n  dup1\n  iszero\n  tag_1\n  jumpi\n  0x00\n  dup1\n  revert\ntag_1:\n  pop\n  mload(0x40)\n  sub(codesize, bytecodeSize)\n  dup1\n  bytecodeSize\n  dup4\n  codecopy\n  dup2\n  dup2\n  add\n  0x40\n  mstore\n  dup2\n  add\n  swap1\n  tag_2\n  swap2\n  swap1\n  tag_3\n  jump\t// in\ntag_2:\n    /* \"Solidity Basic Projects/Crowdfunding.sol\":676:686  msg.sender */\n  caller\n    /* \"Solidity Basic Projects/Crowdfunding.sol\":666:673  manager */\n  0x02\n  0x00\n    /* \"Solidity Basic Projects/Crowdfunding.sol\":666:686  manager = msg.sender */\n  0x0100\n  exp\n  dup2\n  sload\n  dup2\n  0xffffffffffffffffffffffffffffffffffffffff\n  mul\n  not\n  and\n  swap1\n  dup4\n  0xffffffffffffffffffffffffffffffffffffffff\n  and\n  mul\n  or\n  swap1\n  sstore\n  pop\n    /* \"Solidity Basic Projects/Crowdfunding.sol\":706:713  _target */\n  dup2\n    /* \"Solidity Basic Projects/Crowdfunding.sol\":697:703  target */\n  0x08\n    /* \"Solidity Basic Projects/Crowdfunding.sol\":697:713  target = _target */\n  dup2\n  swap1\n  sstore\n  pop\n    /* \"Solidity Basic Projects/Crowdfunding.sol\":753:762  _deadline */\n  dup1\n    /* \"Solidity Basic Projects/Crowdfunding.sol\":735:750  block.timestamp */\n  timestamp\n    /* \"Solidity Basic Projects/Crowdfunding.sol\":735:762  block.timestamp + _deadline */\n  tag_6\n  swap2\n  swap1\n  tag_7\n  jump\t// in\ntag_6:\n    /* \"Solidity Basic Projects/Crowdfunding.sol\":724:732  deadline */\n  0x05\n    /* \"Solidity Basic Projects/Crowdfunding.sol\":724:762  deadline = block.timestamp + _deadline */\n  dup2\n  swap1\n  sstore\n  pop\n    /* \"Solidity Basic Projects/Crowdfunding.sol\":795:802  1 ether */\n  0x0de0b6b3a7640000\n    /* \"Solidity Basic Projects/Crowdfunding.sol\":773:792  minimumContribution */\n  0x06\n    /* \"Solidity Basic Projects/Crowdfunding.sol\":773:802  minimumContribution = 1 ether */\n  dup2\n  swap1\n  sstore\n  pop\n    /* \"Solidity Basic Projects/Crowdfunding.sol\":613:810  constructor(uint _target, uint _deadline) {... */\n  pop\n  pop\n    /* \"Solidity Basic Projects/Crowdfunding.sol\":60:3091  contract Crowdfunding {... */\n  jump(tag_8)\n    /* \"#utility.yul\":88:205   */\ntag_10:\n    /* \"#utility.yul\":197:198   */\n  0x00\n    /* \"#utility.yul\":194:195   */\n  dup1\n    /* \"#utility.yul\":187:199   */\n  revert\n    /* \"#utility.yul\":334:411   */\ntag_12:\n    /* \"#utility.yul\":371:378   */\n  0x00\n    /* \"#utility.yul\":400:405   */\n  dup2\n    /* \"#utility.yul\":389:405   */\n  swap1\n  pop\n    /* \"#utility.yul\":334:411   */\n  swap2\n  swap1\n  pop\n  jump\t// out\n    /* \"#utility.yul\":417:539   */\ntag_13:\n    /* \"#utility.yul\":490:514   */\n  tag_22\n    /* \"#utility.yul\":508:513   */\n  dup2\n    /* \"#utility.yul\":490:514   */\n  tag_12\n  jump\t// in\ntag_22:\n    /* \"#utility.yul\":483:488   */\n  dup2\n    /* \"#utility.yul\":480:515   */\n  eq\n    /* \"#utility.yul\":470:533   */\n  tag_23\n  jumpi\n    /* \"#utility.yul\":529:530   */\n  0x00\n    /* \"#utility.yul\":526:527   */\n  dup1\n    /* \"#utility.yul\":519:531   */\n  revert\n    /* \"#utility.yul\":470:533   */\ntag_23:\n    /* \"#utility.yul\":417:539   */\n  pop\n  jump\t// out\n    /* \"#utility.yul\":545:688   */\ntag_14:\n    /* \"#utility.yul\":602:607   */\n  0x00\n    /* \"#utility.yul\":633:639   */\n  dup2\n    /* \"#utility.yul\":627:640   */\n  mload\n    /* \"#utility.yul\":618:640   */\n  swap1\n  pop\n    /* \"#utility.yul\":649:682   */\n  tag_25\n    /* \"#utility.yul\":676:681   */\n  dup2\n    /* \"#utility.yul\":649:682   */\n  tag_13\n  jump\t// in\ntag_25:\n    /* \"#utility.yul\":545:688   */\n  swap3\n  swap2\n  pop\n  pop\n  jump\t// out\n    /* \"#utility.yul\":694:1201   */\ntag_3:\n    /* \"#utility.yul\":773:779   */\n  0x00\n    /* \"#utility.yul\":781:787   */\n  dup1\n    /* \"#utility.yul\":830:832   */\n  0x40\n    /* \"#utility.yul\":818:827   */\n  dup4\n    /* \"#utility.yul\":809:816   */\n  dup6\n    /* \"#utility.yul\":805:828   */\n  sub\n    /* \"#utility.yul\":801:833   */\n  slt\n    /* \"#utility.yul\":798:917   */\n  iszero\n  tag_27\n  jumpi\n    /* \"#utility.yul\":836:915   */\n  tag_28\n  tag_10\n  jump\t// in\ntag_28:\n    /* \"#utility.yul\":798:917   */\ntag_27:\n    /* \"#utility.yul\":956:957   */\n  0x00\n    /* \"#utility.yul\":981:1045   */\n  tag_29\n    /* \"#utility.yul\":1037:1044   */\n  dup6\n    /* \"#utility.yul\":1028:1034   */\n  dup3\n    /* \"#utility.yul\":1017:1026   */\n  dup7\n    /* \"#utility.yul\":1013:1035   */\n  add\n    /* \"#utility.yul\":981:1045   */\n  tag_14\n  jump\t// in\ntag_29:\n    /* \"#utility.yul\":971:1045   */\n  swap3\n  pop\n    /* \"#utility.yul\":927:1055   */\n  pop\n    /* \"#utility.yul\":1094:1096   */\n  0x20\n    /* \"#utility.yul\":1120:1184   */\n  tag_30\n    /* \"#utility.yul\":1176:1183   */\n  dup6\n    /* \"#utility.yul\":1167:1173   */\n  dup3\n    /* \"#utility.yul\":1156:1165   */\n  dup7\n    /* \"#utility.yul\":1152:1174   */\n  add\n    /* \"#utility.yul\":1120:1184   */\n  tag_14\n  jump\t// in\ntag_30:\n    /* \"#utility.yul\":1110:1184   */\n  swap2\n  pop\n    /* \"#utility.yul\":1065:1194   */\n  pop\n    /* \"#utility.yul\":694:1201   */\n  swap3\n  pop\n  swap3\n  swap1\n  pop\n  jump\t// out\n    /* \"#utility.yul\":1207:1387   */\ntag_15:\n    /* \"#utility.yul\":1255:1332   */\n  0x4e487b7100000000000000000000000000000000000000000000000000000000\n    /* \"#utility.yul\":1252:1253   */\n  0x00\n    /* \"#utility.yul\":1245:1333   */\n  mstore\n    /* \"#utility.yul\":1352:1356   */\n  0x11\n    /* \"#utility.yul\":1349:1350   */\n  0x04\n    /* \"#utility.yul\":1342:1357   */\n  mstore\n    /* \"#utility.yul\":1376:1380   */\n  0x24\n    /* \"#utility.yul\":1373:1374   */\n  0x00\n    /* \"#utility.yul\":1366:1381   */\n  revert\n    /* \"#utility.yul\":1393:1584   */\ntag_7:\n    /* \"#utility.yul\":1433:1436   */\n  0x00\n    /* \"#utility.yul\":1452:1472   */\n  tag_33\n    /* \"#utility.yul\":1470:1471   */\n  dup3\n    /* \"#utility.yul\":1452:1472   */\n  tag_12\n  jump\t// in\ntag_33:\n    /* \"#utility.yul\":1447:1472   */\n  swap2\n  pop\n    /* \"#utility.yul\":1486:1506   */\n  tag_34\n    /* \"#utility.yul\":1504:1505   */\n  dup4\n    /* \"#utility.yul\":1486:1506   */\n  tag_12\n  jump\t// in\ntag_34:\n    /* \"#utility.yul\":1481:1506   */\n  swap3\n  pop\n    /* \"#utility.yul\":1529:1530   */\n  dup3\n    /* \"#utility.yul\":1526:1527   */\n  dup3\n    /* \"#utility.yul\":1522:1531   */\n  add\n    /* \"#utility.yul\":1515:1531   */\n  swap1\n  pop\n    /* \"#utility.yul\":1550:1553   */\n  dup1\n    /* \"#utility.yul\":1547:1548   */\n  dup3\n    /* \"#utility.yul\":1544:1554   */\n  gt\n    /* \"#utility.yul\":1541:1577   */\n  iszero\n  tag_35\n  jumpi\n    /* \"#utility.yul\":1557:1575   */\n  tag_36\n  tag_15\n  jump\t// in\ntag_36:\n    /* \"#utility.yul\":1541:1577   */\ntag_35:\n    /* \"#utility.yul\":1393:1584   */\n  swap3\n  swap2\n  pop\n  pop\n  jump\t// out\n    /* \"Solidity Basic Projects/Crowdfunding.sol\":60:3091  contract Crowdfunding {... */\ntag_8:\n  dataSize(sub_0)\n  dup1\n  dataOffset(sub_0)\n  0x00\n  codecopy\n  0x00\n  return\nstop\n\nsub_0: assembly {\n        /* \"Solidity Basic Projects/Crowdfunding.sol\":60:3091  contract Crowdfunding {... */\n      mstore(0x40, 0x80)\n      jumpi(tag_1, lt(calldatasize, 0x04))\n      shr(0xe0, calldataload(0x00))\n      dup1\n      0x5114cb52\n      gt\n      tag_17\n      jumpi\n      dup1\n      0xc59ee1dc\n      gt\n      tag_18\n      jumpi\n      dup1\n      0xc59ee1dc\n      eq\n      tag_13\n      jumpi\n      dup1\n      0xc71daccb\n      eq\n      tag_14\n      jumpi\n      dup1\n      0xd4b83992\n      eq\n      tag_15\n      jumpi\n      dup1\n      0xd845a4b3\n      eq\n      tag_16\n      jumpi\n      jump(tag_1)\n    tag_18:\n      dup1\n      0x5114cb52\n      eq\n      tag_9\n      jumpi\n      dup1\n      0x590e1ae3\n      eq\n      tag_10\n      jumpi\n      dup1\n      0x937e09b1\n      eq\n      tag_11\n      jumpi\n      dup1\n      0xb1b16431\n      eq\n      tag_12\n      jumpi\n      jump(tag_1)\n    tag_17:\n      dup1\n      0x29dcb0cf\n      gt\n      tag_19\n      jumpi\n      dup1\n      0x29dcb0cf\n      eq\n      tag_5\n      jumpi\n      dup1\n      0x481c6a75\n      eq\n      tag_6\n      jumpi\n      dup1\n      0x4cb6f4a5\n      eq\n      tag_7\n      jumpi\n      dup1\n      0x50520b1f\n      eq\n      tag_8\n      jumpi\n      jump(tag_1)\n    tag_19:\n      dup1\n      0x1b16bb5c\n      eq\n      tag_2\n      jumpi\n      dup1\n      0x1e206f15\n      eq\n      tag_3\n      jumpi\n      dup1\n      0x1f6d4942\n      eq\n      tag_4\n      jumpi\n    tag_1:\n      0x00\n      dup1\n      revert\n        /* \"Solidity Basic Projects/Crowdfunding.sol\":937:1373  function createRequest(string calldata _description, address payable _recipient, uint _value) public onlyManager {... */\n    tag_2:\n      callvalue\n      dup1\n      iszero\n      tag_20\n      jumpi\n      0x00\n      dup1\n      revert\n    tag_20:\n      pop\n      tag_21\n      0x04\n      dup1\n      calldatasize\n      sub\n      dup2\n      add\n      swap1\n      tag_22\n      swap2\n      swap1\n      tag_23\n      jump\t// in\n    tag_22:\n      tag_24\n      jump\t// in\n    tag_21:\n      stop\n        /* \"Solidity Basic Projects/Crowdfunding.sol\":425:454  uint public numOfContributors */\n    tag_3:\n      callvalue\n      dup1\n      iszero\n      tag_25\n      jumpi\n      0x00\n      dup1\n      revert\n    tag_25:\n      pop\n      tag_26\n      tag_27\n      jump\t// in\n    tag_26:\n      mload(0x40)\n      tag_28\n      swap2\n      swap1\n      tag_29\n      jump\t// in\n    tag_28:\n      mload(0x40)\n      dup1\n      swap2\n      sub\n      swap1\n      return\n        /* \"Solidity Basic Projects/Crowdfunding.sol\":299:343  mapping(address => uint) public contributors */\n    tag_4:\n      callvalue\n      dup1\n      iszero\n      tag_30\n      jumpi\n      0x00\n      dup1\n      revert\n    tag_30:\n      pop\n      tag_31\n      0x04\n      dup1\n      calldatasize\n      sub\n      dup2\n      add\n      swap1\n      tag_32\n      swap2\n      swap1\n      tag_33\n      jump\t// in\n    tag_32:\n      tag_34\n      jump\t// in\n    tag_31:\n      mload(0x40)\n      tag_35\n      swap2\n      swap1\n      tag_29\n      jump\t// in\n    tag_35:\n      mload(0x40)\n      dup1\n      swap2\n      sub\n      swap1\n      return\n        /* \"Solidity Basic Projects/Crowdfunding.sol\":492:512  uint public deadline */\n    tag_5:\n      callvalue\n      dup1\n      iszero\n      tag_36\n      jumpi\n      0x00\n      dup1\n      revert\n    tag_36:\n      pop\n      tag_37\n      tag_38\n      jump\t// in\n    tag_37:\n      mload(0x40)\n      tag_39\n      swap2\n      swap1\n      tag_29\n      jump\t// in\n    tag_39:\n      mload(0x40)\n      dup1\n      swap2\n      sub\n      swap1\n      return\n        /* \"Solidity Basic Projects/Crowdfunding.sol\":396:418  address public manager */\n    tag_6:\n      callvalue\n      dup1\n      iszero\n      tag_40\n      jumpi\n      0x00\n      dup1\n      revert\n    tag_40:\n      pop\n      tag_41\n      tag_42\n      jump\t// in\n    tag_41:\n      mload(0x40)\n      tag_43\n      swap2\n      swap1\n      tag_44\n      jump\t// in\n    tag_43:\n      mload(0x40)\n      dup1\n      swap2\n      sub\n      swap1\n      return\n        /* \"Solidity Basic Projects/Crowdfunding.sol\":2205:2563  function voteRequest (uint _requestNo) public {... */\n    tag_7:\n      callvalue\n      dup1\n      iszero\n      tag_45\n      jumpi\n      0x00\n      dup1\n      revert\n    tag_45:\n      pop\n      tag_46\n      0x04\n      dup1\n      calldatasize\n      sub\n      dup2\n      add\n      swap1\n      tag_47\n      swap2\n      swap1\n      tag_48\n      jump\t// in\n    tag_47:\n      tag_49\n      jump\t// in\n    tag_46:\n      stop\n        /* \"Solidity Basic Projects/Crowdfunding.sol\":1381:1765  function contribution () public payable {... */\n    tag_8:\n      tag_50\n      tag_51\n      jump\t// in\n    tag_50:\n      stop\n        /* \"Solidity Basic Projects/Crowdfunding.sol\":2571:3088  function makePayment (uint _numRequest) public onlyManager {... */\n    tag_9:\n      callvalue\n      dup1\n      iszero\n      tag_52\n      jumpi\n      0x00\n      dup1\n      revert\n    tag_52:\n      pop\n      tag_53\n      0x04\n      dup1\n      calldatasize\n      sub\n      dup2\n      add\n      swap1\n      tag_54\n      swap2\n      swap1\n      tag_48\n      jump\t// in\n    tag_54:\n      tag_55\n      jump\t// in\n    tag_53:\n      stop\n        /* \"Solidity Basic Projects/Crowdfunding.sol\":1879:2197  function refund() public {... */\n    tag_10:\n      callvalue\n      dup1\n      iszero\n      tag_56\n      jumpi\n      0x00\n      dup1\n      revert\n    tag_56:\n      pop\n      tag_57\n      tag_58\n      jump\t// in\n    tag_57:\n      stop\n        /* \"Solidity Basic Projects/Crowdfunding.sol\":519:550  uint public minimumContribution */\n    tag_11:\n      callvalue\n      dup1\n      iszero\n      tag_59\n      jumpi\n      0x00\n      dup1\n      revert\n    tag_59:\n      pop\n      tag_60\n      tag_61\n      jump\t// in\n    tag_60:\n      mload(0x40)\n      tag_62\n      swap2\n      swap1\n      tag_29\n      jump\t// in\n    tag_62:\n      mload(0x40)\n      dup1\n      swap2\n      sub\n      swap1\n      return\n        /* \"Solidity Basic Projects/Crowdfunding.sol\":557:579  uint public numRequest */\n    tag_12:\n      callvalue\n      dup1\n      iszero\n      tag_63\n      jumpi\n      0x00\n      dup1\n      revert\n    tag_63:\n      pop\n      tag_64\n      tag_65\n      jump\t// in\n    tag_64:\n      mload(0x40)\n      tag_66\n      swap2\n      swap1\n      tag_29\n      jump\t// in\n    tag_66:\n      mload(0x40)\n      dup1\n      swap2\n      sub\n      swap1\n      return\n        /* \"Solidity Basic Projects/Crowdfunding.sol\":461:485  uint public raisedAmount */\n    tag_13:\n      callvalue\n      dup1\n      iszero\n      tag_67\n      jumpi\n      0x00\n      dup1\n      revert\n    tag_67:\n      pop\n      tag_68\n      tag_69\n      jump\t// in\n    tag_68:\n      mload(0x40)\n      tag_70\n      swap2\n      swap1\n      tag_29\n      jump\t// in\n    tag_70:\n      mload(0x40)\n      dup1\n      swap2\n      sub\n      swap1\n      return\n        /* \"Solidity Basic Projects/Crowdfunding.sol\":1773:1871  function checkBalance() public view returns (uint) {... */\n    tag_14:\n      callvalue\n      dup1\n      iszero\n      tag_71\n      jumpi\n      0x00\n      dup1\n      revert\n    tag_71:\n      pop\n      tag_72\n      tag_73\n      jump\t// in\n    tag_72:\n      mload(0x40)\n      tag_74\n      swap2\n      swap1\n      tag_29\n      jump\t// in\n    tag_74:\n      mload(0x40)\n      dup1\n      swap2\n      sub\n      swap1\n      return\n        /* \"Solidity Basic Projects/Crowdfunding.sol\":586:604  uint public target */\n    tag_15:\n      callvalue\n      dup1\n      iszero\n      tag_75\n      jumpi\n      0x00\n      dup1\n      revert\n    tag_75:\n      pop\n      tag_76\n      tag_77\n      jump\t// in\n    tag_76:\n      mload(0x40)\n      tag_78\n      swap2\n      swap1\n      tag_29\n      jump\t// in\n    tag_78:\n      mload(0x40)\n      dup1\n      swap2\n      sub\n      swap1\n      return\n        /* \"Solidity Basic Projects/Crowdfunding.sol\":350:389  mapping(uint => Request) public request */\n    tag_16:\n      callvalue\n      dup1\n      iszero\n      tag_79\n      jumpi\n      0x00\n      dup1\n      revert\n    tag_79:\n      pop\n      tag_80\n      0x04\n      dup1\n      calldatasize\n      sub\n      dup2\n      add\n      swap1\n      tag_81\n      swap2\n      swap1\n      tag_48\n      jump\t// in\n    tag_81:\n      tag_82\n      jump\t// in\n    tag_80:\n      mload(0x40)\n      tag_83\n      swap6\n      swap5\n      swap4\n      swap3\n      swap2\n      swap1\n      tag_84\n      jump\t// in\n    tag_83:\n      mload(0x40)\n      dup1\n      swap2\n      sub\n      swap1\n      return\n        /* \"Solidity Basic Projects/Crowdfunding.sol\":937:1373  function createRequest(string calldata _description, address payable _recipient, uint _value) public onlyManager {... */\n    tag_24:\n        /* \"Solidity Basic Projects/Crowdfunding.sol\":874:881  manager */\n      0x02\n      0x00\n      swap1\n      sload\n      swap1\n      0x0100\n      exp\n      swap1\n      div\n      0xffffffffffffffffffffffffffffffffffffffff\n      and\n        /* \"Solidity Basic Projects/Crowdfunding.sol\":860:881  msg.sender == manager */\n      0xffffffffffffffffffffffffffffffffffffffff\n      and\n        /* \"Solidity Basic Projects/Crowdfunding.sol\":860:870  msg.sender */\n      caller\n        /* \"Solidity Basic Projects/Crowdfunding.sol\":860:881  msg.sender == manager */\n      0xffffffffffffffffffffffffffffffffffffffff\n      and\n      eq\n        /* \"Solidity Basic Projects/Crowdfunding.sol\":852:909  require(msg.sender == manager, 'You are not the manager') */\n      tag_86\n      jumpi\n      mload(0x40)\n      0x08c379a000000000000000000000000000000000000000000000000000000000\n      dup2\n      mstore\n      0x04\n      add\n      tag_87\n      swap1\n      tag_88\n      jump\t// in\n    tag_87:\n      mload(0x40)\n      dup1\n      swap2\n      sub\n      swap1\n      revert\n    tag_86:\n        /* \"Solidity Basic Projects/Crowdfunding.sol\":1061:1087  Request storage newRequest */\n      0x00\n        /* \"Solidity Basic Projects/Crowdfunding.sol\":1090:1097  request */\n      0x01\n        /* \"Solidity Basic Projects/Crowdfunding.sol\":1090:1109  request[numRequest] */\n      0x00\n        /* \"Solidity Basic Projects/Crowdfunding.sol\":1098:1108  numRequest */\n      sload(0x07)\n        /* \"Solidity Basic Projects/Crowdfunding.sol\":1090:1109  request[numRequest] */\n      dup2\n      mstore\n      0x20\n      add\n      swap1\n      dup2\n      mstore\n      0x20\n      add\n      0x00\n      keccak256\n        /* \"Solidity Basic Projects/Crowdfunding.sol\":1061:1109  Request storage newRequest = request[numRequest] */\n      swap1\n      pop\n        /* \"Solidity Basic Projects/Crowdfunding.sol\":1120:1130  numRequest */\n      0x07\n      0x00\n        /* \"Solidity Basic Projects/Crowdfunding.sol\":1120:1132  numRequest++ */\n      dup2\n      sload\n      dup1\n      swap3\n      swap2\n      swap1\n      tag_90\n      swap1\n      tag_91\n      jump\t// in\n    tag_90:\n      swap2\n      swap1\n      pop\n      sstore\n      pop\n        /* \"Solidity Basic Projects/Crowdfunding.sol\":1168:1180  _description */\n      dup5\n      dup5\n        /* \"Solidity Basic Projects/Crowdfunding.sol\":1143:1153  newRequest */\n      dup3\n        /* \"Solidity Basic Projects/Crowdfunding.sol\":1143:1165  newRequest.description */\n      0x00\n      add\n        /* \"Solidity Basic Projects/Crowdfunding.sol\":1143:1180  newRequest.description = _description */\n      swap2\n      dup3\n      tag_92\n      swap3\n      swap2\n      swap1\n      tag_93\n      jump\t// in\n    tag_92:\n      pop\n        /* \"Solidity Basic Projects/Crowdfunding.sol\":1214:1224  _recipient */\n      dup3\n        /* \"Solidity Basic Projects/Crowdfunding.sol\":1191:1201  newRequest */\n      dup2\n        /* \"Solidity Basic Projects/Crowdfunding.sol\":1191:1211  newRequest.recipient */\n      0x01\n      add\n      0x00\n        /* \"Solidity Basic Projects/Crowdfunding.sol\":1191:1224  newRequest.recipient = _recipient */\n      0x0100\n      exp\n      dup2\n      sload\n      dup2\n      0xffffffffffffffffffffffffffffffffffffffff\n      mul\n      not\n      and\n      swap1\n      dup4\n      0xffffffffffffffffffffffffffffffffffffffff\n      and\n      mul\n      or\n      swap1\n      sstore\n      pop\n        /* \"Solidity Basic Projects/Crowdfunding.sol\":1254:1260  _value */\n      dup2\n        /* \"Solidity Basic Projects/Crowdfunding.sol\":1235:1245  newRequest */\n      dup2\n        /* \"Solidity Basic Projects/Crowdfunding.sol\":1235:1251  newRequest.value */\n      0x02\n      add\n        /* \"Solidity Basic Projects/Crowdfunding.sol\":1235:1260  newRequest.value = _value */\n      dup2\n      swap1\n      sstore\n      pop\n        /* \"Solidity Basic Projects/Crowdfunding.sol\":1271:1288  numOfContributors */\n      0x03\n      0x00\n        /* \"Solidity Basic Projects/Crowdfunding.sol\":1271:1290  numOfContributors++ */\n      dup2\n      sload\n      dup1\n      swap3\n      swap2\n      swap1\n      tag_94\n      swap1\n      tag_91\n      jump\t// in\n    tag_94:\n      swap2\n      swap1\n      pop\n      sstore\n      pop\n        /* \"Solidity Basic Projects/Crowdfunding.sol\":1324:1329  false */\n      0x00\n        /* \"Solidity Basic Projects/Crowdfunding.sol\":1301:1311  newRequest */\n      dup2\n        /* \"Solidity Basic Projects/Crowdfunding.sol\":1301:1321  newRequest.completed */\n      0x03\n      add\n      0x00\n        /* \"Solidity Basic Projects/Crowdfunding.sol\":1301:1329  newRequest.completed = false */\n      0x0100\n      exp\n      dup2\n      sload\n      dup2\n      0xff\n      mul\n      not\n      and\n      swap1\n      dup4\n      iszero\n      iszero\n      mul\n      or\n      swap1\n      sstore\n      pop\n        /* \"Solidity Basic Projects/Crowdfunding.sol\":1364:1365  0 */\n      0x00\n        /* \"Solidity Basic Projects/Crowdfunding.sol\":1340:1350  newRequest */\n      dup2\n        /* \"Solidity Basic Projects/Crowdfunding.sol\":1340:1361  newRequest.noOfVoters */\n      0x04\n      add\n        /* \"Solidity Basic Projects/Crowdfunding.sol\":1340:1365  newRequest.noOfVoters = 0 */\n      dup2\n      swap1\n      sstore\n      pop\n        /* \"Solidity Basic Projects/Crowdfunding.sol\":1050:1373  {... */\n      pop\n        /* \"Solidity Basic Projects/Crowdfunding.sol\":937:1373  function createRequest(string calldata _description, address payable _recipient, uint _value) public onlyManager {... */\n      pop\n      pop\n      pop\n      pop\n      jump\t// out\n        /* \"Solidity Basic Projects/Crowdfunding.sol\":425:454  uint public numOfContributors */\n    tag_27:\n      sload(0x03)\n      dup2\n      jump\t// out\n        /* \"Solidity Basic Projects/Crowdfunding.sol\":299:343  mapping(address => uint) public contributors */\n    tag_34:\n      mstore(0x20, 0x00)\n      dup1\n      0x00\n      mstore\n      keccak256(0x00, 0x40)\n      0x00\n      swap2\n      pop\n      swap1\n      pop\n      sload\n      dup2\n      jump\t// out\n        /* \"Solidity Basic Projects/Crowdfunding.sol\":492:512  uint public deadline */\n    tag_38:\n      sload(0x05)\n      dup2\n      jump\t// out\n        /* \"Solidity Basic Projects/Crowdfunding.sol\":396:418  address public manager */\n    tag_42:\n      0x02\n      0x00\n      swap1\n      sload\n      swap1\n      0x0100\n      exp\n      swap1\n      div\n      0xffffffffffffffffffffffffffffffffffffffff\n      and\n      dup2\n      jump\t// out\n        /* \"Solidity Basic Projects/Crowdfunding.sol\":2205:2563  function voteRequest (uint _requestNo) public {... */\n    tag_49:\n        /* \"Solidity Basic Projects/Crowdfunding.sol\":2297:2298  0 */\n      0x00\n        /* \"Solidity Basic Projects/Crowdfunding.sol\":2270:2282  contributors */\n      dup1\n        /* \"Solidity Basic Projects/Crowdfunding.sol\":2270:2294  contributors[msg.sender] */\n      0x00\n        /* \"Solidity Basic Projects/Crowdfunding.sol\":2283:2293  msg.sender */\n      caller\n        /* \"Solidity Basic Projects/Crowdfunding.sol\":2270:2294  contributors[msg.sender] */\n      0xffffffffffffffffffffffffffffffffffffffff\n      and\n      0xffffffffffffffffffffffffffffffffffffffff\n      and\n      dup2\n      mstore\n      0x20\n      add\n      swap1\n      dup2\n      mstore\n      0x20\n      add\n      0x00\n      keccak256\n      sload\n        /* \"Solidity Basic Projects/Crowdfunding.sol\":2270:2298  contributors[msg.sender] > 0 */\n      gt\n        /* \"Solidity Basic Projects/Crowdfunding.sol\":2262:2327  require(contributors[msg.sender] > 0, 'You are not contributors') */\n      tag_96\n      jumpi\n      mload(0x40)\n      0x08c379a000000000000000000000000000000000000000000000000000000000\n      dup2\n      mstore\n      0x04\n      add\n      tag_97\n      swap1\n      tag_98\n      jump\t// in\n    tag_97:\n      mload(0x40)\n      dup1\n      swap2\n      sub\n      swap1\n      revert\n    tag_96:\n        /* \"Solidity Basic Projects/Crowdfunding.sol\":2338:2365  Request storage thisRequest */\n      0x00\n        /* \"Solidity Basic Projects/Crowdfunding.sol\":2368:2375  request */\n      0x01\n        /* \"Solidity Basic Projects/Crowdfunding.sol\":2368:2387  request[_requestNo] */\n      0x00\n        /* \"Solidity Basic Projects/Crowdfunding.sol\":2376:2386  _requestNo */\n      dup4\n        /* \"Solidity Basic Projects/Crowdfunding.sol\":2368:2387  request[_requestNo] */\n      dup2\n      mstore\n      0x20\n      add\n      swap1\n      dup2\n      mstore\n      0x20\n      add\n      0x00\n      keccak256\n        /* \"Solidity Basic Projects/Crowdfunding.sol\":2338:2387  Request storage thisRequest = request[_requestNo] */\n      swap1\n      pop\n        /* \"Solidity Basic Projects/Crowdfunding.sol\":2440:2445  false */\n      0x00\n        /* \"Solidity Basic Projects/Crowdfunding.sol\":2406:2445  thisRequest.voters[msg.sender] == false */\n      iszero\n      iszero\n        /* \"Solidity Basic Projects/Crowdfunding.sol\":2406:2417  thisRequest */\n      dup2\n        /* \"Solidity Basic Projects/Crowdfunding.sol\":2406:2424  thisRequest.voters */\n      0x05\n      add\n        /* \"Solidity Basic Projects/Crowdfunding.sol\":2406:2436  thisRequest.voters[msg.sender] */\n      0x00\n        /* \"Solidity Basic Projects/Crowdfunding.sol\":2425:2435  msg.sender */\n      caller\n        /* \"Solidity Basic Projects/Crowdfunding.sol\":2406:2436  thisRequest.voters[msg.sender] */\n      0xffffffffffffffffffffffffffffffffffffffff\n      and\n      0xffffffffffffffffffffffffffffffffffffffff\n      and\n      dup2\n      mstore\n      0x20\n      add\n      swap1\n      dup2\n      mstore\n      0x20\n      add\n      0x00\n      keccak256\n      0x00\n      swap1\n      sload\n      swap1\n      0x0100\n      exp\n      swap1\n      div\n      0xff\n      and\n        /* \"Solidity Basic Projects/Crowdfunding.sol\":2406:2445  thisRequest.voters[msg.sender] == false */\n      iszero\n      iszero\n      eq\n        /* \"Solidity Basic Projects/Crowdfunding.sol\":2398:2472  require(thisRequest.voters[msg.sender] == false, 'You have already voted') */\n      tag_99\n      jumpi\n      mload(0x40)\n      0x08c379a000000000000000000000000000000000000000000000000000000000\n      dup2\n      mstore\n      0x04\n      add\n      tag_100\n      swap1\n      tag_101\n      jump\t// in\n    tag_100:\n      mload(0x40)\n      dup1\n      swap2\n      sub\n      swap1\n      revert\n    tag_99:\n        /* \"Solidity Basic Projects/Crowdfunding.sol\":2516:2520  true */\n      0x01\n        /* \"Solidity Basic Projects/Crowdfunding.sol\":2483:2494  thisRequest */\n      dup2\n        /* \"Solidity Basic Projects/Crowdfunding.sol\":2483:2501  thisRequest.voters */\n      0x05\n      add\n        /* \"Solidity Basic Projects/Crowdfunding.sol\":2483:2513  thisRequest.voters[msg.sender] */\n      0x00\n        /* \"Solidity Basic Projects/Crowdfunding.sol\":2502:2512  msg.sender */\n      caller\n        /* \"Solidity Basic Projects/Crowdfunding.sol\":2483:2513  thisRequest.voters[msg.sender] */\n      0xffffffffffffffffffffffffffffffffffffffff\n      and\n      0xffffffffffffffffffffffffffffffffffffffff\n      and\n      dup2\n      mstore\n      0x20\n      add\n      swap1\n      dup2\n      mstore\n      0x20\n      add\n      0x00\n      keccak256\n      0x00\n        /* \"Solidity Basic Projects/Crowdfunding.sol\":2483:2520  thisRequest.voters[msg.sender] = true */\n      0x0100\n      exp\n      dup2\n      sload\n      dup2\n      0xff\n      mul\n      not\n      and\n      swap1\n      dup4\n      iszero\n      iszero\n      mul\n      or\n      swap1\n      sstore\n      pop\n        /* \"Solidity Basic Projects/Crowdfunding.sol\":2531:2542  thisRequest */\n      dup1\n        /* \"Solidity Basic Projects/Crowdfunding.sol\":2531:2553  thisRequest.noOfVoters */\n      0x04\n      add\n      0x00\n        /* \"Solidity Basic Projects/Crowdfunding.sol\":2531:2555  thisRequest.noOfVoters++ */\n      dup2\n      sload\n      dup1\n      swap3\n      swap2\n      swap1\n      tag_102\n      swap1\n      tag_91\n      jump\t// in\n    tag_102:\n      swap2\n      swap1\n      pop\n      sstore\n      pop\n        /* \"Solidity Basic Projects/Crowdfunding.sol\":2251:2563  {... */\n      pop\n        /* \"Solidity Basic Projects/Crowdfunding.sol\":2205:2563  function voteRequest (uint _requestNo) public {... */\n      pop\n      jump\t// out\n        /* \"Solidity Basic Projects/Crowdfunding.sol\":1381:1765  function contribution () public payable {... */\n    tag_51:\n        /* \"Solidity Basic Projects/Crowdfunding.sol\":1453:1472  minimumContribution */\n      sload(0x06)\n        /* \"Solidity Basic Projects/Crowdfunding.sol\":1440:1449  msg.value */\n      callvalue\n        /* \"Solidity Basic Projects/Crowdfunding.sol\":1440:1472  msg.value >= minimumContribution */\n      lt\n      iszero\n        /* \"Solidity Basic Projects/Crowdfunding.sol\":1432:1509  require(msg.value >= minimumContribution, 'Minimum Contribution is required') */\n      tag_104\n      jumpi\n      mload(0x40)\n      0x08c379a000000000000000000000000000000000000000000000000000000000\n      dup2\n      mstore\n      0x04\n      add\n      tag_105\n      swap1\n      tag_106\n      jump\t// in\n    tag_105:\n      mload(0x40)\n      dup1\n      swap2\n      sub\n      swap1\n      revert\n    tag_104:\n        /* \"Solidity Basic Projects/Crowdfunding.sol\":1546:1554  deadline */\n      sload(0x05)\n        /* \"Solidity Basic Projects/Crowdfunding.sol\":1528:1543  block.timestamp */\n      timestamp\n        /* \"Solidity Basic Projects/Crowdfunding.sol\":1528:1554  block.timestamp < deadline */\n      lt\n        /* \"Solidity Basic Projects/Crowdfunding.sol\":1520:1578  require(block.timestamp < deadline, 'Deadline has passed') */\n      tag_107\n      jumpi\n      mload(0x40)\n      0x08c379a000000000000000000000000000000000000000000000000000000000\n      dup2\n      mstore\n      0x04\n      add\n      tag_108\n      swap1\n      tag_109\n      jump\t// in\n    tag_108:\n      mload(0x40)\n      dup1\n      swap2\n      sub\n      swap1\n      revert\n    tag_107:\n        /* \"Solidity Basic Projects/Crowdfunding.sol\":1623:1624  0 */\n      0x00\n        /* \"Solidity Basic Projects/Crowdfunding.sol\":1595:1607  contributors */\n      dup1\n        /* \"Solidity Basic Projects/Crowdfunding.sol\":1595:1619  contributors[msg.sender] */\n      0x00\n        /* \"Solidity Basic Projects/Crowdfunding.sol\":1608:1618  msg.sender */\n      caller\n        /* \"Solidity Basic Projects/Crowdfunding.sol\":1595:1619  contributors[msg.sender] */\n      0xffffffffffffffffffffffffffffffffffffffff\n      and\n      0xffffffffffffffffffffffffffffffffffffffff\n      and\n      dup2\n      mstore\n      0x20\n      add\n      swap1\n      dup2\n      mstore\n      0x20\n      add\n      0x00\n      keccak256\n      sload\n        /* \"Solidity Basic Projects/Crowdfunding.sol\":1595:1624  contributors[msg.sender] == 0 */\n      sub\n        /* \"Solidity Basic Projects/Crowdfunding.sol\":1591:1672  if (contributors[msg.sender] == 0) {... */\n      tag_110\n      jumpi\n        /* \"Solidity Basic Projects/Crowdfunding.sol\":1641:1658  numOfContributors */\n      0x03\n      0x00\n        /* \"Solidity Basic Projects/Crowdfunding.sol\":1641:1660  numOfContributors++ */\n      dup2\n      sload\n      dup1\n      swap3\n      swap2\n      swap1\n      tag_111\n      swap1\n      tag_91\n      jump\t// in\n    tag_111:\n      swap2\n      swap1\n      pop\n      sstore\n      pop\n        /* \"Solidity Basic Projects/Crowdfunding.sol\":1591:1672  if (contributors[msg.sender] == 0) {... */\n    tag_110:\n        /* \"Solidity Basic Projects/Crowdfunding.sol\":1712:1721  msg.value */\n      callvalue\n        /* \"Solidity Basic Projects/Crowdfunding.sol\":1684:1696  contributors */\n      0x00\n        /* \"Solidity Basic Projects/Crowdfunding.sol\":1684:1708  contributors[msg.sender] */\n      dup1\n        /* \"Solidity Basic Projects/Crowdfunding.sol\":1697:1707  msg.sender */\n      caller\n        /* \"Solidity Basic Projects/Crowdfunding.sol\":1684:1708  contributors[msg.sender] */\n      0xffffffffffffffffffffffffffffffffffffffff\n      and\n      0xffffffffffffffffffffffffffffffffffffffff\n      and\n      dup2\n      mstore\n      0x20\n      add\n      swap1\n      dup2\n      mstore\n      0x20\n      add\n      0x00\n      keccak256\n      0x00\n        /* \"Solidity Basic Projects/Crowdfunding.sol\":1684:1721  contributors[msg.sender] += msg.value */\n      dup3\n      dup3\n      sload\n      tag_112\n      swap2\n      swap1\n      tag_113\n      jump\t// in\n    tag_112:\n      swap3\n      pop\n      pop\n      dup2\n      swap1\n      sstore\n      pop\n        /* \"Solidity Basic Projects/Crowdfunding.sol\":1748:1757  msg.value */\n      callvalue\n        /* \"Solidity Basic Projects/Crowdfunding.sol\":1732:1744  raisedAmount */\n      0x04\n      0x00\n        /* \"Solidity Basic Projects/Crowdfunding.sol\":1732:1757  raisedAmount += msg.value */\n      dup3\n      dup3\n      sload\n      tag_114\n      swap2\n      swap1\n      tag_113\n      jump\t// in\n    tag_114:\n      swap3\n      pop\n      pop\n      dup2\n      swap1\n      sstore\n      pop\n        /* \"Solidity Basic Projects/Crowdfunding.sol\":1381:1765  function contribution () public payable {... */\n      jump\t// out\n        /* \"Solidity Basic Projects/Crowdfunding.sol\":2571:3088  function makePayment (uint _numRequest) public onlyManager {... */\n    tag_55:\n        /* \"Solidity Basic Projects/Crowdfunding.sol\":874:881  manager */\n      0x02\n      0x00\n      swap1\n      sload\n      swap1\n      0x0100\n      exp\n      swap1\n      div\n      0xffffffffffffffffffffffffffffffffffffffff\n      and\n        /* \"Solidity Basic Projects/Crowdfunding.sol\":860:881  msg.sender == manager */\n      0xffffffffffffffffffffffffffffffffffffffff\n      and\n        /* \"Solidity Basic Projects/Crowdfunding.sol\":860:870  msg.sender */\n      caller\n        /* \"Solidity Basic Projects/Crowdfunding.sol\":860:881  msg.sender == manager */\n      0xffffffffffffffffffffffffffffffffffffffff\n      and\n      eq\n        /* \"Solidity Basic Projects/Crowdfunding.sol\":852:909  require(msg.sender == manager, 'You are not the manager') */\n      tag_116\n      jumpi\n      mload(0x40)\n      0x08c379a000000000000000000000000000000000000000000000000000000000\n      dup2\n      mstore\n      0x04\n      add\n      tag_117\n      swap1\n      tag_88\n      jump\t// in\n    tag_117:\n      mload(0x40)\n      dup1\n      swap2\n      sub\n      swap1\n      revert\n    tag_116:\n        /* \"Solidity Basic Projects/Crowdfunding.sol\":2665:2671  target */\n      sload(0x08)\n        /* \"Solidity Basic Projects/Crowdfunding.sol\":2649:2661  raisedAmount */\n      sload(0x04)\n        /* \"Solidity Basic Projects/Crowdfunding.sol\":2649:2671  raisedAmount >= target */\n      lt\n      iszero\n        /* \"Solidity Basic Projects/Crowdfunding.sol\":2641:2698  require(raisedAmount >= target, 'Target not yet reached') */\n      tag_119\n      jumpi\n      mload(0x40)\n      0x08c379a000000000000000000000000000000000000000000000000000000000\n      dup2\n      mstore\n      0x04\n      add\n      tag_120\n      swap1\n      tag_121\n      jump\t// in\n    tag_120:\n      mload(0x40)\n      dup1\n      swap2\n      sub\n      swap1\n      revert\n    tag_119:\n        /* \"Solidity Basic Projects/Crowdfunding.sol\":2709:2736  Request storage thisRequest */\n      0x00\n        /* \"Solidity Basic Projects/Crowdfunding.sol\":2739:2746  request */\n      0x01\n        /* \"Solidity Basic Projects/Crowdfunding.sol\":2739:2759  request[_numRequest] */\n      0x00\n        /* \"Solidity Basic Projects/Crowdfunding.sol\":2747:2758  _numRequest */\n      dup4\n        /* \"Solidity Basic Projects/Crowdfunding.sol\":2739:2759  request[_numRequest] */\n      dup2\n      mstore\n      0x20\n      add\n      swap1\n      dup2\n      mstore\n      0x20\n      add\n      0x00\n      keccak256\n        /* \"Solidity Basic Projects/Crowdfunding.sol\":2709:2759  Request storage thisRequest = request[_numRequest] */\n      swap1\n      pop\n        /* \"Solidity Basic Projects/Crowdfunding.sol\":2803:2808  false */\n      0x00\n        /* \"Solidity Basic Projects/Crowdfunding.sol\":2778:2808  thisRequest.completed == false */\n      iszero\n      iszero\n        /* \"Solidity Basic Projects/Crowdfunding.sol\":2778:2789  thisRequest */\n      dup2\n        /* \"Solidity Basic Projects/Crowdfunding.sol\":2778:2799  thisRequest.completed */\n      0x03\n      add\n      0x00\n      swap1\n      sload\n      swap1\n      0x0100\n      exp\n      swap1\n      div\n      0xff\n      and\n        /* \"Solidity Basic Projects/Crowdfunding.sol\":2778:2808  thisRequest.completed == false */\n      iszero\n      iszero\n      eq\n        /* \"Solidity Basic Projects/Crowdfunding.sol\":2770:2844  require(thisRequest.completed == false, 'This request has been completed') */\n      tag_122\n      jumpi\n      mload(0x40)\n      0x08c379a000000000000000000000000000000000000000000000000000000000\n      dup2\n      mstore\n      0x04\n      add\n      tag_123\n      swap1\n      tag_124\n      jump\t// in\n    tag_123:\n      mload(0x40)\n      dup1\n      swap2\n      sub\n      swap1\n      revert\n    tag_122:\n        /* \"Solidity Basic Projects/Crowdfunding.sol\":2908:2909  2 */\n      0x02\n        /* \"Solidity Basic Projects/Crowdfunding.sol\":2888:2905  numOfContributors */\n      sload(0x03)\n        /* \"Solidity Basic Projects/Crowdfunding.sol\":2888:2909  numOfContributors / 2 */\n      tag_125\n      swap2\n      swap1\n      tag_126\n      jump\t// in\n    tag_125:\n        /* \"Solidity Basic Projects/Crowdfunding.sol\":2863:2874  thisRequest */\n      dup2\n        /* \"Solidity Basic Projects/Crowdfunding.sol\":2863:2885  thisRequest.noOfVoters */\n      0x04\n      add\n      sload\n        /* \"Solidity Basic Projects/Crowdfunding.sol\":2863:2909  thisRequest.noOfVoters > numOfContributors / 2 */\n      gt\n        /* \"Solidity Basic Projects/Crowdfunding.sol\":2855:2981  require(thisRequest.noOfVoters > numOfContributors / 2, 'You need more than half of the contributor to complete this request') */\n      tag_127\n      jumpi\n      mload(0x40)\n      0x08c379a000000000000000000000000000000000000000000000000000000000\n      dup2\n      mstore\n      0x04\n      add\n      tag_128\n      swap1\n      tag_129\n      jump\t// in\n    tag_128:\n      mload(0x40)\n      dup1\n      swap2\n      sub\n      swap1\n      revert\n    tag_127:\n        /* \"Solidity Basic Projects/Crowdfunding.sol\":2992:3003  thisRequest */\n      dup1\n        /* \"Solidity Basic Projects/Crowdfunding.sol\":2992:3013  thisRequest.recipient */\n      0x01\n      add\n      0x00\n      swap1\n      sload\n      swap1\n      0x0100\n      exp\n      swap1\n      div\n      0xffffffffffffffffffffffffffffffffffffffff\n      and\n        /* \"Solidity Basic Projects/Crowdfunding.sol\":2992:3022  thisRequest.recipient.transfer */\n      0xffffffffffffffffffffffffffffffffffffffff\n      and\n        /* \"Solidity Basic Projects/Crowdfunding.sol\":2992:3041  thisRequest.recipient.transfer(thisRequest.value) */\n      0x08fc\n        /* \"Solidity Basic Projects/Crowdfunding.sol\":3023:3034  thisRequest */\n      dup3\n        /* \"Solidity Basic Projects/Crowdfunding.sol\":3023:3040  thisRequest.value */\n      0x02\n      add\n      sload\n        /* \"Solidity Basic Projects/Crowdfunding.sol\":2992:3041  thisRequest.recipient.transfer(thisRequest.value) */\n      swap1\n      dup2\n      iszero\n      mul\n      swap1\n      mload(0x40)\n      0x00\n      mload(0x40)\n      dup1\n      dup4\n      sub\n      dup2\n      dup6\n      dup9\n      dup9\n      call\n      swap4\n      pop\n      pop\n      pop\n      pop\n      iszero\n      dup1\n      iszero\n      tag_131\n      jumpi\n      returndatasize\n      0x00\n      dup1\n      returndatacopy\n      revert(0x00, returndatasize)\n    tag_131:\n      pop\n        /* \"Solidity Basic Projects/Crowdfunding.sol\":3076:3080  true */\n      0x01\n        /* \"Solidity Basic Projects/Crowdfunding.sol\":3052:3063  thisRequest */\n      dup2\n        /* \"Solidity Basic Projects/Crowdfunding.sol\":3052:3073  thisRequest.completed */\n      0x03\n      add\n      0x00\n        /* \"Solidity Basic Projects/Crowdfunding.sol\":3052:3080  thisRequest.completed = true */\n      0x0100\n      exp\n      dup2\n      sload\n      dup2\n      0xff\n      mul\n      not\n      and\n      swap1\n      dup4\n      iszero\n      iszero\n      mul\n      or\n      swap1\n      sstore\n      pop\n        /* \"Solidity Basic Projects/Crowdfunding.sol\":2630:3088  {... */\n      pop\n        /* \"Solidity Basic Projects/Crowdfunding.sol\":2571:3088  function makePayment (uint _numRequest) public onlyManager {... */\n      pop\n      jump\t// out\n        /* \"Solidity Basic Projects/Crowdfunding.sol\":1879:2197  function refund() public {... */\n    tag_58:\n        /* \"Solidity Basic Projects/Crowdfunding.sol\":1941:1949  deadline */\n      sload(0x05)\n        /* \"Solidity Basic Projects/Crowdfunding.sol\":1923:1938  block.timestamp */\n      timestamp\n        /* \"Solidity Basic Projects/Crowdfunding.sol\":1923:1949  block.timestamp > deadline */\n      gt\n        /* \"Solidity Basic Projects/Crowdfunding.sol\":1923:1974  block.timestamp > deadline && raisedAmount < target */\n      dup1\n      iszero\n      tag_133\n      jumpi\n      pop\n        /* \"Solidity Basic Projects/Crowdfunding.sol\":1968:1974  target */\n      sload(0x08)\n        /* \"Solidity Basic Projects/Crowdfunding.sol\":1953:1965  raisedAmount */\n      sload(0x04)\n        /* \"Solidity Basic Projects/Crowdfunding.sol\":1953:1974  raisedAmount < target */\n      lt\n        /* \"Solidity Basic Projects/Crowdfunding.sol\":1923:1974  block.timestamp > deadline && raisedAmount < target */\n    tag_133:\n        /* \"Solidity Basic Projects/Crowdfunding.sol\":1915:2009  require(block.timestamp > deadline && raisedAmount < target, 'You are not eligible to refund') */\n      tag_134\n      jumpi\n      mload(0x40)\n      0x08c379a000000000000000000000000000000000000000000000000000000000\n      dup2\n      mstore\n      0x04\n      add\n      tag_135\n      swap1\n      tag_136\n      jump\t// in\n    tag_135:\n      mload(0x40)\n      dup1\n      swap2\n      sub\n      swap1\n      revert\n    tag_134:\n        /* \"Solidity Basic Projects/Crowdfunding.sol\":2055:2056  0 */\n      0x00\n        /* \"Solidity Basic Projects/Crowdfunding.sol\":2028:2040  contributors */\n      dup1\n        /* \"Solidity Basic Projects/Crowdfunding.sol\":2028:2052  contributors[msg.sender] */\n      0x00\n        /* \"Solidity Basic Projects/Crowdfunding.sol\":2041:2051  msg.sender */\n      caller\n        /* \"Solidity Basic Projects/Crowdfunding.sol\":2028:2052  contributors[msg.sender] */\n      0xffffffffffffffffffffffffffffffffffffffff\n      and\n      0xffffffffffffffffffffffffffffffffffffffff\n      and\n      dup2\n      mstore\n      0x20\n      add\n      swap1\n      dup2\n      mstore\n      0x20\n      add\n      0x00\n      keccak256\n      sload\n        /* \"Solidity Basic Projects/Crowdfunding.sol\":2028:2056  contributors[msg.sender] > 0 */\n      gt\n        /* \"Solidity Basic Projects/Crowdfunding.sol\":2020:2085  require(contributors[msg.sender] > 0, 'You are not contributors') */\n      tag_137\n      jumpi\n      mload(0x40)\n      0x08c379a000000000000000000000000000000000000000000000000000000000\n      dup2\n      mstore\n      0x04\n      add\n      tag_138\n      swap1\n      tag_98\n      jump\t// in\n    tag_138:\n      mload(0x40)\n      dup1\n      swap2\n      sub\n      swap1\n      revert\n    tag_137:\n        /* \"Solidity Basic Projects/Crowdfunding.sol\":2104:2114  msg.sender */\n      caller\n        /* \"Solidity Basic Projects/Crowdfunding.sol\":2096:2124  payable(msg.sender).transfer */\n      0xffffffffffffffffffffffffffffffffffffffff\n      and\n        /* \"Solidity Basic Projects/Crowdfunding.sol\":2096:2150  payable(msg.sender).transfer(contributors[msg.sender]) */\n      0x08fc\n        /* \"Solidity Basic Projects/Crowdfunding.sol\":2125:2137  contributors */\n      0x00\n        /* \"Solidity Basic Projects/Crowdfunding.sol\":2125:2149  contributors[msg.sender] */\n      dup1\n        /* \"Solidity Basic Projects/Crowdfunding.sol\":2138:2148  msg.sender */\n      caller\n        /* \"Solidity Basic Projects/Crowdfunding.sol\":2125:2149  contributors[msg.sender] */\n      0xffffffffffffffffffffffffffffffffffffffff\n      and\n      0xffffffffffffffffffffffffffffffffffffffff\n      and\n      dup2\n      mstore\n      0x20\n      add\n      swap1\n      dup2\n      mstore\n      0x20\n      add\n      0x00\n      keccak256\n      sload\n        /* \"Solidity Basic Projects/Crowdfunding.sol\":2096:2150  payable(msg.sender).transfer(contributors[msg.sender]) */\n      swap1\n      dup2\n      iszero\n      mul\n      swap1\n      mload(0x40)\n      0x00\n      mload(0x40)\n      dup1\n      dup4\n      sub\n      dup2\n      dup6\n      dup9\n      dup9\n      call\n      swap4\n      pop\n      pop\n      pop\n      pop\n      iszero\n      dup1\n      iszero\n      tag_140\n      jumpi\n      returndatasize\n      0x00\n      dup1\n      returndatacopy\n      revert(0x00, returndatasize)\n    tag_140:\n      pop\n        /* \"Solidity Basic Projects/Crowdfunding.sol\":2188:2189  0 */\n      0x00\n        /* \"Solidity Basic Projects/Crowdfunding.sol\":2161:2173  contributors */\n      dup1\n        /* \"Solidity Basic Projects/Crowdfunding.sol\":2161:2185  contributors[msg.sender] */\n      0x00\n        /* \"Solidity Basic Projects/Crowdfunding.sol\":2174:2184  msg.sender */\n      caller\n        /* \"Solidity Basic Projects/Crowdfunding.sol\":2161:2185  contributors[msg.sender] */\n      0xffffffffffffffffffffffffffffffffffffffff\n      and\n      0xffffffffffffffffffffffffffffffffffffffff\n      and\n      dup2\n      mstore\n      0x20\n      add\n      swap1\n      dup2\n      mstore\n      0x20\n      add\n      0x00\n      keccak256\n        /* \"Solidity Basic Projects/Crowdfunding.sol\":2161:2189  contributors[msg.sender] = 0 */\n      dup2\n      swap1\n      sstore\n      pop\n        /* \"Solidity Basic Projects/Crowdfunding.sol\":1879:2197  function refund() public {... */\n      jump\t// out\n        /* \"Solidity Basic Projects/Crowdfunding.sol\":519:550  uint public minimumContribution */\n    tag_61:\n      sload(0x06)\n      dup2\n      jump\t// out\n        /* \"Solidity Basic Projects/Crowdfunding.sol\":557:579  uint public numRequest */\n    tag_65:\n      sload(0x07)\n      dup2\n      jump\t// out\n        /* \"Solidity Basic Projects/Crowdfunding.sol\":461:485  uint public raisedAmount */\n    tag_69:\n      sload(0x04)\n      dup2\n      jump\t// out\n        /* \"Solidity Basic Projects/Crowdfunding.sol\":1773:1871  function checkBalance() public view returns (uint) {... */\n    tag_73:\n        /* \"Solidity Basic Projects/Crowdfunding.sol\":1818:1822  uint */\n      0x00\n        /* \"Solidity Basic Projects/Crowdfunding.sol\":1842:1863  address(this).balance */\n      selfbalance\n        /* \"Solidity Basic Projects/Crowdfunding.sol\":1835:1863  return address(this).balance */\n      swap1\n      pop\n        /* \"Solidity Basic Projects/Crowdfunding.sol\":1773:1871  function checkBalance() public view returns (uint) {... */\n      swap1\n      jump\t// out\n        /* \"Solidity Basic Projects/Crowdfunding.sol\":586:604  uint public target */\n    tag_77:\n      sload(0x08)\n      dup2\n      jump\t// out\n        /* \"Solidity Basic Projects/Crowdfunding.sol\":350:389  mapping(uint => Request) public request */\n    tag_82:\n      mstore(0x20, 0x01)\n      dup1\n      0x00\n      mstore\n      keccak256(0x00, 0x40)\n      0x00\n      swap2\n      pop\n      swap1\n      pop\n      dup1\n      0x00\n      add\n      dup1\n      sload\n      tag_142\n      swap1\n      tag_143\n      jump\t// in\n    tag_142:\n      dup1\n      0x1f\n      add\n      0x20\n      dup1\n      swap2\n      div\n      mul\n      0x20\n      add\n      mload(0x40)\n      swap1\n      dup2\n      add\n      0x40\n      mstore\n      dup1\n      swap3\n      swap2\n      swap1\n      dup2\n      dup2\n      mstore\n      0x20\n      add\n      dup3\n      dup1\n      sload\n      tag_144\n      swap1\n      tag_143\n      jump\t// in\n    tag_144:\n      dup1\n      iszero\n      tag_145\n      jumpi\n      dup1\n      0x1f\n      lt\n      tag_146\n      jumpi\n      0x0100\n      dup1\n      dup4\n      sload\n      div\n      mul\n      dup4\n      mstore\n      swap2\n      0x20\n      add\n      swap2\n      jump(tag_145)\n    tag_146:\n      dup3\n      add\n      swap2\n      swap1\n      0x00\n      mstore\n      keccak256(0x00, 0x20)\n      swap1\n    tag_147:\n      dup2\n      sload\n      dup2\n      mstore\n      swap1\n      0x01\n      add\n      swap1\n      0x20\n      add\n      dup1\n      dup4\n      gt\n      tag_147\n      jumpi\n      dup3\n      swap1\n      sub\n      0x1f\n      and\n      dup3\n      add\n      swap2\n    tag_145:\n      pop\n      pop\n      pop\n      pop\n      pop\n      swap1\n      dup1\n      0x01\n      add\n      0x00\n      swap1\n      sload\n      swap1\n      0x0100\n      exp\n      swap1\n      div\n      0xffffffffffffffffffffffffffffffffffffffff\n      and\n      swap1\n      dup1\n      0x02\n      add\n      sload\n      swap1\n      dup1\n      0x03\n      add\n      0x00\n      swap1\n      sload\n      swap1\n      0x0100\n      exp\n      swap1\n      div\n      0xff\n      and\n      swap1\n      dup1\n      0x04\n      add\n      sload\n      swap1\n      pop\n      dup6\n      jump\t// out\n        /* \"#utility.yul\":88:205   */\n    tag_149:\n        /* \"#utility.yul\":197:198   */\n      0x00\n        /* \"#utility.yul\":194:195   */\n      dup1\n        /* \"#utility.yul\":187:199   */\n      revert\n        /* \"#utility.yul\":211:328   */\n    tag_150:\n        /* \"#utility.yul\":320:321   */\n      0x00\n        /* \"#utility.yul\":317:318   */\n      dup1\n        /* \"#utility.yul\":310:322   */\n      revert\n        /* \"#utility.yul\":334:451   */\n    tag_151:\n        /* \"#utility.yul\":443:444   */\n      0x00\n        /* \"#utility.yul\":440:441   */\n      dup1\n        /* \"#utility.yul\":433:445   */\n      revert\n        /* \"#utility.yul\":457:574   */\n    tag_152:\n        /* \"#utility.yul\":566:567   */\n      0x00\n        /* \"#utility.yul\":563:564   */\n      dup1\n        /* \"#utility.yul\":556:568   */\n      revert\n        /* \"#utility.yul\":580:697   */\n    tag_153:\n        /* \"#utility.yul\":689:690   */\n      0x00\n        /* \"#utility.yul\":686:687   */\n      dup1\n        /* \"#utility.yul\":679:691   */\n      revert\n        /* \"#utility.yul\":717:1270   */\n    tag_154:\n        /* \"#utility.yul\":775:783   */\n      0x00\n        /* \"#utility.yul\":785:791   */\n      dup1\n        /* \"#utility.yul\":835:838   */\n      dup4\n        /* \"#utility.yul\":828:832   */\n      0x1f\n        /* \"#utility.yul\":820:826   */\n      dup5\n        /* \"#utility.yul\":816:833   */\n      add\n        /* \"#utility.yul\":812:839   */\n      slt\n        /* \"#utility.yul\":802:924   */\n      tag_221\n      jumpi\n        /* \"#utility.yul\":843:922   */\n      tag_222\n      tag_151\n      jump\t// in\n    tag_222:\n        /* \"#utility.yul\":802:924   */\n    tag_221:\n        /* \"#utility.yul\":956:962   */\n      dup3\n        /* \"#utility.yul\":943:963   */\n      calldataload\n        /* \"#utility.yul\":933:963   */\n      swap1\n      pop\n        /* \"#utility.yul\":986:1004   */\n      0xffffffffffffffff\n        /* \"#utility.yul\":978:984   */\n      dup2\n        /* \"#utility.yul\":975:1005   */\n      gt\n        /* \"#utility.yul\":972:1089   */\n      iszero\n      tag_223\n      jumpi\n        /* \"#utility.yul\":1008:1087   */\n      tag_224\n      tag_152\n      jump\t// in\n    tag_224:\n        /* \"#utility.yul\":972:1089   */\n    tag_223:\n        /* \"#utility.yul\":1122:1126   */\n      0x20\n        /* \"#utility.yul\":1114:1120   */\n      dup4\n        /* \"#utility.yul\":1110:1127   */\n      add\n        /* \"#utility.yul\":1098:1127   */\n      swap2\n      pop\n        /* \"#utility.yul\":1176:1179   */\n      dup4\n        /* \"#utility.yul\":1168:1172   */\n      0x01\n        /* \"#utility.yul\":1160:1166   */\n      dup3\n        /* \"#utility.yul\":1156:1173   */\n      mul\n        /* \"#utility.yul\":1146:1154   */\n      dup4\n        /* \"#utility.yul\":1142:1174   */\n      add\n        /* \"#utility.yul\":1139:1180   */\n      gt\n        /* \"#utility.yul\":1136:1264   */\n      iszero\n      tag_225\n      jumpi\n        /* \"#utility.yul\":1183:1262   */\n      tag_226\n      tag_153\n      jump\t// in\n    tag_226:\n        /* \"#utility.yul\":1136:1264   */\n    tag_225:\n        /* \"#utility.yul\":717:1270   */\n      swap3\n      pop\n      swap3\n      swap1\n      pop\n      jump\t// out\n        /* \"#utility.yul\":1276:1402   */\n    tag_155:\n        /* \"#utility.yul\":1313:1320   */\n      0x00\n        /* \"#utility.yul\":1353:1395   */\n      0xffffffffffffffffffffffffffffffffffffffff\n        /* \"#utility.yul\":1346:1351   */\n      dup3\n        /* \"#utility.yul\":1342:1396   */\n      and\n        /* \"#utility.yul\":1331:1396   */\n      swap1\n      pop\n        /* \"#utility.yul\":1276:1402   */\n      swap2\n      swap1\n      pop\n      jump\t// out\n        /* \"#utility.yul\":1408:1512   */\n    tag_156:\n        /* \"#utility.yul\":1453:1460   */\n      0x00\n        /* \"#utility.yul\":1482:1506   */\n      tag_229\n        /* \"#utility.yul\":1500:1505   */\n      dup3\n        /* \"#utility.yul\":1482:1506   */\n      tag_155\n      jump\t// in\n    tag_229:\n        /* \"#utility.yul\":1471:1506   */\n      swap1\n      pop\n        /* \"#utility.yul\":1408:1512   */\n      swap2\n      swap1\n      pop\n      jump\t// out\n        /* \"#utility.yul\":1518:1656   */\n    tag_157:\n        /* \"#utility.yul\":1599:1631   */\n      tag_231\n        /* \"#utility.yul\":1625:1630   */\n      dup2\n        /* \"#utility.yul\":1599:1631   */\n      tag_156\n      jump\t// in\n    tag_231:\n        /* \"#utility.yul\":1592:1597   */\n      dup2\n        /* \"#utility.yul\":1589:1632   */\n      eq\n        /* \"#utility.yul\":1579:1650   */\n      tag_232\n      jumpi\n        /* \"#utility.yul\":1646:1647   */\n      0x00\n        /* \"#utility.yul\":1643:1644   */\n      dup1\n        /* \"#utility.yul\":1636:1648   */\n      revert\n        /* \"#utility.yul\":1579:1650   */\n    tag_232:\n        /* \"#utility.yul\":1518:1656   */\n      pop\n      jump\t// out\n        /* \"#utility.yul\":1662:1817   */\n    tag_158:\n        /* \"#utility.yul\":1716:1721   */\n      0x00\n        /* \"#utility.yul\":1754:1760   */\n      dup2\n        /* \"#utility.yul\":1741:1761   */\n      calldataload\n        /* \"#utility.yul\":1732:1761   */\n      swap1\n      pop\n        /* \"#utility.yul\":1770:1811   */\n      tag_234\n        /* \"#utility.yul\":1805:1810   */\n      dup2\n        /* \"#utility.yul\":1770:1811   */\n      tag_157\n      jump\t// in\n    tag_234:\n        /* \"#utility.yul\":1662:1817   */\n      swap3\n      swap2\n      pop\n      pop\n      jump\t// out\n        /* \"#utility.yul\":1823:1900   */\n    tag_159:\n        /* \"#utility.yul\":1860:1867   */\n      0x00\n        /* \"#utility.yul\":1889:1894   */\n      dup2\n        /* \"#utility.yul\":1878:1894   */\n      swap1\n      pop\n        /* \"#utility.yul\":1823:1900   */\n      swap2\n      swap1\n      pop\n      jump\t// out\n        /* \"#utility.yul\":1906:2028   */\n    tag_160:\n        /* \"#utility.yul\":1979:2003   */\n      tag_237\n        /* \"#utility.yul\":1997:2002   */\n      dup2\n        /* \"#utility.yul\":1979:2003   */\n      tag_159\n      jump\t// in\n    tag_237:\n        /* \"#utility.yul\":1972:1977   */\n      dup2\n        /* \"#utility.yul\":1969:2004   */\n      eq\n        /* \"#utility.yul\":1959:2022   */\n      tag_238\n      jumpi\n        /* \"#utility.yul\":2018:2019   */\n      0x00\n        /* \"#utility.yul\":2015:2016   */\n      dup1\n        /* \"#utility.yul\":2008:2020   */\n      revert\n        /* \"#utility.yul\":1959:2022   */\n    tag_238:\n        /* \"#utility.yul\":1906:2028   */\n      pop\n      jump\t// out\n        /* \"#utility.yul\":2034:2173   */\n    tag_161:\n        /* \"#utility.yul\":2080:2085   */\n      0x00\n        /* \"#utility.yul\":2118:2124   */\n      dup2\n        /* \"#utility.yul\":2105:2125   */\n      calldataload\n        /* \"#utility.yul\":2096:2125   */\n      swap1\n      pop\n        /* \"#utility.yul\":2134:2167   */\n      tag_240\n        /* \"#utility.yul\":2161:2166   */\n      dup2\n        /* \"#utility.yul\":2134:2167   */\n      tag_160\n      jump\t// in\n    tag_240:\n        /* \"#utility.yul\":2034:2173   */\n      swap3\n      swap2\n      pop\n      pop\n      jump\t// out\n        /* \"#utility.yul\":2179:3014   */\n    tag_23:\n        /* \"#utility.yul\":2276:2282   */\n      0x00\n        /* \"#utility.yul\":2284:2290   */\n      dup1\n        /* \"#utility.yul\":2292:2298   */\n      0x00\n        /* \"#utility.yul\":2300:2306   */\n      dup1\n        /* \"#utility.yul\":2349:2351   */\n      0x60\n        /* \"#utility.yul\":2337:2346   */\n      dup6\n        /* \"#utility.yul\":2328:2335   */\n      dup8\n        /* \"#utility.yul\":2324:2347   */\n      sub\n        /* \"#utility.yul\":2320:2352   */\n      slt\n        /* \"#utility.yul\":2317:2436   */\n      iszero\n      tag_242\n      jumpi\n        /* \"#utility.yul\":2355:2434   */\n      tag_243\n      tag_149\n      jump\t// in\n    tag_243:\n        /* \"#utility.yul\":2317:2436   */\n    tag_242:\n        /* \"#utility.yul\":2503:2504   */\n      0x00\n        /* \"#utility.yul\":2492:2501   */\n      dup6\n        /* \"#utility.yul\":2488:2505   */\n      add\n        /* \"#utility.yul\":2475:2506   */\n      calldataload\n        /* \"#utility.yul\":2533:2551   */\n      0xffffffffffffffff\n        /* \"#utility.yul\":2525:2531   */\n      dup2\n        /* \"#utility.yul\":2522:2552   */\n      gt\n        /* \"#utility.yul\":2519:2636   */\n      iszero\n      tag_244\n      jumpi\n        /* \"#utility.yul\":2555:2634   */\n      tag_245\n      tag_150\n      jump\t// in\n    tag_245:\n        /* \"#utility.yul\":2519:2636   */\n    tag_244:\n        /* \"#utility.yul\":2668:2733   */\n      tag_246\n        /* \"#utility.yul\":2725:2732   */\n      dup8\n        /* \"#utility.yul\":2716:2722   */\n      dup3\n        /* \"#utility.yul\":2705:2714   */\n      dup9\n        /* \"#utility.yul\":2701:2723   */\n      add\n        /* \"#utility.yul\":2668:2733   */\n      tag_154\n      jump\t// in\n    tag_246:\n        /* \"#utility.yul\":2650:2733   */\n      swap5\n      pop\n      swap5\n      pop\n        /* \"#utility.yul\":2446:2743   */\n      pop\n        /* \"#utility.yul\":2782:2784   */\n      0x20\n        /* \"#utility.yul\":2808:2869   */\n      tag_247\n        /* \"#utility.yul\":2861:2868   */\n      dup8\n        /* \"#utility.yul\":2852:2858   */\n      dup3\n        /* \"#utility.yul\":2841:2850   */\n      dup9\n        /* \"#utility.yul\":2837:2859   */\n      add\n        /* \"#utility.yul\":2808:2869   */\n      tag_158\n      jump\t// in\n    tag_247:\n        /* \"#utility.yul\":2798:2869   */\n      swap3\n      pop\n        /* \"#utility.yul\":2753:2879   */\n      pop\n        /* \"#utility.yul\":2918:2920   */\n      0x40\n        /* \"#utility.yul\":2944:2997   */\n      tag_248\n        /* \"#utility.yul\":2989:2996   */\n      dup8\n        /* \"#utility.yul\":2980:2986   */\n      dup3\n        /* \"#utility.yul\":2969:2978   */\n      dup9\n        /* \"#utility.yul\":2965:2987   */\n      add\n        /* \"#utility.yul\":2944:2997   */\n      tag_161\n      jump\t// in\n    tag_248:\n        /* \"#utility.yul\":2934:2997   */\n      swap2\n      pop\n        /* \"#utility.yul\":2889:3007   */\n      pop\n        /* \"#utility.yul\":2179:3014   */\n      swap3\n      swap6\n      swap2\n      swap5\n      pop\n      swap3\n      pop\n      jump\t// out\n        /* \"#utility.yul\":3020:3138   */\n    tag_162:\n        /* \"#utility.yul\":3107:3131   */\n      tag_250\n        /* \"#utility.yul\":3125:3130   */\n      dup2\n        /* \"#utility.yul\":3107:3131   */\n      tag_159\n      jump\t// in\n    tag_250:\n        /* \"#utility.yul\":3102:3105   */\n      dup3\n        /* \"#utility.yul\":3095:3132   */\n      mstore\n        /* \"#utility.yul\":3020:3138   */\n      pop\n      pop\n      jump\t// out\n        /* \"#utility.yul\":3144:3366   */\n    tag_29:\n        /* \"#utility.yul\":3237:3241   */\n      0x00\n        /* \"#utility.yul\":3275:3277   */\n      0x20\n        /* \"#utility.yul\":3264:3273   */\n      dup3\n        /* \"#utility.yul\":3260:3278   */\n      add\n        /* \"#utility.yul\":3252:3278   */\n      swap1\n      pop\n        /* \"#utility.yul\":3288:3359   */\n      tag_252\n        /* \"#utility.yul\":3356:3357   */\n      0x00\n        /* \"#utility.yul\":3345:3354   */\n      dup4\n        /* \"#utility.yul\":3341:3358   */\n      add\n        /* \"#utility.yul\":3332:3338   */\n      dup5\n        /* \"#utility.yul\":3288:3359   */\n      tag_162\n      jump\t// in\n    tag_252:\n        /* \"#utility.yul\":3144:3366   */\n      swap3\n      swap2\n      pop\n      pop\n      jump\t// out\n        /* \"#utility.yul\":3372:3468   */\n    tag_163:\n        /* \"#utility.yul\":3409:3416   */\n      0x00\n        /* \"#utility.yul\":3438:3462   */\n      tag_254\n        /* \"#utility.yul\":3456:3461   */\n      dup3\n        /* \"#utility.yul\":3438:3462   */\n      tag_155\n      jump\t// in\n    tag_254:\n        /* \"#utility.yul\":3427:3462   */\n      swap1\n      pop\n        /* \"#utility.yul\":3372:3468   */\n      swap2\n      swap1\n      pop\n      jump\t// out\n        /* \"#utility.yul\":3474:3596   */\n    tag_164:\n        /* \"#utility.yul\":3547:3571   */\n      tag_256\n        /* \"#utility.yul\":3565:3570   */\n      dup2\n        /* \"#utility.yul\":3547:3571   */\n      tag_163\n      jump\t// in\n    tag_256:\n        /* \"#utility.yul\":3540:3545   */\n      dup2\n        /* \"#utility.yul\":3537:3572   */\n      eq\n        /* \"#utility.yul\":3527:3590   */\n      tag_257\n      jumpi\n        /* \"#utility.yul\":3586:3587   */\n      0x00\n        /* \"#utility.yul\":3583:3584   */\n      dup1\n        /* \"#utility.yul\":3576:3588   */\n      revert\n        /* \"#utility.yul\":3527:3590   */\n    tag_257:\n        /* \"#utility.yul\":3474:3596   */\n      pop\n      jump\t// out\n        /* \"#utility.yul\":3602:3741   */\n    tag_165:\n        /* \"#utility.yul\":3648:3653   */\n      0x00\n        /* \"#utility.yul\":3686:3692   */\n      dup2\n        /* \"#utility.yul\":3673:3693   */\n      calldataload\n        /* \"#utility.yul\":3664:3693   */\n      swap1\n      pop\n        /* \"#utility.yul\":3702:3735   */\n      tag_259\n        /* \"#utility.yul\":3729:3734   */\n      dup2\n        /* \"#utility.yul\":3702:3735   */\n      tag_164\n      jump\t// in\n    tag_259:\n        /* \"#utility.yul\":3602:3741   */\n      swap3\n      swap2\n      pop\n      pop\n      jump\t// out\n        /* \"#utility.yul\":3747:4076   */\n    tag_33:\n        /* \"#utility.yul\":3806:3812   */\n      0x00\n        /* \"#utility.yul\":3855:3857   */\n      0x20\n        /* \"#utility.yul\":3843:3852   */\n      dup3\n        /* \"#utility.yul\":3834:3841   */\n      dup5\n        /* \"#utility.yul\":3830:3853   */\n      sub\n        /* \"#utility.yul\":3826:3858   */\n      slt\n        /* \"#utility.yul\":3823:3942   */\n      iszero\n      tag_261\n      jumpi\n        /* \"#utility.yul\":3861:3940   */\n      tag_262\n      tag_149\n      jump\t// in\n    tag_262:\n        /* \"#utility.yul\":3823:3942   */\n    tag_261:\n        /* \"#utility.yul\":3981:3982   */\n      0x00\n        /* \"#utility.yul\":4006:4059   */\n      tag_263\n        /* \"#utility.yul\":4051:4058   */\n      dup5\n        /* \"#utility.yul\":4042:4048   */\n      dup3\n        /* \"#utility.yul\":4031:4040   */\n      dup6\n        /* \"#utility.yul\":4027:4049   */\n      add\n        /* \"#utility.yul\":4006:4059   */\n      tag_165\n      jump\t// in\n    tag_263:\n        /* \"#utility.yul\":3996:4059   */\n      swap2\n      pop\n        /* \"#utility.yul\":3952:4069   */\n      pop\n        /* \"#utility.yul\":3747:4076   */\n      swap3\n      swap2\n      pop\n      pop\n      jump\t// out\n        /* \"#utility.yul\":4082:4200   */\n    tag_166:\n        /* \"#utility.yul\":4169:4193   */\n      tag_265\n        /* \"#utility.yul\":4187:4192   */\n      dup2\n        /* \"#utility.yul\":4169:4193   */\n      tag_163\n      jump\t// in\n    tag_265:\n        /* \"#utility.yul\":4164:4167   */\n      dup3\n        /* \"#utility.yul\":4157:4194   */\n      mstore\n        /* \"#utility.yul\":4082:4200   */\n      pop\n      pop\n      jump\t// out\n        /* \"#utility.yul\":4206:4428   */\n    tag_44:\n        /* \"#utility.yul\":4299:4303   */\n      0x00\n        /* \"#utility.yul\":4337:4339   */\n      0x20\n        /* \"#utility.yul\":4326:4335   */\n      dup3\n        /* \"#utility.yul\":4322:4340   */\n      add\n        /* \"#utility.yul\":4314:4340   */\n      swap1\n      pop\n        /* \"#utility.yul\":4350:4421   */\n      tag_267\n        /* \"#utility.yul\":4418:4419   */\n      0x00\n        /* \"#utility.yul\":4407:4416   */\n      dup4\n        /* \"#utility.yul\":4403:4420   */\n      add\n        /* \"#utility.yul\":4394:4400   */\n      dup5\n        /* \"#utility.yul\":4350:4421   */\n      tag_166\n      jump\t// in\n    tag_267:\n        /* \"#utility.yul\":4206:4428   */\n      swap3\n      swap2\n      pop\n      pop\n      jump\t// out\n        /* \"#utility.yul\":4434:4763   */\n    tag_48:\n        /* \"#utility.yul\":4493:4499   */\n      0x00\n        /* \"#utility.yul\":4542:4544   */\n      0x20\n        /* \"#utility.yul\":4530:4539   */\n      dup3\n        /* \"#utility.yul\":4521:4528   */\n      dup5\n        /* \"#utility.yul\":4517:4540   */\n      sub\n        /* \"#utility.yul\":4513:4545   */\n      slt\n        /* \"#utility.yul\":4510:4629   */\n      iszero\n      tag_269\n      jumpi\n        /* \"#utility.yul\":4548:4627   */\n      tag_270\n      tag_149\n      jump\t// in\n    tag_270:\n        /* \"#utility.yul\":4510:4629   */\n    tag_269:\n        /* \"#utility.yul\":4668:4669   */\n      0x00\n        /* \"#utility.yul\":4693:4746   */\n      tag_271\n        /* \"#utility.yul\":4738:4745   */\n      dup5\n        /* \"#utility.yul\":4729:4735   */\n      dup3\n        /* \"#utility.yul\":4718:4727   */\n      dup6\n        /* \"#utility.yul\":4714:4736   */\n      add\n        /* \"#utility.yul\":4693:4746   */\n      tag_161\n      jump\t// in\n    tag_271:\n        /* \"#utility.yul\":4683:4746   */\n      swap2\n      pop\n        /* \"#utility.yul\":4639:4756   */\n      pop\n        /* \"#utility.yul\":4434:4763   */\n      swap3\n      swap2\n      pop\n      pop\n      jump\t// out\n        /* \"#utility.yul\":4769:4868   */\n    tag_167:\n        /* \"#utility.yul\":4821:4827   */\n      0x00\n        /* \"#utility.yul\":4855:4860   */\n      dup2\n        /* \"#utility.yul\":4849:4861   */\n      mload\n        /* \"#utility.yul\":4839:4861   */\n      swap1\n      pop\n        /* \"#utility.yul\":4769:4868   */\n      swap2\n      swap1\n      pop\n      jump\t// out\n        /* \"#utility.yul\":4874:5043   */\n    tag_168:\n        /* \"#utility.yul\":4958:4969   */\n      0x00\n        /* \"#utility.yul\":4992:4998   */\n      dup3\n        /* \"#utility.yul\":4987:4990   */\n      dup3\n        /* \"#utility.yul\":4980:4999   */\n      mstore\n        /* \"#utility.yul\":5032:5036   */\n      0x20\n        /* \"#utility.yul\":5027:5030   */\n      dup3\n        /* \"#utility.yul\":5023:5037   */\n      add\n        /* \"#utility.yul\":5008:5037   */\n      swap1\n      pop\n        /* \"#utility.yul\":4874:5043   */\n      swap3\n      swap2\n      pop\n      pop\n      jump\t// out\n        /* \"#utility.yul\":5049:5188   */\n    tag_169:\n        /* \"#utility.yul\":5138:5144   */\n      dup3\n        /* \"#utility.yul\":5133:5136   */\n      dup2\n        /* \"#utility.yul\":5128:5131   */\n      dup4\n        /* \"#utility.yul\":5122:5145   */\n      mcopy\n        /* \"#utility.yul\":5179:5180   */\n      0x00\n        /* \"#utility.yul\":5170:5176   */\n      dup4\n        /* \"#utility.yul\":5165:5168   */\n      dup4\n        /* \"#utility.yul\":5161:5177   */\n      add\n        /* \"#utility.yul\":5154:5181   */\n      mstore\n        /* \"#utility.yul\":5049:5188   */\n      pop\n      pop\n      pop\n      jump\t// out\n        /* \"#utility.yul\":5194:5296   */\n    tag_170:\n        /* \"#utility.yul\":5235:5241   */\n      0x00\n        /* \"#utility.yul\":5286:5288   */\n      0x1f\n        /* \"#utility.yul\":5282:5289   */\n      not\n        /* \"#utility.yul\":5277:5279   */\n      0x1f\n        /* \"#utility.yul\":5270:5275   */\n      dup4\n        /* \"#utility.yul\":5266:5280   */\n      add\n        /* \"#utility.yul\":5262:5290   */\n      and\n        /* \"#utility.yul\":5252:5290   */\n      swap1\n      pop\n        /* \"#utility.yul\":5194:5296   */\n      swap2\n      swap1\n      pop\n      jump\t// out\n        /* \"#utility.yul\":5302:5679   */\n    tag_171:\n        /* \"#utility.yul\":5390:5393   */\n      0x00\n        /* \"#utility.yul\":5418:5457   */\n      tag_277\n        /* \"#utility.yul\":5451:5456   */\n      dup3\n        /* \"#utility.yul\":5418:5457   */\n      tag_167\n      jump\t// in\n    tag_277:\n        /* \"#utility.yul\":5473:5544   */\n      tag_278\n        /* \"#utility.yul\":5537:5543   */\n      dup2\n        /* \"#utility.yul\":5532:5535   */\n      dup6\n        /* \"#utility.yul\":5473:5544   */\n      tag_168\n      jump\t// in\n    tag_278:\n        /* \"#utility.yul\":5466:5544   */\n      swap4\n      pop\n        /* \"#utility.yul\":5553:5618   */\n      tag_279\n        /* \"#utility.yul\":5611:5617   */\n      dup2\n        /* \"#utility.yul\":5606:5609   */\n      dup6\n        /* \"#utility.yul\":5599:5603   */\n      0x20\n        /* \"#utility.yul\":5592:5597   */\n      dup7\n        /* \"#utility.yul\":5588:5604   */\n      add\n        /* \"#utility.yul\":5553:5618   */\n      tag_169\n      jump\t// in\n    tag_279:\n        /* \"#utility.yul\":5643:5672   */\n      tag_280\n        /* \"#utility.yul\":5665:5671   */\n      dup2\n        /* \"#utility.yul\":5643:5672   */\n      tag_170\n      jump\t// in\n    tag_280:\n        /* \"#utility.yul\":5638:5641   */\n      dup5\n        /* \"#utility.yul\":5634:5673   */\n      add\n        /* \"#utility.yul\":5627:5673   */\n      swap2\n      pop\n        /* \"#utility.yul\":5394:5679   */\n      pop\n        /* \"#utility.yul\":5302:5679   */\n      swap3\n      swap2\n      pop\n      pop\n      jump\t// out\n        /* \"#utility.yul\":5685:5827   */\n    tag_172:\n        /* \"#utility.yul\":5788:5820   */\n      tag_282\n        /* \"#utility.yul\":5814:5819   */\n      dup2\n        /* \"#utility.yul\":5788:5820   */\n      tag_156\n      jump\t// in\n    tag_282:\n        /* \"#utility.yul\":5783:5786   */\n      dup3\n        /* \"#utility.yul\":5776:5821   */\n      mstore\n        /* \"#utility.yul\":5685:5827   */\n      pop\n      pop\n      jump\t// out\n        /* \"#utility.yul\":5833:5923   */\n    tag_173:\n        /* \"#utility.yul\":5867:5874   */\n      0x00\n        /* \"#utility.yul\":5910:5915   */\n      dup2\n        /* \"#utility.yul\":5903:5916   */\n      iszero\n        /* \"#utility.yul\":5896:5917   */\n      iszero\n        /* \"#utility.yul\":5885:5917   */\n      swap1\n      pop\n        /* \"#utility.yul\":5833:5923   */\n      swap2\n      swap1\n      pop\n      jump\t// out\n        /* \"#utility.yul\":5929:6038   */\n    tag_174:\n        /* \"#utility.yul\":6010:6031   */\n      tag_285\n        /* \"#utility.yul\":6025:6030   */\n      dup2\n        /* \"#utility.yul\":6010:6031   */\n      tag_173\n      jump\t// in\n    tag_285:\n        /* \"#utility.yul\":6005:6008   */\n      dup3\n        /* \"#utility.yul\":5998:6032   */\n      mstore\n        /* \"#utility.yul\":5929:6038   */\n      pop\n      pop\n      jump\t// out\n        /* \"#utility.yul\":6044:6819   */\n    tag_84:\n        /* \"#utility.yul\":6279:6283   */\n      0x00\n        /* \"#utility.yul\":6317:6320   */\n      0xa0\n        /* \"#utility.yul\":6306:6315   */\n      dup3\n        /* \"#utility.yul\":6302:6321   */\n      add\n        /* \"#utility.yul\":6294:6321   */\n      swap1\n      pop\n        /* \"#utility.yul\":6367:6376   */\n      dup2\n        /* \"#utility.yul\":6361:6365   */\n      dup2\n        /* \"#utility.yul\":6357:6377   */\n      sub\n        /* \"#utility.yul\":6353:6354   */\n      0x00\n        /* \"#utility.yul\":6342:6351   */\n      dup4\n        /* \"#utility.yul\":6338:6355   */\n      add\n        /* \"#utility.yul\":6331:6378   */\n      mstore\n        /* \"#utility.yul\":6395:6473   */\n      tag_287\n        /* \"#utility.yul\":6468:6472   */\n      dup2\n        /* \"#utility.yul\":6459:6465   */\n      dup9\n        /* \"#utility.yul\":6395:6473   */\n      tag_171\n      jump\t// in\n    tag_287:\n        /* \"#utility.yul\":6387:6473   */\n      swap1\n      pop\n        /* \"#utility.yul\":6483:6571   */\n      tag_288\n        /* \"#utility.yul\":6567:6569   */\n      0x20\n        /* \"#utility.yul\":6556:6565   */\n      dup4\n        /* \"#utility.yul\":6552:6570   */\n      add\n        /* \"#utility.yul\":6543:6549   */\n      dup8\n        /* \"#utility.yul\":6483:6571   */\n      tag_172\n      jump\t// in\n    tag_288:\n        /* \"#utility.yul\":6581:6653   */\n      tag_289\n        /* \"#utility.yul\":6649:6651   */\n      0x40\n        /* \"#utility.yul\":6638:6647   */\n      dup4\n        /* \"#utility.yul\":6634:6652   */\n      add\n        /* \"#utility.yul\":6625:6631   */\n      dup7\n        /* \"#utility.yul\":6581:6653   */\n      tag_162\n      jump\t// in\n    tag_289:\n        /* \"#utility.yul\":6663:6729   */\n      tag_290\n        /* \"#utility.yul\":6725:6727   */\n      0x60\n        /* \"#utility.yul\":6714:6723   */\n      dup4\n        /* \"#utility.yul\":6710:6728   */\n      add\n        /* \"#utility.yul\":6701:6707   */\n      dup6\n        /* \"#utility.yul\":6663:6729   */\n      tag_174\n      jump\t// in\n    tag_290:\n        /* \"#utility.yul\":6739:6812   */\n      tag_291\n        /* \"#utility.yul\":6807:6810   */\n      0x80\n        /* \"#utility.yul\":6796:6805   */\n      dup4\n        /* \"#utility.yul\":6792:6811   */\n      add\n        /* \"#utility.yul\":6783:6789   */\n      dup5\n        /* \"#utility.yul\":6739:6812   */\n      tag_162\n      jump\t// in\n    tag_291:\n        /* \"#utility.yul\":6044:6819   */\n      swap7\n      swap6\n      pop\n      pop\n      pop\n      pop\n      pop\n      pop\n      jump\t// out\n        /* \"#utility.yul\":6825:6998   */\n    tag_175:\n        /* \"#utility.yul\":6965:6990   */\n      0x596f7520617265206e6f7420746865206d616e61676572000000000000000000\n        /* \"#utility.yul\":6961:6962   */\n      0x00\n        /* \"#utility.yul\":6953:6959   */\n      dup3\n        /* \"#utility.yul\":6949:6963   */\n      add\n        /* \"#utility.yul\":6942:6991   */\n      mstore\n        /* \"#utility.yul\":6825:6998   */\n      pop\n      jump\t// out\n        /* \"#utility.yul\":7004:7370   */\n    tag_176:\n        /* \"#utility.yul\":7146:7149   */\n      0x00\n        /* \"#utility.yul\":7167:7234   */\n      tag_294\n        /* \"#utility.yul\":7231:7233   */\n      0x17\n        /* \"#utility.yul\":7226:7229   */\n      dup4\n        /* \"#utility.yul\":7167:7234   */\n      tag_168\n      jump\t// in\n    tag_294:\n        /* \"#utility.yul\":7160:7234   */\n      swap2\n      pop\n        /* \"#utility.yul\":7243:7336   */\n      tag_295\n        /* \"#utility.yul\":7332:7335   */\n      dup3\n        /* \"#utility.yul\":7243:7336   */\n      tag_175\n      jump\t// in\n    tag_295:\n        /* \"#utility.yul\":7361:7363   */\n      0x20\n        /* \"#utility.yul\":7356:7359   */\n      dup3\n        /* \"#utility.yul\":7352:7364   */\n      add\n        /* \"#utility.yul\":7345:7364   */\n      swap1\n      pop\n        /* \"#utility.yul\":7004:7370   */\n      swap2\n      swap1\n      pop\n      jump\t// out\n        /* \"#utility.yul\":7376:7795   */\n    tag_88:\n        /* \"#utility.yul\":7542:7546   */\n      0x00\n        /* \"#utility.yul\":7580:7582   */\n      0x20\n        /* \"#utility.yul\":7569:7578   */\n      dup3\n        /* \"#utility.yul\":7565:7583   */\n      add\n        /* \"#utility.yul\":7557:7583   */\n      swap1\n      pop\n        /* \"#utility.yul\":7629:7638   */\n      dup2\n        /* \"#utility.yul\":7623:7627   */\n      dup2\n        /* \"#utility.yul\":7619:7639   */\n      sub\n        /* \"#utility.yul\":7615:7616   */\n      0x00\n        /* \"#utility.yul\":7604:7613   */\n      dup4\n        /* \"#utility.yul\":7600:7617   */\n      add\n        /* \"#utility.yul\":7593:7640   */\n      mstore\n        /* \"#utility.yul\":7657:7788   */\n      tag_297\n        /* \"#utility.yul\":7783:7787   */\n      dup2\n        /* \"#utility.yul\":7657:7788   */\n      tag_176\n      jump\t// in\n    tag_297:\n        /* \"#utility.yul\":7649:7788   */\n      swap1\n      pop\n        /* \"#utility.yul\":7376:7795   */\n      swap2\n      swap1\n      pop\n      jump\t// out\n        /* \"#utility.yul\":7801:7981   */\n    tag_177:\n        /* \"#utility.yul\":7849:7926   */\n      0x4e487b7100000000000000000000000000000000000000000000000000000000\n        /* \"#utility.yul\":7846:7847   */\n      0x00\n        /* \"#utility.yul\":7839:7927   */\n      mstore\n        /* \"#utility.yul\":7946:7950   */\n      0x11\n        /* \"#utility.yul\":7943:7944   */\n      0x04\n        /* \"#utility.yul\":7936:7951   */\n      mstore\n        /* \"#utility.yul\":7970:7974   */\n      0x24\n        /* \"#utility.yul\":7967:7968   */\n      0x00\n        /* \"#utility.yul\":7960:7975   */\n      revert\n        /* \"#utility.yul\":7987:8220   */\n    tag_91:\n        /* \"#utility.yul\":8026:8029   */\n      0x00\n        /* \"#utility.yul\":8049:8073   */\n      tag_300\n        /* \"#utility.yul\":8067:8072   */\n      dup3\n        /* \"#utility.yul\":8049:8073   */\n      tag_159\n      jump\t// in\n    tag_300:\n        /* \"#utility.yul\":8040:8073   */\n      swap2\n      pop\n        /* \"#utility.yul\":8095:8161   */\n      0xffffffffffffffffffffffffffffffffffffffffffffffffffffffffffffffff\n        /* \"#utility.yul\":8088:8093   */\n      dup3\n        /* \"#utility.yul\":8085:8162   */\n      sub\n        /* \"#utility.yul\":8082:8185   */\n      tag_301\n      jumpi\n        /* \"#utility.yul\":8165:8183   */\n      tag_302\n      tag_177\n      jump\t// in\n    tag_302:\n        /* \"#utility.yul\":8082:8185   */\n    tag_301:\n        /* \"#utility.yul\":8212:8213   */\n      0x01\n        /* \"#utility.yul\":8205:8210   */\n      dup3\n        /* \"#utility.yul\":8201:8214   */\n      add\n        /* \"#utility.yul\":8194:8214   */\n      swap1\n      pop\n        /* \"#utility.yul\":7987:8220   */\n      swap2\n      swap1\n      pop\n      jump\t// out\n        /* \"#utility.yul\":8226:8323   */\n    tag_178:\n        /* \"#utility.yul\":8285:8291   */\n      0x00\n        /* \"#utility.yul\":8313:8316   */\n      dup3\n        /* \"#utility.yul\":8303:8316   */\n      swap1\n      pop\n        /* \"#utility.yul\":8226:8323   */\n      swap3\n      swap2\n      pop\n      pop\n      jump\t// out\n        /* \"#utility.yul\":8329:8509   */\n    tag_179:\n        /* \"#utility.yul\":8377:8454   */\n      0x4e487b7100000000000000000000000000000000000000000000000000000000\n        /* \"#utility.yul\":8374:8375   */\n      0x00\n        /* \"#utility.yul\":8367:8455   */\n      mstore\n        /* \"#utility.yul\":8474:8478   */\n      0x41\n        /* \"#utility.yul\":8471:8472   */\n      0x04\n        /* \"#utility.yul\":8464:8479   */\n      mstore\n        /* \"#utility.yul\":8498:8502   */\n      0x24\n        /* \"#utility.yul\":8495:8496   */\n      0x00\n        /* \"#utility.yul\":8488:8503   */\n      revert\n        /* \"#utility.yul\":8515:8695   */\n    tag_180:\n        /* \"#utility.yul\":8563:8640   */\n      0x4e487b7100000000000000000000000000000000000000000000000000000000\n        /* \"#utility.yul\":8560:8561   */\n      0x00\n        /* \"#utility.yul\":8553:8641   */\n      mstore\n        /* \"#utility.yul\":8660:8664   */\n      0x22\n        /* \"#utility.yul\":8657:8658   */\n      0x04\n        /* \"#utility.yul\":8650:8665   */\n      mstore\n        /* \"#utility.yul\":8684:8688   */\n      0x24\n        /* \"#utility.yul\":8681:8682   */\n      0x00\n        /* \"#utility.yul\":8674:8689   */\n      revert\n        /* \"#utility.yul\":8701:9021   */\n    tag_143:\n        /* \"#utility.yul\":8745:8751   */\n      0x00\n        /* \"#utility.yul\":8782:8783   */\n      0x02\n        /* \"#utility.yul\":8776:8780   */\n      dup3\n        /* \"#utility.yul\":8772:8784   */\n      div\n        /* \"#utility.yul\":8762:8784   */\n      swap1\n      pop\n        /* \"#utility.yul\":8829:8830   */\n      0x01\n        /* \"#utility.yul\":8823:8827   */\n      dup3\n        /* \"#utility.yul\":8819:8831   */\n      and\n        /* \"#utility.yul\":8850:8868   */\n      dup1\n        /* \"#utility.yul\":8840:8921   */\n      tag_307\n      jumpi\n        /* \"#utility.yul\":8906:8910   */\n      0x7f\n        /* \"#utility.yul\":8898:8904   */\n      dup3\n        /* \"#utility.yul\":8894:8911   */\n      and\n        /* \"#utility.yul\":8884:8911   */\n      swap2\n      pop\n        /* \"#utility.yul\":8840:8921   */\n    tag_307:\n        /* \"#utility.yul\":8968:8970   */\n      0x20\n        /* \"#utility.yul\":8960:8966   */\n      dup3\n        /* \"#utility.yul\":8957:8971   */\n      lt\n        /* \"#utility.yul\":8937:8955   */\n      dup2\n        /* \"#utility.yul\":8934:8972   */\n      sub\n        /* \"#utility.yul\":8931:9015   */\n      tag_308\n      jumpi\n        /* \"#utility.yul\":8987:9005   */\n      tag_309\n      tag_180\n      jump\t// in\n    tag_309:\n        /* \"#utility.yul\":8931:9015   */\n    tag_308:\n        /* \"#utility.yul\":8752:9021   */\n      pop\n        /* \"#utility.yul\":8701:9021   */\n      swap2\n      swap1\n      pop\n      jump\t// out\n        /* \"#utility.yul\":9027:9168   */\n    tag_181:\n        /* \"#utility.yul\":9076:9080   */\n      0x00\n        /* \"#utility.yul\":9099:9102   */\n      dup2\n        /* \"#utility.yul\":9091:9102   */\n      swap1\n      pop\n        /* \"#utility.yul\":9122:9125   */\n      dup2\n        /* \"#utility.yul\":9119:9120   */\n      0x00\n        /* \"#utility.yul\":9112:9126   */\n      mstore\n        /* \"#utility.yul\":9156:9160   */\n      0x20\n        /* \"#utility.yul\":9153:9154   */\n      0x00\n        /* \"#utility.yul\":9143:9161   */\n      keccak256\n        /* \"#utility.yul\":9135:9161   */\n      swap1\n      pop\n        /* \"#utility.yul\":9027:9168   */\n      swap2\n      swap1\n      pop\n      jump\t// out\n        /* \"#utility.yul\":9174:9267   */\n    tag_182:\n        /* \"#utility.yul\":9211:9217   */\n      0x00\n        /* \"#utility.yul\":9258:9260   */\n      0x20\n        /* \"#utility.yul\":9253:9255   */\n      0x1f\n        /* \"#utility.yul\":9246:9251   */\n      dup4\n        /* \"#utility.yul\":9242:9256   */\n      add\n        /* \"#utility.yul\":9238:9261   */\n      div\n        /* \"#utility.yul\":9228:9261   */\n      swap1\n      pop\n        /* \"#utility.yul\":9174:9267   */\n      swap2\n      swap1\n      pop\n      jump\t// out\n        /* \"#utility.yul\":9273:9380   */\n    tag_183:\n        /* \"#utility.yul\":9317:9325   */\n      0x00\n        /* \"#utility.yul\":9367:9372   */\n      dup3\n        /* \"#utility.yul\":9361:9365   */\n      dup3\n        /* \"#utility.yul\":9357:9373   */\n      shl\n        /* \"#utility.yul\":9336:9373   */\n      swap1\n      pop\n        /* \"#utility.yul\":9273:9380   */\n      swap3\n      swap2\n      pop\n      pop\n      jump\t// out\n        /* \"#utility.yul\":9386:9779   */\n    tag_184:\n        /* \"#utility.yul\":9455:9461   */\n      0x00\n        /* \"#utility.yul\":9505:9506   */\n      0x08\n        /* \"#utility.yul\":9493:9503   */\n      dup4\n        /* \"#utility.yul\":9489:9507   */\n      mul\n        /* \"#utility.yul\":9528:9625   */\n      tag_314\n        /* \"#utility.yul\":9558:9624   */\n      0xffffffffffffffffffffffffffffffffffffffffffffffffffffffffffffffff\n        /* \"#utility.yul\":9547:9556   */\n      dup3\n        /* \"#utility.yul\":9528:9625   */\n      tag_183\n      jump\t// in\n    tag_314:\n        /* \"#utility.yul\":9646:9685   */\n      tag_315\n        /* \"#utility.yul\":9676:9684   */\n      dup7\n        /* \"#utility.yul\":9665:9674   */\n      dup4\n        /* \"#utility.yul\":9646:9685   */\n      tag_183\n      jump\t// in\n    tag_315:\n        /* \"#utility.yul\":9634:9685   */\n      swap6\n      pop\n        /* \"#utility.yul\":9718:9722   */\n      dup1\n        /* \"#utility.yul\":9714:9723   */\n      not\n        /* \"#utility.yul\":9707:9712   */\n      dup5\n        /* \"#utility.yul\":9703:9724   */\n      and\n        /* \"#utility.yul\":9694:9724   */\n      swap4\n      pop\n        /* \"#utility.yul\":9767:9771   */\n      dup1\n        /* \"#utility.yul\":9757:9765   */\n      dup7\n        /* \"#utility.yul\":9753:9772   */\n      and\n        /* \"#utility.yul\":9746:9751   */\n      dup5\n        /* \"#utility.yul\":9743:9773   */\n      or\n        /* \"#utility.yul\":9733:9773   */\n      swap3\n      pop\n        /* \"#utility.yul\":9462:9779   */\n      pop\n      pop\n        /* \"#utility.yul\":9386:9779   */\n      swap4\n      swap3\n      pop\n      pop\n      pop\n      jump\t// out\n        /* \"#utility.yul\":9785:9845   */\n    tag_185:\n        /* \"#utility.yul\":9813:9816   */\n      0x00\n        /* \"#utility.yul\":9834:9839   */\n      dup2\n        /* \"#utility.yul\":9827:9839   */\n      swap1\n      pop\n        /* \"#utility.yul\":9785:9845   */\n      swap2\n      swap1\n      pop\n      jump\t// out\n        /* \"#utility.yul\":9851:9993   */\n    tag_186:\n        /* \"#utility.yul\":9901:9910   */\n      0x00\n        /* \"#utility.yul\":9934:9987   */\n      tag_318\n        /* \"#utility.yul\":9952:9986   */\n      tag_319\n        /* \"#utility.yul\":9961:9985   */\n      tag_320\n        /* \"#utility.yul\":9979:9984   */\n      dup5\n        /* \"#utility.yul\":9961:9985   */\n      tag_159\n      jump\t// in\n    tag_320:\n        /* \"#utility.yul\":9952:9986   */\n      tag_185\n      jump\t// in\n    tag_319:\n        /* \"#utility.yul\":9934:9987   */\n      tag_159\n      jump\t// in\n    tag_318:\n        /* \"#utility.yul\":9921:9987   */\n      swap1\n      pop\n        /* \"#utility.yul\":9851:9993   */\n      swap2\n      swap1\n      pop\n      jump\t// out\n        /* \"#utility.yul\":9999:10074   */\n    tag_187:\n        /* \"#utility.yul\":10042:10045   */\n      0x00\n        /* \"#utility.yul\":10063:10068   */\n      dup2\n        /* \"#utility.yul\":10056:10068   */\n      swap1\n      pop\n        /* \"#utility.yul\":9999:10074   */\n      swap2\n      swap1\n      pop\n      jump\t// out\n        /* \"#utility.yul\":10080:10349   */\n    tag_188:\n        /* \"#utility.yul\":10190:10229   */\n      tag_323\n        /* \"#utility.yul\":10221:10228   */\n      dup4\n        /* \"#utility.yul\":10190:10229   */\n      tag_186\n      jump\t// in\n    tag_323:\n        /* \"#utility.yul\":10251:10342   */\n      tag_324\n        /* \"#utility.yul\":10300:10341   */\n      tag_325\n        /* \"#utility.yul\":10324:10340   */\n      dup3\n        /* \"#utility.yul\":10300:10341   */\n      tag_187\n      jump\t// in\n    tag_325:\n        /* \"#utility.yul\":10292:10298   */\n      dup5\n        /* \"#utility.yul\":10285:10289   */\n      dup5\n        /* \"#utility.yul\":10279:10290   */\n      sload\n        /* \"#utility.yul\":10251:10342   */\n      tag_184\n      jump\t// in\n    tag_324:\n        /* \"#utility.yul\":10245:10249   */\n      dup3\n        /* \"#utility.yul\":10238:10343   */\n      sstore\n        /* \"#utility.yul\":10156:10349   */\n      pop\n        /* \"#utility.yul\":10080:10349   */\n      pop\n      pop\n      pop\n      jump\t// out\n        /* \"#utility.yul\":10355:10428   */\n    tag_189:\n        /* \"#utility.yul\":10400:10403   */\n      0x00\n        /* \"#utility.yul\":10355:10428   */\n      swap1\n      jump\t// out\n        /* \"#utility.yul\":10434:10623   */\n    tag_190:\n        /* \"#utility.yul\":10511:10543   */\n      tag_328\n      tag_189\n      jump\t// in\n    tag_328:\n        /* \"#utility.yul\":10552:10617   */\n      tag_329\n        /* \"#utility.yul\":10610:10616   */\n      dup2\n        /* \"#utility.yul\":10602:10608   */\n      dup5\n        /* \"#utility.yul\":10596:10600   */\n      dup5\n        /* \"#utility.yul\":10552:10617   */\n      tag_188\n      jump\t// in\n    tag_329:\n        /* \"#utility.yul\":10487:10623   */\n      pop\n        /* \"#utility.yul\":10434:10623   */\n      pop\n      pop\n      jump\t// out\n        /* \"#utility.yul\":10629:10815   */\n    tag_191:\n        /* \"#utility.yul\":10689:10809   */\n    tag_331:\n        /* \"#utility.yul\":10706:10709   */\n      dup2\n        /* \"#utility.yul\":10699:10704   */\n      dup2\n        /* \"#utility.yul\":10696:10710   */\n      lt\n        /* \"#utility.yul\":10689:10809   */\n      iszero\n      tag_333\n      jumpi\n        /* \"#utility.yul\":10760:10799   */\n      tag_334\n        /* \"#utility.yul\":10797:10798   */\n      0x00\n        /* \"#utility.yul\":10790:10795   */\n      dup3\n        /* \"#utility.yul\":10760:10799   */\n      tag_190\n      jump\t// in\n    tag_334:\n        /* \"#utility.yul\":10733:10734   */\n      0x01\n        /* \"#utility.yul\":10726:10731   */\n      dup2\n        /* \"#utility.yul\":10722:10735   */\n      add\n        /* \"#utility.yul\":10713:10735   */\n      swap1\n      pop\n        /* \"#utility.yul\":10689:10809   */\n      jump(tag_331)\n    tag_333:\n        /* \"#utility.yul\":10629:10815   */\n      pop\n      pop\n      jump\t// out\n        /* \"#utility.yul\":10821:11364   */\n    tag_192:\n        /* \"#utility.yul\":10922:10924   */\n      0x1f\n        /* \"#utility.yul\":10917:10920   */\n      dup3\n        /* \"#utility.yul\":10914:10925   */\n      gt\n        /* \"#utility.yul\":10911:11357   */\n      iszero\n      tag_336\n      jumpi\n        /* \"#utility.yul\":10956:10994   */\n      tag_337\n        /* \"#utility.yul\":10988:10993   */\n      dup2\n        /* \"#utility.yul\":10956:10994   */\n      tag_181\n      jump\t// in\n    tag_337:\n        /* \"#utility.yul\":11040:11069   */\n      tag_338\n        /* \"#utility.yul\":11058:11068   */\n      dup5\n        /* \"#utility.yul\":11040:11069   */\n      tag_182\n      jump\t// in\n    tag_338:\n        /* \"#utility.yul\":11030:11038   */\n      dup2\n        /* \"#utility.yul\":11026:11070   */\n      add\n        /* \"#utility.yul\":11223:11225   */\n      0x20\n        /* \"#utility.yul\":11211:11221   */\n      dup6\n        /* \"#utility.yul\":11208:11226   */\n      lt\n        /* \"#utility.yul\":11205:11254   */\n      iszero\n      tag_339\n      jumpi\n        /* \"#utility.yul\":11244:11252   */\n      dup2\n        /* \"#utility.yul\":11229:11252   */\n      swap1\n      pop\n        /* \"#utility.yul\":11205:11254   */\n    tag_339:\n        /* \"#utility.yul\":11267:11347   */\n      tag_340\n        /* \"#utility.yul\":11323:11345   */\n      tag_341\n        /* \"#utility.yul\":11341:11344   */\n      dup6\n        /* \"#utility.yul\":11323:11345   */\n      tag_182\n      jump\t// in\n    tag_341:\n        /* \"#utility.yul\":11313:11321   */\n      dup4\n        /* \"#utility.yul\":11309:11346   */\n      add\n        /* \"#utility.yul\":11296:11307   */\n      dup3\n        /* \"#utility.yul\":11267:11347   */\n      tag_191\n      jump\t// in\n    tag_340:\n        /* \"#utility.yul\":10926:11357   */\n      pop\n      pop\n        /* \"#utility.yul\":10911:11357   */\n    tag_336:\n        /* \"#utility.yul\":10821:11364   */\n      pop\n      pop\n      pop\n      jump\t// out\n        /* \"#utility.yul\":11370:11487   */\n    tag_193:\n        /* \"#utility.yul\":11424:11432   */\n      0x00\n        /* \"#utility.yul\":11474:11479   */\n      dup3\n        /* \"#utility.yul\":11468:11472   */\n      dup3\n        /* \"#utility.yul\":11464:11480   */\n      shr\n        /* \"#utility.yul\":11443:11480   */\n      swap1\n      pop\n        /* \"#utility.yul\":11370:11487   */\n      swap3\n      swap2\n      pop\n      pop\n      jump\t// out\n        /* \"#utility.yul\":11493:11662   */\n    tag_194:\n        /* \"#utility.yul\":11537:11543   */\n      0x00\n        /* \"#utility.yul\":11570:11621   */\n      tag_344\n        /* \"#utility.yul\":11618:11619   */\n      0x00\n        /* \"#utility.yul\":11614:11620   */\n      not\n        /* \"#utility.yul\":11606:11611   */\n      dup5\n        /* \"#utility.yul\":11603:11604   */\n      0x08\n        /* \"#utility.yul\":11599:11612   */\n      mul\n        /* \"#utility.yul\":11570:11621   */\n      tag_193\n      jump\t// in\n    tag_344:\n        /* \"#utility.yul\":11566:11622   */\n      not\n        /* \"#utility.yul\":11651:11655   */\n      dup1\n        /* \"#utility.yul\":11645:11649   */\n      dup4\n        /* \"#utility.yul\":11641:11656   */\n      and\n        /* \"#utility.yul\":11631:11656   */\n      swap2\n      pop\n        /* \"#utility.yul\":11544:11662   */\n      pop\n        /* \"#utility.yul\":11493:11662   */\n      swap3\n      swap2\n      pop\n      pop\n      jump\t// out\n        /* \"#utility.yul\":11667:11962   */\n    tag_195:\n        /* \"#utility.yul\":11743:11747   */\n      0x00\n        /* \"#utility.yul\":11889:11918   */\n      tag_346\n        /* \"#utility.yul\":11914:11917   */\n      dup4\n        /* \"#utility.yul\":11908:11912   */\n      dup4\n        /* \"#utility.yul\":11889:11918   */\n      tag_194\n      jump\t// in\n    tag_346:\n        /* \"#utility.yul\":11881:11918   */\n      swap2\n      pop\n        /* \"#utility.yul\":11951:11954   */\n      dup3\n        /* \"#utility.yul\":11948:11949   */\n      0x02\n        /* \"#utility.yul\":11944:11955   */\n      mul\n        /* \"#utility.yul\":11938:11942   */\n      dup3\n        /* \"#utility.yul\":11935:11956   */\n      or\n        /* \"#utility.yul\":11927:11956   */\n      swap1\n      pop\n        /* \"#utility.yul\":11667:11962   */\n      swap3\n      swap2\n      pop\n      pop\n      jump\t// out\n        /* \"#utility.yul\":11967:13370   */\n    tag_93:\n        /* \"#utility.yul\":12091:12135   */\n      tag_348\n        /* \"#utility.yul\":12131:12134   */\n      dup4\n        /* \"#utility.yul\":12126:12129   */\n      dup4\n        /* \"#utility.yul\":12091:12135   */\n      tag_178\n      jump\t// in\n    tag_348:\n        /* \"#utility.yul\":12200:12218   */\n      0xffffffffffffffff\n        /* \"#utility.yul\":12192:12198   */\n      dup2\n        /* \"#utility.yul\":12189:12219   */\n      gt\n        /* \"#utility.yul\":12186:12242   */\n      iszero\n      tag_349\n      jumpi\n        /* \"#utility.yul\":12222:12240   */\n      tag_350\n      tag_179\n      jump\t// in\n    tag_350:\n        /* \"#utility.yul\":12186:12242   */\n    tag_349:\n        /* \"#utility.yul\":12266:12304   */\n      tag_351\n        /* \"#utility.yul\":12298:12302   */\n      dup3\n        /* \"#utility.yul\":12292:12303   */\n      sload\n        /* \"#utility.yul\":12266:12304   */\n      tag_143\n      jump\t// in\n    tag_351:\n        /* \"#utility.yul\":12351:12418   */\n      tag_352\n        /* \"#utility.yul\":12411:12417   */\n      dup3\n        /* \"#utility.yul\":12403:12409   */\n      dup3\n        /* \"#utility.yul\":12397:12401   */\n      dup6\n        /* \"#utility.yul\":12351:12418   */\n      tag_192\n      jump\t// in\n    tag_352:\n        /* \"#utility.yul\":12445:12446   */\n      0x00\n        /* \"#utility.yul\":12474:12476   */\n      0x1f\n        /* \"#utility.yul\":12466:12472   */\n      dup4\n        /* \"#utility.yul\":12463:12477   */\n      gt\n        /* \"#utility.yul\":12491:12492   */\n      0x01\n        /* \"#utility.yul\":12486:13118   */\n      dup2\n      eq\n      tag_354\n      jumpi\n        /* \"#utility.yul\":13162:13163   */\n      0x00\n        /* \"#utility.yul\":13179:13185   */\n      dup5\n        /* \"#utility.yul\":13176:13260   */\n      iszero\n      tag_355\n      jumpi\n        /* \"#utility.yul\":13235:13244   */\n      dup3\n        /* \"#utility.yul\":13230:13233   */\n      dup8\n        /* \"#utility.yul\":13226:13245   */\n      add\n        /* \"#utility.yul\":13213:13246   */\n      calldataload\n        /* \"#utility.yul\":13204:13246   */\n      swap1\n      pop\n        /* \"#utility.yul\":13176:13260   */\n    tag_355:\n        /* \"#utility.yul\":13286:13353   */\n      tag_356\n        /* \"#utility.yul\":13346:13352   */\n      dup6\n        /* \"#utility.yul\":13339:13344   */\n      dup3\n        /* \"#utility.yul\":13286:13353   */\n      tag_195\n      jump\t// in\n    tag_356:\n        /* \"#utility.yul\":13280:13284   */\n      dup7\n        /* \"#utility.yul\":13273:13354   */\n      sstore\n        /* \"#utility.yul\":13135:13364   */\n      pop\n        /* \"#utility.yul\":12456:13364   */\n      jump(tag_353)\n        /* \"#utility.yul\":12486:13118   */\n    tag_354:\n        /* \"#utility.yul\":12538:12542   */\n      0x1f\n        /* \"#utility.yul\":12534:12543   */\n      not\n        /* \"#utility.yul\":12526:12532   */\n      dup5\n        /* \"#utility.yul\":12522:12544   */\n      and\n        /* \"#utility.yul\":12572:12609   */\n      tag_357\n        /* \"#utility.yul\":12604:12608   */\n      dup7\n        /* \"#utility.yul\":12572:12609   */\n      tag_181\n      jump\t// in\n    tag_357:\n        /* \"#utility.yul\":12631:12632   */\n      0x00\n        /* \"#utility.yul\":12645:12860   */\n    tag_358:\n        /* \"#utility.yul\":12659:12666   */\n      dup3\n        /* \"#utility.yul\":12656:12657   */\n      dup2\n        /* \"#utility.yul\":12653:12667   */\n      lt\n        /* \"#utility.yul\":12645:12860   */\n      iszero\n      tag_360\n      jumpi\n        /* \"#utility.yul\":12745:12754   */\n      dup5\n        /* \"#utility.yul\":12740:12743   */\n      dup10\n        /* \"#utility.yul\":12736:12755   */\n      add\n        /* \"#utility.yul\":12723:12756   */\n      calldataload\n        /* \"#utility.yul\":12715:12721   */\n      dup3\n        /* \"#utility.yul\":12708:12757   */\n      sstore\n        /* \"#utility.yul\":12796:12797   */\n      0x01\n        /* \"#utility.yul\":12788:12794   */\n      dup3\n        /* \"#utility.yul\":12784:12798   */\n      add\n        /* \"#utility.yul\":12774:12798   */\n      swap2\n      pop\n        /* \"#utility.yul\":12843:12845   */\n      0x20\n        /* \"#utility.yul\":12832:12841   */\n      dup6\n        /* \"#utility.yul\":12828:12846   */\n      add\n        /* \"#utility.yul\":12815:12846   */\n      swap5\n      pop\n        /* \"#utility.yul\":12682:12686   */\n      0x20\n        /* \"#utility.yul\":12679:12680   */\n      dup2\n        /* \"#utility.yul\":12675:12687   */\n      add\n        /* \"#utility.yul\":12670:12687   */\n      swap1\n      pop\n        /* \"#utility.yul\":12645:12860   */\n      jump(tag_358)\n    tag_360:\n        /* \"#utility.yul\":12888:12894   */\n      dup7\n        /* \"#utility.yul\":12879:12886   */\n      dup4\n        /* \"#utility.yul\":12876:12895   */\n      lt\n        /* \"#utility.yul\":12873:13059   */\n      iszero\n      tag_361\n      jumpi\n        /* \"#utility.yul\":12953:12962   */\n      dup5\n        /* \"#utility.yul\":12948:12951   */\n      dup10\n        /* \"#utility.yul\":12944:12963   */\n      add\n        /* \"#utility.yul\":12931:12964   */\n      calldataload\n        /* \"#utility.yul\":12996:13044   */\n      tag_362\n        /* \"#utility.yul\":13038:13042   */\n      0x1f\n        /* \"#utility.yul\":13030:13036   */\n      dup10\n        /* \"#utility.yul\":13026:13043   */\n      and\n        /* \"#utility.yul\":13015:13024   */\n      dup3\n        /* \"#utility.yul\":12996:13044   */\n      tag_194\n      jump\t// in\n    tag_362:\n        /* \"#utility.yul\":12988:12994   */\n      dup4\n        /* \"#utility.yul\":12981:13045   */\n      sstore\n        /* \"#utility.yul\":12896:13059   */\n      pop\n        /* \"#utility.yul\":12873:13059   */\n    tag_361:\n        /* \"#utility.yul\":13105:13106   */\n      0x01\n        /* \"#utility.yul\":13101:13102   */\n      0x02\n        /* \"#utility.yul\":13093:13099   */\n      dup9\n        /* \"#utility.yul\":13089:13103   */\n      mul\n        /* \"#utility.yul\":13085:13107   */\n      add\n        /* \"#utility.yul\":13079:13083   */\n      dup9\n        /* \"#utility.yul\":13072:13108   */\n      sstore\n        /* \"#utility.yul\":12493:13118   */\n      pop\n      pop\n      pop\n        /* \"#utility.yul\":12456:13364   */\n    tag_353:\n      pop\n        /* \"#utility.yul\":12066:13370   */\n      pop\n      pop\n      pop\n        /* \"#utility.yul\":11967:13370   */\n      pop\n      pop\n      pop\n      jump\t// out\n        /* \"#utility.yul\":13376:13550   */\n    tag_196:\n        /* \"#utility.yul\":13516:13542   */\n      0x596f7520617265206e6f7420636f6e7472696275746f72730000000000000000\n        /* \"#utility.yul\":13512:13513   */\n      0x00\n        /* \"#utility.yul\":13504:13510   */\n      dup3\n        /* \"#utility.yul\":13500:13514   */\n      add\n        /* \"#utility.yul\":13493:13543   */\n      mstore\n        /* \"#utility.yul\":13376:13550   */\n      pop\n      jump\t// out\n        /* \"#utility.yul\":13556:13922   */\n    tag_197:\n        /* \"#utility.yul\":13698:13701   */\n      0x00\n        /* \"#utility.yul\":13719:13786   */\n      tag_365\n        /* \"#utility.yul\":13783:13785   */\n      0x18\n        /* \"#utility.yul\":13778:13781   */\n      dup4\n        /* \"#utility.yul\":13719:13786   */\n      tag_168\n      jump\t// in\n    tag_365:\n        /* \"#utility.yul\":13712:13786   */\n      swap2\n      pop\n        /* \"#utility.yul\":13795:13888   */\n      tag_366\n        /* \"#utility.yul\":13884:13887   */\n      dup3\n        /* \"#utility.yul\":13795:13888   */\n      tag_196\n      jump\t// in\n    tag_366:\n        /* \"#utility.yul\":13913:13915   */\n      0x20\n        /* \"#utility.yul\":13908:13911   */\n      dup3\n        /* \"#utility.yul\":13904:13916   */\n      add\n        /* \"#utility.yul\":13897:13916   */\n      swap1\n      pop\n        /* \"#utility.yul\":13556:13922   */\n      swap2\n      swap1\n      pop\n      jump\t// out\n        /* \"#utility.yul\":13928:14347   */\n    tag_98:\n        /* \"#utility.yul\":14094:14098   */\n      0x00\n        /* \"#utility.yul\":14132:14134   */\n      0x20\n        /* \"#utility.yul\":14121:14130   */\n      dup3\n        /* \"#utility.yul\":14117:14135   */\n      add\n        /* \"#utility.yul\":14109:14135   */\n      swap1\n      pop\n        /* \"#utility.yul\":14181:14190   */\n      dup2\n        /* \"#utility.yul\":14175:14179   */\n      dup2\n        /* \"#utility.yul\":14171:14191   */\n      sub\n        /* \"#utility.yul\":14167:14168   */\n      0x00\n        /* \"#utility.yul\":14156:14165   */\n      dup4\n        /* \"#utility.yul\":14152:14169   */\n      add\n        /* \"#utility.yul\":14145:14192   */\n      mstore\n        /* \"#utility.yul\":14209:14340   */\n      tag_368\n        /* \"#utility.yul\":14335:14339   */\n      dup2\n        /* \"#utility.yul\":14209:14340   */\n      tag_197\n      jump\t// in\n    tag_368:\n        /* \"#utility.yul\":14201:14340   */\n      swap1\n      pop\n        /* \"#utility.yul\":13928:14347   */\n      swap2\n      swap1\n      pop\n      jump\t// out\n        /* \"#utility.yul\":14353:14525   */\n    tag_198:\n        /* \"#utility.yul\":14493:14517   */\n      0x596f75206861766520616c726561647920766f74656400000000000000000000\n        /* \"#utility.yul\":14489:14490   */\n      0x00\n        /* \"#utility.yul\":14481:14487   */\n      dup3\n        /* \"#utility.yul\":14477:14491   */\n      add\n        /* \"#utility.yul\":14470:14518   */\n      mstore\n        /* \"#utility.yul\":14353:14525   */\n      pop\n      jump\t// out\n        /* \"#utility.yul\":14531:14897   */\n    tag_199:\n        /* \"#utility.yul\":14673:14676   */\n      0x00\n        /* \"#utility.yul\":14694:14761   */\n      tag_371\n        /* \"#utility.yul\":14758:14760   */\n      0x16\n        /* \"#utility.yul\":14753:14756   */\n      dup4\n        /* \"#utility.yul\":14694:14761   */\n      tag_168\n      jump\t// in\n    tag_371:\n        /* \"#utility.yul\":14687:14761   */\n      swap2\n      pop\n        /* \"#utility.yul\":14770:14863   */\n      tag_372\n        /* \"#utility.yul\":14859:14862   */\n      dup3\n        /* \"#utility.yul\":14770:14863   */\n      tag_198\n      jump\t// in\n    tag_372:\n        /* \"#utility.yul\":14888:14890   */\n      0x20\n        /* \"#utility.yul\":14883:14886   */\n      dup3\n        /* \"#utility.yul\":14879:14891   */\n      add\n        /* \"#utility.yul\":14872:14891   */\n      swap1\n      pop\n        /* \"#utility.yul\":14531:14897   */\n      swap2\n      swap1\n      pop\n      jump\t// out\n        /* \"#utility.yul\":14903:15322   */\n    tag_101:\n        /* \"#utility.yul\":15069:15073   */\n      0x00\n        /* \"#utility.yul\":15107:15109   */\n      0x20\n        /* \"#utility.yul\":15096:15105   */\n      dup3\n        /* \"#utility.yul\":15092:15110   */\n      add\n        /* \"#utility.yul\":15084:15110   */\n      swap1\n      pop\n        /* \"#utility.yul\":15156:15165   */\n      dup2\n        /* \"#utility.yul\":15150:15154   */\n      dup2\n        /* \"#utility.yul\":15146:15166   */\n      sub\n        /* \"#utility.yul\":15142:15143   */\n      0x00\n        /* \"#utility.yul\":15131:15140   */\n      dup4\n        /* \"#utility.yul\":15127:15144   */\n      add\n        /* \"#utility.yul\":15120:15167   */\n      mstore\n        /* \"#utility.yul\":15184:15315   */\n      tag_374\n        /* \"#utility.yul\":15310:15314   */\n      dup2\n        /* \"#utility.yul\":15184:15315   */\n      tag_199\n      jump\t// in\n    tag_374:\n        /* \"#utility.yul\":15176:15315   */\n      swap1\n      pop\n        /* \"#utility.yul\":14903:15322   */\n      swap2\n      swap1\n      pop\n      jump\t// out\n        /* \"#utility.yul\":15328:15510   */\n    tag_200:\n        /* \"#utility.yul\":15468:15502   */\n      0x4d696e696d756d20436f6e747269627574696f6e206973207265717569726564\n        /* \"#utility.yul\":15464:15465   */\n      0x00\n        /* \"#utility.yul\":15456:15462   */\n      dup3\n        /* \"#utility.yul\":15452:15466   */\n      add\n        /* \"#utility.yul\":15445:15503   */\n      mstore\n        /* \"#utility.yul\":15328:15510   */\n      pop\n      jump\t// out\n        /* \"#utility.yul\":15516:15882   */\n    tag_201:\n        /* \"#utility.yul\":15658:15661   */\n      0x00\n        /* \"#utility.yul\":15679:15746   */\n      tag_377\n        /* \"#utility.yul\":15743:15745   */\n      0x20\n        /* \"#utility.yul\":15738:15741   */\n      dup4\n        /* \"#utility.yul\":15679:15746   */\n      tag_168\n      jump\t// in\n    tag_377:\n        /* \"#utility.yul\":15672:15746   */\n      swap2\n      pop\n        /* \"#utility.yul\":15755:15848   */\n      tag_378\n        /* \"#utility.yul\":15844:15847   */\n      dup3\n        /* \"#utility.yul\":15755:15848   */\n      tag_200\n      jump\t// in\n    tag_378:\n        /* \"#utility.yul\":15873:15875   */\n      0x20\n        /* \"#utility.yul\":15868:15871   */\n      dup3\n        /* \"#utility.yul\":15864:15876   */\n      add\n        /* \"#utility.yul\":15857:15876   */\n      swap1\n      pop\n        /* \"#utility.yul\":15516:15882   */\n      swap2\n      swap1\n      pop\n      jump\t// out\n        /* \"#utility.yul\":15888:16307   */\n    tag_106:\n        /* \"#utility.yul\":16054:16058   */\n      0x00\n        /* \"#utility.yul\":16092:16094   */\n      0x20\n        /* \"#utility.yul\":16081:16090   */\n      dup3\n        /* \"#utility.yul\":16077:16095   */\n      add\n        /* \"#utility.yul\":16069:16095   */\n      swap1\n      pop\n        /* \"#utility.yul\":16141:16150   */\n      dup2\n        /* \"#utility.yul\":16135:16139   */\n      dup2\n        /* \"#utility.yul\":16131:16151   */\n      sub\n        /* \"#utility.yul\":16127:16128   */\n      0x00\n        /* \"#utility.yul\":16116:16125   */\n      dup4\n        /* \"#utility.yul\":16112:16129   */\n      add\n        /* \"#utility.yul\":16105:16152   */\n      mstore\n        /* \"#utility.yul\":16169:16300   */\n      tag_380\n        /* \"#utility.yul\":16295:16299   */\n      dup2\n        /* \"#utility.yul\":16169:16300   */\n      tag_201\n      jump\t// in\n    tag_380:\n        /* \"#utility.yul\":16161:16300   */\n      swap1\n      pop\n        /* \"#utility.yul\":15888:16307   */\n      swap2\n      swap1\n      pop\n      jump\t// out\n        /* \"#utility.yul\":16313:16482   */\n    tag_202:\n        /* \"#utility.yul\":16453:16474   */\n      0x446561646c696e65206861732070617373656400000000000000000000000000\n        /* \"#utility.yul\":16449:16450   */\n      0x00\n        /* \"#utility.yul\":16441:16447   */\n      dup3\n        /* \"#utility.yul\":16437:16451   */\n      add\n        /* \"#utility.yul\":16430:16475   */\n      mstore\n        /* \"#utility.yul\":16313:16482   */\n      pop\n      jump\t// out\n        /* \"#utility.yul\":16488:16854   */\n    tag_203:\n        /* \"#utility.yul\":16630:16633   */\n      0x00\n        /* \"#utility.yul\":16651:16718   */\n      tag_383\n        /* \"#utility.yul\":16715:16717   */\n      0x13\n        /* \"#utility.yul\":16710:16713   */\n      dup4\n        /* \"#utility.yul\":16651:16718   */\n      tag_168\n      jump\t// in\n    tag_383:\n        /* \"#utility.yul\":16644:16718   */\n      swap2\n      pop\n        /* \"#utility.yul\":16727:16820   */\n      tag_384\n        /* \"#utility.yul\":16816:16819   */\n      dup3\n        /* \"#utility.yul\":16727:16820   */\n      tag_202\n      jump\t// in\n    tag_384:\n        /* \"#utility.yul\":16845:16847   */\n      0x20\n        /* \"#utility.yul\":16840:16843   */\n      dup3\n        /* \"#utility.yul\":16836:16848   */\n      add\n        /* \"#utility.yul\":16829:16848   */\n      swap1\n      pop\n        /* \"#utility.yul\":16488:16854   */\n      swap2\n      swap1\n      pop\n      jump\t// out\n        /* \"#utility.yul\":16860:17279   */\n    tag_109:\n        /* \"#utility.yul\":17026:17030   */\n      0x00\n        /* \"#utility.yul\":17064:17066   */\n      0x20\n        /* \"#utility.yul\":17053:17062   */\n      dup3\n        /* \"#utility.yul\":17049:17067   */\n      add\n        /* \"#utility.yul\":17041:17067   */\n      swap1\n      pop\n        /* \"#utility.yul\":17113:17122   */\n      dup2\n        /* \"#utility.yul\":17107:17111   */\n      dup2\n        /* \"#utility.yul\":17103:17123   */\n      sub\n        /* \"#utility.yul\":17099:17100   */\n      0x00\n        /* \"#utility.yul\":17088:17097   */\n      dup4\n        /* \"#utility.yul\":17084:17101   */\n      add\n        /* \"#utility.yul\":17077:17124   */\n      mstore\n        /* \"#utility.yul\":17141:17272   */\n      tag_386\n        /* \"#utility.yul\":17267:17271   */\n      dup2\n        /* \"#utility.yul\":17141:17272   */\n      tag_203\n      jump\t// in\n    tag_386:\n        /* \"#utility.yul\":17133:17272   */\n      swap1\n      pop\n        /* \"#utility.yul\":16860:17279   */\n      swap2\n      swap1\n      pop\n      jump\t// out\n        /* \"#utility.yul\":17285:17476   */\n    tag_113:\n        /* \"#utility.yul\":17325:17328   */\n      0x00\n        /* \"#utility.yul\":17344:17364   */\n      tag_388\n        /* \"#utility.yul\":17362:17363   */\n      dup3\n        /* \"#utility.yul\":17344:17364   */\n      tag_159\n      jump\t// in\n    tag_388:\n        /* \"#utility.yul\":17339:17364   */\n      swap2\n      pop\n        /* \"#utility.yul\":17378:17398   */\n      tag_389\n        /* \"#utility.yul\":17396:17397   */\n      dup4\n        /* \"#utility.yul\":17378:17398   */\n      tag_159\n      jump\t// in\n    tag_389:\n        /* \"#utility.yul\":17373:17398   */\n      swap3\n      pop\n        /* \"#utility.yul\":17421:17422   */\n      dup3\n        /* \"#utility.yul\":17418:17419   */\n      dup3\n        /* \"#utility.yul\":17414:17423   */\n      add\n        /* \"#utility.yul\":17407:17423   */\n      swap1\n      pop\n        /* \"#utility.yul\":17442:17445   */\n      dup1\n        /* \"#utility.yul\":17439:17440   */\n      dup3\n        /* \"#utility.yul\":17436:17446   */\n      gt\n        /* \"#utility.yul\":17433:17469   */\n      iszero\n      tag_390\n      jumpi\n        /* \"#utility.yul\":17449:17467   */\n      tag_391\n      tag_177\n      jump\t// in\n    tag_391:\n        /* \"#utility.yul\":17433:17469   */\n    tag_390:\n        /* \"#utility.yul\":17285:17476   */\n      swap3\n      swap2\n      pop\n      pop\n      jump\t// out\n        /* \"#utility.yul\":17482:17654   */\n    tag_204:\n        /* \"#utility.yul\":17622:17646   */\n      0x546172676574206e6f7420796574207265616368656400000000000000000000\n        /* \"#utility.yul\":17618:17619   */\n      0x00\n        /* \"#utility.yul\":17610:17616   */\n      dup3\n        /* \"#utility.yul\":17606:17620   */\n      add\n        /* \"#utility.yul\":17599:17647   */\n      mstore\n        /* \"#utility.yul\":17482:17654   */\n      pop\n      jump\t// out\n        /* \"#utility.yul\":17660:18026   */\n    tag_205:\n        /* \"#utility.yul\":17802:17805   */\n      0x00\n        /* \"#utility.yul\":17823:17890   */\n      tag_394\n        /* \"#utility.yul\":17887:17889   */\n      0x16\n        /* \"#utility.yul\":17882:17885   */\n      dup4\n        /* \"#utility.yul\":17823:17890   */\n      tag_168\n      jump\t// in\n    tag_394:\n        /* \"#utility.yul\":17816:17890   */\n      swap2\n      pop\n        /* \"#utility.yul\":17899:17992   */\n      tag_395\n        /* \"#utility.yul\":17988:17991   */\n      dup3\n        /* \"#utility.yul\":17899:17992   */\n      tag_204\n      jump\t// in\n    tag_395:\n        /* \"#utility.yul\":18017:18019   */\n      0x20\n        /* \"#utility.yul\":18012:18015   */\n      dup3\n        /* \"#utility.yul\":18008:18020   */\n      add\n        /* \"#utility.yul\":18001:18020   */\n      swap1\n      pop\n        /* \"#utility.yul\":17660:18026   */\n      swap2\n      swap1\n      pop\n      jump\t// out\n        /* \"#utility.yul\":18032:18451   */\n    tag_121:\n        /* \"#utility.yul\":18198:18202   */\n      0x00\n        /* \"#utility.yul\":18236:18238   */\n      0x20\n        /* \"#utility.yul\":18225:18234   */\n      dup3\n        /* \"#utility.yul\":18221:18239   */\n      add\n        /* \"#utility.yul\":18213:18239   */\n      swap1\n      pop\n        /* \"#utility.yul\":18285:18294   */\n      dup2\n        /* \"#utility.yul\":18279:18283   */\n      dup2\n        /* \"#utility.yul\":18275:18295   */\n      sub\n        /* \"#utility.yul\":18271:18272   */\n      0x00\n        /* \"#utility.yul\":18260:18269   */\n      dup4\n        /* \"#utility.yul\":18256:18273   */\n      add\n        /* \"#utility.yul\":18249:18296   */\n      mstore\n        /* \"#utility.yul\":18313:18444   */\n      tag_397\n        /* \"#utility.yul\":18439:18443   */\n      dup2\n        /* \"#utility.yul\":18313:18444   */\n      tag_205\n      jump\t// in\n    tag_397:\n        /* \"#utility.yul\":18305:18444   */\n      swap1\n      pop\n        /* \"#utility.yul\":18032:18451   */\n      swap2\n      swap1\n      pop\n      jump\t// out\n        /* \"#utility.yul\":18457:18638   */\n    tag_206:\n        /* \"#utility.yul\":18597:18630   */\n      0x54686973207265717565737420686173206265656e20636f6d706c6574656400\n        /* \"#utility.yul\":18593:18594   */\n      0x00\n        /* \"#utility.yul\":18585:18591   */\n      dup3\n        /* \"#utility.yul\":18581:18595   */\n      add\n        /* \"#utility.yul\":18574:18631   */\n      mstore\n        /* \"#utility.yul\":18457:18638   */\n      pop\n      jump\t// out\n        /* \"#utility.yul\":18644:19010   */\n    tag_207:\n        /* \"#utility.yul\":18786:18789   */\n      0x00\n        /* \"#utility.yul\":18807:18874   */\n      tag_400\n        /* \"#utility.yul\":18871:18873   */\n      0x1f\n        /* \"#utility.yul\":18866:18869   */\n      dup4\n        /* \"#utility.yul\":18807:18874   */\n      tag_168\n      jump\t// in\n    tag_400:\n        /* \"#utility.yul\":18800:18874   */\n      swap2\n      pop\n        /* \"#utility.yul\":18883:18976   */\n      tag_401\n        /* \"#utility.yul\":18972:18975   */\n      dup3\n        /* \"#utility.yul\":18883:18976   */\n      tag_206\n      jump\t// in\n    tag_401:\n        /* \"#utility.yul\":19001:19003   */\n      0x20\n        /* \"#utility.yul\":18996:18999   */\n      dup3\n        /* \"#utility.yul\":18992:19004   */\n      add\n        /* \"#utility.yul\":18985:19004   */\n      swap1\n      pop\n        /* \"#utility.yul\":18644:19010   */\n      swap2\n      swap1\n      pop\n      jump\t// out\n        /* \"#utility.yul\":19016:19435   */\n    tag_124:\n        /* \"#utility.yul\":19182:19186   */\n      0x00\n        /* \"#utility.yul\":19220:19222   */\n      0x20\n        /* \"#utility.yul\":19209:19218   */\n      dup3\n        /* \"#utility.yul\":19205:19223   */\n      add\n        /* \"#utility.yul\":19197:19223   */\n      swap1\n      pop\n        /* \"#utility.yul\":19269:19278   */\n      dup2\n        /* \"#utility.yul\":19263:19267   */\n      dup2\n        /* \"#utility.yul\":19259:19279   */\n      sub\n        /* \"#utility.yul\":19255:19256   */\n      0x00\n        /* \"#utility.yul\":19244:19253   */\n      dup4\n        /* \"#utility.yul\":19240:19257   */\n      add\n        /* \"#utility.yul\":19233:19280   */\n      mstore\n        /* \"#utility.yul\":19297:19428   */\n      tag_403\n        /* \"#utility.yul\":19423:19427   */\n      dup2\n        /* \"#utility.yul\":19297:19428   */\n      tag_207\n      jump\t// in\n    tag_403:\n        /* \"#utility.yul\":19289:19428   */\n      swap1\n      pop\n        /* \"#utility.yul\":19016:19435   */\n      swap2\n      swap1\n      pop\n      jump\t// out\n        /* \"#utility.yul\":19441:19621   */\n    tag_208:\n        /* \"#utility.yul\":19489:19566   */\n      0x4e487b7100000000000000000000000000000000000000000000000000000000\n        /* \"#utility.yul\":19486:19487   */\n      0x00\n        /* \"#utility.yul\":19479:19567   */\n      mstore\n        /* \"#utility.yul\":19586:19590   */\n      0x12\n        /* \"#utility.yul\":19583:19584   */\n      0x04\n        /* \"#utility.yul\":19576:19591   */\n      mstore\n        /* \"#utility.yul\":19610:19614   */\n      0x24\n        /* \"#utility.yul\":19607:19608   */\n      0x00\n        /* \"#utility.yul\":19600:19615   */\n      revert\n        /* \"#utility.yul\":19627:19812   */\n    tag_126:\n        /* \"#utility.yul\":19667:19668   */\n      0x00\n        /* \"#utility.yul\":19684:19704   */\n      tag_406\n        /* \"#utility.yul\":19702:19703   */\n      dup3\n        /* \"#utility.yul\":19684:19704   */\n      tag_159\n      jump\t// in\n    tag_406:\n        /* \"#utility.yul\":19679:19704   */\n      swap2\n      pop\n        /* \"#utility.yul\":19718:19738   */\n      tag_407\n        /* \"#utility.yul\":19736:19737   */\n      dup4\n        /* \"#utility.yul\":19718:19738   */\n      tag_159\n      jump\t// in\n    tag_407:\n        /* \"#utility.yul\":19713:19738   */\n      swap3\n      pop\n        /* \"#utility.yul\":19757:19758   */\n      dup3\n        /* \"#utility.yul\":19747:19782   */\n      tag_408\n      jumpi\n        /* \"#utility.yul\":19762:19780   */\n      tag_409\n      tag_208\n      jump\t// in\n    tag_409:\n        /* \"#utility.yul\":19747:19782   */\n    tag_408:\n        /* \"#utility.yul\":19804:19805   */\n      dup3\n        /* \"#utility.yul\":19801:19802   */\n      dup3\n        /* \"#utility.yul\":19797:19806   */\n      div\n        /* \"#utility.yul\":19792:19806   */\n      swap1\n      pop\n        /* \"#utility.yul\":19627:19812   */\n      swap3\n      swap2\n      pop\n      pop\n      jump\t// out\n        /* \"#utility.yul\":19818:20109   */\n    tag_209:\n        /* \"#utility.yul\":19958:19992   */\n      0x596f75206e656564206d6f7265207468616e2068616c66206f66207468652063\n        /* \"#utility.yul\":19954:19955   */\n      0x00\n        /* \"#utility.yul\":19946:19952   */\n      dup3\n        /* \"#utility.yul\":19942:19956   */\n      add\n        /* \"#utility.yul\":19935:19993   */\n      mstore\n        /* \"#utility.yul\":20027:20061   */\n      0x6f6e7472696275746f7220746f20636f6d706c65746520746869732072657175\n        /* \"#utility.yul\":20022:20024   */\n      0x20\n        /* \"#utility.yul\":20014:20020   */\n      dup3\n        /* \"#utility.yul\":20010:20025   */\n      add\n        /* \"#utility.yul\":20003:20062   */\n      mstore\n        /* \"#utility.yul\":20096:20101   */\n      0x6573740000000000000000000000000000000000000000000000000000000000\n        /* \"#utility.yul\":20091:20093   */\n      0x40\n        /* \"#utility.yul\":20083:20089   */\n      dup3\n        /* \"#utility.yul\":20079:20094   */\n      add\n        /* \"#utility.yul\":20072:20102   */\n      mstore\n        /* \"#utility.yul\":19818:20109   */\n      pop\n      jump\t// out\n        /* \"#utility.yul\":20115:20481   */\n    tag_210:\n        /* \"#utility.yul\":20257:20260   */\n      0x00\n        /* \"#utility.yul\":20278:20345   */\n      tag_412\n        /* \"#utility.yul\":20342:20344   */\n      0x43\n        /* \"#utility.yul\":20337:20340   */\n      dup4\n        /* \"#utility.yul\":20278:20345   */\n      tag_168\n      jump\t// in\n    tag_412:\n        /* \"#utility.yul\":20271:20345   */\n      swap2\n      pop\n        /* \"#utility.yul\":20354:20447   */\n      tag_413\n        /* \"#utility.yul\":20443:20446   */\n      dup3\n        /* \"#utility.yul\":20354:20447   */\n      tag_209\n      jump\t// in\n    tag_413:\n        /* \"#utility.yul\":20472:20474   */\n      0x60\n        /* \"#utility.yul\":20467:20470   */\n      dup3\n        /* \"#utility.yul\":20463:20475   */\n      add\n        /* \"#utility.yul\":20456:20475   */\n      swap1\n      pop\n        /* \"#utility.yul\":20115:20481   */\n      swap2\n      swap1\n      pop\n      jump\t// out\n        /* \"#utility.yul\":20487:20906   */\n    tag_129:\n        /* \"#utility.yul\":20653:20657   */\n      0x00\n        /* \"#utility.yul\":20691:20693   */\n      0x20\n        /* \"#utility.yul\":20680:20689   */\n      dup3\n        /* \"#utility.yul\":20676:20694   */\n      add\n        /* \"#utility.yul\":20668:20694   */\n      swap1\n      pop\n        /* \"#utility.yul\":20740:20749   */\n      dup2\n        /* \"#utility.yul\":20734:20738   */\n      dup2\n        /* \"#utility.yul\":20730:20750   */\n      sub\n        /* \"#utility.yul\":20726:20727   */\n      0x00\n        /* \"#utility.yul\":20715:20724   */\n      dup4\n        /* \"#utility.yul\":20711:20728   */\n      add\n        /* \"#utility.yul\":20704:20751   */\n      mstore\n        /* \"#utility.yul\":20768:20899   */\n      tag_415\n        /* \"#utility.yul\":20894:20898   */\n      dup2\n        /* \"#utility.yul\":20768:20899   */\n      tag_210\n      jump\t// in\n    tag_415:\n        /* \"#utility.yul\":20760:20899   */\n      swap1\n      pop\n        /* \"#utility.yul\":20487:20906   */\n      swap2\n      swap1\n      pop\n      jump\t// out\n        /* \"#utility.yul\":20912:21092   */\n    tag_211:\n        /* \"#utility.yul\":21052:21084   */\n      0x596f7520617265206e6f7420656c696769626c6520746f20726566756e640000\n        /* \"#utility.yul\":21048:21049   */\n      0x00\n        /* \"#utility.yul\":21040:21046   */\n      dup3\n        /* \"#utility.yul\":21036:21050   */\n      add\n        /* \"#utility.yul\":21029:21085   */\n      mstore\n        /* \"#utility.yul\":20912:21092   */\n      pop\n      jump\t// out\n        /* \"#utility.yul\":21098:21464   */\n    tag_212:\n        /* \"#utility.yul\":21240:21243   */\n      0x00\n        /* \"#utility.yul\":21261:21328   */\n      tag_418\n        /* \"#utility.yul\":21325:21327   */\n      0x1e\n        /* \"#utility.yul\":21320:21323   */\n      dup4\n        /* \"#utility.yul\":21261:21328   */\n      tag_168\n      jump\t// in\n    tag_418:\n        /* \"#utility.yul\":21254:21328   */\n      swap2\n      pop\n        /* \"#utility.yul\":21337:21430   */\n      tag_419\n        /* \"#utility.yul\":21426:21429   */\n      dup3\n        /* \"#utility.yul\":21337:21430   */\n      tag_211\n      jump\t// in\n    tag_419:\n        /* \"#utility.yul\":21455:21457   */\n      0x20\n        /* \"#utility.yul\":21450:21453   */\n      dup3\n        /* \"#utility.yul\":21446:21458   */\n      add\n        /* \"#utility.yul\":21439:21458   */\n      swap1\n      pop\n        /* \"#utility.yul\":21098:21464   */\n      swap2\n      swap1\n      pop\n      jump\t// out\n        /* \"#utility.yul\":21470:21889   */\n    tag_136:\n        /* \"#utility.yul\":21636:21640   */\n      0x00\n        /* \"#utility.yul\":21674:21676   */\n      0x20\n        /* \"#utility.yul\":21663:21672   */\n      dup3\n        /* \"#utility.yul\":21659:21677   */\n      add\n        /* \"#utility.yul\":21651:21677   */\n      swap1\n      pop\n        /* \"#utility.yul\":21723:21732   */\n      dup2\n        /* \"#utility.yul\":21717:21721   */\n      dup2\n        /* \"#utility.yul\":21713:21733   */\n      sub\n        /* \"#utility.yul\":21709:21710   */\n      0x00\n        /* \"#utility.yul\":21698:21707   */\n      dup4\n        /* \"#utility.yul\":21694:21711   */\n      add\n        /* \"#utility.yul\":21687:21734   */\n      mstore\n        /* \"#utility.yul\":21751:21882   */\n      tag_421\n        /* \"#utility.yul\":21877:21881   */\n      dup2\n        /* \"#utility.yul\":21751:21882   */\n      tag_212\n      jump\t// in\n    tag_421:\n        /* \"#utility.yul\":21743:21882   */\n      swap1\n      pop\n        /* \"#utility.yul\":21470:21889   */\n      swap2\n      swap1\n      pop\n      jump\t// out\n\n    auxdata: 0xa264697066735822122026cec487e220605e4c65cf98453a4255a2b8b968ac4a078c348af7a553a6bca564736f6c634300081a0033\n}\n",
				"bytecode": {
					"linkReferences": {},
					"object": "608060405234801561000f575f80fd5b50604051611973380380611973833981810160405281019061003191906100d7565b3360025f6101000a81548173ffffffffffffffffffffffffffffffffffffffff021916908373ffffffffffffffffffffffffffffffffffffffff1602179055508160088190555080426100849190610142565b600581905550670de0b6b3a76400006006819055505050610175565b5f80fd5b5f819050919050565b6100b6816100a4565b81146100c0575f80fd5b50565b5f815190506100d1816100ad565b92915050565b5f80604083850312156100ed576100ec6100a0565b5b5f6100fa858286016100c3565b925050602061010b858286016100c3565b9150509250929050565b7f4e487b71000000000000000000000000000000000000000000000000000000005f52601160045260245ffd5b5f61014c826100a4565b9150610157836100a4565b925082820190508082111561016f5761016e610115565b5b92915050565b6117f1806101825f395ff3fe6080604052600436106100e7575f3560e01c80635114cb5211610089578063c59ee1dc11610058578063c59ee1dc14610291578063c71daccb146102bb578063d4b83992146102e5578063d845a4b31461030f576100e7565b80635114cb52146101ff578063590e1ae314610227578063937e09b11461023d578063b1b1643114610267576100e7565b806329dcb0cf116100c557806329dcb0cf14610179578063481c6a75146101a35780634cb6f4a5146101cd57806350520b1f146101f5576100e7565b80631b16bb5c146100eb5780631e206f15146101135780631f6d49421461013d575b5f80fd5b3480156100f6575f80fd5b50610111600480360381019061010c9190610d82565b61034f565b005b34801561011e575f80fd5b506101276104ab565b6040516101349190610e02565b60405180910390f35b348015610148575f80fd5b50610163600480360381019061015e9190610e56565b6104b1565b6040516101709190610e02565b60405180910390f35b348015610184575f80fd5b5061018d6104c5565b60405161019a9190610e02565b60405180910390f35b3480156101ae575f80fd5b506101b76104cb565b6040516101c49190610e90565b60405180910390f35b3480156101d8575f80fd5b506101f360048036038101906101ee9190610ea9565b6104f0565b005b6101fd610687565b005b34801561020a575f80fd5b5061022560048036038101906102209190610ea9565b6107d7565b005b348015610232575f80fd5b5061023b6109f6565b005b348015610248575f80fd5b50610251610b8a565b60405161025e9190610e02565b60405180910390f35b348015610272575f80fd5b5061027b610b90565b6040516102889190610e02565b60405180910390f35b34801561029c575f80fd5b506102a5610b96565b6040516102b29190610e02565b60405180910390f35b3480156102c6575f80fd5b506102cf610b9c565b6040516102dc9190610e02565b60405180910390f35b3480156102f0575f80fd5b506102f9610ba3565b6040516103069190610e02565b60405180910390f35b34801561031a575f80fd5b5061033560048036038101906103309190610ea9565b610ba9565b604051610346959493929190610f6d565b60405180910390f35b60025f9054906101000a900473ffffffffffffffffffffffffffffffffffffffff1673ffffffffffffffffffffffffffffffffffffffff163373ffffffffffffffffffffffffffffffffffffffff16146103de576040517f08c379a00000000000000000000000000000000000000000000000000000000081526004016103d59061100f565b60405180910390fd5b5f60015f60075481526020019081526020015f20905060075f8154809291906104069061105a565b91905055508484825f01918261041d9291906112d2565b5082816001015f6101000a81548173ffffffffffffffffffffffffffffffffffffffff021916908373ffffffffffffffffffffffffffffffffffffffff16021790555081816002018190555060035f81548092919061047b9061105a565b91905055505f816003015f6101000a81548160ff0219169083151502179055505f81600401819055505050505050565b60035481565b5f602052805f5260405f205f915090505481565b60055481565b60025f9054906101000a900473ffffffffffffffffffffffffffffffffffffffff1681565b5f805f3373ffffffffffffffffffffffffffffffffffffffff1673ffffffffffffffffffffffffffffffffffffffff1681526020019081526020015f20541161056e576040517f08c379a0000000000000000000000000000000000000000000000000000000008152600401610565906113e9565b60405180910390fd5b5f60015f8381526020019081526020015f2090505f1515816005015f3373ffffffffffffffffffffffffffffffffffffffff1673ffffffffffffffffffffffffffffffffffffffff1681526020019081526020015f205f9054906101000a900460ff16151514610613576040517f08c379a000000000000000000000000000000000000000000000000000000000815260040161060a90611451565b60405180910390fd5b6001816005015f3373ffffffffffffffffffffffffffffffffffffffff1673ffffffffffffffffffffffffffffffffffffffff1681526020019081526020015f205f6101000a81548160ff021916908315150217905550806004015f81548092919061067e9061105a565b91905055505050565b6006543410156106cc576040517f08c379a00000000000000000000000000000000000000000000000000000000081526004016106c3906114b9565b60405180910390fd5b6005544210610710576040517f08c379a000000000000000000000000000000000000000000000000000000000815260040161070790611521565b60405180910390fd5b5f805f3373ffffffffffffffffffffffffffffffffffffffff1673ffffffffffffffffffffffffffffffffffffffff1681526020019081526020015f20540361076b5760035f8154809291906107659061105a565b91905055505b345f803373ffffffffffffffffffffffffffffffffffffffff1673ffffffffffffffffffffffffffffffffffffffff1681526020019081526020015f205f8282546107b6919061153f565b925050819055503460045f8282546107ce919061153f565b92505081905550565b60025f9054906101000a900473ffffffffffffffffffffffffffffffffffffffff1673ffffffffffffffffffffffffffffffffffffffff163373ffffffffffffffffffffffffffffffffffffffff1614610866576040517f08c379a000000000000000000000000000000000000000000000000000000000815260040161085d9061100f565b60405180910390fd5b60085460045410156108ad576040517f08c379a00000000000000000000000000000000000000000000000000000000081526004016108a4906115bc565b60405180910390fd5b5f60015f8381526020019081526020015f2090505f1515816003015f9054906101000a900460ff16151514610917576040517f08c379a000000000000000000000000000000000000000000000000000000000815260040161090e90611624565b60405180910390fd5b6002600354610926919061166f565b81600401541161096b576040517f08c379a000000000000000000000000000000000000000000000000000000000815260040161096290611735565b60405180910390fd5b806001015f9054906101000a900473ffffffffffffffffffffffffffffffffffffffff1673ffffffffffffffffffffffffffffffffffffffff166108fc826002015490811502906040515f60405180830381858888f193505050501580156109d5573d5f803e3d5ffd5b506001816003015f6101000a81548160ff0219169083151502179055505050565b60055442118015610a0a5750600854600454105b610a49576040517f08c379a0000000000000000000000000000000000000000000000000000000008152600401610a409061179d565b60405180910390fd5b5f805f3373ffffffffffffffffffffffffffffffffffffffff1673ffffffffffffffffffffffffffffffffffffffff1681526020019081526020015f205411610ac7576040517f08c379a0000000000000000000000000000000000000000000000000000000008152600401610abe906113e9565b60405180910390fd5b3373ffffffffffffffffffffffffffffffffffffffff166108fc5f803373ffffffffffffffffffffffffffffffffffffffff1673ffffffffffffffffffffffffffffffffffffffff1681526020019081526020015f205490811502906040515f60405180830381858888f19350505050158015610b46573d5f803e3d5ffd5b505f805f3373ffffffffffffffffffffffffffffffffffffffff1673ffffffffffffffffffffffffffffffffffffffff1681526020019081526020015f2081905550565b60065481565b60075481565b60045481565b5f47905090565b60085481565b6001602052805f5260405f205f91509050805f018054610bc890611105565b80601f0160208091040260200160405190810160405280929190818152602001828054610bf490611105565b8015610c3f5780601f10610c1657610100808354040283529160200191610c3f565b820191905f5260205f20905b815481529060010190602001808311610c2257829003601f168201915b505050505090806001015f9054906101000a900473ffffffffffffffffffffffffffffffffffffffff1690806002015490806003015f9054906101000a900460ff16908060040154905085565b5f80fd5b5f80fd5b5f80fd5b5f80fd5b5f80fd5b5f8083601f840112610cb557610cb4610c94565b5b8235905067ffffffffffffffff811115610cd257610cd1610c98565b5b602083019150836001820283011115610cee57610ced610c9c565b5b9250929050565b5f73ffffffffffffffffffffffffffffffffffffffff82169050919050565b5f610d1e82610cf5565b9050919050565b610d2e81610d14565b8114610d38575f80fd5b50565b5f81359050610d4981610d25565b92915050565b5f819050919050565b610d6181610d4f565b8114610d6b575f80fd5b50565b5f81359050610d7c81610d58565b92915050565b5f805f8060608587031215610d9a57610d99610c8c565b5b5f85013567ffffffffffffffff811115610db757610db6610c90565b5b610dc387828801610ca0565b94509450506020610dd687828801610d3b565b9250506040610de787828801610d6e565b91505092959194509250565b610dfc81610d4f565b82525050565b5f602082019050610e155f830184610df3565b92915050565b5f610e2582610cf5565b9050919050565b610e3581610e1b565b8114610e3f575f80fd5b50565b5f81359050610e5081610e2c565b92915050565b5f60208284031215610e6b57610e6a610c8c565b5b5f610e7884828501610e42565b91505092915050565b610e8a81610e1b565b82525050565b5f602082019050610ea35f830184610e81565b92915050565b5f60208284031215610ebe57610ebd610c8c565b5b5f610ecb84828501610d6e565b91505092915050565b5f81519050919050565b5f82825260208201905092915050565b8281835e5f83830152505050565b5f601f19601f8301169050919050565b5f610f1682610ed4565b610f208185610ede565b9350610f30818560208601610eee565b610f3981610efc565b840191505092915050565b610f4d81610d14565b82525050565b5f8115159050919050565b610f6781610f53565b82525050565b5f60a0820190508181035f830152610f858188610f0c565b9050610f946020830187610f44565b610fa16040830186610df3565b610fae6060830185610f5e565b610fbb6080830184610df3565b9695505050505050565b7f596f7520617265206e6f7420746865206d616e616765720000000000000000005f82015250565b5f610ff9601783610ede565b915061100482610fc5565b602082019050919050565b5f6020820190508181035f83015261102681610fed565b9050919050565b7f4e487b71000000000000000000000000000000000000000000000000000000005f52601160045260245ffd5b5f61106482610d4f565b91507fffffffffffffffffffffffffffffffffffffffffffffffffffffffffffffffff82036110965761109561102d565b5b600182019050919050565b5f82905092915050565b7f4e487b71000000000000000000000000000000000000000000000000000000005f52604160045260245ffd5b7f4e487b71000000000000000000000000000000000000000000000000000000005f52602260045260245ffd5b5f600282049050600182168061111c57607f821691505b60208210810361112f5761112e6110d8565b5b50919050565b5f819050815f5260205f209050919050565b5f6020601f8301049050919050565b5f82821b905092915050565b5f600883026111917fffffffffffffffffffffffffffffffffffffffffffffffffffffffffffffffff82611156565b61119b8683611156565b95508019841693508086168417925050509392505050565b5f819050919050565b5f6111d66111d16111cc84610d4f565b6111b3565b610d4f565b9050919050565b5f819050919050565b6111ef836111bc565b6112036111fb826111dd565b848454611162565b825550505050565b5f90565b61121761120b565b6112228184846111e6565b505050565b5b818110156112455761123a5f8261120f565b600181019050611228565b5050565b601f82111561128a5761125b81611135565b61126484611147565b81016020851015611273578190505b61128761127f85611147565b830182611227565b50505b505050565b5f82821c905092915050565b5f6112aa5f198460080261128f565b1980831691505092915050565b5f6112c2838361129b565b9150826002028217905092915050565b6112dc83836110a1565b67ffffffffffffffff8111156112f5576112f46110ab565b5b6112ff8254611105565b61130a828285611249565b5f601f831160018114611337575f8415611325578287013590505b61132f85826112b7565b865550611396565b601f19841661134586611135565b5f5b8281101561136c57848901358255600182019150602085019450602081019050611347565b868310156113895784890135611385601f89168261129b565b8355505b6001600288020188555050505b50505050505050565b7f596f7520617265206e6f7420636f6e7472696275746f727300000000000000005f82015250565b5f6113d3601883610ede565b91506113de8261139f565b602082019050919050565b5f6020820190508181035f830152611400816113c7565b9050919050565b7f596f75206861766520616c726561647920766f746564000000000000000000005f82015250565b5f61143b601683610ede565b915061144682611407565b602082019050919050565b5f6020820190508181035f8301526114688161142f565b9050919050565b7f4d696e696d756d20436f6e747269627574696f6e2069732072657175697265645f82015250565b5f6114a3602083610ede565b91506114ae8261146f565b602082019050919050565b5f6020820190508181035f8301526114d081611497565b9050919050565b7f446561646c696e652068617320706173736564000000000000000000000000005f82015250565b5f61150b601383610ede565b9150611516826114d7565b602082019050919050565b5f6020820190508181035f830152611538816114ff565b9050919050565b5f61154982610d4f565b915061155483610d4f565b925082820190508082111561156c5761156b61102d565b5b92915050565b7f546172676574206e6f74207965742072656163686564000000000000000000005f82015250565b5f6115a6601683610ede565b91506115b182611572565b602082019050919050565b5f6020820190508181035f8301526115d38161159a565b9050919050565b7f54686973207265717565737420686173206265656e20636f6d706c65746564005f82015250565b5f61160e601f83610ede565b9150611619826115da565b602082019050919050565b5f6020820190508181035f83015261163b81611602565b9050919050565b7f4e487b71000000000000000000000000000000000000000000000000000000005f52601260045260245ffd5b5f61167982610d4f565b915061168483610d4f565b92508261169457611693611642565b5b828204905092915050565b7f596f75206e656564206d6f7265207468616e2068616c66206f662074686520635f8201527f6f6e7472696275746f7220746f20636f6d706c6574652074686973207265717560208201527f6573740000000000000000000000000000000000000000000000000000000000604082015250565b5f61171f604383610ede565b915061172a8261169f565b606082019050919050565b5f6020820190508181035f83015261174c81611713565b9050919050565b7f596f7520617265206e6f7420656c696769626c6520746f20726566756e6400005f82015250565b5f611787601e83610ede565b915061179282611753565b602082019050919050565b5f6020820190508181035f8301526117b48161177b565b905091905056fea264697066735822122026cec487e220605e4c65cf98453a4255a2b8b968ac4a078c348af7a553a6bca564736f6c634300081a0033",
					"opcodes": "PUSH1 0x80 PUSH1 0x40 MSTORE CALLVALUE DUP1 ISZERO PUSH2 0xF JUMPI PUSH0 DUP1 REVERT JUMPDEST POP PUSH1 0x40 MLOAD PUSH2 0x1973 CODESIZE SUB DUP1 PUSH2 0x1973 DUP4 CODECOPY DUP2 DUP2 ADD PUSH1 0x40 MSTORE DUP2 ADD SWAP1 PUSH2 0x31 SWAP2 SWAP1 PUSH2 0xD7 JUMP JUMPDEST CALLER PUSH1 0x2 PUSH0 PUSH2 0x100 EXP DUP2 SLOAD DUP2 PUSH20 0xFFFFFFFFFFFFFFFFFFFFFFFFFFFFFFFFFFFFFFFF MUL NOT AND SWAP1 DUP4 PUSH20 0xFFFFFFFFFFFFFFFFFFFFFFFFFFFFFFFFFFFFFFFF AND MUL OR SWAP1 SSTORE POP DUP2 PUSH1 0x8 DUP2 SWAP1 SSTORE POP DUP1 TIMESTAMP PUSH2 0x84 SWAP2 SWAP1 PUSH2 0x142 JUMP JUMPDEST PUSH1 0x5 DUP2 SWAP1 SSTORE POP PUSH8 0xDE0B6B3A7640000 PUSH1 0x6 DUP2 SWAP1 SSTORE POP POP POP PUSH2 0x175 JUMP JUMPDEST PUSH0 DUP1 REVERT JUMPDEST PUSH0 DUP2 SWAP1 POP SWAP2 SWAP1 POP JUMP JUMPDEST PUSH2 0xB6 DUP2 PUSH2 0xA4 JUMP JUMPDEST DUP2 EQ PUSH2 0xC0 JUMPI PUSH0 DUP1 REVERT JUMPDEST POP JUMP JUMPDEST PUSH0 DUP2 MLOAD SWAP1 POP PUSH2 0xD1 DUP2 PUSH2 0xAD JUMP JUMPDEST SWAP3 SWAP2 POP POP JUMP JUMPDEST PUSH0 DUP1 PUSH1 0x40 DUP4 DUP6 SUB SLT ISZERO PUSH2 0xED JUMPI PUSH2 0xEC PUSH2 0xA0 JUMP JUMPDEST JUMPDEST PUSH0 PUSH2 0xFA DUP6 DUP3 DUP7 ADD PUSH2 0xC3 JUMP JUMPDEST SWAP3 POP POP PUSH1 0x20 PUSH2 0x10B DUP6 DUP3 DUP7 ADD PUSH2 0xC3 JUMP JUMPDEST SWAP2 POP POP SWAP3 POP SWAP3 SWAP1 POP JUMP JUMPDEST PUSH32 0x4E487B7100000000000000000000000000000000000000000000000000000000 PUSH0 MSTORE PUSH1 0x11 PUSH1 0x4 MSTORE PUSH1 0x24 PUSH0 REVERT JUMPDEST PUSH0 PUSH2 0x14C DUP3 PUSH2 0xA4 JUMP JUMPDEST SWAP2 POP PUSH2 0x157 DUP4 PUSH2 0xA4 JUMP JUMPDEST SWAP3 POP DUP3 DUP3 ADD SWAP1 POP DUP1 DUP3 GT ISZERO PUSH2 0x16F JUMPI PUSH2 0x16E PUSH2 0x115 JUMP JUMPDEST JUMPDEST SWAP3 SWAP2 POP POP JUMP JUMPDEST PUSH2 0x17F1 DUP1 PUSH2 0x182 PUSH0 CODECOPY PUSH0 RETURN INVALID PUSH1 0x80 PUSH1 0x40 MSTORE PUSH1 0x4 CALLDATASIZE LT PUSH2 0xE7 JUMPI PUSH0 CALLDATALOAD PUSH1 0xE0 SHR DUP1 PUSH4 0x5114CB52 GT PUSH2 0x89 JUMPI DUP1 PUSH4 0xC59EE1DC GT PUSH2 0x58 JUMPI DUP1 PUSH4 0xC59EE1DC EQ PUSH2 0x291 JUMPI DUP1 PUSH4 0xC71DACCB EQ PUSH2 0x2BB JUMPI DUP1 PUSH4 0xD4B83992 EQ PUSH2 0x2E5 JUMPI DUP1 PUSH4 0xD845A4B3 EQ PUSH2 0x30F JUMPI PUSH2 0xE7 JUMP JUMPDEST DUP1 PUSH4 0x5114CB52 EQ PUSH2 0x1FF JUMPI DUP1 PUSH4 0x590E1AE3 EQ PUSH2 0x227 JUMPI DUP1 PUSH4 0x937E09B1 EQ PUSH2 0x23D JUMPI DUP1 PUSH4 0xB1B16431 EQ PUSH2 0x267 JUMPI PUSH2 0xE7 JUMP JUMPDEST DUP1 PUSH4 0x29DCB0CF GT PUSH2 0xC5 JUMPI DUP1 PUSH4 0x29DCB0CF EQ PUSH2 0x179 JUMPI DUP1 PUSH4 0x481C6A75 EQ PUSH2 0x1A3 JUMPI DUP1 PUSH4 0x4CB6F4A5 EQ PUSH2 0x1CD JUMPI DUP1 PUSH4 0x50520B1F EQ PUSH2 0x1F5 JUMPI PUSH2 0xE7 JUMP JUMPDEST DUP1 PUSH4 0x1B16BB5C EQ PUSH2 0xEB JUMPI DUP1 PUSH4 0x1E206F15 EQ PUSH2 0x113 JUMPI DUP1 PUSH4 0x1F6D4942 EQ PUSH2 0x13D JUMPI JUMPDEST PUSH0 DUP1 REVERT JUMPDEST CALLVALUE DUP1 ISZERO PUSH2 0xF6 JUMPI PUSH0 DUP1 REVERT JUMPDEST POP PUSH2 0x111 PUSH1 0x4 DUP1 CALLDATASIZE SUB DUP2 ADD SWAP1 PUSH2 0x10C SWAP2 SWAP1 PUSH2 0xD82 JUMP JUMPDEST PUSH2 0x34F JUMP JUMPDEST STOP JUMPDEST CALLVALUE DUP1 ISZERO PUSH2 0x11E JUMPI PUSH0 DUP1 REVERT JUMPDEST POP PUSH2 0x127 PUSH2 0x4AB JUMP JUMPDEST PUSH1 0x40 MLOAD PUSH2 0x134 SWAP2 SWAP1 PUSH2 0xE02 JUMP JUMPDEST PUSH1 0x40 MLOAD DUP1 SWAP2 SUB SWAP1 RETURN JUMPDEST CALLVALUE DUP1 ISZERO PUSH2 0x148 JUMPI PUSH0 DUP1 REVERT JUMPDEST POP PUSH2 0x163 PUSH1 0x4 DUP1 CALLDATASIZE SUB DUP2 ADD SWAP1 PUSH2 0x15E SWAP2 SWAP1 PUSH2 0xE56 JUMP JUMPDEST PUSH2 0x4B1 JUMP JUMPDEST PUSH1 0x40 MLOAD PUSH2 0x170 SWAP2 SWAP1 PUSH2 0xE02 JUMP JUMPDEST PUSH1 0x40 MLOAD DUP1 SWAP2 SUB SWAP1 RETURN JUMPDEST CALLVALUE DUP1 ISZERO PUSH2 0x184 JUMPI PUSH0 DUP1 REVERT JUMPDEST POP PUSH2 0x18D PUSH2 0x4C5 JUMP JUMPDEST PUSH1 0x40 MLOAD PUSH2 0x19A SWAP2 SWAP1 PUSH2 0xE02 JUMP JUMPDEST PUSH1 0x40 MLOAD DUP1 SWAP2 SUB SWAP1 RETURN JUMPDEST CALLVALUE DUP1 ISZERO PUSH2 0x1AE JUMPI PUSH0 DUP1 REVERT JUMPDEST POP PUSH2 0x1B7 PUSH2 0x4CB JUMP JUMPDEST PUSH1 0x40 MLOAD PUSH2 0x1C4 SWAP2 SWAP1 PUSH2 0xE90 JUMP JUMPDEST PUSH1 0x40 MLOAD DUP1 SWAP2 SUB SWAP1 RETURN JUMPDEST CALLVALUE DUP1 ISZERO PUSH2 0x1D8 JUMPI PUSH0 DUP1 REVERT JUMPDEST POP PUSH2 0x1F3 PUSH1 0x4 DUP1 CALLDATASIZE SUB DUP2 ADD SWAP1 PUSH2 0x1EE SWAP2 SWAP1 PUSH2 0xEA9 JUMP JUMPDEST PUSH2 0x4F0 JUMP JUMPDEST STOP JUMPDEST PUSH2 0x1FD PUSH2 0x687 JUMP JUMPDEST STOP JUMPDEST CALLVALUE DUP1 ISZERO PUSH2 0x20A JUMPI PUSH0 DUP1 REVERT JUMPDEST POP PUSH2 0x225 PUSH1 0x4 DUP1 CALLDATASIZE SUB DUP2 ADD SWAP1 PUSH2 0x220 SWAP2 SWAP1 PUSH2 0xEA9 JUMP JUMPDEST PUSH2 0x7D7 JUMP JUMPDEST STOP JUMPDEST CALLVALUE DUP1 ISZERO PUSH2 0x232 JUMPI PUSH0 DUP1 REVERT JUMPDEST POP PUSH2 0x23B PUSH2 0x9F6 JUMP JUMPDEST STOP JUMPDEST CALLVALUE DUP1 ISZERO PUSH2 0x248 JUMPI PUSH0 DUP1 REVERT JUMPDEST POP PUSH2 0x251 PUSH2 0xB8A JUMP JUMPDEST PUSH1 0x40 MLOAD PUSH2 0x25E SWAP2 SWAP1 PUSH2 0xE02 JUMP JUMPDEST PUSH1 0x40 MLOAD DUP1 SWAP2 SUB SWAP1 RETURN JUMPDEST CALLVALUE DUP1 ISZERO PUSH2 0x272 JUMPI PUSH0 DUP1 REVERT JUMPDEST POP PUSH2 0x27B PUSH2 0xB90 JUMP JUMPDEST PUSH1 0x40 MLOAD PUSH2 0x288 SWAP2 SWAP1 PUSH2 0xE02 JUMP JUMPDEST PUSH1 0x40 MLOAD DUP1 SWAP2 SUB SWAP1 RETURN JUMPDEST CALLVALUE DUP1 ISZERO PUSH2 0x29C JUMPI PUSH0 DUP1 REVERT JUMPDEST POP PUSH2 0x2A5 PUSH2 0xB96 JUMP JUMPDEST PUSH1 0x40 MLOAD PUSH2 0x2B2 SWAP2 SWAP1 PUSH2 0xE02 JUMP JUMPDEST PUSH1 0x40 MLOAD DUP1 SWAP2 SUB SWAP1 RETURN JUMPDEST CALLVALUE DUP1 ISZERO PUSH2 0x2C6 JUMPI PUSH0 DUP1 REVERT JUMPDEST POP PUSH2 0x2CF PUSH2 0xB9C JUMP JUMPDEST PUSH1 0x40 MLOAD PUSH2 0x2DC SWAP2 SWAP1 PUSH2 0xE02 JUMP JUMPDEST PUSH1 0x40 MLOAD DUP1 SWAP2 SUB SWAP1 RETURN JUMPDEST CALLVALUE DUP1 ISZERO PUSH2 0x2F0 JUMPI PUSH0 DUP1 REVERT JUMPDEST POP PUSH2 0x2F9 PUSH2 0xBA3 JUMP JUMPDEST PUSH1 0x40 MLOAD PUSH2 0x306 SWAP2 SWAP1 PUSH2 0xE02 JUMP JUMPDEST PUSH1 0x40 MLOAD DUP1 SWAP2 SUB SWAP1 RETURN JUMPDEST CALLVALUE DUP1 ISZERO PUSH2 0x31A JUMPI PUSH0 DUP1 REVERT JUMPDEST POP PUSH2 0x335 PUSH1 0x4 DUP1 CALLDATASIZE SUB DUP2 ADD SWAP1 PUSH2 0x330 SWAP2 SWAP1 PUSH2 0xEA9 JUMP JUMPDEST PUSH2 0xBA9 JUMP JUMPDEST PUSH1 0x40 MLOAD PUSH2 0x346 SWAP6 SWAP5 SWAP4 SWAP3 SWAP2 SWAP1 PUSH2 0xF6D JUMP JUMPDEST PUSH1 0x40 MLOAD DUP1 SWAP2 SUB SWAP1 RETURN JUMPDEST PUSH1 0x2 PUSH0 SWAP1 SLOAD SWAP1 PUSH2 0x100 EXP SWAP1 DIV PUSH20 0xFFFFFFFFFFFFFFFFFFFFFFFFFFFFFFFFFFFFFFFF AND PUSH20 0xFFFFFFFFFFFFFFFFFFFFFFFFFFFFFFFFFFFFFFFF AND CALLER PUSH20 0xFFFFFFFFFFFFFFFFFFFFFFFFFFFFFFFFFFFFFFFF AND EQ PUSH2 0x3DE JUMPI PUSH1 0x40 MLOAD PUSH32 0x8C379A000000000000000000000000000000000000000000000000000000000 DUP2 MSTORE PUSH1 0x4 ADD PUSH2 0x3D5 SWAP1 PUSH2 0x100F JUMP JUMPDEST PUSH1 0x40 MLOAD DUP1 SWAP2 SUB SWAP1 REVERT JUMPDEST PUSH0 PUSH1 0x1 PUSH0 PUSH1 0x7 SLOAD DUP2 MSTORE PUSH1 0x20 ADD SWAP1 DUP2 MSTORE PUSH1 0x20 ADD PUSH0 KECCAK256 SWAP1 POP PUSH1 0x7 PUSH0 DUP2 SLOAD DUP1 SWAP3 SWAP2 SWAP1 PUSH2 0x406 SWAP1 PUSH2 0x105A JUMP JUMPDEST SWAP2 SWAP1 POP SSTORE POP DUP5 DUP5 DUP3 PUSH0 ADD SWAP2 DUP3 PUSH2 0x41D SWAP3 SWAP2 SWAP1 PUSH2 0x12D2 JUMP JUMPDEST POP DUP3 DUP2 PUSH1 0x1 ADD PUSH0 PUSH2 0x100 EXP DUP2 SLOAD DUP2 PUSH20 0xFFFFFFFFFFFFFFFFFFFFFFFFFFFFFFFFFFFFFFFF MUL NOT AND SWAP1 DUP4 PUSH20 0xFFFFFFFFFFFFFFFFFFFFFFFFFFFFFFFFFFFFFFFF AND MUL OR SWAP1 SSTORE POP DUP2 DUP2 PUSH1 0x2 ADD DUP2 SWAP1 SSTORE POP PUSH1 0x3 PUSH0 DUP2 SLOAD DUP1 SWAP3 SWAP2 SWAP1 PUSH2 0x47B SWAP1 PUSH2 0x105A JUMP JUMPDEST SWAP2 SWAP1 POP SSTORE POP PUSH0 DUP2 PUSH1 0x3 ADD PUSH0 PUSH2 0x100 EXP DUP2 SLOAD DUP2 PUSH1 0xFF MUL NOT AND SWAP1 DUP4 ISZERO ISZERO MUL OR SWAP1 SSTORE POP PUSH0 DUP2 PUSH1 0x4 ADD DUP2 SWAP1 SSTORE POP POP POP POP POP POP JUMP JUMPDEST PUSH1 0x3 SLOAD DUP2 JUMP JUMPDEST PUSH0 PUSH1 0x20 MSTORE DUP1 PUSH0 MSTORE PUSH1 0x40 PUSH0 KECCAK256 PUSH0 SWAP2 POP SWAP1 POP SLOAD DUP2 JUMP JUMPDEST PUSH1 0x5 SLOAD DUP2 JUMP JUMPDEST PUSH1 0x2 PUSH0 SWAP1 SLOAD SWAP1 PUSH2 0x100 EXP SWAP1 DIV PUSH20 0xFFFFFFFFFFFFFFFFFFFFFFFFFFFFFFFFFFFFFFFF AND DUP2 JUMP JUMPDEST PUSH0 DUP1 PUSH0 CALLER PUSH20 0xFFFFFFFFFFFFFFFFFFFFFFFFFFFFFFFFFFFFFFFF AND PUSH20 0xFFFFFFFFFFFFFFFFFFFFFFFFFFFFFFFFFFFFFFFF AND DUP2 MSTORE PUSH1 0x20 ADD SWAP1 DUP2 MSTORE PUSH1 0x20 ADD PUSH0 KECCAK256 SLOAD GT PUSH2 0x56E JUMPI PUSH1 0x40 MLOAD PUSH32 0x8C379A000000000000000000000000000000000000000000000000000000000 DUP2 MSTORE PUSH1 0x4 ADD PUSH2 0x565 SWAP1 PUSH2 0x13E9 JUMP JUMPDEST PUSH1 0x40 MLOAD DUP1 SWAP2 SUB SWAP1 REVERT JUMPDEST PUSH0 PUSH1 0x1 PUSH0 DUP4 DUP2 MSTORE PUSH1 0x20 ADD SWAP1 DUP2 MSTORE PUSH1 0x20 ADD PUSH0 KECCAK256 SWAP1 POP PUSH0 ISZERO ISZERO DUP2 PUSH1 0x5 ADD PUSH0 CALLER PUSH20 0xFFFFFFFFFFFFFFFFFFFFFFFFFFFFFFFFFFFFFFFF AND PUSH20 0xFFFFFFFFFFFFFFFFFFFFFFFFFFFFFFFFFFFFFFFF AND DUP2 MSTORE PUSH1 0x20 ADD SWAP1 DUP2 MSTORE PUSH1 0x20 ADD PUSH0 KECCAK256 PUSH0 SWAP1 SLOAD SWAP1 PUSH2 0x100 EXP SWAP1 DIV PUSH1 0xFF AND ISZERO ISZERO EQ PUSH2 0x613 JUMPI PUSH1 0x40 MLOAD PUSH32 0x8C379A000000000000000000000000000000000000000000000000000000000 DUP2 MSTORE PUSH1 0x4 ADD PUSH2 0x60A SWAP1 PUSH2 0x1451 JUMP JUMPDEST PUSH1 0x40 MLOAD DUP1 SWAP2 SUB SWAP1 REVERT JUMPDEST PUSH1 0x1 DUP2 PUSH1 0x5 ADD PUSH0 CALLER PUSH20 0xFFFFFFFFFFFFFFFFFFFFFFFFFFFFFFFFFFFFFFFF AND PUSH20 0xFFFFFFFFFFFFFFFFFFFFFFFFFFFFFFFFFFFFFFFF AND DUP2 MSTORE PUSH1 0x20 ADD SWAP1 DUP2 MSTORE PUSH1 0x20 ADD PUSH0 KECCAK256 PUSH0 PUSH2 0x100 EXP DUP2 SLOAD DUP2 PUSH1 0xFF MUL NOT AND SWAP1 DUP4 ISZERO ISZERO MUL OR SWAP1 SSTORE POP DUP1 PUSH1 0x4 ADD PUSH0 DUP2 SLOAD DUP1 SWAP3 SWAP2 SWAP1 PUSH2 0x67E SWAP1 PUSH2 0x105A JUMP JUMPDEST SWAP2 SWAP1 POP SSTORE POP POP POP JUMP JUMPDEST PUSH1 0x6 SLOAD CALLVALUE LT ISZERO PUSH2 0x6CC JUMPI PUSH1 0x40 MLOAD PUSH32 0x8C379A000000000000000000000000000000000000000000000000000000000 DUP2 MSTORE PUSH1 0x4 ADD PUSH2 0x6C3 SWAP1 PUSH2 0x14B9 JUMP JUMPDEST PUSH1 0x40 MLOAD DUP1 SWAP2 SUB SWAP1 REVERT JUMPDEST PUSH1 0x5 SLOAD TIMESTAMP LT PUSH2 0x710 JUMPI PUSH1 0x40 MLOAD PUSH32 0x8C379A000000000000000000000000000000000000000000000000000000000 DUP2 MSTORE PUSH1 0x4 ADD PUSH2 0x707 SWAP1 PUSH2 0x1521 JUMP JUMPDEST PUSH1 0x40 MLOAD DUP1 SWAP2 SUB SWAP1 REVERT JUMPDEST PUSH0 DUP1 PUSH0 CALLER PUSH20 0xFFFFFFFFFFFFFFFFFFFFFFFFFFFFFFFFFFFFFFFF AND PUSH20 0xFFFFFFFFFFFFFFFFFFFFFFFFFFFFFFFFFFFFFFFF AND DUP2 MSTORE PUSH1 0x20 ADD SWAP1 DUP2 MSTORE PUSH1 0x20 ADD PUSH0 KECCAK256 SLOAD SUB PUSH2 0x76B JUMPI PUSH1 0x3 PUSH0 DUP2 SLOAD DUP1 SWAP3 SWAP2 SWAP1 PUSH2 0x765 SWAP1 PUSH2 0x105A JUMP JUMPDEST SWAP2 SWAP1 POP SSTORE POP JUMPDEST CALLVALUE PUSH0 DUP1 CALLER PUSH20 0xFFFFFFFFFFFFFFFFFFFFFFFFFFFFFFFFFFFFFFFF AND PUSH20 0xFFFFFFFFFFFFFFFFFFFFFFFFFFFFFFFFFFFFFFFF AND DUP2 MSTORE PUSH1 0x20 ADD SWAP1 DUP2 MSTORE PUSH1 0x20 ADD PUSH0 KECCAK256 PUSH0 DUP3 DUP3 SLOAD PUSH2 0x7B6 SWAP2 SWAP1 PUSH2 0x153F JUMP JUMPDEST SWAP3 POP POP DUP2 SWAP1 SSTORE POP CALLVALUE PUSH1 0x4 PUSH0 DUP3 DUP3 SLOAD PUSH2 0x7CE SWAP2 SWAP1 PUSH2 0x153F JUMP JUMPDEST SWAP3 POP POP DUP2 SWAP1 SSTORE POP JUMP JUMPDEST PUSH1 0x2 PUSH0 SWAP1 SLOAD SWAP1 PUSH2 0x100 EXP SWAP1 DIV PUSH20 0xFFFFFFFFFFFFFFFFFFFFFFFFFFFFFFFFFFFFFFFF AND PUSH20 0xFFFFFFFFFFFFFFFFFFFFFFFFFFFFFFFFFFFFFFFF AND CALLER PUSH20 0xFFFFFFFFFFFFFFFFFFFFFFFFFFFFFFFFFFFFFFFF AND EQ PUSH2 0x866 JUMPI PUSH1 0x40 MLOAD PUSH32 0x8C379A000000000000000000000000000000000000000000000000000000000 DUP2 MSTORE PUSH1 0x4 ADD PUSH2 0x85D SWAP1 PUSH2 0x100F JUMP JUMPDEST PUSH1 0x40 MLOAD DUP1 SWAP2 SUB SWAP1 REVERT JUMPDEST PUSH1 0x8 SLOAD PUSH1 0x4 SLOAD LT ISZERO PUSH2 0x8AD JUMPI PUSH1 0x40 MLOAD PUSH32 0x8C379A000000000000000000000000000000000000000000000000000000000 DUP2 MSTORE PUSH1 0x4 ADD PUSH2 0x8A4 SWAP1 PUSH2 0x15BC JUMP JUMPDEST PUSH1 0x40 MLOAD DUP1 SWAP2 SUB SWAP1 REVERT JUMPDEST PUSH0 PUSH1 0x1 PUSH0 DUP4 DUP2 MSTORE PUSH1 0x20 ADD SWAP1 DUP2 MSTORE PUSH1 0x20 ADD PUSH0 KECCAK256 SWAP1 POP PUSH0 ISZERO ISZERO DUP2 PUSH1 0x3 ADD PUSH0 SWAP1 SLOAD SWAP1 PUSH2 0x100 EXP SWAP1 DIV PUSH1 0xFF AND ISZERO ISZERO EQ PUSH2 0x917 JUMPI PUSH1 0x40 MLOAD PUSH32 0x8C379A000000000000000000000000000000000000000000000000000000000 DUP2 MSTORE PUSH1 0x4 ADD PUSH2 0x90E SWAP1 PUSH2 0x1624 JUMP JUMPDEST PUSH1 0x40 MLOAD DUP1 SWAP2 SUB SWAP1 REVERT JUMPDEST PUSH1 0x2 PUSH1 0x3 SLOAD PUSH2 0x926 SWAP2 SWAP1 PUSH2 0x166F JUMP JUMPDEST DUP2 PUSH1 0x4 ADD SLOAD GT PUSH2 0x96B JUMPI PUSH1 0x40 MLOAD PUSH32 0x8C379A000000000000000000000000000000000000000000000000000000000 DUP2 MSTORE PUSH1 0x4 ADD PUSH2 0x962 SWAP1 PUSH2 0x1735 JUMP JUMPDEST PUSH1 0x40 MLOAD DUP1 SWAP2 SUB SWAP1 REVERT JUMPDEST DUP1 PUSH1 0x1 ADD PUSH0 SWAP1 SLOAD SWAP1 PUSH2 0x100 EXP SWAP1 DIV PUSH20 0xFFFFFFFFFFFFFFFFFFFFFFFFFFFFFFFFFFFFFFFF AND PUSH20 0xFFFFFFFFFFFFFFFFFFFFFFFFFFFFFFFFFFFFFFFF AND PUSH2 0x8FC DUP3 PUSH1 0x2 ADD SLOAD SWAP1 DUP2 ISZERO MUL SWAP1 PUSH1 0x40 MLOAD PUSH0 PUSH1 0x40 MLOAD DUP1 DUP4 SUB DUP2 DUP6 DUP9 DUP9 CALL SWAP4 POP POP POP POP ISZERO DUP1 ISZERO PUSH2 0x9D5 JUMPI RETURNDATASIZE PUSH0 DUP1 RETURNDATACOPY RETURNDATASIZE PUSH0 REVERT JUMPDEST POP PUSH1 0x1 DUP2 PUSH1 0x3 ADD PUSH0 PUSH2 0x100 EXP DUP2 SLOAD DUP2 PUSH1 0xFF MUL NOT AND SWAP1 DUP4 ISZERO ISZERO MUL OR SWAP1 SSTORE POP POP POP JUMP JUMPDEST PUSH1 0x5 SLOAD TIMESTAMP GT DUP1 ISZERO PUSH2 0xA0A JUMPI POP PUSH1 0x8 SLOAD PUSH1 0x4 SLOAD LT JUMPDEST PUSH2 0xA49 JUMPI PUSH1 0x40 MLOAD PUSH32 0x8C379A000000000000000000000000000000000000000000000000000000000 DUP2 MSTORE PUSH1 0x4 ADD PUSH2 0xA40 SWAP1 PUSH2 0x179D JUMP JUMPDEST PUSH1 0x40 MLOAD DUP1 SWAP2 SUB SWAP1 REVERT JUMPDEST PUSH0 DUP1 PUSH0 CALLER PUSH20 0xFFFFFFFFFFFFFFFFFFFFFFFFFFFFFFFFFFFFFFFF AND PUSH20 0xFFFFFFFFFFFFFFFFFFFFFFFFFFFFFFFFFFFFFFFF AND DUP2 MSTORE PUSH1 0x20 ADD SWAP1 DUP2 MSTORE PUSH1 0x20 ADD PUSH0 KECCAK256 SLOAD GT PUSH2 0xAC7 JUMPI PUSH1 0x40 MLOAD PUSH32 0x8C379A000000000000000000000000000000000000000000000000000000000 DUP2 MSTORE PUSH1 0x4 ADD PUSH2 0xABE SWAP1 PUSH2 0x13E9 JUMP JUMPDEST PUSH1 0x40 MLOAD DUP1 SWAP2 SUB SWAP1 REVERT JUMPDEST CALLER PUSH20 0xFFFFFFFFFFFFFFFFFFFFFFFFFFFFFFFFFFFFFFFF AND PUSH2 0x8FC PUSH0 DUP1 CALLER PUSH20 0xFFFFFFFFFFFFFFFFFFFFFFFFFFFFFFFFFFFFFFFF AND PUSH20 0xFFFFFFFFFFFFFFFFFFFFFFFFFFFFFFFFFFFFFFFF AND DUP2 MSTORE PUSH1 0x20 ADD SWAP1 DUP2 MSTORE PUSH1 0x20 ADD PUSH0 KECCAK256 SLOAD SWAP1 DUP2 ISZERO MUL SWAP1 PUSH1 0x40 MLOAD PUSH0 PUSH1 0x40 MLOAD DUP1 DUP4 SUB DUP2 DUP6 DUP9 DUP9 CALL SWAP4 POP POP POP POP ISZERO DUP1 ISZERO PUSH2 0xB46 JUMPI RETURNDATASIZE PUSH0 DUP1 RETURNDATACOPY RETURNDATASIZE PUSH0 REVERT JUMPDEST POP PUSH0 DUP1 PUSH0 CALLER PUSH20 0xFFFFFFFFFFFFFFFFFFFFFFFFFFFFFFFFFFFFFFFF AND PUSH20 0xFFFFFFFFFFFFFFFFFFFFFFFFFFFFFFFFFFFFFFFF AND DUP2 MSTORE PUSH1 0x20 ADD SWAP1 DUP2 MSTORE PUSH1 0x20 ADD PUSH0 KECCAK256 DUP2 SWAP1 SSTORE POP JUMP JUMPDEST PUSH1 0x6 SLOAD DUP2 JUMP JUMPDEST PUSH1 0x7 SLOAD DUP2 JUMP JUMPDEST PUSH1 0x4 SLOAD DUP2 JUMP JUMPDEST PUSH0 SELFBALANCE SWAP1 POP SWAP1 JUMP JUMPDEST PUSH1 0x8 SLOAD DUP2 JUMP JUMPDEST PUSH1 0x1 PUSH1 0x20 MSTORE DUP1 PUSH0 MSTORE PUSH1 0x40 PUSH0 KECCAK256 PUSH0 SWAP2 POP SWAP1 POP DUP1 PUSH0 ADD DUP1 SLOAD PUSH2 0xBC8 SWAP1 PUSH2 0x1105 JUMP JUMPDEST DUP1 PUSH1 0x1F ADD PUSH1 0x20 DUP1 SWAP2 DIV MUL PUSH1 0x20 ADD PUSH1 0x40 MLOAD SWAP1 DUP2 ADD PUSH1 0x40 MSTORE DUP1 SWAP3 SWAP2 SWAP1 DUP2 DUP2 MSTORE PUSH1 0x20 ADD DUP3 DUP1 SLOAD PUSH2 0xBF4 SWAP1 PUSH2 0x1105 JUMP JUMPDEST DUP1 ISZERO PUSH2 0xC3F JUMPI DUP1 PUSH1 0x1F LT PUSH2 0xC16 JUMPI PUSH2 0x100 DUP1 DUP4 SLOAD DIV MUL DUP4 MSTORE SWAP2 PUSH1 0x20 ADD SWAP2 PUSH2 0xC3F JUMP JUMPDEST DUP3 ADD SWAP2 SWAP1 PUSH0 MSTORE PUSH1 0x20 PUSH0 KECCAK256 SWAP1 JUMPDEST DUP2 SLOAD DUP2 MSTORE SWAP1 PUSH1 0x1 ADD SWAP1 PUSH1 0x20 ADD DUP1 DUP4 GT PUSH2 0xC22 JUMPI DUP3 SWAP1 SUB PUSH1 0x1F AND DUP3 ADD SWAP2 JUMPDEST POP POP POP POP POP SWAP1 DUP1 PUSH1 0x1 ADD PUSH0 SWAP1 SLOAD SWAP1 PUSH2 0x100 EXP SWAP1 DIV PUSH20 0xFFFFFFFFFFFFFFFFFFFFFFFFFFFFFFFFFFFFFFFF AND SWAP1 DUP1 PUSH1 0x2 ADD SLOAD SWAP1 DUP1 PUSH1 0x3 ADD PUSH0 SWAP1 SLOAD SWAP1 PUSH2 0x100 EXP SWAP1 DIV PUSH1 0xFF AND SWAP1 DUP1 PUSH1 0x4 ADD SLOAD SWAP1 POP DUP6 JUMP JUMPDEST PUSH0 DUP1 REVERT JUMPDEST PUSH0 DUP1 REVERT JUMPDEST PUSH0 DUP1 REVERT JUMPDEST PUSH0 DUP1 REVERT JUMPDEST PUSH0 DUP1 REVERT JUMPDEST PUSH0 DUP1 DUP4 PUSH1 0x1F DUP5 ADD SLT PUSH2 0xCB5 JUMPI PUSH2 0xCB4 PUSH2 0xC94 JUMP JUMPDEST JUMPDEST DUP3 CALLDATALOAD SWAP1 POP PUSH8 0xFFFFFFFFFFFFFFFF DUP2 GT ISZERO PUSH2 0xCD2 JUMPI PUSH2 0xCD1 PUSH2 0xC98 JUMP JUMPDEST JUMPDEST PUSH1 0x20 DUP4 ADD SWAP2 POP DUP4 PUSH1 0x1 DUP3 MUL DUP4 ADD GT ISZERO PUSH2 0xCEE JUMPI PUSH2 0xCED PUSH2 0xC9C JUMP JUMPDEST JUMPDEST SWAP3 POP SWAP3 SWAP1 POP JUMP JUMPDEST PUSH0 PUSH20 0xFFFFFFFFFFFFFFFFFFFFFFFFFFFFFFFFFFFFFFFF DUP3 AND SWAP1 POP SWAP2 SWAP1 POP JUMP JUMPDEST PUSH0 PUSH2 0xD1E DUP3 PUSH2 0xCF5 JUMP JUMPDEST SWAP1 POP SWAP2 SWAP1 POP JUMP JUMPDEST PUSH2 0xD2E DUP2 PUSH2 0xD14 JUMP JUMPDEST DUP2 EQ PUSH2 0xD38 JUMPI PUSH0 DUP1 REVERT JUMPDEST POP JUMP JUMPDEST PUSH0 DUP2 CALLDATALOAD SWAP1 POP PUSH2 0xD49 DUP2 PUSH2 0xD25 JUMP JUMPDEST SWAP3 SWAP2 POP POP JUMP JUMPDEST PUSH0 DUP2 SWAP1 POP SWAP2 SWAP1 POP JUMP JUMPDEST PUSH2 0xD61 DUP2 PUSH2 0xD4F JUMP JUMPDEST DUP2 EQ PUSH2 0xD6B JUMPI PUSH0 DUP1 REVERT JUMPDEST POP JUMP JUMPDEST PUSH0 DUP2 CALLDATALOAD SWAP1 POP PUSH2 0xD7C DUP2 PUSH2 0xD58 JUMP JUMPDEST SWAP3 SWAP2 POP POP JUMP JUMPDEST PUSH0 DUP1 PUSH0 DUP1 PUSH1 0x60 DUP6 DUP8 SUB SLT ISZERO PUSH2 0xD9A JUMPI PUSH2 0xD99 PUSH2 0xC8C JUMP JUMPDEST JUMPDEST PUSH0 DUP6 ADD CALLDATALOAD PUSH8 0xFFFFFFFFFFFFFFFF DUP2 GT ISZERO PUSH2 0xDB7 JUMPI PUSH2 0xDB6 PUSH2 0xC90 JUMP JUMPDEST JUMPDEST PUSH2 0xDC3 DUP8 DUP3 DUP9 ADD PUSH2 0xCA0 JUMP JUMPDEST SWAP5 POP SWAP5 POP POP PUSH1 0x20 PUSH2 0xDD6 DUP8 DUP3 DUP9 ADD PUSH2 0xD3B JUMP JUMPDEST SWAP3 POP POP PUSH1 0x40 PUSH2 0xDE7 DUP8 DUP3 DUP9 ADD PUSH2 0xD6E JUMP JUMPDEST SWAP2 POP POP SWAP3 SWAP6 SWAP2 SWAP5 POP SWAP3 POP JUMP JUMPDEST PUSH2 0xDFC DUP2 PUSH2 0xD4F JUMP JUMPDEST DUP3 MSTORE POP POP JUMP JUMPDEST PUSH0 PUSH1 0x20 DUP3 ADD SWAP1 POP PUSH2 0xE15 PUSH0 DUP4 ADD DUP5 PUSH2 0xDF3 JUMP JUMPDEST SWAP3 SWAP2 POP POP JUMP JUMPDEST PUSH0 PUSH2 0xE25 DUP3 PUSH2 0xCF5 JUMP JUMPDEST SWAP1 POP SWAP2 SWAP1 POP JUMP JUMPDEST PUSH2 0xE35 DUP2 PUSH2 0xE1B JUMP JUMPDEST DUP2 EQ PUSH2 0xE3F JUMPI PUSH0 DUP1 REVERT JUMPDEST POP JUMP JUMPDEST PUSH0 DUP2 CALLDATALOAD SWAP1 POP PUSH2 0xE50 DUP2 PUSH2 0xE2C JUMP JUMPDEST SWAP3 SWAP2 POP POP JUMP JUMPDEST PUSH0 PUSH1 0x20 DUP3 DUP5 SUB SLT ISZERO PUSH2 0xE6B JUMPI PUSH2 0xE6A PUSH2 0xC8C JUMP JUMPDEST JUMPDEST PUSH0 PUSH2 0xE78 DUP5 DUP3 DUP6 ADD PUSH2 0xE42 JUMP JUMPDEST SWAP2 POP POP SWAP3 SWAP2 POP POP JUMP JUMPDEST PUSH2 0xE8A DUP2 PUSH2 0xE1B JUMP JUMPDEST DUP3 MSTORE POP POP JUMP JUMPDEST PUSH0 PUSH1 0x20 DUP3 ADD SWAP1 POP PUSH2 0xEA3 PUSH0 DUP4 ADD DUP5 PUSH2 0xE81 JUMP JUMPDEST SWAP3 SWAP2 POP POP JUMP JUMPDEST PUSH0 PUSH1 0x20 DUP3 DUP5 SUB SLT ISZERO PUSH2 0xEBE JUMPI PUSH2 0xEBD PUSH2 0xC8C JUMP JUMPDEST JUMPDEST PUSH0 PUSH2 0xECB DUP5 DUP3 DUP6 ADD PUSH2 0xD6E JUMP JUMPDEST SWAP2 POP POP SWAP3 SWAP2 POP POP JUMP JUMPDEST PUSH0 DUP2 MLOAD SWAP1 POP SWAP2 SWAP1 POP JUMP JUMPDEST PUSH0 DUP3 DUP3 MSTORE PUSH1 0x20 DUP3 ADD SWAP1 POP SWAP3 SWAP2 POP POP JUMP JUMPDEST DUP3 DUP2 DUP4 MCOPY PUSH0 DUP4 DUP4 ADD MSTORE POP POP POP JUMP JUMPDEST PUSH0 PUSH1 0x1F NOT PUSH1 0x1F DUP4 ADD AND SWAP1 POP SWAP2 SWAP1 POP JUMP JUMPDEST PUSH0 PUSH2 0xF16 DUP3 PUSH2 0xED4 JUMP JUMPDEST PUSH2 0xF20 DUP2 DUP6 PUSH2 0xEDE JUMP JUMPDEST SWAP4 POP PUSH2 0xF30 DUP2 DUP6 PUSH1 0x20 DUP7 ADD PUSH2 0xEEE JUMP JUMPDEST PUSH2 0xF39 DUP2 PUSH2 0xEFC JUMP JUMPDEST DUP5 ADD SWAP2 POP POP SWAP3 SWAP2 POP POP JUMP JUMPDEST PUSH2 0xF4D DUP2 PUSH2 0xD14 JUMP JUMPDEST DUP3 MSTORE POP POP JUMP JUMPDEST PUSH0 DUP2 ISZERO ISZERO SWAP1 POP SWAP2 SWAP1 POP JUMP JUMPDEST PUSH2 0xF67 DUP2 PUSH2 0xF53 JUMP JUMPDEST DUP3 MSTORE POP POP JUMP JUMPDEST PUSH0 PUSH1 0xA0 DUP3 ADD SWAP1 POP DUP2 DUP2 SUB PUSH0 DUP4 ADD MSTORE PUSH2 0xF85 DUP2 DUP9 PUSH2 0xF0C JUMP JUMPDEST SWAP1 POP PUSH2 0xF94 PUSH1 0x20 DUP4 ADD DUP8 PUSH2 0xF44 JUMP JUMPDEST PUSH2 0xFA1 PUSH1 0x40 DUP4 ADD DUP7 PUSH2 0xDF3 JUMP JUMPDEST PUSH2 0xFAE PUSH1 0x60 DUP4 ADD DUP6 PUSH2 0xF5E JUMP JUMPDEST PUSH2 0xFBB PUSH1 0x80 DUP4 ADD DUP5 PUSH2 0xDF3 JUMP JUMPDEST SWAP7 SWAP6 POP POP POP POP POP POP JUMP JUMPDEST PUSH32 0x596F7520617265206E6F7420746865206D616E61676572000000000000000000 PUSH0 DUP3 ADD MSTORE POP JUMP JUMPDEST PUSH0 PUSH2 0xFF9 PUSH1 0x17 DUP4 PUSH2 0xEDE JUMP JUMPDEST SWAP2 POP PUSH2 0x1004 DUP3 PUSH2 0xFC5 JUMP JUMPDEST PUSH1 0x20 DUP3 ADD SWAP1 POP SWAP2 SWAP1 POP JUMP JUMPDEST PUSH0 PUSH1 0x20 DUP3 ADD SWAP1 POP DUP2 DUP2 SUB PUSH0 DUP4 ADD MSTORE PUSH2 0x1026 DUP2 PUSH2 0xFED JUMP JUMPDEST SWAP1 POP SWAP2 SWAP1 POP JUMP JUMPDEST PUSH32 0x4E487B7100000000000000000000000000000000000000000000000000000000 PUSH0 MSTORE PUSH1 0x11 PUSH1 0x4 MSTORE PUSH1 0x24 PUSH0 REVERT JUMPDEST PUSH0 PUSH2 0x1064 DUP3 PUSH2 0xD4F JUMP JUMPDEST SWAP2 POP PUSH32 0xFFFFFFFFFFFFFFFFFFFFFFFFFFFFFFFFFFFFFFFFFFFFFFFFFFFFFFFFFFFFFFFF DUP3 SUB PUSH2 0x1096 JUMPI PUSH2 0x1095 PUSH2 0x102D JUMP JUMPDEST JUMPDEST PUSH1 0x1 DUP3 ADD SWAP1 POP SWAP2 SWAP1 POP JUMP JUMPDEST PUSH0 DUP3 SWAP1 POP SWAP3 SWAP2 POP POP JUMP JUMPDEST PUSH32 0x4E487B7100000000000000000000000000000000000000000000000000000000 PUSH0 MSTORE PUSH1 0x41 PUSH1 0x4 MSTORE PUSH1 0x24 PUSH0 REVERT JUMPDEST PUSH32 0x4E487B7100000000000000000000000000000000000000000000000000000000 PUSH0 MSTORE PUSH1 0x22 PUSH1 0x4 MSTORE PUSH1 0x24 PUSH0 REVERT JUMPDEST PUSH0 PUSH1 0x2 DUP3 DIV SWAP1 POP PUSH1 0x1 DUP3 AND DUP1 PUSH2 0x111C JUMPI PUSH1 0x7F DUP3 AND SWAP2 POP JUMPDEST PUSH1 0x20 DUP3 LT DUP2 SUB PUSH2 0x112F JUMPI PUSH2 0x112E PUSH2 0x10D8 JUMP JUMPDEST JUMPDEST POP SWAP2 SWAP1 POP JUMP JUMPDEST PUSH0 DUP2 SWAP1 POP DUP2 PUSH0 MSTORE PUSH1 0x20 PUSH0 KECCAK256 SWAP1 POP SWAP2 SWAP1 POP JUMP JUMPDEST PUSH0 PUSH1 0x20 PUSH1 0x1F DUP4 ADD DIV SWAP1 POP SWAP2 SWAP1 POP JUMP JUMPDEST PUSH0 DUP3 DUP3 SHL SWAP1 POP SWAP3 SWAP2 POP POP JUMP JUMPDEST PUSH0 PUSH1 0x8 DUP4 MUL PUSH2 0x1191 PUSH32 0xFFFFFFFFFFFFFFFFFFFFFFFFFFFFFFFFFFFFFFFFFFFFFFFFFFFFFFFFFFFFFFFF DUP3 PUSH2 0x1156 JUMP JUMPDEST PUSH2 0x119B DUP7 DUP4 PUSH2 0x1156 JUMP JUMPDEST SWAP6 POP DUP1 NOT DUP5 AND SWAP4 POP DUP1 DUP7 AND DUP5 OR SWAP3 POP POP POP SWAP4 SWAP3 POP POP POP JUMP JUMPDEST PUSH0 DUP2 SWAP1 POP SWAP2 SWAP1 POP JUMP JUMPDEST PUSH0 PUSH2 0x11D6 PUSH2 0x11D1 PUSH2 0x11CC DUP5 PUSH2 0xD4F JUMP JUMPDEST PUSH2 0x11B3 JUMP JUMPDEST PUSH2 0xD4F JUMP JUMPDEST SWAP1 POP SWAP2 SWAP1 POP JUMP JUMPDEST PUSH0 DUP2 SWAP1 POP SWAP2 SWAP1 POP JUMP JUMPDEST PUSH2 0x11EF DUP4 PUSH2 0x11BC JUMP JUMPDEST PUSH2 0x1203 PUSH2 0x11FB DUP3 PUSH2 0x11DD JUMP JUMPDEST DUP5 DUP5 SLOAD PUSH2 0x1162 JUMP JUMPDEST DUP3 SSTORE POP POP POP POP JUMP JUMPDEST PUSH0 SWAP1 JUMP JUMPDEST PUSH2 0x1217 PUSH2 0x120B JUMP JUMPDEST PUSH2 0x1222 DUP2 DUP5 DUP5 PUSH2 0x11E6 JUMP JUMPDEST POP POP POP JUMP JUMPDEST JUMPDEST DUP2 DUP2 LT ISZERO PUSH2 0x1245 JUMPI PUSH2 0x123A PUSH0 DUP3 PUSH2 0x120F JUMP JUMPDEST PUSH1 0x1 DUP2 ADD SWAP1 POP PUSH2 0x1228 JUMP JUMPDEST POP POP JUMP JUMPDEST PUSH1 0x1F DUP3 GT ISZERO PUSH2 0x128A JUMPI PUSH2 0x125B DUP2 PUSH2 0x1135 JUMP JUMPDEST PUSH2 0x1264 DUP5 PUSH2 0x1147 JUMP JUMPDEST DUP2 ADD PUSH1 0x20 DUP6 LT ISZERO PUSH2 0x1273 JUMPI DUP2 SWAP1 POP JUMPDEST PUSH2 0x1287 PUSH2 0x127F DUP6 PUSH2 0x1147 JUMP JUMPDEST DUP4 ADD DUP3 PUSH2 0x1227 JUMP JUMPDEST POP POP JUMPDEST POP POP POP JUMP JUMPDEST PUSH0 DUP3 DUP3 SHR SWAP1 POP SWAP3 SWAP2 POP POP JUMP JUMPDEST PUSH0 PUSH2 0x12AA PUSH0 NOT DUP5 PUSH1 0x8 MUL PUSH2 0x128F JUMP JUMPDEST NOT DUP1 DUP4 AND SWAP2 POP POP SWAP3 SWAP2 POP POP JUMP JUMPDEST PUSH0 PUSH2 0x12C2 DUP4 DUP4 PUSH2 0x129B JUMP JUMPDEST SWAP2 POP DUP3 PUSH1 0x2 MUL DUP3 OR SWAP1 POP SWAP3 SWAP2 POP POP JUMP JUMPDEST PUSH2 0x12DC DUP4 DUP4 PUSH2 0x10A1 JUMP JUMPDEST PUSH8 0xFFFFFFFFFFFFFFFF DUP2 GT ISZERO PUSH2 0x12F5 JUMPI PUSH2 0x12F4 PUSH2 0x10AB JUMP JUMPDEST JUMPDEST PUSH2 0x12FF DUP3 SLOAD PUSH2 0x1105 JUMP JUMPDEST PUSH2 0x130A DUP3 DUP3 DUP6 PUSH2 0x1249 JUMP JUMPDEST PUSH0 PUSH1 0x1F DUP4 GT PUSH1 0x1 DUP2 EQ PUSH2 0x1337 JUMPI PUSH0 DUP5 ISZERO PUSH2 0x1325 JUMPI DUP3 DUP8 ADD CALLDATALOAD SWAP1 POP JUMPDEST PUSH2 0x132F DUP6 DUP3 PUSH2 0x12B7 JUMP JUMPDEST DUP7 SSTORE POP PUSH2 0x1396 JUMP JUMPDEST PUSH1 0x1F NOT DUP5 AND PUSH2 0x1345 DUP7 PUSH2 0x1135 JUMP JUMPDEST PUSH0 JUMPDEST DUP3 DUP2 LT ISZERO PUSH2 0x136C JUMPI DUP5 DUP10 ADD CALLDATALOAD DUP3 SSTORE PUSH1 0x1 DUP3 ADD SWAP2 POP PUSH1 0x20 DUP6 ADD SWAP5 POP PUSH1 0x20 DUP2 ADD SWAP1 POP PUSH2 0x1347 JUMP JUMPDEST DUP7 DUP4 LT ISZERO PUSH2 0x1389 JUMPI DUP5 DUP10 ADD CALLDATALOAD PUSH2 0x1385 PUSH1 0x1F DUP10 AND DUP3 PUSH2 0x129B JUMP JUMPDEST DUP4 SSTORE POP JUMPDEST PUSH1 0x1 PUSH1 0x2 DUP9 MUL ADD DUP9 SSTORE POP POP POP JUMPDEST POP POP POP POP POP POP POP JUMP JUMPDEST PUSH32 0x596F7520617265206E6F7420636F6E7472696275746F72730000000000000000 PUSH0 DUP3 ADD MSTORE POP JUMP JUMPDEST PUSH0 PUSH2 0x13D3 PUSH1 0x18 DUP4 PUSH2 0xEDE JUMP JUMPDEST SWAP2 POP PUSH2 0x13DE DUP3 PUSH2 0x139F JUMP JUMPDEST PUSH1 0x20 DUP3 ADD SWAP1 POP SWAP2 SWAP1 POP JUMP JUMPDEST PUSH0 PUSH1 0x20 DUP3 ADD SWAP1 POP DUP2 DUP2 SUB PUSH0 DUP4 ADD MSTORE PUSH2 0x1400 DUP2 PUSH2 0x13C7 JUMP JUMPDEST SWAP1 POP SWAP2 SWAP1 POP JUMP JUMPDEST PUSH32 0x596F75206861766520616C726561647920766F74656400000000000000000000 PUSH0 DUP3 ADD MSTORE POP JUMP JUMPDEST PUSH0 PUSH2 0x143B PUSH1 0x16 DUP4 PUSH2 0xEDE JUMP JUMPDEST SWAP2 POP PUSH2 0x1446 DUP3 PUSH2 0x1407 JUMP JUMPDEST PUSH1 0x20 DUP3 ADD SWAP1 POP SWAP2 SWAP1 POP JUMP JUMPDEST PUSH0 PUSH1 0x20 DUP3 ADD SWAP1 POP DUP2 DUP2 SUB PUSH0 DUP4 ADD MSTORE PUSH2 0x1468 DUP2 PUSH2 0x142F JUMP JUMPDEST SWAP1 POP SWAP2 SWAP1 POP JUMP JUMPDEST PUSH32 0x4D696E696D756D20436F6E747269627574696F6E206973207265717569726564 PUSH0 DUP3 ADD MSTORE POP JUMP JUMPDEST PUSH0 PUSH2 0x14A3 PUSH1 0x20 DUP4 PUSH2 0xEDE JUMP JUMPDEST SWAP2 POP PUSH2 0x14AE DUP3 PUSH2 0x146F JUMP JUMPDEST PUSH1 0x20 DUP3 ADD SWAP1 POP SWAP2 SWAP1 POP JUMP JUMPDEST PUSH0 PUSH1 0x20 DUP3 ADD SWAP1 POP DUP2 DUP2 SUB PUSH0 DUP4 ADD MSTORE PUSH2 0x14D0 DUP2 PUSH2 0x1497 JUMP JUMPDEST SWAP1 POP SWAP2 SWAP1 POP JUMP JUMPDEST PUSH32 0x446561646C696E65206861732070617373656400000000000000000000000000 PUSH0 DUP3 ADD MSTORE POP JUMP JUMPDEST PUSH0 PUSH2 0x150B PUSH1 0x13 DUP4 PUSH2 0xEDE JUMP JUMPDEST SWAP2 POP PUSH2 0x1516 DUP3 PUSH2 0x14D7 JUMP JUMPDEST PUSH1 0x20 DUP3 ADD SWAP1 POP SWAP2 SWAP1 POP JUMP JUMPDEST PUSH0 PUSH1 0x20 DUP3 ADD SWAP1 POP DUP2 DUP2 SUB PUSH0 DUP4 ADD MSTORE PUSH2 0x1538 DUP2 PUSH2 0x14FF JUMP JUMPDEST SWAP1 POP SWAP2 SWAP1 POP JUMP JUMPDEST PUSH0 PUSH2 0x1549 DUP3 PUSH2 0xD4F JUMP JUMPDEST SWAP2 POP PUSH2 0x1554 DUP4 PUSH2 0xD4F JUMP JUMPDEST SWAP3 POP DUP3 DUP3 ADD SWAP1 POP DUP1 DUP3 GT ISZERO PUSH2 0x156C JUMPI PUSH2 0x156B PUSH2 0x102D JUMP JUMPDEST JUMPDEST SWAP3 SWAP2 POP POP JUMP JUMPDEST PUSH32 0x546172676574206E6F7420796574207265616368656400000000000000000000 PUSH0 DUP3 ADD MSTORE POP JUMP JUMPDEST PUSH0 PUSH2 0x15A6 PUSH1 0x16 DUP4 PUSH2 0xEDE JUMP JUMPDEST SWAP2 POP PUSH2 0x15B1 DUP3 PUSH2 0x1572 JUMP JUMPDEST PUSH1 0x20 DUP3 ADD SWAP1 POP SWAP2 SWAP1 POP JUMP JUMPDEST PUSH0 PUSH1 0x20 DUP3 ADD SWAP1 POP DUP2 DUP2 SUB PUSH0 DUP4 ADD MSTORE PUSH2 0x15D3 DUP2 PUSH2 0x159A JUMP JUMPDEST SWAP1 POP SWAP2 SWAP1 POP JUMP JUMPDEST PUSH32 0x54686973207265717565737420686173206265656E20636F6D706C6574656400 PUSH0 DUP3 ADD MSTORE POP JUMP JUMPDEST PUSH0 PUSH2 0x160E PUSH1 0x1F DUP4 PUSH2 0xEDE JUMP JUMPDEST SWAP2 POP PUSH2 0x1619 DUP3 PUSH2 0x15DA JUMP JUMPDEST PUSH1 0x20 DUP3 ADD SWAP1 POP SWAP2 SWAP1 POP JUMP JUMPDEST PUSH0 PUSH1 0x20 DUP3 ADD SWAP1 POP DUP2 DUP2 SUB PUSH0 DUP4 ADD MSTORE PUSH2 0x163B DUP2 PUSH2 0x1602 JUMP JUMPDEST SWAP1 POP SWAP2 SWAP1 POP JUMP JUMPDEST PUSH32 0x4E487B7100000000000000000000000000000000000000000000000000000000 PUSH0 MSTORE PUSH1 0x12 PUSH1 0x4 MSTORE PUSH1 0x24 PUSH0 REVERT JUMPDEST PUSH0 PUSH2 0x1679 DUP3 PUSH2 0xD4F JUMP JUMPDEST SWAP2 POP PUSH2 0x1684 DUP4 PUSH2 0xD4F JUMP JUMPDEST SWAP3 POP DUP3 PUSH2 0x1694 JUMPI PUSH2 0x1693 PUSH2 0x1642 JUMP JUMPDEST JUMPDEST DUP3 DUP3 DIV SWAP1 POP SWAP3 SWAP2 POP POP JUMP JUMPDEST PUSH32 0x596F75206E656564206D6F7265207468616E2068616C66206F66207468652063 PUSH0 DUP3 ADD MSTORE PUSH32 0x6F6E7472696275746F7220746F20636F6D706C65746520746869732072657175 PUSH1 0x20 DUP3 ADD MSTORE PUSH32 0x6573740000000000000000000000000000000000000000000000000000000000 PUSH1 0x40 DUP3 ADD MSTORE POP JUMP JUMPDEST PUSH0 PUSH2 0x171F PUSH1 0x43 DUP4 PUSH2 0xEDE JUMP JUMPDEST SWAP2 POP PUSH2 0x172A DUP3 PUSH2 0x169F JUMP JUMPDEST PUSH1 0x60 DUP3 ADD SWAP1 POP SWAP2 SWAP1 POP JUMP JUMPDEST PUSH0 PUSH1 0x20 DUP3 ADD SWAP1 POP DUP2 DUP2 SUB PUSH0 DUP4 ADD MSTORE PUSH2 0x174C DUP2 PUSH2 0x1713 JUMP JUMPDEST SWAP1 POP SWAP2 SWAP1 POP JUMP JUMPDEST PUSH32 0x596F7520617265206E6F7420656C696769626C6520746F20726566756E640000 PUSH0 DUP3 ADD MSTORE POP JUMP JUMPDEST PUSH0 PUSH2 0x1787 PUSH1 0x1E DUP4 PUSH2 0xEDE JUMP JUMPDEST SWAP2 POP PUSH2 0x1792 DUP3 PUSH2 0x1753 JUMP JUMPDEST PUSH1 0x20 DUP3 ADD SWAP1 POP SWAP2 SWAP1 POP JUMP JUMPDEST PUSH0 PUSH1 0x20 DUP3 ADD SWAP1 POP DUP2 DUP2 SUB PUSH0 DUP4 ADD MSTORE PUSH2 0x17B4 DUP2 PUSH2 0x177B JUMP JUMPDEST SWAP1 POP SWAP2 SWAP1 POP JUMP INVALID LOG2 PUSH5 0x6970667358 0x22 SLT KECCAK256 0x26 0xCE 0xC4 DUP8 0xE2 KECCAK256 PUSH1 0x5E 0x4C PUSH6 0xCF98453A4255 LOG2 0xB8 0xB9 PUSH9 0xAC4A078C348AF7A553 0xA6 0xBC 0xA5 PUSH5 0x736F6C6343 STOP ADDMOD BYTE STOP CALLER "
				},
				"gasEstimates": {
					"creation": {
						"codeDepositCost": "1225800",
						"executionCost": "infinite",
						"totalCost": "infinite"
					},
					"external": {
						"checkBalance()": "378",
						"contribution()": "infinite",
						"contributors(address)": "2869",
						"createRequest(string,address,uint256)": "infinite",
						"deadline()": "2448",
						"makePayment(uint256)": "infinite",
						"manager()": "2553",
						"minimumContribution()": "2492",
						"numOfContributors()": "2471",
						"numRequest()": "2514",
						"raisedAmount()": "2447",
						"refund()": "infinite",
						"request(uint256)": "infinite",
						"target()": "2491",
						"voteRequest(uint256)": "infinite"
					}
				},
				"methodIdentifiers": {
					"checkBalance()": "c71daccb",
					"contribution()": "50520b1f",
					"contributors(address)": "1f6d4942",
					"createRequest(string,address,uint256)": "1b16bb5c",
					"deadline()": "29dcb0cf",
					"makePayment(uint256)": "5114cb52",
					"manager()": "481c6a75",
					"minimumContribution()": "937e09b1",
					"numOfContributors()": "1e206f15",
					"numRequest()": "b1b16431",
					"raisedAmount()": "c59ee1dc",
					"refund()": "590e1ae3",
					"request(uint256)": "d845a4b3",
					"target()": "d4b83992",
					"voteRequest(uint256)": "4cb6f4a5"
				}
			},
			"storageLayout": {
				"storage": [
					{
						"astId": 20,
						"contract": "Solidity Basic Projects/Crowdfunding.sol:Crowdfunding",
						"label": "contributors",
						"offset": 0,
						"slot": "0",
						"type": "t_mapping(t_address,t_uint256)"
					},
					{
						"astId": 25,
						"contract": "Solidity Basic Projects/Crowdfunding.sol:Crowdfunding",
						"label": "request",
						"offset": 0,
						"slot": "1",
						"type": "t_mapping(t_uint256,t_struct(Request)16_storage)"
					},
					{
						"astId": 27,
						"contract": "Solidity Basic Projects/Crowdfunding.sol:Crowdfunding",
						"label": "manager",
						"offset": 0,
						"slot": "2",
						"type": "t_address"
					},
					{
						"astId": 29,
						"contract": "Solidity Basic Projects/Crowdfunding.sol:Crowdfunding",
						"label": "numOfContributors",
						"offset": 0,
						"slot": "3",
						"type": "t_uint256"
					},
					{
						"astId": 31,
						"contract": "Solidity Basic Projects/Crowdfunding.sol:Crowdfunding",
						"label": "raisedAmount",
						"offset": 0,
						"slot": "4",
						"type": "t_uint256"
					},
					{
						"astId": 33,
						"contract": "Solidity Basic Projects/Crowdfunding.sol:Crowdfunding",
						"label": "deadline",
						"offset": 0,
						"slot": "5",
						"type": "t_uint256"
					},
					{
						"astId": 35,
						"contract": "Solidity Basic Projects/Crowdfunding.sol:Crowdfunding",
						"label": "minimumContribution",
						"offset": 0,
						"slot": "6",
						"type": "t_uint256"
					},
					{
						"astId": 37,
						"contract": "Solidity Basic Projects/Crowdfunding.sol:Crowdfunding",
						"label": "numRequest",
						"offset": 0,
						"slot": "7",
						"type": "t_uint256"
					},
					{
						"astId": 39,
						"contract": "Solidity Basic Projects/Crowdfunding.sol:Crowdfunding",
						"label": "target",
						"offset": 0,
						"slot": "8",
						"type": "t_uint256"
					}
				],
				"types": {
					"t_address": {
						"encoding": "inplace",
						"label": "address",
						"numberOfBytes": "20"
					},
					"t_address_payable": {
						"encoding": "inplace",
						"label": "address payable",
						"numberOfBytes": "20"
					},
					"t_bool": {
						"encoding": "inplace",
						"label": "bool",
						"numberOfBytes": "1"
					},
					"t_mapping(t_address,t_bool)": {
						"encoding": "mapping",
						"key": "t_address",
						"label": "mapping(address => bool)",
						"numberOfBytes": "32",
						"value": "t_bool"
					},
					"t_mapping(t_address,t_uint256)": {
						"encoding": "mapping",
						"key": "t_address",
						"label": "mapping(address => uint256)",
						"numberOfBytes": "32",
						"value": "t_uint256"
					},
					"t_mapping(t_uint256,t_struct(Request)16_storage)": {
						"encoding": "mapping",
						"key": "t_uint256",
						"label": "mapping(uint256 => struct Crowdfunding.Request)",
						"numberOfBytes": "32",
						"value": "t_struct(Request)16_storage"
					},
					"t_string_storage": {
						"encoding": "bytes",
						"label": "string",
						"numberOfBytes": "32"
					},
					"t_struct(Request)16_storage": {
						"encoding": "inplace",
						"label": "struct Crowdfunding.Request",
						"members": [
							{
								"astId": 3,
								"contract": "Solidity Basic Projects/Crowdfunding.sol:Crowdfunding",
								"label": "description",
								"offset": 0,
								"slot": "0",
								"type": "t_string_storage"
							},
							{
								"astId": 5,
								"contract": "Solidity Basic Projects/Crowdfunding.sol:Crowdfunding",
								"label": "recipient",
								"offset": 0,
								"slot": "1",
								"type": "t_address_payable"
							},
							{
								"astId": 7,
								"contract": "Solidity Basic Projects/Crowdfunding.sol:Crowdfunding",
								"label": "value",
								"offset": 0,
								"slot": "2",
								"type": "t_uint256"
							},
							{
								"astId": 9,
								"contract": "Solidity Basic Projects/Crowdfunding.sol:Crowdfunding",
								"label": "completed",
								"offset": 0,
								"slot": "3",
								"type": "t_bool"
							},
							{
								"astId": 11,
								"contract": "Solidity Basic Projects/Crowdfunding.sol:Crowdfunding",
								"label": "noOfVoters",
								"offset": 0,
								"slot": "4",
								"type": "t_uint256"
							},
							{
								"astId": 15,
								"contract": "Solidity Basic Projects/Crowdfunding.sol:Crowdfunding",
								"label": "voters",
								"offset": 0,
								"slot": "5",
								"type": "t_mapping(t_address,t_bool)"
							}
						],
						"numberOfBytes": "192"
					},
					"t_uint256": {
						"encoding": "inplace",
						"label": "uint256",
						"numberOfBytes": "32"
					}
				}
			},
			"userdoc": {
				"kind": "user",
				"methods": {},
				"version": 1
			}
		}
	}
}