{
	"Solidity Basic Projects/ToDoList.sol": {
		"TodoList": {
			"abi": [
				{
					"inputs": [
						{
							"internalType": "uint256",
							"name": "index",
							"type": "uint256"
						}
					],
					"name": "completed",
					"outputs": [],
					"stateMutability": "nonpayable",
					"type": "function"
				},
				{
					"inputs": [
						{
							"internalType": "string",
							"name": "_text",
							"type": "string"
						}
					],
					"name": "insert",
					"outputs": [],
					"stateMutability": "nonpayable",
					"type": "function"
				},
				{
					"inputs": [
						{
							"internalType": "uint256",
							"name": "",
							"type": "uint256"
						}
					],
					"name": "todos",
					"outputs": [
						{
							"internalType": "string",
							"name": "text",
							"type": "string"
						},
						{
							"internalType": "bool",
							"name": "completed",
							"type": "bool"
						}
					],
					"stateMutability": "view",
					"type": "function"
				},
				{
					"inputs": [
						{
							"internalType": "uint256",
							"name": "index",
							"type": "uint256"
						},
						{
							"internalType": "string",
							"name": "_text",
							"type": "string"
						}
					],
					"name": "update",
					"outputs": [],
					"stateMutability": "nonpayable",
					"type": "function"
				}
			],
			"devdoc": {
				"kind": "dev",
				"methods": {},
				"version": 1
			},
			"evm": {
				"assembly": "    /* \"Solidity Basic Projects/ToDoList.sol\":58:526  contract TodoList {... */\n  mstore(0x40, 0x80)\n  callvalue\n  dup1\n  iszero\n  tag_1\n  jumpi\n  0x00\n  dup1\n  revert\ntag_1:\n  pop\n  dataSize(sub_0)\n  dup1\n  dataOffset(sub_0)\n  0x00\n  codecopy\n  0x00\n  return\nstop\n\nsub_0: assembly {\n        /* \"Solidity Basic Projects/ToDoList.sol\":58:526  contract TodoList {... */\n      mstore(0x40, 0x80)\n      callvalue\n      dup1\n      iszero\n      tag_1\n      jumpi\n      0x00\n      dup1\n      revert\n    tag_1:\n      pop\n      jumpi(tag_2, lt(calldatasize, 0x04))\n      shr(0xe0, calldataload(0x00))\n      dup1\n      0xb1498e29\n      eq\n      tag_3\n      jumpi\n      dup1\n      0xbc8bc2b4\n      eq\n      tag_4\n      jumpi\n      dup1\n      0xc0cca5ef\n      eq\n      tag_5\n      jumpi\n      dup1\n      0xf745630f\n      eq\n      tag_6\n      jumpi\n    tag_2:\n      0x00\n      dup1\n      revert\n        /* \"Solidity Basic Projects/ToDoList.sol\":186:300  function insert(string calldata _text) public {... */\n    tag_3:\n      tag_7\n      0x04\n      dup1\n      calldatasize\n      sub\n      dup2\n      add\n      swap1\n      tag_8\n      swap2\n      swap1\n      tag_9\n      jump\t// in\n    tag_8:\n      tag_10\n      jump\t// in\n    tag_7:\n      stop\n        /* \"Solidity Basic Projects/ToDoList.sol\":158:177  Todo[] public todos */\n    tag_4:\n      tag_11\n      0x04\n      dup1\n      calldatasize\n      sub\n      dup2\n      add\n      swap1\n      tag_12\n      swap2\n      swap1\n      tag_13\n      jump\t// in\n    tag_12:\n      tag_14\n      jump\t// in\n    tag_11:\n      mload(0x40)\n      tag_15\n      swap3\n      swap2\n      swap1\n      tag_16\n      jump\t// in\n    tag_15:\n      mload(0x40)\n      dup1\n      swap2\n      sub\n      swap1\n      return\n        /* \"Solidity Basic Projects/ToDoList.sol\":418:523  function completed(uint index) public {... */\n    tag_5:\n      tag_17\n      0x04\n      dup1\n      calldatasize\n      sub\n      dup2\n      add\n      swap1\n      tag_18\n      swap2\n      swap1\n      tag_13\n      jump\t// in\n    tag_18:\n      tag_19\n      jump\t// in\n    tag_17:\n      stop\n        /* \"Solidity Basic Projects/ToDoList.sol\":308:410  function update(uint index, string calldata _text) public {... */\n    tag_6:\n      tag_20\n      0x04\n      dup1\n      calldatasize\n      sub\n      dup2\n      add\n      swap1\n      tag_21\n      swap2\n      swap1\n      tag_22\n      jump\t// in\n    tag_21:\n      tag_23\n      jump\t// in\n    tag_20:\n      stop\n        /* \"Solidity Basic Projects/ToDoList.sol\":186:300  function insert(string calldata _text) public {... */\n    tag_10:\n        /* \"Solidity Basic Projects/ToDoList.sol\":243:248  todos */\n      0x00\n        /* \"Solidity Basic Projects/ToDoList.sol\":254:291  Todo({text: _text, completed: false}) */\n      mload(0x40)\n      dup1\n      0x40\n      add\n      0x40\n      mstore\n      dup1\n        /* \"Solidity Basic Projects/ToDoList.sol\":266:271  _text */\n      dup5\n      dup5\n        /* \"Solidity Basic Projects/ToDoList.sol\":254:291  Todo({text: _text, completed: false}) */\n      dup1\n      dup1\n      0x1f\n      add\n      0x20\n      dup1\n      swap2\n      div\n      mul\n      0x20\n      add\n      mload(0x40)\n      swap1\n      dup2\n      add\n      0x40\n      mstore\n      dup1\n      swap4\n      swap3\n      swap2\n      swap1\n      dup2\n      dup2\n      mstore\n      0x20\n      add\n      dup4\n      dup4\n      dup1\n      dup3\n      dup5\n      calldatacopy\n      0x00\n      dup2\n      dup5\n      add\n      mstore\n      not(0x1f)\n      0x1f\n      dup3\n      add\n      and\n      swap1\n      pop\n      dup1\n      dup4\n      add\n      swap3\n      pop\n      pop\n      pop\n      pop\n      pop\n      pop\n      pop\n      dup2\n      mstore\n      0x20\n      add\n        /* \"Solidity Basic Projects/ToDoList.sol\":284:289  false */\n      0x00\n        /* \"Solidity Basic Projects/ToDoList.sol\":254:291  Todo({text: _text, completed: false}) */\n      iszero\n      iszero\n      dup2\n      mstore\n      pop\n        /* \"Solidity Basic Projects/ToDoList.sol\":243:292  todos.push(Todo({text: _text, completed: false})) */\n      swap1\n      dup1\n      0x01\n      dup2\n      sload\n      add\n      dup1\n      dup3\n      sstore\n      dup1\n      swap2\n      pop\n      pop\n      0x01\n      swap1\n      sub\n      swap1\n      0x00\n      mstore\n      keccak256(0x00, 0x20)\n      swap1\n      0x02\n      mul\n      add\n      0x00\n      swap1\n      swap2\n      swap1\n      swap2\n      swap1\n      swap2\n      pop\n      0x00\n      dup3\n      add\n      mload\n      dup2\n      0x00\n      add\n      swap1\n      dup2\n      tag_26\n      swap2\n      swap1\n      tag_27\n      jump\t// in\n    tag_26:\n      pop\n      0x20\n      dup3\n      add\n      mload\n      dup2\n      0x01\n      add\n      exp(0x0100, 0x00)\n      dup2\n      sload\n      dup2\n      0xff\n      mul\n      not\n      and\n      swap1\n      dup4\n      iszero\n      iszero\n      mul\n      or\n      swap1\n      sstore\n      pop\n      pop\n      pop\n        /* \"Solidity Basic Projects/ToDoList.sol\":186:300  function insert(string calldata _text) public {... */\n      pop\n      pop\n      jump\t// out\n        /* \"Solidity Basic Projects/ToDoList.sol\":158:177  Todo[] public todos */\n    tag_14:\n      0x00\n      dup2\n      dup2\n      sload\n      dup2\n      lt\n      tag_28\n      jumpi\n      0x00\n      dup1\n      revert\n    tag_28:\n      swap1\n      0x00\n      mstore\n      keccak256(0x00, 0x20)\n      swap1\n      0x02\n      mul\n      add\n      0x00\n      swap2\n      pop\n      swap1\n      pop\n      dup1\n      0x00\n      add\n      dup1\n      sload\n      tag_30\n      swap1\n      tag_31\n      jump\t// in\n    tag_30:\n      dup1\n      0x1f\n      add\n      0x20\n      dup1\n      swap2\n      div\n      mul\n      0x20\n      add\n      mload(0x40)\n      swap1\n      dup2\n      add\n      0x40\n      mstore\n      dup1\n      swap3\n      swap2\n      swap1\n      dup2\n      dup2\n      mstore\n      0x20\n      add\n      dup3\n      dup1\n      sload\n      tag_32\n      swap1\n      tag_31\n      jump\t// in\n    tag_32:\n      dup1\n      iszero\n      tag_33\n      jumpi\n      dup1\n      0x1f\n      lt\n      tag_34\n      jumpi\n      0x0100\n      dup1\n      dup4\n      sload\n      div\n      mul\n      dup4\n      mstore\n      swap2\n      0x20\n      add\n      swap2\n      jump(tag_33)\n    tag_34:\n      dup3\n      add\n      swap2\n      swap1\n      0x00\n      mstore\n      keccak256(0x00, 0x20)\n      swap1\n    tag_35:\n      dup2\n      sload\n      dup2\n      mstore\n      swap1\n      0x01\n      add\n      swap1\n      0x20\n      add\n      dup1\n      dup4\n      gt\n      tag_35\n      jumpi\n      dup3\n      swap1\n      sub\n      0x1f\n      and\n      dup3\n      add\n      swap2\n    tag_33:\n      pop\n      pop\n      pop\n      pop\n      pop\n      swap1\n      dup1\n      0x01\n      add\n      0x00\n      swap1\n      sload\n      swap1\n      0x0100\n      exp\n      swap1\n      div\n      0xff\n      and\n      swap1\n      pop\n      dup3\n      jump\t// out\n        /* \"Solidity Basic Projects/ToDoList.sol\":418:523  function completed(uint index) public {... */\n    tag_19:\n        /* \"Solidity Basic Projects/ToDoList.sol\":493:498  todos */\n      0x00\n        /* \"Solidity Basic Projects/ToDoList.sol\":499:504  index */\n      dup2\n        /* \"Solidity Basic Projects/ToDoList.sol\":493:505  todos[index] */\n      dup2\n      sload\n      dup2\n      lt\n      tag_37\n      jumpi\n      tag_38\n      tag_39\n      jump\t// in\n    tag_38:\n    tag_37:\n      swap1\n      0x00\n      mstore\n      keccak256(0x00, 0x20)\n      swap1\n      0x02\n      mul\n      add\n        /* \"Solidity Basic Projects/ToDoList.sol\":493:515  todos[index].completed */\n      0x01\n      add\n      0x00\n      swap1\n      sload\n      swap1\n      0x0100\n      exp\n      swap1\n      div\n      0xff\n      and\n        /* \"Solidity Basic Projects/ToDoList.sol\":492:515  !todos[index].completed */\n      iszero\n        /* \"Solidity Basic Projects/ToDoList.sol\":467:472  todos */\n      0x00\n        /* \"Solidity Basic Projects/ToDoList.sol\":473:478  index */\n      dup3\n        /* \"Solidity Basic Projects/ToDoList.sol\":467:479  todos[index] */\n      dup2\n      sload\n      dup2\n      lt\n      tag_41\n      jumpi\n      tag_42\n      tag_39\n      jump\t// in\n    tag_42:\n    tag_41:\n      swap1\n      0x00\n      mstore\n      keccak256(0x00, 0x20)\n      swap1\n      0x02\n      mul\n      add\n        /* \"Solidity Basic Projects/ToDoList.sol\":467:489  todos[index].completed */\n      0x01\n      add\n      0x00\n        /* \"Solidity Basic Projects/ToDoList.sol\":467:515  todos[index].completed = !todos[index].completed */\n      0x0100\n      exp\n      dup2\n      sload\n      dup2\n      0xff\n      mul\n      not\n      and\n      swap1\n      dup4\n      iszero\n      iszero\n      mul\n      or\n      swap1\n      sstore\n      pop\n        /* \"Solidity Basic Projects/ToDoList.sol\":418:523  function completed(uint index) public {... */\n      pop\n      jump\t// out\n        /* \"Solidity Basic Projects/ToDoList.sol\":308:410  function update(uint index, string calldata _text) public {... */\n    tag_23:\n        /* \"Solidity Basic Projects/ToDoList.sol\":397:402  _text */\n      dup2\n      dup2\n        /* \"Solidity Basic Projects/ToDoList.sol\":377:382  todos */\n      0x00\n        /* \"Solidity Basic Projects/ToDoList.sol\":383:388  index */\n      dup6\n        /* \"Solidity Basic Projects/ToDoList.sol\":377:389  todos[index] */\n      dup2\n      sload\n      dup2\n      lt\n      tag_45\n      jumpi\n      tag_46\n      tag_39\n      jump\t// in\n    tag_46:\n    tag_45:\n      swap1\n      0x00\n      mstore\n      keccak256(0x00, 0x20)\n      swap1\n      0x02\n      mul\n      add\n        /* \"Solidity Basic Projects/ToDoList.sol\":377:394  todos[index].text */\n      0x00\n      add\n        /* \"Solidity Basic Projects/ToDoList.sol\":377:402  todos[index].text = _text */\n      swap2\n      dup3\n      tag_48\n      swap3\n      swap2\n      swap1\n      tag_49\n      jump\t// in\n    tag_48:\n      pop\n        /* \"Solidity Basic Projects/ToDoList.sol\":308:410  function update(uint index, string calldata _text) public {... */\n      pop\n      pop\n      pop\n      jump\t// out\n        /* \"#utility.yul\":88:205   */\n    tag_51:\n        /* \"#utility.yul\":197:198   */\n      0x00\n        /* \"#utility.yul\":194:195   */\n      dup1\n        /* \"#utility.yul\":187:199   */\n      revert\n        /* \"#utility.yul\":211:328   */\n    tag_52:\n        /* \"#utility.yul\":320:321   */\n      0x00\n        /* \"#utility.yul\":317:318   */\n      dup1\n        /* \"#utility.yul\":310:322   */\n      revert\n        /* \"#utility.yul\":334:451   */\n    tag_53:\n        /* \"#utility.yul\":443:444   */\n      0x00\n        /* \"#utility.yul\":440:441   */\n      dup1\n        /* \"#utility.yul\":433:445   */\n      revert\n        /* \"#utility.yul\":457:574   */\n    tag_54:\n        /* \"#utility.yul\":566:567   */\n      0x00\n        /* \"#utility.yul\":563:564   */\n      dup1\n        /* \"#utility.yul\":556:568   */\n      revert\n        /* \"#utility.yul\":580:697   */\n    tag_55:\n        /* \"#utility.yul\":689:690   */\n      0x00\n        /* \"#utility.yul\":686:687   */\n      dup1\n        /* \"#utility.yul\":679:691   */\n      revert\n        /* \"#utility.yul\":717:1270   */\n    tag_56:\n        /* \"#utility.yul\":775:783   */\n      0x00\n        /* \"#utility.yul\":785:791   */\n      dup1\n        /* \"#utility.yul\":835:838   */\n      dup4\n        /* \"#utility.yul\":828:832   */\n      0x1f\n        /* \"#utility.yul\":820:826   */\n      dup5\n        /* \"#utility.yul\":816:833   */\n      add\n        /* \"#utility.yul\":812:839   */\n      slt\n        /* \"#utility.yul\":802:924   */\n      tag_93\n      jumpi\n        /* \"#utility.yul\":843:922   */\n      tag_94\n      tag_53\n      jump\t// in\n    tag_94:\n        /* \"#utility.yul\":802:924   */\n    tag_93:\n        /* \"#utility.yul\":956:962   */\n      dup3\n        /* \"#utility.yul\":943:963   */\n      calldataload\n        /* \"#utility.yul\":933:963   */\n      swap1\n      pop\n        /* \"#utility.yul\":986:1004   */\n      0xffffffffffffffff\n        /* \"#utility.yul\":978:984   */\n      dup2\n        /* \"#utility.yul\":975:1005   */\n      gt\n        /* \"#utility.yul\":972:1089   */\n      iszero\n      tag_95\n      jumpi\n        /* \"#utility.yul\":1008:1087   */\n      tag_96\n      tag_54\n      jump\t// in\n    tag_96:\n        /* \"#utility.yul\":972:1089   */\n    tag_95:\n        /* \"#utility.yul\":1122:1126   */\n      0x20\n        /* \"#utility.yul\":1114:1120   */\n      dup4\n        /* \"#utility.yul\":1110:1127   */\n      add\n        /* \"#utility.yul\":1098:1127   */\n      swap2\n      pop\n        /* \"#utility.yul\":1176:1179   */\n      dup4\n        /* \"#utility.yul\":1168:1172   */\n      0x01\n        /* \"#utility.yul\":1160:1166   */\n      dup3\n        /* \"#utility.yul\":1156:1173   */\n      mul\n        /* \"#utility.yul\":1146:1154   */\n      dup4\n        /* \"#utility.yul\":1142:1174   */\n      add\n        /* \"#utility.yul\":1139:1180   */\n      gt\n        /* \"#utility.yul\":1136:1264   */\n      iszero\n      tag_97\n      jumpi\n        /* \"#utility.yul\":1183:1262   */\n      tag_98\n      tag_55\n      jump\t// in\n    tag_98:\n        /* \"#utility.yul\":1136:1264   */\n    tag_97:\n        /* \"#utility.yul\":717:1270   */\n      swap3\n      pop\n      swap3\n      swap1\n      pop\n      jump\t// out\n        /* \"#utility.yul\":1276:1805   */\n    tag_9:\n        /* \"#utility.yul\":1347:1353   */\n      0x00\n        /* \"#utility.yul\":1355:1361   */\n      dup1\n        /* \"#utility.yul\":1404:1406   */\n      0x20\n        /* \"#utility.yul\":1392:1401   */\n      dup4\n        /* \"#utility.yul\":1383:1390   */\n      dup6\n        /* \"#utility.yul\":1379:1402   */\n      sub\n        /* \"#utility.yul\":1375:1407   */\n      slt\n        /* \"#utility.yul\":1372:1491   */\n      iszero\n      tag_100\n      jumpi\n        /* \"#utility.yul\":1410:1489   */\n      tag_101\n      tag_51\n      jump\t// in\n    tag_101:\n        /* \"#utility.yul\":1372:1491   */\n    tag_100:\n        /* \"#utility.yul\":1558:1559   */\n      0x00\n        /* \"#utility.yul\":1547:1556   */\n      dup4\n        /* \"#utility.yul\":1543:1560   */\n      add\n        /* \"#utility.yul\":1530:1561   */\n      calldataload\n        /* \"#utility.yul\":1588:1606   */\n      0xffffffffffffffff\n        /* \"#utility.yul\":1580:1586   */\n      dup2\n        /* \"#utility.yul\":1577:1607   */\n      gt\n        /* \"#utility.yul\":1574:1691   */\n      iszero\n      tag_102\n      jumpi\n        /* \"#utility.yul\":1610:1689   */\n      tag_103\n      tag_52\n      jump\t// in\n    tag_103:\n        /* \"#utility.yul\":1574:1691   */\n    tag_102:\n        /* \"#utility.yul\":1723:1788   */\n      tag_104\n        /* \"#utility.yul\":1780:1787   */\n      dup6\n        /* \"#utility.yul\":1771:1777   */\n      dup3\n        /* \"#utility.yul\":1760:1769   */\n      dup7\n        /* \"#utility.yul\":1756:1778   */\n      add\n        /* \"#utility.yul\":1723:1788   */\n      tag_56\n      jump\t// in\n    tag_104:\n        /* \"#utility.yul\":1705:1788   */\n      swap3\n      pop\n      swap3\n      pop\n        /* \"#utility.yul\":1501:1798   */\n      pop\n        /* \"#utility.yul\":1276:1805   */\n      swap3\n      pop\n      swap3\n      swap1\n      pop\n      jump\t// out\n        /* \"#utility.yul\":1811:1888   */\n    tag_57:\n        /* \"#utility.yul\":1848:1855   */\n      0x00\n        /* \"#utility.yul\":1877:1882   */\n      dup2\n        /* \"#utility.yul\":1866:1882   */\n      swap1\n      pop\n        /* \"#utility.yul\":1811:1888   */\n      swap2\n      swap1\n      pop\n      jump\t// out\n        /* \"#utility.yul\":1894:2016   */\n    tag_58:\n        /* \"#utility.yul\":1967:1991   */\n      tag_107\n        /* \"#utility.yul\":1985:1990   */\n      dup2\n        /* \"#utility.yul\":1967:1991   */\n      tag_57\n      jump\t// in\n    tag_107:\n        /* \"#utility.yul\":1960:1965   */\n      dup2\n        /* \"#utility.yul\":1957:1992   */\n      eq\n        /* \"#utility.yul\":1947:2010   */\n      tag_108\n      jumpi\n        /* \"#utility.yul\":2006:2007   */\n      0x00\n        /* \"#utility.yul\":2003:2004   */\n      dup1\n        /* \"#utility.yul\":1996:2008   */\n      revert\n        /* \"#utility.yul\":1947:2010   */\n    tag_108:\n        /* \"#utility.yul\":1894:2016   */\n      pop\n      jump\t// out\n        /* \"#utility.yul\":2022:2161   */\n    tag_59:\n        /* \"#utility.yul\":2068:2073   */\n      0x00\n        /* \"#utility.yul\":2106:2112   */\n      dup2\n        /* \"#utility.yul\":2093:2113   */\n      calldataload\n        /* \"#utility.yul\":2084:2113   */\n      swap1\n      pop\n        /* \"#utility.yul\":2122:2155   */\n      tag_110\n        /* \"#utility.yul\":2149:2154   */\n      dup2\n        /* \"#utility.yul\":2122:2155   */\n      tag_58\n      jump\t// in\n    tag_110:\n        /* \"#utility.yul\":2022:2161   */\n      swap3\n      swap2\n      pop\n      pop\n      jump\t// out\n        /* \"#utility.yul\":2167:2496   */\n    tag_13:\n        /* \"#utility.yul\":2226:2232   */\n      0x00\n        /* \"#utility.yul\":2275:2277   */\n      0x20\n        /* \"#utility.yul\":2263:2272   */\n      dup3\n        /* \"#utility.yul\":2254:2261   */\n      dup5\n        /* \"#utility.yul\":2250:2273   */\n      sub\n        /* \"#utility.yul\":2246:2278   */\n      slt\n        /* \"#utility.yul\":2243:2362   */\n      iszero\n      tag_112\n      jumpi\n        /* \"#utility.yul\":2281:2360   */\n      tag_113\n      tag_51\n      jump\t// in\n    tag_113:\n        /* \"#utility.yul\":2243:2362   */\n    tag_112:\n        /* \"#utility.yul\":2401:2402   */\n      0x00\n        /* \"#utility.yul\":2426:2479   */\n      tag_114\n        /* \"#utility.yul\":2471:2478   */\n      dup5\n        /* \"#utility.yul\":2462:2468   */\n      dup3\n        /* \"#utility.yul\":2451:2460   */\n      dup6\n        /* \"#utility.yul\":2447:2469   */\n      add\n        /* \"#utility.yul\":2426:2479   */\n      tag_59\n      jump\t// in\n    tag_114:\n        /* \"#utility.yul\":2416:2479   */\n      swap2\n      pop\n        /* \"#utility.yul\":2372:2489   */\n      pop\n        /* \"#utility.yul\":2167:2496   */\n      swap3\n      swap2\n      pop\n      pop\n      jump\t// out\n        /* \"#utility.yul\":2502:2601   */\n    tag_60:\n        /* \"#utility.yul\":2554:2560   */\n      0x00\n        /* \"#utility.yul\":2588:2593   */\n      dup2\n        /* \"#utility.yul\":2582:2594   */\n      mload\n        /* \"#utility.yul\":2572:2594   */\n      swap1\n      pop\n        /* \"#utility.yul\":2502:2601   */\n      swap2\n      swap1\n      pop\n      jump\t// out\n        /* \"#utility.yul\":2607:2776   */\n    tag_61:\n        /* \"#utility.yul\":2691:2702   */\n      0x00\n        /* \"#utility.yul\":2725:2731   */\n      dup3\n        /* \"#utility.yul\":2720:2723   */\n      dup3\n        /* \"#utility.yul\":2713:2732   */\n      mstore\n        /* \"#utility.yul\":2765:2769   */\n      0x20\n        /* \"#utility.yul\":2760:2763   */\n      dup3\n        /* \"#utility.yul\":2756:2770   */\n      add\n        /* \"#utility.yul\":2741:2770   */\n      swap1\n      pop\n        /* \"#utility.yul\":2607:2776   */\n      swap3\n      swap2\n      pop\n      pop\n      jump\t// out\n        /* \"#utility.yul\":2782:2921   */\n    tag_62:\n        /* \"#utility.yul\":2871:2877   */\n      dup3\n        /* \"#utility.yul\":2866:2869   */\n      dup2\n        /* \"#utility.yul\":2861:2864   */\n      dup4\n        /* \"#utility.yul\":2855:2878   */\n      mcopy\n        /* \"#utility.yul\":2912:2913   */\n      0x00\n        /* \"#utility.yul\":2903:2909   */\n      dup4\n        /* \"#utility.yul\":2898:2901   */\n      dup4\n        /* \"#utility.yul\":2894:2910   */\n      add\n        /* \"#utility.yul\":2887:2914   */\n      mstore\n        /* \"#utility.yul\":2782:2921   */\n      pop\n      pop\n      pop\n      jump\t// out\n        /* \"#utility.yul\":2927:3029   */\n    tag_63:\n        /* \"#utility.yul\":2968:2974   */\n      0x00\n        /* \"#utility.yul\":3019:3021   */\n      0x1f\n        /* \"#utility.yul\":3015:3022   */\n      not\n        /* \"#utility.yul\":3010:3012   */\n      0x1f\n        /* \"#utility.yul\":3003:3008   */\n      dup4\n        /* \"#utility.yul\":2999:3013   */\n      add\n        /* \"#utility.yul\":2995:3023   */\n      and\n        /* \"#utility.yul\":2985:3023   */\n      swap1\n      pop\n        /* \"#utility.yul\":2927:3029   */\n      swap2\n      swap1\n      pop\n      jump\t// out\n        /* \"#utility.yul\":3035:3412   */\n    tag_64:\n        /* \"#utility.yul\":3123:3126   */\n      0x00\n        /* \"#utility.yul\":3151:3190   */\n      tag_120\n        /* \"#utility.yul\":3184:3189   */\n      dup3\n        /* \"#utility.yul\":3151:3190   */\n      tag_60\n      jump\t// in\n    tag_120:\n        /* \"#utility.yul\":3206:3277   */\n      tag_121\n        /* \"#utility.yul\":3270:3276   */\n      dup2\n        /* \"#utility.yul\":3265:3268   */\n      dup6\n        /* \"#utility.yul\":3206:3277   */\n      tag_61\n      jump\t// in\n    tag_121:\n        /* \"#utility.yul\":3199:3277   */\n      swap4\n      pop\n        /* \"#utility.yul\":3286:3351   */\n      tag_122\n        /* \"#utility.yul\":3344:3350   */\n      dup2\n        /* \"#utility.yul\":3339:3342   */\n      dup6\n        /* \"#utility.yul\":3332:3336   */\n      0x20\n        /* \"#utility.yul\":3325:3330   */\n      dup7\n        /* \"#utility.yul\":3321:3337   */\n      add\n        /* \"#utility.yul\":3286:3351   */\n      tag_62\n      jump\t// in\n    tag_122:\n        /* \"#utility.yul\":3376:3405   */\n      tag_123\n        /* \"#utility.yul\":3398:3404   */\n      dup2\n        /* \"#utility.yul\":3376:3405   */\n      tag_63\n      jump\t// in\n    tag_123:\n        /* \"#utility.yul\":3371:3374   */\n      dup5\n        /* \"#utility.yul\":3367:3406   */\n      add\n        /* \"#utility.yul\":3360:3406   */\n      swap2\n      pop\n        /* \"#utility.yul\":3127:3412   */\n      pop\n        /* \"#utility.yul\":3035:3412   */\n      swap3\n      swap2\n      pop\n      pop\n      jump\t// out\n        /* \"#utility.yul\":3418:3508   */\n    tag_65:\n        /* \"#utility.yul\":3452:3459   */\n      0x00\n        /* \"#utility.yul\":3495:3500   */\n      dup2\n        /* \"#utility.yul\":3488:3501   */\n      iszero\n        /* \"#utility.yul\":3481:3502   */\n      iszero\n        /* \"#utility.yul\":3470:3502   */\n      swap1\n      pop\n        /* \"#utility.yul\":3418:3508   */\n      swap2\n      swap1\n      pop\n      jump\t// out\n        /* \"#utility.yul\":3514:3623   */\n    tag_66:\n        /* \"#utility.yul\":3595:3616   */\n      tag_126\n        /* \"#utility.yul\":3610:3615   */\n      dup2\n        /* \"#utility.yul\":3595:3616   */\n      tag_65\n      jump\t// in\n    tag_126:\n        /* \"#utility.yul\":3590:3593   */\n      dup3\n        /* \"#utility.yul\":3583:3617   */\n      mstore\n        /* \"#utility.yul\":3514:3623   */\n      pop\n      pop\n      jump\t// out\n        /* \"#utility.yul\":3629:4040   */\n    tag_16:\n        /* \"#utility.yul\":3764:3768   */\n      0x00\n        /* \"#utility.yul\":3802:3804   */\n      0x40\n        /* \"#utility.yul\":3791:3800   */\n      dup3\n        /* \"#utility.yul\":3787:3805   */\n      add\n        /* \"#utility.yul\":3779:3805   */\n      swap1\n      pop\n        /* \"#utility.yul\":3851:3860   */\n      dup2\n        /* \"#utility.yul\":3845:3849   */\n      dup2\n        /* \"#utility.yul\":3841:3861   */\n      sub\n        /* \"#utility.yul\":3837:3838   */\n      0x00\n        /* \"#utility.yul\":3826:3835   */\n      dup4\n        /* \"#utility.yul\":3822:3839   */\n      add\n        /* \"#utility.yul\":3815:3862   */\n      mstore\n        /* \"#utility.yul\":3879:3957   */\n      tag_128\n        /* \"#utility.yul\":3952:3956   */\n      dup2\n        /* \"#utility.yul\":3943:3949   */\n      dup6\n        /* \"#utility.yul\":3879:3957   */\n      tag_64\n      jump\t// in\n    tag_128:\n        /* \"#utility.yul\":3871:3957   */\n      swap1\n      pop\n        /* \"#utility.yul\":3967:4033   */\n      tag_129\n        /* \"#utility.yul\":4029:4031   */\n      0x20\n        /* \"#utility.yul\":4018:4027   */\n      dup4\n        /* \"#utility.yul\":4014:4032   */\n      add\n        /* \"#utility.yul\":4005:4011   */\n      dup5\n        /* \"#utility.yul\":3967:4033   */\n      tag_66\n      jump\t// in\n    tag_129:\n        /* \"#utility.yul\":3629:4040   */\n      swap4\n      swap3\n      pop\n      pop\n      pop\n      jump\t// out\n        /* \"#utility.yul\":4046:4720   */\n    tag_22:\n        /* \"#utility.yul\":4126:4132   */\n      0x00\n        /* \"#utility.yul\":4134:4140   */\n      dup1\n        /* \"#utility.yul\":4142:4148   */\n      0x00\n        /* \"#utility.yul\":4191:4193   */\n      0x40\n        /* \"#utility.yul\":4179:4188   */\n      dup5\n        /* \"#utility.yul\":4170:4177   */\n      dup7\n        /* \"#utility.yul\":4166:4189   */\n      sub\n        /* \"#utility.yul\":4162:4194   */\n      slt\n        /* \"#utility.yul\":4159:4278   */\n      iszero\n      tag_131\n      jumpi\n        /* \"#utility.yul\":4197:4276   */\n      tag_132\n      tag_51\n      jump\t// in\n    tag_132:\n        /* \"#utility.yul\":4159:4278   */\n    tag_131:\n        /* \"#utility.yul\":4317:4318   */\n      0x00\n        /* \"#utility.yul\":4342:4395   */\n      tag_133\n        /* \"#utility.yul\":4387:4394   */\n      dup7\n        /* \"#utility.yul\":4378:4384   */\n      dup3\n        /* \"#utility.yul\":4367:4376   */\n      dup8\n        /* \"#utility.yul\":4363:4385   */\n      add\n        /* \"#utility.yul\":4342:4395   */\n      tag_59\n      jump\t// in\n    tag_133:\n        /* \"#utility.yul\":4332:4395   */\n      swap4\n      pop\n        /* \"#utility.yul\":4288:4405   */\n      pop\n        /* \"#utility.yul\":4472:4474   */\n      0x20\n        /* \"#utility.yul\":4461:4470   */\n      dup5\n        /* \"#utility.yul\":4457:4475   */\n      add\n        /* \"#utility.yul\":4444:4476   */\n      calldataload\n        /* \"#utility.yul\":4503:4521   */\n      0xffffffffffffffff\n        /* \"#utility.yul\":4495:4501   */\n      dup2\n        /* \"#utility.yul\":4492:4522   */\n      gt\n        /* \"#utility.yul\":4489:4606   */\n      iszero\n      tag_134\n      jumpi\n        /* \"#utility.yul\":4525:4604   */\n      tag_135\n      tag_52\n      jump\t// in\n    tag_135:\n        /* \"#utility.yul\":4489:4606   */\n    tag_134:\n        /* \"#utility.yul\":4638:4703   */\n      tag_136\n        /* \"#utility.yul\":4695:4702   */\n      dup7\n        /* \"#utility.yul\":4686:4692   */\n      dup3\n        /* \"#utility.yul\":4675:4684   */\n      dup8\n        /* \"#utility.yul\":4671:4693   */\n      add\n        /* \"#utility.yul\":4638:4703   */\n      tag_56\n      jump\t// in\n    tag_136:\n        /* \"#utility.yul\":4620:4703   */\n      swap3\n      pop\n      swap3\n      pop\n        /* \"#utility.yul\":4415:4713   */\n      pop\n        /* \"#utility.yul\":4046:4720   */\n      swap3\n      pop\n      swap3\n      pop\n      swap3\n      jump\t// out\n        /* \"#utility.yul\":4726:4906   */\n    tag_67:\n        /* \"#utility.yul\":4774:4851   */\n      0x4e487b7100000000000000000000000000000000000000000000000000000000\n        /* \"#utility.yul\":4771:4772   */\n      0x00\n        /* \"#utility.yul\":4764:4852   */\n      mstore\n        /* \"#utility.yul\":4871:4875   */\n      0x41\n        /* \"#utility.yul\":4868:4869   */\n      0x04\n        /* \"#utility.yul\":4861:4876   */\n      mstore\n        /* \"#utility.yul\":4895:4899   */\n      0x24\n        /* \"#utility.yul\":4892:4893   */\n      0x00\n        /* \"#utility.yul\":4885:4900   */\n      revert\n        /* \"#utility.yul\":4912:5092   */\n    tag_68:\n        /* \"#utility.yul\":4960:5037   */\n      0x4e487b7100000000000000000000000000000000000000000000000000000000\n        /* \"#utility.yul\":4957:4958   */\n      0x00\n        /* \"#utility.yul\":4950:5038   */\n      mstore\n        /* \"#utility.yul\":5057:5061   */\n      0x22\n        /* \"#utility.yul\":5054:5055   */\n      0x04\n        /* \"#utility.yul\":5047:5062   */\n      mstore\n        /* \"#utility.yul\":5081:5085   */\n      0x24\n        /* \"#utility.yul\":5078:5079   */\n      0x00\n        /* \"#utility.yul\":5071:5086   */\n      revert\n        /* \"#utility.yul\":5098:5418   */\n    tag_31:\n        /* \"#utility.yul\":5142:5148   */\n      0x00\n        /* \"#utility.yul\":5179:5180   */\n      0x02\n        /* \"#utility.yul\":5173:5177   */\n      dup3\n        /* \"#utility.yul\":5169:5181   */\n      div\n        /* \"#utility.yul\":5159:5181   */\n      swap1\n      pop\n        /* \"#utility.yul\":5226:5227   */\n      0x01\n        /* \"#utility.yul\":5220:5224   */\n      dup3\n        /* \"#utility.yul\":5216:5228   */\n      and\n        /* \"#utility.yul\":5247:5265   */\n      dup1\n        /* \"#utility.yul\":5237:5318   */\n      tag_140\n      jumpi\n        /* \"#utility.yul\":5303:5307   */\n      0x7f\n        /* \"#utility.yul\":5295:5301   */\n      dup3\n        /* \"#utility.yul\":5291:5308   */\n      and\n        /* \"#utility.yul\":5281:5308   */\n      swap2\n      pop\n        /* \"#utility.yul\":5237:5318   */\n    tag_140:\n        /* \"#utility.yul\":5365:5367   */\n      0x20\n        /* \"#utility.yul\":5357:5363   */\n      dup3\n        /* \"#utility.yul\":5354:5368   */\n      lt\n        /* \"#utility.yul\":5334:5352   */\n      dup2\n        /* \"#utility.yul\":5331:5369   */\n      sub\n        /* \"#utility.yul\":5328:5412   */\n      tag_141\n      jumpi\n        /* \"#utility.yul\":5384:5402   */\n      tag_142\n      tag_68\n      jump\t// in\n    tag_142:\n        /* \"#utility.yul\":5328:5412   */\n    tag_141:\n        /* \"#utility.yul\":5149:5418   */\n      pop\n        /* \"#utility.yul\":5098:5418   */\n      swap2\n      swap1\n      pop\n      jump\t// out\n        /* \"#utility.yul\":5424:5565   */\n    tag_69:\n        /* \"#utility.yul\":5473:5477   */\n      0x00\n        /* \"#utility.yul\":5496:5499   */\n      dup2\n        /* \"#utility.yul\":5488:5499   */\n      swap1\n      pop\n        /* \"#utility.yul\":5519:5522   */\n      dup2\n        /* \"#utility.yul\":5516:5517   */\n      0x00\n        /* \"#utility.yul\":5509:5523   */\n      mstore\n        /* \"#utility.yul\":5553:5557   */\n      0x20\n        /* \"#utility.yul\":5550:5551   */\n      0x00\n        /* \"#utility.yul\":5540:5558   */\n      keccak256\n        /* \"#utility.yul\":5532:5558   */\n      swap1\n      pop\n        /* \"#utility.yul\":5424:5565   */\n      swap2\n      swap1\n      pop\n      jump\t// out\n        /* \"#utility.yul\":5571:5664   */\n    tag_70:\n        /* \"#utility.yul\":5608:5614   */\n      0x00\n        /* \"#utility.yul\":5655:5657   */\n      0x20\n        /* \"#utility.yul\":5650:5652   */\n      0x1f\n        /* \"#utility.yul\":5643:5648   */\n      dup4\n        /* \"#utility.yul\":5639:5653   */\n      add\n        /* \"#utility.yul\":5635:5658   */\n      div\n        /* \"#utility.yul\":5625:5658   */\n      swap1\n      pop\n        /* \"#utility.yul\":5571:5664   */\n      swap2\n      swap1\n      pop\n      jump\t// out\n        /* \"#utility.yul\":5670:5777   */\n    tag_71:\n        /* \"#utility.yul\":5714:5722   */\n      0x00\n        /* \"#utility.yul\":5764:5769   */\n      dup3\n        /* \"#utility.yul\":5758:5762   */\n      dup3\n        /* \"#utility.yul\":5754:5770   */\n      shl\n        /* \"#utility.yul\":5733:5770   */\n      swap1\n      pop\n        /* \"#utility.yul\":5670:5777   */\n      swap3\n      swap2\n      pop\n      pop\n      jump\t// out\n        /* \"#utility.yul\":5783:6176   */\n    tag_72:\n        /* \"#utility.yul\":5852:5858   */\n      0x00\n        /* \"#utility.yul\":5902:5903   */\n      0x08\n        /* \"#utility.yul\":5890:5900   */\n      dup4\n        /* \"#utility.yul\":5886:5904   */\n      mul\n        /* \"#utility.yul\":5925:6022   */\n      tag_147\n        /* \"#utility.yul\":5955:6021   */\n      0xffffffffffffffffffffffffffffffffffffffffffffffffffffffffffffffff\n        /* \"#utility.yul\":5944:5953   */\n      dup3\n        /* \"#utility.yul\":5925:6022   */\n      tag_71\n      jump\t// in\n    tag_147:\n        /* \"#utility.yul\":6043:6082   */\n      tag_148\n        /* \"#utility.yul\":6073:6081   */\n      dup7\n        /* \"#utility.yul\":6062:6071   */\n      dup4\n        /* \"#utility.yul\":6043:6082   */\n      tag_71\n      jump\t// in\n    tag_148:\n        /* \"#utility.yul\":6031:6082   */\n      swap6\n      pop\n        /* \"#utility.yul\":6115:6119   */\n      dup1\n        /* \"#utility.yul\":6111:6120   */\n      not\n        /* \"#utility.yul\":6104:6109   */\n      dup5\n        /* \"#utility.yul\":6100:6121   */\n      and\n        /* \"#utility.yul\":6091:6121   */\n      swap4\n      pop\n        /* \"#utility.yul\":6164:6168   */\n      dup1\n        /* \"#utility.yul\":6154:6162   */\n      dup7\n        /* \"#utility.yul\":6150:6169   */\n      and\n        /* \"#utility.yul\":6143:6148   */\n      dup5\n        /* \"#utility.yul\":6140:6170   */\n      or\n        /* \"#utility.yul\":6130:6170   */\n      swap3\n      pop\n        /* \"#utility.yul\":5859:6176   */\n      pop\n      pop\n        /* \"#utility.yul\":5783:6176   */\n      swap4\n      swap3\n      pop\n      pop\n      pop\n      jump\t// out\n        /* \"#utility.yul\":6182:6242   */\n    tag_73:\n        /* \"#utility.yul\":6210:6213   */\n      0x00\n        /* \"#utility.yul\":6231:6236   */\n      dup2\n        /* \"#utility.yul\":6224:6236   */\n      swap1\n      pop\n        /* \"#utility.yul\":6182:6242   */\n      swap2\n      swap1\n      pop\n      jump\t// out\n        /* \"#utility.yul\":6248:6390   */\n    tag_74:\n        /* \"#utility.yul\":6298:6307   */\n      0x00\n        /* \"#utility.yul\":6331:6384   */\n      tag_151\n        /* \"#utility.yul\":6349:6383   */\n      tag_152\n        /* \"#utility.yul\":6358:6382   */\n      tag_153\n        /* \"#utility.yul\":6376:6381   */\n      dup5\n        /* \"#utility.yul\":6358:6382   */\n      tag_57\n      jump\t// in\n    tag_153:\n        /* \"#utility.yul\":6349:6383   */\n      tag_73\n      jump\t// in\n    tag_152:\n        /* \"#utility.yul\":6331:6384   */\n      tag_57\n      jump\t// in\n    tag_151:\n        /* \"#utility.yul\":6318:6384   */\n      swap1\n      pop\n        /* \"#utility.yul\":6248:6390   */\n      swap2\n      swap1\n      pop\n      jump\t// out\n        /* \"#utility.yul\":6396:6471   */\n    tag_75:\n        /* \"#utility.yul\":6439:6442   */\n      0x00\n        /* \"#utility.yul\":6460:6465   */\n      dup2\n        /* \"#utility.yul\":6453:6465   */\n      swap1\n      pop\n        /* \"#utility.yul\":6396:6471   */\n      swap2\n      swap1\n      pop\n      jump\t// out\n        /* \"#utility.yul\":6477:6746   */\n    tag_76:\n        /* \"#utility.yul\":6587:6626   */\n      tag_156\n        /* \"#utility.yul\":6618:6625   */\n      dup4\n        /* \"#utility.yul\":6587:6626   */\n      tag_74\n      jump\t// in\n    tag_156:\n        /* \"#utility.yul\":6648:6739   */\n      tag_157\n        /* \"#utility.yul\":6697:6738   */\n      tag_158\n        /* \"#utility.yul\":6721:6737   */\n      dup3\n        /* \"#utility.yul\":6697:6738   */\n      tag_75\n      jump\t// in\n    tag_158:\n        /* \"#utility.yul\":6689:6695   */\n      dup5\n        /* \"#utility.yul\":6682:6686   */\n      dup5\n        /* \"#utility.yul\":6676:6687   */\n      sload\n        /* \"#utility.yul\":6648:6739   */\n      tag_72\n      jump\t// in\n    tag_157:\n        /* \"#utility.yul\":6642:6646   */\n      dup3\n        /* \"#utility.yul\":6635:6740   */\n      sstore\n        /* \"#utility.yul\":6553:6746   */\n      pop\n        /* \"#utility.yul\":6477:6746   */\n      pop\n      pop\n      pop\n      jump\t// out\n        /* \"#utility.yul\":6752:6825   */\n    tag_77:\n        /* \"#utility.yul\":6797:6800   */\n      0x00\n        /* \"#utility.yul\":6752:6825   */\n      swap1\n      jump\t// out\n        /* \"#utility.yul\":6831:7020   */\n    tag_78:\n        /* \"#utility.yul\":6908:6940   */\n      tag_161\n      tag_77\n      jump\t// in\n    tag_161:\n        /* \"#utility.yul\":6949:7014   */\n      tag_162\n        /* \"#utility.yul\":7007:7013   */\n      dup2\n        /* \"#utility.yul\":6999:7005   */\n      dup5\n        /* \"#utility.yul\":6993:6997   */\n      dup5\n        /* \"#utility.yul\":6949:7014   */\n      tag_76\n      jump\t// in\n    tag_162:\n        /* \"#utility.yul\":6884:7020   */\n      pop\n        /* \"#utility.yul\":6831:7020   */\n      pop\n      pop\n      jump\t// out\n        /* \"#utility.yul\":7026:7212   */\n    tag_79:\n        /* \"#utility.yul\":7086:7206   */\n    tag_164:\n        /* \"#utility.yul\":7103:7106   */\n      dup2\n        /* \"#utility.yul\":7096:7101   */\n      dup2\n        /* \"#utility.yul\":7093:7107   */\n      lt\n        /* \"#utility.yul\":7086:7206   */\n      iszero\n      tag_166\n      jumpi\n        /* \"#utility.yul\":7157:7196   */\n      tag_167\n        /* \"#utility.yul\":7194:7195   */\n      0x00\n        /* \"#utility.yul\":7187:7192   */\n      dup3\n        /* \"#utility.yul\":7157:7196   */\n      tag_78\n      jump\t// in\n    tag_167:\n        /* \"#utility.yul\":7130:7131   */\n      0x01\n        /* \"#utility.yul\":7123:7128   */\n      dup2\n        /* \"#utility.yul\":7119:7132   */\n      add\n        /* \"#utility.yul\":7110:7132   */\n      swap1\n      pop\n        /* \"#utility.yul\":7086:7206   */\n      jump(tag_164)\n    tag_166:\n        /* \"#utility.yul\":7026:7212   */\n      pop\n      pop\n      jump\t// out\n        /* \"#utility.yul\":7218:7761   */\n    tag_80:\n        /* \"#utility.yul\":7319:7321   */\n      0x1f\n        /* \"#utility.yul\":7314:7317   */\n      dup3\n        /* \"#utility.yul\":7311:7322   */\n      gt\n        /* \"#utility.yul\":7308:7754   */\n      iszero\n      tag_169\n      jumpi\n        /* \"#utility.yul\":7353:7391   */\n      tag_170\n        /* \"#utility.yul\":7385:7390   */\n      dup2\n        /* \"#utility.yul\":7353:7391   */\n      tag_69\n      jump\t// in\n    tag_170:\n        /* \"#utility.yul\":7437:7466   */\n      tag_171\n        /* \"#utility.yul\":7455:7465   */\n      dup5\n        /* \"#utility.yul\":7437:7466   */\n      tag_70\n      jump\t// in\n    tag_171:\n        /* \"#utility.yul\":7427:7435   */\n      dup2\n        /* \"#utility.yul\":7423:7467   */\n      add\n        /* \"#utility.yul\":7620:7622   */\n      0x20\n        /* \"#utility.yul\":7608:7618   */\n      dup6\n        /* \"#utility.yul\":7605:7623   */\n      lt\n        /* \"#utility.yul\":7602:7651   */\n      iszero\n      tag_172\n      jumpi\n        /* \"#utility.yul\":7641:7649   */\n      dup2\n        /* \"#utility.yul\":7626:7649   */\n      swap1\n      pop\n        /* \"#utility.yul\":7602:7651   */\n    tag_172:\n        /* \"#utility.yul\":7664:7744   */\n      tag_173\n        /* \"#utility.yul\":7720:7742   */\n      tag_174\n        /* \"#utility.yul\":7738:7741   */\n      dup6\n        /* \"#utility.yul\":7720:7742   */\n      tag_70\n      jump\t// in\n    tag_174:\n        /* \"#utility.yul\":7710:7718   */\n      dup4\n        /* \"#utility.yul\":7706:7743   */\n      add\n        /* \"#utility.yul\":7693:7704   */\n      dup3\n        /* \"#utility.yul\":7664:7744   */\n      tag_79\n      jump\t// in\n    tag_173:\n        /* \"#utility.yul\":7323:7754   */\n      pop\n      pop\n        /* \"#utility.yul\":7308:7754   */\n    tag_169:\n        /* \"#utility.yul\":7218:7761   */\n      pop\n      pop\n      pop\n      jump\t// out\n        /* \"#utility.yul\":7767:7884   */\n    tag_81:\n        /* \"#utility.yul\":7821:7829   */\n      0x00\n        /* \"#utility.yul\":7871:7876   */\n      dup3\n        /* \"#utility.yul\":7865:7869   */\n      dup3\n        /* \"#utility.yul\":7861:7877   */\n      shr\n        /* \"#utility.yul\":7840:7877   */\n      swap1\n      pop\n        /* \"#utility.yul\":7767:7884   */\n      swap3\n      swap2\n      pop\n      pop\n      jump\t// out\n        /* \"#utility.yul\":7890:8059   */\n    tag_82:\n        /* \"#utility.yul\":7934:7940   */\n      0x00\n        /* \"#utility.yul\":7967:8018   */\n      tag_177\n        /* \"#utility.yul\":8015:8016   */\n      0x00\n        /* \"#utility.yul\":8011:8017   */\n      not\n        /* \"#utility.yul\":8003:8008   */\n      dup5\n        /* \"#utility.yul\":8000:8001   */\n      0x08\n        /* \"#utility.yul\":7996:8009   */\n      mul\n        /* \"#utility.yul\":7967:8018   */\n      tag_81\n      jump\t// in\n    tag_177:\n        /* \"#utility.yul\":7963:8019   */\n      not\n        /* \"#utility.yul\":8048:8052   */\n      dup1\n        /* \"#utility.yul\":8042:8046   */\n      dup4\n        /* \"#utility.yul\":8038:8053   */\n      and\n        /* \"#utility.yul\":8028:8053   */\n      swap2\n      pop\n        /* \"#utility.yul\":7941:8059   */\n      pop\n        /* \"#utility.yul\":7890:8059   */\n      swap3\n      swap2\n      pop\n      pop\n      jump\t// out\n        /* \"#utility.yul\":8064:8359   */\n    tag_83:\n        /* \"#utility.yul\":8140:8144   */\n      0x00\n        /* \"#utility.yul\":8286:8315   */\n      tag_179\n        /* \"#utility.yul\":8311:8314   */\n      dup4\n        /* \"#utility.yul\":8305:8309   */\n      dup4\n        /* \"#utility.yul\":8286:8315   */\n      tag_82\n      jump\t// in\n    tag_179:\n        /* \"#utility.yul\":8278:8315   */\n      swap2\n      pop\n        /* \"#utility.yul\":8348:8351   */\n      dup3\n        /* \"#utility.yul\":8345:8346   */\n      0x02\n        /* \"#utility.yul\":8341:8352   */\n      mul\n        /* \"#utility.yul\":8335:8339   */\n      dup3\n        /* \"#utility.yul\":8332:8353   */\n      or\n        /* \"#utility.yul\":8324:8353   */\n      swap1\n      pop\n        /* \"#utility.yul\":8064:8359   */\n      swap3\n      swap2\n      pop\n      pop\n      jump\t// out\n        /* \"#utility.yul\":8364:9759   */\n    tag_27:\n        /* \"#utility.yul\":8481:8518   */\n      tag_181\n        /* \"#utility.yul\":8514:8517   */\n      dup3\n        /* \"#utility.yul\":8481:8518   */\n      tag_60\n      jump\t// in\n    tag_181:\n        /* \"#utility.yul\":8583:8601   */\n      0xffffffffffffffff\n        /* \"#utility.yul\":8575:8581   */\n      dup2\n        /* \"#utility.yul\":8572:8602   */\n      gt\n        /* \"#utility.yul\":8569:8625   */\n      iszero\n      tag_182\n      jumpi\n        /* \"#utility.yul\":8605:8623   */\n      tag_183\n      tag_67\n      jump\t// in\n    tag_183:\n        /* \"#utility.yul\":8569:8625   */\n    tag_182:\n        /* \"#utility.yul\":8649:8687   */\n      tag_184\n        /* \"#utility.yul\":8681:8685   */\n      dup3\n        /* \"#utility.yul\":8675:8686   */\n      sload\n        /* \"#utility.yul\":8649:8687   */\n      tag_31\n      jump\t// in\n    tag_184:\n        /* \"#utility.yul\":8734:8801   */\n      tag_185\n        /* \"#utility.yul\":8794:8800   */\n      dup3\n        /* \"#utility.yul\":8786:8792   */\n      dup3\n        /* \"#utility.yul\":8780:8784   */\n      dup6\n        /* \"#utility.yul\":8734:8801   */\n      tag_80\n      jump\t// in\n    tag_185:\n        /* \"#utility.yul\":8828:8829   */\n      0x00\n        /* \"#utility.yul\":8852:8856   */\n      0x20\n        /* \"#utility.yul\":8839:8856   */\n      swap1\n      pop\n        /* \"#utility.yul\":8884:8886   */\n      0x1f\n        /* \"#utility.yul\":8876:8882   */\n      dup4\n        /* \"#utility.yul\":8873:8887   */\n      gt\n        /* \"#utility.yul\":8901:8902   */\n      0x01\n        /* \"#utility.yul\":8896:9514   */\n      dup2\n      eq\n      tag_187\n      jumpi\n        /* \"#utility.yul\":9558:9559   */\n      0x00\n        /* \"#utility.yul\":9575:9581   */\n      dup5\n        /* \"#utility.yul\":9572:9649   */\n      iszero\n      tag_188\n      jumpi\n        /* \"#utility.yul\":9624:9633   */\n      dup3\n        /* \"#utility.yul\":9619:9622   */\n      dup8\n        /* \"#utility.yul\":9615:9634   */\n      add\n        /* \"#utility.yul\":9609:9635   */\n      mload\n        /* \"#utility.yul\":9600:9635   */\n      swap1\n      pop\n        /* \"#utility.yul\":9572:9649   */\n    tag_188:\n        /* \"#utility.yul\":9675:9742   */\n      tag_189\n        /* \"#utility.yul\":9735:9741   */\n      dup6\n        /* \"#utility.yul\":9728:9733   */\n      dup3\n        /* \"#utility.yul\":9675:9742   */\n      tag_83\n      jump\t// in\n    tag_189:\n        /* \"#utility.yul\":9669:9673   */\n      dup7\n        /* \"#utility.yul\":9662:9743   */\n      sstore\n        /* \"#utility.yul\":9531:9753   */\n      pop\n        /* \"#utility.yul\":8866:9753   */\n      jump(tag_186)\n        /* \"#utility.yul\":8896:9514   */\n    tag_187:\n        /* \"#utility.yul\":8948:8952   */\n      0x1f\n        /* \"#utility.yul\":8944:8953   */\n      not\n        /* \"#utility.yul\":8936:8942   */\n      dup5\n        /* \"#utility.yul\":8932:8954   */\n      and\n        /* \"#utility.yul\":8982:9019   */\n      tag_190\n        /* \"#utility.yul\":9014:9018   */\n      dup7\n        /* \"#utility.yul\":8982:9019   */\n      tag_69\n      jump\t// in\n    tag_190:\n        /* \"#utility.yul\":9041:9042   */\n      0x00\n        /* \"#utility.yul\":9055:9263   */\n    tag_191:\n        /* \"#utility.yul\":9069:9076   */\n      dup3\n        /* \"#utility.yul\":9066:9067   */\n      dup2\n        /* \"#utility.yul\":9063:9077   */\n      lt\n        /* \"#utility.yul\":9055:9263   */\n      iszero\n      tag_193\n      jumpi\n        /* \"#utility.yul\":9148:9157   */\n      dup5\n        /* \"#utility.yul\":9143:9146   */\n      dup10\n        /* \"#utility.yul\":9139:9158   */\n      add\n        /* \"#utility.yul\":9133:9159   */\n      mload\n        /* \"#utility.yul\":9125:9131   */\n      dup3\n        /* \"#utility.yul\":9118:9160   */\n      sstore\n        /* \"#utility.yul\":9199:9200   */\n      0x01\n        /* \"#utility.yul\":9191:9197   */\n      dup3\n        /* \"#utility.yul\":9187:9201   */\n      add\n        /* \"#utility.yul\":9177:9201   */\n      swap2\n      pop\n        /* \"#utility.yul\":9246:9248   */\n      0x20\n        /* \"#utility.yul\":9235:9244   */\n      dup6\n        /* \"#utility.yul\":9231:9249   */\n      add\n        /* \"#utility.yul\":9218:9249   */\n      swap5\n      pop\n        /* \"#utility.yul\":9092:9096   */\n      0x20\n        /* \"#utility.yul\":9089:9090   */\n      dup2\n        /* \"#utility.yul\":9085:9097   */\n      add\n        /* \"#utility.yul\":9080:9097   */\n      swap1\n      pop\n        /* \"#utility.yul\":9055:9263   */\n      jump(tag_191)\n    tag_193:\n        /* \"#utility.yul\":9291:9297   */\n      dup7\n        /* \"#utility.yul\":9282:9289   */\n      dup4\n        /* \"#utility.yul\":9279:9298   */\n      lt\n        /* \"#utility.yul\":9276:9455   */\n      iszero\n      tag_194\n      jumpi\n        /* \"#utility.yul\":9349:9358   */\n      dup5\n        /* \"#utility.yul\":9344:9347   */\n      dup10\n        /* \"#utility.yul\":9340:9359   */\n      add\n        /* \"#utility.yul\":9334:9360   */\n      mload\n        /* \"#utility.yul\":9392:9440   */\n      tag_195\n        /* \"#utility.yul\":9434:9438   */\n      0x1f\n        /* \"#utility.yul\":9426:9432   */\n      dup10\n        /* \"#utility.yul\":9422:9439   */\n      and\n        /* \"#utility.yul\":9411:9420   */\n      dup3\n        /* \"#utility.yul\":9392:9440   */\n      tag_82\n      jump\t// in\n    tag_195:\n        /* \"#utility.yul\":9384:9390   */\n      dup4\n        /* \"#utility.yul\":9377:9441   */\n      sstore\n        /* \"#utility.yul\":9299:9455   */\n      pop\n        /* \"#utility.yul\":9276:9455   */\n    tag_194:\n        /* \"#utility.yul\":9501:9502   */\n      0x01\n        /* \"#utility.yul\":9497:9498   */\n      0x02\n        /* \"#utility.yul\":9489:9495   */\n      dup9\n        /* \"#utility.yul\":9485:9499   */\n      mul\n        /* \"#utility.yul\":9481:9503   */\n      add\n        /* \"#utility.yul\":9475:9479   */\n      dup9\n        /* \"#utility.yul\":9468:9504   */\n      sstore\n        /* \"#utility.yul\":8903:9514   */\n      pop\n      pop\n      pop\n        /* \"#utility.yul\":8866:9753   */\n    tag_186:\n      pop\n        /* \"#utility.yul\":8456:9759   */\n      pop\n      pop\n      pop\n        /* \"#utility.yul\":8364:9759   */\n      pop\n      pop\n      jump\t// out\n        /* \"#utility.yul\":9765:9945   */\n    tag_39:\n        /* \"#utility.yul\":9813:9890   */\n      0x4e487b7100000000000000000000000000000000000000000000000000000000\n        /* \"#utility.yul\":9810:9811   */\n      0x00\n        /* \"#utility.yul\":9803:9891   */\n      mstore\n        /* \"#utility.yul\":9910:9914   */\n      0x32\n        /* \"#utility.yul\":9907:9908   */\n      0x04\n        /* \"#utility.yul\":9900:9915   */\n      mstore\n        /* \"#utility.yul\":9934:9938   */\n      0x24\n        /* \"#utility.yul\":9931:9932   */\n      0x00\n        /* \"#utility.yul\":9924:9939   */\n      revert\n        /* \"#utility.yul\":9951:10048   */\n    tag_84:\n        /* \"#utility.yul\":10010:10016   */\n      0x00\n        /* \"#utility.yul\":10038:10041   */\n      dup3\n        /* \"#utility.yul\":10028:10041   */\n      swap1\n      pop\n        /* \"#utility.yul\":9951:10048   */\n      swap3\n      swap2\n      pop\n      pop\n      jump\t// out\n        /* \"#utility.yul\":10054:11457   */\n    tag_49:\n        /* \"#utility.yul\":10178:10222   */\n      tag_199\n        /* \"#utility.yul\":10218:10221   */\n      dup4\n        /* \"#utility.yul\":10213:10216   */\n      dup4\n        /* \"#utility.yul\":10178:10222   */\n      tag_84\n      jump\t// in\n    tag_199:\n        /* \"#utility.yul\":10287:10305   */\n      0xffffffffffffffff\n        /* \"#utility.yul\":10279:10285   */\n      dup2\n        /* \"#utility.yul\":10276:10306   */\n      gt\n        /* \"#utility.yul\":10273:10329   */\n      iszero\n      tag_200\n      jumpi\n        /* \"#utility.yul\":10309:10327   */\n      tag_201\n      tag_67\n      jump\t// in\n    tag_201:\n        /* \"#utility.yul\":10273:10329   */\n    tag_200:\n        /* \"#utility.yul\":10353:10391   */\n      tag_202\n        /* \"#utility.yul\":10385:10389   */\n      dup3\n        /* \"#utility.yul\":10379:10390   */\n      sload\n        /* \"#utility.yul\":10353:10391   */\n      tag_31\n      jump\t// in\n    tag_202:\n        /* \"#utility.yul\":10438:10505   */\n      tag_203\n        /* \"#utility.yul\":10498:10504   */\n      dup3\n        /* \"#utility.yul\":10490:10496   */\n      dup3\n        /* \"#utility.yul\":10484:10488   */\n      dup6\n        /* \"#utility.yul\":10438:10505   */\n      tag_80\n      jump\t// in\n    tag_203:\n        /* \"#utility.yul\":10532:10533   */\n      0x00\n        /* \"#utility.yul\":10561:10563   */\n      0x1f\n        /* \"#utility.yul\":10553:10559   */\n      dup4\n        /* \"#utility.yul\":10550:10564   */\n      gt\n        /* \"#utility.yul\":10578:10579   */\n      0x01\n        /* \"#utility.yul\":10573:11205   */\n      dup2\n      eq\n      tag_205\n      jumpi\n        /* \"#utility.yul\":11249:11250   */\n      0x00\n        /* \"#utility.yul\":11266:11272   */\n      dup5\n        /* \"#utility.yul\":11263:11347   */\n      iszero\n      tag_206\n      jumpi\n        /* \"#utility.yul\":11322:11331   */\n      dup3\n        /* \"#utility.yul\":11317:11320   */\n      dup8\n        /* \"#utility.yul\":11313:11332   */\n      add\n        /* \"#utility.yul\":11300:11333   */\n      calldataload\n        /* \"#utility.yul\":11291:11333   */\n      swap1\n      pop\n        /* \"#utility.yul\":11263:11347   */\n    tag_206:\n        /* \"#utility.yul\":11373:11440   */\n      tag_207\n        /* \"#utility.yul\":11433:11439   */\n      dup6\n        /* \"#utility.yul\":11426:11431   */\n      dup3\n        /* \"#utility.yul\":11373:11440   */\n      tag_83\n      jump\t// in\n    tag_207:\n        /* \"#utility.yul\":11367:11371   */\n      dup7\n        /* \"#utility.yul\":11360:11441   */\n      sstore\n        /* \"#utility.yul\":11222:11451   */\n      pop\n        /* \"#utility.yul\":10543:11451   */\n      jump(tag_204)\n        /* \"#utility.yul\":10573:11205   */\n    tag_205:\n        /* \"#utility.yul\":10625:10629   */\n      0x1f\n        /* \"#utility.yul\":10621:10630   */\n      not\n        /* \"#utility.yul\":10613:10619   */\n      dup5\n        /* \"#utility.yul\":10609:10631   */\n      and\n        /* \"#utility.yul\":10659:10696   */\n      tag_208\n        /* \"#utility.yul\":10691:10695   */\n      dup7\n        /* \"#utility.yul\":10659:10696   */\n      tag_69\n      jump\t// in\n    tag_208:\n        /* \"#utility.yul\":10718:10719   */\n      0x00\n        /* \"#utility.yul\":10732:10947   */\n    tag_209:\n        /* \"#utility.yul\":10746:10753   */\n      dup3\n        /* \"#utility.yul\":10743:10744   */\n      dup2\n        /* \"#utility.yul\":10740:10754   */\n      lt\n        /* \"#utility.yul\":10732:10947   */\n      iszero\n      tag_211\n      jumpi\n        /* \"#utility.yul\":10832:10841   */\n      dup5\n        /* \"#utility.yul\":10827:10830   */\n      dup10\n        /* \"#utility.yul\":10823:10842   */\n      add\n        /* \"#utility.yul\":10810:10843   */\n      calldataload\n        /* \"#utility.yul\":10802:10808   */\n      dup3\n        /* \"#utility.yul\":10795:10844   */\n      sstore\n        /* \"#utility.yul\":10883:10884   */\n      0x01\n        /* \"#utility.yul\":10875:10881   */\n      dup3\n        /* \"#utility.yul\":10871:10885   */\n      add\n        /* \"#utility.yul\":10861:10885   */\n      swap2\n      pop\n        /* \"#utility.yul\":10930:10932   */\n      0x20\n        /* \"#utility.yul\":10919:10928   */\n      dup6\n        /* \"#utility.yul\":10915:10933   */\n      add\n        /* \"#utility.yul\":10902:10933   */\n      swap5\n      pop\n        /* \"#utility.yul\":10769:10773   */\n      0x20\n        /* \"#utility.yul\":10766:10767   */\n      dup2\n        /* \"#utility.yul\":10762:10774   */\n      add\n        /* \"#utility.yul\":10757:10774   */\n      swap1\n      pop\n        /* \"#utility.yul\":10732:10947   */\n      jump(tag_209)\n    tag_211:\n        /* \"#utility.yul\":10975:10981   */\n      dup7\n        /* \"#utility.yul\":10966:10973   */\n      dup4\n        /* \"#utility.yul\":10963:10982   */\n      lt\n        /* \"#utility.yul\":10960:11146   */\n      iszero\n      tag_212\n      jumpi\n        /* \"#utility.yul\":11040:11049   */\n      dup5\n        /* \"#utility.yul\":11035:11038   */\n      dup10\n        /* \"#utility.yul\":11031:11050   */\n      add\n        /* \"#utility.yul\":11018:11051   */\n      calldataload\n        /* \"#utility.yul\":11083:11131   */\n      tag_213\n        /* \"#utility.yul\":11125:11129   */\n      0x1f\n        /* \"#utility.yul\":11117:11123   */\n      dup10\n        /* \"#utility.yul\":11113:11130   */\n      and\n        /* \"#utility.yul\":11102:11111   */\n      dup3\n        /* \"#utility.yul\":11083:11131   */\n      tag_82\n      jump\t// in\n    tag_213:\n        /* \"#utility.yul\":11075:11081   */\n      dup4\n        /* \"#utility.yul\":11068:11132   */\n      sstore\n        /* \"#utility.yul\":10983:11146   */\n      pop\n        /* \"#utility.yul\":10960:11146   */\n    tag_212:\n        /* \"#utility.yul\":11192:11193   */\n      0x01\n        /* \"#utility.yul\":11188:11189   */\n      0x02\n        /* \"#utility.yul\":11180:11186   */\n      dup9\n        /* \"#utility.yul\":11176:11190   */\n      mul\n        /* \"#utility.yul\":11172:11194   */\n      add\n        /* \"#utility.yul\":11166:11170   */\n      dup9\n        /* \"#utility.yul\":11159:11195   */\n      sstore\n        /* \"#utility.yul\":10580:11205   */\n      pop\n      pop\n      pop\n        /* \"#utility.yul\":10543:11451   */\n    tag_204:\n      pop\n        /* \"#utility.yul\":10153:11457   */\n      pop\n      pop\n      pop\n        /* \"#utility.yul\":10054:11457   */\n      pop\n      pop\n      pop\n      jump\t// out\n\n    auxdata: 0xa264697066735822122049301d24b36f067f5a023925d264eb65ece181ad8adbfdde2bffa91cce1e5ca664736f6c634300081a0033\n}\n",
				"bytecode": {
					"linkReferences": {},
					"object": "6080604052348015600e575f80fd5b506109458061001c5f395ff3fe608060405234801561000f575f80fd5b506004361061004a575f3560e01c8063b1498e291461004e578063bc8bc2b41461006a578063c0cca5ef1461009b578063f745630f146100b7575b5f80fd5b61006860048036038101906100639190610357565b6100d3565b005b610084600480360381019061007f91906103d5565b61018d565b60405161009292919061048a565b60405180910390f35b6100b560048036038101906100b091906103d5565b61024d565b005b6100d160048036038101906100cc91906104b8565b6102b8565b005b5f604051806040016040528084848080601f0160208091040260200160405190810160405280939291908181526020018383808284375f81840152601f19601f8201169050808301925050505050505081526020015f1515815250908060018154018082558091505060019003905f5260205f2090600202015f909190919091505f820151815f019081610167919061073c565b506020820151816001015f6101000a81548160ff02191690831515021790555050505050565b5f818154811061019b575f80fd5b905f5260205f2090600202015f91509050805f0180546101ba9061056f565b80601f01602080910402602001604051908101604052809291908181526020018280546101e69061056f565b80156102315780601f1061020857610100808354040283529160200191610231565b820191905f5260205f20905b81548152906001019060200180831161021457829003601f168201915b505050505090806001015f9054906101000a900460ff16905082565b5f81815481106102605761025f61080b565b5b905f5260205f2090600202016001015f9054906101000a900460ff16155f82815481106102905761028f61080b565b5b905f5260205f2090600202016001015f6101000a81548160ff02191690831515021790555050565b81815f85815481106102cd576102cc61080b565b5b905f5260205f2090600202015f0191826102e8929190610842565b50505050565b5f80fd5b5f80fd5b5f80fd5b5f80fd5b5f80fd5b5f8083601f840112610317576103166102f6565b5b8235905067ffffffffffffffff811115610334576103336102fa565b5b6020830191508360018202830111156103505761034f6102fe565b5b9250929050565b5f806020838503121561036d5761036c6102ee565b5b5f83013567ffffffffffffffff81111561038a576103896102f2565b5b61039685828601610302565b92509250509250929050565b5f819050919050565b6103b4816103a2565b81146103be575f80fd5b50565b5f813590506103cf816103ab565b92915050565b5f602082840312156103ea576103e96102ee565b5b5f6103f7848285016103c1565b91505092915050565b5f81519050919050565b5f82825260208201905092915050565b8281835e5f83830152505050565b5f601f19601f8301169050919050565b5f61044282610400565b61044c818561040a565b935061045c81856020860161041a565b61046581610428565b840191505092915050565b5f8115159050919050565b61048481610470565b82525050565b5f6040820190508181035f8301526104a28185610438565b90506104b1602083018461047b565b9392505050565b5f805f604084860312156104cf576104ce6102ee565b5b5f6104dc868287016103c1565b935050602084013567ffffffffffffffff8111156104fd576104fc6102f2565b5b61050986828701610302565b92509250509250925092565b7f4e487b71000000000000000000000000000000000000000000000000000000005f52604160045260245ffd5b7f4e487b71000000000000000000000000000000000000000000000000000000005f52602260045260245ffd5b5f600282049050600182168061058657607f821691505b60208210810361059957610598610542565b5b50919050565b5f819050815f5260205f209050919050565b5f6020601f8301049050919050565b5f82821b905092915050565b5f600883026105fb7fffffffffffffffffffffffffffffffffffffffffffffffffffffffffffffffff826105c0565b61060586836105c0565b95508019841693508086168417925050509392505050565b5f819050919050565b5f61064061063b610636846103a2565b61061d565b6103a2565b9050919050565b5f819050919050565b61065983610626565b61066d61066582610647565b8484546105cc565b825550505050565b5f90565b610681610675565b61068c818484610650565b505050565b5b818110156106af576106a45f82610679565b600181019050610692565b5050565b601f8211156106f4576106c58161059f565b6106ce846105b1565b810160208510156106dd578190505b6106f16106e9856105b1565b830182610691565b50505b505050565b5f82821c905092915050565b5f6107145f19846008026106f9565b1980831691505092915050565b5f61072c8383610705565b9150826002028217905092915050565b61074582610400565b67ffffffffffffffff81111561075e5761075d610515565b5b610768825461056f565b6107738282856106b3565b5f60209050601f8311600181146107a4575f8415610792578287015190505b61079c8582610721565b865550610803565b601f1984166107b28661059f565b5f5b828110156107d9578489015182556001820191506020850194506020810190506107b4565b868310156107f657848901516107f2601f891682610705565b8355505b6001600288020188555050505b505050505050565b7f4e487b71000000000000000000000000000000000000000000000000000000005f52603260045260245ffd5b5f82905092915050565b61084c8383610838565b67ffffffffffffffff81111561086557610864610515565b5b61086f825461056f565b61087a8282856106b3565b5f601f8311600181146108a7575f8415610895578287013590505b61089f8582610721565b865550610906565b601f1984166108b58661059f565b5f5b828110156108dc578489013582556001820191506020850194506020810190506108b7565b868310156108f957848901356108f5601f891682610705565b8355505b6001600288020188555050505b5050505050505056fea264697066735822122049301d24b36f067f5a023925d264eb65ece181ad8adbfdde2bffa91cce1e5ca664736f6c634300081a0033",
					"opcodes": "PUSH1 0x80 PUSH1 0x40 MSTORE CALLVALUE DUP1 ISZERO PUSH1 0xE JUMPI PUSH0 DUP1 REVERT JUMPDEST POP PUSH2 0x945 DUP1 PUSH2 0x1C PUSH0 CODECOPY PUSH0 RETURN INVALID PUSH1 0x80 PUSH1 0x40 MSTORE CALLVALUE DUP1 ISZERO PUSH2 0xF JUMPI PUSH0 DUP1 REVERT JUMPDEST POP PUSH1 0x4 CALLDATASIZE LT PUSH2 0x4A JUMPI PUSH0 CALLDATALOAD PUSH1 0xE0 SHR DUP1 PUSH4 0xB1498E29 EQ PUSH2 0x4E JUMPI DUP1 PUSH4 0xBC8BC2B4 EQ PUSH2 0x6A JUMPI DUP1 PUSH4 0xC0CCA5EF EQ PUSH2 0x9B JUMPI DUP1 PUSH4 0xF745630F EQ PUSH2 0xB7 JUMPI JUMPDEST PUSH0 DUP1 REVERT JUMPDEST PUSH2 0x68 PUSH1 0x4 DUP1 CALLDATASIZE SUB DUP2 ADD SWAP1 PUSH2 0x63 SWAP2 SWAP1 PUSH2 0x357 JUMP JUMPDEST PUSH2 0xD3 JUMP JUMPDEST STOP JUMPDEST PUSH2 0x84 PUSH1 0x4 DUP1 CALLDATASIZE SUB DUP2 ADD SWAP1 PUSH2 0x7F SWAP2 SWAP1 PUSH2 0x3D5 JUMP JUMPDEST PUSH2 0x18D JUMP JUMPDEST PUSH1 0x40 MLOAD PUSH2 0x92 SWAP3 SWAP2 SWAP1 PUSH2 0x48A JUMP JUMPDEST PUSH1 0x40 MLOAD DUP1 SWAP2 SUB SWAP1 RETURN JUMPDEST PUSH2 0xB5 PUSH1 0x4 DUP1 CALLDATASIZE SUB DUP2 ADD SWAP1 PUSH2 0xB0 SWAP2 SWAP1 PUSH2 0x3D5 JUMP JUMPDEST PUSH2 0x24D JUMP JUMPDEST STOP JUMPDEST PUSH2 0xD1 PUSH1 0x4 DUP1 CALLDATASIZE SUB DUP2 ADD SWAP1 PUSH2 0xCC SWAP2 SWAP1 PUSH2 0x4B8 JUMP JUMPDEST PUSH2 0x2B8 JUMP JUMPDEST STOP JUMPDEST PUSH0 PUSH1 0x40 MLOAD DUP1 PUSH1 0x40 ADD PUSH1 0x40 MSTORE DUP1 DUP5 DUP5 DUP1 DUP1 PUSH1 0x1F ADD PUSH1 0x20 DUP1 SWAP2 DIV MUL PUSH1 0x20 ADD PUSH1 0x40 MLOAD SWAP1 DUP2 ADD PUSH1 0x40 MSTORE DUP1 SWAP4 SWAP3 SWAP2 SWAP1 DUP2 DUP2 MSTORE PUSH1 0x20 ADD DUP4 DUP4 DUP1 DUP3 DUP5 CALLDATACOPY PUSH0 DUP2 DUP5 ADD MSTORE PUSH1 0x1F NOT PUSH1 0x1F DUP3 ADD AND SWAP1 POP DUP1 DUP4 ADD SWAP3 POP POP POP POP POP POP POP DUP2 MSTORE PUSH1 0x20 ADD PUSH0 ISZERO ISZERO DUP2 MSTORE POP SWAP1 DUP1 PUSH1 0x1 DUP2 SLOAD ADD DUP1 DUP3 SSTORE DUP1 SWAP2 POP POP PUSH1 0x1 SWAP1 SUB SWAP1 PUSH0 MSTORE PUSH1 0x20 PUSH0 KECCAK256 SWAP1 PUSH1 0x2 MUL ADD PUSH0 SWAP1 SWAP2 SWAP1 SWAP2 SWAP1 SWAP2 POP PUSH0 DUP3 ADD MLOAD DUP2 PUSH0 ADD SWAP1 DUP2 PUSH2 0x167 SWAP2 SWAP1 PUSH2 0x73C JUMP JUMPDEST POP PUSH1 0x20 DUP3 ADD MLOAD DUP2 PUSH1 0x1 ADD PUSH0 PUSH2 0x100 EXP DUP2 SLOAD DUP2 PUSH1 0xFF MUL NOT AND SWAP1 DUP4 ISZERO ISZERO MUL OR SWAP1 SSTORE POP POP POP POP POP JUMP JUMPDEST PUSH0 DUP2 DUP2 SLOAD DUP2 LT PUSH2 0x19B JUMPI PUSH0 DUP1 REVERT JUMPDEST SWAP1 PUSH0 MSTORE PUSH1 0x20 PUSH0 KECCAK256 SWAP1 PUSH1 0x2 MUL ADD PUSH0 SWAP2 POP SWAP1 POP DUP1 PUSH0 ADD DUP1 SLOAD PUSH2 0x1BA SWAP1 PUSH2 0x56F JUMP JUMPDEST DUP1 PUSH1 0x1F ADD PUSH1 0x20 DUP1 SWAP2 DIV MUL PUSH1 0x20 ADD PUSH1 0x40 MLOAD SWAP1 DUP2 ADD PUSH1 0x40 MSTORE DUP1 SWAP3 SWAP2 SWAP1 DUP2 DUP2 MSTORE PUSH1 0x20 ADD DUP3 DUP1 SLOAD PUSH2 0x1E6 SWAP1 PUSH2 0x56F JUMP JUMPDEST DUP1 ISZERO PUSH2 0x231 JUMPI DUP1 PUSH1 0x1F LT PUSH2 0x208 JUMPI PUSH2 0x100 DUP1 DUP4 SLOAD DIV MUL DUP4 MSTORE SWAP2 PUSH1 0x20 ADD SWAP2 PUSH2 0x231 JUMP JUMPDEST DUP3 ADD SWAP2 SWAP1 PUSH0 MSTORE PUSH1 0x20 PUSH0 KECCAK256 SWAP1 JUMPDEST DUP2 SLOAD DUP2 MSTORE SWAP1 PUSH1 0x1 ADD SWAP1 PUSH1 0x20 ADD DUP1 DUP4 GT PUSH2 0x214 JUMPI DUP3 SWAP1 SUB PUSH1 0x1F AND DUP3 ADD SWAP2 JUMPDEST POP POP POP POP POP SWAP1 DUP1 PUSH1 0x1 ADD PUSH0 SWAP1 SLOAD SWAP1 PUSH2 0x100 EXP SWAP1 DIV PUSH1 0xFF AND SWAP1 POP DUP3 JUMP JUMPDEST PUSH0 DUP2 DUP2 SLOAD DUP2 LT PUSH2 0x260 JUMPI PUSH2 0x25F PUSH2 0x80B JUMP JUMPDEST JUMPDEST SWAP1 PUSH0 MSTORE PUSH1 0x20 PUSH0 KECCAK256 SWAP1 PUSH1 0x2 MUL ADD PUSH1 0x1 ADD PUSH0 SWAP1 SLOAD SWAP1 PUSH2 0x100 EXP SWAP1 DIV PUSH1 0xFF AND ISZERO PUSH0 DUP3 DUP2 SLOAD DUP2 LT PUSH2 0x290 JUMPI PUSH2 0x28F PUSH2 0x80B JUMP JUMPDEST JUMPDEST SWAP1 PUSH0 MSTORE PUSH1 0x20 PUSH0 KECCAK256 SWAP1 PUSH1 0x2 MUL ADD PUSH1 0x1 ADD PUSH0 PUSH2 0x100 EXP DUP2 SLOAD DUP2 PUSH1 0xFF MUL NOT AND SWAP1 DUP4 ISZERO ISZERO MUL OR SWAP1 SSTORE POP POP JUMP JUMPDEST DUP2 DUP2 PUSH0 DUP6 DUP2 SLOAD DUP2 LT PUSH2 0x2CD JUMPI PUSH2 0x2CC PUSH2 0x80B JUMP JUMPDEST JUMPDEST SWAP1 PUSH0 MSTORE PUSH1 0x20 PUSH0 KECCAK256 SWAP1 PUSH1 0x2 MUL ADD PUSH0 ADD SWAP2 DUP3 PUSH2 0x2E8 SWAP3 SWAP2 SWAP1 PUSH2 0x842 JUMP JUMPDEST POP POP POP POP JUMP JUMPDEST PUSH0 DUP1 REVERT JUMPDEST PUSH0 DUP1 REVERT JUMPDEST PUSH0 DUP1 REVERT JUMPDEST PUSH0 DUP1 REVERT JUMPDEST PUSH0 DUP1 REVERT JUMPDEST PUSH0 DUP1 DUP4 PUSH1 0x1F DUP5 ADD SLT PUSH2 0x317 JUMPI PUSH2 0x316 PUSH2 0x2F6 JUMP JUMPDEST JUMPDEST DUP3 CALLDATALOAD SWAP1 POP PUSH8 0xFFFFFFFFFFFFFFFF DUP2 GT ISZERO PUSH2 0x334 JUMPI PUSH2 0x333 PUSH2 0x2FA JUMP JUMPDEST JUMPDEST PUSH1 0x20 DUP4 ADD SWAP2 POP DUP4 PUSH1 0x1 DUP3 MUL DUP4 ADD GT ISZERO PUSH2 0x350 JUMPI PUSH2 0x34F PUSH2 0x2FE JUMP JUMPDEST JUMPDEST SWAP3 POP SWAP3 SWAP1 POP JUMP JUMPDEST PUSH0 DUP1 PUSH1 0x20 DUP4 DUP6 SUB SLT ISZERO PUSH2 0x36D JUMPI PUSH2 0x36C PUSH2 0x2EE JUMP JUMPDEST JUMPDEST PUSH0 DUP4 ADD CALLDATALOAD PUSH8 0xFFFFFFFFFFFFFFFF DUP2 GT ISZERO PUSH2 0x38A JUMPI PUSH2 0x389 PUSH2 0x2F2 JUMP JUMPDEST JUMPDEST PUSH2 0x396 DUP6 DUP3 DUP7 ADD PUSH2 0x302 JUMP JUMPDEST SWAP3 POP SWAP3 POP POP SWAP3 POP SWAP3 SWAP1 POP JUMP JUMPDEST PUSH0 DUP2 SWAP1 POP SWAP2 SWAP1 POP JUMP JUMPDEST PUSH2 0x3B4 DUP2 PUSH2 0x3A2 JUMP JUMPDEST DUP2 EQ PUSH2 0x3BE JUMPI PUSH0 DUP1 REVERT JUMPDEST POP JUMP JUMPDEST PUSH0 DUP2 CALLDATALOAD SWAP1 POP PUSH2 0x3CF DUP2 PUSH2 0x3AB JUMP JUMPDEST SWAP3 SWAP2 POP POP JUMP JUMPDEST PUSH0 PUSH1 0x20 DUP3 DUP5 SUB SLT ISZERO PUSH2 0x3EA JUMPI PUSH2 0x3E9 PUSH2 0x2EE JUMP JUMPDEST JUMPDEST PUSH0 PUSH2 0x3F7 DUP5 DUP3 DUP6 ADD PUSH2 0x3C1 JUMP JUMPDEST SWAP2 POP POP SWAP3 SWAP2 POP POP JUMP JUMPDEST PUSH0 DUP2 MLOAD SWAP1 POP SWAP2 SWAP1 POP JUMP JUMPDEST PUSH0 DUP3 DUP3 MSTORE PUSH1 0x20 DUP3 ADD SWAP1 POP SWAP3 SWAP2 POP POP JUMP JUMPDEST DUP3 DUP2 DUP4 MCOPY PUSH0 DUP4 DUP4 ADD MSTORE POP POP POP JUMP JUMPDEST PUSH0 PUSH1 0x1F NOT PUSH1 0x1F DUP4 ADD AND SWAP1 POP SWAP2 SWAP1 POP JUMP JUMPDEST PUSH0 PUSH2 0x442 DUP3 PUSH2 0x400 JUMP JUMPDEST PUSH2 0x44C DUP2 DUP6 PUSH2 0x40A JUMP JUMPDEST SWAP4 POP PUSH2 0x45C DUP2 DUP6 PUSH1 0x20 DUP7 ADD PUSH2 0x41A JUMP JUMPDEST PUSH2 0x465 DUP2 PUSH2 0x428 JUMP JUMPDEST DUP5 ADD SWAP2 POP POP SWAP3 SWAP2 POP POP JUMP JUMPDEST PUSH0 DUP2 ISZERO ISZERO SWAP1 POP SWAP2 SWAP1 POP JUMP JUMPDEST PUSH2 0x484 DUP2 PUSH2 0x470 JUMP JUMPDEST DUP3 MSTORE POP POP JUMP JUMPDEST PUSH0 PUSH1 0x40 DUP3 ADD SWAP1 POP DUP2 DUP2 SUB PUSH0 DUP4 ADD MSTORE PUSH2 0x4A2 DUP2 DUP6 PUSH2 0x438 JUMP JUMPDEST SWAP1 POP PUSH2 0x4B1 PUSH1 0x20 DUP4 ADD DUP5 PUSH2 0x47B JUMP JUMPDEST SWAP4 SWAP3 POP POP POP JUMP JUMPDEST PUSH0 DUP1 PUSH0 PUSH1 0x40 DUP5 DUP7 SUB SLT ISZERO PUSH2 0x4CF JUMPI PUSH2 0x4CE PUSH2 0x2EE JUMP JUMPDEST JUMPDEST PUSH0 PUSH2 0x4DC DUP7 DUP3 DUP8 ADD PUSH2 0x3C1 JUMP JUMPDEST SWAP4 POP POP PUSH1 0x20 DUP5 ADD CALLDATALOAD PUSH8 0xFFFFFFFFFFFFFFFF DUP2 GT ISZERO PUSH2 0x4FD JUMPI PUSH2 0x4FC PUSH2 0x2F2 JUMP JUMPDEST JUMPDEST PUSH2 0x509 DUP7 DUP3 DUP8 ADD PUSH2 0x302 JUMP JUMPDEST SWAP3 POP SWAP3 POP POP SWAP3 POP SWAP3 POP SWAP3 JUMP JUMPDEST PUSH32 0x4E487B7100000000000000000000000000000000000000000000000000000000 PUSH0 MSTORE PUSH1 0x41 PUSH1 0x4 MSTORE PUSH1 0x24 PUSH0 REVERT JUMPDEST PUSH32 0x4E487B7100000000000000000000000000000000000000000000000000000000 PUSH0 MSTORE PUSH1 0x22 PUSH1 0x4 MSTORE PUSH1 0x24 PUSH0 REVERT JUMPDEST PUSH0 PUSH1 0x2 DUP3 DIV SWAP1 POP PUSH1 0x1 DUP3 AND DUP1 PUSH2 0x586 JUMPI PUSH1 0x7F DUP3 AND SWAP2 POP JUMPDEST PUSH1 0x20 DUP3 LT DUP2 SUB PUSH2 0x599 JUMPI PUSH2 0x598 PUSH2 0x542 JUMP JUMPDEST JUMPDEST POP SWAP2 SWAP1 POP JUMP JUMPDEST PUSH0 DUP2 SWAP1 POP DUP2 PUSH0 MSTORE PUSH1 0x20 PUSH0 KECCAK256 SWAP1 POP SWAP2 SWAP1 POP JUMP JUMPDEST PUSH0 PUSH1 0x20 PUSH1 0x1F DUP4 ADD DIV SWAP1 POP SWAP2 SWAP1 POP JUMP JUMPDEST PUSH0 DUP3 DUP3 SHL SWAP1 POP SWAP3 SWAP2 POP POP JUMP JUMPDEST PUSH0 PUSH1 0x8 DUP4 MUL PUSH2 0x5FB PUSH32 0xFFFFFFFFFFFFFFFFFFFFFFFFFFFFFFFFFFFFFFFFFFFFFFFFFFFFFFFFFFFFFFFF DUP3 PUSH2 0x5C0 JUMP JUMPDEST PUSH2 0x605 DUP7 DUP4 PUSH2 0x5C0 JUMP JUMPDEST SWAP6 POP DUP1 NOT DUP5 AND SWAP4 POP DUP1 DUP7 AND DUP5 OR SWAP3 POP POP POP SWAP4 SWAP3 POP POP POP JUMP JUMPDEST PUSH0 DUP2 SWAP1 POP SWAP2 SWAP1 POP JUMP JUMPDEST PUSH0 PUSH2 0x640 PUSH2 0x63B PUSH2 0x636 DUP5 PUSH2 0x3A2 JUMP JUMPDEST PUSH2 0x61D JUMP JUMPDEST PUSH2 0x3A2 JUMP JUMPDEST SWAP1 POP SWAP2 SWAP1 POP JUMP JUMPDEST PUSH0 DUP2 SWAP1 POP SWAP2 SWAP1 POP JUMP JUMPDEST PUSH2 0x659 DUP4 PUSH2 0x626 JUMP JUMPDEST PUSH2 0x66D PUSH2 0x665 DUP3 PUSH2 0x647 JUMP JUMPDEST DUP5 DUP5 SLOAD PUSH2 0x5CC JUMP JUMPDEST DUP3 SSTORE POP POP POP POP JUMP JUMPDEST PUSH0 SWAP1 JUMP JUMPDEST PUSH2 0x681 PUSH2 0x675 JUMP JUMPDEST PUSH2 0x68C DUP2 DUP5 DUP5 PUSH2 0x650 JUMP JUMPDEST POP POP POP JUMP JUMPDEST JUMPDEST DUP2 DUP2 LT ISZERO PUSH2 0x6AF JUMPI PUSH2 0x6A4 PUSH0 DUP3 PUSH2 0x679 JUMP JUMPDEST PUSH1 0x1 DUP2 ADD SWAP1 POP PUSH2 0x692 JUMP JUMPDEST POP POP JUMP JUMPDEST PUSH1 0x1F DUP3 GT ISZERO PUSH2 0x6F4 JUMPI PUSH2 0x6C5 DUP2 PUSH2 0x59F JUMP JUMPDEST PUSH2 0x6CE DUP5 PUSH2 0x5B1 JUMP JUMPDEST DUP2 ADD PUSH1 0x20 DUP6 LT ISZERO PUSH2 0x6DD JUMPI DUP2 SWAP1 POP JUMPDEST PUSH2 0x6F1 PUSH2 0x6E9 DUP6 PUSH2 0x5B1 JUMP JUMPDEST DUP4 ADD DUP3 PUSH2 0x691 JUMP JUMPDEST POP POP JUMPDEST POP POP POP JUMP JUMPDEST PUSH0 DUP3 DUP3 SHR SWAP1 POP SWAP3 SWAP2 POP POP JUMP JUMPDEST PUSH0 PUSH2 0x714 PUSH0 NOT DUP5 PUSH1 0x8 MUL PUSH2 0x6F9 JUMP JUMPDEST NOT DUP1 DUP4 AND SWAP2 POP POP SWAP3 SWAP2 POP POP JUMP JUMPDEST PUSH0 PUSH2 0x72C DUP4 DUP4 PUSH2 0x705 JUMP JUMPDEST SWAP2 POP DUP3 PUSH1 0x2 MUL DUP3 OR SWAP1 POP SWAP3 SWAP2 POP POP JUMP JUMPDEST PUSH2 0x745 DUP3 PUSH2 0x400 JUMP JUMPDEST PUSH8 0xFFFFFFFFFFFFFFFF DUP2 GT ISZERO PUSH2 0x75E JUMPI PUSH2 0x75D PUSH2 0x515 JUMP JUMPDEST JUMPDEST PUSH2 0x768 DUP3 SLOAD PUSH2 0x56F JUMP JUMPDEST PUSH2 0x773 DUP3 DUP3 DUP6 PUSH2 0x6B3 JUMP JUMPDEST PUSH0 PUSH1 0x20 SWAP1 POP PUSH1 0x1F DUP4 GT PUSH1 0x1 DUP2 EQ PUSH2 0x7A4 JUMPI PUSH0 DUP5 ISZERO PUSH2 0x792 JUMPI DUP3 DUP8 ADD MLOAD SWAP1 POP JUMPDEST PUSH2 0x79C DUP6 DUP3 PUSH2 0x721 JUMP JUMPDEST DUP7 SSTORE POP PUSH2 0x803 JUMP JUMPDEST PUSH1 0x1F NOT DUP5 AND PUSH2 0x7B2 DUP7 PUSH2 0x59F JUMP JUMPDEST PUSH0 JUMPDEST DUP3 DUP2 LT ISZERO PUSH2 0x7D9 JUMPI DUP5 DUP10 ADD MLOAD DUP3 SSTORE PUSH1 0x1 DUP3 ADD SWAP2 POP PUSH1 0x20 DUP6 ADD SWAP5 POP PUSH1 0x20 DUP2 ADD SWAP1 POP PUSH2 0x7B4 JUMP JUMPDEST DUP7 DUP4 LT ISZERO PUSH2 0x7F6 JUMPI DUP5 DUP10 ADD MLOAD PUSH2 0x7F2 PUSH1 0x1F DUP10 AND DUP3 PUSH2 0x705 JUMP JUMPDEST DUP4 SSTORE POP JUMPDEST PUSH1 0x1 PUSH1 0x2 DUP9 MUL ADD DUP9 SSTORE POP POP POP JUMPDEST POP POP POP POP POP POP JUMP JUMPDEST PUSH32 0x4E487B7100000000000000000000000000000000000000000000000000000000 PUSH0 MSTORE PUSH1 0x32 PUSH1 0x4 MSTORE PUSH1 0x24 PUSH0 REVERT JUMPDEST PUSH0 DUP3 SWAP1 POP SWAP3 SWAP2 POP POP JUMP JUMPDEST PUSH2 0x84C DUP4 DUP4 PUSH2 0x838 JUMP JUMPDEST PUSH8 0xFFFFFFFFFFFFFFFF DUP2 GT ISZERO PUSH2 0x865 JUMPI PUSH2 0x864 PUSH2 0x515 JUMP JUMPDEST JUMPDEST PUSH2 0x86F DUP3 SLOAD PUSH2 0x56F JUMP JUMPDEST PUSH2 0x87A DUP3 DUP3 DUP6 PUSH2 0x6B3 JUMP JUMPDEST PUSH0 PUSH1 0x1F DUP4 GT PUSH1 0x1 DUP2 EQ PUSH2 0x8A7 JUMPI PUSH0 DUP5 ISZERO PUSH2 0x895 JUMPI DUP3 DUP8 ADD CALLDATALOAD SWAP1 POP JUMPDEST PUSH2 0x89F DUP6 DUP3 PUSH2 0x721 JUMP JUMPDEST DUP7 SSTORE POP PUSH2 0x906 JUMP JUMPDEST PUSH1 0x1F NOT DUP5 AND PUSH2 0x8B5 DUP7 PUSH2 0x59F JUMP JUMPDEST PUSH0 JUMPDEST DUP3 DUP2 LT ISZERO PUSH2 0x8DC JUMPI DUP5 DUP10 ADD CALLDATALOAD DUP3 SSTORE PUSH1 0x1 DUP3 ADD SWAP2 POP PUSH1 0x20 DUP6 ADD SWAP5 POP PUSH1 0x20 DUP2 ADD SWAP1 POP PUSH2 0x8B7 JUMP JUMPDEST DUP7 DUP4 LT ISZERO PUSH2 0x8F9 JUMPI DUP5 DUP10 ADD CALLDATALOAD PUSH2 0x8F5 PUSH1 0x1F DUP10 AND DUP3 PUSH2 0x705 JUMP JUMPDEST DUP4 SSTORE POP JUMPDEST PUSH1 0x1 PUSH1 0x2 DUP9 MUL ADD DUP9 SSTORE POP POP POP JUMPDEST POP POP POP POP POP POP POP JUMP INVALID LOG2 PUSH5 0x6970667358 0x22 SLT KECCAK256 BLOBHASH ADDRESS SAR 0x24 0xB3 PUSH16 0x67F5A023925D264EB65ECE181AD8ADB REVERT 0xDE 0x2B SELFDESTRUCT 0xA9 SHR 0xCE 0x1E TLOAD 0xA6 PUSH5 0x736F6C6343 STOP ADDMOD BYTE STOP CALLER "
				},
				"gasEstimates": {
					"creation": {
						"codeDepositCost": "474600",
						"executionCost": "509",
						"totalCost": "475109"
					},
					"external": {
						"completed(uint256)": "31215",
						"insert(string)": "infinite",
						"todos(uint256)": "infinite",
						"update(uint256,string)": "infinite"
					}
				},
				"methodIdentifiers": {
					"completed(uint256)": "c0cca5ef",
					"insert(string)": "b1498e29",
					"todos(uint256)": "bc8bc2b4",
					"update(uint256,string)": "f745630f"
				}
			},
			"storageLayout": {
				"storage": [
					{
						"astId": 10,
						"contract": "Solidity Basic Projects/ToDoList.sol:TodoList",
						"label": "todos",
						"offset": 0,
						"slot": "0",
						"type": "t_array(t_struct(Todo)6_storage)dyn_storage"
					}
				],
				"types": {
					"t_array(t_struct(Todo)6_storage)dyn_storage": {
						"base": "t_struct(Todo)6_storage",
						"encoding": "dynamic_array",
						"label": "struct TodoList.Todo[]",
						"numberOfBytes": "32"
					},
					"t_bool": {
						"encoding": "inplace",
						"label": "bool",
						"numberOfBytes": "1"
					},
					"t_string_storage": {
						"encoding": "bytes",
						"label": "string",
						"numberOfBytes": "32"
					},
					"t_struct(Todo)6_storage": {
						"encoding": "inplace",
						"label": "struct TodoList.Todo",
						"members": [
							{
								"astId": 3,
								"contract": "Solidity Basic Projects/ToDoList.sol:TodoList",
								"label": "text",
								"offset": 0,
								"slot": "0",
								"type": "t_string_storage"
							},
							{
								"astId": 5,
								"contract": "Solidity Basic Projects/ToDoList.sol:TodoList",
								"label": "completed",
								"offset": 0,
								"slot": "1",
								"type": "t_bool"
							}
						],
						"numberOfBytes": "64"
					}
				}
			},
			"userdoc": {
				"kind": "user",
				"methods": {},
				"version": 1
			}
		}
	}
}