{
	"Solidity Basic Projects/ToDoList.sol": {
		"ToDoList": {
			"abi": [
				{
					"inputs": [
						{
							"internalType": "uint256",
							"name": "index",
							"type": "uint256"
						}
					],
					"name": "completed",
					"outputs": [],
					"stateMutability": "nonpayable",
					"type": "function"
				},
				{
					"inputs": [
						{
							"internalType": "string",
							"name": "_name",
							"type": "string"
						}
					],
					"name": "insert",
					"outputs": [],
					"stateMutability": "nonpayable",
					"type": "function"
				},
				{
					"inputs": [
						{
							"internalType": "uint256",
							"name": "index",
							"type": "uint256"
						}
					],
					"name": "read",
					"outputs": [
						{
							"components": [
								{
									"internalType": "string",
									"name": "name",
									"type": "string"
								},
								{
									"internalType": "bool",
									"name": "completed",
									"type": "bool"
								}
							],
							"internalType": "struct ToDoList.Todo",
							"name": "",
							"type": "tuple"
						}
					],
					"stateMutability": "view",
					"type": "function"
				},
				{
					"inputs": [
						{
							"internalType": "uint256",
							"name": "",
							"type": "uint256"
						}
					],
					"name": "todos",
					"outputs": [
						{
							"internalType": "string",
							"name": "name",
							"type": "string"
						},
						{
							"internalType": "bool",
							"name": "completed",
							"type": "bool"
						}
					],
					"stateMutability": "view",
					"type": "function"
				},
				{
					"inputs": [
						{
							"internalType": "uint256",
							"name": "_index",
							"type": "uint256"
						},
						{
							"internalType": "string",
							"name": "_text",
							"type": "string"
						}
					],
					"name": "update",
					"outputs": [],
					"stateMutability": "nonpayable",
					"type": "function"
				}
			],
			"devdoc": {
				"kind": "dev",
				"methods": {},
				"version": 1
			},
			"evm": {
				"assembly": "    /* \"Solidity Basic Projects/ToDoList.sol\":60:759  contract ToDoList {... */\n  mstore(0x40, 0x80)\n  callvalue\n  dup1\n  iszero\n  tag_1\n  jumpi\n  0x00\n  dup1\n  revert\ntag_1:\n  pop\n  dataSize(sub_0)\n  dup1\n  dataOffset(sub_0)\n  0x00\n  codecopy\n  0x00\n  return\nstop\n\nsub_0: assembly {\n        /* \"Solidity Basic Projects/ToDoList.sol\":60:759  contract ToDoList {... */\n      mstore(0x40, 0x80)\n      callvalue\n      dup1\n      iszero\n      tag_1\n      jumpi\n      0x00\n      dup1\n      revert\n    tag_1:\n      pop\n      jumpi(tag_2, lt(calldatasize, 0x04))\n      shr(0xe0, calldataload(0x00))\n      dup1\n      0xb1498e29\n      eq\n      tag_3\n      jumpi\n      dup1\n      0xbc8bc2b4\n      eq\n      tag_4\n      jumpi\n      dup1\n      0xc0cca5ef\n      eq\n      tag_5\n      jumpi\n      dup1\n      0xed2e5a97\n      eq\n      tag_6\n      jumpi\n      dup1\n      0xf745630f\n      eq\n      tag_7\n      jumpi\n    tag_2:\n      0x00\n      dup1\n      revert\n        /* \"Solidity Basic Projects/ToDoList.sol\":253:369  function insert(string calldata _name) external {... */\n    tag_3:\n      tag_8\n      0x04\n      dup1\n      calldatasize\n      sub\n      dup2\n      add\n      swap1\n      tag_9\n      swap2\n      swap1\n      tag_10\n      jump\t// in\n    tag_9:\n      tag_11\n      jump\t// in\n    tag_8:\n      stop\n        /* \"Solidity Basic Projects/ToDoList.sol\":225:244  Todo[] public todos */\n    tag_4:\n      tag_12\n      0x04\n      dup1\n      calldatasize\n      sub\n      dup2\n      add\n      swap1\n      tag_13\n      swap2\n      swap1\n      tag_14\n      jump\t// in\n    tag_13:\n      tag_15\n      jump\t// in\n    tag_12:\n      mload(0x40)\n      tag_16\n      swap3\n      swap2\n      swap1\n      tag_17\n      jump\t// in\n    tag_16:\n      mload(0x40)\n      dup1\n      swap2\n      sub\n      swap1\n      return\n        /* \"Solidity Basic Projects/ToDoList.sol\":649:756  function completed(uint index) external {... */\n    tag_5:\n      tag_18\n      0x04\n      dup1\n      calldatasize\n      sub\n      dup2\n      add\n      swap1\n      tag_19\n      swap2\n      swap1\n      tag_14\n      jump\t// in\n    tag_19:\n      tag_20\n      jump\t// in\n    tag_18:\n      stop\n        /* \"Solidity Basic Projects/ToDoList.sol\":491:641  function read(uint index) external view returns (Todo memory) { // same function as public identifier with Todo[]... */\n    tag_6:\n      tag_21\n      0x04\n      dup1\n      calldatasize\n      sub\n      dup2\n      add\n      swap1\n      tag_22\n      swap2\n      swap1\n      tag_14\n      jump\t// in\n    tag_22:\n      tag_23\n      jump\t// in\n    tag_21:\n      mload(0x40)\n      tag_24\n      swap2\n      swap1\n      tag_25\n      jump\t// in\n    tag_24:\n      mload(0x40)\n      dup1\n      swap2\n      sub\n      swap1\n      return\n        /* \"Solidity Basic Projects/ToDoList.sol\":377:483  function update(uint _index, string calldata _text) external {... */\n    tag_7:\n      tag_26\n      0x04\n      dup1\n      calldatasize\n      sub\n      dup2\n      add\n      swap1\n      tag_27\n      swap2\n      swap1\n      tag_28\n      jump\t// in\n    tag_27:\n      tag_29\n      jump\t// in\n    tag_26:\n      stop\n        /* \"Solidity Basic Projects/ToDoList.sol\":253:369  function insert(string calldata _name) external {... */\n    tag_11:\n        /* \"Solidity Basic Projects/ToDoList.sol\":312:317  todos */\n      0x00\n        /* \"Solidity Basic Projects/ToDoList.sol\":323:360  Todo({name: _name, completed: false}) */\n      mload(0x40)\n      dup1\n      0x40\n      add\n      0x40\n      mstore\n      dup1\n        /* \"Solidity Basic Projects/ToDoList.sol\":335:340  _name */\n      dup5\n      dup5\n        /* \"Solidity Basic Projects/ToDoList.sol\":323:360  Todo({name: _name, completed: false}) */\n      dup1\n      dup1\n      0x1f\n      add\n      0x20\n      dup1\n      swap2\n      div\n      mul\n      0x20\n      add\n      mload(0x40)\n      swap1\n      dup2\n      add\n      0x40\n      mstore\n      dup1\n      swap4\n      swap3\n      swap2\n      swap1\n      dup2\n      dup2\n      mstore\n      0x20\n      add\n      dup4\n      dup4\n      dup1\n      dup3\n      dup5\n      calldatacopy\n      0x00\n      dup2\n      dup5\n      add\n      mstore\n      not(0x1f)\n      0x1f\n      dup3\n      add\n      and\n      swap1\n      pop\n      dup1\n      dup4\n      add\n      swap3\n      pop\n      pop\n      pop\n      pop\n      pop\n      pop\n      pop\n      dup2\n      mstore\n      0x20\n      add\n        /* \"Solidity Basic Projects/ToDoList.sol\":353:358  false */\n      0x00\n        /* \"Solidity Basic Projects/ToDoList.sol\":323:360  Todo({name: _name, completed: false}) */\n      iszero\n      iszero\n      dup2\n      mstore\n      pop\n        /* \"Solidity Basic Projects/ToDoList.sol\":312:361  todos.push(Todo({name: _name, completed: false})) */\n      swap1\n      dup1\n      0x01\n      dup2\n      sload\n      add\n      dup1\n      dup3\n      sstore\n      dup1\n      swap2\n      pop\n      pop\n      0x01\n      swap1\n      sub\n      swap1\n      0x00\n      mstore\n      keccak256(0x00, 0x20)\n      swap1\n      0x02\n      mul\n      add\n      0x00\n      swap1\n      swap2\n      swap1\n      swap2\n      swap1\n      swap2\n      pop\n      0x00\n      dup3\n      add\n      mload\n      dup2\n      0x00\n      add\n      swap1\n      dup2\n      tag_32\n      swap2\n      swap1\n      tag_33\n      jump\t// in\n    tag_32:\n      pop\n      0x20\n      dup3\n      add\n      mload\n      dup2\n      0x01\n      add\n      exp(0x0100, 0x00)\n      dup2\n      sload\n      dup2\n      0xff\n      mul\n      not\n      and\n      swap1\n      dup4\n      iszero\n      iszero\n      mul\n      or\n      swap1\n      sstore\n      pop\n      pop\n      pop\n        /* \"Solidity Basic Projects/ToDoList.sol\":253:369  function insert(string calldata _name) external {... */\n      pop\n      pop\n      jump\t// out\n        /* \"Solidity Basic Projects/ToDoList.sol\":225:244  Todo[] public todos */\n    tag_15:\n      0x00\n      dup2\n      dup2\n      sload\n      dup2\n      lt\n      tag_34\n      jumpi\n      0x00\n      dup1\n      revert\n    tag_34:\n      swap1\n      0x00\n      mstore\n      keccak256(0x00, 0x20)\n      swap1\n      0x02\n      mul\n      add\n      0x00\n      swap2\n      pop\n      swap1\n      pop\n      dup1\n      0x00\n      add\n      dup1\n      sload\n      tag_36\n      swap1\n      tag_37\n      jump\t// in\n    tag_36:\n      dup1\n      0x1f\n      add\n      0x20\n      dup1\n      swap2\n      div\n      mul\n      0x20\n      add\n      mload(0x40)\n      swap1\n      dup2\n      add\n      0x40\n      mstore\n      dup1\n      swap3\n      swap2\n      swap1\n      dup2\n      dup2\n      mstore\n      0x20\n      add\n      dup3\n      dup1\n      sload\n      tag_38\n      swap1\n      tag_37\n      jump\t// in\n    tag_38:\n      dup1\n      iszero\n      tag_39\n      jumpi\n      dup1\n      0x1f\n      lt\n      tag_40\n      jumpi\n      0x0100\n      dup1\n      dup4\n      sload\n      div\n      mul\n      dup4\n      mstore\n      swap2\n      0x20\n      add\n      swap2\n      jump(tag_39)\n    tag_40:\n      dup3\n      add\n      swap2\n      swap1\n      0x00\n      mstore\n      keccak256(0x00, 0x20)\n      swap1\n    tag_41:\n      dup2\n      sload\n      dup2\n      mstore\n      swap1\n      0x01\n      add\n      swap1\n      0x20\n      add\n      dup1\n      dup4\n      gt\n      tag_41\n      jumpi\n      dup3\n      swap1\n      sub\n      0x1f\n      and\n      dup3\n      add\n      swap2\n    tag_39:\n      pop\n      pop\n      pop\n      pop\n      pop\n      swap1\n      dup1\n      0x01\n      add\n      0x00\n      swap1\n      sload\n      swap1\n      0x0100\n      exp\n      swap1\n      div\n      0xff\n      and\n      swap1\n      pop\n      dup3\n      jump\t// out\n        /* \"Solidity Basic Projects/ToDoList.sol\":649:756  function completed(uint index) external {... */\n    tag_20:\n        /* \"Solidity Basic Projects/ToDoList.sol\":726:731  todos */\n      0x00\n        /* \"Solidity Basic Projects/ToDoList.sol\":732:737  index */\n      dup2\n        /* \"Solidity Basic Projects/ToDoList.sol\":726:738  todos[index] */\n      dup2\n      sload\n      dup2\n      lt\n      tag_43\n      jumpi\n      tag_44\n      tag_45\n      jump\t// in\n    tag_44:\n    tag_43:\n      swap1\n      0x00\n      mstore\n      keccak256(0x00, 0x20)\n      swap1\n      0x02\n      mul\n      add\n        /* \"Solidity Basic Projects/ToDoList.sol\":726:748  todos[index].completed */\n      0x01\n      add\n      0x00\n      swap1\n      sload\n      swap1\n      0x0100\n      exp\n      swap1\n      div\n      0xff\n      and\n        /* \"Solidity Basic Projects/ToDoList.sol\":725:748  !todos[index].completed */\n      iszero\n        /* \"Solidity Basic Projects/ToDoList.sol\":700:705  todos */\n      0x00\n        /* \"Solidity Basic Projects/ToDoList.sol\":706:711  index */\n      dup3\n        /* \"Solidity Basic Projects/ToDoList.sol\":700:712  todos[index] */\n      dup2\n      sload\n      dup2\n      lt\n      tag_47\n      jumpi\n      tag_48\n      tag_45\n      jump\t// in\n    tag_48:\n    tag_47:\n      swap1\n      0x00\n      mstore\n      keccak256(0x00, 0x20)\n      swap1\n      0x02\n      mul\n      add\n        /* \"Solidity Basic Projects/ToDoList.sol\":700:722  todos[index].completed */\n      0x01\n      add\n      0x00\n        /* \"Solidity Basic Projects/ToDoList.sol\":700:748  todos[index].completed = !todos[index].completed */\n      0x0100\n      exp\n      dup2\n      sload\n      dup2\n      0xff\n      mul\n      not\n      and\n      swap1\n      dup4\n      iszero\n      iszero\n      mul\n      or\n      swap1\n      sstore\n      pop\n        /* \"Solidity Basic Projects/ToDoList.sol\":649:756  function completed(uint index) external {... */\n      pop\n      jump\t// out\n        /* \"Solidity Basic Projects/ToDoList.sol\":491:641  function read(uint index) external view returns (Todo memory) { // same function as public identifier with Todo[]... */\n    tag_23:\n        /* \"Solidity Basic Projects/ToDoList.sol\":540:551  Todo memory */\n      tag_50\n      tag_51\n      jump\t// in\n    tag_50:\n        /* \"Solidity Basic Projects/ToDoList.sol\":621:626  todos */\n      0x00\n        /* \"Solidity Basic Projects/ToDoList.sol\":627:632  index */\n      dup3\n        /* \"Solidity Basic Projects/ToDoList.sol\":621:633  todos[index] */\n      dup2\n      sload\n      dup2\n      lt\n      tag_53\n      jumpi\n      tag_54\n      tag_45\n      jump\t// in\n    tag_54:\n    tag_53:\n      swap1\n      0x00\n      mstore\n      keccak256(0x00, 0x20)\n      swap1\n      0x02\n      mul\n      add\n        /* \"Solidity Basic Projects/ToDoList.sol\":614:633  return todos[index] */\n      mload(0x40)\n      dup1\n      0x40\n      add\n      0x40\n      mstore\n      swap1\n      dup2\n      0x00\n      dup3\n      add\n      dup1\n      sload\n      tag_56\n      swap1\n      tag_37\n      jump\t// in\n    tag_56:\n      dup1\n      0x1f\n      add\n      0x20\n      dup1\n      swap2\n      div\n      mul\n      0x20\n      add\n      mload(0x40)\n      swap1\n      dup2\n      add\n      0x40\n      mstore\n      dup1\n      swap3\n      swap2\n      swap1\n      dup2\n      dup2\n      mstore\n      0x20\n      add\n      dup3\n      dup1\n      sload\n      tag_57\n      swap1\n      tag_37\n      jump\t// in\n    tag_57:\n      dup1\n      iszero\n      tag_58\n      jumpi\n      dup1\n      0x1f\n      lt\n      tag_59\n      jumpi\n      0x0100\n      dup1\n      dup4\n      sload\n      div\n      mul\n      dup4\n      mstore\n      swap2\n      0x20\n      add\n      swap2\n      jump(tag_58)\n    tag_59:\n      dup3\n      add\n      swap2\n      swap1\n      0x00\n      mstore\n      keccak256(0x00, 0x20)\n      swap1\n    tag_60:\n      dup2\n      sload\n      dup2\n      mstore\n      swap1\n      0x01\n      add\n      swap1\n      0x20\n      add\n      dup1\n      dup4\n      gt\n      tag_60\n      jumpi\n      dup3\n      swap1\n      sub\n      0x1f\n      and\n      dup3\n      add\n      swap2\n    tag_58:\n      pop\n      pop\n      pop\n      pop\n      pop\n      dup2\n      mstore\n      0x20\n      add\n      0x01\n      dup3\n      add\n      0x00\n      swap1\n      sload\n      swap1\n      0x0100\n      exp\n      swap1\n      div\n      0xff\n      and\n      iszero\n      iszero\n      iszero\n      iszero\n      dup2\n      mstore\n      pop\n      pop\n      swap1\n      pop\n        /* \"Solidity Basic Projects/ToDoList.sol\":491:641  function read(uint index) external view returns (Todo memory) { // same function as public identifier with Todo[]... */\n      swap2\n      swap1\n      pop\n      jump\t// out\n        /* \"Solidity Basic Projects/ToDoList.sol\":377:483  function update(uint _index, string calldata _text) external {... */\n    tag_29:\n        /* \"Solidity Basic Projects/ToDoList.sol\":470:475  _text */\n      dup2\n      dup2\n        /* \"Solidity Basic Projects/ToDoList.sol\":449:454  todos */\n      0x00\n        /* \"Solidity Basic Projects/ToDoList.sol\":455:461  _index */\n      dup6\n        /* \"Solidity Basic Projects/ToDoList.sol\":449:462  todos[_index] */\n      dup2\n      sload\n      dup2\n      lt\n      tag_62\n      jumpi\n      tag_63\n      tag_45\n      jump\t// in\n    tag_63:\n    tag_62:\n      swap1\n      0x00\n      mstore\n      keccak256(0x00, 0x20)\n      swap1\n      0x02\n      mul\n      add\n        /* \"Solidity Basic Projects/ToDoList.sol\":449:467  todos[_index].name */\n      0x00\n      add\n        /* \"Solidity Basic Projects/ToDoList.sol\":449:475  todos[_index].name = _text */\n      swap2\n      dup3\n      tag_65\n      swap3\n      swap2\n      swap1\n      tag_66\n      jump\t// in\n    tag_65:\n      pop\n        /* \"Solidity Basic Projects/ToDoList.sol\":377:483  function update(uint _index, string calldata _text) external {... */\n      pop\n      pop\n      pop\n      jump\t// out\n    tag_51:\n      mload(0x40)\n      dup1\n      0x40\n      add\n      0x40\n      mstore\n      dup1\n      0x60\n      dup2\n      mstore\n      0x20\n      add\n      iszero(iszero(0x00))\n      dup2\n      mstore\n      pop\n      swap1\n      jump\t// out\n        /* \"#utility.yul\":88:205   */\n    tag_68:\n        /* \"#utility.yul\":197:198   */\n      0x00\n        /* \"#utility.yul\":194:195   */\n      dup1\n        /* \"#utility.yul\":187:199   */\n      revert\n        /* \"#utility.yul\":211:328   */\n    tag_69:\n        /* \"#utility.yul\":320:321   */\n      0x00\n        /* \"#utility.yul\":317:318   */\n      dup1\n        /* \"#utility.yul\":310:322   */\n      revert\n        /* \"#utility.yul\":334:451   */\n    tag_70:\n        /* \"#utility.yul\":443:444   */\n      0x00\n        /* \"#utility.yul\":440:441   */\n      dup1\n        /* \"#utility.yul\":433:445   */\n      revert\n        /* \"#utility.yul\":457:574   */\n    tag_71:\n        /* \"#utility.yul\":566:567   */\n      0x00\n        /* \"#utility.yul\":563:564   */\n      dup1\n        /* \"#utility.yul\":556:568   */\n      revert\n        /* \"#utility.yul\":580:697   */\n    tag_72:\n        /* \"#utility.yul\":689:690   */\n      0x00\n        /* \"#utility.yul\":686:687   */\n      dup1\n        /* \"#utility.yul\":679:691   */\n      revert\n        /* \"#utility.yul\":717:1270   */\n    tag_73:\n        /* \"#utility.yul\":775:783   */\n      0x00\n        /* \"#utility.yul\":785:791   */\n      dup1\n        /* \"#utility.yul\":835:838   */\n      dup4\n        /* \"#utility.yul\":828:832   */\n      0x1f\n        /* \"#utility.yul\":820:826   */\n      dup5\n        /* \"#utility.yul\":816:833   */\n      add\n        /* \"#utility.yul\":812:839   */\n      slt\n        /* \"#utility.yul\":802:924   */\n      tag_114\n      jumpi\n        /* \"#utility.yul\":843:922   */\n      tag_115\n      tag_70\n      jump\t// in\n    tag_115:\n        /* \"#utility.yul\":802:924   */\n    tag_114:\n        /* \"#utility.yul\":956:962   */\n      dup3\n        /* \"#utility.yul\":943:963   */\n      calldataload\n        /* \"#utility.yul\":933:963   */\n      swap1\n      pop\n        /* \"#utility.yul\":986:1004   */\n      0xffffffffffffffff\n        /* \"#utility.yul\":978:984   */\n      dup2\n        /* \"#utility.yul\":975:1005   */\n      gt\n        /* \"#utility.yul\":972:1089   */\n      iszero\n      tag_116\n      jumpi\n        /* \"#utility.yul\":1008:1087   */\n      tag_117\n      tag_71\n      jump\t// in\n    tag_117:\n        /* \"#utility.yul\":972:1089   */\n    tag_116:\n        /* \"#utility.yul\":1122:1126   */\n      0x20\n        /* \"#utility.yul\":1114:1120   */\n      dup4\n        /* \"#utility.yul\":1110:1127   */\n      add\n        /* \"#utility.yul\":1098:1127   */\n      swap2\n      pop\n        /* \"#utility.yul\":1176:1179   */\n      dup4\n        /* \"#utility.yul\":1168:1172   */\n      0x01\n        /* \"#utility.yul\":1160:1166   */\n      dup3\n        /* \"#utility.yul\":1156:1173   */\n      mul\n        /* \"#utility.yul\":1146:1154   */\n      dup4\n        /* \"#utility.yul\":1142:1174   */\n      add\n        /* \"#utility.yul\":1139:1180   */\n      gt\n        /* \"#utility.yul\":1136:1264   */\n      iszero\n      tag_118\n      jumpi\n        /* \"#utility.yul\":1183:1262   */\n      tag_119\n      tag_72\n      jump\t// in\n    tag_119:\n        /* \"#utility.yul\":1136:1264   */\n    tag_118:\n        /* \"#utility.yul\":717:1270   */\n      swap3\n      pop\n      swap3\n      swap1\n      pop\n      jump\t// out\n        /* \"#utility.yul\":1276:1805   */\n    tag_10:\n        /* \"#utility.yul\":1347:1353   */\n      0x00\n        /* \"#utility.yul\":1355:1361   */\n      dup1\n        /* \"#utility.yul\":1404:1406   */\n      0x20\n        /* \"#utility.yul\":1392:1401   */\n      dup4\n        /* \"#utility.yul\":1383:1390   */\n      dup6\n        /* \"#utility.yul\":1379:1402   */\n      sub\n        /* \"#utility.yul\":1375:1407   */\n      slt\n        /* \"#utility.yul\":1372:1491   */\n      iszero\n      tag_121\n      jumpi\n        /* \"#utility.yul\":1410:1489   */\n      tag_122\n      tag_68\n      jump\t// in\n    tag_122:\n        /* \"#utility.yul\":1372:1491   */\n    tag_121:\n        /* \"#utility.yul\":1558:1559   */\n      0x00\n        /* \"#utility.yul\":1547:1556   */\n      dup4\n        /* \"#utility.yul\":1543:1560   */\n      add\n        /* \"#utility.yul\":1530:1561   */\n      calldataload\n        /* \"#utility.yul\":1588:1606   */\n      0xffffffffffffffff\n        /* \"#utility.yul\":1580:1586   */\n      dup2\n        /* \"#utility.yul\":1577:1607   */\n      gt\n        /* \"#utility.yul\":1574:1691   */\n      iszero\n      tag_123\n      jumpi\n        /* \"#utility.yul\":1610:1689   */\n      tag_124\n      tag_69\n      jump\t// in\n    tag_124:\n        /* \"#utility.yul\":1574:1691   */\n    tag_123:\n        /* \"#utility.yul\":1723:1788   */\n      tag_125\n        /* \"#utility.yul\":1780:1787   */\n      dup6\n        /* \"#utility.yul\":1771:1777   */\n      dup3\n        /* \"#utility.yul\":1760:1769   */\n      dup7\n        /* \"#utility.yul\":1756:1778   */\n      add\n        /* \"#utility.yul\":1723:1788   */\n      tag_73\n      jump\t// in\n    tag_125:\n        /* \"#utility.yul\":1705:1788   */\n      swap3\n      pop\n      swap3\n      pop\n        /* \"#utility.yul\":1501:1798   */\n      pop\n        /* \"#utility.yul\":1276:1805   */\n      swap3\n      pop\n      swap3\n      swap1\n      pop\n      jump\t// out\n        /* \"#utility.yul\":1811:1888   */\n    tag_74:\n        /* \"#utility.yul\":1848:1855   */\n      0x00\n        /* \"#utility.yul\":1877:1882   */\n      dup2\n        /* \"#utility.yul\":1866:1882   */\n      swap1\n      pop\n        /* \"#utility.yul\":1811:1888   */\n      swap2\n      swap1\n      pop\n      jump\t// out\n        /* \"#utility.yul\":1894:2016   */\n    tag_75:\n        /* \"#utility.yul\":1967:1991   */\n      tag_128\n        /* \"#utility.yul\":1985:1990   */\n      dup2\n        /* \"#utility.yul\":1967:1991   */\n      tag_74\n      jump\t// in\n    tag_128:\n        /* \"#utility.yul\":1960:1965   */\n      dup2\n        /* \"#utility.yul\":1957:1992   */\n      eq\n        /* \"#utility.yul\":1947:2010   */\n      tag_129\n      jumpi\n        /* \"#utility.yul\":2006:2007   */\n      0x00\n        /* \"#utility.yul\":2003:2004   */\n      dup1\n        /* \"#utility.yul\":1996:2008   */\n      revert\n        /* \"#utility.yul\":1947:2010   */\n    tag_129:\n        /* \"#utility.yul\":1894:2016   */\n      pop\n      jump\t// out\n        /* \"#utility.yul\":2022:2161   */\n    tag_76:\n        /* \"#utility.yul\":2068:2073   */\n      0x00\n        /* \"#utility.yul\":2106:2112   */\n      dup2\n        /* \"#utility.yul\":2093:2113   */\n      calldataload\n        /* \"#utility.yul\":2084:2113   */\n      swap1\n      pop\n        /* \"#utility.yul\":2122:2155   */\n      tag_131\n        /* \"#utility.yul\":2149:2154   */\n      dup2\n        /* \"#utility.yul\":2122:2155   */\n      tag_75\n      jump\t// in\n    tag_131:\n        /* \"#utility.yul\":2022:2161   */\n      swap3\n      swap2\n      pop\n      pop\n      jump\t// out\n        /* \"#utility.yul\":2167:2496   */\n    tag_14:\n        /* \"#utility.yul\":2226:2232   */\n      0x00\n        /* \"#utility.yul\":2275:2277   */\n      0x20\n        /* \"#utility.yul\":2263:2272   */\n      dup3\n        /* \"#utility.yul\":2254:2261   */\n      dup5\n        /* \"#utility.yul\":2250:2273   */\n      sub\n        /* \"#utility.yul\":2246:2278   */\n      slt\n        /* \"#utility.yul\":2243:2362   */\n      iszero\n      tag_133\n      jumpi\n        /* \"#utility.yul\":2281:2360   */\n      tag_134\n      tag_68\n      jump\t// in\n    tag_134:\n        /* \"#utility.yul\":2243:2362   */\n    tag_133:\n        /* \"#utility.yul\":2401:2402   */\n      0x00\n        /* \"#utility.yul\":2426:2479   */\n      tag_135\n        /* \"#utility.yul\":2471:2478   */\n      dup5\n        /* \"#utility.yul\":2462:2468   */\n      dup3\n        /* \"#utility.yul\":2451:2460   */\n      dup6\n        /* \"#utility.yul\":2447:2469   */\n      add\n        /* \"#utility.yul\":2426:2479   */\n      tag_76\n      jump\t// in\n    tag_135:\n        /* \"#utility.yul\":2416:2479   */\n      swap2\n      pop\n        /* \"#utility.yul\":2372:2489   */\n      pop\n        /* \"#utility.yul\":2167:2496   */\n      swap3\n      swap2\n      pop\n      pop\n      jump\t// out\n        /* \"#utility.yul\":2502:2601   */\n    tag_77:\n        /* \"#utility.yul\":2554:2560   */\n      0x00\n        /* \"#utility.yul\":2588:2593   */\n      dup2\n        /* \"#utility.yul\":2582:2594   */\n      mload\n        /* \"#utility.yul\":2572:2594   */\n      swap1\n      pop\n        /* \"#utility.yul\":2502:2601   */\n      swap2\n      swap1\n      pop\n      jump\t// out\n        /* \"#utility.yul\":2607:2776   */\n    tag_78:\n        /* \"#utility.yul\":2691:2702   */\n      0x00\n        /* \"#utility.yul\":2725:2731   */\n      dup3\n        /* \"#utility.yul\":2720:2723   */\n      dup3\n        /* \"#utility.yul\":2713:2732   */\n      mstore\n        /* \"#utility.yul\":2765:2769   */\n      0x20\n        /* \"#utility.yul\":2760:2763   */\n      dup3\n        /* \"#utility.yul\":2756:2770   */\n      add\n        /* \"#utility.yul\":2741:2770   */\n      swap1\n      pop\n        /* \"#utility.yul\":2607:2776   */\n      swap3\n      swap2\n      pop\n      pop\n      jump\t// out\n        /* \"#utility.yul\":2782:2921   */\n    tag_79:\n        /* \"#utility.yul\":2871:2877   */\n      dup3\n        /* \"#utility.yul\":2866:2869   */\n      dup2\n        /* \"#utility.yul\":2861:2864   */\n      dup4\n        /* \"#utility.yul\":2855:2878   */\n      mcopy\n        /* \"#utility.yul\":2912:2913   */\n      0x00\n        /* \"#utility.yul\":2903:2909   */\n      dup4\n        /* \"#utility.yul\":2898:2901   */\n      dup4\n        /* \"#utility.yul\":2894:2910   */\n      add\n        /* \"#utility.yul\":2887:2914   */\n      mstore\n        /* \"#utility.yul\":2782:2921   */\n      pop\n      pop\n      pop\n      jump\t// out\n        /* \"#utility.yul\":2927:3029   */\n    tag_80:\n        /* \"#utility.yul\":2968:2974   */\n      0x00\n        /* \"#utility.yul\":3019:3021   */\n      0x1f\n        /* \"#utility.yul\":3015:3022   */\n      not\n        /* \"#utility.yul\":3010:3012   */\n      0x1f\n        /* \"#utility.yul\":3003:3008   */\n      dup4\n        /* \"#utility.yul\":2999:3013   */\n      add\n        /* \"#utility.yul\":2995:3023   */\n      and\n        /* \"#utility.yul\":2985:3023   */\n      swap1\n      pop\n        /* \"#utility.yul\":2927:3029   */\n      swap2\n      swap1\n      pop\n      jump\t// out\n        /* \"#utility.yul\":3035:3412   */\n    tag_81:\n        /* \"#utility.yul\":3123:3126   */\n      0x00\n        /* \"#utility.yul\":3151:3190   */\n      tag_141\n        /* \"#utility.yul\":3184:3189   */\n      dup3\n        /* \"#utility.yul\":3151:3190   */\n      tag_77\n      jump\t// in\n    tag_141:\n        /* \"#utility.yul\":3206:3277   */\n      tag_142\n        /* \"#utility.yul\":3270:3276   */\n      dup2\n        /* \"#utility.yul\":3265:3268   */\n      dup6\n        /* \"#utility.yul\":3206:3277   */\n      tag_78\n      jump\t// in\n    tag_142:\n        /* \"#utility.yul\":3199:3277   */\n      swap4\n      pop\n        /* \"#utility.yul\":3286:3351   */\n      tag_143\n        /* \"#utility.yul\":3344:3350   */\n      dup2\n        /* \"#utility.yul\":3339:3342   */\n      dup6\n        /* \"#utility.yul\":3332:3336   */\n      0x20\n        /* \"#utility.yul\":3325:3330   */\n      dup7\n        /* \"#utility.yul\":3321:3337   */\n      add\n        /* \"#utility.yul\":3286:3351   */\n      tag_79\n      jump\t// in\n    tag_143:\n        /* \"#utility.yul\":3376:3405   */\n      tag_144\n        /* \"#utility.yul\":3398:3404   */\n      dup2\n        /* \"#utility.yul\":3376:3405   */\n      tag_80\n      jump\t// in\n    tag_144:\n        /* \"#utility.yul\":3371:3374   */\n      dup5\n        /* \"#utility.yul\":3367:3406   */\n      add\n        /* \"#utility.yul\":3360:3406   */\n      swap2\n      pop\n        /* \"#utility.yul\":3127:3412   */\n      pop\n        /* \"#utility.yul\":3035:3412   */\n      swap3\n      swap2\n      pop\n      pop\n      jump\t// out\n        /* \"#utility.yul\":3418:3508   */\n    tag_82:\n        /* \"#utility.yul\":3452:3459   */\n      0x00\n        /* \"#utility.yul\":3495:3500   */\n      dup2\n        /* \"#utility.yul\":3488:3501   */\n      iszero\n        /* \"#utility.yul\":3481:3502   */\n      iszero\n        /* \"#utility.yul\":3470:3502   */\n      swap1\n      pop\n        /* \"#utility.yul\":3418:3508   */\n      swap2\n      swap1\n      pop\n      jump\t// out\n        /* \"#utility.yul\":3514:3623   */\n    tag_83:\n        /* \"#utility.yul\":3595:3616   */\n      tag_147\n        /* \"#utility.yul\":3610:3615   */\n      dup2\n        /* \"#utility.yul\":3595:3616   */\n      tag_82\n      jump\t// in\n    tag_147:\n        /* \"#utility.yul\":3590:3593   */\n      dup3\n        /* \"#utility.yul\":3583:3617   */\n      mstore\n        /* \"#utility.yul\":3514:3623   */\n      pop\n      pop\n      jump\t// out\n        /* \"#utility.yul\":3629:4040   */\n    tag_17:\n        /* \"#utility.yul\":3764:3768   */\n      0x00\n        /* \"#utility.yul\":3802:3804   */\n      0x40\n        /* \"#utility.yul\":3791:3800   */\n      dup3\n        /* \"#utility.yul\":3787:3805   */\n      add\n        /* \"#utility.yul\":3779:3805   */\n      swap1\n      pop\n        /* \"#utility.yul\":3851:3860   */\n      dup2\n        /* \"#utility.yul\":3845:3849   */\n      dup2\n        /* \"#utility.yul\":3841:3861   */\n      sub\n        /* \"#utility.yul\":3837:3838   */\n      0x00\n        /* \"#utility.yul\":3826:3835   */\n      dup4\n        /* \"#utility.yul\":3822:3839   */\n      add\n        /* \"#utility.yul\":3815:3862   */\n      mstore\n        /* \"#utility.yul\":3879:3957   */\n      tag_149\n        /* \"#utility.yul\":3952:3956   */\n      dup2\n        /* \"#utility.yul\":3943:3949   */\n      dup6\n        /* \"#utility.yul\":3879:3957   */\n      tag_81\n      jump\t// in\n    tag_149:\n        /* \"#utility.yul\":3871:3957   */\n      swap1\n      pop\n        /* \"#utility.yul\":3967:4033   */\n      tag_150\n        /* \"#utility.yul\":4029:4031   */\n      0x20\n        /* \"#utility.yul\":4018:4027   */\n      dup4\n        /* \"#utility.yul\":4014:4032   */\n      add\n        /* \"#utility.yul\":4005:4011   */\n      dup5\n        /* \"#utility.yul\":3967:4033   */\n      tag_83\n      jump\t// in\n    tag_150:\n        /* \"#utility.yul\":3629:4040   */\n      swap4\n      swap3\n      pop\n      pop\n      pop\n      jump\t// out\n        /* \"#utility.yul\":4046:4205   */\n    tag_84:\n        /* \"#utility.yul\":4120:4131   */\n      0x00\n        /* \"#utility.yul\":4154:4160   */\n      dup3\n        /* \"#utility.yul\":4149:4152   */\n      dup3\n        /* \"#utility.yul\":4142:4161   */\n      mstore\n        /* \"#utility.yul\":4194:4198   */\n      0x20\n        /* \"#utility.yul\":4189:4192   */\n      dup3\n        /* \"#utility.yul\":4185:4199   */\n      add\n        /* \"#utility.yul\":4170:4199   */\n      swap1\n      pop\n        /* \"#utility.yul\":4046:4205   */\n      swap3\n      swap2\n      pop\n      pop\n      jump\t// out\n        /* \"#utility.yul\":4211:4568   */\n    tag_85:\n        /* \"#utility.yul\":4289:4292   */\n      0x00\n        /* \"#utility.yul\":4317:4356   */\n      tag_153\n        /* \"#utility.yul\":4350:4355   */\n      dup3\n        /* \"#utility.yul\":4317:4356   */\n      tag_77\n      jump\t// in\n    tag_153:\n        /* \"#utility.yul\":4372:4433   */\n      tag_154\n        /* \"#utility.yul\":4426:4432   */\n      dup2\n        /* \"#utility.yul\":4421:4424   */\n      dup6\n        /* \"#utility.yul\":4372:4433   */\n      tag_84\n      jump\t// in\n    tag_154:\n        /* \"#utility.yul\":4365:4433   */\n      swap4\n      pop\n        /* \"#utility.yul\":4442:4507   */\n      tag_155\n        /* \"#utility.yul\":4500:4506   */\n      dup2\n        /* \"#utility.yul\":4495:4498   */\n      dup6\n        /* \"#utility.yul\":4488:4492   */\n      0x20\n        /* \"#utility.yul\":4481:4486   */\n      dup7\n        /* \"#utility.yul\":4477:4493   */\n      add\n        /* \"#utility.yul\":4442:4507   */\n      tag_79\n      jump\t// in\n    tag_155:\n        /* \"#utility.yul\":4532:4561   */\n      tag_156\n        /* \"#utility.yul\":4554:4560   */\n      dup2\n        /* \"#utility.yul\":4532:4561   */\n      tag_80\n      jump\t// in\n    tag_156:\n        /* \"#utility.yul\":4527:4530   */\n      dup5\n        /* \"#utility.yul\":4523:4562   */\n      add\n        /* \"#utility.yul\":4516:4562   */\n      swap2\n      pop\n        /* \"#utility.yul\":4293:4568   */\n      pop\n        /* \"#utility.yul\":4211:4568   */\n      swap3\n      swap2\n      pop\n      pop\n      jump\t// out\n        /* \"#utility.yul\":4574:4673   */\n    tag_86:\n        /* \"#utility.yul\":4645:4666   */\n      tag_158\n        /* \"#utility.yul\":4660:4665   */\n      dup2\n        /* \"#utility.yul\":4645:4666   */\n      tag_82\n      jump\t// in\n    tag_158:\n        /* \"#utility.yul\":4640:4643   */\n      dup3\n        /* \"#utility.yul\":4633:4667   */\n      mstore\n        /* \"#utility.yul\":4574:4673   */\n      pop\n      pop\n      jump\t// out\n        /* \"#utility.yul\":4731:5324   */\n    tag_87:\n        /* \"#utility.yul\":4838:4841   */\n      0x00\n        /* \"#utility.yul\":4874:4878   */\n      0x40\n        /* \"#utility.yul\":4869:4872   */\n      dup4\n        /* \"#utility.yul\":4865:4879   */\n      add\n        /* \"#utility.yul\":4961:4965   */\n      0x00\n        /* \"#utility.yul\":4954:4959   */\n      dup4\n        /* \"#utility.yul\":4950:4966   */\n      add\n        /* \"#utility.yul\":4944:4967   */\n      mload\n        /* \"#utility.yul\":5014:5017   */\n      dup5\n        /* \"#utility.yul\":5008:5012   */\n      dup3\n        /* \"#utility.yul\":5004:5018   */\n      sub\n        /* \"#utility.yul\":4997:5001   */\n      0x00\n        /* \"#utility.yul\":4992:4995   */\n      dup7\n        /* \"#utility.yul\":4988:5002   */\n      add\n        /* \"#utility.yul\":4981:5019   */\n      mstore\n        /* \"#utility.yul\":5040:5113   */\n      tag_160\n        /* \"#utility.yul\":5108:5112   */\n      dup3\n        /* \"#utility.yul\":5094:5106   */\n      dup3\n        /* \"#utility.yul\":5040:5113   */\n      tag_85\n      jump\t// in\n    tag_160:\n        /* \"#utility.yul\":5032:5113   */\n      swap2\n      pop\n        /* \"#utility.yul\":4889:5124   */\n      pop\n        /* \"#utility.yul\":5211:5215   */\n      0x20\n        /* \"#utility.yul\":5204:5209   */\n      dup4\n        /* \"#utility.yul\":5200:5216   */\n      add\n        /* \"#utility.yul\":5194:5217   */\n      mload\n        /* \"#utility.yul\":5230:5287   */\n      tag_161\n        /* \"#utility.yul\":5281:5285   */\n      0x20\n        /* \"#utility.yul\":5276:5279   */\n      dup7\n        /* \"#utility.yul\":5272:5286   */\n      add\n        /* \"#utility.yul\":5258:5270   */\n      dup3\n        /* \"#utility.yul\":5230:5287   */\n      tag_86\n      jump\t// in\n    tag_161:\n        /* \"#utility.yul\":5134:5297   */\n      pop\n        /* \"#utility.yul\":5314:5318   */\n      dup1\n        /* \"#utility.yul\":5307:5318   */\n      swap2\n      pop\n        /* \"#utility.yul\":4843:5324   */\n      pop\n        /* \"#utility.yul\":4731:5324   */\n      swap3\n      swap2\n      pop\n      pop\n      jump\t// out\n        /* \"#utility.yul\":5330:5679   */\n    tag_25:\n        /* \"#utility.yul\":5461:5465   */\n      0x00\n        /* \"#utility.yul\":5499:5501   */\n      0x20\n        /* \"#utility.yul\":5488:5497   */\n      dup3\n        /* \"#utility.yul\":5484:5502   */\n      add\n        /* \"#utility.yul\":5476:5502   */\n      swap1\n      pop\n        /* \"#utility.yul\":5548:5557   */\n      dup2\n        /* \"#utility.yul\":5542:5546   */\n      dup2\n        /* \"#utility.yul\":5538:5558   */\n      sub\n        /* \"#utility.yul\":5534:5535   */\n      0x00\n        /* \"#utility.yul\":5523:5532   */\n      dup4\n        /* \"#utility.yul\":5519:5536   */\n      add\n        /* \"#utility.yul\":5512:5559   */\n      mstore\n        /* \"#utility.yul\":5576:5672   */\n      tag_163\n        /* \"#utility.yul\":5667:5671   */\n      dup2\n        /* \"#utility.yul\":5658:5664   */\n      dup5\n        /* \"#utility.yul\":5576:5672   */\n      tag_87\n      jump\t// in\n    tag_163:\n        /* \"#utility.yul\":5568:5672   */\n      swap1\n      pop\n        /* \"#utility.yul\":5330:5679   */\n      swap3\n      swap2\n      pop\n      pop\n      jump\t// out\n        /* \"#utility.yul\":5685:6359   */\n    tag_28:\n        /* \"#utility.yul\":5765:5771   */\n      0x00\n        /* \"#utility.yul\":5773:5779   */\n      dup1\n        /* \"#utility.yul\":5781:5787   */\n      0x00\n        /* \"#utility.yul\":5830:5832   */\n      0x40\n        /* \"#utility.yul\":5818:5827   */\n      dup5\n        /* \"#utility.yul\":5809:5816   */\n      dup7\n        /* \"#utility.yul\":5805:5828   */\n      sub\n        /* \"#utility.yul\":5801:5833   */\n      slt\n        /* \"#utility.yul\":5798:5917   */\n      iszero\n      tag_165\n      jumpi\n        /* \"#utility.yul\":5836:5915   */\n      tag_166\n      tag_68\n      jump\t// in\n    tag_166:\n        /* \"#utility.yul\":5798:5917   */\n    tag_165:\n        /* \"#utility.yul\":5956:5957   */\n      0x00\n        /* \"#utility.yul\":5981:6034   */\n      tag_167\n        /* \"#utility.yul\":6026:6033   */\n      dup7\n        /* \"#utility.yul\":6017:6023   */\n      dup3\n        /* \"#utility.yul\":6006:6015   */\n      dup8\n        /* \"#utility.yul\":6002:6024   */\n      add\n        /* \"#utility.yul\":5981:6034   */\n      tag_76\n      jump\t// in\n    tag_167:\n        /* \"#utility.yul\":5971:6034   */\n      swap4\n      pop\n        /* \"#utility.yul\":5927:6044   */\n      pop\n        /* \"#utility.yul\":6111:6113   */\n      0x20\n        /* \"#utility.yul\":6100:6109   */\n      dup5\n        /* \"#utility.yul\":6096:6114   */\n      add\n        /* \"#utility.yul\":6083:6115   */\n      calldataload\n        /* \"#utility.yul\":6142:6160   */\n      0xffffffffffffffff\n        /* \"#utility.yul\":6134:6140   */\n      dup2\n        /* \"#utility.yul\":6131:6161   */\n      gt\n        /* \"#utility.yul\":6128:6245   */\n      iszero\n      tag_168\n      jumpi\n        /* \"#utility.yul\":6164:6243   */\n      tag_169\n      tag_69\n      jump\t// in\n    tag_169:\n        /* \"#utility.yul\":6128:6245   */\n    tag_168:\n        /* \"#utility.yul\":6277:6342   */\n      tag_170\n        /* \"#utility.yul\":6334:6341   */\n      dup7\n        /* \"#utility.yul\":6325:6331   */\n      dup3\n        /* \"#utility.yul\":6314:6323   */\n      dup8\n        /* \"#utility.yul\":6310:6332   */\n      add\n        /* \"#utility.yul\":6277:6342   */\n      tag_73\n      jump\t// in\n    tag_170:\n        /* \"#utility.yul\":6259:6342   */\n      swap3\n      pop\n      swap3\n      pop\n        /* \"#utility.yul\":6054:6352   */\n      pop\n        /* \"#utility.yul\":5685:6359   */\n      swap3\n      pop\n      swap3\n      pop\n      swap3\n      jump\t// out\n        /* \"#utility.yul\":6365:6545   */\n    tag_88:\n        /* \"#utility.yul\":6413:6490   */\n      0x4e487b7100000000000000000000000000000000000000000000000000000000\n        /* \"#utility.yul\":6410:6411   */\n      0x00\n        /* \"#utility.yul\":6403:6491   */\n      mstore\n        /* \"#utility.yul\":6510:6514   */\n      0x41\n        /* \"#utility.yul\":6507:6508   */\n      0x04\n        /* \"#utility.yul\":6500:6515   */\n      mstore\n        /* \"#utility.yul\":6534:6538   */\n      0x24\n        /* \"#utility.yul\":6531:6532   */\n      0x00\n        /* \"#utility.yul\":6524:6539   */\n      revert\n        /* \"#utility.yul\":6551:6731   */\n    tag_89:\n        /* \"#utility.yul\":6599:6676   */\n      0x4e487b7100000000000000000000000000000000000000000000000000000000\n        /* \"#utility.yul\":6596:6597   */\n      0x00\n        /* \"#utility.yul\":6589:6677   */\n      mstore\n        /* \"#utility.yul\":6696:6700   */\n      0x22\n        /* \"#utility.yul\":6693:6694   */\n      0x04\n        /* \"#utility.yul\":6686:6701   */\n      mstore\n        /* \"#utility.yul\":6720:6724   */\n      0x24\n        /* \"#utility.yul\":6717:6718   */\n      0x00\n        /* \"#utility.yul\":6710:6725   */\n      revert\n        /* \"#utility.yul\":6737:7057   */\n    tag_37:\n        /* \"#utility.yul\":6781:6787   */\n      0x00\n        /* \"#utility.yul\":6818:6819   */\n      0x02\n        /* \"#utility.yul\":6812:6816   */\n      dup3\n        /* \"#utility.yul\":6808:6820   */\n      div\n        /* \"#utility.yul\":6798:6820   */\n      swap1\n      pop\n        /* \"#utility.yul\":6865:6866   */\n      0x01\n        /* \"#utility.yul\":6859:6863   */\n      dup3\n        /* \"#utility.yul\":6855:6867   */\n      and\n        /* \"#utility.yul\":6886:6904   */\n      dup1\n        /* \"#utility.yul\":6876:6957   */\n      tag_174\n      jumpi\n        /* \"#utility.yul\":6942:6946   */\n      0x7f\n        /* \"#utility.yul\":6934:6940   */\n      dup3\n        /* \"#utility.yul\":6930:6947   */\n      and\n        /* \"#utility.yul\":6920:6947   */\n      swap2\n      pop\n        /* \"#utility.yul\":6876:6957   */\n    tag_174:\n        /* \"#utility.yul\":7004:7006   */\n      0x20\n        /* \"#utility.yul\":6996:7002   */\n      dup3\n        /* \"#utility.yul\":6993:7007   */\n      lt\n        /* \"#utility.yul\":6973:6991   */\n      dup2\n        /* \"#utility.yul\":6970:7008   */\n      sub\n        /* \"#utility.yul\":6967:7051   */\n      tag_175\n      jumpi\n        /* \"#utility.yul\":7023:7041   */\n      tag_176\n      tag_89\n      jump\t// in\n    tag_176:\n        /* \"#utility.yul\":6967:7051   */\n    tag_175:\n        /* \"#utility.yul\":6788:7057   */\n      pop\n        /* \"#utility.yul\":6737:7057   */\n      swap2\n      swap1\n      pop\n      jump\t// out\n        /* \"#utility.yul\":7063:7204   */\n    tag_90:\n        /* \"#utility.yul\":7112:7116   */\n      0x00\n        /* \"#utility.yul\":7135:7138   */\n      dup2\n        /* \"#utility.yul\":7127:7138   */\n      swap1\n      pop\n        /* \"#utility.yul\":7158:7161   */\n      dup2\n        /* \"#utility.yul\":7155:7156   */\n      0x00\n        /* \"#utility.yul\":7148:7162   */\n      mstore\n        /* \"#utility.yul\":7192:7196   */\n      0x20\n        /* \"#utility.yul\":7189:7190   */\n      0x00\n        /* \"#utility.yul\":7179:7197   */\n      keccak256\n        /* \"#utility.yul\":7171:7197   */\n      swap1\n      pop\n        /* \"#utility.yul\":7063:7204   */\n      swap2\n      swap1\n      pop\n      jump\t// out\n        /* \"#utility.yul\":7210:7303   */\n    tag_91:\n        /* \"#utility.yul\":7247:7253   */\n      0x00\n        /* \"#utility.yul\":7294:7296   */\n      0x20\n        /* \"#utility.yul\":7289:7291   */\n      0x1f\n        /* \"#utility.yul\":7282:7287   */\n      dup4\n        /* \"#utility.yul\":7278:7292   */\n      add\n        /* \"#utility.yul\":7274:7297   */\n      div\n        /* \"#utility.yul\":7264:7297   */\n      swap1\n      pop\n        /* \"#utility.yul\":7210:7303   */\n      swap2\n      swap1\n      pop\n      jump\t// out\n        /* \"#utility.yul\":7309:7416   */\n    tag_92:\n        /* \"#utility.yul\":7353:7361   */\n      0x00\n        /* \"#utility.yul\":7403:7408   */\n      dup3\n        /* \"#utility.yul\":7397:7401   */\n      dup3\n        /* \"#utility.yul\":7393:7409   */\n      shl\n        /* \"#utility.yul\":7372:7409   */\n      swap1\n      pop\n        /* \"#utility.yul\":7309:7416   */\n      swap3\n      swap2\n      pop\n      pop\n      jump\t// out\n        /* \"#utility.yul\":7422:7815   */\n    tag_93:\n        /* \"#utility.yul\":7491:7497   */\n      0x00\n        /* \"#utility.yul\":7541:7542   */\n      0x08\n        /* \"#utility.yul\":7529:7539   */\n      dup4\n        /* \"#utility.yul\":7525:7543   */\n      mul\n        /* \"#utility.yul\":7564:7661   */\n      tag_181\n        /* \"#utility.yul\":7594:7660   */\n      0xffffffffffffffffffffffffffffffffffffffffffffffffffffffffffffffff\n        /* \"#utility.yul\":7583:7592   */\n      dup3\n        /* \"#utility.yul\":7564:7661   */\n      tag_92\n      jump\t// in\n    tag_181:\n        /* \"#utility.yul\":7682:7721   */\n      tag_182\n        /* \"#utility.yul\":7712:7720   */\n      dup7\n        /* \"#utility.yul\":7701:7710   */\n      dup4\n        /* \"#utility.yul\":7682:7721   */\n      tag_92\n      jump\t// in\n    tag_182:\n        /* \"#utility.yul\":7670:7721   */\n      swap6\n      pop\n        /* \"#utility.yul\":7754:7758   */\n      dup1\n        /* \"#utility.yul\":7750:7759   */\n      not\n        /* \"#utility.yul\":7743:7748   */\n      dup5\n        /* \"#utility.yul\":7739:7760   */\n      and\n        /* \"#utility.yul\":7730:7760   */\n      swap4\n      pop\n        /* \"#utility.yul\":7803:7807   */\n      dup1\n        /* \"#utility.yul\":7793:7801   */\n      dup7\n        /* \"#utility.yul\":7789:7808   */\n      and\n        /* \"#utility.yul\":7782:7787   */\n      dup5\n        /* \"#utility.yul\":7779:7809   */\n      or\n        /* \"#utility.yul\":7769:7809   */\n      swap3\n      pop\n        /* \"#utility.yul\":7498:7815   */\n      pop\n      pop\n        /* \"#utility.yul\":7422:7815   */\n      swap4\n      swap3\n      pop\n      pop\n      pop\n      jump\t// out\n        /* \"#utility.yul\":7821:7881   */\n    tag_94:\n        /* \"#utility.yul\":7849:7852   */\n      0x00\n        /* \"#utility.yul\":7870:7875   */\n      dup2\n        /* \"#utility.yul\":7863:7875   */\n      swap1\n      pop\n        /* \"#utility.yul\":7821:7881   */\n      swap2\n      swap1\n      pop\n      jump\t// out\n        /* \"#utility.yul\":7887:8029   */\n    tag_95:\n        /* \"#utility.yul\":7937:7946   */\n      0x00\n        /* \"#utility.yul\":7970:8023   */\n      tag_185\n        /* \"#utility.yul\":7988:8022   */\n      tag_186\n        /* \"#utility.yul\":7997:8021   */\n      tag_187\n        /* \"#utility.yul\":8015:8020   */\n      dup5\n        /* \"#utility.yul\":7997:8021   */\n      tag_74\n      jump\t// in\n    tag_187:\n        /* \"#utility.yul\":7988:8022   */\n      tag_94\n      jump\t// in\n    tag_186:\n        /* \"#utility.yul\":7970:8023   */\n      tag_74\n      jump\t// in\n    tag_185:\n        /* \"#utility.yul\":7957:8023   */\n      swap1\n      pop\n        /* \"#utility.yul\":7887:8029   */\n      swap2\n      swap1\n      pop\n      jump\t// out\n        /* \"#utility.yul\":8035:8110   */\n    tag_96:\n        /* \"#utility.yul\":8078:8081   */\n      0x00\n        /* \"#utility.yul\":8099:8104   */\n      dup2\n        /* \"#utility.yul\":8092:8104   */\n      swap1\n      pop\n        /* \"#utility.yul\":8035:8110   */\n      swap2\n      swap1\n      pop\n      jump\t// out\n        /* \"#utility.yul\":8116:8385   */\n    tag_97:\n        /* \"#utility.yul\":8226:8265   */\n      tag_190\n        /* \"#utility.yul\":8257:8264   */\n      dup4\n        /* \"#utility.yul\":8226:8265   */\n      tag_95\n      jump\t// in\n    tag_190:\n        /* \"#utility.yul\":8287:8378   */\n      tag_191\n        /* \"#utility.yul\":8336:8377   */\n      tag_192\n        /* \"#utility.yul\":8360:8376   */\n      dup3\n        /* \"#utility.yul\":8336:8377   */\n      tag_96\n      jump\t// in\n    tag_192:\n        /* \"#utility.yul\":8328:8334   */\n      dup5\n        /* \"#utility.yul\":8321:8325   */\n      dup5\n        /* \"#utility.yul\":8315:8326   */\n      sload\n        /* \"#utility.yul\":8287:8378   */\n      tag_93\n      jump\t// in\n    tag_191:\n        /* \"#utility.yul\":8281:8285   */\n      dup3\n        /* \"#utility.yul\":8274:8379   */\n      sstore\n        /* \"#utility.yul\":8192:8385   */\n      pop\n        /* \"#utility.yul\":8116:8385   */\n      pop\n      pop\n      pop\n      jump\t// out\n        /* \"#utility.yul\":8391:8464   */\n    tag_98:\n        /* \"#utility.yul\":8436:8439   */\n      0x00\n        /* \"#utility.yul\":8391:8464   */\n      swap1\n      jump\t// out\n        /* \"#utility.yul\":8470:8659   */\n    tag_99:\n        /* \"#utility.yul\":8547:8579   */\n      tag_195\n      tag_98\n      jump\t// in\n    tag_195:\n        /* \"#utility.yul\":8588:8653   */\n      tag_196\n        /* \"#utility.yul\":8646:8652   */\n      dup2\n        /* \"#utility.yul\":8638:8644   */\n      dup5\n        /* \"#utility.yul\":8632:8636   */\n      dup5\n        /* \"#utility.yul\":8588:8653   */\n      tag_97\n      jump\t// in\n    tag_196:\n        /* \"#utility.yul\":8523:8659   */\n      pop\n        /* \"#utility.yul\":8470:8659   */\n      pop\n      pop\n      jump\t// out\n        /* \"#utility.yul\":8665:8851   */\n    tag_100:\n        /* \"#utility.yul\":8725:8845   */\n    tag_198:\n        /* \"#utility.yul\":8742:8745   */\n      dup2\n        /* \"#utility.yul\":8735:8740   */\n      dup2\n        /* \"#utility.yul\":8732:8746   */\n      lt\n        /* \"#utility.yul\":8725:8845   */\n      iszero\n      tag_200\n      jumpi\n        /* \"#utility.yul\":8796:8835   */\n      tag_201\n        /* \"#utility.yul\":8833:8834   */\n      0x00\n        /* \"#utility.yul\":8826:8831   */\n      dup3\n        /* \"#utility.yul\":8796:8835   */\n      tag_99\n      jump\t// in\n    tag_201:\n        /* \"#utility.yul\":8769:8770   */\n      0x01\n        /* \"#utility.yul\":8762:8767   */\n      dup2\n        /* \"#utility.yul\":8758:8771   */\n      add\n        /* \"#utility.yul\":8749:8771   */\n      swap1\n      pop\n        /* \"#utility.yul\":8725:8845   */\n      jump(tag_198)\n    tag_200:\n        /* \"#utility.yul\":8665:8851   */\n      pop\n      pop\n      jump\t// out\n        /* \"#utility.yul\":8857:9400   */\n    tag_101:\n        /* \"#utility.yul\":8958:8960   */\n      0x1f\n        /* \"#utility.yul\":8953:8956   */\n      dup3\n        /* \"#utility.yul\":8950:8961   */\n      gt\n        /* \"#utility.yul\":8947:9393   */\n      iszero\n      tag_203\n      jumpi\n        /* \"#utility.yul\":8992:9030   */\n      tag_204\n        /* \"#utility.yul\":9024:9029   */\n      dup2\n        /* \"#utility.yul\":8992:9030   */\n      tag_90\n      jump\t// in\n    tag_204:\n        /* \"#utility.yul\":9076:9105   */\n      tag_205\n        /* \"#utility.yul\":9094:9104   */\n      dup5\n        /* \"#utility.yul\":9076:9105   */\n      tag_91\n      jump\t// in\n    tag_205:\n        /* \"#utility.yul\":9066:9074   */\n      dup2\n        /* \"#utility.yul\":9062:9106   */\n      add\n        /* \"#utility.yul\":9259:9261   */\n      0x20\n        /* \"#utility.yul\":9247:9257   */\n      dup6\n        /* \"#utility.yul\":9244:9262   */\n      lt\n        /* \"#utility.yul\":9241:9290   */\n      iszero\n      tag_206\n      jumpi\n        /* \"#utility.yul\":9280:9288   */\n      dup2\n        /* \"#utility.yul\":9265:9288   */\n      swap1\n      pop\n        /* \"#utility.yul\":9241:9290   */\n    tag_206:\n        /* \"#utility.yul\":9303:9383   */\n      tag_207\n        /* \"#utility.yul\":9359:9381   */\n      tag_208\n        /* \"#utility.yul\":9377:9380   */\n      dup6\n        /* \"#utility.yul\":9359:9381   */\n      tag_91\n      jump\t// in\n    tag_208:\n        /* \"#utility.yul\":9349:9357   */\n      dup4\n        /* \"#utility.yul\":9345:9382   */\n      add\n        /* \"#utility.yul\":9332:9343   */\n      dup3\n        /* \"#utility.yul\":9303:9383   */\n      tag_100\n      jump\t// in\n    tag_207:\n        /* \"#utility.yul\":8962:9393   */\n      pop\n      pop\n        /* \"#utility.yul\":8947:9393   */\n    tag_203:\n        /* \"#utility.yul\":8857:9400   */\n      pop\n      pop\n      pop\n      jump\t// out\n        /* \"#utility.yul\":9406:9523   */\n    tag_102:\n        /* \"#utility.yul\":9460:9468   */\n      0x00\n        /* \"#utility.yul\":9510:9515   */\n      dup3\n        /* \"#utility.yul\":9504:9508   */\n      dup3\n        /* \"#utility.yul\":9500:9516   */\n      shr\n        /* \"#utility.yul\":9479:9516   */\n      swap1\n      pop\n        /* \"#utility.yul\":9406:9523   */\n      swap3\n      swap2\n      pop\n      pop\n      jump\t// out\n        /* \"#utility.yul\":9529:9698   */\n    tag_103:\n        /* \"#utility.yul\":9573:9579   */\n      0x00\n        /* \"#utility.yul\":9606:9657   */\n      tag_211\n        /* \"#utility.yul\":9654:9655   */\n      0x00\n        /* \"#utility.yul\":9650:9656   */\n      not\n        /* \"#utility.yul\":9642:9647   */\n      dup5\n        /* \"#utility.yul\":9639:9640   */\n      0x08\n        /* \"#utility.yul\":9635:9648   */\n      mul\n        /* \"#utility.yul\":9606:9657   */\n      tag_102\n      jump\t// in\n    tag_211:\n        /* \"#utility.yul\":9602:9658   */\n      not\n        /* \"#utility.yul\":9687:9691   */\n      dup1\n        /* \"#utility.yul\":9681:9685   */\n      dup4\n        /* \"#utility.yul\":9677:9692   */\n      and\n        /* \"#utility.yul\":9667:9692   */\n      swap2\n      pop\n        /* \"#utility.yul\":9580:9698   */\n      pop\n        /* \"#utility.yul\":9529:9698   */\n      swap3\n      swap2\n      pop\n      pop\n      jump\t// out\n        /* \"#utility.yul\":9703:9998   */\n    tag_104:\n        /* \"#utility.yul\":9779:9783   */\n      0x00\n        /* \"#utility.yul\":9925:9954   */\n      tag_213\n        /* \"#utility.yul\":9950:9953   */\n      dup4\n        /* \"#utility.yul\":9944:9948   */\n      dup4\n        /* \"#utility.yul\":9925:9954   */\n      tag_103\n      jump\t// in\n    tag_213:\n        /* \"#utility.yul\":9917:9954   */\n      swap2\n      pop\n        /* \"#utility.yul\":9987:9990   */\n      dup3\n        /* \"#utility.yul\":9984:9985   */\n      0x02\n        /* \"#utility.yul\":9980:9991   */\n      mul\n        /* \"#utility.yul\":9974:9978   */\n      dup3\n        /* \"#utility.yul\":9971:9992   */\n      or\n        /* \"#utility.yul\":9963:9992   */\n      swap1\n      pop\n        /* \"#utility.yul\":9703:9998   */\n      swap3\n      swap2\n      pop\n      pop\n      jump\t// out\n        /* \"#utility.yul\":10003:11398   */\n    tag_33:\n        /* \"#utility.yul\":10120:10157   */\n      tag_215\n        /* \"#utility.yul\":10153:10156   */\n      dup3\n        /* \"#utility.yul\":10120:10157   */\n      tag_77\n      jump\t// in\n    tag_215:\n        /* \"#utility.yul\":10222:10240   */\n      0xffffffffffffffff\n        /* \"#utility.yul\":10214:10220   */\n      dup2\n        /* \"#utility.yul\":10211:10241   */\n      gt\n        /* \"#utility.yul\":10208:10264   */\n      iszero\n      tag_216\n      jumpi\n        /* \"#utility.yul\":10244:10262   */\n      tag_217\n      tag_88\n      jump\t// in\n    tag_217:\n        /* \"#utility.yul\":10208:10264   */\n    tag_216:\n        /* \"#utility.yul\":10288:10326   */\n      tag_218\n        /* \"#utility.yul\":10320:10324   */\n      dup3\n        /* \"#utility.yul\":10314:10325   */\n      sload\n        /* \"#utility.yul\":10288:10326   */\n      tag_37\n      jump\t// in\n    tag_218:\n        /* \"#utility.yul\":10373:10440   */\n      tag_219\n        /* \"#utility.yul\":10433:10439   */\n      dup3\n        /* \"#utility.yul\":10425:10431   */\n      dup3\n        /* \"#utility.yul\":10419:10423   */\n      dup6\n        /* \"#utility.yul\":10373:10440   */\n      tag_101\n      jump\t// in\n    tag_219:\n        /* \"#utility.yul\":10467:10468   */\n      0x00\n        /* \"#utility.yul\":10491:10495   */\n      0x20\n        /* \"#utility.yul\":10478:10495   */\n      swap1\n      pop\n        /* \"#utility.yul\":10523:10525   */\n      0x1f\n        /* \"#utility.yul\":10515:10521   */\n      dup4\n        /* \"#utility.yul\":10512:10526   */\n      gt\n        /* \"#utility.yul\":10540:10541   */\n      0x01\n        /* \"#utility.yul\":10535:11153   */\n      dup2\n      eq\n      tag_221\n      jumpi\n        /* \"#utility.yul\":11197:11198   */\n      0x00\n        /* \"#utility.yul\":11214:11220   */\n      dup5\n        /* \"#utility.yul\":11211:11288   */\n      iszero\n      tag_222\n      jumpi\n        /* \"#utility.yul\":11263:11272   */\n      dup3\n        /* \"#utility.yul\":11258:11261   */\n      dup8\n        /* \"#utility.yul\":11254:11273   */\n      add\n        /* \"#utility.yul\":11248:11274   */\n      mload\n        /* \"#utility.yul\":11239:11274   */\n      swap1\n      pop\n        /* \"#utility.yul\":11211:11288   */\n    tag_222:\n        /* \"#utility.yul\":11314:11381   */\n      tag_223\n        /* \"#utility.yul\":11374:11380   */\n      dup6\n        /* \"#utility.yul\":11367:11372   */\n      dup3\n        /* \"#utility.yul\":11314:11381   */\n      tag_104\n      jump\t// in\n    tag_223:\n        /* \"#utility.yul\":11308:11312   */\n      dup7\n        /* \"#utility.yul\":11301:11382   */\n      sstore\n        /* \"#utility.yul\":11170:11392   */\n      pop\n        /* \"#utility.yul\":10505:11392   */\n      jump(tag_220)\n        /* \"#utility.yul\":10535:11153   */\n    tag_221:\n        /* \"#utility.yul\":10587:10591   */\n      0x1f\n        /* \"#utility.yul\":10583:10592   */\n      not\n        /* \"#utility.yul\":10575:10581   */\n      dup5\n        /* \"#utility.yul\":10571:10593   */\n      and\n        /* \"#utility.yul\":10621:10658   */\n      tag_224\n        /* \"#utility.yul\":10653:10657   */\n      dup7\n        /* \"#utility.yul\":10621:10658   */\n      tag_90\n      jump\t// in\n    tag_224:\n        /* \"#utility.yul\":10680:10681   */\n      0x00\n        /* \"#utility.yul\":10694:10902   */\n    tag_225:\n        /* \"#utility.yul\":10708:10715   */\n      dup3\n        /* \"#utility.yul\":10705:10706   */\n      dup2\n        /* \"#utility.yul\":10702:10716   */\n      lt\n        /* \"#utility.yul\":10694:10902   */\n      iszero\n      tag_227\n      jumpi\n        /* \"#utility.yul\":10787:10796   */\n      dup5\n        /* \"#utility.yul\":10782:10785   */\n      dup10\n        /* \"#utility.yul\":10778:10797   */\n      add\n        /* \"#utility.yul\":10772:10798   */\n      mload\n        /* \"#utility.yul\":10764:10770   */\n      dup3\n        /* \"#utility.yul\":10757:10799   */\n      sstore\n        /* \"#utility.yul\":10838:10839   */\n      0x01\n        /* \"#utility.yul\":10830:10836   */\n      dup3\n        /* \"#utility.yul\":10826:10840   */\n      add\n        /* \"#utility.yul\":10816:10840   */\n      swap2\n      pop\n        /* \"#utility.yul\":10885:10887   */\n      0x20\n        /* \"#utility.yul\":10874:10883   */\n      dup6\n        /* \"#utility.yul\":10870:10888   */\n      add\n        /* \"#utility.yul\":10857:10888   */\n      swap5\n      pop\n        /* \"#utility.yul\":10731:10735   */\n      0x20\n        /* \"#utility.yul\":10728:10729   */\n      dup2\n        /* \"#utility.yul\":10724:10736   */\n      add\n        /* \"#utility.yul\":10719:10736   */\n      swap1\n      pop\n        /* \"#utility.yul\":10694:10902   */\n      jump(tag_225)\n    tag_227:\n        /* \"#utility.yul\":10930:10936   */\n      dup7\n        /* \"#utility.yul\":10921:10928   */\n      dup4\n        /* \"#utility.yul\":10918:10937   */\n      lt\n        /* \"#utility.yul\":10915:11094   */\n      iszero\n      tag_228\n      jumpi\n        /* \"#utility.yul\":10988:10997   */\n      dup5\n        /* \"#utility.yul\":10983:10986   */\n      dup10\n        /* \"#utility.yul\":10979:10998   */\n      add\n        /* \"#utility.yul\":10973:10999   */\n      mload\n        /* \"#utility.yul\":11031:11079   */\n      tag_229\n        /* \"#utility.yul\":11073:11077   */\n      0x1f\n        /* \"#utility.yul\":11065:11071   */\n      dup10\n        /* \"#utility.yul\":11061:11078   */\n      and\n        /* \"#utility.yul\":11050:11059   */\n      dup3\n        /* \"#utility.yul\":11031:11079   */\n      tag_103\n      jump\t// in\n    tag_229:\n        /* \"#utility.yul\":11023:11029   */\n      dup4\n        /* \"#utility.yul\":11016:11080   */\n      sstore\n        /* \"#utility.yul\":10938:11094   */\n      pop\n        /* \"#utility.yul\":10915:11094   */\n    tag_228:\n        /* \"#utility.yul\":11140:11141   */\n      0x01\n        /* \"#utility.yul\":11136:11137   */\n      0x02\n        /* \"#utility.yul\":11128:11134   */\n      dup9\n        /* \"#utility.yul\":11124:11138   */\n      mul\n        /* \"#utility.yul\":11120:11142   */\n      add\n        /* \"#utility.yul\":11114:11118   */\n      dup9\n        /* \"#utility.yul\":11107:11143   */\n      sstore\n        /* \"#utility.yul\":10542:11153   */\n      pop\n      pop\n      pop\n        /* \"#utility.yul\":10505:11392   */\n    tag_220:\n      pop\n        /* \"#utility.yul\":10095:11398   */\n      pop\n      pop\n      pop\n        /* \"#utility.yul\":10003:11398   */\n      pop\n      pop\n      jump\t// out\n        /* \"#utility.yul\":11404:11584   */\n    tag_45:\n        /* \"#utility.yul\":11452:11529   */\n      0x4e487b7100000000000000000000000000000000000000000000000000000000\n        /* \"#utility.yul\":11449:11450   */\n      0x00\n        /* \"#utility.yul\":11442:11530   */\n      mstore\n        /* \"#utility.yul\":11549:11553   */\n      0x32\n        /* \"#utility.yul\":11546:11547   */\n      0x04\n        /* \"#utility.yul\":11539:11554   */\n      mstore\n        /* \"#utility.yul\":11573:11577   */\n      0x24\n        /* \"#utility.yul\":11570:11571   */\n      0x00\n        /* \"#utility.yul\":11563:11578   */\n      revert\n        /* \"#utility.yul\":11590:11687   */\n    tag_105:\n        /* \"#utility.yul\":11649:11655   */\n      0x00\n        /* \"#utility.yul\":11677:11680   */\n      dup3\n        /* \"#utility.yul\":11667:11680   */\n      swap1\n      pop\n        /* \"#utility.yul\":11590:11687   */\n      swap3\n      swap2\n      pop\n      pop\n      jump\t// out\n        /* \"#utility.yul\":11693:13096   */\n    tag_66:\n        /* \"#utility.yul\":11817:11861   */\n      tag_233\n        /* \"#utility.yul\":11857:11860   */\n      dup4\n        /* \"#utility.yul\":11852:11855   */\n      dup4\n        /* \"#utility.yul\":11817:11861   */\n      tag_105\n      jump\t// in\n    tag_233:\n        /* \"#utility.yul\":11926:11944   */\n      0xffffffffffffffff\n        /* \"#utility.yul\":11918:11924   */\n      dup2\n        /* \"#utility.yul\":11915:11945   */\n      gt\n        /* \"#utility.yul\":11912:11968   */\n      iszero\n      tag_234\n      jumpi\n        /* \"#utility.yul\":11948:11966   */\n      tag_235\n      tag_88\n      jump\t// in\n    tag_235:\n        /* \"#utility.yul\":11912:11968   */\n    tag_234:\n        /* \"#utility.yul\":11992:12030   */\n      tag_236\n        /* \"#utility.yul\":12024:12028   */\n      dup3\n        /* \"#utility.yul\":12018:12029   */\n      sload\n        /* \"#utility.yul\":11992:12030   */\n      tag_37\n      jump\t// in\n    tag_236:\n        /* \"#utility.yul\":12077:12144   */\n      tag_237\n        /* \"#utility.yul\":12137:12143   */\n      dup3\n        /* \"#utility.yul\":12129:12135   */\n      dup3\n        /* \"#utility.yul\":12123:12127   */\n      dup6\n        /* \"#utility.yul\":12077:12144   */\n      tag_101\n      jump\t// in\n    tag_237:\n        /* \"#utility.yul\":12171:12172   */\n      0x00\n        /* \"#utility.yul\":12200:12202   */\n      0x1f\n        /* \"#utility.yul\":12192:12198   */\n      dup4\n        /* \"#utility.yul\":12189:12203   */\n      gt\n        /* \"#utility.yul\":12217:12218   */\n      0x01\n        /* \"#utility.yul\":12212:12844   */\n      dup2\n      eq\n      tag_239\n      jumpi\n        /* \"#utility.yul\":12888:12889   */\n      0x00\n        /* \"#utility.yul\":12905:12911   */\n      dup5\n        /* \"#utility.yul\":12902:12986   */\n      iszero\n      tag_240\n      jumpi\n        /* \"#utility.yul\":12961:12970   */\n      dup3\n        /* \"#utility.yul\":12956:12959   */\n      dup8\n        /* \"#utility.yul\":12952:12971   */\n      add\n        /* \"#utility.yul\":12939:12972   */\n      calldataload\n        /* \"#utility.yul\":12930:12972   */\n      swap1\n      pop\n        /* \"#utility.yul\":12902:12986   */\n    tag_240:\n        /* \"#utility.yul\":13012:13079   */\n      tag_241\n        /* \"#utility.yul\":13072:13078   */\n      dup6\n        /* \"#utility.yul\":13065:13070   */\n      dup3\n        /* \"#utility.yul\":13012:13079   */\n      tag_104\n      jump\t// in\n    tag_241:\n        /* \"#utility.yul\":13006:13010   */\n      dup7\n        /* \"#utility.yul\":12999:13080   */\n      sstore\n        /* \"#utility.yul\":12861:13090   */\n      pop\n        /* \"#utility.yul\":12182:13090   */\n      jump(tag_238)\n        /* \"#utility.yul\":12212:12844   */\n    tag_239:\n        /* \"#utility.yul\":12264:12268   */\n      0x1f\n        /* \"#utility.yul\":12260:12269   */\n      not\n        /* \"#utility.yul\":12252:12258   */\n      dup5\n        /* \"#utility.yul\":12248:12270   */\n      and\n        /* \"#utility.yul\":12298:12335   */\n      tag_242\n        /* \"#utility.yul\":12330:12334   */\n      dup7\n        /* \"#utility.yul\":12298:12335   */\n      tag_90\n      jump\t// in\n    tag_242:\n        /* \"#utility.yul\":12357:12358   */\n      0x00\n        /* \"#utility.yul\":12371:12586   */\n    tag_243:\n        /* \"#utility.yul\":12385:12392   */\n      dup3\n        /* \"#utility.yul\":12382:12383   */\n      dup2\n        /* \"#utility.yul\":12379:12393   */\n      lt\n        /* \"#utility.yul\":12371:12586   */\n      iszero\n      tag_245\n      jumpi\n        /* \"#utility.yul\":12471:12480   */\n      dup5\n        /* \"#utility.yul\":12466:12469   */\n      dup10\n        /* \"#utility.yul\":12462:12481   */\n      add\n        /* \"#utility.yul\":12449:12482   */\n      calldataload\n        /* \"#utility.yul\":12441:12447   */\n      dup3\n        /* \"#utility.yul\":12434:12483   */\n      sstore\n        /* \"#utility.yul\":12522:12523   */\n      0x01\n        /* \"#utility.yul\":12514:12520   */\n      dup3\n        /* \"#utility.yul\":12510:12524   */\n      add\n        /* \"#utility.yul\":12500:12524   */\n      swap2\n      pop\n        /* \"#utility.yul\":12569:12571   */\n      0x20\n        /* \"#utility.yul\":12558:12567   */\n      dup6\n        /* \"#utility.yul\":12554:12572   */\n      add\n        /* \"#utility.yul\":12541:12572   */\n      swap5\n      pop\n        /* \"#utility.yul\":12408:12412   */\n      0x20\n        /* \"#utility.yul\":12405:12406   */\n      dup2\n        /* \"#utility.yul\":12401:12413   */\n      add\n        /* \"#utility.yul\":12396:12413   */\n      swap1\n      pop\n        /* \"#utility.yul\":12371:12586   */\n      jump(tag_243)\n    tag_245:\n        /* \"#utility.yul\":12614:12620   */\n      dup7\n        /* \"#utility.yul\":12605:12612   */\n      dup4\n        /* \"#utility.yul\":12602:12621   */\n      lt\n        /* \"#utility.yul\":12599:12785   */\n      iszero\n      tag_246\n      jumpi\n        /* \"#utility.yul\":12679:12688   */\n      dup5\n        /* \"#utility.yul\":12674:12677   */\n      dup10\n        /* \"#utility.yul\":12670:12689   */\n      add\n        /* \"#utility.yul\":12657:12690   */\n      calldataload\n        /* \"#utility.yul\":12722:12770   */\n      tag_247\n        /* \"#utility.yul\":12764:12768   */\n      0x1f\n        /* \"#utility.yul\":12756:12762   */\n      dup10\n        /* \"#utility.yul\":12752:12769   */\n      and\n        /* \"#utility.yul\":12741:12750   */\n      dup3\n        /* \"#utility.yul\":12722:12770   */\n      tag_103\n      jump\t// in\n    tag_247:\n        /* \"#utility.yul\":12714:12720   */\n      dup4\n        /* \"#utility.yul\":12707:12771   */\n      sstore\n        /* \"#utility.yul\":12622:12785   */\n      pop\n        /* \"#utility.yul\":12599:12785   */\n    tag_246:\n        /* \"#utility.yul\":12831:12832   */\n      0x01\n        /* \"#utility.yul\":12827:12828   */\n      0x02\n        /* \"#utility.yul\":12819:12825   */\n      dup9\n        /* \"#utility.yul\":12815:12829   */\n      mul\n        /* \"#utility.yul\":12811:12833   */\n      add\n        /* \"#utility.yul\":12805:12809   */\n      dup9\n        /* \"#utility.yul\":12798:12834   */\n      sstore\n        /* \"#utility.yul\":12219:12844   */\n      pop\n      pop\n      pop\n        /* \"#utility.yul\":12182:13090   */\n    tag_238:\n      pop\n        /* \"#utility.yul\":11792:13096   */\n      pop\n      pop\n      pop\n        /* \"#utility.yul\":11693:13096   */\n      pop\n      pop\n      pop\n      jump\t// out\n\n    auxdata: 0xa2646970667358221220ff96146fe732470ec8a48b6056d0f431189096094b73e8de4cc0a661b4a4470a64736f6c634300081a0033\n}\n",
				"bytecode": {
					"linkReferences": {},
					"object": "6080604052348015600e575f80fd5b50610b2e8061001c5f395ff3fe608060405234801561000f575f80fd5b5060043610610055575f3560e01c8063b1498e2914610059578063bc8bc2b414610075578063c0cca5ef146100a6578063ed2e5a97146100c2578063f745630f146100f2575b5f80fd5b610073600480360381019061006e919061048f565b61010e565b005b61008f600480360381019061008a919061050d565b6101c8565b60405161009d9291906105c2565b60405180910390f35b6100c060048036038101906100bb919061050d565b610288565b005b6100dc60048036038101906100d7919061050d565b6102f3565b6040516100e99190610681565b60405180910390f35b61010c600480360381019061010791906106a1565b6103d5565b005b5f604051806040016040528084848080601f0160208091040260200160405190810160405280939291908181526020018383808284375f81840152601f19601f8201169050808301925050505050505081526020015f1515815250908060018154018082558091505060019003905f5260205f2090600202015f909190919091505f820151815f0190816101a29190610925565b506020820151816001015f6101000a81548160ff02191690831515021790555050505050565b5f81815481106101d6575f80fd5b905f5260205f2090600202015f91509050805f0180546101f590610758565b80601f016020809104026020016040519081016040528092919081815260200182805461022190610758565b801561026c5780601f106102435761010080835404028352916020019161026c565b820191905f5260205f20905b81548152906001019060200180831161024f57829003601f168201915b505050505090806001015f9054906101000a900460ff16905082565b5f818154811061029b5761029a6109f4565b5b905f5260205f2090600202016001015f9054906101000a900460ff16155f82815481106102cb576102ca6109f4565b5b905f5260205f2090600202016001015f6101000a81548160ff02191690831515021790555050565b6102fb61040b565b5f828154811061030e5761030d6109f4565b5b905f5260205f2090600202016040518060400160405290815f8201805461033490610758565b80601f016020809104026020016040519081016040528092919081815260200182805461036090610758565b80156103ab5780601f10610382576101008083540402835291602001916103ab565b820191905f5260205f20905b81548152906001019060200180831161038e57829003601f168201915b50505050508152602001600182015f9054906101000a900460ff1615151515815250509050919050565b81815f85815481106103ea576103e96109f4565b5b905f5260205f2090600202015f019182610405929190610a2b565b50505050565b6040518060400160405280606081526020015f151581525090565b5f80fd5b5f80fd5b5f80fd5b5f80fd5b5f80fd5b5f8083601f84011261044f5761044e61042e565b5b8235905067ffffffffffffffff81111561046c5761046b610432565b5b60208301915083600182028301111561048857610487610436565b5b9250929050565b5f80602083850312156104a5576104a4610426565b5b5f83013567ffffffffffffffff8111156104c2576104c161042a565b5b6104ce8582860161043a565b92509250509250929050565b5f819050919050565b6104ec816104da565b81146104f6575f80fd5b50565b5f81359050610507816104e3565b92915050565b5f6020828403121561052257610521610426565b5b5f61052f848285016104f9565b91505092915050565b5f81519050919050565b5f82825260208201905092915050565b8281835e5f83830152505050565b5f601f19601f8301169050919050565b5f61057a82610538565b6105848185610542565b9350610594818560208601610552565b61059d81610560565b840191505092915050565b5f8115159050919050565b6105bc816105a8565b82525050565b5f6040820190508181035f8301526105da8185610570565b90506105e960208301846105b3565b9392505050565b5f82825260208201905092915050565b5f61060a82610538565b61061481856105f0565b9350610624818560208601610552565b61062d81610560565b840191505092915050565b610641816105a8565b82525050565b5f604083015f8301518482035f8601526106618282610600565b91505060208301516106766020860182610638565b508091505092915050565b5f6020820190508181035f8301526106998184610647565b905092915050565b5f805f604084860312156106b8576106b7610426565b5b5f6106c5868287016104f9565b935050602084013567ffffffffffffffff8111156106e6576106e561042a565b5b6106f28682870161043a565b92509250509250925092565b7f4e487b71000000000000000000000000000000000000000000000000000000005f52604160045260245ffd5b7f4e487b71000000000000000000000000000000000000000000000000000000005f52602260045260245ffd5b5f600282049050600182168061076f57607f821691505b6020821081036107825761078161072b565b5b50919050565b5f819050815f5260205f209050919050565b5f6020601f8301049050919050565b5f82821b905092915050565b5f600883026107e47fffffffffffffffffffffffffffffffffffffffffffffffffffffffffffffffff826107a9565b6107ee86836107a9565b95508019841693508086168417925050509392505050565b5f819050919050565b5f61082961082461081f846104da565b610806565b6104da565b9050919050565b5f819050919050565b6108428361080f565b61085661084e82610830565b8484546107b5565b825550505050565b5f90565b61086a61085e565b610875818484610839565b505050565b5b818110156108985761088d5f82610862565b60018101905061087b565b5050565b601f8211156108dd576108ae81610788565b6108b78461079a565b810160208510156108c6578190505b6108da6108d28561079a565b83018261087a565b50505b505050565b5f82821c905092915050565b5f6108fd5f19846008026108e2565b1980831691505092915050565b5f61091583836108ee565b9150826002028217905092915050565b61092e82610538565b67ffffffffffffffff811115610947576109466106fe565b5b6109518254610758565b61095c82828561089c565b5f60209050601f83116001811461098d575f841561097b578287015190505b610985858261090a565b8655506109ec565b601f19841661099b86610788565b5f5b828110156109c25784890151825560018201915060208501945060208101905061099d565b868310156109df57848901516109db601f8916826108ee565b8355505b6001600288020188555050505b505050505050565b7f4e487b71000000000000000000000000000000000000000000000000000000005f52603260045260245ffd5b5f82905092915050565b610a358383610a21565b67ffffffffffffffff811115610a4e57610a4d6106fe565b5b610a588254610758565b610a6382828561089c565b5f601f831160018114610a90575f8415610a7e578287013590505b610a88858261090a565b865550610aef565b601f198416610a9e86610788565b5f5b82811015610ac557848901358255600182019150602085019450602081019050610aa0565b86831015610ae25784890135610ade601f8916826108ee565b8355505b6001600288020188555050505b5050505050505056fea2646970667358221220ff96146fe732470ec8a48b6056d0f431189096094b73e8de4cc0a661b4a4470a64736f6c634300081a0033",
					"opcodes": "PUSH1 0x80 PUSH1 0x40 MSTORE CALLVALUE DUP1 ISZERO PUSH1 0xE JUMPI PUSH0 DUP1 REVERT JUMPDEST POP PUSH2 0xB2E DUP1 PUSH2 0x1C PUSH0 CODECOPY PUSH0 RETURN INVALID PUSH1 0x80 PUSH1 0x40 MSTORE CALLVALUE DUP1 ISZERO PUSH2 0xF JUMPI PUSH0 DUP1 REVERT JUMPDEST POP PUSH1 0x4 CALLDATASIZE LT PUSH2 0x55 JUMPI PUSH0 CALLDATALOAD PUSH1 0xE0 SHR DUP1 PUSH4 0xB1498E29 EQ PUSH2 0x59 JUMPI DUP1 PUSH4 0xBC8BC2B4 EQ PUSH2 0x75 JUMPI DUP1 PUSH4 0xC0CCA5EF EQ PUSH2 0xA6 JUMPI DUP1 PUSH4 0xED2E5A97 EQ PUSH2 0xC2 JUMPI DUP1 PUSH4 0xF745630F EQ PUSH2 0xF2 JUMPI JUMPDEST PUSH0 DUP1 REVERT JUMPDEST PUSH2 0x73 PUSH1 0x4 DUP1 CALLDATASIZE SUB DUP2 ADD SWAP1 PUSH2 0x6E SWAP2 SWAP1 PUSH2 0x48F JUMP JUMPDEST PUSH2 0x10E JUMP JUMPDEST STOP JUMPDEST PUSH2 0x8F PUSH1 0x4 DUP1 CALLDATASIZE SUB DUP2 ADD SWAP1 PUSH2 0x8A SWAP2 SWAP1 PUSH2 0x50D JUMP JUMPDEST PUSH2 0x1C8 JUMP JUMPDEST PUSH1 0x40 MLOAD PUSH2 0x9D SWAP3 SWAP2 SWAP1 PUSH2 0x5C2 JUMP JUMPDEST PUSH1 0x40 MLOAD DUP1 SWAP2 SUB SWAP1 RETURN JUMPDEST PUSH2 0xC0 PUSH1 0x4 DUP1 CALLDATASIZE SUB DUP2 ADD SWAP1 PUSH2 0xBB SWAP2 SWAP1 PUSH2 0x50D JUMP JUMPDEST PUSH2 0x288 JUMP JUMPDEST STOP JUMPDEST PUSH2 0xDC PUSH1 0x4 DUP1 CALLDATASIZE SUB DUP2 ADD SWAP1 PUSH2 0xD7 SWAP2 SWAP1 PUSH2 0x50D JUMP JUMPDEST PUSH2 0x2F3 JUMP JUMPDEST PUSH1 0x40 MLOAD PUSH2 0xE9 SWAP2 SWAP1 PUSH2 0x681 JUMP JUMPDEST PUSH1 0x40 MLOAD DUP1 SWAP2 SUB SWAP1 RETURN JUMPDEST PUSH2 0x10C PUSH1 0x4 DUP1 CALLDATASIZE SUB DUP2 ADD SWAP1 PUSH2 0x107 SWAP2 SWAP1 PUSH2 0x6A1 JUMP JUMPDEST PUSH2 0x3D5 JUMP JUMPDEST STOP JUMPDEST PUSH0 PUSH1 0x40 MLOAD DUP1 PUSH1 0x40 ADD PUSH1 0x40 MSTORE DUP1 DUP5 DUP5 DUP1 DUP1 PUSH1 0x1F ADD PUSH1 0x20 DUP1 SWAP2 DIV MUL PUSH1 0x20 ADD PUSH1 0x40 MLOAD SWAP1 DUP2 ADD PUSH1 0x40 MSTORE DUP1 SWAP4 SWAP3 SWAP2 SWAP1 DUP2 DUP2 MSTORE PUSH1 0x20 ADD DUP4 DUP4 DUP1 DUP3 DUP5 CALLDATACOPY PUSH0 DUP2 DUP5 ADD MSTORE PUSH1 0x1F NOT PUSH1 0x1F DUP3 ADD AND SWAP1 POP DUP1 DUP4 ADD SWAP3 POP POP POP POP POP POP POP DUP2 MSTORE PUSH1 0x20 ADD PUSH0 ISZERO ISZERO DUP2 MSTORE POP SWAP1 DUP1 PUSH1 0x1 DUP2 SLOAD ADD DUP1 DUP3 SSTORE DUP1 SWAP2 POP POP PUSH1 0x1 SWAP1 SUB SWAP1 PUSH0 MSTORE PUSH1 0x20 PUSH0 KECCAK256 SWAP1 PUSH1 0x2 MUL ADD PUSH0 SWAP1 SWAP2 SWAP1 SWAP2 SWAP1 SWAP2 POP PUSH0 DUP3 ADD MLOAD DUP2 PUSH0 ADD SWAP1 DUP2 PUSH2 0x1A2 SWAP2 SWAP1 PUSH2 0x925 JUMP JUMPDEST POP PUSH1 0x20 DUP3 ADD MLOAD DUP2 PUSH1 0x1 ADD PUSH0 PUSH2 0x100 EXP DUP2 SLOAD DUP2 PUSH1 0xFF MUL NOT AND SWAP1 DUP4 ISZERO ISZERO MUL OR SWAP1 SSTORE POP POP POP POP POP JUMP JUMPDEST PUSH0 DUP2 DUP2 SLOAD DUP2 LT PUSH2 0x1D6 JUMPI PUSH0 DUP1 REVERT JUMPDEST SWAP1 PUSH0 MSTORE PUSH1 0x20 PUSH0 KECCAK256 SWAP1 PUSH1 0x2 MUL ADD PUSH0 SWAP2 POP SWAP1 POP DUP1 PUSH0 ADD DUP1 SLOAD PUSH2 0x1F5 SWAP1 PUSH2 0x758 JUMP JUMPDEST DUP1 PUSH1 0x1F ADD PUSH1 0x20 DUP1 SWAP2 DIV MUL PUSH1 0x20 ADD PUSH1 0x40 MLOAD SWAP1 DUP2 ADD PUSH1 0x40 MSTORE DUP1 SWAP3 SWAP2 SWAP1 DUP2 DUP2 MSTORE PUSH1 0x20 ADD DUP3 DUP1 SLOAD PUSH2 0x221 SWAP1 PUSH2 0x758 JUMP JUMPDEST DUP1 ISZERO PUSH2 0x26C JUMPI DUP1 PUSH1 0x1F LT PUSH2 0x243 JUMPI PUSH2 0x100 DUP1 DUP4 SLOAD DIV MUL DUP4 MSTORE SWAP2 PUSH1 0x20 ADD SWAP2 PUSH2 0x26C JUMP JUMPDEST DUP3 ADD SWAP2 SWAP1 PUSH0 MSTORE PUSH1 0x20 PUSH0 KECCAK256 SWAP1 JUMPDEST DUP2 SLOAD DUP2 MSTORE SWAP1 PUSH1 0x1 ADD SWAP1 PUSH1 0x20 ADD DUP1 DUP4 GT PUSH2 0x24F JUMPI DUP3 SWAP1 SUB PUSH1 0x1F AND DUP3 ADD SWAP2 JUMPDEST POP POP POP POP POP SWAP1 DUP1 PUSH1 0x1 ADD PUSH0 SWAP1 SLOAD SWAP1 PUSH2 0x100 EXP SWAP1 DIV PUSH1 0xFF AND SWAP1 POP DUP3 JUMP JUMPDEST PUSH0 DUP2 DUP2 SLOAD DUP2 LT PUSH2 0x29B JUMPI PUSH2 0x29A PUSH2 0x9F4 JUMP JUMPDEST JUMPDEST SWAP1 PUSH0 MSTORE PUSH1 0x20 PUSH0 KECCAK256 SWAP1 PUSH1 0x2 MUL ADD PUSH1 0x1 ADD PUSH0 SWAP1 SLOAD SWAP1 PUSH2 0x100 EXP SWAP1 DIV PUSH1 0xFF AND ISZERO PUSH0 DUP3 DUP2 SLOAD DUP2 LT PUSH2 0x2CB JUMPI PUSH2 0x2CA PUSH2 0x9F4 JUMP JUMPDEST JUMPDEST SWAP1 PUSH0 MSTORE PUSH1 0x20 PUSH0 KECCAK256 SWAP1 PUSH1 0x2 MUL ADD PUSH1 0x1 ADD PUSH0 PUSH2 0x100 EXP DUP2 SLOAD DUP2 PUSH1 0xFF MUL NOT AND SWAP1 DUP4 ISZERO ISZERO MUL OR SWAP1 SSTORE POP POP JUMP JUMPDEST PUSH2 0x2FB PUSH2 0x40B JUMP JUMPDEST PUSH0 DUP3 DUP2 SLOAD DUP2 LT PUSH2 0x30E JUMPI PUSH2 0x30D PUSH2 0x9F4 JUMP JUMPDEST JUMPDEST SWAP1 PUSH0 MSTORE PUSH1 0x20 PUSH0 KECCAK256 SWAP1 PUSH1 0x2 MUL ADD PUSH1 0x40 MLOAD DUP1 PUSH1 0x40 ADD PUSH1 0x40 MSTORE SWAP1 DUP2 PUSH0 DUP3 ADD DUP1 SLOAD PUSH2 0x334 SWAP1 PUSH2 0x758 JUMP JUMPDEST DUP1 PUSH1 0x1F ADD PUSH1 0x20 DUP1 SWAP2 DIV MUL PUSH1 0x20 ADD PUSH1 0x40 MLOAD SWAP1 DUP2 ADD PUSH1 0x40 MSTORE DUP1 SWAP3 SWAP2 SWAP1 DUP2 DUP2 MSTORE PUSH1 0x20 ADD DUP3 DUP1 SLOAD PUSH2 0x360 SWAP1 PUSH2 0x758 JUMP JUMPDEST DUP1 ISZERO PUSH2 0x3AB JUMPI DUP1 PUSH1 0x1F LT PUSH2 0x382 JUMPI PUSH2 0x100 DUP1 DUP4 SLOAD DIV MUL DUP4 MSTORE SWAP2 PUSH1 0x20 ADD SWAP2 PUSH2 0x3AB JUMP JUMPDEST DUP3 ADD SWAP2 SWAP1 PUSH0 MSTORE PUSH1 0x20 PUSH0 KECCAK256 SWAP1 JUMPDEST DUP2 SLOAD DUP2 MSTORE SWAP1 PUSH1 0x1 ADD SWAP1 PUSH1 0x20 ADD DUP1 DUP4 GT PUSH2 0x38E JUMPI DUP3 SWAP1 SUB PUSH1 0x1F AND DUP3 ADD SWAP2 JUMPDEST POP POP POP POP POP DUP2 MSTORE PUSH1 0x20 ADD PUSH1 0x1 DUP3 ADD PUSH0 SWAP1 SLOAD SWAP1 PUSH2 0x100 EXP SWAP1 DIV PUSH1 0xFF AND ISZERO ISZERO ISZERO ISZERO DUP2 MSTORE POP POP SWAP1 POP SWAP2 SWAP1 POP JUMP JUMPDEST DUP2 DUP2 PUSH0 DUP6 DUP2 SLOAD DUP2 LT PUSH2 0x3EA JUMPI PUSH2 0x3E9 PUSH2 0x9F4 JUMP JUMPDEST JUMPDEST SWAP1 PUSH0 MSTORE PUSH1 0x20 PUSH0 KECCAK256 SWAP1 PUSH1 0x2 MUL ADD PUSH0 ADD SWAP2 DUP3 PUSH2 0x405 SWAP3 SWAP2 SWAP1 PUSH2 0xA2B JUMP JUMPDEST POP POP POP POP JUMP JUMPDEST PUSH1 0x40 MLOAD DUP1 PUSH1 0x40 ADD PUSH1 0x40 MSTORE DUP1 PUSH1 0x60 DUP2 MSTORE PUSH1 0x20 ADD PUSH0 ISZERO ISZERO DUP2 MSTORE POP SWAP1 JUMP JUMPDEST PUSH0 DUP1 REVERT JUMPDEST PUSH0 DUP1 REVERT JUMPDEST PUSH0 DUP1 REVERT JUMPDEST PUSH0 DUP1 REVERT JUMPDEST PUSH0 DUP1 REVERT JUMPDEST PUSH0 DUP1 DUP4 PUSH1 0x1F DUP5 ADD SLT PUSH2 0x44F JUMPI PUSH2 0x44E PUSH2 0x42E JUMP JUMPDEST JUMPDEST DUP3 CALLDATALOAD SWAP1 POP PUSH8 0xFFFFFFFFFFFFFFFF DUP2 GT ISZERO PUSH2 0x46C JUMPI PUSH2 0x46B PUSH2 0x432 JUMP JUMPDEST JUMPDEST PUSH1 0x20 DUP4 ADD SWAP2 POP DUP4 PUSH1 0x1 DUP3 MUL DUP4 ADD GT ISZERO PUSH2 0x488 JUMPI PUSH2 0x487 PUSH2 0x436 JUMP JUMPDEST JUMPDEST SWAP3 POP SWAP3 SWAP1 POP JUMP JUMPDEST PUSH0 DUP1 PUSH1 0x20 DUP4 DUP6 SUB SLT ISZERO PUSH2 0x4A5 JUMPI PUSH2 0x4A4 PUSH2 0x426 JUMP JUMPDEST JUMPDEST PUSH0 DUP4 ADD CALLDATALOAD PUSH8 0xFFFFFFFFFFFFFFFF DUP2 GT ISZERO PUSH2 0x4C2 JUMPI PUSH2 0x4C1 PUSH2 0x42A JUMP JUMPDEST JUMPDEST PUSH2 0x4CE DUP6 DUP3 DUP7 ADD PUSH2 0x43A JUMP JUMPDEST SWAP3 POP SWAP3 POP POP SWAP3 POP SWAP3 SWAP1 POP JUMP JUMPDEST PUSH0 DUP2 SWAP1 POP SWAP2 SWAP1 POP JUMP JUMPDEST PUSH2 0x4EC DUP2 PUSH2 0x4DA JUMP JUMPDEST DUP2 EQ PUSH2 0x4F6 JUMPI PUSH0 DUP1 REVERT JUMPDEST POP JUMP JUMPDEST PUSH0 DUP2 CALLDATALOAD SWAP1 POP PUSH2 0x507 DUP2 PUSH2 0x4E3 JUMP JUMPDEST SWAP3 SWAP2 POP POP JUMP JUMPDEST PUSH0 PUSH1 0x20 DUP3 DUP5 SUB SLT ISZERO PUSH2 0x522 JUMPI PUSH2 0x521 PUSH2 0x426 JUMP JUMPDEST JUMPDEST PUSH0 PUSH2 0x52F DUP5 DUP3 DUP6 ADD PUSH2 0x4F9 JUMP JUMPDEST SWAP2 POP POP SWAP3 SWAP2 POP POP JUMP JUMPDEST PUSH0 DUP2 MLOAD SWAP1 POP SWAP2 SWAP1 POP JUMP JUMPDEST PUSH0 DUP3 DUP3 MSTORE PUSH1 0x20 DUP3 ADD SWAP1 POP SWAP3 SWAP2 POP POP JUMP JUMPDEST DUP3 DUP2 DUP4 MCOPY PUSH0 DUP4 DUP4 ADD MSTORE POP POP POP JUMP JUMPDEST PUSH0 PUSH1 0x1F NOT PUSH1 0x1F DUP4 ADD AND SWAP1 POP SWAP2 SWAP1 POP JUMP JUMPDEST PUSH0 PUSH2 0x57A DUP3 PUSH2 0x538 JUMP JUMPDEST PUSH2 0x584 DUP2 DUP6 PUSH2 0x542 JUMP JUMPDEST SWAP4 POP PUSH2 0x594 DUP2 DUP6 PUSH1 0x20 DUP7 ADD PUSH2 0x552 JUMP JUMPDEST PUSH2 0x59D DUP2 PUSH2 0x560 JUMP JUMPDEST DUP5 ADD SWAP2 POP POP SWAP3 SWAP2 POP POP JUMP JUMPDEST PUSH0 DUP2 ISZERO ISZERO SWAP1 POP SWAP2 SWAP1 POP JUMP JUMPDEST PUSH2 0x5BC DUP2 PUSH2 0x5A8 JUMP JUMPDEST DUP3 MSTORE POP POP JUMP JUMPDEST PUSH0 PUSH1 0x40 DUP3 ADD SWAP1 POP DUP2 DUP2 SUB PUSH0 DUP4 ADD MSTORE PUSH2 0x5DA DUP2 DUP6 PUSH2 0x570 JUMP JUMPDEST SWAP1 POP PUSH2 0x5E9 PUSH1 0x20 DUP4 ADD DUP5 PUSH2 0x5B3 JUMP JUMPDEST SWAP4 SWAP3 POP POP POP JUMP JUMPDEST PUSH0 DUP3 DUP3 MSTORE PUSH1 0x20 DUP3 ADD SWAP1 POP SWAP3 SWAP2 POP POP JUMP JUMPDEST PUSH0 PUSH2 0x60A DUP3 PUSH2 0x538 JUMP JUMPDEST PUSH2 0x614 DUP2 DUP6 PUSH2 0x5F0 JUMP JUMPDEST SWAP4 POP PUSH2 0x624 DUP2 DUP6 PUSH1 0x20 DUP7 ADD PUSH2 0x552 JUMP JUMPDEST PUSH2 0x62D DUP2 PUSH2 0x560 JUMP JUMPDEST DUP5 ADD SWAP2 POP POP SWAP3 SWAP2 POP POP JUMP JUMPDEST PUSH2 0x641 DUP2 PUSH2 0x5A8 JUMP JUMPDEST DUP3 MSTORE POP POP JUMP JUMPDEST PUSH0 PUSH1 0x40 DUP4 ADD PUSH0 DUP4 ADD MLOAD DUP5 DUP3 SUB PUSH0 DUP7 ADD MSTORE PUSH2 0x661 DUP3 DUP3 PUSH2 0x600 JUMP JUMPDEST SWAP2 POP POP PUSH1 0x20 DUP4 ADD MLOAD PUSH2 0x676 PUSH1 0x20 DUP7 ADD DUP3 PUSH2 0x638 JUMP JUMPDEST POP DUP1 SWAP2 POP POP SWAP3 SWAP2 POP POP JUMP JUMPDEST PUSH0 PUSH1 0x20 DUP3 ADD SWAP1 POP DUP2 DUP2 SUB PUSH0 DUP4 ADD MSTORE PUSH2 0x699 DUP2 DUP5 PUSH2 0x647 JUMP JUMPDEST SWAP1 POP SWAP3 SWAP2 POP POP JUMP JUMPDEST PUSH0 DUP1 PUSH0 PUSH1 0x40 DUP5 DUP7 SUB SLT ISZERO PUSH2 0x6B8 JUMPI PUSH2 0x6B7 PUSH2 0x426 JUMP JUMPDEST JUMPDEST PUSH0 PUSH2 0x6C5 DUP7 DUP3 DUP8 ADD PUSH2 0x4F9 JUMP JUMPDEST SWAP4 POP POP PUSH1 0x20 DUP5 ADD CALLDATALOAD PUSH8 0xFFFFFFFFFFFFFFFF DUP2 GT ISZERO PUSH2 0x6E6 JUMPI PUSH2 0x6E5 PUSH2 0x42A JUMP JUMPDEST JUMPDEST PUSH2 0x6F2 DUP7 DUP3 DUP8 ADD PUSH2 0x43A JUMP JUMPDEST SWAP3 POP SWAP3 POP POP SWAP3 POP SWAP3 POP SWAP3 JUMP JUMPDEST PUSH32 0x4E487B7100000000000000000000000000000000000000000000000000000000 PUSH0 MSTORE PUSH1 0x41 PUSH1 0x4 MSTORE PUSH1 0x24 PUSH0 REVERT JUMPDEST PUSH32 0x4E487B7100000000000000000000000000000000000000000000000000000000 PUSH0 MSTORE PUSH1 0x22 PUSH1 0x4 MSTORE PUSH1 0x24 PUSH0 REVERT JUMPDEST PUSH0 PUSH1 0x2 DUP3 DIV SWAP1 POP PUSH1 0x1 DUP3 AND DUP1 PUSH2 0x76F JUMPI PUSH1 0x7F DUP3 AND SWAP2 POP JUMPDEST PUSH1 0x20 DUP3 LT DUP2 SUB PUSH2 0x782 JUMPI PUSH2 0x781 PUSH2 0x72B JUMP JUMPDEST JUMPDEST POP SWAP2 SWAP1 POP JUMP JUMPDEST PUSH0 DUP2 SWAP1 POP DUP2 PUSH0 MSTORE PUSH1 0x20 PUSH0 KECCAK256 SWAP1 POP SWAP2 SWAP1 POP JUMP JUMPDEST PUSH0 PUSH1 0x20 PUSH1 0x1F DUP4 ADD DIV SWAP1 POP SWAP2 SWAP1 POP JUMP JUMPDEST PUSH0 DUP3 DUP3 SHL SWAP1 POP SWAP3 SWAP2 POP POP JUMP JUMPDEST PUSH0 PUSH1 0x8 DUP4 MUL PUSH2 0x7E4 PUSH32 0xFFFFFFFFFFFFFFFFFFFFFFFFFFFFFFFFFFFFFFFFFFFFFFFFFFFFFFFFFFFFFFFF DUP3 PUSH2 0x7A9 JUMP JUMPDEST PUSH2 0x7EE DUP7 DUP4 PUSH2 0x7A9 JUMP JUMPDEST SWAP6 POP DUP1 NOT DUP5 AND SWAP4 POP DUP1 DUP7 AND DUP5 OR SWAP3 POP POP POP SWAP4 SWAP3 POP POP POP JUMP JUMPDEST PUSH0 DUP2 SWAP1 POP SWAP2 SWAP1 POP JUMP JUMPDEST PUSH0 PUSH2 0x829 PUSH2 0x824 PUSH2 0x81F DUP5 PUSH2 0x4DA JUMP JUMPDEST PUSH2 0x806 JUMP JUMPDEST PUSH2 0x4DA JUMP JUMPDEST SWAP1 POP SWAP2 SWAP1 POP JUMP JUMPDEST PUSH0 DUP2 SWAP1 POP SWAP2 SWAP1 POP JUMP JUMPDEST PUSH2 0x842 DUP4 PUSH2 0x80F JUMP JUMPDEST PUSH2 0x856 PUSH2 0x84E DUP3 PUSH2 0x830 JUMP JUMPDEST DUP5 DUP5 SLOAD PUSH2 0x7B5 JUMP JUMPDEST DUP3 SSTORE POP POP POP POP JUMP JUMPDEST PUSH0 SWAP1 JUMP JUMPDEST PUSH2 0x86A PUSH2 0x85E JUMP JUMPDEST PUSH2 0x875 DUP2 DUP5 DUP5 PUSH2 0x839 JUMP JUMPDEST POP POP POP JUMP JUMPDEST JUMPDEST DUP2 DUP2 LT ISZERO PUSH2 0x898 JUMPI PUSH2 0x88D PUSH0 DUP3 PUSH2 0x862 JUMP JUMPDEST PUSH1 0x1 DUP2 ADD SWAP1 POP PUSH2 0x87B JUMP JUMPDEST POP POP JUMP JUMPDEST PUSH1 0x1F DUP3 GT ISZERO PUSH2 0x8DD JUMPI PUSH2 0x8AE DUP2 PUSH2 0x788 JUMP JUMPDEST PUSH2 0x8B7 DUP5 PUSH2 0x79A JUMP JUMPDEST DUP2 ADD PUSH1 0x20 DUP6 LT ISZERO PUSH2 0x8C6 JUMPI DUP2 SWAP1 POP JUMPDEST PUSH2 0x8DA PUSH2 0x8D2 DUP6 PUSH2 0x79A JUMP JUMPDEST DUP4 ADD DUP3 PUSH2 0x87A JUMP JUMPDEST POP POP JUMPDEST POP POP POP JUMP JUMPDEST PUSH0 DUP3 DUP3 SHR SWAP1 POP SWAP3 SWAP2 POP POP JUMP JUMPDEST PUSH0 PUSH2 0x8FD PUSH0 NOT DUP5 PUSH1 0x8 MUL PUSH2 0x8E2 JUMP JUMPDEST NOT DUP1 DUP4 AND SWAP2 POP POP SWAP3 SWAP2 POP POP JUMP JUMPDEST PUSH0 PUSH2 0x915 DUP4 DUP4 PUSH2 0x8EE JUMP JUMPDEST SWAP2 POP DUP3 PUSH1 0x2 MUL DUP3 OR SWAP1 POP SWAP3 SWAP2 POP POP JUMP JUMPDEST PUSH2 0x92E DUP3 PUSH2 0x538 JUMP JUMPDEST PUSH8 0xFFFFFFFFFFFFFFFF DUP2 GT ISZERO PUSH2 0x947 JUMPI PUSH2 0x946 PUSH2 0x6FE JUMP JUMPDEST JUMPDEST PUSH2 0x951 DUP3 SLOAD PUSH2 0x758 JUMP JUMPDEST PUSH2 0x95C DUP3 DUP3 DUP6 PUSH2 0x89C JUMP JUMPDEST PUSH0 PUSH1 0x20 SWAP1 POP PUSH1 0x1F DUP4 GT PUSH1 0x1 DUP2 EQ PUSH2 0x98D JUMPI PUSH0 DUP5 ISZERO PUSH2 0x97B JUMPI DUP3 DUP8 ADD MLOAD SWAP1 POP JUMPDEST PUSH2 0x985 DUP6 DUP3 PUSH2 0x90A JUMP JUMPDEST DUP7 SSTORE POP PUSH2 0x9EC JUMP JUMPDEST PUSH1 0x1F NOT DUP5 AND PUSH2 0x99B DUP7 PUSH2 0x788 JUMP JUMPDEST PUSH0 JUMPDEST DUP3 DUP2 LT ISZERO PUSH2 0x9C2 JUMPI DUP5 DUP10 ADD MLOAD DUP3 SSTORE PUSH1 0x1 DUP3 ADD SWAP2 POP PUSH1 0x20 DUP6 ADD SWAP5 POP PUSH1 0x20 DUP2 ADD SWAP1 POP PUSH2 0x99D JUMP JUMPDEST DUP7 DUP4 LT ISZERO PUSH2 0x9DF JUMPI DUP5 DUP10 ADD MLOAD PUSH2 0x9DB PUSH1 0x1F DUP10 AND DUP3 PUSH2 0x8EE JUMP JUMPDEST DUP4 SSTORE POP JUMPDEST PUSH1 0x1 PUSH1 0x2 DUP9 MUL ADD DUP9 SSTORE POP POP POP JUMPDEST POP POP POP POP POP POP JUMP JUMPDEST PUSH32 0x4E487B7100000000000000000000000000000000000000000000000000000000 PUSH0 MSTORE PUSH1 0x32 PUSH1 0x4 MSTORE PUSH1 0x24 PUSH0 REVERT JUMPDEST PUSH0 DUP3 SWAP1 POP SWAP3 SWAP2 POP POP JUMP JUMPDEST PUSH2 0xA35 DUP4 DUP4 PUSH2 0xA21 JUMP JUMPDEST PUSH8 0xFFFFFFFFFFFFFFFF DUP2 GT ISZERO PUSH2 0xA4E JUMPI PUSH2 0xA4D PUSH2 0x6FE JUMP JUMPDEST JUMPDEST PUSH2 0xA58 DUP3 SLOAD PUSH2 0x758 JUMP JUMPDEST PUSH2 0xA63 DUP3 DUP3 DUP6 PUSH2 0x89C JUMP JUMPDEST PUSH0 PUSH1 0x1F DUP4 GT PUSH1 0x1 DUP2 EQ PUSH2 0xA90 JUMPI PUSH0 DUP5 ISZERO PUSH2 0xA7E JUMPI DUP3 DUP8 ADD CALLDATALOAD SWAP1 POP JUMPDEST PUSH2 0xA88 DUP6 DUP3 PUSH2 0x90A JUMP JUMPDEST DUP7 SSTORE POP PUSH2 0xAEF JUMP JUMPDEST PUSH1 0x1F NOT DUP5 AND PUSH2 0xA9E DUP7 PUSH2 0x788 JUMP JUMPDEST PUSH0 JUMPDEST DUP3 DUP2 LT ISZERO PUSH2 0xAC5 JUMPI DUP5 DUP10 ADD CALLDATALOAD DUP3 SSTORE PUSH1 0x1 DUP3 ADD SWAP2 POP PUSH1 0x20 DUP6 ADD SWAP5 POP PUSH1 0x20 DUP2 ADD SWAP1 POP PUSH2 0xAA0 JUMP JUMPDEST DUP7 DUP4 LT ISZERO PUSH2 0xAE2 JUMPI DUP5 DUP10 ADD CALLDATALOAD PUSH2 0xADE PUSH1 0x1F DUP10 AND DUP3 PUSH2 0x8EE JUMP JUMPDEST DUP4 SSTORE POP JUMPDEST PUSH1 0x1 PUSH1 0x2 DUP9 MUL ADD DUP9 SSTORE POP POP POP JUMPDEST POP POP POP POP POP POP POP JUMP INVALID LOG2 PUSH5 0x6970667358 0x22 SLT KECCAK256 SELFDESTRUCT SWAP7 EQ PUSH16 0xE732470EC8A48B6056D0F43118909609 0x4B PUSH20 0xE8DE4CC0A661B4A4470A64736F6C634300081A00 CALLER "
				},
				"gasEstimates": {
					"creation": {
						"codeDepositCost": "572400",
						"executionCost": "604",
						"totalCost": "573004"
					},
					"external": {
						"completed(uint256)": "31215",
						"insert(string)": "infinite",
						"read(uint256)": "infinite",
						"todos(uint256)": "infinite",
						"update(uint256,string)": "infinite"
					}
				},
				"methodIdentifiers": {
					"completed(uint256)": "c0cca5ef",
					"insert(string)": "b1498e29",
					"read(uint256)": "ed2e5a97",
					"todos(uint256)": "bc8bc2b4",
					"update(uint256,string)": "f745630f"
				}
			},
			"storageLayout": {
				"storage": [
					{
						"astId": 10,
						"contract": "Solidity Basic Projects/ToDoList.sol:ToDoList",
						"label": "todos",
						"offset": 0,
						"slot": "0",
						"type": "t_array(t_struct(Todo)6_storage)dyn_storage"
					}
				],
				"types": {
					"t_array(t_struct(Todo)6_storage)dyn_storage": {
						"base": "t_struct(Todo)6_storage",
						"encoding": "dynamic_array",
						"label": "struct ToDoList.Todo[]",
						"numberOfBytes": "32"
					},
					"t_bool": {
						"encoding": "inplace",
						"label": "bool",
						"numberOfBytes": "1"
					},
					"t_string_storage": {
						"encoding": "bytes",
						"label": "string",
						"numberOfBytes": "32"
					},
					"t_struct(Todo)6_storage": {
						"encoding": "inplace",
						"label": "struct ToDoList.Todo",
						"members": [
							{
								"astId": 3,
								"contract": "Solidity Basic Projects/ToDoList.sol:ToDoList",
								"label": "name",
								"offset": 0,
								"slot": "0",
								"type": "t_string_storage"
							},
							{
								"astId": 5,
								"contract": "Solidity Basic Projects/ToDoList.sol:ToDoList",
								"label": "completed",
								"offset": 0,
								"slot": "1",
								"type": "t_bool"
							}
						],
						"numberOfBytes": "64"
					}
				}
			},
			"userdoc": {
				"kind": "user",
				"methods": {},
				"version": 1
			}
		}
	}
}