{
	"Solidity Basic Projects/Lottery.sol": {
		"Lottery": {
			"abi": [
				{
					"inputs": [],
					"stateMutability": "nonpayable",
					"type": "constructor"
				},
				{
					"inputs": [],
					"name": "getAllPlayers",
					"outputs": [
						{
							"internalType": "address payable[]",
							"name": "",
							"type": "address[]"
						}
					],
					"stateMutability": "view",
					"type": "function"
				},
				{
					"inputs": [],
					"name": "getBalance",
					"outputs": [
						{
							"internalType": "uint256",
							"name": "",
							"type": "uint256"
						}
					],
					"stateMutability": "view",
					"type": "function"
				},
				{
					"inputs": [],
					"name": "manager",
					"outputs": [
						{
							"internalType": "address",
							"name": "",
							"type": "address"
						}
					],
					"stateMutability": "view",
					"type": "function"
				},
				{
					"inputs": [],
					"name": "participate",
					"outputs": [],
					"stateMutability": "payable",
					"type": "function"
				},
				{
					"inputs": [],
					"name": "pickWinner",
					"outputs": [],
					"stateMutability": "nonpayable",
					"type": "function"
				},
				{
					"inputs": [
						{
							"internalType": "uint256",
							"name": "",
							"type": "uint256"
						}
					],
					"name": "players",
					"outputs": [
						{
							"internalType": "address payable",
							"name": "",
							"type": "address"
						}
					],
					"stateMutability": "view",
					"type": "function"
				},
				{
					"inputs": [],
					"name": "randomNumber",
					"outputs": [
						{
							"internalType": "uint256",
							"name": "",
							"type": "uint256"
						}
					],
					"stateMutability": "view",
					"type": "function"
				},
				{
					"inputs": [],
					"name": "winner",
					"outputs": [
						{
							"internalType": "address payable",
							"name": "",
							"type": "address"
						}
					],
					"stateMutability": "view",
					"type": "function"
				}
			],
			"devdoc": {
				"kind": "dev",
				"methods": {},
				"version": 1
			},
			"evm": {
				"assembly": "    /* \"Solidity Basic Projects/Lottery.sol\":60:1243  contract Lottery {... */\n  mstore(0x40, 0x80)\n    /* \"Solidity Basic Projects/Lottery.sol\":190:244  constructor() {... */\n  callvalue\n  dup1\n  iszero\n  tag_1\n  jumpi\n  0x00\n  dup1\n  revert\ntag_1:\n  pop\n    /* \"Solidity Basic Projects/Lottery.sol\":226:236  msg.sender */\n  caller\n    /* \"Solidity Basic Projects/Lottery.sol\":215:236  manager == msg.sender */\n  0xffffffffffffffffffffffffffffffffffffffff\n  and\n    /* \"Solidity Basic Projects/Lottery.sol\":215:222  manager */\n  0x00\n  dup1\n  sload\n  swap1\n  0x0100\n  exp\n  swap1\n  pop\n  pop\n    /* \"Solidity Basic Projects/Lottery.sol\":215:236  manager == msg.sender */\n  pop\n    /* \"Solidity Basic Projects/Lottery.sol\":60:1243  contract Lottery {... */\n  dataSize(sub_0)\n  dup1\n  dataOffset(sub_0)\n  0x00\n  codecopy\n  0x00\n  return\nstop\n\nsub_0: assembly {\n        /* \"Solidity Basic Projects/Lottery.sol\":60:1243  contract Lottery {... */\n      mstore(0x40, 0x80)\n      jumpi(tag_1, lt(calldatasize, 0x04))\n      shr(0xe0, calldataload(0x00))\n      dup1\n      0xd11711a2\n      gt\n      tag_10\n      jumpi\n      dup1\n      0xd11711a2\n      eq\n      tag_6\n      jumpi\n      dup1\n      0xdfbf53ae\n      eq\n      tag_7\n      jumpi\n      dup1\n      0xefa1c482\n      eq\n      tag_8\n      jumpi\n      dup1\n      0xf71d96cb\n      eq\n      tag_9\n      jumpi\n      jump(tag_1)\n    tag_10:\n      dup1\n      0x12065fe0\n      eq\n      tag_2\n      jumpi\n      dup1\n      0x481c6a75\n      eq\n      tag_3\n      jumpi\n      dup1\n      0x5d495aea\n      eq\n      tag_4\n      jumpi\n      dup1\n      0xccbac9f5\n      eq\n      tag_5\n      jumpi\n    tag_1:\n      0x00\n      dup1\n      revert\n        /* \"Solidity Basic Projects/Lottery.sol\":536:691  function getBalance() public view returns (uint) {... */\n    tag_2:\n      callvalue\n      dup1\n      iszero\n      tag_11\n      jumpi\n      0x00\n      dup1\n      revert\n    tag_11:\n      pop\n      tag_12\n      tag_13\n      jump\t// in\n    tag_12:\n      mload(0x40)\n      tag_14\n      swap2\n      swap1\n      tag_15\n      jump\t// in\n    tag_14:\n      mload(0x40)\n      dup1\n      swap2\n      sub\n      swap1\n      return\n        /* \"Solidity Basic Projects/Lottery.sol\":84:106  address public manager */\n    tag_3:\n      callvalue\n      dup1\n      iszero\n      tag_16\n      jumpi\n      0x00\n      dup1\n      revert\n    tag_16:\n      pop\n      tag_17\n      tag_18\n      jump\t// in\n    tag_17:\n      mload(0x40)\n      tag_19\n      swap2\n      swap1\n      tag_20\n      jump\t// in\n    tag_19:\n      mload(0x40)\n      dup1\n      swap2\n      sub\n      swap1\n      return\n        /* \"Solidity Basic Projects/Lottery.sol\":868:1240  function pickWinner() public {... */\n    tag_4:\n      callvalue\n      dup1\n      iszero\n      tag_21\n      jumpi\n      0x00\n      dup1\n      revert\n    tag_21:\n      pop\n      tag_22\n      tag_23\n      jump\t// in\n    tag_22:\n      stop\n        /* \"Solidity Basic Projects/Lottery.sol\":699:860  function randomNumber() public view returns (uint) {... */\n    tag_5:\n      callvalue\n      dup1\n      iszero\n      tag_24\n      jumpi\n      0x00\n      dup1\n      revert\n    tag_24:\n      pop\n      tag_25\n      tag_26\n      jump\t// in\n    tag_25:\n      mload(0x40)\n      tag_27\n      swap2\n      swap1\n      tag_15\n      jump\t// in\n    tag_27:\n      mload(0x40)\n      dup1\n      swap2\n      sub\n      swap1\n      return\n        /* \"Solidity Basic Projects/Lottery.sol\":252:415  function participate() public payable {... */\n    tag_6:\n      tag_28\n      tag_29\n      jump\t// in\n    tag_28:\n      stop\n        /* \"Solidity Basic Projects/Lottery.sol\":152:181  address payable public winner */\n    tag_7:\n      callvalue\n      dup1\n      iszero\n      tag_30\n      jumpi\n      0x00\n      dup1\n      revert\n    tag_30:\n      pop\n      tag_31\n      tag_32\n      jump\t// in\n    tag_31:\n      mload(0x40)\n      tag_33\n      swap2\n      swap1\n      tag_34\n      jump\t// in\n    tag_33:\n      mload(0x40)\n      dup1\n      swap2\n      sub\n      swap1\n      return\n        /* \"Solidity Basic Projects/Lottery.sol\":423:528  function getAllPlayers() public view returns (address payable[] memory) {... */\n    tag_8:\n      callvalue\n      dup1\n      iszero\n      tag_35\n      jumpi\n      0x00\n      dup1\n      revert\n    tag_35:\n      pop\n      tag_36\n      tag_37\n      jump\t// in\n    tag_36:\n      mload(0x40)\n      tag_38\n      swap2\n      swap1\n      tag_39\n      jump\t// in\n    tag_38:\n      mload(0x40)\n      dup1\n      swap2\n      sub\n      swap1\n      return\n        /* \"Solidity Basic Projects/Lottery.sol\":113:145  address payable[] public players */\n    tag_9:\n      callvalue\n      dup1\n      iszero\n      tag_40\n      jumpi\n      0x00\n      dup1\n      revert\n    tag_40:\n      pop\n      tag_41\n      0x04\n      dup1\n      calldatasize\n      sub\n      dup2\n      add\n      swap1\n      tag_42\n      swap2\n      swap1\n      tag_43\n      jump\t// in\n    tag_42:\n      tag_44\n      jump\t// in\n    tag_41:\n      mload(0x40)\n      tag_45\n      swap2\n      swap1\n      tag_34\n      jump\t// in\n    tag_45:\n      mload(0x40)\n      dup1\n      swap2\n      sub\n      swap1\n      return\n        /* \"Solidity Basic Projects/Lottery.sol\":536:691  function getBalance() public view returns (uint) {... */\n    tag_13:\n        /* \"Solidity Basic Projects/Lottery.sol\":579:583  uint */\n      0x00\n        /* \"Solidity Basic Projects/Lottery.sol\":618:625  manager */\n      dup1\n      0x00\n      swap1\n      sload\n      swap1\n      0x0100\n      exp\n      swap1\n      div\n      0xffffffffffffffffffffffffffffffffffffffff\n      and\n        /* \"Solidity Basic Projects/Lottery.sol\":604:625  msg.sender == manager */\n      0xffffffffffffffffffffffffffffffffffffffff\n      and\n        /* \"Solidity Basic Projects/Lottery.sol\":604:614  msg.sender */\n      caller\n        /* \"Solidity Basic Projects/Lottery.sol\":604:625  msg.sender == manager */\n      0xffffffffffffffffffffffffffffffffffffffff\n      and\n      eq\n        /* \"Solidity Basic Projects/Lottery.sol\":596:644  require(msg.sender == manager, 'Not Authorized') */\n      tag_47\n      jumpi\n      mload(0x40)\n      0x08c379a000000000000000000000000000000000000000000000000000000000\n      dup2\n      mstore\n      0x04\n      add\n      tag_48\n      swap1\n      tag_49\n      jump\t// in\n    tag_48:\n      mload(0x40)\n      dup1\n      swap2\n      sub\n      swap1\n      revert\n    tag_47:\n        /* \"Solidity Basic Projects/Lottery.sol\":662:683  address(this).balance */\n      selfbalance\n        /* \"Solidity Basic Projects/Lottery.sol\":655:683  return address(this).balance */\n      swap1\n      pop\n        /* \"Solidity Basic Projects/Lottery.sol\":536:691  function getBalance() public view returns (uint) {... */\n      swap1\n      jump\t// out\n        /* \"Solidity Basic Projects/Lottery.sol\":84:106  address public manager */\n    tag_18:\n      0x00\n      dup1\n      sload\n      swap1\n      0x0100\n      exp\n      swap1\n      div\n      0xffffffffffffffffffffffffffffffffffffffff\n      and\n      dup2\n      jump\t// out\n        /* \"Solidity Basic Projects/Lottery.sol\":868:1240  function pickWinner() public {... */\n    tag_23:\n        /* \"Solidity Basic Projects/Lottery.sol\":930:937  manager */\n      0x00\n      dup1\n      sload\n      swap1\n      0x0100\n      exp\n      swap1\n      div\n      0xffffffffffffffffffffffffffffffffffffffff\n      and\n        /* \"Solidity Basic Projects/Lottery.sol\":916:937  msg.sender == manager */\n      0xffffffffffffffffffffffffffffffffffffffff\n      and\n        /* \"Solidity Basic Projects/Lottery.sol\":916:926  msg.sender */\n      caller\n        /* \"Solidity Basic Projects/Lottery.sol\":916:937  msg.sender == manager */\n      0xffffffffffffffffffffffffffffffffffffffff\n      and\n      eq\n        /* \"Solidity Basic Projects/Lottery.sol\":908:956  require(msg.sender == manager, 'Not Authorized') */\n      tag_51\n      jumpi\n      mload(0x40)\n      0x08c379a000000000000000000000000000000000000000000000000000000000\n      dup2\n      mstore\n      0x04\n      add\n      tag_52\n      swap1\n      tag_49\n      jump\t// in\n    tag_52:\n      mload(0x40)\n      dup1\n      swap2\n      sub\n      swap1\n      revert\n    tag_51:\n        /* \"Solidity Basic Projects/Lottery.sol\":993:994  3 */\n      0x03\n        /* \"Solidity Basic Projects/Lottery.sol\":975:982  players */\n      0x01\n        /* \"Solidity Basic Projects/Lottery.sol\":975:989  players.length */\n      dup1\n      sload\n      swap1\n      pop\n        /* \"Solidity Basic Projects/Lottery.sol\":975:994  players.length >= 3 */\n      lt\n      iszero\n        /* \"Solidity Basic Projects/Lottery.sol\":967:1027  require(players.length >= 3, 'Atleast 3 players are needed') */\n      tag_53\n      jumpi\n      mload(0x40)\n      0x08c379a000000000000000000000000000000000000000000000000000000000\n      dup2\n      mstore\n      0x04\n      add\n      tag_54\n      swap1\n      tag_55\n      jump\t// in\n    tag_54:\n      mload(0x40)\n      dup1\n      swap2\n      sub\n      swap1\n      revert\n    tag_53:\n        /* \"Solidity Basic Projects/Lottery.sol\":1038:1049  uint random */\n      0x00\n        /* \"Solidity Basic Projects/Lottery.sol\":1052:1066  randomNumber() */\n      tag_56\n        /* \"Solidity Basic Projects/Lottery.sol\":1052:1064  randomNumber */\n      tag_26\n        /* \"Solidity Basic Projects/Lottery.sol\":1052:1066  randomNumber() */\n      jump\t// in\n    tag_56:\n        /* \"Solidity Basic Projects/Lottery.sol\":1038:1066  uint random = randomNumber() */\n      swap1\n      pop\n        /* \"Solidity Basic Projects/Lottery.sol\":1077:1087  uint index */\n      0x00\n        /* \"Solidity Basic Projects/Lottery.sol\":1099:1106  players */\n      0x01\n        /* \"Solidity Basic Projects/Lottery.sol\":1099:1113  players.length */\n      dup1\n      sload\n      swap1\n      pop\n        /* \"Solidity Basic Projects/Lottery.sol\":1090:1096  random */\n      dup3\n        /* \"Solidity Basic Projects/Lottery.sol\":1090:1113  random % players.length */\n      tag_57\n      swap2\n      swap1\n      tag_58\n      jump\t// in\n    tag_57:\n        /* \"Solidity Basic Projects/Lottery.sol\":1077:1113  uint index = random % players.length */\n      swap1\n      pop\n        /* \"Solidity Basic Projects/Lottery.sol\":1133:1140  players */\n      0x01\n        /* \"Solidity Basic Projects/Lottery.sol\":1141:1146  index */\n      dup2\n        /* \"Solidity Basic Projects/Lottery.sol\":1133:1147  players[index] */\n      dup2\n      sload\n      dup2\n      lt\n      tag_59\n      jumpi\n      tag_60\n      tag_61\n      jump\t// in\n    tag_60:\n    tag_59:\n      swap1\n      0x00\n      mstore\n      keccak256(0x00, 0x20)\n      add\n      0x00\n      swap1\n      sload\n      swap1\n      0x0100\n      exp\n      swap1\n      div\n      0xffffffffffffffffffffffffffffffffffffffff\n      and\n        /* \"Solidity Basic Projects/Lottery.sol\":1124:1130  winner */\n      0x02\n      0x00\n        /* \"Solidity Basic Projects/Lottery.sol\":1124:1147  winner = players[index] */\n      0x0100\n      exp\n      dup2\n      sload\n      dup2\n      0xffffffffffffffffffffffffffffffffffffffff\n      mul\n      not\n      and\n      swap1\n      dup4\n      0xffffffffffffffffffffffffffffffffffffffff\n      and\n      mul\n      or\n      swap1\n      sstore\n      pop\n        /* \"Solidity Basic Projects/Lottery.sol\":1158:1164  winner */\n      0x02\n      0x00\n      swap1\n      sload\n      swap1\n      0x0100\n      exp\n      swap1\n      div\n      0xffffffffffffffffffffffffffffffffffffffff\n      and\n        /* \"Solidity Basic Projects/Lottery.sol\":1158:1173  winner.transfer */\n      0xffffffffffffffffffffffffffffffffffffffff\n      and\n        /* \"Solidity Basic Projects/Lottery.sol\":1158:1187  winner.transfer(getBalance()) */\n      0x08fc\n        /* \"Solidity Basic Projects/Lottery.sol\":1174:1186  getBalance() */\n      tag_63\n        /* \"Solidity Basic Projects/Lottery.sol\":1174:1184  getBalance */\n      tag_13\n        /* \"Solidity Basic Projects/Lottery.sol\":1174:1186  getBalance() */\n      jump\t// in\n    tag_63:\n        /* \"Solidity Basic Projects/Lottery.sol\":1158:1187  winner.transfer(getBalance()) */\n      swap1\n      dup2\n      iszero\n      mul\n      swap1\n      mload(0x40)\n      0x00\n      mload(0x40)\n      dup1\n      dup4\n      sub\n      dup2\n      dup6\n      dup9\n      dup9\n      call\n      swap4\n      pop\n      pop\n      pop\n      pop\n      iszero\n      dup1\n      iszero\n      tag_65\n      jumpi\n      returndatasize\n      0x00\n      dup1\n      returndatacopy\n      revert(0x00, returndatasize)\n    tag_65:\n      pop\n        /* \"Solidity Basic Projects/Lottery.sol\":1230:1231  0 */\n      0x00\n        /* \"Solidity Basic Projects/Lottery.sol\":1208:1232  new address payable[](0) */\n      0xffffffffffffffff\n      dup2\n      gt\n      iszero\n      tag_66\n      jumpi\n      tag_67\n      tag_68\n      jump\t// in\n    tag_67:\n    tag_66:\n      mload(0x40)\n      swap1\n      dup1\n      dup3\n      mstore\n      dup1\n      0x20\n      mul\n      0x20\n      add\n      dup3\n      add\n      0x40\n      mstore\n      dup1\n      iszero\n      tag_69\n      jumpi\n      dup2\n      0x20\n      add\n      0x20\n      dup3\n      mul\n      dup1\n      calldatasize\n      dup4\n      calldatacopy\n      dup1\n      dup3\n      add\n      swap2\n      pop\n      pop\n      swap1\n      pop\n    tag_69:\n      pop\n        /* \"Solidity Basic Projects/Lottery.sol\":1198:1205  players */\n      0x01\n        /* \"Solidity Basic Projects/Lottery.sol\":1198:1232  players = new address payable[](0) */\n      swap1\n      dup1\n      mload\n      swap1\n      0x20\n      add\n      swap1\n      tag_70\n      swap3\n      swap2\n      swap1\n      tag_71\n      jump\t// in\n    tag_70:\n      pop\n        /* \"Solidity Basic Projects/Lottery.sol\":897:1240  {... */\n      pop\n      pop\n        /* \"Solidity Basic Projects/Lottery.sol\":868:1240  function pickWinner() public {... */\n      jump\t// out\n        /* \"Solidity Basic Projects/Lottery.sol\":699:860  function randomNumber() public view returns (uint) {... */\n    tag_26:\n        /* \"Solidity Basic Projects/Lottery.sol\":744:748  uint */\n      0x00\n        /* \"Solidity Basic Projects/Lottery.sol\":800:815  block.timestamp */\n      timestamp\n        /* \"Solidity Basic Projects/Lottery.sol\":817:833  block.prevrandao */\n      prevrandao\n        /* \"Solidity Basic Projects/Lottery.sol\":835:842  players */\n      0x01\n        /* \"Solidity Basic Projects/Lottery.sol\":835:849  players.length */\n      dup1\n      sload\n      swap1\n      pop\n        /* \"Solidity Basic Projects/Lottery.sol\":783:850  abi.encodePacked(block.timestamp, block.prevrandao, players.length) */\n      add(0x20, mload(0x40))\n      tag_73\n      swap4\n      swap3\n      swap2\n      swap1\n      tag_74\n      jump\t// in\n    tag_73:\n      mload(0x40)\n      0x20\n      dup2\n      dup4\n      sub\n      sub\n      dup2\n      mstore\n      swap1\n      0x40\n      mstore\n        /* \"Solidity Basic Projects/Lottery.sol\":773:851  keccak256(abi.encodePacked(block.timestamp, block.prevrandao, players.length)) */\n      dup1\n      mload\n      swap1\n      0x20\n      add\n      keccak256\n        /* \"Solidity Basic Projects/Lottery.sol\":768:852  uint(keccak256(abi.encodePacked(block.timestamp, block.prevrandao, players.length))) */\n      0x00\n      shr\n        /* \"Solidity Basic Projects/Lottery.sol\":761:852  return uint(keccak256(abi.encodePacked(block.timestamp, block.prevrandao, players.length))) */\n      swap1\n      pop\n        /* \"Solidity Basic Projects/Lottery.sol\":699:860  function randomNumber() public view returns (uint) {... */\n      swap1\n      jump\t// out\n        /* \"Solidity Basic Projects/Lottery.sol\":252:415  function participate() public payable {... */\n    tag_29:\n        /* \"Solidity Basic Projects/Lottery.sol\":322:329  1 ether */\n      0x0de0b6b3a7640000\n        /* \"Solidity Basic Projects/Lottery.sol\":309:318  msg.value */\n      callvalue\n        /* \"Solidity Basic Projects/Lottery.sol\":309:329  msg.value >= 1 ether */\n      lt\n      iszero\n        /* \"Solidity Basic Projects/Lottery.sol\":301:363  require(msg.value >= 1 ether, '1 ether needed to participate') */\n      tag_76\n      jumpi\n      mload(0x40)\n      0x08c379a000000000000000000000000000000000000000000000000000000000\n      dup2\n      mstore\n      0x04\n      add\n      tag_77\n      swap1\n      tag_78\n      jump\t// in\n    tag_77:\n      mload(0x40)\n      dup1\n      swap2\n      sub\n      swap1\n      revert\n    tag_76:\n        /* \"Solidity Basic Projects/Lottery.sol\":374:381  players */\n      0x01\n        /* \"Solidity Basic Projects/Lottery.sol\":395:405  msg.sender */\n      caller\n        /* \"Solidity Basic Projects/Lottery.sol\":374:407  players.push(payable(msg.sender)) */\n      swap1\n      dup1\n      0x01\n      dup2\n      sload\n      add\n      dup1\n      dup3\n      sstore\n      dup1\n      swap2\n      pop\n      pop\n      0x01\n      swap1\n      sub\n      swap1\n      0x00\n      mstore\n      keccak256(0x00, 0x20)\n      add\n      0x00\n      swap1\n      swap2\n      swap1\n      swap2\n      swap1\n      swap2\n      0x0100\n      exp\n      dup2\n      sload\n      dup2\n      0xffffffffffffffffffffffffffffffffffffffff\n      mul\n      not\n      and\n      swap1\n      dup4\n      0xffffffffffffffffffffffffffffffffffffffff\n      and\n      mul\n      or\n      swap1\n      sstore\n      pop\n        /* \"Solidity Basic Projects/Lottery.sol\":252:415  function participate() public payable {... */\n      jump\t// out\n        /* \"Solidity Basic Projects/Lottery.sol\":152:181  address payable public winner */\n    tag_32:\n      0x02\n      0x00\n      swap1\n      sload\n      swap1\n      0x0100\n      exp\n      swap1\n      div\n      0xffffffffffffffffffffffffffffffffffffffff\n      and\n      dup2\n      jump\t// out\n        /* \"Solidity Basic Projects/Lottery.sol\":423:528  function getAllPlayers() public view returns (address payable[] memory) {... */\n    tag_37:\n        /* \"Solidity Basic Projects/Lottery.sol\":469:493  address payable[] memory */\n      0x60\n        /* \"Solidity Basic Projects/Lottery.sol\":513:520  players */\n      0x01\n        /* \"Solidity Basic Projects/Lottery.sol\":506:520  return players */\n      dup1\n      sload\n      dup1\n      0x20\n      mul\n      0x20\n      add\n      mload(0x40)\n      swap1\n      dup2\n      add\n      0x40\n      mstore\n      dup1\n      swap3\n      swap2\n      swap1\n      dup2\n      dup2\n      mstore\n      0x20\n      add\n      dup3\n      dup1\n      sload\n      dup1\n      iszero\n      tag_81\n      jumpi\n      0x20\n      mul\n      dup3\n      add\n      swap2\n      swap1\n      0x00\n      mstore\n      keccak256(0x00, 0x20)\n      swap1\n    tag_82:\n      dup2\n      0x00\n      swap1\n      sload\n      swap1\n      0x0100\n      exp\n      swap1\n      div\n      0xffffffffffffffffffffffffffffffffffffffff\n      and\n      0xffffffffffffffffffffffffffffffffffffffff\n      and\n      dup2\n      mstore\n      0x20\n      add\n      swap1\n      0x01\n      add\n      swap1\n      dup1\n      dup4\n      gt\n      tag_82\n      jumpi\n    tag_81:\n      pop\n      pop\n      pop\n      pop\n      pop\n      swap1\n      pop\n        /* \"Solidity Basic Projects/Lottery.sol\":423:528  function getAllPlayers() public view returns (address payable[] memory) {... */\n      swap1\n      jump\t// out\n        /* \"Solidity Basic Projects/Lottery.sol\":113:145  address payable[] public players */\n    tag_44:\n      0x01\n      dup2\n      dup2\n      sload\n      dup2\n      lt\n      tag_83\n      jumpi\n      0x00\n      dup1\n      revert\n    tag_83:\n      swap1\n      0x00\n      mstore\n      keccak256(0x00, 0x20)\n      add\n      0x00\n      swap2\n      pop\n      sload\n      swap1\n      0x0100\n      exp\n      swap1\n      div\n      0xffffffffffffffffffffffffffffffffffffffff\n      and\n      dup2\n      jump\t// out\n    tag_71:\n      dup3\n      dup1\n      sload\n      dup3\n      dup3\n      sstore\n      swap1\n      0x00\n      mstore\n      keccak256(0x00, 0x20)\n      swap1\n      dup2\n      add\n      swap3\n      dup3\n      iszero\n      tag_85\n      jumpi\n      swap2\n      0x20\n      mul\n      dup3\n      add\n    tag_86:\n      dup3\n      dup2\n      gt\n      iszero\n      tag_87\n      jumpi\n      dup3\n      mload\n      dup3\n      exp(0x0100, 0x00)\n      dup2\n      sload\n      dup2\n      0xffffffffffffffffffffffffffffffffffffffff\n      mul\n      not\n      and\n      swap1\n      dup4\n      0xffffffffffffffffffffffffffffffffffffffff\n      and\n      mul\n      or\n      swap1\n      sstore\n      pop\n      swap2\n      0x20\n      add\n      swap2\n      swap1\n      0x01\n      add\n      swap1\n      jump(tag_86)\n    tag_87:\n    tag_85:\n      pop\n      swap1\n      pop\n      tag_88\n      swap2\n      swap1\n      tag_89\n      jump\t// in\n    tag_88:\n      pop\n      swap1\n      jump\t// out\n    tag_89:\n    tag_90:\n      dup1\n      dup3\n      gt\n      iszero\n      tag_91\n      jumpi\n      0x00\n      dup2\n      0x00\n      swap1\n      sstore\n      pop\n      0x01\n      add\n      jump(tag_90)\n    tag_91:\n      pop\n      swap1\n      jump\t// out\n        /* \"#utility.yul\":7:84   */\n    tag_92:\n        /* \"#utility.yul\":44:51   */\n      0x00\n        /* \"#utility.yul\":73:78   */\n      dup2\n        /* \"#utility.yul\":62:78   */\n      swap1\n      pop\n        /* \"#utility.yul\":7:84   */\n      swap2\n      swap1\n      pop\n      jump\t// out\n        /* \"#utility.yul\":90:208   */\n    tag_93:\n        /* \"#utility.yul\":177:201   */\n      tag_124\n        /* \"#utility.yul\":195:200   */\n      dup2\n        /* \"#utility.yul\":177:201   */\n      tag_92\n      jump\t// in\n    tag_124:\n        /* \"#utility.yul\":172:175   */\n      dup3\n        /* \"#utility.yul\":165:202   */\n      mstore\n        /* \"#utility.yul\":90:208   */\n      pop\n      pop\n      jump\t// out\n        /* \"#utility.yul\":214:436   */\n    tag_15:\n        /* \"#utility.yul\":307:311   */\n      0x00\n        /* \"#utility.yul\":345:347   */\n      0x20\n        /* \"#utility.yul\":334:343   */\n      dup3\n        /* \"#utility.yul\":330:348   */\n      add\n        /* \"#utility.yul\":322:348   */\n      swap1\n      pop\n        /* \"#utility.yul\":358:429   */\n      tag_126\n        /* \"#utility.yul\":426:427   */\n      0x00\n        /* \"#utility.yul\":415:424   */\n      dup4\n        /* \"#utility.yul\":411:428   */\n      add\n        /* \"#utility.yul\":402:408   */\n      dup5\n        /* \"#utility.yul\":358:429   */\n      tag_93\n      jump\t// in\n    tag_126:\n        /* \"#utility.yul\":214:436   */\n      swap3\n      swap2\n      pop\n      pop\n      jump\t// out\n        /* \"#utility.yul\":442:568   */\n    tag_94:\n        /* \"#utility.yul\":479:486   */\n      0x00\n        /* \"#utility.yul\":519:561   */\n      0xffffffffffffffffffffffffffffffffffffffff\n        /* \"#utility.yul\":512:517   */\n      dup3\n        /* \"#utility.yul\":508:562   */\n      and\n        /* \"#utility.yul\":497:562   */\n      swap1\n      pop\n        /* \"#utility.yul\":442:568   */\n      swap2\n      swap1\n      pop\n      jump\t// out\n        /* \"#utility.yul\":574:670   */\n    tag_95:\n        /* \"#utility.yul\":611:618   */\n      0x00\n        /* \"#utility.yul\":640:664   */\n      tag_129\n        /* \"#utility.yul\":658:663   */\n      dup3\n        /* \"#utility.yul\":640:664   */\n      tag_94\n      jump\t// in\n    tag_129:\n        /* \"#utility.yul\":629:664   */\n      swap1\n      pop\n        /* \"#utility.yul\":574:670   */\n      swap2\n      swap1\n      pop\n      jump\t// out\n        /* \"#utility.yul\":676:794   */\n    tag_96:\n        /* \"#utility.yul\":763:787   */\n      tag_131\n        /* \"#utility.yul\":781:786   */\n      dup2\n        /* \"#utility.yul\":763:787   */\n      tag_95\n      jump\t// in\n    tag_131:\n        /* \"#utility.yul\":758:761   */\n      dup3\n        /* \"#utility.yul\":751:788   */\n      mstore\n        /* \"#utility.yul\":676:794   */\n      pop\n      pop\n      jump\t// out\n        /* \"#utility.yul\":800:1022   */\n    tag_20:\n        /* \"#utility.yul\":893:897   */\n      0x00\n        /* \"#utility.yul\":931:933   */\n      0x20\n        /* \"#utility.yul\":920:929   */\n      dup3\n        /* \"#utility.yul\":916:934   */\n      add\n        /* \"#utility.yul\":908:934   */\n      swap1\n      pop\n        /* \"#utility.yul\":944:1015   */\n      tag_133\n        /* \"#utility.yul\":1012:1013   */\n      0x00\n        /* \"#utility.yul\":1001:1010   */\n      dup4\n        /* \"#utility.yul\":997:1014   */\n      add\n        /* \"#utility.yul\":988:994   */\n      dup5\n        /* \"#utility.yul\":944:1015   */\n      tag_96\n      jump\t// in\n    tag_133:\n        /* \"#utility.yul\":800:1022   */\n      swap3\n      swap2\n      pop\n      pop\n      jump\t// out\n        /* \"#utility.yul\":1028:1132   */\n    tag_97:\n        /* \"#utility.yul\":1073:1080   */\n      0x00\n        /* \"#utility.yul\":1102:1126   */\n      tag_135\n        /* \"#utility.yul\":1120:1125   */\n      dup3\n        /* \"#utility.yul\":1102:1126   */\n      tag_94\n      jump\t// in\n    tag_135:\n        /* \"#utility.yul\":1091:1126   */\n      swap1\n      pop\n        /* \"#utility.yul\":1028:1132   */\n      swap2\n      swap1\n      pop\n      jump\t// out\n        /* \"#utility.yul\":1138:1280   */\n    tag_98:\n        /* \"#utility.yul\":1241:1273   */\n      tag_137\n        /* \"#utility.yul\":1267:1272   */\n      dup2\n        /* \"#utility.yul\":1241:1273   */\n      tag_97\n      jump\t// in\n    tag_137:\n        /* \"#utility.yul\":1236:1239   */\n      dup3\n        /* \"#utility.yul\":1229:1274   */\n      mstore\n        /* \"#utility.yul\":1138:1280   */\n      pop\n      pop\n      jump\t// out\n        /* \"#utility.yul\":1286:1540   */\n    tag_34:\n        /* \"#utility.yul\":1395:1399   */\n      0x00\n        /* \"#utility.yul\":1433:1435   */\n      0x20\n        /* \"#utility.yul\":1422:1431   */\n      dup3\n        /* \"#utility.yul\":1418:1436   */\n      add\n        /* \"#utility.yul\":1410:1436   */\n      swap1\n      pop\n        /* \"#utility.yul\":1446:1533   */\n      tag_139\n        /* \"#utility.yul\":1530:1531   */\n      0x00\n        /* \"#utility.yul\":1519:1528   */\n      dup4\n        /* \"#utility.yul\":1515:1532   */\n      add\n        /* \"#utility.yul\":1506:1512   */\n      dup5\n        /* \"#utility.yul\":1446:1533   */\n      tag_98\n      jump\t// in\n    tag_139:\n        /* \"#utility.yul\":1286:1540   */\n      swap3\n      swap2\n      pop\n      pop\n      jump\t// out\n        /* \"#utility.yul\":1546:1668   */\n    tag_99:\n        /* \"#utility.yul\":1621:1627   */\n      0x00\n        /* \"#utility.yul\":1655:1660   */\n      dup2\n        /* \"#utility.yul\":1649:1661   */\n      mload\n        /* \"#utility.yul\":1639:1661   */\n      swap1\n      pop\n        /* \"#utility.yul\":1546:1668   */\n      swap2\n      swap1\n      pop\n      jump\t// out\n        /* \"#utility.yul\":1674:1866   */\n    tag_100:\n        /* \"#utility.yul\":1781:1792   */\n      0x00\n        /* \"#utility.yul\":1815:1821   */\n      dup3\n        /* \"#utility.yul\":1810:1813   */\n      dup3\n        /* \"#utility.yul\":1803:1822   */\n      mstore\n        /* \"#utility.yul\":1855:1859   */\n      0x20\n        /* \"#utility.yul\":1850:1853   */\n      dup3\n        /* \"#utility.yul\":1846:1860   */\n      add\n        /* \"#utility.yul\":1831:1860   */\n      swap1\n      pop\n        /* \"#utility.yul\":1674:1866   */\n      swap3\n      swap2\n      pop\n      pop\n      jump\t// out\n        /* \"#utility.yul\":1872:2012   */\n    tag_101:\n        /* \"#utility.yul\":1947:1951   */\n      0x00\n        /* \"#utility.yul\":1970:1973   */\n      dup2\n        /* \"#utility.yul\":1962:1973   */\n      swap1\n      pop\n        /* \"#utility.yul\":2000:2004   */\n      0x20\n        /* \"#utility.yul\":1995:1998   */\n      dup3\n        /* \"#utility.yul\":1991:2005   */\n      add\n        /* \"#utility.yul\":1983:2005   */\n      swap1\n      pop\n        /* \"#utility.yul\":1872:2012   */\n      swap2\n      swap1\n      pop\n      jump\t// out\n        /* \"#utility.yul\":2018:2150   */\n    tag_102:\n        /* \"#utility.yul\":2111:2143   */\n      tag_144\n        /* \"#utility.yul\":2137:2142   */\n      dup2\n        /* \"#utility.yul\":2111:2143   */\n      tag_97\n      jump\t// in\n    tag_144:\n        /* \"#utility.yul\":2106:2109   */\n      dup3\n        /* \"#utility.yul\":2099:2144   */\n      mstore\n        /* \"#utility.yul\":2018:2150   */\n      pop\n      pop\n      jump\t// out\n        /* \"#utility.yul\":2156:2367   */\n    tag_103:\n        /* \"#utility.yul\":2241:2251   */\n      0x00\n        /* \"#utility.yul\":2262:2324   */\n      tag_146\n        /* \"#utility.yul\":2320:2323   */\n      dup4\n        /* \"#utility.yul\":2312:2318   */\n      dup4\n        /* \"#utility.yul\":2262:2324   */\n      tag_102\n      jump\t// in\n    tag_146:\n        /* \"#utility.yul\":2356:2360   */\n      0x20\n        /* \"#utility.yul\":2351:2354   */\n      dup4\n        /* \"#utility.yul\":2347:2361   */\n      add\n        /* \"#utility.yul\":2333:2361   */\n      swap1\n      pop\n        /* \"#utility.yul\":2156:2367   */\n      swap3\n      swap2\n      pop\n      pop\n      jump\t// out\n        /* \"#utility.yul\":2373:2494   */\n    tag_104:\n        /* \"#utility.yul\":2451:2455   */\n      0x00\n        /* \"#utility.yul\":2483:2487   */\n      0x20\n        /* \"#utility.yul\":2478:2481   */\n      dup3\n        /* \"#utility.yul\":2474:2488   */\n      add\n        /* \"#utility.yul\":2466:2488   */\n      swap1\n      pop\n        /* \"#utility.yul\":2373:2494   */\n      swap2\n      swap1\n      pop\n      jump\t// out\n        /* \"#utility.yul\":2546:3342   */\n    tag_105:\n        /* \"#utility.yul\":2681:2684   */\n      0x00\n        /* \"#utility.yul\":2710:2772   */\n      tag_149\n        /* \"#utility.yul\":2766:2771   */\n      dup3\n        /* \"#utility.yul\":2710:2772   */\n      tag_99\n      jump\t// in\n    tag_149:\n        /* \"#utility.yul\":2788:2882   */\n      tag_150\n        /* \"#utility.yul\":2875:2881   */\n      dup2\n        /* \"#utility.yul\":2870:2873   */\n      dup6\n        /* \"#utility.yul\":2788:2882   */\n      tag_100\n      jump\t// in\n    tag_150:\n        /* \"#utility.yul\":2781:2882   */\n      swap4\n      pop\n        /* \"#utility.yul\":2906:2970   */\n      tag_151\n        /* \"#utility.yul\":2964:2969   */\n      dup4\n        /* \"#utility.yul\":2906:2970   */\n      tag_101\n      jump\t// in\n    tag_151:\n        /* \"#utility.yul\":2993:3000   */\n      dup1\n        /* \"#utility.yul\":3024:3025   */\n      0x00\n        /* \"#utility.yul\":3009:3317   */\n    tag_152:\n        /* \"#utility.yul\":3034:3040   */\n      dup4\n        /* \"#utility.yul\":3031:3032   */\n      dup2\n        /* \"#utility.yul\":3028:3041   */\n      lt\n        /* \"#utility.yul\":3009:3317   */\n      iszero\n      tag_154\n      jumpi\n        /* \"#utility.yul\":3110:3116   */\n      dup2\n        /* \"#utility.yul\":3104:3117   */\n      mload\n        /* \"#utility.yul\":3137:3216   */\n      tag_155\n        /* \"#utility.yul\":3212:3215   */\n      dup9\n        /* \"#utility.yul\":3197:3210   */\n      dup3\n        /* \"#utility.yul\":3137:3216   */\n      tag_103\n      jump\t// in\n    tag_155:\n        /* \"#utility.yul\":3130:3216   */\n      swap8\n      pop\n        /* \"#utility.yul\":3239:3307   */\n      tag_156\n        /* \"#utility.yul\":3300:3306   */\n      dup4\n        /* \"#utility.yul\":3239:3307   */\n      tag_104\n      jump\t// in\n    tag_156:\n        /* \"#utility.yul\":3229:3307   */\n      swap3\n      pop\n        /* \"#utility.yul\":3069:3317   */\n      pop\n        /* \"#utility.yul\":3056:3057   */\n      0x01\n        /* \"#utility.yul\":3053:3054   */\n      dup2\n        /* \"#utility.yul\":3049:3058   */\n      add\n        /* \"#utility.yul\":3044:3058   */\n      swap1\n      pop\n        /* \"#utility.yul\":3009:3317   */\n      jump(tag_152)\n    tag_154:\n        /* \"#utility.yul\":3013:3027   */\n      pop\n        /* \"#utility.yul\":3333:3336   */\n      dup6\n        /* \"#utility.yul\":3326:3336   */\n      swap4\n      pop\n        /* \"#utility.yul\":2686:3342   */\n      pop\n      pop\n      pop\n        /* \"#utility.yul\":2546:3342   */\n      swap3\n      swap2\n      pop\n      pop\n      jump\t// out\n        /* \"#utility.yul\":3348:3753   */\n    tag_39:\n        /* \"#utility.yul\":3507:3511   */\n      0x00\n        /* \"#utility.yul\":3545:3547   */\n      0x20\n        /* \"#utility.yul\":3534:3543   */\n      dup3\n        /* \"#utility.yul\":3530:3548   */\n      add\n        /* \"#utility.yul\":3522:3548   */\n      swap1\n      pop\n        /* \"#utility.yul\":3594:3603   */\n      dup2\n        /* \"#utility.yul\":3588:3592   */\n      dup2\n        /* \"#utility.yul\":3584:3604   */\n      sub\n        /* \"#utility.yul\":3580:3581   */\n      0x00\n        /* \"#utility.yul\":3569:3578   */\n      dup4\n        /* \"#utility.yul\":3565:3582   */\n      add\n        /* \"#utility.yul\":3558:3605   */\n      mstore\n        /* \"#utility.yul\":3622:3746   */\n      tag_158\n        /* \"#utility.yul\":3741:3745   */\n      dup2\n        /* \"#utility.yul\":3732:3738   */\n      dup5\n        /* \"#utility.yul\":3622:3746   */\n      tag_105\n      jump\t// in\n    tag_158:\n        /* \"#utility.yul\":3614:3746   */\n      swap1\n      pop\n        /* \"#utility.yul\":3348:3753   */\n      swap3\n      swap2\n      pop\n      pop\n      jump\t// out\n        /* \"#utility.yul\":3840:3957   */\n    tag_107:\n        /* \"#utility.yul\":3949:3950   */\n      0x00\n        /* \"#utility.yul\":3946:3947   */\n      dup1\n        /* \"#utility.yul\":3939:3951   */\n      revert\n        /* \"#utility.yul\":4086:4208   */\n    tag_109:\n        /* \"#utility.yul\":4159:4183   */\n      tag_163\n        /* \"#utility.yul\":4177:4182   */\n      dup2\n        /* \"#utility.yul\":4159:4183   */\n      tag_92\n      jump\t// in\n    tag_163:\n        /* \"#utility.yul\":4152:4157   */\n      dup2\n        /* \"#utility.yul\":4149:4184   */\n      eq\n        /* \"#utility.yul\":4139:4202   */\n      tag_164\n      jumpi\n        /* \"#utility.yul\":4198:4199   */\n      0x00\n        /* \"#utility.yul\":4195:4196   */\n      dup1\n        /* \"#utility.yul\":4188:4200   */\n      revert\n        /* \"#utility.yul\":4139:4202   */\n    tag_164:\n        /* \"#utility.yul\":4086:4208   */\n      pop\n      jump\t// out\n        /* \"#utility.yul\":4214:4353   */\n    tag_110:\n        /* \"#utility.yul\":4260:4265   */\n      0x00\n        /* \"#utility.yul\":4298:4304   */\n      dup2\n        /* \"#utility.yul\":4285:4305   */\n      calldataload\n        /* \"#utility.yul\":4276:4305   */\n      swap1\n      pop\n        /* \"#utility.yul\":4314:4347   */\n      tag_166\n        /* \"#utility.yul\":4341:4346   */\n      dup2\n        /* \"#utility.yul\":4314:4347   */\n      tag_109\n      jump\t// in\n    tag_166:\n        /* \"#utility.yul\":4214:4353   */\n      swap3\n      swap2\n      pop\n      pop\n      jump\t// out\n        /* \"#utility.yul\":4359:4688   */\n    tag_43:\n        /* \"#utility.yul\":4418:4424   */\n      0x00\n        /* \"#utility.yul\":4467:4469   */\n      0x20\n        /* \"#utility.yul\":4455:4464   */\n      dup3\n        /* \"#utility.yul\":4446:4453   */\n      dup5\n        /* \"#utility.yul\":4442:4465   */\n      sub\n        /* \"#utility.yul\":4438:4470   */\n      slt\n        /* \"#utility.yul\":4435:4554   */\n      iszero\n      tag_168\n      jumpi\n        /* \"#utility.yul\":4473:4552   */\n      tag_169\n      tag_107\n      jump\t// in\n    tag_169:\n        /* \"#utility.yul\":4435:4554   */\n    tag_168:\n        /* \"#utility.yul\":4593:4594   */\n      0x00\n        /* \"#utility.yul\":4618:4671   */\n      tag_170\n        /* \"#utility.yul\":4663:4670   */\n      dup5\n        /* \"#utility.yul\":4654:4660   */\n      dup3\n        /* \"#utility.yul\":4643:4652   */\n      dup6\n        /* \"#utility.yul\":4639:4661   */\n      add\n        /* \"#utility.yul\":4618:4671   */\n      tag_110\n      jump\t// in\n    tag_170:\n        /* \"#utility.yul\":4608:4671   */\n      swap2\n      pop\n        /* \"#utility.yul\":4564:4681   */\n      pop\n        /* \"#utility.yul\":4359:4688   */\n      swap3\n      swap2\n      pop\n      pop\n      jump\t// out\n        /* \"#utility.yul\":4694:4863   */\n    tag_111:\n        /* \"#utility.yul\":4778:4789   */\n      0x00\n        /* \"#utility.yul\":4812:4818   */\n      dup3\n        /* \"#utility.yul\":4807:4810   */\n      dup3\n        /* \"#utility.yul\":4800:4819   */\n      mstore\n        /* \"#utility.yul\":4852:4856   */\n      0x20\n        /* \"#utility.yul\":4847:4850   */\n      dup3\n        /* \"#utility.yul\":4843:4857   */\n      add\n        /* \"#utility.yul\":4828:4857   */\n      swap1\n      pop\n        /* \"#utility.yul\":4694:4863   */\n      swap3\n      swap2\n      pop\n      pop\n      jump\t// out\n        /* \"#utility.yul\":4869:5033   */\n    tag_112:\n        /* \"#utility.yul\":5009:5025   */\n      0x4e6f7420417574686f72697a6564000000000000000000000000000000000000\n        /* \"#utility.yul\":5005:5006   */\n      0x00\n        /* \"#utility.yul\":4997:5003   */\n      dup3\n        /* \"#utility.yul\":4993:5007   */\n      add\n        /* \"#utility.yul\":4986:5026   */\n      mstore\n        /* \"#utility.yul\":4869:5033   */\n      pop\n      jump\t// out\n        /* \"#utility.yul\":5039:5405   */\n    tag_113:\n        /* \"#utility.yul\":5181:5184   */\n      0x00\n        /* \"#utility.yul\":5202:5269   */\n      tag_174\n        /* \"#utility.yul\":5266:5268   */\n      0x0e\n        /* \"#utility.yul\":5261:5264   */\n      dup4\n        /* \"#utility.yul\":5202:5269   */\n      tag_111\n      jump\t// in\n    tag_174:\n        /* \"#utility.yul\":5195:5269   */\n      swap2\n      pop\n        /* \"#utility.yul\":5278:5371   */\n      tag_175\n        /* \"#utility.yul\":5367:5370   */\n      dup3\n        /* \"#utility.yul\":5278:5371   */\n      tag_112\n      jump\t// in\n    tag_175:\n        /* \"#utility.yul\":5396:5398   */\n      0x20\n        /* \"#utility.yul\":5391:5394   */\n      dup3\n        /* \"#utility.yul\":5387:5399   */\n      add\n        /* \"#utility.yul\":5380:5399   */\n      swap1\n      pop\n        /* \"#utility.yul\":5039:5405   */\n      swap2\n      swap1\n      pop\n      jump\t// out\n        /* \"#utility.yul\":5411:5830   */\n    tag_49:\n        /* \"#utility.yul\":5577:5581   */\n      0x00\n        /* \"#utility.yul\":5615:5617   */\n      0x20\n        /* \"#utility.yul\":5604:5613   */\n      dup3\n        /* \"#utility.yul\":5600:5618   */\n      add\n        /* \"#utility.yul\":5592:5618   */\n      swap1\n      pop\n        /* \"#utility.yul\":5664:5673   */\n      dup2\n        /* \"#utility.yul\":5658:5662   */\n      dup2\n        /* \"#utility.yul\":5654:5674   */\n      sub\n        /* \"#utility.yul\":5650:5651   */\n      0x00\n        /* \"#utility.yul\":5639:5648   */\n      dup4\n        /* \"#utility.yul\":5635:5652   */\n      add\n        /* \"#utility.yul\":5628:5675   */\n      mstore\n        /* \"#utility.yul\":5692:5823   */\n      tag_177\n        /* \"#utility.yul\":5818:5822   */\n      dup2\n        /* \"#utility.yul\":5692:5823   */\n      tag_113\n      jump\t// in\n    tag_177:\n        /* \"#utility.yul\":5684:5823   */\n      swap1\n      pop\n        /* \"#utility.yul\":5411:5830   */\n      swap2\n      swap1\n      pop\n      jump\t// out\n        /* \"#utility.yul\":5836:6014   */\n    tag_114:\n        /* \"#utility.yul\":5976:6006   */\n      0x41746c65617374203320706c617965727320617265206e656564656400000000\n        /* \"#utility.yul\":5972:5973   */\n      0x00\n        /* \"#utility.yul\":5964:5970   */\n      dup3\n        /* \"#utility.yul\":5960:5974   */\n      add\n        /* \"#utility.yul\":5953:6007   */\n      mstore\n        /* \"#utility.yul\":5836:6014   */\n      pop\n      jump\t// out\n        /* \"#utility.yul\":6020:6386   */\n    tag_115:\n        /* \"#utility.yul\":6162:6165   */\n      0x00\n        /* \"#utility.yul\":6183:6250   */\n      tag_180\n        /* \"#utility.yul\":6247:6249   */\n      0x1c\n        /* \"#utility.yul\":6242:6245   */\n      dup4\n        /* \"#utility.yul\":6183:6250   */\n      tag_111\n      jump\t// in\n    tag_180:\n        /* \"#utility.yul\":6176:6250   */\n      swap2\n      pop\n        /* \"#utility.yul\":6259:6352   */\n      tag_181\n        /* \"#utility.yul\":6348:6351   */\n      dup3\n        /* \"#utility.yul\":6259:6352   */\n      tag_114\n      jump\t// in\n    tag_181:\n        /* \"#utility.yul\":6377:6379   */\n      0x20\n        /* \"#utility.yul\":6372:6375   */\n      dup3\n        /* \"#utility.yul\":6368:6380   */\n      add\n        /* \"#utility.yul\":6361:6380   */\n      swap1\n      pop\n        /* \"#utility.yul\":6020:6386   */\n      swap2\n      swap1\n      pop\n      jump\t// out\n        /* \"#utility.yul\":6392:6811   */\n    tag_55:\n        /* \"#utility.yul\":6558:6562   */\n      0x00\n        /* \"#utility.yul\":6596:6598   */\n      0x20\n        /* \"#utility.yul\":6585:6594   */\n      dup3\n        /* \"#utility.yul\":6581:6599   */\n      add\n        /* \"#utility.yul\":6573:6599   */\n      swap1\n      pop\n        /* \"#utility.yul\":6645:6654   */\n      dup2\n        /* \"#utility.yul\":6639:6643   */\n      dup2\n        /* \"#utility.yul\":6635:6655   */\n      sub\n        /* \"#utility.yul\":6631:6632   */\n      0x00\n        /* \"#utility.yul\":6620:6629   */\n      dup4\n        /* \"#utility.yul\":6616:6633   */\n      add\n        /* \"#utility.yul\":6609:6656   */\n      mstore\n        /* \"#utility.yul\":6673:6804   */\n      tag_183\n        /* \"#utility.yul\":6799:6803   */\n      dup2\n        /* \"#utility.yul\":6673:6804   */\n      tag_115\n      jump\t// in\n    tag_183:\n        /* \"#utility.yul\":6665:6804   */\n      swap1\n      pop\n        /* \"#utility.yul\":6392:6811   */\n      swap2\n      swap1\n      pop\n      jump\t// out\n        /* \"#utility.yul\":6817:6997   */\n    tag_116:\n        /* \"#utility.yul\":6865:6942   */\n      0x4e487b7100000000000000000000000000000000000000000000000000000000\n        /* \"#utility.yul\":6862:6863   */\n      0x00\n        /* \"#utility.yul\":6855:6943   */\n      mstore\n        /* \"#utility.yul\":6962:6966   */\n      0x12\n        /* \"#utility.yul\":6959:6960   */\n      0x04\n        /* \"#utility.yul\":6952:6967   */\n      mstore\n        /* \"#utility.yul\":6986:6990   */\n      0x24\n        /* \"#utility.yul\":6983:6984   */\n      0x00\n        /* \"#utility.yul\":6976:6991   */\n      revert\n        /* \"#utility.yul\":7003:7179   */\n    tag_58:\n        /* \"#utility.yul\":7035:7036   */\n      0x00\n        /* \"#utility.yul\":7052:7072   */\n      tag_186\n        /* \"#utility.yul\":7070:7071   */\n      dup3\n        /* \"#utility.yul\":7052:7072   */\n      tag_92\n      jump\t// in\n    tag_186:\n        /* \"#utility.yul\":7047:7072   */\n      swap2\n      pop\n        /* \"#utility.yul\":7086:7106   */\n      tag_187\n        /* \"#utility.yul\":7104:7105   */\n      dup4\n        /* \"#utility.yul\":7086:7106   */\n      tag_92\n      jump\t// in\n    tag_187:\n        /* \"#utility.yul\":7081:7106   */\n      swap3\n      pop\n        /* \"#utility.yul\":7125:7126   */\n      dup3\n        /* \"#utility.yul\":7115:7150   */\n      tag_188\n      jumpi\n        /* \"#utility.yul\":7130:7148   */\n      tag_189\n      tag_116\n      jump\t// in\n    tag_189:\n        /* \"#utility.yul\":7115:7150   */\n    tag_188:\n        /* \"#utility.yul\":7171:7172   */\n      dup3\n        /* \"#utility.yul\":7168:7169   */\n      dup3\n        /* \"#utility.yul\":7164:7173   */\n      mod\n        /* \"#utility.yul\":7159:7173   */\n      swap1\n      pop\n        /* \"#utility.yul\":7003:7179   */\n      swap3\n      swap2\n      pop\n      pop\n      jump\t// out\n        /* \"#utility.yul\":7185:7365   */\n    tag_61:\n        /* \"#utility.yul\":7233:7310   */\n      0x4e487b7100000000000000000000000000000000000000000000000000000000\n        /* \"#utility.yul\":7230:7231   */\n      0x00\n        /* \"#utility.yul\":7223:7311   */\n      mstore\n        /* \"#utility.yul\":7330:7334   */\n      0x32\n        /* \"#utility.yul\":7327:7328   */\n      0x04\n        /* \"#utility.yul\":7320:7335   */\n      mstore\n        /* \"#utility.yul\":7354:7358   */\n      0x24\n        /* \"#utility.yul\":7351:7352   */\n      0x00\n        /* \"#utility.yul\":7344:7359   */\n      revert\n        /* \"#utility.yul\":7371:7551   */\n    tag_68:\n        /* \"#utility.yul\":7419:7496   */\n      0x4e487b7100000000000000000000000000000000000000000000000000000000\n        /* \"#utility.yul\":7416:7417   */\n      0x00\n        /* \"#utility.yul\":7409:7497   */\n      mstore\n        /* \"#utility.yul\":7516:7520   */\n      0x41\n        /* \"#utility.yul\":7513:7514   */\n      0x04\n        /* \"#utility.yul\":7506:7521   */\n      mstore\n        /* \"#utility.yul\":7540:7544   */\n      0x24\n        /* \"#utility.yul\":7537:7538   */\n      0x00\n        /* \"#utility.yul\":7530:7545   */\n      revert\n        /* \"#utility.yul\":7557:7636   */\n    tag_117:\n        /* \"#utility.yul\":7596:7603   */\n      0x00\n        /* \"#utility.yul\":7625:7630   */\n      dup2\n        /* \"#utility.yul\":7614:7630   */\n      swap1\n      pop\n        /* \"#utility.yul\":7557:7636   */\n      swap2\n      swap1\n      pop\n      jump\t// out\n        /* \"#utility.yul\":7642:7799   */\n    tag_118:\n        /* \"#utility.yul\":7747:7792   */\n      tag_194\n        /* \"#utility.yul\":7767:7791   */\n      tag_195\n        /* \"#utility.yul\":7785:7790   */\n      dup3\n        /* \"#utility.yul\":7767:7791   */\n      tag_92\n      jump\t// in\n    tag_195:\n        /* \"#utility.yul\":7747:7792   */\n      tag_117\n      jump\t// in\n    tag_194:\n        /* \"#utility.yul\":7742:7745   */\n      dup3\n        /* \"#utility.yul\":7735:7793   */\n      mstore\n        /* \"#utility.yul\":7642:7799   */\n      pop\n      pop\n      jump\t// out\n        /* \"#utility.yul\":7805:8343   */\n    tag_74:\n        /* \"#utility.yul\":7973:7976   */\n      0x00\n        /* \"#utility.yul\":7988:8063   */\n      tag_197\n        /* \"#utility.yul\":8059:8062   */\n      dup3\n        /* \"#utility.yul\":8050:8056   */\n      dup7\n        /* \"#utility.yul\":7988:8063   */\n      tag_118\n      jump\t// in\n    tag_197:\n        /* \"#utility.yul\":8088:8090   */\n      0x20\n        /* \"#utility.yul\":8083:8086   */\n      dup3\n        /* \"#utility.yul\":8079:8091   */\n      add\n        /* \"#utility.yul\":8072:8091   */\n      swap2\n      pop\n        /* \"#utility.yul\":8101:8176   */\n      tag_198\n        /* \"#utility.yul\":8172:8175   */\n      dup3\n        /* \"#utility.yul\":8163:8169   */\n      dup6\n        /* \"#utility.yul\":8101:8176   */\n      tag_118\n      jump\t// in\n    tag_198:\n        /* \"#utility.yul\":8201:8203   */\n      0x20\n        /* \"#utility.yul\":8196:8199   */\n      dup3\n        /* \"#utility.yul\":8192:8204   */\n      add\n        /* \"#utility.yul\":8185:8204   */\n      swap2\n      pop\n        /* \"#utility.yul\":8214:8289   */\n      tag_199\n        /* \"#utility.yul\":8285:8288   */\n      dup3\n        /* \"#utility.yul\":8276:8282   */\n      dup5\n        /* \"#utility.yul\":8214:8289   */\n      tag_118\n      jump\t// in\n    tag_199:\n        /* \"#utility.yul\":8314:8316   */\n      0x20\n        /* \"#utility.yul\":8309:8312   */\n      dup3\n        /* \"#utility.yul\":8305:8317   */\n      add\n        /* \"#utility.yul\":8298:8317   */\n      swap2\n      pop\n        /* \"#utility.yul\":8334:8337   */\n      dup2\n        /* \"#utility.yul\":8327:8337   */\n      swap1\n      pop\n        /* \"#utility.yul\":7805:8343   */\n      swap5\n      swap4\n      pop\n      pop\n      pop\n      pop\n      jump\t// out\n        /* \"#utility.yul\":8349:8528   */\n    tag_119:\n        /* \"#utility.yul\":8489:8520   */\n      0x31206574686572206e656564656420746f207061727469636970617465000000\n        /* \"#utility.yul\":8485:8486   */\n      0x00\n        /* \"#utility.yul\":8477:8483   */\n      dup3\n        /* \"#utility.yul\":8473:8487   */\n      add\n        /* \"#utility.yul\":8466:8521   */\n      mstore\n        /* \"#utility.yul\":8349:8528   */\n      pop\n      jump\t// out\n        /* \"#utility.yul\":8534:8900   */\n    tag_120:\n        /* \"#utility.yul\":8676:8679   */\n      0x00\n        /* \"#utility.yul\":8697:8764   */\n      tag_202\n        /* \"#utility.yul\":8761:8763   */\n      0x1d\n        /* \"#utility.yul\":8756:8759   */\n      dup4\n        /* \"#utility.yul\":8697:8764   */\n      tag_111\n      jump\t// in\n    tag_202:\n        /* \"#utility.yul\":8690:8764   */\n      swap2\n      pop\n        /* \"#utility.yul\":8773:8866   */\n      tag_203\n        /* \"#utility.yul\":8862:8865   */\n      dup3\n        /* \"#utility.yul\":8773:8866   */\n      tag_119\n      jump\t// in\n    tag_203:\n        /* \"#utility.yul\":8891:8893   */\n      0x20\n        /* \"#utility.yul\":8886:8889   */\n      dup3\n        /* \"#utility.yul\":8882:8894   */\n      add\n        /* \"#utility.yul\":8875:8894   */\n      swap1\n      pop\n        /* \"#utility.yul\":8534:8900   */\n      swap2\n      swap1\n      pop\n      jump\t// out\n        /* \"#utility.yul\":8906:9325   */\n    tag_78:\n        /* \"#utility.yul\":9072:9076   */\n      0x00\n        /* \"#utility.yul\":9110:9112   */\n      0x20\n        /* \"#utility.yul\":9099:9108   */\n      dup3\n        /* \"#utility.yul\":9095:9113   */\n      add\n        /* \"#utility.yul\":9087:9113   */\n      swap1\n      pop\n        /* \"#utility.yul\":9159:9168   */\n      dup2\n        /* \"#utility.yul\":9153:9157   */\n      dup2\n        /* \"#utility.yul\":9149:9169   */\n      sub\n        /* \"#utility.yul\":9145:9146   */\n      0x00\n        /* \"#utility.yul\":9134:9143   */\n      dup4\n        /* \"#utility.yul\":9130:9147   */\n      add\n        /* \"#utility.yul\":9123:9170   */\n      mstore\n        /* \"#utility.yul\":9187:9318   */\n      tag_205\n        /* \"#utility.yul\":9313:9317   */\n      dup2\n        /* \"#utility.yul\":9187:9318   */\n      tag_120\n      jump\t// in\n    tag_205:\n        /* \"#utility.yul\":9179:9318   */\n      swap1\n      pop\n        /* \"#utility.yul\":8906:9325   */\n      swap2\n      swap1\n      pop\n      jump\t// out\n\n    auxdata: 0xa2646970667358221220a27a94042c816b4e8dd8a9d96144413554373e2790546adf8797de73c1d0e40e64736f6c634300081a0033\n}\n",
				"bytecode": {
					"linkReferences": {},
					"object": "6080604052348015600e575f80fd5b503373ffffffffffffffffffffffffffffffffffffffff165f8054906101000a90505050610b988061003f5f395ff3fe60806040526004361061007a575f3560e01c8063d11711a21161004d578063d11711a214610112578063dfbf53ae1461011c578063efa1c48214610146578063f71d96cb146101705761007a565b806312065fe01461007e578063481c6a75146100a85780635d495aea146100d2578063ccbac9f5146100e8575b5f80fd5b348015610089575f80fd5b506100926101ac565b60405161009f919061072d565b60405180910390f35b3480156100b3575f80fd5b506100bc610241565b6040516100c99190610785565b60405180910390f35b3480156100dd575f80fd5b506100e6610264565b005b3480156100f3575f80fd5b506100fc6104a3565b604051610109919061072d565b60405180910390f35b61011a6104db565b005b348015610127575f80fd5b50610130610588565b60405161013d91906107be565b60405180910390f35b348015610151575f80fd5b5061015a6105ad565b604051610167919061088e565b60405180910390f35b34801561017b575f80fd5b50610196600480360381019061019191906108dc565b610638565b6040516101a391906107be565b60405180910390f35b5f805f9054906101000a900473ffffffffffffffffffffffffffffffffffffffff1673ffffffffffffffffffffffffffffffffffffffff163373ffffffffffffffffffffffffffffffffffffffff161461023b576040517f08c379a000000000000000000000000000000000000000000000000000000000815260040161023290610961565b60405180910390fd5b47905090565b5f8054906101000a900473ffffffffffffffffffffffffffffffffffffffff1681565b5f8054906101000a900473ffffffffffffffffffffffffffffffffffffffff1673ffffffffffffffffffffffffffffffffffffffff163373ffffffffffffffffffffffffffffffffffffffff16146102f1576040517f08c379a00000000000000000000000000000000000000000000000000000000081526004016102e890610961565b60405180910390fd5b6003600180549050101561033a576040517f08c379a0000000000000000000000000000000000000000000000000000000008152600401610331906109c9565b60405180910390fd5b5f6103436104a3565b90505f600180549050826103579190610a14565b90506001818154811061036d5761036c610a44565b5b905f5260205f20015f9054906101000a900473ffffffffffffffffffffffffffffffffffffffff1660025f6101000a81548173ffffffffffffffffffffffffffffffffffffffff021916908373ffffffffffffffffffffffffffffffffffffffff16021790555060025f9054906101000a900473ffffffffffffffffffffffffffffffffffffffff1673ffffffffffffffffffffffffffffffffffffffff166108fc6104176101ac565b90811502906040515f60405180830381858888f1935050505015801561043f573d5f803e3d5ffd5b505f67ffffffffffffffff81111561045a57610459610a71565b5b6040519080825280602002602001820160405280156104885781602001602082028036833780820191505090505b506001908051906020019061049e929190610673565b505050565b5f42446001805490506040516020016104be93929190610abe565b604051602081830303815290604052805190602001205f1c905090565b670de0b6b3a7640000341015610526576040517f08c379a000000000000000000000000000000000000000000000000000000000815260040161051d90610b44565b60405180910390fd5b600133908060018154018082558091505060019003905f5260205f20015f9091909190916101000a81548173ffffffffffffffffffffffffffffffffffffffff021916908373ffffffffffffffffffffffffffffffffffffffff160217905550565b60025f9054906101000a900473ffffffffffffffffffffffffffffffffffffffff1681565b6060600180548060200260200160405190810160405280929190818152602001828054801561062e57602002820191905f5260205f20905b815f9054906101000a900473ffffffffffffffffffffffffffffffffffffffff1673ffffffffffffffffffffffffffffffffffffffff16815260200190600101908083116105e5575b5050505050905090565b60018181548110610647575f80fd5b905f5260205f20015f915054906101000a900473ffffffffffffffffffffffffffffffffffffffff1681565b828054828255905f5260205f209081019282156106e9579160200282015b828111156106e8578251825f6101000a81548173ffffffffffffffffffffffffffffffffffffffff021916908373ffffffffffffffffffffffffffffffffffffffff16021790555091602001919060010190610691565b5b5090506106f691906106fa565b5090565b5b80821115610711575f815f9055506001016106fb565b5090565b5f819050919050565b61072781610715565b82525050565b5f6020820190506107405f83018461071e565b92915050565b5f73ffffffffffffffffffffffffffffffffffffffff82169050919050565b5f61076f82610746565b9050919050565b61077f81610765565b82525050565b5f6020820190506107985f830184610776565b92915050565b5f6107a882610746565b9050919050565b6107b88161079e565b82525050565b5f6020820190506107d15f8301846107af565b92915050565b5f81519050919050565b5f82825260208201905092915050565b5f819050602082019050919050565b6108098161079e565b82525050565b5f61081a8383610800565b60208301905092915050565b5f602082019050919050565b5f61083c826107d7565b61084681856107e1565b9350610851836107f1565b805f5b83811015610881578151610868888261080f565b975061087383610826565b925050600181019050610854565b5085935050505092915050565b5f6020820190508181035f8301526108a68184610832565b905092915050565b5f80fd5b6108bb81610715565b81146108c5575f80fd5b50565b5f813590506108d6816108b2565b92915050565b5f602082840312156108f1576108f06108ae565b5b5f6108fe848285016108c8565b91505092915050565b5f82825260208201905092915050565b7f4e6f7420417574686f72697a65640000000000000000000000000000000000005f82015250565b5f61094b600e83610907565b915061095682610917565b602082019050919050565b5f6020820190508181035f8301526109788161093f565b9050919050565b7f41746c65617374203320706c617965727320617265206e6565646564000000005f82015250565b5f6109b3601c83610907565b91506109be8261097f565b602082019050919050565b5f6020820190508181035f8301526109e0816109a7565b9050919050565b7f4e487b71000000000000000000000000000000000000000000000000000000005f52601260045260245ffd5b5f610a1e82610715565b9150610a2983610715565b925082610a3957610a386109e7565b5b828206905092915050565b7f4e487b71000000000000000000000000000000000000000000000000000000005f52603260045260245ffd5b7f4e487b71000000000000000000000000000000000000000000000000000000005f52604160045260245ffd5b5f819050919050565b610ab8610ab382610715565b610a9e565b82525050565b5f610ac98286610aa7565b602082019150610ad98285610aa7565b602082019150610ae98284610aa7565b602082019150819050949350505050565b7f31206574686572206e656564656420746f2070617274696369706174650000005f82015250565b5f610b2e601d83610907565b9150610b3982610afa565b602082019050919050565b5f6020820190508181035f830152610b5b81610b22565b905091905056fea2646970667358221220a27a94042c816b4e8dd8a9d96144413554373e2790546adf8797de73c1d0e40e64736f6c634300081a0033",
					"opcodes": "PUSH1 0x80 PUSH1 0x40 MSTORE CALLVALUE DUP1 ISZERO PUSH1 0xE JUMPI PUSH0 DUP1 REVERT JUMPDEST POP CALLER PUSH20 0xFFFFFFFFFFFFFFFFFFFFFFFFFFFFFFFFFFFFFFFF AND PUSH0 DUP1 SLOAD SWAP1 PUSH2 0x100 EXP SWAP1 POP POP POP PUSH2 0xB98 DUP1 PUSH2 0x3F PUSH0 CODECOPY PUSH0 RETURN INVALID PUSH1 0x80 PUSH1 0x40 MSTORE PUSH1 0x4 CALLDATASIZE LT PUSH2 0x7A JUMPI PUSH0 CALLDATALOAD PUSH1 0xE0 SHR DUP1 PUSH4 0xD11711A2 GT PUSH2 0x4D JUMPI DUP1 PUSH4 0xD11711A2 EQ PUSH2 0x112 JUMPI DUP1 PUSH4 0xDFBF53AE EQ PUSH2 0x11C JUMPI DUP1 PUSH4 0xEFA1C482 EQ PUSH2 0x146 JUMPI DUP1 PUSH4 0xF71D96CB EQ PUSH2 0x170 JUMPI PUSH2 0x7A JUMP JUMPDEST DUP1 PUSH4 0x12065FE0 EQ PUSH2 0x7E JUMPI DUP1 PUSH4 0x481C6A75 EQ PUSH2 0xA8 JUMPI DUP1 PUSH4 0x5D495AEA EQ PUSH2 0xD2 JUMPI DUP1 PUSH4 0xCCBAC9F5 EQ PUSH2 0xE8 JUMPI JUMPDEST PUSH0 DUP1 REVERT JUMPDEST CALLVALUE DUP1 ISZERO PUSH2 0x89 JUMPI PUSH0 DUP1 REVERT JUMPDEST POP PUSH2 0x92 PUSH2 0x1AC JUMP JUMPDEST PUSH1 0x40 MLOAD PUSH2 0x9F SWAP2 SWAP1 PUSH2 0x72D JUMP JUMPDEST PUSH1 0x40 MLOAD DUP1 SWAP2 SUB SWAP1 RETURN JUMPDEST CALLVALUE DUP1 ISZERO PUSH2 0xB3 JUMPI PUSH0 DUP1 REVERT JUMPDEST POP PUSH2 0xBC PUSH2 0x241 JUMP JUMPDEST PUSH1 0x40 MLOAD PUSH2 0xC9 SWAP2 SWAP1 PUSH2 0x785 JUMP JUMPDEST PUSH1 0x40 MLOAD DUP1 SWAP2 SUB SWAP1 RETURN JUMPDEST CALLVALUE DUP1 ISZERO PUSH2 0xDD JUMPI PUSH0 DUP1 REVERT JUMPDEST POP PUSH2 0xE6 PUSH2 0x264 JUMP JUMPDEST STOP JUMPDEST CALLVALUE DUP1 ISZERO PUSH2 0xF3 JUMPI PUSH0 DUP1 REVERT JUMPDEST POP PUSH2 0xFC PUSH2 0x4A3 JUMP JUMPDEST PUSH1 0x40 MLOAD PUSH2 0x109 SWAP2 SWAP1 PUSH2 0x72D JUMP JUMPDEST PUSH1 0x40 MLOAD DUP1 SWAP2 SUB SWAP1 RETURN JUMPDEST PUSH2 0x11A PUSH2 0x4DB JUMP JUMPDEST STOP JUMPDEST CALLVALUE DUP1 ISZERO PUSH2 0x127 JUMPI PUSH0 DUP1 REVERT JUMPDEST POP PUSH2 0x130 PUSH2 0x588 JUMP JUMPDEST PUSH1 0x40 MLOAD PUSH2 0x13D SWAP2 SWAP1 PUSH2 0x7BE JUMP JUMPDEST PUSH1 0x40 MLOAD DUP1 SWAP2 SUB SWAP1 RETURN JUMPDEST CALLVALUE DUP1 ISZERO PUSH2 0x151 JUMPI PUSH0 DUP1 REVERT JUMPDEST POP PUSH2 0x15A PUSH2 0x5AD JUMP JUMPDEST PUSH1 0x40 MLOAD PUSH2 0x167 SWAP2 SWAP1 PUSH2 0x88E JUMP JUMPDEST PUSH1 0x40 MLOAD DUP1 SWAP2 SUB SWAP1 RETURN JUMPDEST CALLVALUE DUP1 ISZERO PUSH2 0x17B JUMPI PUSH0 DUP1 REVERT JUMPDEST POP PUSH2 0x196 PUSH1 0x4 DUP1 CALLDATASIZE SUB DUP2 ADD SWAP1 PUSH2 0x191 SWAP2 SWAP1 PUSH2 0x8DC JUMP JUMPDEST PUSH2 0x638 JUMP JUMPDEST PUSH1 0x40 MLOAD PUSH2 0x1A3 SWAP2 SWAP1 PUSH2 0x7BE JUMP JUMPDEST PUSH1 0x40 MLOAD DUP1 SWAP2 SUB SWAP1 RETURN JUMPDEST PUSH0 DUP1 PUSH0 SWAP1 SLOAD SWAP1 PUSH2 0x100 EXP SWAP1 DIV PUSH20 0xFFFFFFFFFFFFFFFFFFFFFFFFFFFFFFFFFFFFFFFF AND PUSH20 0xFFFFFFFFFFFFFFFFFFFFFFFFFFFFFFFFFFFFFFFF AND CALLER PUSH20 0xFFFFFFFFFFFFFFFFFFFFFFFFFFFFFFFFFFFFFFFF AND EQ PUSH2 0x23B JUMPI PUSH1 0x40 MLOAD PUSH32 0x8C379A000000000000000000000000000000000000000000000000000000000 DUP2 MSTORE PUSH1 0x4 ADD PUSH2 0x232 SWAP1 PUSH2 0x961 JUMP JUMPDEST PUSH1 0x40 MLOAD DUP1 SWAP2 SUB SWAP1 REVERT JUMPDEST SELFBALANCE SWAP1 POP SWAP1 JUMP JUMPDEST PUSH0 DUP1 SLOAD SWAP1 PUSH2 0x100 EXP SWAP1 DIV PUSH20 0xFFFFFFFFFFFFFFFFFFFFFFFFFFFFFFFFFFFFFFFF AND DUP2 JUMP JUMPDEST PUSH0 DUP1 SLOAD SWAP1 PUSH2 0x100 EXP SWAP1 DIV PUSH20 0xFFFFFFFFFFFFFFFFFFFFFFFFFFFFFFFFFFFFFFFF AND PUSH20 0xFFFFFFFFFFFFFFFFFFFFFFFFFFFFFFFFFFFFFFFF AND CALLER PUSH20 0xFFFFFFFFFFFFFFFFFFFFFFFFFFFFFFFFFFFFFFFF AND EQ PUSH2 0x2F1 JUMPI PUSH1 0x40 MLOAD PUSH32 0x8C379A000000000000000000000000000000000000000000000000000000000 DUP2 MSTORE PUSH1 0x4 ADD PUSH2 0x2E8 SWAP1 PUSH2 0x961 JUMP JUMPDEST PUSH1 0x40 MLOAD DUP1 SWAP2 SUB SWAP1 REVERT JUMPDEST PUSH1 0x3 PUSH1 0x1 DUP1 SLOAD SWAP1 POP LT ISZERO PUSH2 0x33A JUMPI PUSH1 0x40 MLOAD PUSH32 0x8C379A000000000000000000000000000000000000000000000000000000000 DUP2 MSTORE PUSH1 0x4 ADD PUSH2 0x331 SWAP1 PUSH2 0x9C9 JUMP JUMPDEST PUSH1 0x40 MLOAD DUP1 SWAP2 SUB SWAP1 REVERT JUMPDEST PUSH0 PUSH2 0x343 PUSH2 0x4A3 JUMP JUMPDEST SWAP1 POP PUSH0 PUSH1 0x1 DUP1 SLOAD SWAP1 POP DUP3 PUSH2 0x357 SWAP2 SWAP1 PUSH2 0xA14 JUMP JUMPDEST SWAP1 POP PUSH1 0x1 DUP2 DUP2 SLOAD DUP2 LT PUSH2 0x36D JUMPI PUSH2 0x36C PUSH2 0xA44 JUMP JUMPDEST JUMPDEST SWAP1 PUSH0 MSTORE PUSH1 0x20 PUSH0 KECCAK256 ADD PUSH0 SWAP1 SLOAD SWAP1 PUSH2 0x100 EXP SWAP1 DIV PUSH20 0xFFFFFFFFFFFFFFFFFFFFFFFFFFFFFFFFFFFFFFFF AND PUSH1 0x2 PUSH0 PUSH2 0x100 EXP DUP2 SLOAD DUP2 PUSH20 0xFFFFFFFFFFFFFFFFFFFFFFFFFFFFFFFFFFFFFFFF MUL NOT AND SWAP1 DUP4 PUSH20 0xFFFFFFFFFFFFFFFFFFFFFFFFFFFFFFFFFFFFFFFF AND MUL OR SWAP1 SSTORE POP PUSH1 0x2 PUSH0 SWAP1 SLOAD SWAP1 PUSH2 0x100 EXP SWAP1 DIV PUSH20 0xFFFFFFFFFFFFFFFFFFFFFFFFFFFFFFFFFFFFFFFF AND PUSH20 0xFFFFFFFFFFFFFFFFFFFFFFFFFFFFFFFFFFFFFFFF AND PUSH2 0x8FC PUSH2 0x417 PUSH2 0x1AC JUMP JUMPDEST SWAP1 DUP2 ISZERO MUL SWAP1 PUSH1 0x40 MLOAD PUSH0 PUSH1 0x40 MLOAD DUP1 DUP4 SUB DUP2 DUP6 DUP9 DUP9 CALL SWAP4 POP POP POP POP ISZERO DUP1 ISZERO PUSH2 0x43F JUMPI RETURNDATASIZE PUSH0 DUP1 RETURNDATACOPY RETURNDATASIZE PUSH0 REVERT JUMPDEST POP PUSH0 PUSH8 0xFFFFFFFFFFFFFFFF DUP2 GT ISZERO PUSH2 0x45A JUMPI PUSH2 0x459 PUSH2 0xA71 JUMP JUMPDEST JUMPDEST PUSH1 0x40 MLOAD SWAP1 DUP1 DUP3 MSTORE DUP1 PUSH1 0x20 MUL PUSH1 0x20 ADD DUP3 ADD PUSH1 0x40 MSTORE DUP1 ISZERO PUSH2 0x488 JUMPI DUP2 PUSH1 0x20 ADD PUSH1 0x20 DUP3 MUL DUP1 CALLDATASIZE DUP4 CALLDATACOPY DUP1 DUP3 ADD SWAP2 POP POP SWAP1 POP JUMPDEST POP PUSH1 0x1 SWAP1 DUP1 MLOAD SWAP1 PUSH1 0x20 ADD SWAP1 PUSH2 0x49E SWAP3 SWAP2 SWAP1 PUSH2 0x673 JUMP JUMPDEST POP POP POP JUMP JUMPDEST PUSH0 TIMESTAMP PREVRANDAO PUSH1 0x1 DUP1 SLOAD SWAP1 POP PUSH1 0x40 MLOAD PUSH1 0x20 ADD PUSH2 0x4BE SWAP4 SWAP3 SWAP2 SWAP1 PUSH2 0xABE JUMP JUMPDEST PUSH1 0x40 MLOAD PUSH1 0x20 DUP2 DUP4 SUB SUB DUP2 MSTORE SWAP1 PUSH1 0x40 MSTORE DUP1 MLOAD SWAP1 PUSH1 0x20 ADD KECCAK256 PUSH0 SHR SWAP1 POP SWAP1 JUMP JUMPDEST PUSH8 0xDE0B6B3A7640000 CALLVALUE LT ISZERO PUSH2 0x526 JUMPI PUSH1 0x40 MLOAD PUSH32 0x8C379A000000000000000000000000000000000000000000000000000000000 DUP2 MSTORE PUSH1 0x4 ADD PUSH2 0x51D SWAP1 PUSH2 0xB44 JUMP JUMPDEST PUSH1 0x40 MLOAD DUP1 SWAP2 SUB SWAP1 REVERT JUMPDEST PUSH1 0x1 CALLER SWAP1 DUP1 PUSH1 0x1 DUP2 SLOAD ADD DUP1 DUP3 SSTORE DUP1 SWAP2 POP POP PUSH1 0x1 SWAP1 SUB SWAP1 PUSH0 MSTORE PUSH1 0x20 PUSH0 KECCAK256 ADD PUSH0 SWAP1 SWAP2 SWAP1 SWAP2 SWAP1 SWAP2 PUSH2 0x100 EXP DUP2 SLOAD DUP2 PUSH20 0xFFFFFFFFFFFFFFFFFFFFFFFFFFFFFFFFFFFFFFFF MUL NOT AND SWAP1 DUP4 PUSH20 0xFFFFFFFFFFFFFFFFFFFFFFFFFFFFFFFFFFFFFFFF AND MUL OR SWAP1 SSTORE POP JUMP JUMPDEST PUSH1 0x2 PUSH0 SWAP1 SLOAD SWAP1 PUSH2 0x100 EXP SWAP1 DIV PUSH20 0xFFFFFFFFFFFFFFFFFFFFFFFFFFFFFFFFFFFFFFFF AND DUP2 JUMP JUMPDEST PUSH1 0x60 PUSH1 0x1 DUP1 SLOAD DUP1 PUSH1 0x20 MUL PUSH1 0x20 ADD PUSH1 0x40 MLOAD SWAP1 DUP2 ADD PUSH1 0x40 MSTORE DUP1 SWAP3 SWAP2 SWAP1 DUP2 DUP2 MSTORE PUSH1 0x20 ADD DUP3 DUP1 SLOAD DUP1 ISZERO PUSH2 0x62E JUMPI PUSH1 0x20 MUL DUP3 ADD SWAP2 SWAP1 PUSH0 MSTORE PUSH1 0x20 PUSH0 KECCAK256 SWAP1 JUMPDEST DUP2 PUSH0 SWAP1 SLOAD SWAP1 PUSH2 0x100 EXP SWAP1 DIV PUSH20 0xFFFFFFFFFFFFFFFFFFFFFFFFFFFFFFFFFFFFFFFF AND PUSH20 0xFFFFFFFFFFFFFFFFFFFFFFFFFFFFFFFFFFFFFFFF AND DUP2 MSTORE PUSH1 0x20 ADD SWAP1 PUSH1 0x1 ADD SWAP1 DUP1 DUP4 GT PUSH2 0x5E5 JUMPI JUMPDEST POP POP POP POP POP SWAP1 POP SWAP1 JUMP JUMPDEST PUSH1 0x1 DUP2 DUP2 SLOAD DUP2 LT PUSH2 0x647 JUMPI PUSH0 DUP1 REVERT JUMPDEST SWAP1 PUSH0 MSTORE PUSH1 0x20 PUSH0 KECCAK256 ADD PUSH0 SWAP2 POP SLOAD SWAP1 PUSH2 0x100 EXP SWAP1 DIV PUSH20 0xFFFFFFFFFFFFFFFFFFFFFFFFFFFFFFFFFFFFFFFF AND DUP2 JUMP JUMPDEST DUP3 DUP1 SLOAD DUP3 DUP3 SSTORE SWAP1 PUSH0 MSTORE PUSH1 0x20 PUSH0 KECCAK256 SWAP1 DUP2 ADD SWAP3 DUP3 ISZERO PUSH2 0x6E9 JUMPI SWAP2 PUSH1 0x20 MUL DUP3 ADD JUMPDEST DUP3 DUP2 GT ISZERO PUSH2 0x6E8 JUMPI DUP3 MLOAD DUP3 PUSH0 PUSH2 0x100 EXP DUP2 SLOAD DUP2 PUSH20 0xFFFFFFFFFFFFFFFFFFFFFFFFFFFFFFFFFFFFFFFF MUL NOT AND SWAP1 DUP4 PUSH20 0xFFFFFFFFFFFFFFFFFFFFFFFFFFFFFFFFFFFFFFFF AND MUL OR SWAP1 SSTORE POP SWAP2 PUSH1 0x20 ADD SWAP2 SWAP1 PUSH1 0x1 ADD SWAP1 PUSH2 0x691 JUMP JUMPDEST JUMPDEST POP SWAP1 POP PUSH2 0x6F6 SWAP2 SWAP1 PUSH2 0x6FA JUMP JUMPDEST POP SWAP1 JUMP JUMPDEST JUMPDEST DUP1 DUP3 GT ISZERO PUSH2 0x711 JUMPI PUSH0 DUP2 PUSH0 SWAP1 SSTORE POP PUSH1 0x1 ADD PUSH2 0x6FB JUMP JUMPDEST POP SWAP1 JUMP JUMPDEST PUSH0 DUP2 SWAP1 POP SWAP2 SWAP1 POP JUMP JUMPDEST PUSH2 0x727 DUP2 PUSH2 0x715 JUMP JUMPDEST DUP3 MSTORE POP POP JUMP JUMPDEST PUSH0 PUSH1 0x20 DUP3 ADD SWAP1 POP PUSH2 0x740 PUSH0 DUP4 ADD DUP5 PUSH2 0x71E JUMP JUMPDEST SWAP3 SWAP2 POP POP JUMP JUMPDEST PUSH0 PUSH20 0xFFFFFFFFFFFFFFFFFFFFFFFFFFFFFFFFFFFFFFFF DUP3 AND SWAP1 POP SWAP2 SWAP1 POP JUMP JUMPDEST PUSH0 PUSH2 0x76F DUP3 PUSH2 0x746 JUMP JUMPDEST SWAP1 POP SWAP2 SWAP1 POP JUMP JUMPDEST PUSH2 0x77F DUP2 PUSH2 0x765 JUMP JUMPDEST DUP3 MSTORE POP POP JUMP JUMPDEST PUSH0 PUSH1 0x20 DUP3 ADD SWAP1 POP PUSH2 0x798 PUSH0 DUP4 ADD DUP5 PUSH2 0x776 JUMP JUMPDEST SWAP3 SWAP2 POP POP JUMP JUMPDEST PUSH0 PUSH2 0x7A8 DUP3 PUSH2 0x746 JUMP JUMPDEST SWAP1 POP SWAP2 SWAP1 POP JUMP JUMPDEST PUSH2 0x7B8 DUP2 PUSH2 0x79E JUMP JUMPDEST DUP3 MSTORE POP POP JUMP JUMPDEST PUSH0 PUSH1 0x20 DUP3 ADD SWAP1 POP PUSH2 0x7D1 PUSH0 DUP4 ADD DUP5 PUSH2 0x7AF JUMP JUMPDEST SWAP3 SWAP2 POP POP JUMP JUMPDEST PUSH0 DUP2 MLOAD SWAP1 POP SWAP2 SWAP1 POP JUMP JUMPDEST PUSH0 DUP3 DUP3 MSTORE PUSH1 0x20 DUP3 ADD SWAP1 POP SWAP3 SWAP2 POP POP JUMP JUMPDEST PUSH0 DUP2 SWAP1 POP PUSH1 0x20 DUP3 ADD SWAP1 POP SWAP2 SWAP1 POP JUMP JUMPDEST PUSH2 0x809 DUP2 PUSH2 0x79E JUMP JUMPDEST DUP3 MSTORE POP POP JUMP JUMPDEST PUSH0 PUSH2 0x81A DUP4 DUP4 PUSH2 0x800 JUMP JUMPDEST PUSH1 0x20 DUP4 ADD SWAP1 POP SWAP3 SWAP2 POP POP JUMP JUMPDEST PUSH0 PUSH1 0x20 DUP3 ADD SWAP1 POP SWAP2 SWAP1 POP JUMP JUMPDEST PUSH0 PUSH2 0x83C DUP3 PUSH2 0x7D7 JUMP JUMPDEST PUSH2 0x846 DUP2 DUP6 PUSH2 0x7E1 JUMP JUMPDEST SWAP4 POP PUSH2 0x851 DUP4 PUSH2 0x7F1 JUMP JUMPDEST DUP1 PUSH0 JUMPDEST DUP4 DUP2 LT ISZERO PUSH2 0x881 JUMPI DUP2 MLOAD PUSH2 0x868 DUP9 DUP3 PUSH2 0x80F JUMP JUMPDEST SWAP8 POP PUSH2 0x873 DUP4 PUSH2 0x826 JUMP JUMPDEST SWAP3 POP POP PUSH1 0x1 DUP2 ADD SWAP1 POP PUSH2 0x854 JUMP JUMPDEST POP DUP6 SWAP4 POP POP POP POP SWAP3 SWAP2 POP POP JUMP JUMPDEST PUSH0 PUSH1 0x20 DUP3 ADD SWAP1 POP DUP2 DUP2 SUB PUSH0 DUP4 ADD MSTORE PUSH2 0x8A6 DUP2 DUP5 PUSH2 0x832 JUMP JUMPDEST SWAP1 POP SWAP3 SWAP2 POP POP JUMP JUMPDEST PUSH0 DUP1 REVERT JUMPDEST PUSH2 0x8BB DUP2 PUSH2 0x715 JUMP JUMPDEST DUP2 EQ PUSH2 0x8C5 JUMPI PUSH0 DUP1 REVERT JUMPDEST POP JUMP JUMPDEST PUSH0 DUP2 CALLDATALOAD SWAP1 POP PUSH2 0x8D6 DUP2 PUSH2 0x8B2 JUMP JUMPDEST SWAP3 SWAP2 POP POP JUMP JUMPDEST PUSH0 PUSH1 0x20 DUP3 DUP5 SUB SLT ISZERO PUSH2 0x8F1 JUMPI PUSH2 0x8F0 PUSH2 0x8AE JUMP JUMPDEST JUMPDEST PUSH0 PUSH2 0x8FE DUP5 DUP3 DUP6 ADD PUSH2 0x8C8 JUMP JUMPDEST SWAP2 POP POP SWAP3 SWAP2 POP POP JUMP JUMPDEST PUSH0 DUP3 DUP3 MSTORE PUSH1 0x20 DUP3 ADD SWAP1 POP SWAP3 SWAP2 POP POP JUMP JUMPDEST PUSH32 0x4E6F7420417574686F72697A6564000000000000000000000000000000000000 PUSH0 DUP3 ADD MSTORE POP JUMP JUMPDEST PUSH0 PUSH2 0x94B PUSH1 0xE DUP4 PUSH2 0x907 JUMP JUMPDEST SWAP2 POP PUSH2 0x956 DUP3 PUSH2 0x917 JUMP JUMPDEST PUSH1 0x20 DUP3 ADD SWAP1 POP SWAP2 SWAP1 POP JUMP JUMPDEST PUSH0 PUSH1 0x20 DUP3 ADD SWAP1 POP DUP2 DUP2 SUB PUSH0 DUP4 ADD MSTORE PUSH2 0x978 DUP2 PUSH2 0x93F JUMP JUMPDEST SWAP1 POP SWAP2 SWAP1 POP JUMP JUMPDEST PUSH32 0x41746C65617374203320706C617965727320617265206E656564656400000000 PUSH0 DUP3 ADD MSTORE POP JUMP JUMPDEST PUSH0 PUSH2 0x9B3 PUSH1 0x1C DUP4 PUSH2 0x907 JUMP JUMPDEST SWAP2 POP PUSH2 0x9BE DUP3 PUSH2 0x97F JUMP JUMPDEST PUSH1 0x20 DUP3 ADD SWAP1 POP SWAP2 SWAP1 POP JUMP JUMPDEST PUSH0 PUSH1 0x20 DUP3 ADD SWAP1 POP DUP2 DUP2 SUB PUSH0 DUP4 ADD MSTORE PUSH2 0x9E0 DUP2 PUSH2 0x9A7 JUMP JUMPDEST SWAP1 POP SWAP2 SWAP1 POP JUMP JUMPDEST PUSH32 0x4E487B7100000000000000000000000000000000000000000000000000000000 PUSH0 MSTORE PUSH1 0x12 PUSH1 0x4 MSTORE PUSH1 0x24 PUSH0 REVERT JUMPDEST PUSH0 PUSH2 0xA1E DUP3 PUSH2 0x715 JUMP JUMPDEST SWAP2 POP PUSH2 0xA29 DUP4 PUSH2 0x715 JUMP JUMPDEST SWAP3 POP DUP3 PUSH2 0xA39 JUMPI PUSH2 0xA38 PUSH2 0x9E7 JUMP JUMPDEST JUMPDEST DUP3 DUP3 MOD SWAP1 POP SWAP3 SWAP2 POP POP JUMP JUMPDEST PUSH32 0x4E487B7100000000000000000000000000000000000000000000000000000000 PUSH0 MSTORE PUSH1 0x32 PUSH1 0x4 MSTORE PUSH1 0x24 PUSH0 REVERT JUMPDEST PUSH32 0x4E487B7100000000000000000000000000000000000000000000000000000000 PUSH0 MSTORE PUSH1 0x41 PUSH1 0x4 MSTORE PUSH1 0x24 PUSH0 REVERT JUMPDEST PUSH0 DUP2 SWAP1 POP SWAP2 SWAP1 POP JUMP JUMPDEST PUSH2 0xAB8 PUSH2 0xAB3 DUP3 PUSH2 0x715 JUMP JUMPDEST PUSH2 0xA9E JUMP JUMPDEST DUP3 MSTORE POP POP JUMP JUMPDEST PUSH0 PUSH2 0xAC9 DUP3 DUP7 PUSH2 0xAA7 JUMP JUMPDEST PUSH1 0x20 DUP3 ADD SWAP2 POP PUSH2 0xAD9 DUP3 DUP6 PUSH2 0xAA7 JUMP JUMPDEST PUSH1 0x20 DUP3 ADD SWAP2 POP PUSH2 0xAE9 DUP3 DUP5 PUSH2 0xAA7 JUMP JUMPDEST PUSH1 0x20 DUP3 ADD SWAP2 POP DUP2 SWAP1 POP SWAP5 SWAP4 POP POP POP POP JUMP JUMPDEST PUSH32 0x31206574686572206E656564656420746F207061727469636970617465000000 PUSH0 DUP3 ADD MSTORE POP JUMP JUMPDEST PUSH0 PUSH2 0xB2E PUSH1 0x1D DUP4 PUSH2 0x907 JUMP JUMPDEST SWAP2 POP PUSH2 0xB39 DUP3 PUSH2 0xAFA JUMP JUMPDEST PUSH1 0x20 DUP3 ADD SWAP1 POP SWAP2 SWAP1 POP JUMP JUMPDEST PUSH0 PUSH1 0x20 DUP3 ADD SWAP1 POP DUP2 DUP2 SUB PUSH0 DUP4 ADD MSTORE PUSH2 0xB5B DUP2 PUSH2 0xB22 JUMP JUMPDEST SWAP1 POP SWAP2 SWAP1 POP JUMP INVALID LOG2 PUSH5 0x6970667358 0x22 SLT KECCAK256 LOG2 PUSH27 0x94042C816B4E8DD8A9D96144413554373E2790546ADF8797DE73C1 0xD0 0xE4 0xE PUSH5 0x736F6C6343 STOP ADDMOD BYTE STOP CALLER "
				},
				"gasEstimates": {
					"creation": {
						"codeDepositCost": "593600",
						"executionCost": "2761",
						"totalCost": "596361"
					},
					"external": {
						"getAllPlayers()": "infinite",
						"getBalance()": "2599",
						"manager()": "2528",
						"participate()": "48719",
						"pickWinner()": "infinite",
						"players(uint256)": "5010",
						"randomNumber()": "infinite",
						"winner()": "2530"
					}
				},
				"methodIdentifiers": {
					"getAllPlayers()": "efa1c482",
					"getBalance()": "12065fe0",
					"manager()": "481c6a75",
					"participate()": "d11711a2",
					"pickWinner()": "5d495aea",
					"players(uint256)": "f71d96cb",
					"randomNumber()": "ccbac9f5",
					"winner()": "dfbf53ae"
				}
			},
			"storageLayout": {
				"storage": [
					{
						"astId": 3,
						"contract": "Solidity Basic Projects/Lottery.sol:Lottery",
						"label": "manager",
						"offset": 0,
						"slot": "0",
						"type": "t_address"
					},
					{
						"astId": 6,
						"contract": "Solidity Basic Projects/Lottery.sol:Lottery",
						"label": "players",
						"offset": 0,
						"slot": "1",
						"type": "t_array(t_address_payable)dyn_storage"
					},
					{
						"astId": 8,
						"contract": "Solidity Basic Projects/Lottery.sol:Lottery",
						"label": "winner",
						"offset": 0,
						"slot": "2",
						"type": "t_address_payable"
					}
				],
				"types": {
					"t_address": {
						"encoding": "inplace",
						"label": "address",
						"numberOfBytes": "20"
					},
					"t_address_payable": {
						"encoding": "inplace",
						"label": "address payable",
						"numberOfBytes": "20"
					},
					"t_array(t_address_payable)dyn_storage": {
						"base": "t_address_payable",
						"encoding": "dynamic_array",
						"label": "address payable[]",
						"numberOfBytes": "32"
					}
				}
			},
			"userdoc": {
				"kind": "user",
				"methods": {},
				"version": 1
			}
		}
	}
}